{
  "contractName": "AvatarBreeding",
  "abi": [
    {
      "anonymous": false,
      "inputs": [
        {
          "indexed": false,
          "internalType": "uint256",
          "name": "avatarId",
          "type": "uint256"
        },
        {
          "indexed": false,
          "internalType": "uint256",
          "name": "avatarDna",
          "type": "uint256"
        },
        {
          "indexed": false,
          "internalType": "string",
          "name": "avatarName",
          "type": "string"
        },
        {
          "indexed": false,
          "internalType": "string",
          "name": "avatarSex",
          "type": "string"
        },
        {
          "indexed": false,
          "internalType": "bytes32",
          "name": "avatarRace",
          "type": "bytes32"
        },
        {
          "indexed": false,
          "internalType": "uint32",
          "name": "avatarReadyTime",
          "type": "uint32"
        },
        {
          "indexed": false,
          "internalType": "uint16",
          "name": "avatarMiles",
          "type": "uint16"
        },
        {
          "indexed": false,
          "internalType": "uint16",
          "name": "avatarHome",
          "type": "uint16"
        },
        {
          "indexed": false,
          "internalType": "uint16",
          "name": "avatarWorkPlace",
          "type": "uint16"
        },
        {
          "indexed": false,
          "internalType": "uint16",
          "name": "avatarBreedCount",
          "type": "uint16"
        }
      ],
      "name": "NewAvatar",
      "type": "event"
    },
    {
      "anonymous": false,
      "inputs": [
        {
          "indexed": true,
          "internalType": "address",
          "name": "previousOwner",
          "type": "address"
        },
        {
          "indexed": true,
          "internalType": "address",
          "name": "newOwner",
          "type": "address"
        }
      ],
      "name": "OwnershipTransferred",
      "type": "event"
    },
    {
      "constant": true,
      "inputs": [
        {
          "internalType": "uint256",
          "name": "",
          "type": "uint256"
        }
      ],
      "name": "avatarToOwner",
      "outputs": [
        {
          "internalType": "address",
          "name": "",
          "type": "address"
        }
      ],
      "payable": false,
      "stateMutability": "view",
      "type": "function"
    },
    {
      "constant": true,
      "inputs": [
        {
          "internalType": "uint256",
          "name": "",
          "type": "uint256"
        }
      ],
      "name": "avatars",
      "outputs": [
        {
          "internalType": "uint256",
          "name": "avatarDna",
          "type": "uint256"
        },
        {
          "internalType": "string",
          "name": "avatarName",
          "type": "string"
        },
        {
          "internalType": "string",
          "name": "avatarSex",
          "type": "string"
        },
        {
          "internalType": "bytes32",
          "name": "avatarRace",
          "type": "bytes32"
        },
        {
          "internalType": "uint32",
          "name": "avatarReadyTime",
          "type": "uint32"
        },
        {
          "internalType": "uint256",
          "name": "avatarMiles",
          "type": "uint256"
        },
        {
          "internalType": "uint256",
          "name": "avatarHome",
          "type": "uint256"
        },
        {
          "internalType": "uint256",
          "name": "avatarWorkPlace",
          "type": "uint256"
        },
        {
          "internalType": "uint16",
          "name": "breedCount",
          "type": "uint16"
        }
      ],
      "payable": false,
      "stateMutability": "view",
      "type": "function"
    },
    {
      "constant": false,
      "inputs": [
        {
          "internalType": "string",
          "name": "_sex",
          "type": "string"
        }
      ],
      "name": "createRandomAvatar",
      "outputs": [],
      "payable": true,
      "stateMutability": "payable",
      "type": "function"
    },
    {
      "constant": true,
      "inputs": [],
      "name": "isOwner",
      "outputs": [
        {
          "internalType": "bool",
          "name": "",
          "type": "bool"
        }
      ],
      "payable": false,
      "stateMutability": "view",
      "type": "function"
    },
    {
      "constant": false,
      "inputs": [
        {
          "internalType": "uint256",
          "name": "_boredApeId",
          "type": "uint256"
        }
      ],
      "name": "migrateBoredApe",
      "outputs": [],
      "payable": true,
      "stateMutability": "payable",
      "type": "function"
    },
    {
      "constant": false,
      "inputs": [
        {
          "internalType": "uint256",
          "name": "_cypherPunkId",
          "type": "uint256"
        }
      ],
      "name": "migrateCypherPunk",
      "outputs": [],
      "payable": true,
      "stateMutability": "payable",
      "type": "function"
    },
    {
      "constant": false,
      "inputs": [
        {
          "internalType": "uint256",
          "name": "_kittyId",
          "type": "uint256"
        }
      ],
      "name": "migrateKitty",
      "outputs": [],
      "payable": true,
      "stateMutability": "payable",
      "type": "function"
    },
    {
      "constant": true,
      "inputs": [],
      "name": "owner",
      "outputs": [
        {
          "internalType": "address",
          "name": "",
          "type": "address"
        }
      ],
      "payable": false,
      "stateMutability": "view",
      "type": "function"
    },
    {
      "constant": false,
      "inputs": [],
      "name": "renounceOwnership",
      "outputs": [],
      "payable": false,
      "stateMutability": "nonpayable",
      "type": "function"
    },
    {
      "constant": false,
      "inputs": [
        {
          "internalType": "address",
          "name": "_address",
          "type": "address"
        }
      ],
      "name": "setBoredApeContractAddress",
      "outputs": [],
      "payable": false,
      "stateMutability": "nonpayable",
      "type": "function"
    },
    {
      "constant": false,
      "inputs": [
        {
          "internalType": "address",
          "name": "_address",
          "type": "address"
        }
      ],
      "name": "setCypherPunkContractAddress",
      "outputs": [],
      "payable": false,
      "stateMutability": "nonpayable",
      "type": "function"
    },
    {
      "constant": false,
      "inputs": [
        {
          "internalType": "address",
          "name": "_address",
          "type": "address"
        }
      ],
      "name": "setKittyContractAddress",
      "outputs": [],
      "payable": false,
      "stateMutability": "nonpayable",
      "type": "function"
    },
    {
      "constant": false,
      "inputs": [
        {
          "internalType": "address",
          "name": "newOwner",
          "type": "address"
        }
      ],
      "name": "transferOwnership",
      "outputs": [],
      "payable": false,
      "stateMutability": "nonpayable",
      "type": "function"
    },
    {
      "constant": false,
      "inputs": [
        {
          "internalType": "uint256",
          "name": "_avatarId",
          "type": "uint256"
        },
        {
          "internalType": "uint256",
          "name": "_targetAvatarId",
          "type": "uint256"
        }
      ],
      "name": "breed",
      "outputs": [],
      "payable": true,
      "stateMutability": "payable",
      "type": "function"
    }
  ],
  "bytecode": "0x60806040526010600155600154600a0a6002556201518060035567016345785d8a00006007556000600855605a600c556007600d55670429d069189e0000600e55336000806101000a81548173ffffffffffffffffffffffffffffffffffffffff021916908373ffffffffffffffffffffffffffffffffffffffff1602179055506000809054906101000a900473ffffffffffffffffffffffffffffffffffffffff1673ffffffffffffffffffffffffffffffffffffffff16600073ffffffffffffffffffffffffffffffffffffffff167f8be0079c531659141344cd1fd0a4f28419497f9722a3daafe3b4186f6b6457e060405160405180910390a36128ab8061010b6000396000f3fe6080604052600436106100dd5760003560e01c80638f32d59b1161007f578063d254160711610059578063d2541607146104ae578063d9ecad7b14610569578063f2fde38b146105a1578063f5dcef04146105f2576100dd565b80638f32d59b146103d65780639687871214610405578063c8539c4b14610433576100dd565b8063715018a6116100bb578063715018a6146101b2578063834d5fac146101c95780638b030aaa1461032e5780638da5cb5b1461037f576100dd565b80630351cf51146100e25780635de84288146101105780635f4623f114610161575b600080fd5b61010e600480360360208110156100f857600080fd5b8101908080359060200190929190505050610620565b005b34801561011c57600080fd5b5061015f6004803603602081101561013357600080fd5b81019080803573ffffffffffffffffffffffffffffffffffffffff1690602001909291905050506107dc565b005b34801561016d57600080fd5b506101b06004803603602081101561018457600080fd5b81019080803573ffffffffffffffffffffffffffffffffffffffff169060200190929190505050610831565b005b3480156101be57600080fd5b506101c7610886565b005b3480156101d557600080fd5b50610202600480360360208110156101ec57600080fd5b8101908080359060200190929190505050610956565b604051808a815260200180602001806020018981526020018863ffffffff1663ffffffff1681526020018781526020018681526020018581526020018461ffff1661ffff16815260200183810383528b818151815260200191508051906020019080838360005b83811015610284578082015181840152602081019050610269565b50505050905090810190601f1680156102b15780820380516001836020036101000a031916815260200191505b5083810382528a818151815260200191508051906020019080838360005b838110156102ea5780820151818401526020810190506102cf565b50505050905090810190601f1680156103175780820380516001836020036101000a031916815260200191505b509b50505050505050505050505060405180910390f35b34801561033a57600080fd5b5061037d6004803603602081101561035157600080fd5b81019080803573ffffffffffffffffffffffffffffffffffffffff169060200190929190505050610aff565b005b34801561038b57600080fd5b50610394610b54565b604051808273ffffffffffffffffffffffffffffffffffffffff1673ffffffffffffffffffffffffffffffffffffffff16815260200191505060405180910390f35b3480156103e257600080fd5b506103eb610b7d565b604051808215151515815260200191505060405180910390f35b6104316004803603602081101561041b57600080fd5b8101908080359060200190929190505050610bd4565b005b34801561043f57600080fd5b5061046c6004803603602081101561045657600080fd5b8101908080359060200190929190505050610d90565b604051808273ffffffffffffffffffffffffffffffffffffffff1673ffffffffffffffffffffffffffffffffffffffff16815260200191505060405180910390f35b610567600480360360208110156104c457600080fd5b81019080803590602001906401000000008111156104e157600080fd5b8201836020820111156104f357600080fd5b8035906020019184600183028401116401000000008311171561051557600080fd5b91908080601f016020809104026020016040519081016040528093929190818152602001838380828437600081840152601f19601f820116905080830192505050505050509192919290505050610dc3565b005b61059f6004803603604081101561057f57600080fd5b810190808035906020019092919080359060200190929190505050610ec9565b005b3480156105ad57600080fd5b506105f0600480360360208110156105c457600080fd5b81019080803573ffffffffffffffffffffffffffffffffffffffff169060200190929190505050611f18565b005b61061e6004803603602081101561060857600080fd5b8101908080359060200190929190505050611f35565b005b600754341461062e57600080fd5b600060405160200180807f626f726564417065000000000000000000000000000000000000000000000000815250600801905060405160208183030381529060405280519060200120905060606106836120f1565b90506000600b60009054906101000a900473ffffffffffffffffffffffffffffffffffffffff1673ffffffffffffffffffffffffffffffffffffffff166394eb170d856040518263ffffffff1660e01b8152600401808281526020019150506101406040518083038186803b1580156106fb57600080fd5b505afa15801561070f573d6000803e3d6000fd5b505050506040513d61014081101561072657600080fd5b8101908080519060200190929190805190602001909291908051906020019092919080519060200190929190805190602001909291908051906020019092919080519060200190929190805190602001909291908051906020019092919080519060200190929190505050909192939495969798509091929394959697509091929394959650909192939495509091929394509091929350909192509091509050809150506107d6838383612189565b50505050565b6107e4610b7d565b6107ed57600080fd5b80600a60006101000a81548173ffffffffffffffffffffffffffffffffffffffff021916908373ffffffffffffffffffffffffffffffffffffffff16021790555050565b610839610b7d565b61084257600080fd5b80600960006101000a81548173ffffffffffffffffffffffffffffffffffffffff021916908373ffffffffffffffffffffffffffffffffffffffff16021790555050565b61088e610b7d565b61089757600080fd5b600073ffffffffffffffffffffffffffffffffffffffff166000809054906101000a900473ffffffffffffffffffffffffffffffffffffffff1673ffffffffffffffffffffffffffffffffffffffff167f8be0079c531659141344cd1fd0a4f28419497f9722a3daafe3b4186f6b6457e060405160405180910390a360008060006101000a81548173ffffffffffffffffffffffffffffffffffffffff021916908373ffffffffffffffffffffffffffffffffffffffff160217905550565b6004818154811061096357fe5b9060005260206000209060090201600091509050806000015490806001018054600181600116156101000203166002900480601f016020809104026020016040519081016040528092919081815260200182805460018160011615610100020316600290048015610a155780601f106109ea57610100808354040283529160200191610a15565b820191906000526020600020905b8154815290600101906020018083116109f857829003601f168201915b505050505090806002018054600181600116156101000203166002900480601f016020809104026020016040519081016040528092919081815260200182805460018160011615610100020316600290048015610ab35780601f10610a8857610100808354040283529160200191610ab3565b820191906000526020600020905b815481529060010190602001808311610a9657829003601f168201915b5050505050908060030154908060040160009054906101000a900463ffffffff16908060050154908060060154908060070154908060080160009054906101000a900461ffff16905089565b610b07610b7d565b610b1057600080fd5b80600b60006101000a81548173ffffffffffffffffffffffffffffffffffffffff021916908373ffffffffffffffffffffffffffffffffffffffff16021790555050565b60008060009054906101000a900473ffffffffffffffffffffffffffffffffffffffff16905090565b60008060009054906101000a900473ffffffffffffffffffffffffffffffffffffffff1673ffffffffffffffffffffffffffffffffffffffff163373ffffffffffffffffffffffffffffffffffffffff1614905090565b6007543414610be257600080fd5b600060405160200180807f6b6974747900000000000000000000000000000000000000000000000000000081525060050190506040516020818303038152906040528051906020012090506060610c376120f1565b90506000600960009054906101000a900473ffffffffffffffffffffffffffffffffffffffff1673ffffffffffffffffffffffffffffffffffffffff1663e98b7f4d856040518263ffffffff1660e01b8152600401808281526020019150506101406040518083038186803b158015610caf57600080fd5b505afa158015610cc3573d6000803e3d6000fd5b505050506040513d610140811015610cda57600080fd5b810190808051906020019092919080519060200190929190805190602001909291908051906020019092919080519060200190929190805190602001909291908051906020019092919080519060200190929190805190602001909291908051906020019092919050505090919293949596979850909192939495969750909192939495965090919293949550909192939450909192935090919250909150905080915050610d8a838383612189565b50505050565b60056020528060005260406000206000915054906101000a900473ffffffffffffffffffffffffffffffffffffffff1681565b6007543414610dd157600080fd5b6000600660003373ffffffffffffffffffffffffffffffffffffffff1673ffffffffffffffffffffffffffffffffffffffff1681526020019081526020016000205414610e1d57600080fd5b600060405160200180807f74726176656c657200000000000000000000000000000000000000000000000081525060080190506040516020818303038152906040528051906020012090506000610ea86040518060400160405280600881526020017f74726176656c657200000000000000000000000000000000000000000000000081525061252b565b905060648181610eb457fe5b0681039050610ec4828483612189565b505050565b816005600082815260200190815260200160002060009054906101000a900473ffffffffffffffffffffffffffffffffffffffff1673ffffffffffffffffffffffffffffffffffffffff163373ffffffffffffffffffffffffffffffffffffffff1614610f3557600080fd5b816005600082815260200190815260200160002060009054906101000a900473ffffffffffffffffffffffffffffffffffffffff1673ffffffffffffffffffffffffffffffffffffffff163373ffffffffffffffffffffffffffffffffffffffff1614610fa157600080fd5b600060048581548110610fb057fe5b90600052602060002090600902019050600060048581548110610fcf57fe5b90600052602060002090600902019050610fe8826125b9565b610ff157600080fd5b610ffa816125b9565b61100357600080fd5b600e54341461101157600080fd5b6000600282600001548460000154018161102757fe5b049050600060405160200180807f63797068657250756e6b00000000000000000000000000000000000000000000815250600a0190506040516020818303038152906040528051906020012084600301541480156110ce575060405160200180807f74726176656c65720000000000000000000000000000000000000000000000008152506008019050604051602081830303815290604052805190602001208360030154145b80611177575060405160200180807f74726176656c65720000000000000000000000000000000000000000000000008152506008019050604051602081830303815290604052805190602001208460030154148015611176575060405160200180807f63797068657250756e6b00000000000000000000000000000000000000000000815250600a019050604051602081830303815290604052805190602001208360030154145b5b156111c65760405160200180807f63797068657254726176656c6572000000000000000000000000000000000000815250600e0190506040516020818303038152906040528051906020012090505b60405160200180807f6b697474790000000000000000000000000000000000000000000000000000008152506005019050604051602081830303815290604052805190602001208460030154148015611268575060405160200180807f74726176656c65720000000000000000000000000000000000000000000000008152506008019050604051602081830303815290604052805190602001208360030154145b80611311575060405160200180807f74726176656c65720000000000000000000000000000000000000000000000008152506008019050604051602081830303815290604052805190602001208460030154148015611310575060405160200180807f6b697474790000000000000000000000000000000000000000000000000000008152506005019050604051602081830303815290604052805190602001208360030154145b5b156113605760405160200180807f6b6974747954726176656c657200000000000000000000000000000000000000815250600d0190506040516020818303038152906040528051906020012090505b60405160200180807f626f7265644170650000000000000000000000000000000000000000000000008152506008019050604051602081830303815290604052805190602001208460030154148015611402575060405160200180807f74726176656c65720000000000000000000000000000000000000000000000008152506008019050604051602081830303815290604052805190602001208360030154145b806114ab575060405160200180807f74726176656c657200000000000000000000000000000000000000000000000081525060080190506040516020818303038152906040528051906020012084600301541480156114aa575060405160200180807f626f7265644170650000000000000000000000000000000000000000000000008152506008019050604051602081830303815290604052805190602001208360030154145b5b156114fa5760405160200180807f626f72656454726176656c657200000000000000000000000000000000000000815250600d0190506040516020818303038152906040528051906020012090505b60405160200180807f63797068657250756e6b00000000000000000000000000000000000000000000815250600a01905060405160208183030381529060405280519060200120846003015414801561159c575060405160200180807f6b697474790000000000000000000000000000000000000000000000000000008152506005019050604051602081830303815290604052805190602001208360030154145b80611645575060405160200180807f6b697474790000000000000000000000000000000000000000000000000000008152506005019050604051602081830303815290604052805190602001208460030154148015611644575060405160200180807f63797068657250756e6b00000000000000000000000000000000000000000000815250600a019050604051602081830303815290604052805190602001208360030154145b5b156116945760405160200180807f6379706865724b69747479000000000000000000000000000000000000000000815250600b0190506040516020818303038152906040528051906020012090505b60405160200180807f63797068657250756e6b00000000000000000000000000000000000000000000815250600a019050604051602081830303815290604052805190602001208460030154148015611736575060405160200180807f626f7265644170650000000000000000000000000000000000000000000000008152506008019050604051602081830303815290604052805190602001208360030154145b806117df575060405160200180807f626f72656441706500000000000000000000000000000000000000000000000081525060080190506040516020818303038152906040528051906020012084600301541480156117de575060405160200180807f63797068657250756e6b00000000000000000000000000000000000000000000815250600a019050604051602081830303815290604052805190602001208360030154145b5b1561182e5760405160200180807f637970686572417065000000000000000000000000000000000000000000000081525060090190506040516020818303038152906040528051906020012090505b60405160200180807f6b6974747900000000000000000000000000000000000000000000000000000081525060050190506040516020818303038152906040528051906020012084600301541480156118d0575060405160200180807f626f7265644170650000000000000000000000000000000000000000000000008152506008019050604051602081830303815290604052805190602001208360030154145b80611979575060405160200180807f626f7265644170650000000000000000000000000000000000000000000000008152506008019050604051602081830303815290604052805190602001208460030154148015611978575060405160200180807f6b697474790000000000000000000000000000000000000000000000000000008152506005019050604051602081830303815290604052805190602001208360030154145b5b156119c85760405160200180807f6b6974747900000000000000000000000000000000000000000000000000000081525060050190506040516020818303038152906040528051906020012090505b60405160200180807f74726176656c65720000000000000000000000000000000000000000000000008152506008019050604051602081830303815290604052805190602001208460030154148015611a6a575060405160200180807f74726176656c65720000000000000000000000000000000000000000000000008152506008019050604051602081830303815290604052805190602001208360030154145b15611ab95760405160200180807f74726176656c657200000000000000000000000000000000000000000000000081525060080190506040516020818303038152906040528051906020012090505b60405160200180807f6b697474790000000000000000000000000000000000000000000000000000008152506005019050604051602081830303815290604052805190602001208460030154148015611b5b575060405160200180807f6b697474790000000000000000000000000000000000000000000000000000008152506005019050604051602081830303815290604052805190602001208360030154145b15611baa5760405160200180807f6b6974747900000000000000000000000000000000000000000000000000000081525060050190506040516020818303038152906040528051906020012090505b60405160200180807f626f7265644170650000000000000000000000000000000000000000000000008152506008019050604051602081830303815290604052805190602001208460030154148015611c4c575060405160200180807f626f7265644170650000000000000000000000000000000000000000000000008152506008019050604051602081830303815290604052805190602001208360030154145b15611c9b5760405160200180807f626f72656441706500000000000000000000000000000000000000000000000081525060080190506040516020818303038152906040528051906020012090505b60405160200180807f63797068657250756e6b00000000000000000000000000000000000000000000815250600a019050604051602081830303815290604052805190602001208460030154148015611d3d575060405160200180807f63797068657250756e6b00000000000000000000000000000000000000000000815250600a019050604051602081830303815290604052805190602001208360030154145b15611d905760405160200180807f63797068657250756e6b00000000000000000000000000000000000000000000815250600a019050604051602081830303815290604052805190602001209050611dda565b60405160200180807f6e6577526163657300000000000000000000000000000000000000000000000081525060080190506040516020818303038152906040528051906020012090505b6000611de660646125e0565b9050600c548111158015611e125750600d548560080160009054906101000a900461ffff1661ffff1611155b15611e8457611e2982611e236120f1565b85612189565b611e328561266f565b611e3b8461266f565b611e6560018660080160009054906101000a900461ffff1661ffff1661269990919063ffffffff16565b8560080160006101000a81548161ffff021916908361ffff1602179055505b600c5481118015611ead5750600d548560080160009054906101000a900461ffff1661ffff1611155b15611f0d57611ebb8561266f565b611ec48461266f565b611eee60018660080160009054906101000a900461ffff1661ffff1661269990919063ffffffff16565b8560080160006101000a81548161ffff021916908361ffff1602179055505b505050505050505050565b611f20610b7d565b611f2957600080fd5b611f32816126bd565b50565b6007543414611f4357600080fd5b600060405160200180807f63797068657250756e6b00000000000000000000000000000000000000000000815250600a0190506040516020818303038152906040528051906020012090506060611f986120f1565b90506000600a60009054906101000a900473ffffffffffffffffffffffffffffffffffffffff1673ffffffffffffffffffffffffffffffffffffffff16632a417612856040518263ffffffff1660e01b8152600401808281526020019150506101406040518083038186803b15801561201057600080fd5b505afa158015612024573d6000803e3d6000fd5b505050506040513d61014081101561203b57600080fd5b8101908080519060200190929190805190602001909291908051906020019092919080519060200190929190805190602001909291908051906020019092919080519060200190929190805190602001909291908051906020019092919080519060200190929190505050909192939495969798509091929394959697509091929394959650909192939495509091929394509091929350909192509091509050809150506120eb838383612189565b50505050565b606060006032905060608161210660646125e0565b11612148576040518060400160405280600481526020017f6d616c65000000000000000000000000000000000000000000000000000000008152509050612181565b6040518060400160405280600681526020017f66656d616c65000000000000000000000000000000000000000000000000000081525090505b809250505090565b60006003544201905060046040518061012001604052808481526020016040518060400160405280600681526020017f4e6f4e616d65000000000000000000000000000000000000000000000000000081525081526020018581526020018681526020018363ffffffff168152602001600081526020016000815260200160008152602001600061ffff16815250908060018154018082558091505090600182039060005260206000209060090201600090919290919091506000820151816000015560208201518160010190805190602001906122689291906127d1565b5060408201518160020190805190602001906122859291906127d1565b506060820151816003015560808201518160040160006101000a81548163ffffffff021916908363ffffffff16021790555060a0820151816005015560c0820151816006015560e082015181600701556101008201518160080160006101000a81548161ffff021916908361ffff16021790555050505060006001600480549050039050336005600083815260200190815260200160002060006101000a81548173ffffffffffffffffffffffffffffffffffffffff021916908373ffffffffffffffffffffffffffffffffffffffff1602179055506123ae6001600660003373ffffffffffffffffffffffffffffffffffffffff1673ffffffffffffffffffffffffffffffffffffffff168152602001908152602001600020546127b590919063ffffffff16565b600660003373ffffffffffffffffffffffffffffffffffffffff1673ffffffffffffffffffffffffffffffffffffffff168152602001908152602001600020819055507f678dbb6331d0cd0cd21ff45fcbb1bc795295619c327d618856814cc8530d54f78184868886600080600080604051808a815260200189815260200180602001806020018981526020018863ffffffff1663ffffffff1681526020018761ffff1681526020018661ffff1681526020018561ffff1681526020018461ffff168152602001838103835260068152602001807f4e6f4e616d65000000000000000000000000000000000000000000000000000081525060200183810382528a818151815260200191508051906020019080838360005b838110156124e15780820151818401526020810190506124c6565b50505050905090810190601f16801561250e5780820380516001836020036101000a031916815260200191505b509b50505050505050505050505060405180910390a15050505050565b600080826040516020018082805190602001908083835b602083106125655780518252602082019150602081019050602083039250612542565b6001836020036101000a0380198251168184511680821785525050505050509050019150506040516020818303038152906040528051906020012060001c905060025481816125b057fe5b06915050919050565b6000428260040160009054906101000a900463ffffffff1663ffffffff1611159050919050565b6000600860008154809291906001019190505550814233600854604051602001808481526020018373ffffffffffffffffffffffffffffffffffffffff1673ffffffffffffffffffffffffffffffffffffffff1660601b815260140182815260200193505050506040516020818303038152906040528051906020012060001c8161266757fe5b069050919050565b60035442018160040160006101000a81548163ffffffff021916908363ffffffff16021790555050565b60008082840190508361ffff168161ffff1610156126b357fe5b8091505092915050565b600073ffffffffffffffffffffffffffffffffffffffff168173ffffffffffffffffffffffffffffffffffffffff1614156126f757600080fd5b8073ffffffffffffffffffffffffffffffffffffffff166000809054906101000a900473ffffffffffffffffffffffffffffffffffffffff1673ffffffffffffffffffffffffffffffffffffffff167f8be0079c531659141344cd1fd0a4f28419497f9722a3daafe3b4186f6b6457e060405160405180910390a3806000806101000a81548173ffffffffffffffffffffffffffffffffffffffff021916908373ffffffffffffffffffffffffffffffffffffffff16021790555050565b6000808284019050838110156127c757fe5b8091505092915050565b828054600181600116156101000203166002900490600052602060002090601f016020900481019282601f1061281257805160ff1916838001178555612840565b82800160010185558215612840579182015b8281111561283f578251825591602001919060010190612824565b5b50905061284d9190612851565b5090565b61287391905b8082111561286f576000816000905550600101612857565b5090565b9056fea265627a7a7231582031ec41b831c52d9395e41091f798713810c87d33620cb2df72ba3e9cf18018aa64736f6c63430005100032",
  "source": "// SPDX-License-Identifier: MIT\r\npragma solidity >=0.4.22 <0.9.0;\r\n\r\nimport \"./avatarmigration.sol\";\r\nimport \"./safemath.sol\";\r\n\r\ncontract AvatarBreeding is AvatarMigration {\r\n\r\n    using SafeMath16 for uint16;\r\n\r\n    uint breedProbability = 90;\r\n    uint maxBreed = 7;\r\n    modifier onlyOwnerOfAvatar(uint _avatarId) {\r\n        require(msg.sender == avatarToOwner[_avatarId]);\r\n        _;\r\n    }\r\n\r\n    function _triggerCd(Avatar storage _avatar) internal {\r\n        _avatar.avatarReadyTime = uint32(block.timestamp + avatarCdTime);\r\n    }\r\n\r\n    function _isReady(Avatar storage _avatar) internal view returns (bool) {\r\n       return (_avatar.avatarReadyTime <= block.timestamp);\r\n    }\r\n\r\n    uint breedFee = 0.3 ether; //live tokens\r\n\r\n    function breed(uint _avatarId, uint _targetAvatarId) public onlyOwnerOfAvatar(_avatarId) onlyOwnerOfAvatar(_targetAvatarId) payable {\r\n        Avatar storage myAvatar = avatars[_avatarId];\r\n        Avatar storage targetAvatar = avatars[_targetAvatarId];\r\n        require(_isReady(myAvatar));\r\n        require (_isReady(targetAvatar));\r\n        require(msg.value == breedFee);\r\n        uint newDna = (myAvatar.avatarDna + targetAvatar.avatarDna) / 2;\r\n        bytes32 newRace;\r\n        if (((myAvatar.avatarRace == keccak256(abi.encodePacked(\"cypherPunk\"))) && (targetAvatar.avatarRace == keccak256(abi.encodePacked(\"traveler\")))) || ((myAvatar.avatarRace == keccak256(abi.encodePacked(\"traveler\"))) && (targetAvatar.avatarRace == keccak256(abi.encodePacked(\"cypherPunk\"))))) {\r\n            newRace = keccak256(abi.encodePacked(\"cypherTraveler\"));\r\n        }\r\n        if (((myAvatar.avatarRace == keccak256(abi.encodePacked(\"kitty\"))) && (targetAvatar.avatarRace == keccak256(abi.encodePacked(\"traveler\")))) || ((myAvatar.avatarRace == keccak256(abi.encodePacked(\"traveler\"))) && (targetAvatar.avatarRace == keccak256(abi.encodePacked(\"kitty\"))))) {\r\n            newRace = keccak256(abi.encodePacked(\"kittyTraveler\"));\r\n        }\r\n        if (((myAvatar.avatarRace == keccak256(abi.encodePacked(\"boredApe\"))) && (targetAvatar.avatarRace == keccak256(abi.encodePacked(\"traveler\")))) || ((myAvatar.avatarRace == keccak256(abi.encodePacked(\"traveler\"))) && (targetAvatar.avatarRace == keccak256(abi.encodePacked(\"boredApe\"))))) {\r\n            newRace = keccak256(abi.encodePacked(\"boredTraveler\"));\r\n        }\r\n        if (((myAvatar.avatarRace == keccak256(abi.encodePacked(\"cypherPunk\"))) && (targetAvatar.avatarRace == keccak256(abi.encodePacked(\"kitty\")))) || ((myAvatar.avatarRace == keccak256(abi.encodePacked(\"kitty\"))) && (targetAvatar.avatarRace == keccak256(abi.encodePacked(\"cypherPunk\"))))) {\r\n            newRace = keccak256(abi.encodePacked(\"cypherKitty\"));\r\n        }\r\n        if (((myAvatar.avatarRace == keccak256(abi.encodePacked(\"cypherPunk\"))) && (targetAvatar.avatarRace == keccak256(abi.encodePacked(\"boredApe\")))) || ((myAvatar.avatarRace == keccak256(abi.encodePacked(\"boredApe\"))) && (targetAvatar.avatarRace == keccak256(abi.encodePacked(\"cypherPunk\"))))) {\r\n            newRace = keccak256(abi.encodePacked(\"cypherApe\"));\r\n        }\r\n        if (((myAvatar.avatarRace == keccak256(abi.encodePacked(\"kitty\"))) && (targetAvatar.avatarRace == keccak256(abi.encodePacked(\"boredApe\")))) || ((myAvatar.avatarRace == keccak256(abi.encodePacked(\"boredApe\"))) && (targetAvatar.avatarRace == keccak256(abi.encodePacked(\"kitty\"))))) {\r\n            newRace = keccak256(abi.encodePacked(\"kitty\"));\r\n        }\r\n        if (((myAvatar.avatarRace == keccak256(abi.encodePacked(\"traveler\"))) && (targetAvatar.avatarRace == keccak256(abi.encodePacked(\"traveler\"))))) {\r\n            newRace = keccak256(abi.encodePacked(\"traveler\"));\r\n        }\r\n        if (((myAvatar.avatarRace == keccak256(abi.encodePacked(\"kitty\"))) && (targetAvatar.avatarRace == keccak256(abi.encodePacked(\"kitty\"))))) {\r\n            newRace = keccak256(abi.encodePacked(\"kitty\"));\r\n        }\r\n        if (((myAvatar.avatarRace == keccak256(abi.encodePacked(\"boredApe\"))) && (targetAvatar.avatarRace == keccak256(abi.encodePacked(\"boredApe\"))))) {\r\n            newRace = keccak256(abi.encodePacked(\"boredApe\"));\r\n        }\r\n        if (((myAvatar.avatarRace == keccak256(abi.encodePacked(\"cypherPunk\"))) && (targetAvatar.avatarRace == keccak256(abi.encodePacked(\"cypherPunk\"))))) {\r\n            newRace = keccak256(abi.encodePacked(\"cypherPunk\"));\r\n        }\r\n        else {\r\n            newRace = keccak256(abi.encodePacked(\"newRaces\"));\r\n        }\r\n        uint rand = randAvatarMod(100);\r\n        if (rand <= breedProbability && myAvatar.breedCount <= maxBreed) {\r\n            _createAvatar(newRace, _randSex(), newDna);\r\n            _triggerCd(myAvatar);\r\n            _triggerCd(targetAvatar);\r\n            myAvatar.breedCount = myAvatar.breedCount.add(1);\r\n        } if (rand > breedProbability && myAvatar.breedCount <= maxBreed) {\r\n            _triggerCd(myAvatar);\r\n            _triggerCd(targetAvatar);\r\n            myAvatar.breedCount = myAvatar.breedCount.add(1);\r\n        }\r\n    }\r\n}\r\n",
  "sourcePath": "C:\\Users\\pablo\\PycharmProjects\\LiveAndTravel\\contracts\\avatarbreeding.sol",
  "compiler": {
    "name": "solc",
    "version": "0.5.16+commit.9c3226ce.Emscripten.clang"
  },
  "schemaVersion": "3.4.4",
  "updatedAt": "2022-01-18T21:10:52.129Z",
  "devdoc": {
    "methods": {}
  },
  "userdoc": {
    "methods": {}
  }
}