{
  "contractName": "AvatarMigration",
  "abi": [
    {
      "anonymous": false,
      "inputs": [
        {
          "indexed": false,
          "internalType": "uint256",
          "name": "avatarId",
          "type": "uint256"
        },
        {
          "indexed": false,
          "internalType": "uint256",
          "name": "avatarDna",
          "type": "uint256"
        },
        {
          "indexed": false,
          "internalType": "string",
          "name": "avatarName",
          "type": "string"
        },
        {
          "indexed": false,
          "internalType": "string",
          "name": "avatarSex",
          "type": "string"
        },
        {
          "indexed": false,
          "internalType": "bytes32",
          "name": "avatarRace",
          "type": "bytes32"
        },
        {
          "indexed": false,
          "internalType": "uint32",
          "name": "avatarReadyTime",
          "type": "uint32"
        },
        {
          "indexed": false,
          "internalType": "uint16",
          "name": "avatarMiles",
          "type": "uint16"
        },
        {
          "indexed": false,
          "internalType": "uint16",
          "name": "avatarHome",
          "type": "uint16"
        },
        {
          "indexed": false,
          "internalType": "uint16",
          "name": "avatarWorkPlace",
          "type": "uint16"
        },
        {
          "indexed": false,
          "internalType": "uint16",
          "name": "avatarBreedCount",
          "type": "uint16"
        }
      ],
      "name": "NewAvatar",
      "type": "event"
    },
    {
      "anonymous": false,
      "inputs": [
        {
          "indexed": true,
          "internalType": "address",
          "name": "previousOwner",
          "type": "address"
        },
        {
          "indexed": true,
          "internalType": "address",
          "name": "newOwner",
          "type": "address"
        }
      ],
      "name": "OwnershipTransferred",
      "type": "event"
    },
    {
      "inputs": [
        {
          "internalType": "uint256",
          "name": "",
          "type": "uint256"
        }
      ],
      "name": "avatarToOwner",
      "outputs": [
        {
          "internalType": "address",
          "name": "",
          "type": "address"
        }
      ],
      "stateMutability": "view",
      "type": "function"
    },
    {
      "inputs": [
        {
          "internalType": "uint256",
          "name": "",
          "type": "uint256"
        }
      ],
      "name": "avatars",
      "outputs": [
        {
          "internalType": "uint256",
          "name": "avatarDna",
          "type": "uint256"
        },
        {
          "internalType": "string",
          "name": "avatarName",
          "type": "string"
        },
        {
          "internalType": "string",
          "name": "avatarSex",
          "type": "string"
        },
        {
          "internalType": "bytes32",
          "name": "avatarRace",
          "type": "bytes32"
        },
        {
          "internalType": "uint32",
          "name": "avatarReadyTime",
          "type": "uint32"
        },
        {
          "internalType": "uint256",
          "name": "avatarMiles",
          "type": "uint256"
        },
        {
          "internalType": "uint256",
          "name": "avatarHome",
          "type": "uint256"
        },
        {
          "internalType": "uint256",
          "name": "avatarWorkPlace",
          "type": "uint256"
        },
        {
          "internalType": "uint16",
          "name": "breedCount",
          "type": "uint16"
        }
      ],
      "stateMutability": "view",
      "type": "function"
    },
    {
      "inputs": [
        {
          "internalType": "string",
          "name": "_sex",
          "type": "string"
        }
      ],
      "name": "createRandomAvatar",
      "outputs": [],
      "stateMutability": "payable",
      "type": "function"
    },
    {
      "inputs": [],
      "name": "isOwner",
      "outputs": [
        {
          "internalType": "bool",
          "name": "",
          "type": "bool"
        }
      ],
      "stateMutability": "view",
      "type": "function"
    },
    {
      "inputs": [],
      "name": "owner",
      "outputs": [
        {
          "internalType": "address",
          "name": "",
          "type": "address"
        }
      ],
      "stateMutability": "view",
      "type": "function"
    },
    {
      "inputs": [],
      "name": "renounceOwnership",
      "outputs": [],
      "stateMutability": "nonpayable",
      "type": "function"
    },
    {
      "inputs": [
        {
          "internalType": "address",
          "name": "newOwner",
          "type": "address"
        }
      ],
      "name": "transferOwnership",
      "outputs": [],
      "stateMutability": "nonpayable",
      "type": "function"
    },
    {
      "inputs": [
        {
          "internalType": "address",
          "name": "_address",
          "type": "address"
        }
      ],
      "name": "setKittyContractAddress",
      "outputs": [],
      "stateMutability": "nonpayable",
      "type": "function"
    },
    {
      "inputs": [
        {
          "internalType": "address",
          "name": "_address",
          "type": "address"
        }
      ],
      "name": "setCypherPunkContractAddress",
      "outputs": [],
      "stateMutability": "nonpayable",
      "type": "function"
    },
    {
      "inputs": [
        {
          "internalType": "address",
          "name": "_address",
          "type": "address"
        }
      ],
      "name": "setBoredApeContractAddress",
      "outputs": [],
      "stateMutability": "nonpayable",
      "type": "function"
    },
    {
      "inputs": [
        {
          "internalType": "uint256",
          "name": "_kittyId",
          "type": "uint256"
        }
      ],
      "name": "migrateKitty",
      "outputs": [],
      "stateMutability": "payable",
      "type": "function"
    },
    {
      "inputs": [
        {
          "internalType": "uint256",
          "name": "_boredApeId",
          "type": "uint256"
        }
      ],
      "name": "migrateBoredApe",
      "outputs": [],
      "stateMutability": "payable",
      "type": "function"
    },
    {
      "inputs": [
        {
          "internalType": "uint256",
          "name": "_cypherPunkId",
          "type": "uint256"
        }
      ],
      "name": "migrateCypherPunk",
      "outputs": [],
      "stateMutability": "payable",
      "type": "function"
    }
  ],
  "bytecode": "0x60806040526010600155600154600a6200001a919062000291565b6002556201518060035567016345785d8a000060075560006008553480156200004257600080fd5b50336000806101000a81548173ffffffffffffffffffffffffffffffffffffffff021916908373ffffffffffffffffffffffffffffffffffffffff16021790555060008054906101000a900473ffffffffffffffffffffffffffffffffffffffff1673ffffffffffffffffffffffffffffffffffffffff16600073ffffffffffffffffffffffffffffffffffffffff167f8be0079c531659141344cd1fd0a4f28419497f9722a3daafe3b4186f6b6457e060405160405180910390a3620002e2565b7f4e487b7100000000000000000000000000000000000000000000000000000000600052601160045260246000fd5b60008160011c9050919050565b6000808291508390505b600185111562000192578086048111156200016a576200016962000104565b5b60018516156200017a5780820291505b80810290506200018a8562000133565b94506200014a565b94509492505050565b600082620001ad576001905062000280565b81620001bd576000905062000280565b8160018114620001d65760028114620001e15762000217565b600191505062000280565b60ff841115620001f657620001f562000104565b5b8360020a91508482111562000210576200020f62000104565b5b5062000280565b5060208310610133831016604e8410600b8410161715620002515782820a9050838111156200024b576200024a62000104565b5b62000280565b62000260848484600162000140565b925090508184048111156200027a576200027962000104565b5b81810290505b9392505050565b6000819050919050565b60006200029e8262000287565b9150620002ab8362000287565b9250620002da7fffffffffffffffffffffffffffffffffffffffffffffffffffffffffffffffff84846200019b565b905092915050565b611cc180620002f26000396000f3fe6080604052600436106100c25760003560e01c80638da5cb5b1161007f578063c8539c4b11610059578063c8539c4b1461022c578063d254160714610269578063f2fde38b14610285578063f5dcef04146102ae576100c2565b80638da5cb5b146101ba5780638f32d59b146101e55780639687871214610210576100c2565b80630351cf51146100c75780635de84288146100e35780635f4623f11461010c578063715018a614610135578063834d5fac1461014c5780638b030aaa14610191575b600080fd5b6100e160048036038101906100dc919061117a565b6102ca565b005b3480156100ef57600080fd5b5061010a60048036038101906101059190611205565b6103f7565b005b34801561011857600080fd5b50610133600480360381019061012e9190611205565b61044c565b005b34801561014157600080fd5b5061014a6104a1565b005b34801561015857600080fd5b50610173600480360381019061016e919061117a565b610570565b6040516101889998979695949392919061132f565b60405180910390f35b34801561019d57600080fd5b506101b860048036038101906101b39190611205565b6106fc565b005b3480156101c657600080fd5b506101cf610751565b6040516101dc91906113d9565b60405180910390f35b3480156101f157600080fd5b506101fa61077a565b604051610207919061140f565b60405180910390f35b61022a6004803603810190610225919061117a565b6107d1565b005b34801561023857600080fd5b50610253600480360381019061024e919061117a565b6108fe565b60405161026091906113d9565b60405180910390f35b610283600480360381019061027e919061155f565b610931565b005b34801561029157600080fd5b506102ac60048036038101906102a79190611205565b610a20565b005b6102c860048036038101906102c3919061117a565b610a3d565b005b60075434146102d857600080fd5b60006040516020016102e9906115ff565b604051602081830303815290604052805190602001209050600061030b610b6a565b90506000600b60009054906101000a900473ffffffffffffffffffffffffffffffffffffffff1673ffffffffffffffffffffffffffffffffffffffff166394eb170d856040518263ffffffff1660e01b815260040161036a9190611614565b61014060405180830381865afa158015610388573d6000803e3d6000fd5b505050506040513d601f19601f820116820180604052508101906103ac9190611670565b909192939495969798509091929394959697509091929394959650909192939495509091929394509091929350909192509091509050809150506103f1838383610c02565b50505050565b6103ff61077a565b61040857600080fd5b80600a60006101000a81548173ffffffffffffffffffffffffffffffffffffffff021916908373ffffffffffffffffffffffffffffffffffffffff16021790555050565b61045461077a565b61045d57600080fd5b80600960006101000a81548173ffffffffffffffffffffffffffffffffffffffff021916908373ffffffffffffffffffffffffffffffffffffffff16021790555050565b6104a961077a565b6104b257600080fd5b600073ffffffffffffffffffffffffffffffffffffffff1660008054906101000a900473ffffffffffffffffffffffffffffffffffffffff1673ffffffffffffffffffffffffffffffffffffffff167f8be0079c531659141344cd1fd0a4f28419497f9722a3daafe3b4186f6b6457e060405160405180910390a360008060006101000a81548173ffffffffffffffffffffffffffffffffffffffff021916908373ffffffffffffffffffffffffffffffffffffffff160217905550565b6004818154811061058057600080fd5b90600052602060002090600902016000915090508060000154908060010180546105a99061177e565b80601f01602080910402602001604051908101604052809291908181526020018280546105d59061177e565b80156106225780601f106105f757610100808354040283529160200191610622565b820191906000526020600020905b81548152906001019060200180831161060557829003601f168201915b5050505050908060020180546106379061177e565b80601f01602080910402602001604051908101604052809291908181526020018280546106639061177e565b80156106b05780601f10610685576101008083540402835291602001916106b0565b820191906000526020600020905b81548152906001019060200180831161069357829003601f168201915b5050505050908060030154908060040160009054906101000a900463ffffffff16908060050154908060060154908060070154908060080160009054906101000a900461ffff16905089565b61070461077a565b61070d57600080fd5b80600b60006101000a81548173ffffffffffffffffffffffffffffffffffffffff021916908373ffffffffffffffffffffffffffffffffffffffff16021790555050565b60008060009054906101000a900473ffffffffffffffffffffffffffffffffffffffff16905090565b60008060009054906101000a900473ffffffffffffffffffffffffffffffffffffffff1673ffffffffffffffffffffffffffffffffffffffff163373ffffffffffffffffffffffffffffffffffffffff1614905090565b60075434146107df57600080fd5b60006040516020016107f0906117fc565b6040516020818303038152906040528051906020012090506000610812610b6a565b90506000600960009054906101000a900473ffffffffffffffffffffffffffffffffffffffff1673ffffffffffffffffffffffffffffffffffffffff1663e98b7f4d856040518263ffffffff1660e01b81526004016108719190611614565b61014060405180830381865afa15801561088f573d6000803e3d6000fd5b505050506040513d601f19601f820116820180604052508101906108b39190611670565b909192939495969798509091929394959697509091929394959650909192939495509091929394509091929350909192509091509050809150506108f8838383610c02565b50505050565b60056020528060005260406000206000915054906101000a900473ffffffffffffffffffffffffffffffffffffffff1681565b600754341461093f57600080fd5b6000600660003373ffffffffffffffffffffffffffffffffffffffff1673ffffffffffffffffffffffffffffffffffffffff168152602001908152602001600020541461098b57600080fd5b600060405160200161099c9061185d565b60405160208183030381529060405280519060200120905060006109f46040518060400160405280600881526020017f74726176656c6572000000000000000000000000000000000000000000000000815250610ec9565b9050606481610a0391906118a1565b81610a0e9190611901565b9050610a1b828483610c02565b505050565b610a2861077a565b610a3157600080fd5b610a3a81610f0e565b50565b6007543414610a4b57600080fd5b6000604051602001610a5c90611981565b6040516020818303038152906040528051906020012090506000610a7e610b6a565b90506000600a60009054906101000a900473ffffffffffffffffffffffffffffffffffffffff1673ffffffffffffffffffffffffffffffffffffffff16632a417612856040518263ffffffff1660e01b8152600401610add9190611614565b61014060405180830381865afa158015610afb573d6000803e3d6000fd5b505050506040513d601f19601f82011682018060405250810190610b1f9190611670565b90919293949596979850909192939495969750909192939495965090919293949550909192939450909192935090919250909150905080915050610b64838383610c02565b50505050565b6060600060329050606081610b7f6064611005565b11610bc1576040518060400160405280600481526020017f6d616c65000000000000000000000000000000000000000000000000000000008152509050610bfa565b6040518060400160405280600681526020017f66656d616c65000000000000000000000000000000000000000000000000000081525090505b809250505090565b600060035442610c129190611996565b905060046040518061012001604052808481526020016040518060400160405280600681526020017f4e6f4e616d65000000000000000000000000000000000000000000000000000081525081526020018581526020018681526020018363ffffffff168152602001600081526020016000815260200160008152602001600061ffff168152509080600181540180825580915050600190039060005260206000209060090201600090919091909150600082015181600001556020820151816001019080519060200190610ce892919061108d565b506040820151816002019080519060200190610d0592919061108d565b506060820151816003015560808201518160040160006101000a81548163ffffffff021916908363ffffffff16021790555060a0820151816005015560c0820151816006015560e082015181600701556101008201518160080160006101000a81548161ffff021916908361ffff160217905550505060006001600480549050610d8f9190611901565b9050336005600083815260200190815260200160002060006101000a81548173ffffffffffffffffffffffffffffffffffffffff021916908373ffffffffffffffffffffffffffffffffffffffff160217905550610e366001600660003373ffffffffffffffffffffffffffffffffffffffff1673ffffffffffffffffffffffffffffffffffffffff1681526020019081526020016000205461106190919063ffffffff16565b600660003373ffffffffffffffffffffffffffffffffffffffff1673ffffffffffffffffffffffffffffffffffffffff168152602001908152602001600020819055507f678dbb6331d0cd0cd21ff45fcbb1bc795295619c327d618856814cc8530d54f78184868886600080600080604051610eba99989796959493929190611a7d565b60405180910390a15050505050565b60008082604051602001610edd9190611b56565b6040516020818303038152906040528051906020012060001c905060025481610f0691906118a1565b915050919050565b600073ffffffffffffffffffffffffffffffffffffffff168173ffffffffffffffffffffffffffffffffffffffff161415610f4857600080fd5b8073ffffffffffffffffffffffffffffffffffffffff1660008054906101000a900473ffffffffffffffffffffffffffffffffffffffff1673ffffffffffffffffffffffffffffffffffffffff167f8be0079c531659141344cd1fd0a4f28419497f9722a3daafe3b4186f6b6457e060405160405180910390a3806000806101000a81548173ffffffffffffffffffffffffffffffffffffffff021916908373ffffffffffffffffffffffffffffffffffffffff16021790555050565b60006008600081548092919061101a90611b6d565b919050555081423360085460405160200161103793929190611c1f565b6040516020818303038152906040528051906020012060001c61105a91906118a1565b9050919050565b60008082846110709190611996565b90508381101561108357611082611c5c565b5b8091505092915050565b8280546110999061177e565b90600052602060002090601f0160209004810192826110bb5760008555611102565b82601f106110d457805160ff1916838001178555611102565b82800160010185558215611102579182015b828111156111015782518255916020019190600101906110e6565b5b50905061110f9190611113565b5090565b5b8082111561112c576000816000905550600101611114565b5090565b6000604051905090565b600080fd5b600080fd5b6000819050919050565b61115781611144565b811461116257600080fd5b50565b6000813590506111748161114e565b92915050565b6000602082840312156111905761118f61113a565b5b600061119e84828501611165565b91505092915050565b600073ffffffffffffffffffffffffffffffffffffffff82169050919050565b60006111d2826111a7565b9050919050565b6111e2816111c7565b81146111ed57600080fd5b50565b6000813590506111ff816111d9565b92915050565b60006020828403121561121b5761121a61113a565b5b6000611229848285016111f0565b91505092915050565b61123b81611144565b82525050565b600081519050919050565b600082825260208201905092915050565b60005b8381101561127b578082015181840152602081019050611260565b8381111561128a576000848401525b50505050565b6000601f19601f8301169050919050565b60006112ac82611241565b6112b6818561124c565b93506112c681856020860161125d565b6112cf81611290565b840191505092915050565b6000819050919050565b6112ed816112da565b82525050565b600063ffffffff82169050919050565b61130c816112f3565b82525050565b600061ffff82169050919050565b61132981611312565b82525050565b600061012082019050611345600083018c611232565b8181036020830152611357818b6112a1565b9050818103604083015261136b818a6112a1565b905061137a60608301896112e4565b6113876080830188611303565b61139460a0830187611232565b6113a160c0830186611232565b6113ae60e0830185611232565b6113bc610100830184611320565b9a9950505050505050505050565b6113d3816111c7565b82525050565b60006020820190506113ee60008301846113ca565b92915050565b60008115159050919050565b611409816113f4565b82525050565b60006020820190506114246000830184611400565b92915050565b600080fd5b600080fd5b7f4e487b7100000000000000000000000000000000000000000000000000000000600052604160045260246000fd5b61146c82611290565b810181811067ffffffffffffffff8211171561148b5761148a611434565b5b80604052505050565b600061149e611130565b90506114aa8282611463565b919050565b600067ffffffffffffffff8211156114ca576114c9611434565b5b6114d382611290565b9050602081019050919050565b82818337600083830152505050565b60006115026114fd846114af565b611494565b90508281526020810184848401111561151e5761151d61142f565b5b6115298482856114e0565b509392505050565b600082601f8301126115465761154561142a565b5b81356115568482602086016114ef565b91505092915050565b6000602082840312156115755761157461113a565b5b600082013567ffffffffffffffff8111156115935761159261113f565b5b61159f84828501611531565b91505092915050565b600081905092915050565b7f626f726564417065000000000000000000000000000000000000000000000000600082015250565b60006115e96008836115a8565b91506115f4826115b3565b600882019050919050565b600061160a826115dc565b9150819050919050565b60006020820190506116296000830184611232565b92915050565b611638816113f4565b811461164357600080fd5b50565b6000815190506116558161162f565b92915050565b60008151905061166a8161114e565b92915050565b6000806000806000806000806000806101408b8d0312156116945761169361113a565b5b60006116a28d828e01611646565b9a505060206116b38d828e01611646565b99505060406116c48d828e0161165b565b98505060606116d58d828e0161165b565b97505060806116e68d828e0161165b565b96505060a06116f78d828e0161165b565b95505060c06117088d828e0161165b565b94505060e06117198d828e0161165b565b93505061010061172b8d828e0161165b565b92505061012061173d8d828e0161165b565b9150509295989b9194979a5092959850565b7f4e487b7100000000000000000000000000000000000000000000000000000000600052602260045260246000fd5b6000600282049050600182168061179657607f821691505b602082108114156117aa576117a961174f565b5b50919050565b7f6b69747479000000000000000000000000000000000000000000000000000000600082015250565b60006117e66005836115a8565b91506117f1826117b0565b600582019050919050565b6000611807826117d9565b9150819050919050565b7f74726176656c6572000000000000000000000000000000000000000000000000600082015250565b60006118476008836115a8565b915061185282611811565b600882019050919050565b60006118688261183a565b9150819050919050565b7f4e487b7100000000000000000000000000000000000000000000000000000000600052601260045260246000fd5b60006118ac82611144565b91506118b783611144565b9250826118c7576118c6611872565b5b828206905092915050565b7f4e487b7100000000000000000000000000000000000000000000000000000000600052601160045260246000fd5b600061190c82611144565b915061191783611144565b92508282101561192a576119296118d2565b5b828203905092915050565b7f63797068657250756e6b00000000000000000000000000000000000000000000600082015250565b600061196b600a836115a8565b915061197682611935565b600a82019050919050565b600061198c8261195e565b9150819050919050565b60006119a182611144565b91506119ac83611144565b9250827fffffffffffffffffffffffffffffffffffffffffffffffffffffffffffffffff038211156119e1576119e06118d2565b5b828201905092915050565b7f4e6f4e616d650000000000000000000000000000000000000000000000000000600082015250565b6000611a2260068361124c565b9150611a2d826119ec565b602082019050919050565b6000819050919050565b6000819050919050565b6000611a67611a62611a5d84611a38565b611a42565b611312565b9050919050565b611a7781611a4c565b82525050565b600061014082019050611a93600083018c611232565b611aa0602083018b611232565b8181036040830152611ab181611a15565b90508181036060830152611ac5818a6112a1565b9050611ad460808301896112e4565b611ae160a0830188611303565b611aee60c0830187611a6e565b611afb60e0830186611a6e565b611b09610100830185611a6e565b611b17610120830184611a6e565b9a9950505050505050505050565b6000611b3082611241565b611b3a81856115a8565b9350611b4a81856020860161125d565b80840191505092915050565b6000611b628284611b25565b915081905092915050565b6000611b7882611144565b91507fffffffffffffffffffffffffffffffffffffffffffffffffffffffffffffffff821415611bab57611baa6118d2565b5b600182019050919050565b6000819050919050565b611bd1611bcc82611144565b611bb6565b82525050565b60008160601b9050919050565b6000611bef82611bd7565b9050919050565b6000611c0182611be4565b9050919050565b611c19611c14826111c7565b611bf6565b82525050565b6000611c2b8286611bc0565b602082019150611c3b8285611c08565b601482019150611c4b8284611bc0565b602082019150819050949350505050565b7f4e487b7100000000000000000000000000000000000000000000000000000000600052600160045260246000fdfea26469706673582212209181f17b7f734e8ff9d87fe29d005d580540dd1283e61470cbf21fa6a850aeec64736f6c634300080a0033",
  "immutableReferences": {},
  "source": "// SPDX-License-Identifier: MIT\r\npragma solidity >=0.4.22 <0.9.0;\r\n\r\nimport \"./avatarfactory.sol\";\r\n\r\n//Examples of mapping different qualities of the avatar/race that is going to be the couple to our avatar from: NFT collections, other Games, etc.\r\n//Example: Qualities from crypto kitties\r\nabstract contract KittyInterface {\r\n\r\n    function getKitty(uint256 _id) external virtual view returns (\r\n        bool isGestating,\r\n        bool isReady,\r\n        uint256 cooldownIndex,\r\n        uint256 nextActionAt,\r\n        uint256 siringWithId,\r\n        uint256 birthTime,\r\n        uint256 matronId,\r\n        uint256 sireId,\r\n        uint256 generation,\r\n        uint256 genes\r\n    );\r\n}\r\n//modify\r\nabstract contract CypherPunkInterface {\r\n\r\n    function getCypherPunk(uint256 _id) external virtual view returns (\r\n        bool isGestating,\r\n        bool isReady,\r\n        uint256 cooldownIndex,\r\n        uint256 nextActionAt,\r\n        uint256 siringWithId,\r\n        uint256 birthTime,\r\n        uint256 matronId,\r\n        uint256 sireId,\r\n        uint256 generation,\r\n        uint256 genes\r\n    );\r\n}\r\n//modify\r\nabstract contract BoredApeInterface {\r\n\r\n    function getBoredApe(uint256 _id) external virtual view returns (\r\n        bool isGestating,\r\n        bool isReady,\r\n        uint256 cooldownIndex,\r\n        uint256 nextActionAt,\r\n        uint256 siringWithId,\r\n        uint256 birthTime,\r\n        uint256 matronId,\r\n        uint256 sireId,\r\n        uint256 generation,\r\n        uint256 genes\r\n    );\r\n}\r\n\r\ncontract AvatarMigration is AvatarFactory {\r\n\r\n     KittyInterface kittyContract;\r\n     CypherPunkInterface cypherPunkContract;\r\n     BoredApeInterface boredApeContract;\r\n\r\n    function setKittyContractAddress(address _address) external onlyOwner {\r\n        kittyContract = KittyInterface(_address);\r\n    }\r\n\r\n    function setCypherPunkContractAddress(address _address) external onlyOwner {\r\n        cypherPunkContract = CypherPunkInterface(_address);\r\n    }\r\n\r\n    function setBoredApeContractAddress(address _address) external onlyOwner {\r\n        boredApeContract = BoredApeInterface(_address);\r\n    }\r\n\r\n    function migrateKitty(uint _kittyId) public payable {\r\n        require(msg.value == avatarCreationFee);\r\n        bytes32 _race = keccak256(abi.encodePacked(\"kitty\"));\r\n        string memory _sex = _randSex();\r\n        uint _dna;\r\n        (,,,,,,,,,_dna) = kittyContract.getKitty(_kittyId);\r\n        _createAvatar(_race, _sex, _dna);\r\n    }\r\n\r\n    function migrateBoredApe(uint _boredApeId) public payable {\r\n        require(msg.value == avatarCreationFee);\r\n        bytes32 _race = keccak256(abi.encodePacked(\"boredApe\"));\r\n        string memory _sex = _randSex();\r\n        uint _dna;\r\n        (,,,,,,,,,_dna) = boredApeContract.getBoredApe(_boredApeId);\r\n        _createAvatar(_race, _sex, _dna);\r\n    }\r\n\r\n\r\n    function migrateCypherPunk(uint _cypherPunkId) public payable {\r\n        require(msg.value == avatarCreationFee);\r\n        bytes32 _race = keccak256(abi.encodePacked(\"cypherPunk\"));\r\n        string memory _sex = _randSex();\r\n        uint _dna;\r\n        (,,,,,,,,,_dna) = cypherPunkContract.getCypherPunk(_cypherPunkId);\r\n        _createAvatar(_race, _sex, _dna);\r\n    }\r\n}",
  "sourcePath": "C:\\Users\\pablo\\PycharmProjects\\LiveAndTravel\\contracts\\avatarmigration.sol",
  "compiler": {
    "name": "solc",
    "version": "0.8.10+commit.fc410830.Emscripten.clang"
  },
  "schemaVersion": "3.4.4",
  "updatedAt": "2022-01-13T15:03:14.474Z",
  "devdoc": {
    "kind": "dev",
    "methods": {},
    "version": 1
  },
  "userdoc": {
    "kind": "user",
    "methods": {},
    "version": 1
  }
}