{
  "contractName": "AvatarFactory",
  "abi": [
    {
      "anonymous": false,
      "inputs": [
        {
          "indexed": false,
          "internalType": "uint256",
          "name": "avatarId",
          "type": "uint256"
        },
        {
          "indexed": false,
          "internalType": "uint256",
          "name": "avatarDna",
          "type": "uint256"
        },
        {
          "indexed": false,
          "internalType": "string",
          "name": "avatarName",
          "type": "string"
        },
        {
          "indexed": false,
          "internalType": "string",
          "name": "avatarSex",
          "type": "string"
        },
        {
          "indexed": false,
          "internalType": "bytes32",
          "name": "avatarRace",
          "type": "bytes32"
        },
        {
          "indexed": false,
          "internalType": "uint32",
          "name": "avatarReadyTime",
          "type": "uint32"
        },
        {
          "indexed": false,
          "internalType": "uint16",
          "name": "avatarMiles",
          "type": "uint16"
        },
        {
          "indexed": false,
          "internalType": "uint16",
          "name": "avatarHome",
          "type": "uint16"
        },
        {
          "indexed": false,
          "internalType": "uint16",
          "name": "avatarWorkPlace",
          "type": "uint16"
        },
        {
          "indexed": false,
          "internalType": "uint16",
          "name": "avatarBreedCount",
          "type": "uint16"
        }
      ],
      "name": "NewAvatar",
      "type": "event"
    },
    {
      "anonymous": false,
      "inputs": [
        {
          "indexed": true,
          "internalType": "address",
          "name": "previousOwner",
          "type": "address"
        },
        {
          "indexed": true,
          "internalType": "address",
          "name": "newOwner",
          "type": "address"
        }
      ],
      "name": "OwnershipTransferred",
      "type": "event"
    },
    {
      "inputs": [
        {
          "internalType": "uint256",
          "name": "",
          "type": "uint256"
        }
      ],
      "name": "avatarToOwner",
      "outputs": [
        {
          "internalType": "address",
          "name": "",
          "type": "address"
        }
      ],
      "stateMutability": "view",
      "type": "function"
    },
    {
      "inputs": [
        {
          "internalType": "uint256",
          "name": "",
          "type": "uint256"
        }
      ],
      "name": "avatars",
      "outputs": [
        {
          "internalType": "uint256",
          "name": "avatarDna",
          "type": "uint256"
        },
        {
          "internalType": "string",
          "name": "avatarName",
          "type": "string"
        },
        {
          "internalType": "string",
          "name": "avatarSex",
          "type": "string"
        },
        {
          "internalType": "bytes32",
          "name": "avatarRace",
          "type": "bytes32"
        },
        {
          "internalType": "uint32",
          "name": "avatarReadyTime",
          "type": "uint32"
        },
        {
          "internalType": "uint256",
          "name": "avatarMiles",
          "type": "uint256"
        },
        {
          "internalType": "uint256",
          "name": "avatarHome",
          "type": "uint256"
        },
        {
          "internalType": "uint256",
          "name": "avatarWorkPlace",
          "type": "uint256"
        },
        {
          "internalType": "uint16",
          "name": "breedCount",
          "type": "uint16"
        }
      ],
      "stateMutability": "view",
      "type": "function"
    },
    {
      "inputs": [],
      "name": "isOwner",
      "outputs": [
        {
          "internalType": "bool",
          "name": "",
          "type": "bool"
        }
      ],
      "stateMutability": "view",
      "type": "function"
    },
    {
      "inputs": [],
      "name": "owner",
      "outputs": [
        {
          "internalType": "address",
          "name": "",
          "type": "address"
        }
      ],
      "stateMutability": "view",
      "type": "function"
    },
    {
      "inputs": [],
      "name": "renounceOwnership",
      "outputs": [],
      "stateMutability": "nonpayable",
      "type": "function"
    },
    {
      "inputs": [
        {
          "internalType": "address",
          "name": "newOwner",
          "type": "address"
        }
      ],
      "name": "transferOwnership",
      "outputs": [],
      "stateMutability": "nonpayable",
      "type": "function"
    },
    {
      "inputs": [
        {
          "internalType": "string",
          "name": "_sex",
          "type": "string"
        }
      ],
      "name": "createRandomAvatar",
      "outputs": [],
      "stateMutability": "payable",
      "type": "function"
    }
  ],
  "bytecode": "0x60806040526010600155600154600a6200001a919062000291565b6002556201518060035567016345785d8a000060075560006008553480156200004257600080fd5b50336000806101000a81548173ffffffffffffffffffffffffffffffffffffffff021916908373ffffffffffffffffffffffffffffffffffffffff16021790555060008054906101000a900473ffffffffffffffffffffffffffffffffffffffff1673ffffffffffffffffffffffffffffffffffffffff16600073ffffffffffffffffffffffffffffffffffffffff167f8be0079c531659141344cd1fd0a4f28419497f9722a3daafe3b4186f6b6457e060405160405180910390a3620002e2565b7f4e487b7100000000000000000000000000000000000000000000000000000000600052601160045260246000fd5b60008160011c9050919050565b6000808291508390505b600185111562000192578086048111156200016a576200016962000104565b5b60018516156200017a5780820291505b80810290506200018a8562000133565b94506200014a565b94509492505050565b600082620001ad576001905062000280565b81620001bd576000905062000280565b8160018114620001d65760028114620001e15762000217565b600191505062000280565b60ff841115620001f657620001f562000104565b5b8360020a91508482111562000210576200020f62000104565b5b5062000280565b5060208310610133831016604e8410600b8410161715620002515782820a9050838111156200024b576200024a62000104565b5b62000280565b62000260848484600162000140565b925090508184048111156200027a576200027962000104565b5b81810290505b9392505050565b6000819050919050565b60006200029e8262000287565b9150620002ab8362000287565b9250620002da7fffffffffffffffffffffffffffffffffffffffffffffffffffffffffffffffff84846200019b565b905092915050565b6112d980620002f26000396000f3fe6080604052600436106100705760003560e01c80638f32d59b1161004e5780638f32d59b146100fc578063c8539c4b14610127578063d254160714610164578063f2fde38b1461018057610070565b8063715018a614610075578063834d5fac1461008c5780638da5cb5b146100d1575b600080fd5b34801561008157600080fd5b5061008a6101a9565b005b34801561009857600080fd5b506100b360048036038101906100ae9190610adf565b610278565b6040516100c899989796959493929190610c09565b60405180910390f35b3480156100dd57600080fd5b506100e6610404565b6040516100f39190610ce5565b60405180910390f35b34801561010857600080fd5b5061011161042d565b60405161011e9190610d1b565b60405180910390f35b34801561013357600080fd5b5061014e60048036038101906101499190610adf565b610484565b60405161015b9190610ce5565b60405180910390f35b61017e60048036038101906101799190610e6b565b6104b7565b005b34801561018c57600080fd5b506101a760048036038101906101a29190610ee0565b6105a6565b005b6101b161042d565b6101ba57600080fd5b600073ffffffffffffffffffffffffffffffffffffffff1660008054906101000a900473ffffffffffffffffffffffffffffffffffffffff1673ffffffffffffffffffffffffffffffffffffffff167f8be0079c531659141344cd1fd0a4f28419497f9722a3daafe3b4186f6b6457e060405160405180910390a360008060006101000a81548173ffffffffffffffffffffffffffffffffffffffff021916908373ffffffffffffffffffffffffffffffffffffffff160217905550565b6004818154811061028857600080fd5b90600052602060002090600902016000915090508060000154908060010180546102b190610f3c565b80601f01602080910402602001604051908101604052809291908181526020018280546102dd90610f3c565b801561032a5780601f106102ff5761010080835404028352916020019161032a565b820191906000526020600020905b81548152906001019060200180831161030d57829003601f168201915b50505050509080600201805461033f90610f3c565b80601f016020809104026020016040519081016040528092919081815260200182805461036b90610f3c565b80156103b85780601f1061038d576101008083540402835291602001916103b8565b820191906000526020600020905b81548152906001019060200180831161039b57829003601f168201915b5050505050908060030154908060040160009054906101000a900463ffffffff16908060050154908060060154908060070154908060080160009054906101000a900461ffff16905089565b60008060009054906101000a900473ffffffffffffffffffffffffffffffffffffffff16905090565b60008060009054906101000a900473ffffffffffffffffffffffffffffffffffffffff1673ffffffffffffffffffffffffffffffffffffffff163373ffffffffffffffffffffffffffffffffffffffff1614905090565b60056020528060005260406000206000915054906101000a900473ffffffffffffffffffffffffffffffffffffffff1681565b60075434146104c557600080fd5b6000600660003373ffffffffffffffffffffffffffffffffffffffff1673ffffffffffffffffffffffffffffffffffffffff168152602001908152602001600020541461051157600080fd5b600060405160200161052290610fc5565b604051602081830303815290604052805190602001209050600061057a6040518060400160405280600881526020017f74726176656c65720000000000000000000000000000000000000000000000008152506105c3565b90506064816105899190611009565b816105949190611069565b90506105a1828483610608565b505050565b6105ae61042d565b6105b757600080fd5b6105c0816108cf565b50565b600080826040516020016105d791906110ce565b6040516020818303038152906040528051906020012060001c9050600254816106009190611009565b915050919050565b60006003544261061891906110e5565b905060046040518061012001604052808481526020016040518060400160405280600681526020017f4e6f4e616d65000000000000000000000000000000000000000000000000000081525081526020018581526020018681526020018363ffffffff168152602001600081526020016000815260200160008152602001600061ffff1681525090806001815401808255809150506001900390600052602060002090600902016000909190919091506000820151816000015560208201518160010190805190602001906106ee9291906109f2565b50604082015181600201908051906020019061070b9291906109f2565b506060820151816003015560808201518160040160006101000a81548163ffffffff021916908363ffffffff16021790555060a0820151816005015560c0820151816006015560e082015181600701556101008201518160080160006101000a81548161ffff021916908361ffff1602179055505050600060016004805490506107959190611069565b9050336005600083815260200190815260200160002060006101000a81548173ffffffffffffffffffffffffffffffffffffffff021916908373ffffffffffffffffffffffffffffffffffffffff16021790555061083c6001600660003373ffffffffffffffffffffffffffffffffffffffff1673ffffffffffffffffffffffffffffffffffffffff168152602001908152602001600020546109c690919063ffffffff16565b600660003373ffffffffffffffffffffffffffffffffffffffff1673ffffffffffffffffffffffffffffffffffffffff168152602001908152602001600020819055507f678dbb6331d0cd0cd21ff45fcbb1bc795295619c327d618856814cc8530d54f781848688866000806000806040516108c0999897969594939291906111cc565b60405180910390a15050505050565b600073ffffffffffffffffffffffffffffffffffffffff168173ffffffffffffffffffffffffffffffffffffffff16141561090957600080fd5b8073ffffffffffffffffffffffffffffffffffffffff1660008054906101000a900473ffffffffffffffffffffffffffffffffffffffff1673ffffffffffffffffffffffffffffffffffffffff167f8be0079c531659141344cd1fd0a4f28419497f9722a3daafe3b4186f6b6457e060405160405180910390a3806000806101000a81548173ffffffffffffffffffffffffffffffffffffffff021916908373ffffffffffffffffffffffffffffffffffffffff16021790555050565b60008082846109d591906110e5565b9050838110156109e8576109e7611274565b5b8091505092915050565b8280546109fe90610f3c565b90600052602060002090601f016020900481019282610a205760008555610a67565b82601f10610a3957805160ff1916838001178555610a67565b82800160010185558215610a67579182015b82811115610a66578251825591602001919060010190610a4b565b5b509050610a749190610a78565b5090565b5b80821115610a91576000816000905550600101610a79565b5090565b6000604051905090565b600080fd5b600080fd5b6000819050919050565b610abc81610aa9565b8114610ac757600080fd5b50565b600081359050610ad981610ab3565b92915050565b600060208284031215610af557610af4610a9f565b5b6000610b0384828501610aca565b91505092915050565b610b1581610aa9565b82525050565b600081519050919050565b600082825260208201905092915050565b60005b83811015610b55578082015181840152602081019050610b3a565b83811115610b64576000848401525b50505050565b6000601f19601f8301169050919050565b6000610b8682610b1b565b610b908185610b26565b9350610ba0818560208601610b37565b610ba981610b6a565b840191505092915050565b6000819050919050565b610bc781610bb4565b82525050565b600063ffffffff82169050919050565b610be681610bcd565b82525050565b600061ffff82169050919050565b610c0381610bec565b82525050565b600061012082019050610c1f600083018c610b0c565b8181036020830152610c31818b610b7b565b90508181036040830152610c45818a610b7b565b9050610c546060830189610bbe565b610c616080830188610bdd565b610c6e60a0830187610b0c565b610c7b60c0830186610b0c565b610c8860e0830185610b0c565b610c96610100830184610bfa565b9a9950505050505050505050565b600073ffffffffffffffffffffffffffffffffffffffff82169050919050565b6000610ccf82610ca4565b9050919050565b610cdf81610cc4565b82525050565b6000602082019050610cfa6000830184610cd6565b92915050565b60008115159050919050565b610d1581610d00565b82525050565b6000602082019050610d306000830184610d0c565b92915050565b600080fd5b600080fd5b7f4e487b7100000000000000000000000000000000000000000000000000000000600052604160045260246000fd5b610d7882610b6a565b810181811067ffffffffffffffff82111715610d9757610d96610d40565b5b80604052505050565b6000610daa610a95565b9050610db68282610d6f565b919050565b600067ffffffffffffffff821115610dd657610dd5610d40565b5b610ddf82610b6a565b9050602081019050919050565b82818337600083830152505050565b6000610e0e610e0984610dbb565b610da0565b905082815260208101848484011115610e2a57610e29610d3b565b5b610e35848285610dec565b509392505050565b600082601f830112610e5257610e51610d36565b5b8135610e62848260208601610dfb565b91505092915050565b600060208284031215610e8157610e80610a9f565b5b600082013567ffffffffffffffff811115610e9f57610e9e610aa4565b5b610eab84828501610e3d565b91505092915050565b610ebd81610cc4565b8114610ec857600080fd5b50565b600081359050610eda81610eb4565b92915050565b600060208284031215610ef657610ef5610a9f565b5b6000610f0484828501610ecb565b91505092915050565b7f4e487b7100000000000000000000000000000000000000000000000000000000600052602260045260246000fd5b60006002820490506001821680610f5457607f821691505b60208210811415610f6857610f67610f0d565b5b50919050565b600081905092915050565b7f74726176656c6572000000000000000000000000000000000000000000000000600082015250565b6000610faf600883610f6e565b9150610fba82610f79565b600882019050919050565b6000610fd082610fa2565b9150819050919050565b7f4e487b7100000000000000000000000000000000000000000000000000000000600052601260045260246000fd5b600061101482610aa9565b915061101f83610aa9565b92508261102f5761102e610fda565b5b828206905092915050565b7f4e487b7100000000000000000000000000000000000000000000000000000000600052601160045260246000fd5b600061107482610aa9565b915061107f83610aa9565b9250828210156110925761109161103a565b5b828203905092915050565b60006110a882610b1b565b6110b28185610f6e565b93506110c2818560208601610b37565b80840191505092915050565b60006110da828461109d565b915081905092915050565b60006110f082610aa9565b91506110fb83610aa9565b9250827fffffffffffffffffffffffffffffffffffffffffffffffffffffffffffffffff038211156111305761112f61103a565b5b828201905092915050565b7f4e6f4e616d650000000000000000000000000000000000000000000000000000600082015250565b6000611171600683610b26565b915061117c8261113b565b602082019050919050565b6000819050919050565b6000819050919050565b60006111b66111b16111ac84611187565b611191565b610bec565b9050919050565b6111c68161119b565b82525050565b6000610140820190506111e2600083018c610b0c565b6111ef602083018b610b0c565b818103604083015261120081611164565b90508181036060830152611214818a610b7b565b90506112236080830189610bbe565b61123060a0830188610bdd565b61123d60c08301876111bd565b61124a60e08301866111bd565b6112586101008301856111bd565b6112666101208301846111bd565b9a9950505050505050505050565b7f4e487b7100000000000000000000000000000000000000000000000000000000600052600160045260246000fdfea2646970667358221220302b97192ee004213859a04a4b477d971c4f88a6116f08de2ba050037ebe288c64736f6c634300080a0033",
  "immutableReferences": {},
  "source": "// SPDX-License-Identifier: MIT\r\npragma solidity >=0.4.22 <0.9.0;\r\n\r\nimport \"./ownable.sol\";\r\nimport \"./safemath.sol\";\r\n\r\ncontract AvatarFactory is Ownable {\r\n\r\n    using SafeMath for uint256;\r\n    using SafeMath32 for uint32;\r\n    using SafeMath16 for uint16;\r\n\r\n    event NewAvatar(uint avatarId, uint avatarDna, string avatarName, string avatarSex, bytes32 avatarRace, uint32 avatarReadyTime,  uint16 avatarMiles, uint16 avatarHome, uint16 avatarWorkPlace, uint16 avatarBreedCount);\r\n\r\n    uint avatarDnaDigits = 16;\r\n    uint avatarDnaModulus = 10 ** avatarDnaDigits;\r\n    uint avatarCdTime = 1 days;\r\n\r\n    struct Avatar {\r\n        uint avatarDna;\r\n        string avatarName;\r\n        string avatarSex;\r\n        bytes32 avatarRace;\r\n        uint32 avatarReadyTime;\r\n        uint256 avatarMiles;\r\n        uint256 avatarHome;\r\n        uint256 avatarWorkPlace;\r\n        uint16 breedCount;\r\n    }\r\n\r\n    Avatar[] public avatars;\r\n\r\n    mapping (uint => address) public avatarToOwner;\r\n    mapping (address => uint) ownerAvatarCount;\r\n\r\n    uint avatarCreationFee = 0.1 ether;\r\n    uint randAvatarNonce = 0;\r\n\r\n    function randAvatarMod(uint _modulus) internal returns(uint) {\r\n        randAvatarNonce++;\r\n        return uint(keccak256(abi.encodePacked(block.timestamp,msg.sender,randAvatarNonce))) % _modulus;\r\n    }\r\n\r\n    function _randSex() internal returns(string memory) {\r\n        uint maleProbability = 50;\r\n        string memory _sex;\r\n        if (randAvatarMod(100) <= maleProbability) {\r\n            _sex = \"male\";\r\n        } else {\r\n            _sex = \"female\";\r\n        }\r\n        return (_sex);\r\n    }\r\n\r\n    function _createAvatar(bytes32 _race, string memory _sex, uint _dna) internal {\r\n        uint32 _readyTime = uint32(block.timestamp + avatarCdTime);\r\n        // Note: We chose not to prevent the year 2038 problem... So don't need\r\n        // worry about overflows on readyTime. Our app is screwed in 2038 anyway ;)\r\n        avatars.push(Avatar(_dna, \"NoName\", _sex, _race, _readyTime, 0, 0, 0, 0));\r\n        uint avatarId = avatars.length -1;\r\n        avatarToOwner[avatarId] = msg.sender;\r\n        ownerAvatarCount[msg.sender] = ownerAvatarCount[msg.sender].add(1);\r\n        emit NewAvatar(avatarId, _dna, \"NoName\", _sex, _race, _readyTime, 0, 0, 0, 0);\r\n    }\r\n\r\n    function _generateRandomAvatarDna(string memory _str) private view returns (uint) {\r\n        uint rand = uint (keccak256(abi.encodePacked(_str)));\r\n        return rand % avatarDnaModulus;\r\n    }\r\n\r\n    function createRandomAvatar(string memory _sex) public payable {\r\n        require(msg.value == avatarCreationFee);\r\n        require(ownerAvatarCount[msg.sender] == 0);\r\n        bytes32 _race = keccak256(abi.encodePacked(\"traveler\"));\r\n        uint randDna = _generateRandomAvatarDna(\"traveler\");\r\n        randDna = randDna - randDna % 100;\r\n        _createAvatar(_race, _sex, randDna);\r\n    }\r\n}",
  "sourcePath": "C:\\Users\\pablo\\PycharmProjects\\LiveAndTravel\\contracts\\avatarfactory.sol",
  "compiler": {
    "name": "solc",
    "version": "0.8.10+commit.fc410830.Emscripten.clang"
  },
  "schemaVersion": "3.4.4",
  "updatedAt": "2022-01-13T15:03:14.352Z",
  "devdoc": {
    "kind": "dev",
    "methods": {},
    "version": 1
  },
  "userdoc": {
    "kind": "user",
    "methods": {},
    "version": 1
  }
}