{
  "contractName": "AvatarMigration",
  "abi": [
    {
      "anonymous": false,
      "inputs": [
        {
          "indexed": false,
          "internalType": "uint256",
          "name": "avatarId",
          "type": "uint256"
        },
        {
          "indexed": false,
          "internalType": "uint256",
          "name": "avatarDna",
          "type": "uint256"
        },
        {
          "indexed": false,
          "internalType": "string",
          "name": "avatarName",
          "type": "string"
        },
        {
          "indexed": false,
          "internalType": "string",
          "name": "avatarSex",
          "type": "string"
        },
        {
          "indexed": false,
          "internalType": "bytes32",
          "name": "avatarRace",
          "type": "bytes32"
        },
        {
          "indexed": false,
          "internalType": "uint32",
          "name": "avatarReadyTime",
          "type": "uint32"
        },
        {
          "indexed": false,
          "internalType": "uint16",
          "name": "avatarLevel",
          "type": "uint16"
        },
        {
          "indexed": false,
          "internalType": "uint16",
          "name": "avatarLuck",
          "type": "uint16"
        },
        {
          "indexed": false,
          "internalType": "uint16",
          "name": "avatarInt",
          "type": "uint16"
        },
        {
          "indexed": false,
          "internalType": "uint16",
          "name": "avatarAgi",
          "type": "uint16"
        },
        {
          "indexed": false,
          "internalType": "uint16",
          "name": "avatarStr",
          "type": "uint16"
        },
        {
          "indexed": false,
          "internalType": "uint16",
          "name": "avatarSta",
          "type": "uint16"
        },
        {
          "indexed": false,
          "internalType": "uint16",
          "name": "avatarBreedCount",
          "type": "uint16"
        }
      ],
      "name": "NewAvatar",
      "type": "event"
    },
    {
      "anonymous": false,
      "inputs": [
        {
          "indexed": true,
          "internalType": "address",
          "name": "previousOwner",
          "type": "address"
        },
        {
          "indexed": true,
          "internalType": "address",
          "name": "newOwner",
          "type": "address"
        }
      ],
      "name": "OwnershipTransferred",
      "type": "event"
    },
    {
      "inputs": [
        {
          "internalType": "uint256",
          "name": "",
          "type": "uint256"
        }
      ],
      "name": "avatarToOwner",
      "outputs": [
        {
          "internalType": "address",
          "name": "",
          "type": "address"
        }
      ],
      "stateMutability": "view",
      "type": "function"
    },
    {
      "inputs": [
        {
          "internalType": "uint256",
          "name": "",
          "type": "uint256"
        }
      ],
      "name": "avatars",
      "outputs": [
        {
          "internalType": "uint256",
          "name": "avatarDna",
          "type": "uint256"
        },
        {
          "internalType": "string",
          "name": "avatarName",
          "type": "string"
        },
        {
          "internalType": "string",
          "name": "avatarSex",
          "type": "string"
        },
        {
          "internalType": "bytes32",
          "name": "avatarRace",
          "type": "bytes32"
        },
        {
          "internalType": "uint32",
          "name": "avatarReadyTime",
          "type": "uint32"
        },
        {
          "internalType": "uint16",
          "name": "avatarLevel",
          "type": "uint16"
        },
        {
          "internalType": "uint16",
          "name": "avatarLuck",
          "type": "uint16"
        },
        {
          "internalType": "uint16",
          "name": "avatarIntellect",
          "type": "uint16"
        },
        {
          "internalType": "uint16",
          "name": "avatarAgility",
          "type": "uint16"
        },
        {
          "internalType": "uint16",
          "name": "avatarStrength",
          "type": "uint16"
        },
        {
          "internalType": "uint16",
          "name": "avatarStamina",
          "type": "uint16"
        },
        {
          "internalType": "uint16",
          "name": "breedCount",
          "type": "uint16"
        }
      ],
      "stateMutability": "view",
      "type": "function"
    },
    {
      "inputs": [
        {
          "internalType": "string",
          "name": "_name",
          "type": "string"
        },
        {
          "internalType": "string",
          "name": "_sex",
          "type": "string"
        }
      ],
      "name": "createRandomAvatar",
      "outputs": [],
      "stateMutability": "payable",
      "type": "function"
    },
    {
      "inputs": [],
      "name": "isOwner",
      "outputs": [
        {
          "internalType": "bool",
          "name": "",
          "type": "bool"
        }
      ],
      "stateMutability": "view",
      "type": "function"
    },
    {
      "inputs": [],
      "name": "owner",
      "outputs": [
        {
          "internalType": "address",
          "name": "",
          "type": "address"
        }
      ],
      "stateMutability": "view",
      "type": "function"
    },
    {
      "inputs": [],
      "name": "renounceOwnership",
      "outputs": [],
      "stateMutability": "nonpayable",
      "type": "function"
    },
    {
      "inputs": [
        {
          "internalType": "address",
          "name": "newOwner",
          "type": "address"
        }
      ],
      "name": "transferOwnership",
      "outputs": [],
      "stateMutability": "nonpayable",
      "type": "function"
    },
    {
      "inputs": [
        {
          "internalType": "address",
          "name": "_address",
          "type": "address"
        }
      ],
      "name": "setKittyContractAddress",
      "outputs": [],
      "stateMutability": "nonpayable",
      "type": "function"
    },
    {
      "inputs": [
        {
          "internalType": "address",
          "name": "_address",
          "type": "address"
        }
      ],
      "name": "setCypherPunkContractAddress",
      "outputs": [],
      "stateMutability": "nonpayable",
      "type": "function"
    },
    {
      "inputs": [
        {
          "internalType": "address",
          "name": "_address",
          "type": "address"
        }
      ],
      "name": "setBoredApeContractAddress",
      "outputs": [],
      "stateMutability": "nonpayable",
      "type": "function"
    },
    {
      "inputs": [
        {
          "internalType": "uint256",
          "name": "_kittyId",
          "type": "uint256"
        }
      ],
      "name": "migrateKitty",
      "outputs": [],
      "stateMutability": "payable",
      "type": "function"
    },
    {
      "inputs": [
        {
          "internalType": "uint256",
          "name": "_boredApeId",
          "type": "uint256"
        }
      ],
      "name": "migrateBoredApe",
      "outputs": [],
      "stateMutability": "payable",
      "type": "function"
    },
    {
      "inputs": [
        {
          "internalType": "uint256",
          "name": "_cypherPunkId",
          "type": "uint256"
        }
      ],
      "name": "migrateCypherPunk",
      "outputs": [],
      "stateMutability": "payable",
      "type": "function"
    }
  ],
  "bytecode": "0x60806040526010600155600154600a6200001a919062000291565b60025562015180600355670de0b6b3a764000060075560006008553480156200004257600080fd5b50336000806101000a81548173ffffffffffffffffffffffffffffffffffffffff021916908373ffffffffffffffffffffffffffffffffffffffff16021790555060008054906101000a900473ffffffffffffffffffffffffffffffffffffffff1673ffffffffffffffffffffffffffffffffffffffff16600073ffffffffffffffffffffffffffffffffffffffff167f8be0079c531659141344cd1fd0a4f28419497f9722a3daafe3b4186f6b6457e060405160405180910390a3620002e2565b7f4e487b7100000000000000000000000000000000000000000000000000000000600052601160045260246000fd5b60008160011c9050919050565b6000808291508390505b600185111562000192578086048111156200016a576200016962000104565b5b60018516156200017a5780820291505b80810290506200018a8562000133565b94506200014a565b94509492505050565b600082620001ad576001905062000280565b81620001bd576000905062000280565b8160018114620001d65760028114620001e15762000217565b600191505062000280565b60ff841115620001f657620001f562000104565b5b8360020a91508482111562000210576200020f62000104565b5b5062000280565b5060208310610133831016604e8410600b8410161715620002515782820a9050838111156200024b576200024a62000104565b5b62000280565b62000260848484600162000140565b925090508184048111156200027a576200027962000104565b5b81810290505b9392505050565b6000819050919050565b60006200029e8262000287565b9150620002ab8362000287565b9250620002da7fffffffffffffffffffffffffffffffffffffffffffffffffffffffffffffffff84846200019b565b905092915050565b611ea680620002f26000396000f3fe6080604052600436106100c25760003560e01c80638b030aaa1161007f5780639687871211610059578063968787121461022f578063c8539c4b1461024b578063f2fde38b14610288578063f5dcef04146102b1576100c2565b80638b030aaa146101b05780638da5cb5b146101d95780638f32d59b14610204576100c2565b80630351cf51146100c757806324ef8f70146100e35780635de84288146100ff5780635f4623f114610128578063715018a614610151578063834d5fac14610168575b600080fd5b6100e160048036038101906100dc919061129b565b6102cd565b005b6100fd60048036038101906100f8919061140e565b6103fa565b005b34801561010b57600080fd5b50610126600480360381019061012191906114e4565b6104b5565b005b34801561013457600080fd5b5061014f600480360381019061014a91906114e4565b61050a565b005b34801561015d57600080fd5b5061016661055f565b005b34801561017457600080fd5b5061018f600480360381019061018a919061129b565b61062e565b6040516101a79c9b9a999897969594939291906115fd565b60405180910390f35b3480156101bc57600080fd5b506101d760048036038101906101d291906114e4565b610820565b005b3480156101e557600080fd5b506101ee610875565b6040516101fb91906116d4565b60405180910390f35b34801561021057600080fd5b5061021961089e565b604051610226919061170a565b60405180910390f35b6102496004803603810190610244919061129b565b6108f5565b005b34801561025757600080fd5b50610272600480360381019061026d919061129b565b610a22565b60405161027f91906116d4565b60405180910390f35b34801561029457600080fd5b506102af60048036038101906102aa91906114e4565b610a55565b005b6102cb60048036038101906102c6919061129b565b610a72565b005b60075434146102db57600080fd5b60006040516020016102ec9061177c565b604051602081830303815290604052805190602001209050600061030e610b9f565b90506000600b60009054906101000a900473ffffffffffffffffffffffffffffffffffffffff1673ffffffffffffffffffffffffffffffffffffffff166394eb170d856040518263ffffffff1660e01b815260040161036d9190611791565b61014060405180830381865afa15801561038b573d6000803e3d6000fd5b505050506040513d601f19601f820116820180604052508101906103af91906117ed565b909192939495969798509091929394959697509091929394959650909192939495509091929394509091929350909192509091509050809150506103f4838383610c37565b50505050565b600754341461040857600080fd5b6000600660003373ffffffffffffffffffffffffffffffffffffffff1673ffffffffffffffffffffffffffffffffffffffff168152602001908152602001600020541461045457600080fd5b600060405160200161046590611918565b604051602081830303815290604052805190602001209050600061048884610fea565b9050606481610497919061195c565b816104a291906119bc565b90506104af828483610c37565b50505050565b6104bd61089e565b6104c657600080fd5b80600a60006101000a81548173ffffffffffffffffffffffffffffffffffffffff021916908373ffffffffffffffffffffffffffffffffffffffff16021790555050565b61051261089e565b61051b57600080fd5b80600960006101000a81548173ffffffffffffffffffffffffffffffffffffffff021916908373ffffffffffffffffffffffffffffffffffffffff16021790555050565b61056761089e565b61057057600080fd5b600073ffffffffffffffffffffffffffffffffffffffff1660008054906101000a900473ffffffffffffffffffffffffffffffffffffffff1673ffffffffffffffffffffffffffffffffffffffff167f8be0079c531659141344cd1fd0a4f28419497f9722a3daafe3b4186f6b6457e060405160405180910390a360008060006101000a81548173ffffffffffffffffffffffffffffffffffffffff021916908373ffffffffffffffffffffffffffffffffffffffff160217905550565b6004818154811061063e57600080fd5b906000526020600020906005020160009150905080600001549080600101805461066790611a1f565b80601f016020809104026020016040519081016040528092919081815260200182805461069390611a1f565b80156106e05780601f106106b5576101008083540402835291602001916106e0565b820191906000526020600020905b8154815290600101906020018083116106c357829003601f168201915b5050505050908060020180546106f590611a1f565b80601f016020809104026020016040519081016040528092919081815260200182805461072190611a1f565b801561076e5780601f106107435761010080835404028352916020019161076e565b820191906000526020600020905b81548152906001019060200180831161075157829003601f168201915b5050505050908060030154908060040160009054906101000a900463ffffffff16908060040160049054906101000a900461ffff16908060040160069054906101000a900461ffff16908060040160089054906101000a900461ffff169080600401600a9054906101000a900461ffff169080600401600c9054906101000a900461ffff169080600401600e9054906101000a900461ffff16908060040160109054906101000a900461ffff1690508c565b61082861089e565b61083157600080fd5b80600b60006101000a81548173ffffffffffffffffffffffffffffffffffffffff021916908373ffffffffffffffffffffffffffffffffffffffff16021790555050565b60008060009054906101000a900473ffffffffffffffffffffffffffffffffffffffff16905090565b60008060009054906101000a900473ffffffffffffffffffffffffffffffffffffffff1673ffffffffffffffffffffffffffffffffffffffff163373ffffffffffffffffffffffffffffffffffffffff1614905090565b600754341461090357600080fd5b600060405160200161091490611a9d565b6040516020818303038152906040528051906020012090506000610936610b9f565b90506000600960009054906101000a900473ffffffffffffffffffffffffffffffffffffffff1673ffffffffffffffffffffffffffffffffffffffff1663e98b7f4d856040518263ffffffff1660e01b81526004016109959190611791565b61014060405180830381865afa1580156109b3573d6000803e3d6000fd5b505050506040513d601f19601f820116820180604052508101906109d791906117ed565b90919293949596979850909192939495969750909192939495965090919293949550909192939450909192935090919250909150905080915050610a1c838383610c37565b50505050565b60056020528060005260406000206000915054906101000a900473ffffffffffffffffffffffffffffffffffffffff1681565b610a5d61089e565b610a6657600080fd5b610a6f8161102f565b50565b6007543414610a8057600080fd5b6000604051602001610a9190611afe565b6040516020818303038152906040528051906020012090506000610ab3610b9f565b90506000600a60009054906101000a900473ffffffffffffffffffffffffffffffffffffffff1673ffffffffffffffffffffffffffffffffffffffff16632a417612856040518263ffffffff1660e01b8152600401610b129190611791565b61014060405180830381865afa158015610b30573d6000803e3d6000fd5b505050506040513d601f19601f82011682018060405250810190610b5491906117ed565b90919293949596979850909192939495969750909192939495965090919293949550909192939450909192935090919250909150905080915050610b99838383610c37565b50505050565b6060600060329050606081610bb46064611126565b11610bf6576040518060400160405280600481526020017f6d616c65000000000000000000000000000000000000000000000000000000008152509050610c2f565b6040518060400160405280600681526020017f66656d616c65000000000000000000000000000000000000000000000000000081525090505b809250505090565b600060035442610c479190611b13565b905060046040518061018001604052808481526020016040518060400160405280600681526020017f4e6f4e616d65000000000000000000000000000000000000000000000000000081525081526020018581526020018681526020018363ffffffff168152602001600161ffff168152602001600161ffff168152602001600161ffff168152602001600161ffff168152602001600161ffff168152602001600161ffff168152602001600061ffff168152509080600181540180825580915050600190039060005260206000209060050201600090919091909150600082015181600001556020820151816001019080519060200190610d4a9291906111ae565b506040820151816002019080519060200190610d679291906111ae565b506060820151816003015560808201518160040160006101000a81548163ffffffff021916908363ffffffff16021790555060a08201518160040160046101000a81548161ffff021916908361ffff16021790555060c08201518160040160066101000a81548161ffff021916908361ffff16021790555060e08201518160040160086101000a81548161ffff021916908361ffff16021790555061010082015181600401600a6101000a81548161ffff021916908361ffff16021790555061012082015181600401600c6101000a81548161ffff021916908361ffff16021790555061014082015181600401600e6101000a81548161ffff021916908361ffff1602179055506101608201518160040160106101000a81548161ffff021916908361ffff160217905550505060006001600480549050610ea891906119bc565b9050336005600083815260200190815260200160002060006101000a81548173ffffffffffffffffffffffffffffffffffffffff021916908373ffffffffffffffffffffffffffffffffffffffff160217905550610f4f6001600660003373ffffffffffffffffffffffffffffffffffffffff1673ffffffffffffffffffffffffffffffffffffffff1681526020019081526020016000205461118290919063ffffffff16565b600660003373ffffffffffffffffffffffffffffffffffffffff1673ffffffffffffffffffffffffffffffffffffffff168152602001908152602001600020819055507ff115c9a61530c95eca79038e19e5bed64bbe37f60141674560372eed893172b281848688866001806001806001806000604051610fdb9c9b9a99989796959493929190611c35565b60405180910390a15050505050565b60008082604051602001610ffe9190611d3b565b6040516020818303038152906040528051906020012060001c905060025481611027919061195c565b915050919050565b600073ffffffffffffffffffffffffffffffffffffffff168173ffffffffffffffffffffffffffffffffffffffff16141561106957600080fd5b8073ffffffffffffffffffffffffffffffffffffffff1660008054906101000a900473ffffffffffffffffffffffffffffffffffffffff1673ffffffffffffffffffffffffffffffffffffffff167f8be0079c531659141344cd1fd0a4f28419497f9722a3daafe3b4186f6b6457e060405160405180910390a3806000806101000a81548173ffffffffffffffffffffffffffffffffffffffff021916908373ffffffffffffffffffffffffffffffffffffffff16021790555050565b60006008600081548092919061113b90611d52565b919050555081423360085460405160200161115893929190611e04565b6040516020818303038152906040528051906020012060001c61117b919061195c565b9050919050565b60008082846111919190611b13565b9050838110156111a4576111a3611e41565b5b8091505092915050565b8280546111ba90611a1f565b90600052602060002090601f0160209004810192826111dc5760008555611223565b82601f106111f557805160ff1916838001178555611223565b82800160010185558215611223579182015b82811115611222578251825591602001919060010190611207565b5b5090506112309190611234565b5090565b5b8082111561124d576000816000905550600101611235565b5090565b6000604051905090565b600080fd5b600080fd5b6000819050919050565b61127881611265565b811461128357600080fd5b50565b6000813590506112958161126f565b92915050565b6000602082840312156112b1576112b061125b565b5b60006112bf84828501611286565b91505092915050565b600080fd5b600080fd5b6000601f19601f8301169050919050565b7f4e487b7100000000000000000000000000000000000000000000000000000000600052604160045260246000fd5b61131b826112d2565b810181811067ffffffffffffffff8211171561133a576113396112e3565b5b80604052505050565b600061134d611251565b90506113598282611312565b919050565b600067ffffffffffffffff821115611379576113786112e3565b5b611382826112d2565b9050602081019050919050565b82818337600083830152505050565b60006113b16113ac8461135e565b611343565b9050828152602081018484840111156113cd576113cc6112cd565b5b6113d884828561138f565b509392505050565b600082601f8301126113f5576113f46112c8565b5b813561140584826020860161139e565b91505092915050565b600080604083850312156114255761142461125b565b5b600083013567ffffffffffffffff81111561144357611442611260565b5b61144f858286016113e0565b925050602083013567ffffffffffffffff8111156114705761146f611260565b5b61147c858286016113e0565b9150509250929050565b600073ffffffffffffffffffffffffffffffffffffffff82169050919050565b60006114b182611486565b9050919050565b6114c1816114a6565b81146114cc57600080fd5b50565b6000813590506114de816114b8565b92915050565b6000602082840312156114fa576114f961125b565b5b6000611508848285016114cf565b91505092915050565b61151a81611265565b82525050565b600081519050919050565b600082825260208201905092915050565b60005b8381101561155a57808201518184015260208101905061153f565b83811115611569576000848401525b50505050565b600061157a82611520565b611584818561152b565b935061159481856020860161153c565b61159d816112d2565b840191505092915050565b6000819050919050565b6115bb816115a8565b82525050565b600063ffffffff82169050919050565b6115da816115c1565b82525050565b600061ffff82169050919050565b6115f7816115e0565b82525050565b600061018082019050611613600083018f611511565b8181036020830152611625818e61156f565b90508181036040830152611639818d61156f565b9050611648606083018c6115b2565b611655608083018b6115d1565b61166260a083018a6115ee565b61166f60c08301896115ee565b61167c60e08301886115ee565b61168a6101008301876115ee565b6116986101208301866115ee565b6116a66101408301856115ee565b6116b46101608301846115ee565b9d9c50505050505050505050505050565b6116ce816114a6565b82525050565b60006020820190506116e960008301846116c5565b92915050565b60008115159050919050565b611704816116ef565b82525050565b600060208201905061171f60008301846116fb565b92915050565b600081905092915050565b7f626f726564417065000000000000000000000000000000000000000000000000600082015250565b6000611766600883611725565b915061177182611730565b600882019050919050565b600061178782611759565b9150819050919050565b60006020820190506117a66000830184611511565b92915050565b6117b5816116ef565b81146117c057600080fd5b50565b6000815190506117d2816117ac565b92915050565b6000815190506117e78161126f565b92915050565b6000806000806000806000806000806101408b8d0312156118115761181061125b565b5b600061181f8d828e016117c3565b9a505060206118308d828e016117c3565b99505060406118418d828e016117d8565b98505060606118528d828e016117d8565b97505060806118638d828e016117d8565b96505060a06118748d828e016117d8565b95505060c06118858d828e016117d8565b94505060e06118968d828e016117d8565b9350506101006118a88d828e016117d8565b9250506101206118ba8d828e016117d8565b9150509295989b9194979a5092959850565b7f74726176656c6572000000000000000000000000000000000000000000000000600082015250565b6000611902600883611725565b915061190d826118cc565b600882019050919050565b6000611923826118f5565b9150819050919050565b7f4e487b7100000000000000000000000000000000000000000000000000000000600052601260045260246000fd5b600061196782611265565b915061197283611265565b9250826119825761198161192d565b5b828206905092915050565b7f4e487b7100000000000000000000000000000000000000000000000000000000600052601160045260246000fd5b60006119c782611265565b91506119d283611265565b9250828210156119e5576119e461198d565b5b828203905092915050565b7f4e487b7100000000000000000000000000000000000000000000000000000000600052602260045260246000fd5b60006002820490506001821680611a3757607f821691505b60208210811415611a4b57611a4a6119f0565b5b50919050565b7f6b69747479000000000000000000000000000000000000000000000000000000600082015250565b6000611a87600583611725565b9150611a9282611a51565b600582019050919050565b6000611aa882611a7a565b9150819050919050565b7f63797068657250756e6b00000000000000000000000000000000000000000000600082015250565b6000611ae8600a83611725565b9150611af382611ab2565b600a82019050919050565b6000611b0982611adb565b9150819050919050565b6000611b1e82611265565b9150611b2983611265565b9250827fffffffffffffffffffffffffffffffffffffffffffffffffffffffffffffffff03821115611b5e57611b5d61198d565b5b828201905092915050565b7f4e6f4e616d650000000000000000000000000000000000000000000000000000600082015250565b6000611b9f60068361152b565b9150611baa82611b69565b602082019050919050565b6000819050919050565b6000819050919050565b6000611be4611bdf611bda84611bb5565b611bbf565b6115e0565b9050919050565b611bf481611bc9565b82525050565b6000819050919050565b6000611c1f611c1a611c1584611bfa565b611bbf565b6115e0565b9050919050565b611c2f81611c04565b82525050565b60006101a082019050611c4b600083018f611511565b611c58602083018e611511565b8181036040830152611c6981611b92565b90508181036060830152611c7d818d61156f565b9050611c8c608083018c6115b2565b611c9960a083018b6115d1565b611ca660c083018a611beb565b611cb360e0830189611beb565b611cc1610100830188611beb565b611ccf610120830187611beb565b611cdd610140830186611beb565b611ceb610160830185611beb565b611cf9610180830184611c26565b9d9c50505050505050505050505050565b6000611d1582611520565b611d1f8185611725565b9350611d2f81856020860161153c565b80840191505092915050565b6000611d478284611d0a565b915081905092915050565b6000611d5d82611265565b91507fffffffffffffffffffffffffffffffffffffffffffffffffffffffffffffffff821415611d9057611d8f61198d565b5b600182019050919050565b6000819050919050565b611db6611db182611265565b611d9b565b82525050565b60008160601b9050919050565b6000611dd482611dbc565b9050919050565b6000611de682611dc9565b9050919050565b611dfe611df9826114a6565b611ddb565b82525050565b6000611e108286611da5565b602082019150611e208285611ded565b601482019150611e308284611da5565b602082019150819050949350505050565b7f4e487b7100000000000000000000000000000000000000000000000000000000600052600160045260246000fdfea26469706673582212207b94e698745a3b3d103a1f2c25b3fd4b9bb5e59197fe31d5b194db1ae9b56c4964736f6c634300080a0033",
  "immutableReferences": {},
  "source": "// SPDX-License-Identifier: MIT\r\npragma solidity >=0.4.22 <0.9.0;\r\n\r\nimport \"./avatarfactory.sol\";\r\n\r\n//Examples of mapping different qualities of the avatar/race that is going to be the couple to our avatar from: NFT collections, other Games, etc.\r\n//Example: Qualities from crypto kitties\r\nabstract contract KittyInterface {\r\n\r\n    function getKitty(uint256 _id) external virtual view returns (\r\n        bool isGestating,\r\n        bool isReady,\r\n        uint256 cooldownIndex,\r\n        uint256 nextActionAt,\r\n        uint256 siringWithId,\r\n        uint256 birthTime,\r\n        uint256 matronId,\r\n        uint256 sireId,\r\n        uint256 generation,\r\n        uint256 genes\r\n    );\r\n}\r\n//modify\r\nabstract contract CypherPunkInterface {\r\n\r\n    function getCypherPunk(uint256 _id) external virtual view returns (\r\n        bool isGestating,\r\n        bool isReady,\r\n        uint256 cooldownIndex,\r\n        uint256 nextActionAt,\r\n        uint256 siringWithId,\r\n        uint256 birthTime,\r\n        uint256 matronId,\r\n        uint256 sireId,\r\n        uint256 generation,\r\n        uint256 genes\r\n    );\r\n}\r\n//modify\r\nabstract contract BoredApeInterface {\r\n\r\n    function getBoredApe(uint256 _id) external virtual view returns (\r\n        bool isGestating,\r\n        bool isReady,\r\n        uint256 cooldownIndex,\r\n        uint256 nextActionAt,\r\n        uint256 siringWithId,\r\n        uint256 birthTime,\r\n        uint256 matronId,\r\n        uint256 sireId,\r\n        uint256 generation,\r\n        uint256 genes\r\n    );\r\n}\r\n\r\ncontract AvatarMigration is AvatarFactory {\r\n\r\n     KittyInterface kittyContract;\r\n     CypherPunkInterface cypherPunkContract;\r\n     BoredApeInterface boredApeContract;\r\n\r\n    function setKittyContractAddress(address _address) external onlyOwner {\r\n        kittyContract = KittyInterface(_address);\r\n    }\r\n\r\n    function setCypherPunkContractAddress(address _address) external onlyOwner {\r\n        cypherPunkContract = CypherPunkInterface(_address);\r\n    }\r\n\r\n    function setBoredApeContractAddress(address _address) external onlyOwner {\r\n        boredApeContract = BoredApeInterface(_address);\r\n    }\r\n\r\n    function migrateKitty(uint _kittyId) public payable {\r\n        require(msg.value == avatarCreationFee);\r\n        bytes32 _race = keccak256(abi.encodePacked(\"kitty\"));\r\n        string memory _sex = _randSex();\r\n        uint _dna;\r\n        (,,,,,,,,,_dna) = kittyContract.getKitty(_kittyId);\r\n        _createAvatar(_race, _sex, _dna);\r\n    }\r\n\r\n    function migrateBoredApe(uint _boredApeId) public payable {\r\n        require(msg.value == avatarCreationFee);\r\n        bytes32 _race = keccak256(abi.encodePacked(\"boredApe\"));\r\n        string memory _sex = _randSex();\r\n        uint _dna;\r\n        (,,,,,,,,,_dna) = boredApeContract.getBoredApe(_boredApeId);\r\n        _createAvatar(_race, _sex, _dna);\r\n    }\r\n\r\n\r\n    function migrateCypherPunk(uint _cypherPunkId) public payable {\r\n        require(msg.value == avatarCreationFee);\r\n        bytes32 _race = keccak256(abi.encodePacked(\"cypherPunk\"));\r\n        string memory _sex = _randSex();\r\n        uint _dna;\r\n        (,,,,,,,,,_dna) = cypherPunkContract.getCypherPunk(_cypherPunkId);\r\n        _createAvatar(_race, _sex, _dna);\r\n    }\r\n}",
  "sourcePath": "C:\\Users\\pablo\\PycharmProjects\\LiveAndTravel\\contracts\\avatarmigration.sol",
  "compiler": {
    "name": "solc",
    "version": "0.8.10+commit.fc410830.Emscripten.clang"
  },
  "schemaVersion": "3.4.4",
  "updatedAt": "2022-01-01T19:27:48.393Z",
  "devdoc": {
    "kind": "dev",
    "methods": {},
    "version": 1
  },
  "userdoc": {
    "kind": "user",
    "methods": {},
    "version": 1
  }
}