{
  "contractName": "AvatarHelper",
  "abi": [
    {
      "anonymous": false,
      "inputs": [
        {
          "indexed": false,
          "internalType": "uint256",
          "name": "avatarId",
          "type": "uint256"
        },
        {
          "indexed": false,
          "internalType": "uint256",
          "name": "avatarDna",
          "type": "uint256"
        },
        {
          "indexed": false,
          "internalType": "string",
          "name": "avatarName",
          "type": "string"
        },
        {
          "indexed": false,
          "internalType": "string",
          "name": "avatarSex",
          "type": "string"
        },
        {
          "indexed": false,
          "internalType": "bytes32",
          "name": "avatarRace",
          "type": "bytes32"
        },
        {
          "indexed": false,
          "internalType": "uint32",
          "name": "avatarReadyTime",
          "type": "uint32"
        },
        {
          "indexed": false,
          "internalType": "uint16",
          "name": "avatarMiles",
          "type": "uint16"
        },
        {
          "indexed": false,
          "internalType": "uint16",
          "name": "avatarHome",
          "type": "uint16"
        },
        {
          "indexed": false,
          "internalType": "uint16",
          "name": "avatarWorkPlace",
          "type": "uint16"
        },
        {
          "indexed": false,
          "internalType": "uint16",
          "name": "avatarBreedCount",
          "type": "uint16"
        }
      ],
      "name": "NewAvatar",
      "type": "event"
    },
    {
      "anonymous": false,
      "inputs": [
        {
          "indexed": true,
          "internalType": "address",
          "name": "previousOwner",
          "type": "address"
        },
        {
          "indexed": true,
          "internalType": "address",
          "name": "newOwner",
          "type": "address"
        }
      ],
      "name": "OwnershipTransferred",
      "type": "event"
    },
    {
      "inputs": [
        {
          "internalType": "uint256",
          "name": "",
          "type": "uint256"
        }
      ],
      "name": "avatarToOwner",
      "outputs": [
        {
          "internalType": "address",
          "name": "",
          "type": "address"
        }
      ],
      "stateMutability": "view",
      "type": "function"
    },
    {
      "inputs": [
        {
          "internalType": "uint256",
          "name": "",
          "type": "uint256"
        }
      ],
      "name": "avatars",
      "outputs": [
        {
          "internalType": "uint256",
          "name": "avatarDna",
          "type": "uint256"
        },
        {
          "internalType": "string",
          "name": "avatarName",
          "type": "string"
        },
        {
          "internalType": "string",
          "name": "avatarSex",
          "type": "string"
        },
        {
          "internalType": "bytes32",
          "name": "avatarRace",
          "type": "bytes32"
        },
        {
          "internalType": "uint32",
          "name": "avatarReadyTime",
          "type": "uint32"
        },
        {
          "internalType": "uint256",
          "name": "avatarMiles",
          "type": "uint256"
        },
        {
          "internalType": "uint256",
          "name": "avatarHome",
          "type": "uint256"
        },
        {
          "internalType": "uint256",
          "name": "avatarWorkPlace",
          "type": "uint256"
        },
        {
          "internalType": "uint16",
          "name": "breedCount",
          "type": "uint16"
        }
      ],
      "stateMutability": "view",
      "type": "function"
    },
    {
      "inputs": [
        {
          "internalType": "uint256",
          "name": "_avatarId",
          "type": "uint256"
        },
        {
          "internalType": "uint256",
          "name": "_targetAvatarId",
          "type": "uint256"
        }
      ],
      "name": "breed",
      "outputs": [],
      "stateMutability": "payable",
      "type": "function"
    },
    {
      "inputs": [
        {
          "internalType": "string",
          "name": "_sex",
          "type": "string"
        }
      ],
      "name": "createRandomAvatar",
      "outputs": [],
      "stateMutability": "payable",
      "type": "function"
    },
    {
      "inputs": [],
      "name": "isOwner",
      "outputs": [
        {
          "internalType": "bool",
          "name": "",
          "type": "bool"
        }
      ],
      "stateMutability": "view",
      "type": "function"
    },
    {
      "inputs": [
        {
          "internalType": "uint256",
          "name": "_boredApeId",
          "type": "uint256"
        }
      ],
      "name": "migrateBoredApe",
      "outputs": [],
      "stateMutability": "payable",
      "type": "function"
    },
    {
      "inputs": [
        {
          "internalType": "uint256",
          "name": "_cypherPunkId",
          "type": "uint256"
        }
      ],
      "name": "migrateCypherPunk",
      "outputs": [],
      "stateMutability": "payable",
      "type": "function"
    },
    {
      "inputs": [
        {
          "internalType": "uint256",
          "name": "_kittyId",
          "type": "uint256"
        }
      ],
      "name": "migrateKitty",
      "outputs": [],
      "stateMutability": "payable",
      "type": "function"
    },
    {
      "inputs": [],
      "name": "owner",
      "outputs": [
        {
          "internalType": "address",
          "name": "",
          "type": "address"
        }
      ],
      "stateMutability": "view",
      "type": "function"
    },
    {
      "inputs": [],
      "name": "renounceOwnership",
      "outputs": [],
      "stateMutability": "nonpayable",
      "type": "function"
    },
    {
      "inputs": [
        {
          "internalType": "address",
          "name": "_address",
          "type": "address"
        }
      ],
      "name": "setBoredApeContractAddress",
      "outputs": [],
      "stateMutability": "nonpayable",
      "type": "function"
    },
    {
      "inputs": [
        {
          "internalType": "address",
          "name": "_address",
          "type": "address"
        }
      ],
      "name": "setCypherPunkContractAddress",
      "outputs": [],
      "stateMutability": "nonpayable",
      "type": "function"
    },
    {
      "inputs": [
        {
          "internalType": "address",
          "name": "_address",
          "type": "address"
        }
      ],
      "name": "setKittyContractAddress",
      "outputs": [],
      "stateMutability": "nonpayable",
      "type": "function"
    },
    {
      "inputs": [
        {
          "internalType": "address",
          "name": "newOwner",
          "type": "address"
        }
      ],
      "name": "transferOwnership",
      "outputs": [],
      "stateMutability": "nonpayable",
      "type": "function"
    },
    {
      "inputs": [],
      "name": "withdrawAvatar",
      "outputs": [],
      "stateMutability": "payable",
      "type": "function"
    },
    {
      "inputs": [
        {
          "internalType": "uint256",
          "name": "_avatarId",
          "type": "uint256"
        },
        {
          "internalType": "string",
          "name": "_newName",
          "type": "string"
        }
      ],
      "name": "changeAvatarName",
      "outputs": [],
      "stateMutability": "payable",
      "type": "function"
    },
    {
      "inputs": [
        {
          "internalType": "uint256",
          "name": "_avatarId",
          "type": "uint256"
        },
        {
          "internalType": "uint256",
          "name": "_newDna",
          "type": "uint256"
        }
      ],
      "name": "changeAvatarDna",
      "outputs": [],
      "stateMutability": "payable",
      "type": "function"
    },
    {
      "inputs": [
        {
          "internalType": "address",
          "name": "_owner",
          "type": "address"
        }
      ],
      "name": "getAvatarsByOwner",
      "outputs": [
        {
          "internalType": "uint256[]",
          "name": "",
          "type": "uint256[]"
        }
      ],
      "stateMutability": "view",
      "type": "function"
    }
  ],
  "bytecode": "0x60806040526010600155600154600a6200001a9190620002c9565b6002556201518060035567016345785d8a00006007556000600855605a600c556007600d55670429d069189e0000600e55662386f26fc10000600f55662386f26fc10000601055678ac7230489e800006011553480156200007a57600080fd5b50336000806101000a81548173ffffffffffffffffffffffffffffffffffffffff021916908373ffffffffffffffffffffffffffffffffffffffff16021790555060008054906101000a900473ffffffffffffffffffffffffffffffffffffffff1673ffffffffffffffffffffffffffffffffffffffff16600073ffffffffffffffffffffffffffffffffffffffff167f8be0079c531659141344cd1fd0a4f28419497f9722a3daafe3b4186f6b6457e060405160405180910390a36200031a565b7f4e487b7100000000000000000000000000000000000000000000000000000000600052601160045260246000fd5b60008160011c9050919050565b6000808291508390505b6001851115620001ca57808604811115620001a257620001a16200013c565b5b6001851615620001b25780820291505b8081029050620001c2856200016b565b945062000182565b94509492505050565b600082620001e55760019050620002b8565b81620001f55760009050620002b8565b81600181146200020e576002811462000219576200024f565b6001915050620002b8565b60ff8411156200022e576200022d6200013c565b5b8360020a9150848211156200024857620002476200013c565b5b50620002b8565b5060208310610133831016604e8410600b8410161715620002895782820a9050838111156200028357620002826200013c565b5b620002b8565b62000298848484600162000178565b92509050818404811115620002b257620002b16200013c565b5b81810290505b9392505050565b6000819050919050565b6000620002d682620002bf565b9150620002e383620002bf565b9250620003127fffffffffffffffffffffffffffffffffffffffffffffffffffffffffffffffff8484620001d3565b905092915050565b6131bd806200032a6000396000f3fe6080604052600436106101095760003560e01c80638f32d59b11610095578063c8539c4b11610064578063c8539c4b146102f2578063d25416071461032f578063d9ecad7b1461034b578063f2fde38b14610367578063f5dcef041461039057610109565b80638f32d59b14610252578063968787121461027d57806397abcb6c14610299578063b2dc230d146102d657610109565b80635f4623f1116100dc5780635f4623f114610179578063715018a6146101a2578063834d5fac146101b95780638b030aaa146101fe5780638da5cb5b1461022757610109565b80630351cf511461010e57806306d5e6e81461012a5780632a4b7eb9146101465780635de8428814610150575b600080fd5b610128600480360381019061012391906121b8565b6103ac565b005b610144600480360381019061013f91906121e5565b6104d9565b005b61014e6105bb565b005b34801561015c57600080fd5b5061017760048036038101906101729190612283565b610630565b005b34801561018557600080fd5b506101a0600480360381019061019b9190612283565b610685565b005b3480156101ae57600080fd5b506101b76106da565b005b3480156101c557600080fd5b506101e060048036038101906101db91906121b8565b6107a9565b6040516101f5999897969594939291906123ad565b60405180910390f35b34801561020a57600080fd5b5061022560048036038101906102209190612283565b610935565b005b34801561023357600080fd5b5061023c61098a565b6040516102499190612457565b60405180910390f35b34801561025e57600080fd5b506102676109b3565b604051610274919061248d565b60405180910390f35b610297600480360381019061029291906121b8565b610a0a565b005b3480156102a557600080fd5b506102c060048036038101906102bb9190612283565b610b37565b6040516102cd9190612566565b60405180910390f35b6102f060048036038101906102eb91906125ed565b610c8a565b005b3480156102fe57600080fd5b50610319600480360381019061031491906121b8565b610d76565b6040516103269190612457565b60405180910390f35b6103496004803603810190610344919061277d565b610da9565b005b610365600480360381019061036091906121e5565b610e98565b005b34801561037357600080fd5b5061038e60048036038101906103899190612283565b61194a565b005b6103aa60048036038101906103a591906121b8565b611967565b005b60075434146103ba57600080fd5b60006040516020016103cb9061281d565b60405160208183030381529060405280519060200120905060006103ed611a94565b90506000600b60009054906101000a900473ffffffffffffffffffffffffffffffffffffffff1673ffffffffffffffffffffffffffffffffffffffff166394eb170d856040518263ffffffff1660e01b815260040161044c9190612832565b61014060405180830381865afa15801561046a573d6000803e3d6000fd5b505050506040513d601f19601f8201168201806040525081019061048e919061288e565b909192939495969798509091929394959697509091929394959650909192939495509091929394509091929350909192509091509050809150506104d3838383611b2c565b50505050565b620186a08281600482815481106104f3576104f261296d565b5b906000526020600020906009020160050154101561051057600080fd5b836005600082815260200190815260200160002060009054906101000a900473ffffffffffffffffffffffffffffffffffffffff1673ffffffffffffffffffffffffffffffffffffffff163373ffffffffffffffffffffffffffffffffffffffff161461057c57600080fd5b601154341461058a57600080fd5b836004868154811061059f5761059e61296d565b5b9060005260206000209060090201600001819055505050505050565b6105c36109b3565b6105cc57600080fd5b60105434146105da57600080fd5b60006105e461098a565b90508073ffffffffffffffffffffffffffffffffffffffff166108fc479081150290604051600060405180830381858888f1935050505015801561062c573d6000803e3d6000fd5b5050565b6106386109b3565b61064157600080fd5b80600a60006101000a81548173ffffffffffffffffffffffffffffffffffffffff021916908373ffffffffffffffffffffffffffffffffffffffff16021790555050565b61068d6109b3565b61069657600080fd5b80600960006101000a81548173ffffffffffffffffffffffffffffffffffffffff021916908373ffffffffffffffffffffffffffffffffffffffff16021790555050565b6106e26109b3565b6106eb57600080fd5b600073ffffffffffffffffffffffffffffffffffffffff1660008054906101000a900473ffffffffffffffffffffffffffffffffffffffff1673ffffffffffffffffffffffffffffffffffffffff167f8be0079c531659141344cd1fd0a4f28419497f9722a3daafe3b4186f6b6457e060405160405180910390a360008060006101000a81548173ffffffffffffffffffffffffffffffffffffffff021916908373ffffffffffffffffffffffffffffffffffffffff160217905550565b600481815481106107b957600080fd5b90600052602060002090600902016000915090508060000154908060010180546107e2906129cb565b80601f016020809104026020016040519081016040528092919081815260200182805461080e906129cb565b801561085b5780601f106108305761010080835404028352916020019161085b565b820191906000526020600020905b81548152906001019060200180831161083e57829003601f168201915b505050505090806002018054610870906129cb565b80601f016020809104026020016040519081016040528092919081815260200182805461089c906129cb565b80156108e95780601f106108be576101008083540402835291602001916108e9565b820191906000526020600020905b8154815290600101906020018083116108cc57829003601f168201915b5050505050908060030154908060040160009054906101000a900463ffffffff16908060050154908060060154908060070154908060080160009054906101000a900461ffff16905089565b61093d6109b3565b61094657600080fd5b80600b60006101000a81548173ffffffffffffffffffffffffffffffffffffffff021916908373ffffffffffffffffffffffffffffffffffffffff16021790555050565b60008060009054906101000a900473ffffffffffffffffffffffffffffffffffffffff16905090565b60008060009054906101000a900473ffffffffffffffffffffffffffffffffffffffff1673ffffffffffffffffffffffffffffffffffffffff163373ffffffffffffffffffffffffffffffffffffffff1614905090565b6007543414610a1857600080fd5b6000604051602001610a2990612a49565b6040516020818303038152906040528051906020012090506000610a4b611a94565b90506000600960009054906101000a900473ffffffffffffffffffffffffffffffffffffffff1673ffffffffffffffffffffffffffffffffffffffff1663e98b7f4d856040518263ffffffff1660e01b8152600401610aaa9190612832565b61014060405180830381865afa158015610ac8573d6000803e3d6000fd5b505050506040513d601f19601f82011682018060405250810190610aec919061288e565b90919293949596979850909192939495969750909192939495965090919293949550909192939450909192935090919250909150905080915050610b31838383611b2c565b50505050565b60606000600660008473ffffffffffffffffffffffffffffffffffffffff1673ffffffffffffffffffffffffffffffffffffffff1681526020019081526020016000205467ffffffffffffffff811115610b9457610b93612652565b5b604051908082528060200260200182016040528015610bc25781602001602082028036833780820191505090505b5090506000805b600480549050811015610c7f578473ffffffffffffffffffffffffffffffffffffffff166005600083815260200190815260200160002060009054906101000a900473ffffffffffffffffffffffffffffffffffffffff1673ffffffffffffffffffffffffffffffffffffffff161415610c6c5780838381518110610c5157610c5061296d565b5b6020026020010181815250508180610c6890612a8d565b9250505b8080610c7790612a8d565b915050610bc9565b508192505050919050565b6064838160048281548110610ca257610ca161296d565b5b9060005260206000209060090201600501541015610cbf57600080fd5b846005600082815260200190815260200160002060009054906101000a900473ffffffffffffffffffffffffffffffffffffffff1673ffffffffffffffffffffffffffffffffffffffff163373ffffffffffffffffffffffffffffffffffffffff1614610d2b57600080fd5b600f543414610d3957600080fd5b848460048881548110610d4f57610d4e61296d565b5b90600052602060002090600902016001019190610d6d929190612045565b50505050505050565b60056020528060005260406000206000915054906101000a900473ffffffffffffffffffffffffffffffffffffffff1681565b6007543414610db757600080fd5b6000600660003373ffffffffffffffffffffffffffffffffffffffff1673ffffffffffffffffffffffffffffffffffffffff1681526020019081526020016000205414610e0357600080fd5b6000604051602001610e1490612b22565b6040516020818303038152906040528051906020012090506000610e6c6040518060400160405280600881526020017f74726176656c6572000000000000000000000000000000000000000000000000815250611df3565b9050606481610e7b9190612b66565b81610e869190612b97565b9050610e93828483611b2c565b505050565b816005600082815260200190815260200160002060009054906101000a900473ffffffffffffffffffffffffffffffffffffffff1673ffffffffffffffffffffffffffffffffffffffff163373ffffffffffffffffffffffffffffffffffffffff1614610f0457600080fd5b816005600082815260200190815260200160002060009054906101000a900473ffffffffffffffffffffffffffffffffffffffff1673ffffffffffffffffffffffffffffffffffffffff163373ffffffffffffffffffffffffffffffffffffffff1614610f7057600080fd5b600060048581548110610f8657610f8561296d565b5b90600052602060002090600902019050600060048581548110610fac57610fab61296d565b5b90600052602060002090600902019050610fc582611e38565b610fce57600080fd5b610fd781611e38565b610fe057600080fd5b600e543414610fee57600080fd5b60006002826000015484600001546110069190612bcb565b6110109190612c21565b9050600060405160200161102390612c9e565b604051602081830303815290604052805190602001208460030154148015611072575060405160200161105590612b22565b604051602081830303815290604052805190602001208360030154145b806110d7575060405160200161108790612b22565b6040516020818303038152906040528051906020012084600301541480156110d657506040516020016110b990612c9e565b604051602081830303815290604052805190602001208360030154145b5b15611104576040516020016110eb90612cff565b6040516020818303038152906040528051906020012090505b60405160200161111390612a49565b604051602081830303815290604052805190602001208460030154148015611162575060405160200161114590612b22565b604051602081830303815290604052805190602001208360030154145b806111c7575060405160200161117790612b22565b6040516020818303038152906040528051906020012084600301541480156111c657506040516020016111a990612a49565b604051602081830303815290604052805190602001208360030154145b5b156111f4576040516020016111db90612d60565b6040516020818303038152906040528051906020012090505b6040516020016112039061281d565b604051602081830303815290604052805190602001208460030154148015611252575060405160200161123590612b22565b604051602081830303815290604052805190602001208360030154145b806112b7575060405160200161126790612b22565b6040516020818303038152906040528051906020012084600301541480156112b657506040516020016112999061281d565b604051602081830303815290604052805190602001208360030154145b5b156112e4576040516020016112cb90612dc1565b6040516020818303038152906040528051906020012090505b6040516020016112f390612c9e565b604051602081830303815290604052805190602001208460030154148015611342575060405160200161132590612a49565b604051602081830303815290604052805190602001208360030154145b806113a7575060405160200161135790612a49565b6040516020818303038152906040528051906020012084600301541480156113a6575060405160200161138990612c9e565b604051602081830303815290604052805190602001208360030154145b5b156113d4576040516020016113bb90612e22565b6040516020818303038152906040528051906020012090505b6040516020016113e390612c9e565b60405160208183030381529060405280519060200120846003015414801561143257506040516020016114159061281d565b604051602081830303815290604052805190602001208360030154145b8061149757506040516020016114479061281d565b604051602081830303815290604052805190602001208460030154148015611496575060405160200161147990612c9e565b604051602081830303815290604052805190602001208360030154145b5b156114c4576040516020016114ab90612e83565b6040516020818303038152906040528051906020012090505b6040516020016114d390612a49565b60405160208183030381529060405280519060200120846003015414801561152257506040516020016115059061281d565b604051602081830303815290604052805190602001208360030154145b8061158757506040516020016115379061281d565b604051602081830303815290604052805190602001208460030154148015611586575060405160200161156990612a49565b604051602081830303815290604052805190602001208360030154145b5b156115b45760405160200161159b90612a49565b6040516020818303038152906040528051906020012090505b6040516020016115c390612b22565b60405160208183030381529060405280519060200120846003015414801561161257506040516020016115f590612b22565b604051602081830303815290604052805190602001208360030154145b1561163f5760405160200161162690612b22565b6040516020818303038152906040528051906020012090505b60405160200161164e90612a49565b60405160208183030381529060405280519060200120846003015414801561169d575060405160200161168090612a49565b604051602081830303815290604052805190602001208360030154145b156116ca576040516020016116b190612a49565b6040516020818303038152906040528051906020012090505b6040516020016116d99061281d565b604051602081830303815290604052805190602001208460030154148015611728575060405160200161170b9061281d565b604051602081830303815290604052805190602001208360030154145b156117555760405160200161173c9061281d565b6040516020818303038152906040528051906020012090505b60405160200161176490612c9e565b6040516020818303038152906040528051906020012084600301541480156117b3575060405160200161179690612c9e565b604051602081830303815290604052805190602001208360030154145b156117e4576040516020016117c790612c9e565b60405160208183030381529060405280519060200120905061180c565b6040516020016117f390612ee4565b6040516020818303038152906040528051906020012090505b60006118186064611e5f565b9050600c5481111580156118445750600d548560080160009054906101000a900461ffff1661ffff1611155b156118b65761185b82611855611a94565b85611b2c565b61186485611ebb565b61186d84611ebb565b61189760018660080160009054906101000a900461ffff1661ffff16611eee90919063ffffffff16565b8560080160006101000a81548161ffff021916908361ffff1602179055505b600c54811180156118df5750600d548560080160009054906101000a900461ffff1661ffff1611155b1561193f576118ed85611ebb565b6118f684611ebb565b61192060018660080160009054906101000a900461ffff1661ffff16611eee90919063ffffffff16565b8560080160006101000a81548161ffff021916908361ffff1602179055505b505050505050505050565b6119526109b3565b61195b57600080fd5b61196481611f22565b50565b600754341461197557600080fd5b600060405160200161198690612c9e565b60405160208183030381529060405280519060200120905060006119a8611a94565b90506000600a60009054906101000a900473ffffffffffffffffffffffffffffffffffffffff1673ffffffffffffffffffffffffffffffffffffffff16632a417612856040518263ffffffff1660e01b8152600401611a079190612832565b61014060405180830381865afa158015611a25573d6000803e3d6000fd5b505050506040513d601f19601f82011682018060405250810190611a49919061288e565b90919293949596979850909192939495969750909192939495965090919293949550909192939450909192935090919250909150905080915050611a8e838383611b2c565b50505050565b6060600060329050606081611aa96064611e5f565b11611aeb576040518060400160405280600481526020017f6d616c65000000000000000000000000000000000000000000000000000000008152509050611b24565b6040518060400160405280600681526020017f66656d616c65000000000000000000000000000000000000000000000000000081525090505b809250505090565b600060035442611b3c9190612bcb565b905060046040518061012001604052808481526020016040518060400160405280600681526020017f4e6f4e616d65000000000000000000000000000000000000000000000000000081525081526020018581526020018681526020018363ffffffff168152602001600081526020016000815260200160008152602001600061ffff168152509080600181540180825580915050600190039060005260206000209060090201600090919091909150600082015181600001556020820151816001019080519060200190611c129291906120cb565b506040820151816002019080519060200190611c2f9291906120cb565b506060820151816003015560808201518160040160006101000a81548163ffffffff021916908363ffffffff16021790555060a0820151816005015560c0820151816006015560e082015181600701556101008201518160080160006101000a81548161ffff021916908361ffff160217905550505060006001600480549050611cb99190612b97565b9050336005600083815260200190815260200160002060006101000a81548173ffffffffffffffffffffffffffffffffffffffff021916908373ffffffffffffffffffffffffffffffffffffffff160217905550611d606001600660003373ffffffffffffffffffffffffffffffffffffffff1673ffffffffffffffffffffffffffffffffffffffff1681526020019081526020016000205461201990919063ffffffff16565b600660003373ffffffffffffffffffffffffffffffffffffffff1673ffffffffffffffffffffffffffffffffffffffff168152602001908152602001600020819055507f678dbb6331d0cd0cd21ff45fcbb1bc795295619c327d618856814cc8530d54f78184868886600080600080604051611de499989796959493929190612f8a565b60405180910390a15050505050565b60008082604051602001611e079190613063565b6040516020818303038152906040528051906020012060001c905060025481611e309190612b66565b915050919050565b6000428260040160009054906101000a900463ffffffff1663ffffffff1611159050919050565b600060086000815480929190611e7490612a8d565b9190505550814233600854604051602001611e91939291906130e3565b6040516020818303038152906040528051906020012060001c611eb49190612b66565b9050919050565b60035442611ec99190612bcb565b8160040160006101000a81548163ffffffff021916908363ffffffff16021790555050565b6000808284611efd9190613120565b90508361ffff168161ffff161015611f1857611f17613158565b5b8091505092915050565b600073ffffffffffffffffffffffffffffffffffffffff168173ffffffffffffffffffffffffffffffffffffffff161415611f5c57600080fd5b8073ffffffffffffffffffffffffffffffffffffffff1660008054906101000a900473ffffffffffffffffffffffffffffffffffffffff1673ffffffffffffffffffffffffffffffffffffffff167f8be0079c531659141344cd1fd0a4f28419497f9722a3daafe3b4186f6b6457e060405160405180910390a3806000806101000a81548173ffffffffffffffffffffffffffffffffffffffff021916908373ffffffffffffffffffffffffffffffffffffffff16021790555050565b60008082846120289190612bcb565b90508381101561203b5761203a613158565b5b8091505092915050565b828054612051906129cb565b90600052602060002090601f01602090048101928261207357600085556120ba565b82601f1061208c57803560ff19168380011785556120ba565b828001600101855582156120ba579182015b828111156120b957823582559160200191906001019061209e565b5b5090506120c79190612151565b5090565b8280546120d7906129cb565b90600052602060002090601f0160209004810192826120f95760008555612140565b82601f1061211257805160ff1916838001178555612140565b82800160010185558215612140579182015b8281111561213f578251825591602001919060010190612124565b5b50905061214d9190612151565b5090565b5b8082111561216a576000816000905550600101612152565b5090565b6000604051905090565b600080fd5b600080fd5b6000819050919050565b61219581612182565b81146121a057600080fd5b50565b6000813590506121b28161218c565b92915050565b6000602082840312156121ce576121cd612178565b5b60006121dc848285016121a3565b91505092915050565b600080604083850312156121fc576121fb612178565b5b600061220a858286016121a3565b925050602061221b858286016121a3565b9150509250929050565b600073ffffffffffffffffffffffffffffffffffffffff82169050919050565b600061225082612225565b9050919050565b61226081612245565b811461226b57600080fd5b50565b60008135905061227d81612257565b92915050565b60006020828403121561229957612298612178565b5b60006122a78482850161226e565b91505092915050565b6122b981612182565b82525050565b600081519050919050565b600082825260208201905092915050565b60005b838110156122f95780820151818401526020810190506122de565b83811115612308576000848401525b50505050565b6000601f19601f8301169050919050565b600061232a826122bf565b61233481856122ca565b93506123448185602086016122db565b61234d8161230e565b840191505092915050565b6000819050919050565b61236b81612358565b82525050565b600063ffffffff82169050919050565b61238a81612371565b82525050565b600061ffff82169050919050565b6123a781612390565b82525050565b6000610120820190506123c3600083018c6122b0565b81810360208301526123d5818b61231f565b905081810360408301526123e9818a61231f565b90506123f86060830189612362565b6124056080830188612381565b61241260a08301876122b0565b61241f60c08301866122b0565b61242c60e08301856122b0565b61243a61010083018461239e565b9a9950505050505050505050565b61245181612245565b82525050565b600060208201905061246c6000830184612448565b92915050565b60008115159050919050565b61248781612472565b82525050565b60006020820190506124a2600083018461247e565b92915050565b600081519050919050565b600082825260208201905092915050565b6000819050602082019050919050565b6124dd81612182565b82525050565b60006124ef83836124d4565b60208301905092915050565b6000602082019050919050565b6000612513826124a8565b61251d81856124b3565b9350612528836124c4565b8060005b8381101561255957815161254088826124e3565b975061254b836124fb565b92505060018101905061252c565b5085935050505092915050565b600060208201905081810360008301526125808184612508565b905092915050565b600080fd5b600080fd5b600080fd5b60008083601f8401126125ad576125ac612588565b5b8235905067ffffffffffffffff8111156125ca576125c961258d565b5b6020830191508360018202830111156125e6576125e5612592565b5b9250929050565b60008060006040848603121561260657612605612178565b5b6000612614868287016121a3565b935050602084013567ffffffffffffffff8111156126355761263461217d565b5b61264186828701612597565b92509250509250925092565b600080fd5b7f4e487b7100000000000000000000000000000000000000000000000000000000600052604160045260246000fd5b61268a8261230e565b810181811067ffffffffffffffff821117156126a9576126a8612652565b5b80604052505050565b60006126bc61216e565b90506126c88282612681565b919050565b600067ffffffffffffffff8211156126e8576126e7612652565b5b6126f18261230e565b9050602081019050919050565b82818337600083830152505050565b600061272061271b846126cd565b6126b2565b90508281526020810184848401111561273c5761273b61264d565b5b6127478482856126fe565b509392505050565b600082601f83011261276457612763612588565b5b813561277484826020860161270d565b91505092915050565b60006020828403121561279357612792612178565b5b600082013567ffffffffffffffff8111156127b1576127b061217d565b5b6127bd8482850161274f565b91505092915050565b600081905092915050565b7f626f726564417065000000000000000000000000000000000000000000000000600082015250565b60006128076008836127c6565b9150612812826127d1565b600882019050919050565b6000612828826127fa565b9150819050919050565b600060208201905061284760008301846122b0565b92915050565b61285681612472565b811461286157600080fd5b50565b6000815190506128738161284d565b92915050565b6000815190506128888161218c565b92915050565b6000806000806000806000806000806101408b8d0312156128b2576128b1612178565b5b60006128c08d828e01612864565b9a505060206128d18d828e01612864565b99505060406128e28d828e01612879565b98505060606128f38d828e01612879565b97505060806129048d828e01612879565b96505060a06129158d828e01612879565b95505060c06129268d828e01612879565b94505060e06129378d828e01612879565b9350506101006129498d828e01612879565b92505061012061295b8d828e01612879565b9150509295989b9194979a5092959850565b7f4e487b7100000000000000000000000000000000000000000000000000000000600052603260045260246000fd5b7f4e487b7100000000000000000000000000000000000000000000000000000000600052602260045260246000fd5b600060028204905060018216806129e357607f821691505b602082108114156129f7576129f661299c565b5b50919050565b7f6b69747479000000000000000000000000000000000000000000000000000000600082015250565b6000612a336005836127c6565b9150612a3e826129fd565b600582019050919050565b6000612a5482612a26565b9150819050919050565b7f4e487b7100000000000000000000000000000000000000000000000000000000600052601160045260246000fd5b6000612a9882612182565b91507fffffffffffffffffffffffffffffffffffffffffffffffffffffffffffffffff821415612acb57612aca612a5e565b5b600182019050919050565b7f74726176656c6572000000000000000000000000000000000000000000000000600082015250565b6000612b0c6008836127c6565b9150612b1782612ad6565b600882019050919050565b6000612b2d82612aff565b9150819050919050565b7f4e487b7100000000000000000000000000000000000000000000000000000000600052601260045260246000fd5b6000612b7182612182565b9150612b7c83612182565b925082612b8c57612b8b612b37565b5b828206905092915050565b6000612ba282612182565b9150612bad83612182565b925082821015612bc057612bbf612a5e565b5b828203905092915050565b6000612bd682612182565b9150612be183612182565b9250827fffffffffffffffffffffffffffffffffffffffffffffffffffffffffffffffff03821115612c1657612c15612a5e565b5b828201905092915050565b6000612c2c82612182565b9150612c3783612182565b925082612c4757612c46612b37565b5b828204905092915050565b7f63797068657250756e6b00000000000000000000000000000000000000000000600082015250565b6000612c88600a836127c6565b9150612c9382612c52565b600a82019050919050565b6000612ca982612c7b565b9150819050919050565b7f63797068657254726176656c6572000000000000000000000000000000000000600082015250565b6000612ce9600e836127c6565b9150612cf482612cb3565b600e82019050919050565b6000612d0a82612cdc565b9150819050919050565b7f6b6974747954726176656c657200000000000000000000000000000000000000600082015250565b6000612d4a600d836127c6565b9150612d5582612d14565b600d82019050919050565b6000612d6b82612d3d565b9150819050919050565b7f626f72656454726176656c657200000000000000000000000000000000000000600082015250565b6000612dab600d836127c6565b9150612db682612d75565b600d82019050919050565b6000612dcc82612d9e565b9150819050919050565b7f6379706865724b69747479000000000000000000000000000000000000000000600082015250565b6000612e0c600b836127c6565b9150612e1782612dd6565b600b82019050919050565b6000612e2d82612dff565b9150819050919050565b7f6379706865724170650000000000000000000000000000000000000000000000600082015250565b6000612e6d6009836127c6565b9150612e7882612e37565b600982019050919050565b6000612e8e82612e60565b9150819050919050565b7f6e65775261636573000000000000000000000000000000000000000000000000600082015250565b6000612ece6008836127c6565b9150612ed982612e98565b600882019050919050565b6000612eef82612ec1565b9150819050919050565b7f4e6f4e616d650000000000000000000000000000000000000000000000000000600082015250565b6000612f2f6006836122ca565b9150612f3a82612ef9565b602082019050919050565b6000819050919050565b6000819050919050565b6000612f74612f6f612f6a84612f45565b612f4f565b612390565b9050919050565b612f8481612f59565b82525050565b600061014082019050612fa0600083018c6122b0565b612fad602083018b6122b0565b8181036040830152612fbe81612f22565b90508181036060830152612fd2818a61231f565b9050612fe16080830189612362565b612fee60a0830188612381565b612ffb60c0830187612f7b565b61300860e0830186612f7b565b613016610100830185612f7b565b613024610120830184612f7b565b9a9950505050505050505050565b600061303d826122bf565b61304781856127c6565b93506130578185602086016122db565b80840191505092915050565b600061306f8284613032565b915081905092915050565b6000819050919050565b61309561309082612182565b61307a565b82525050565b60008160601b9050919050565b60006130b38261309b565b9050919050565b60006130c5826130a8565b9050919050565b6130dd6130d882612245565b6130ba565b82525050565b60006130ef8286613084565b6020820191506130ff82856130cc565b60148201915061310f8284613084565b602082019150819050949350505050565b600061312b82612390565b915061313683612390565b92508261ffff0382111561314d5761314c612a5e565b5b828201905092915050565b7f4e487b7100000000000000000000000000000000000000000000000000000000600052600160045260246000fdfea264697066735822122065bc53aac059426bc4bb5f10c4b5ceed21f8c0bcb034d0774879ef948bc110c864736f6c634300080a0033",
  "immutableReferences": {},
  "source": "// SPDX-License-Identifier: MIT\r\npragma solidity >=0.4.22 <0.9.0;\r\n\r\nimport \"./avatarbreeding.sol\";\r\nimport \"./safemath.sol\";\r\n\r\ncontract AvatarHelper is AvatarBreeding {\r\n\r\n    using SafeMath for uint256;\r\n    using SafeMath32 for uint32;\r\n    using SafeMath16 for uint16;\r\n\r\n  modifier avatarTraveled(uint _miles, uint _avatarId) {\r\n    require(avatars[_avatarId].avatarMiles >= _miles);\r\n    _;\r\n  }\r\n\r\n  function withdrawAvatar() external payable onlyOwner {\r\n    require(msg.value == withdrawAvatarFee);\r\n    address _owner = owner();\r\n    payable(_owner).transfer(address(this).balance);\r\n  }\r\n\r\n  uint changeAvatarNameFee = 0.01 ether;\r\n  uint withdrawAvatarFee = 0.01 ether;\r\n  uint changeAvatarDnaFee = 10 ether;\r\n\r\n  function changeAvatarName(uint _avatarId, string calldata _newName) external payable avatarTraveled(100, _avatarId) onlyOwnerOfAvatar(_avatarId) {\r\n    require(msg.value == changeAvatarNameFee);\r\n    avatars[_avatarId].avatarName = _newName;\r\n  }\r\n\r\n  function changeAvatarDna(uint _avatarId, uint _newDna) external payable avatarTraveled(100000, _avatarId) onlyOwnerOfAvatar(_avatarId) {\r\n    require(msg.value == changeAvatarDnaFee);\r\n    avatars[_avatarId].avatarDna = _newDna;\r\n  }\r\n\r\n  function _traveledMiles(uint _avatarId, uint256 _ini_loc, uint256 _end_loc) internal onlyOwnerOfAvatar(_avatarId) {\r\n    avatars[_avatarId].avatarMiles = avatars[_avatarId].avatarMiles.add(_end_loc - _ini_loc);\r\n  }\r\n\r\n  function getAvatarsByOwner(address _owner) external view returns(uint[] memory) {\r\n    uint[] memory result = new uint[](ownerAvatarCount[_owner]);\r\n    uint counter = 0;\r\n    for (uint i = 0; i < avatars.length; i++) {\r\n      if (avatarToOwner[i] == _owner) {\r\n        result[counter] = i;\r\n        counter++;\r\n      }\r\n    }\r\n    return result;\r\n  }\r\n\r\n}\r\n",
  "sourcePath": "C:\\Users\\pablo\\PycharmProjects\\LiveAndTravel\\contracts\\avatarhelper.sol",
  "compiler": {
    "name": "solc",
    "version": "0.8.10+commit.fc410830.Emscripten.clang"
  },
  "schemaVersion": "3.4.4",
  "updatedAt": "2022-01-13T15:03:14.413Z",
  "devdoc": {
    "kind": "dev",
    "methods": {},
    "version": 1
  },
  "userdoc": {
    "kind": "user",
    "methods": {},
    "version": 1
  }
}