{
  "contractName": "AvatarHelper",
  "abi": [
    {
      "anonymous": false,
      "inputs": [
        {
          "indexed": false,
          "internalType": "uint256",
          "name": "avatarId",
          "type": "uint256"
        },
        {
          "indexed": false,
          "internalType": "uint256",
          "name": "avatarDna",
          "type": "uint256"
        },
        {
          "indexed": false,
          "internalType": "string",
          "name": "avatarName",
          "type": "string"
        },
        {
          "indexed": false,
          "internalType": "string",
          "name": "avatarSex",
          "type": "string"
        },
        {
          "indexed": false,
          "internalType": "bytes32",
          "name": "avatarRace",
          "type": "bytes32"
        },
        {
          "indexed": false,
          "internalType": "uint32",
          "name": "avatarReadyTime",
          "type": "uint32"
        },
        {
          "indexed": false,
          "internalType": "uint16",
          "name": "avatarMiles",
          "type": "uint16"
        },
        {
          "indexed": false,
          "internalType": "uint16",
          "name": "avatarHome",
          "type": "uint16"
        },
        {
          "indexed": false,
          "internalType": "uint16",
          "name": "avatarWorkPlace",
          "type": "uint16"
        },
        {
          "indexed": false,
          "internalType": "uint16",
          "name": "avatarBreedCount",
          "type": "uint16"
        }
      ],
      "name": "NewAvatar",
      "type": "event"
    },
    {
      "anonymous": false,
      "inputs": [
        {
          "indexed": true,
          "internalType": "address",
          "name": "previousOwner",
          "type": "address"
        },
        {
          "indexed": true,
          "internalType": "address",
          "name": "newOwner",
          "type": "address"
        }
      ],
      "name": "OwnershipTransferred",
      "type": "event"
    },
    {
      "constant": true,
      "inputs": [
        {
          "internalType": "uint256",
          "name": "",
          "type": "uint256"
        }
      ],
      "name": "avatarToOwner",
      "outputs": [
        {
          "internalType": "address",
          "name": "",
          "type": "address"
        }
      ],
      "payable": false,
      "stateMutability": "view",
      "type": "function"
    },
    {
      "constant": true,
      "inputs": [
        {
          "internalType": "uint256",
          "name": "",
          "type": "uint256"
        }
      ],
      "name": "avatars",
      "outputs": [
        {
          "internalType": "uint256",
          "name": "avatarDna",
          "type": "uint256"
        },
        {
          "internalType": "string",
          "name": "avatarName",
          "type": "string"
        },
        {
          "internalType": "string",
          "name": "avatarSex",
          "type": "string"
        },
        {
          "internalType": "bytes32",
          "name": "avatarRace",
          "type": "bytes32"
        },
        {
          "internalType": "uint32",
          "name": "avatarReadyTime",
          "type": "uint32"
        },
        {
          "internalType": "uint256",
          "name": "avatarMiles",
          "type": "uint256"
        },
        {
          "internalType": "uint256",
          "name": "avatarHome",
          "type": "uint256"
        },
        {
          "internalType": "uint256",
          "name": "avatarWorkPlace",
          "type": "uint256"
        },
        {
          "internalType": "uint16",
          "name": "breedCount",
          "type": "uint16"
        }
      ],
      "payable": false,
      "stateMutability": "view",
      "type": "function"
    },
    {
      "constant": false,
      "inputs": [
        {
          "internalType": "uint256",
          "name": "_avatarId",
          "type": "uint256"
        },
        {
          "internalType": "uint256",
          "name": "_targetAvatarId",
          "type": "uint256"
        }
      ],
      "name": "breed",
      "outputs": [],
      "payable": true,
      "stateMutability": "payable",
      "type": "function"
    },
    {
      "constant": false,
      "inputs": [
        {
          "internalType": "string",
          "name": "_sex",
          "type": "string"
        }
      ],
      "name": "createRandomAvatar",
      "outputs": [],
      "payable": true,
      "stateMutability": "payable",
      "type": "function"
    },
    {
      "constant": true,
      "inputs": [],
      "name": "isOwner",
      "outputs": [
        {
          "internalType": "bool",
          "name": "",
          "type": "bool"
        }
      ],
      "payable": false,
      "stateMutability": "view",
      "type": "function"
    },
    {
      "constant": false,
      "inputs": [
        {
          "internalType": "uint256",
          "name": "_boredApeId",
          "type": "uint256"
        }
      ],
      "name": "migrateBoredApe",
      "outputs": [],
      "payable": true,
      "stateMutability": "payable",
      "type": "function"
    },
    {
      "constant": false,
      "inputs": [
        {
          "internalType": "uint256",
          "name": "_cypherPunkId",
          "type": "uint256"
        }
      ],
      "name": "migrateCypherPunk",
      "outputs": [],
      "payable": true,
      "stateMutability": "payable",
      "type": "function"
    },
    {
      "constant": false,
      "inputs": [
        {
          "internalType": "uint256",
          "name": "_kittyId",
          "type": "uint256"
        }
      ],
      "name": "migrateKitty",
      "outputs": [],
      "payable": true,
      "stateMutability": "payable",
      "type": "function"
    },
    {
      "constant": true,
      "inputs": [],
      "name": "owner",
      "outputs": [
        {
          "internalType": "address",
          "name": "",
          "type": "address"
        }
      ],
      "payable": false,
      "stateMutability": "view",
      "type": "function"
    },
    {
      "constant": false,
      "inputs": [],
      "name": "renounceOwnership",
      "outputs": [],
      "payable": false,
      "stateMutability": "nonpayable",
      "type": "function"
    },
    {
      "constant": false,
      "inputs": [
        {
          "internalType": "address",
          "name": "_address",
          "type": "address"
        }
      ],
      "name": "setBoredApeContractAddress",
      "outputs": [],
      "payable": false,
      "stateMutability": "nonpayable",
      "type": "function"
    },
    {
      "constant": false,
      "inputs": [
        {
          "internalType": "address",
          "name": "_address",
          "type": "address"
        }
      ],
      "name": "setCypherPunkContractAddress",
      "outputs": [],
      "payable": false,
      "stateMutability": "nonpayable",
      "type": "function"
    },
    {
      "constant": false,
      "inputs": [
        {
          "internalType": "address",
          "name": "_address",
          "type": "address"
        }
      ],
      "name": "setKittyContractAddress",
      "outputs": [],
      "payable": false,
      "stateMutability": "nonpayable",
      "type": "function"
    },
    {
      "constant": false,
      "inputs": [
        {
          "internalType": "address",
          "name": "newOwner",
          "type": "address"
        }
      ],
      "name": "transferOwnership",
      "outputs": [],
      "payable": false,
      "stateMutability": "nonpayable",
      "type": "function"
    },
    {
      "constant": false,
      "inputs": [],
      "name": "withdrawAvatar",
      "outputs": [],
      "payable": true,
      "stateMutability": "payable",
      "type": "function"
    },
    {
      "constant": false,
      "inputs": [
        {
          "internalType": "uint256",
          "name": "_avatarId",
          "type": "uint256"
        },
        {
          "internalType": "string",
          "name": "_newName",
          "type": "string"
        }
      ],
      "name": "changeAvatarName",
      "outputs": [],
      "payable": true,
      "stateMutability": "payable",
      "type": "function"
    },
    {
      "constant": false,
      "inputs": [
        {
          "internalType": "uint256",
          "name": "_avatarId",
          "type": "uint256"
        },
        {
          "internalType": "uint256",
          "name": "_newDna",
          "type": "uint256"
        }
      ],
      "name": "changeAvatarDna",
      "outputs": [],
      "payable": true,
      "stateMutability": "payable",
      "type": "function"
    },
    {
      "constant": true,
      "inputs": [
        {
          "internalType": "address",
          "name": "_owner",
          "type": "address"
        }
      ],
      "name": "getAvatarsByOwner",
      "outputs": [
        {
          "internalType": "uint256[]",
          "name": "",
          "type": "uint256[]"
        }
      ],
      "payable": false,
      "stateMutability": "view",
      "type": "function"
    }
  ],
  "bytecode": "0x60806040526010600155600154600a0a6002556201518060035567016345785d8a00006007556000600855605a600c556007600d55670429d069189e0000600e55662386f26fc10000600f55662386f26fc10000601055678ac7230489e80000601155336000806101000a81548173ffffffffffffffffffffffffffffffffffffffff021916908373ffffffffffffffffffffffffffffffffffffffff1602179055506000809054906101000a900473ffffffffffffffffffffffffffffffffffffffff1673ffffffffffffffffffffffffffffffffffffffff16600073ffffffffffffffffffffffffffffffffffffffff167f8be0079c531659141344cd1fd0a4f28419497f9722a3daafe3b4186f6b6457e060405160405180910390a3612e168061012d6000396000f3fe6080604052600436106101095760003560e01c80638f32d59b11610095578063c8539c4b11610064578063c8539c4b146105ca578063d254160714610645578063d9ecad7b14610700578063f2fde38b14610738578063f5dcef041461078957610109565b80638f32d59b14610444578063968787121461047357806397abcb6c146104a1578063b2dc230d1461054757610109565b80635f4623f1116100dc5780635f4623f1146101cf578063715018a614610220578063834d5fac146102375780638b030aaa1461039c5780638da5cb5b146103ed57610109565b80630351cf511461010e57806306d5e6e81461013c5780632a4b7eb9146101745780635de842881461017e575b600080fd5b61013a6004803603602081101561012457600080fd5b81019080803590602001909291905050506107b7565b005b6101726004803603604081101561015257600080fd5b810190808035906020019092919080359060200190929190505050610973565b005b61017c610a47565b005b34801561018a57600080fd5b506101cd600480360360208110156101a157600080fd5b81019080803573ffffffffffffffffffffffffffffffffffffffff169060200190929190505050610abc565b005b3480156101db57600080fd5b5061021e600480360360208110156101f257600080fd5b81019080803573ffffffffffffffffffffffffffffffffffffffff169060200190929190505050610b11565b005b34801561022c57600080fd5b50610235610b66565b005b34801561024357600080fd5b506102706004803603602081101561025a57600080fd5b8101908080359060200190929190505050610c36565b604051808a815260200180602001806020018981526020018863ffffffff1663ffffffff1681526020018781526020018681526020018581526020018461ffff1661ffff16815260200183810383528b818151815260200191508051906020019080838360005b838110156102f25780820151818401526020810190506102d7565b50505050905090810190601f16801561031f5780820380516001836020036101000a031916815260200191505b5083810382528a818151815260200191508051906020019080838360005b8381101561035857808201518184015260208101905061033d565b50505050905090810190601f1680156103855780820380516001836020036101000a031916815260200191505b509b50505050505050505050505060405180910390f35b3480156103a857600080fd5b506103eb600480360360208110156103bf57600080fd5b81019080803573ffffffffffffffffffffffffffffffffffffffff169060200190929190505050610ddf565b005b3480156103f957600080fd5b50610402610e34565b604051808273ffffffffffffffffffffffffffffffffffffffff1673ffffffffffffffffffffffffffffffffffffffff16815260200191505060405180910390f35b34801561045057600080fd5b50610459610e5d565b604051808215151515815260200191505060405180910390f35b61049f6004803603602081101561048957600080fd5b8101908080359060200190929190505050610eb4565b005b3480156104ad57600080fd5b506104f0600480360360208110156104c457600080fd5b81019080803573ffffffffffffffffffffffffffffffffffffffff169060200190929190505050611070565b6040518080602001828103825283818151815260200191508051906020019060200280838360005b83811015610533578082015181840152602081019050610518565b505050509050019250505060405180910390f35b6105c86004803603604081101561055d57600080fd5b81019080803590602001909291908035906020019064010000000081111561058457600080fd5b82018360208201111561059657600080fd5b803590602001918460018302840111640100000000831117156105b857600080fd5b909192939192939050505061119d565b005b3480156105d657600080fd5b50610603600480360360208110156105ed57600080fd5b810190808035906020019092919050505061127b565b604051808273ffffffffffffffffffffffffffffffffffffffff1673ffffffffffffffffffffffffffffffffffffffff16815260200191505060405180910390f35b6106fe6004803603602081101561065b57600080fd5b810190808035906020019064010000000081111561067857600080fd5b82018360208201111561068a57600080fd5b803590602001918460018302840111640100000000831117156106ac57600080fd5b91908080601f016020809104026020016040519081016040528093929190818152602001838380828437600081840152601f19601f8201169050808301925050505050505091929192905050506112ae565b005b6107366004803603604081101561071657600080fd5b8101908080359060200190929190803590602001909291905050506113b4565b005b34801561074457600080fd5b506107876004803603602081101561075b57600080fd5b81019080803573ffffffffffffffffffffffffffffffffffffffff169060200190929190505050612403565b005b6107b56004803603602081101561079f57600080fd5b8101908080359060200190929190505050612420565b005b60075434146107c557600080fd5b600060405160200180807f626f7265644170650000000000000000000000000000000000000000000000008152506008019050604051602081830303815290604052805190602001209050606061081a6125dc565b90506000600b60009054906101000a900473ffffffffffffffffffffffffffffffffffffffff1673ffffffffffffffffffffffffffffffffffffffff166394eb170d856040518263ffffffff1660e01b8152600401808281526020019150506101406040518083038186803b15801561089257600080fd5b505afa1580156108a6573d6000803e3d6000fd5b505050506040513d6101408110156108bd57600080fd5b81019080805190602001909291908051906020019092919080519060200190929190805190602001909291908051906020019092919080519060200190929190805190602001909291908051906020019092919080519060200190929190805190602001909291905050509091929394959697985090919293949596975090919293949596509091929394955090919293945090919293509091925090915090508091505061096d838383612674565b50505050565b620186a082816004828154811061098657fe5b90600052602060002090600902016005015410156109a357600080fd5b836005600082815260200190815260200160002060009054906101000a900473ffffffffffffffffffffffffffffffffffffffff1673ffffffffffffffffffffffffffffffffffffffff163373ffffffffffffffffffffffffffffffffffffffff1614610a0f57600080fd5b6011543414610a1d57600080fd5b8360048681548110610a2b57fe5b9060005260206000209060090201600001819055505050505050565b610a4f610e5d565b610a5857600080fd5b6010543414610a6657600080fd5b6000610a70610e34565b90508073ffffffffffffffffffffffffffffffffffffffff166108fc479081150290604051600060405180830381858888f19350505050158015610ab8573d6000803e3d6000fd5b5050565b610ac4610e5d565b610acd57600080fd5b80600a60006101000a81548173ffffffffffffffffffffffffffffffffffffffff021916908373ffffffffffffffffffffffffffffffffffffffff16021790555050565b610b19610e5d565b610b2257600080fd5b80600960006101000a81548173ffffffffffffffffffffffffffffffffffffffff021916908373ffffffffffffffffffffffffffffffffffffffff16021790555050565b610b6e610e5d565b610b7757600080fd5b600073ffffffffffffffffffffffffffffffffffffffff166000809054906101000a900473ffffffffffffffffffffffffffffffffffffffff1673ffffffffffffffffffffffffffffffffffffffff167f8be0079c531659141344cd1fd0a4f28419497f9722a3daafe3b4186f6b6457e060405160405180910390a360008060006101000a81548173ffffffffffffffffffffffffffffffffffffffff021916908373ffffffffffffffffffffffffffffffffffffffff160217905550565b60048181548110610c4357fe5b9060005260206000209060090201600091509050806000015490806001018054600181600116156101000203166002900480601f016020809104026020016040519081016040528092919081815260200182805460018160011615610100020316600290048015610cf55780601f10610cca57610100808354040283529160200191610cf5565b820191906000526020600020905b815481529060010190602001808311610cd857829003601f168201915b505050505090806002018054600181600116156101000203166002900480601f016020809104026020016040519081016040528092919081815260200182805460018160011615610100020316600290048015610d935780601f10610d6857610100808354040283529160200191610d93565b820191906000526020600020905b815481529060010190602001808311610d7657829003601f168201915b5050505050908060030154908060040160009054906101000a900463ffffffff16908060050154908060060154908060070154908060080160009054906101000a900461ffff16905089565b610de7610e5d565b610df057600080fd5b80600b60006101000a81548173ffffffffffffffffffffffffffffffffffffffff021916908373ffffffffffffffffffffffffffffffffffffffff16021790555050565b60008060009054906101000a900473ffffffffffffffffffffffffffffffffffffffff16905090565b60008060009054906101000a900473ffffffffffffffffffffffffffffffffffffffff1673ffffffffffffffffffffffffffffffffffffffff163373ffffffffffffffffffffffffffffffffffffffff1614905090565b6007543414610ec257600080fd5b600060405160200180807f6b6974747900000000000000000000000000000000000000000000000000000081525060050190506040516020818303038152906040528051906020012090506060610f176125dc565b90506000600960009054906101000a900473ffffffffffffffffffffffffffffffffffffffff1673ffffffffffffffffffffffffffffffffffffffff1663e98b7f4d856040518263ffffffff1660e01b8152600401808281526020019150506101406040518083038186803b158015610f8f57600080fd5b505afa158015610fa3573d6000803e3d6000fd5b505050506040513d610140811015610fba57600080fd5b81019080805190602001909291908051906020019092919080519060200190929190805190602001909291908051906020019092919080519060200190929190805190602001909291908051906020019092919080519060200190929190805190602001909291905050509091929394959697985090919293949596975090919293949596509091929394955090919293945090919293509091925090915090508091505061106a838383612674565b50505050565b606080600660008473ffffffffffffffffffffffffffffffffffffffff1673ffffffffffffffffffffffffffffffffffffffff168152602001908152602001600020546040519080825280602002602001820160405280156110e15781602001602082028038833980820191505090505b509050600080905060008090505b600480549050811015611192578473ffffffffffffffffffffffffffffffffffffffff166005600083815260200190815260200160002060009054906101000a900473ffffffffffffffffffffffffffffffffffffffff1673ffffffffffffffffffffffffffffffffffffffff161415611185578083838151811061117057fe5b60200260200101818152505081806001019250505b80806001019150506110ef565b508192505050919050565b60648381600482815481106111ae57fe5b90600052602060002090600902016005015410156111cb57600080fd5b846005600082815260200190815260200160002060009054906101000a900473ffffffffffffffffffffffffffffffffffffffff1673ffffffffffffffffffffffffffffffffffffffff163373ffffffffffffffffffffffffffffffffffffffff161461123757600080fd5b600f54341461124557600080fd5b84846004888154811061125457fe5b90600052602060002090600902016001019190611272929190612cbc565b50505050505050565b60056020528060005260406000206000915054906101000a900473ffffffffffffffffffffffffffffffffffffffff1681565b60075434146112bc57600080fd5b6000600660003373ffffffffffffffffffffffffffffffffffffffff1673ffffffffffffffffffffffffffffffffffffffff168152602001908152602001600020541461130857600080fd5b600060405160200180807f74726176656c6572000000000000000000000000000000000000000000000000815250600801905060405160208183030381529060405280519060200120905060006113936040518060400160405280600881526020017f74726176656c6572000000000000000000000000000000000000000000000000815250612a16565b90506064818161139f57fe5b06810390506113af828483612674565b505050565b816005600082815260200190815260200160002060009054906101000a900473ffffffffffffffffffffffffffffffffffffffff1673ffffffffffffffffffffffffffffffffffffffff163373ffffffffffffffffffffffffffffffffffffffff161461142057600080fd5b816005600082815260200190815260200160002060009054906101000a900473ffffffffffffffffffffffffffffffffffffffff1673ffffffffffffffffffffffffffffffffffffffff163373ffffffffffffffffffffffffffffffffffffffff161461148c57600080fd5b60006004858154811061149b57fe5b906000526020600020906009020190506000600485815481106114ba57fe5b906000526020600020906009020190506114d382612aa4565b6114dc57600080fd5b6114e581612aa4565b6114ee57600080fd5b600e5434146114fc57600080fd5b6000600282600001548460000154018161151257fe5b049050600060405160200180807f63797068657250756e6b00000000000000000000000000000000000000000000815250600a0190506040516020818303038152906040528051906020012084600301541480156115b9575060405160200180807f74726176656c65720000000000000000000000000000000000000000000000008152506008019050604051602081830303815290604052805190602001208360030154145b80611662575060405160200180807f74726176656c65720000000000000000000000000000000000000000000000008152506008019050604051602081830303815290604052805190602001208460030154148015611661575060405160200180807f63797068657250756e6b00000000000000000000000000000000000000000000815250600a019050604051602081830303815290604052805190602001208360030154145b5b156116b15760405160200180807f63797068657254726176656c6572000000000000000000000000000000000000815250600e0190506040516020818303038152906040528051906020012090505b60405160200180807f6b697474790000000000000000000000000000000000000000000000000000008152506005019050604051602081830303815290604052805190602001208460030154148015611753575060405160200180807f74726176656c65720000000000000000000000000000000000000000000000008152506008019050604051602081830303815290604052805190602001208360030154145b806117fc575060405160200180807f74726176656c657200000000000000000000000000000000000000000000000081525060080190506040516020818303038152906040528051906020012084600301541480156117fb575060405160200180807f6b697474790000000000000000000000000000000000000000000000000000008152506005019050604051602081830303815290604052805190602001208360030154145b5b1561184b5760405160200180807f6b6974747954726176656c657200000000000000000000000000000000000000815250600d0190506040516020818303038152906040528051906020012090505b60405160200180807f626f72656441706500000000000000000000000000000000000000000000000081525060080190506040516020818303038152906040528051906020012084600301541480156118ed575060405160200180807f74726176656c65720000000000000000000000000000000000000000000000008152506008019050604051602081830303815290604052805190602001208360030154145b80611996575060405160200180807f74726176656c65720000000000000000000000000000000000000000000000008152506008019050604051602081830303815290604052805190602001208460030154148015611995575060405160200180807f626f7265644170650000000000000000000000000000000000000000000000008152506008019050604051602081830303815290604052805190602001208360030154145b5b156119e55760405160200180807f626f72656454726176656c657200000000000000000000000000000000000000815250600d0190506040516020818303038152906040528051906020012090505b60405160200180807f63797068657250756e6b00000000000000000000000000000000000000000000815250600a019050604051602081830303815290604052805190602001208460030154148015611a87575060405160200180807f6b697474790000000000000000000000000000000000000000000000000000008152506005019050604051602081830303815290604052805190602001208360030154145b80611b30575060405160200180807f6b697474790000000000000000000000000000000000000000000000000000008152506005019050604051602081830303815290604052805190602001208460030154148015611b2f575060405160200180807f63797068657250756e6b00000000000000000000000000000000000000000000815250600a019050604051602081830303815290604052805190602001208360030154145b5b15611b7f5760405160200180807f6379706865724b69747479000000000000000000000000000000000000000000815250600b0190506040516020818303038152906040528051906020012090505b60405160200180807f63797068657250756e6b00000000000000000000000000000000000000000000815250600a019050604051602081830303815290604052805190602001208460030154148015611c21575060405160200180807f626f7265644170650000000000000000000000000000000000000000000000008152506008019050604051602081830303815290604052805190602001208360030154145b80611cca575060405160200180807f626f7265644170650000000000000000000000000000000000000000000000008152506008019050604051602081830303815290604052805190602001208460030154148015611cc9575060405160200180807f63797068657250756e6b00000000000000000000000000000000000000000000815250600a019050604051602081830303815290604052805190602001208360030154145b5b15611d195760405160200180807f637970686572417065000000000000000000000000000000000000000000000081525060090190506040516020818303038152906040528051906020012090505b60405160200180807f6b697474790000000000000000000000000000000000000000000000000000008152506005019050604051602081830303815290604052805190602001208460030154148015611dbb575060405160200180807f626f7265644170650000000000000000000000000000000000000000000000008152506008019050604051602081830303815290604052805190602001208360030154145b80611e64575060405160200180807f626f7265644170650000000000000000000000000000000000000000000000008152506008019050604051602081830303815290604052805190602001208460030154148015611e63575060405160200180807f6b697474790000000000000000000000000000000000000000000000000000008152506005019050604051602081830303815290604052805190602001208360030154145b5b15611eb35760405160200180807f6b6974747900000000000000000000000000000000000000000000000000000081525060050190506040516020818303038152906040528051906020012090505b60405160200180807f74726176656c65720000000000000000000000000000000000000000000000008152506008019050604051602081830303815290604052805190602001208460030154148015611f55575060405160200180807f74726176656c65720000000000000000000000000000000000000000000000008152506008019050604051602081830303815290604052805190602001208360030154145b15611fa45760405160200180807f74726176656c657200000000000000000000000000000000000000000000000081525060080190506040516020818303038152906040528051906020012090505b60405160200180807f6b697474790000000000000000000000000000000000000000000000000000008152506005019050604051602081830303815290604052805190602001208460030154148015612046575060405160200180807f6b697474790000000000000000000000000000000000000000000000000000008152506005019050604051602081830303815290604052805190602001208360030154145b156120955760405160200180807f6b6974747900000000000000000000000000000000000000000000000000000081525060050190506040516020818303038152906040528051906020012090505b60405160200180807f626f7265644170650000000000000000000000000000000000000000000000008152506008019050604051602081830303815290604052805190602001208460030154148015612137575060405160200180807f626f7265644170650000000000000000000000000000000000000000000000008152506008019050604051602081830303815290604052805190602001208360030154145b156121865760405160200180807f626f72656441706500000000000000000000000000000000000000000000000081525060080190506040516020818303038152906040528051906020012090505b60405160200180807f63797068657250756e6b00000000000000000000000000000000000000000000815250600a019050604051602081830303815290604052805190602001208460030154148015612228575060405160200180807f63797068657250756e6b00000000000000000000000000000000000000000000815250600a019050604051602081830303815290604052805190602001208360030154145b1561227b5760405160200180807f63797068657250756e6b00000000000000000000000000000000000000000000815250600a0190506040516020818303038152906040528051906020012090506122c5565b60405160200180807f6e6577526163657300000000000000000000000000000000000000000000000081525060080190506040516020818303038152906040528051906020012090505b60006122d16064612acb565b9050600c5481111580156122fd5750600d548560080160009054906101000a900461ffff1661ffff1611155b1561236f576123148261230e6125dc565b85612674565b61231d85612b5a565b61232684612b5a565b61235060018660080160009054906101000a900461ffff1661ffff16612b8490919063ffffffff16565b8560080160006101000a81548161ffff021916908361ffff1602179055505b600c54811180156123985750600d548560080160009054906101000a900461ffff1661ffff1611155b156123f8576123a685612b5a565b6123af84612b5a565b6123d960018660080160009054906101000a900461ffff1661ffff16612b8490919063ffffffff16565b8560080160006101000a81548161ffff021916908361ffff1602179055505b505050505050505050565b61240b610e5d565b61241457600080fd5b61241d81612ba8565b50565b600754341461242e57600080fd5b600060405160200180807f63797068657250756e6b00000000000000000000000000000000000000000000815250600a01905060405160208183030381529060405280519060200120905060606124836125dc565b90506000600a60009054906101000a900473ffffffffffffffffffffffffffffffffffffffff1673ffffffffffffffffffffffffffffffffffffffff16632a417612856040518263ffffffff1660e01b8152600401808281526020019150506101406040518083038186803b1580156124fb57600080fd5b505afa15801561250f573d6000803e3d6000fd5b505050506040513d61014081101561252657600080fd5b8101908080519060200190929190805190602001909291908051906020019092919080519060200190929190805190602001909291908051906020019092919080519060200190929190805190602001909291908051906020019092919080519060200190929190505050909192939495969798509091929394959697509091929394959650909192939495509091929394509091929350909192509091509050809150506125d6838383612674565b50505050565b60606000603290506060816125f16064612acb565b11612633576040518060400160405280600481526020017f6d616c6500000000000000000000000000000000000000000000000000000000815250905061266c565b6040518060400160405280600681526020017f66656d616c65000000000000000000000000000000000000000000000000000081525090505b809250505090565b60006003544201905060046040518061012001604052808481526020016040518060400160405280600681526020017f4e6f4e616d65000000000000000000000000000000000000000000000000000081525081526020018581526020018681526020018363ffffffff168152602001600081526020016000815260200160008152602001600061ffff1681525090806001815401808255809150509060018203906000526020600020906009020160009091929091909150600082015181600001556020820151816001019080519060200190612753929190612d3c565b506040820151816002019080519060200190612770929190612d3c565b506060820151816003015560808201518160040160006101000a81548163ffffffff021916908363ffffffff16021790555060a0820151816005015560c0820151816006015560e082015181600701556101008201518160080160006101000a81548161ffff021916908361ffff16021790555050505060006001600480549050039050336005600083815260200190815260200160002060006101000a81548173ffffffffffffffffffffffffffffffffffffffff021916908373ffffffffffffffffffffffffffffffffffffffff1602179055506128996001600660003373ffffffffffffffffffffffffffffffffffffffff1673ffffffffffffffffffffffffffffffffffffffff16815260200190815260200160002054612ca090919063ffffffff16565b600660003373ffffffffffffffffffffffffffffffffffffffff1673ffffffffffffffffffffffffffffffffffffffff168152602001908152602001600020819055507f678dbb6331d0cd0cd21ff45fcbb1bc795295619c327d618856814cc8530d54f78184868886600080600080604051808a815260200189815260200180602001806020018981526020018863ffffffff1663ffffffff1681526020018761ffff1681526020018661ffff1681526020018561ffff1681526020018461ffff168152602001838103835260068152602001807f4e6f4e616d65000000000000000000000000000000000000000000000000000081525060200183810382528a818151815260200191508051906020019080838360005b838110156129cc5780820151818401526020810190506129b1565b50505050905090810190601f1680156129f95780820380516001836020036101000a031916815260200191505b509b50505050505050505050505060405180910390a15050505050565b600080826040516020018082805190602001908083835b60208310612a505780518252602082019150602081019050602083039250612a2d565b6001836020036101000a0380198251168184511680821785525050505050509050019150506040516020818303038152906040528051906020012060001c90506002548181612a9b57fe5b06915050919050565b6000428260040160009054906101000a900463ffffffff1663ffffffff1611159050919050565b6000600860008154809291906001019190505550814233600854604051602001808481526020018373ffffffffffffffffffffffffffffffffffffffff1673ffffffffffffffffffffffffffffffffffffffff1660601b815260140182815260200193505050506040516020818303038152906040528051906020012060001c81612b5257fe5b069050919050565b60035442018160040160006101000a81548163ffffffff021916908363ffffffff16021790555050565b60008082840190508361ffff168161ffff161015612b9e57fe5b8091505092915050565b600073ffffffffffffffffffffffffffffffffffffffff168173ffffffffffffffffffffffffffffffffffffffff161415612be257600080fd5b8073ffffffffffffffffffffffffffffffffffffffff166000809054906101000a900473ffffffffffffffffffffffffffffffffffffffff1673ffffffffffffffffffffffffffffffffffffffff167f8be0079c531659141344cd1fd0a4f28419497f9722a3daafe3b4186f6b6457e060405160405180910390a3806000806101000a81548173ffffffffffffffffffffffffffffffffffffffff021916908373ffffffffffffffffffffffffffffffffffffffff16021790555050565b600080828401905083811015612cb257fe5b8091505092915050565b828054600181600116156101000203166002900490600052602060002090601f016020900481019282601f10612cfd57803560ff1916838001178555612d2b565b82800160010185558215612d2b579182015b82811115612d2a578235825591602001919060010190612d0f565b5b509050612d389190612dbc565b5090565b828054600181600116156101000203166002900490600052602060002090601f016020900481019282601f10612d7d57805160ff1916838001178555612dab565b82800160010185558215612dab579182015b82811115612daa578251825591602001919060010190612d8f565b5b509050612db89190612dbc565b5090565b612dde91905b80821115612dda576000816000905550600101612dc2565b5090565b9056fea265627a7a7231582076e43040d5ed8aa9abf42c04e3fceaae62e9bc06c914897c0b846814ffc821d764736f6c63430005100032",
  "source": "// SPDX-License-Identifier: MIT\r\npragma solidity >=0.4.22 <0.9.0;\r\n\r\nimport \"./avatarbreeding.sol\";\r\nimport \"./safemath.sol\";\r\n\r\ncontract AvatarHelper is AvatarBreeding {\r\n\r\n    using SafeMath for uint256;\r\n    using SafeMath32 for uint32;\r\n    using SafeMath16 for uint16;\r\n\r\n  modifier avatarTraveled(uint _miles, uint _avatarId) {\r\n    require(avatars[_avatarId].avatarMiles >= _miles);\r\n    _;\r\n  }\r\n\r\n  function withdrawAvatar() external payable onlyOwner {\r\n    require(msg.value == withdrawAvatarFee);\r\n    address payable _owner = address(uint160(owner()));\r\n    _owner.transfer(address(this).balance);\r\n  }\r\n\r\n  uint changeAvatarNameFee = 0.01 ether;\r\n  uint withdrawAvatarFee = 0.01 ether;\r\n  uint changeAvatarDnaFee = 10 ether;\r\n\r\n  function changeAvatarName(uint _avatarId, string calldata _newName) external payable avatarTraveled(100, _avatarId) onlyOwnerOfAvatar(_avatarId) {\r\n    require(msg.value == changeAvatarNameFee);\r\n    avatars[_avatarId].avatarName = _newName;\r\n  }\r\n\r\n  function changeAvatarDna(uint _avatarId, uint _newDna) external payable avatarTraveled(100000, _avatarId) onlyOwnerOfAvatar(_avatarId) {\r\n    require(msg.value == changeAvatarDnaFee);\r\n    avatars[_avatarId].avatarDna = _newDna;\r\n  }\r\n\r\n  function _traveledMiles(uint _avatarId, uint256 _ini_loc, uint256 _end_loc) internal onlyOwnerOfAvatar(_avatarId) {\r\n    avatars[_avatarId].avatarMiles = avatars[_avatarId].avatarMiles.add(_end_loc - _ini_loc);\r\n  }\r\n\r\n  function getAvatarsByOwner(address _owner) external view returns(uint[] memory) {\r\n    uint[] memory result = new uint[](ownerAvatarCount[_owner]);\r\n    uint counter = 0;\r\n    for (uint i = 0; i < avatars.length; i++) {\r\n      if (avatarToOwner[i] == _owner) {\r\n        result[counter] = i;\r\n        counter++;\r\n      }\r\n    }\r\n    return result;\r\n  }\r\n\r\n}\r\n",
  "sourcePath": "C:\\Users\\pablo\\PycharmProjects\\LiveAndTravel\\contracts\\avatarhelper.sol",
  "compiler": {
    "name": "solc",
    "version": "0.5.16+commit.9c3226ce.Emscripten.clang"
  },
  "schemaVersion": "3.4.4",
  "updatedAt": "2022-01-17T17:37:50.210Z",
  "devdoc": {
    "methods": {}
  },
  "userdoc": {
    "methods": {}
  }
}