{
  "contractName": "AvatarHelper",
  "abi": [
    {
      "anonymous": false,
      "inputs": [
        {
          "indexed": false,
          "internalType": "uint256",
          "name": "avatarId",
          "type": "uint256"
        },
        {
          "indexed": false,
          "internalType": "uint256",
          "name": "avatarDna",
          "type": "uint256"
        },
        {
          "indexed": false,
          "internalType": "string",
          "name": "avatarName",
          "type": "string"
        },
        {
          "indexed": false,
          "internalType": "string",
          "name": "avatarSex",
          "type": "string"
        },
        {
          "indexed": false,
          "internalType": "bytes32",
          "name": "avatarRace",
          "type": "bytes32"
        },
        {
          "indexed": false,
          "internalType": "uint32",
          "name": "avatarReadyTime",
          "type": "uint32"
        },
        {
          "indexed": false,
          "internalType": "uint16",
          "name": "avatarLevel",
          "type": "uint16"
        },
        {
          "indexed": false,
          "internalType": "uint16",
          "name": "avatarLuck",
          "type": "uint16"
        },
        {
          "indexed": false,
          "internalType": "uint16",
          "name": "avatarInt",
          "type": "uint16"
        },
        {
          "indexed": false,
          "internalType": "uint16",
          "name": "avatarAgi",
          "type": "uint16"
        },
        {
          "indexed": false,
          "internalType": "uint16",
          "name": "avatarStr",
          "type": "uint16"
        },
        {
          "indexed": false,
          "internalType": "uint16",
          "name": "avatarSta",
          "type": "uint16"
        },
        {
          "indexed": false,
          "internalType": "uint16",
          "name": "avatarBreedCount",
          "type": "uint16"
        }
      ],
      "name": "NewAvatar",
      "type": "event"
    },
    {
      "anonymous": false,
      "inputs": [
        {
          "indexed": true,
          "internalType": "address",
          "name": "previousOwner",
          "type": "address"
        },
        {
          "indexed": true,
          "internalType": "address",
          "name": "newOwner",
          "type": "address"
        }
      ],
      "name": "OwnershipTransferred",
      "type": "event"
    },
    {
      "inputs": [
        {
          "internalType": "uint256",
          "name": "",
          "type": "uint256"
        }
      ],
      "name": "avatarToOwner",
      "outputs": [
        {
          "internalType": "address",
          "name": "",
          "type": "address"
        }
      ],
      "stateMutability": "view",
      "type": "function"
    },
    {
      "inputs": [
        {
          "internalType": "uint256",
          "name": "",
          "type": "uint256"
        }
      ],
      "name": "avatars",
      "outputs": [
        {
          "internalType": "uint256",
          "name": "avatarDna",
          "type": "uint256"
        },
        {
          "internalType": "string",
          "name": "avatarName",
          "type": "string"
        },
        {
          "internalType": "string",
          "name": "avatarSex",
          "type": "string"
        },
        {
          "internalType": "bytes32",
          "name": "avatarRace",
          "type": "bytes32"
        },
        {
          "internalType": "uint32",
          "name": "avatarReadyTime",
          "type": "uint32"
        },
        {
          "internalType": "uint16",
          "name": "avatarLevel",
          "type": "uint16"
        },
        {
          "internalType": "uint16",
          "name": "avatarLuck",
          "type": "uint16"
        },
        {
          "internalType": "uint16",
          "name": "avatarIntellect",
          "type": "uint16"
        },
        {
          "internalType": "uint16",
          "name": "avatarAgility",
          "type": "uint16"
        },
        {
          "internalType": "uint16",
          "name": "avatarStrength",
          "type": "uint16"
        },
        {
          "internalType": "uint16",
          "name": "avatarStamina",
          "type": "uint16"
        },
        {
          "internalType": "uint16",
          "name": "breedCount",
          "type": "uint16"
        }
      ],
      "stateMutability": "view",
      "type": "function"
    },
    {
      "inputs": [
        {
          "internalType": "uint256",
          "name": "_avatarId",
          "type": "uint256"
        },
        {
          "internalType": "uint256",
          "name": "_targetAvatarId",
          "type": "uint256"
        }
      ],
      "name": "breed",
      "outputs": [],
      "stateMutability": "payable",
      "type": "function"
    },
    {
      "inputs": [
        {
          "internalType": "string",
          "name": "_name",
          "type": "string"
        },
        {
          "internalType": "string",
          "name": "_sex",
          "type": "string"
        }
      ],
      "name": "createRandomAvatar",
      "outputs": [],
      "stateMutability": "payable",
      "type": "function"
    },
    {
      "inputs": [],
      "name": "isOwner",
      "outputs": [
        {
          "internalType": "bool",
          "name": "",
          "type": "bool"
        }
      ],
      "stateMutability": "view",
      "type": "function"
    },
    {
      "inputs": [
        {
          "internalType": "uint256",
          "name": "_boredApeId",
          "type": "uint256"
        }
      ],
      "name": "migrateBoredApe",
      "outputs": [],
      "stateMutability": "payable",
      "type": "function"
    },
    {
      "inputs": [
        {
          "internalType": "uint256",
          "name": "_cypherPunkId",
          "type": "uint256"
        }
      ],
      "name": "migrateCypherPunk",
      "outputs": [],
      "stateMutability": "payable",
      "type": "function"
    },
    {
      "inputs": [
        {
          "internalType": "uint256",
          "name": "_kittyId",
          "type": "uint256"
        }
      ],
      "name": "migrateKitty",
      "outputs": [],
      "stateMutability": "payable",
      "type": "function"
    },
    {
      "inputs": [],
      "name": "owner",
      "outputs": [
        {
          "internalType": "address",
          "name": "",
          "type": "address"
        }
      ],
      "stateMutability": "view",
      "type": "function"
    },
    {
      "inputs": [],
      "name": "renounceOwnership",
      "outputs": [],
      "stateMutability": "nonpayable",
      "type": "function"
    },
    {
      "inputs": [
        {
          "internalType": "address",
          "name": "_address",
          "type": "address"
        }
      ],
      "name": "setBoredApeContractAddress",
      "outputs": [],
      "stateMutability": "nonpayable",
      "type": "function"
    },
    {
      "inputs": [
        {
          "internalType": "address",
          "name": "_address",
          "type": "address"
        }
      ],
      "name": "setCypherPunkContractAddress",
      "outputs": [],
      "stateMutability": "nonpayable",
      "type": "function"
    },
    {
      "inputs": [
        {
          "internalType": "address",
          "name": "_address",
          "type": "address"
        }
      ],
      "name": "setKittyContractAddress",
      "outputs": [],
      "stateMutability": "nonpayable",
      "type": "function"
    },
    {
      "inputs": [
        {
          "internalType": "address",
          "name": "newOwner",
          "type": "address"
        }
      ],
      "name": "transferOwnership",
      "outputs": [],
      "stateMutability": "nonpayable",
      "type": "function"
    },
    {
      "inputs": [],
      "name": "withdrawAvatar",
      "outputs": [],
      "stateMutability": "payable",
      "type": "function"
    },
    {
      "inputs": [
        {
          "internalType": "uint256",
          "name": "_avatarId",
          "type": "uint256"
        },
        {
          "internalType": "string",
          "name": "_newName",
          "type": "string"
        }
      ],
      "name": "changeAvatarName",
      "outputs": [],
      "stateMutability": "payable",
      "type": "function"
    },
    {
      "inputs": [
        {
          "internalType": "uint256",
          "name": "_avatarId",
          "type": "uint256"
        },
        {
          "internalType": "uint256",
          "name": "_newDna",
          "type": "uint256"
        }
      ],
      "name": "changeAvatarDna",
      "outputs": [],
      "stateMutability": "payable",
      "type": "function"
    },
    {
      "inputs": [
        {
          "internalType": "address",
          "name": "_owner",
          "type": "address"
        }
      ],
      "name": "getAvatarsByOwner",
      "outputs": [
        {
          "internalType": "uint256[]",
          "name": "",
          "type": "uint256[]"
        }
      ],
      "stateMutability": "view",
      "type": "function"
    }
  ],
  "bytecode": "0x60806040526010600155600154600a6200001a9190620002ca565b60025562015180600355670de0b6b3a76400006007556000600855605a600c556007600d55670de0b6b3a7640000600e5567016345785d8a0000600f55678ac7230489e80000601055662386f26fc100006011553480156200007b57600080fd5b50336000806101000a81548173ffffffffffffffffffffffffffffffffffffffff021916908373ffffffffffffffffffffffffffffffffffffffff16021790555060008054906101000a900473ffffffffffffffffffffffffffffffffffffffff1673ffffffffffffffffffffffffffffffffffffffff16600073ffffffffffffffffffffffffffffffffffffffff167f8be0079c531659141344cd1fd0a4f28419497f9722a3daafe3b4186f6b6457e060405160405180910390a36200031b565b7f4e487b7100000000000000000000000000000000000000000000000000000000600052601160045260246000fd5b60008160011c9050919050565b6000808291508390505b6001851115620001cb57808604811115620001a357620001a26200013d565b5b6001851615620001b35780820291505b8081029050620001c3856200016c565b945062000183565b94509492505050565b600082620001e65760019050620002b9565b81620001f65760009050620002b9565b81600181146200020f57600281146200021a5762000250565b6001915050620002b9565b60ff8411156200022f576200022e6200013d565b5b8360020a9150848211156200024957620002486200013d565b5b50620002b9565b5060208310610133831016604e8410600b84101617156200028a5782820a9050838111156200028457620002836200013d565b5b620002b9565b62000299848484600162000179565b92509050818404811115620002b357620002b26200013d565b5b81810290505b9392505050565b6000819050919050565b6000620002d782620002c0565b9150620002e483620002c0565b9250620003137fffffffffffffffffffffffffffffffffffffffffffffffffffffffffffffffff8484620001d4565b905092915050565b6133c4806200032b6000396000f3fe6080604052600436106101095760003560e01c80638da5cb5b11610095578063b2dc230d11610064578063b2dc230d146102f5578063c8539c4b14610311578063d9ecad7b1461034e578063f2fde38b1461036a578063f5dcef041461039357610109565b80638da5cb5b146102465780638f32d59b14610271578063968787121461029c57806397abcb6c146102b857610109565b80635de84288116100dc5780635de842881461016c5780635f4623f114610195578063715018a6146101be578063834d5fac146101d55780638b030aaa1461021d57610109565b80630351cf511461010e57806306d5e6e81461012a57806324ef8f70146101465780632a4b7eb914610162575b600080fd5b610128600480360381019061012391906122fb565b6103af565b005b610144600480360381019061013f9190612328565b6104dc565b005b610160600480360381019061015b91906124ae565b6105ce565b005b61016a610689565b005b34801561017857600080fd5b50610193600480360381019061018e9190612584565b6106fe565b005b3480156101a157600080fd5b506101bc60048036038101906101b79190612584565b610753565b005b3480156101ca57600080fd5b506101d36107a8565b005b3480156101e157600080fd5b506101fc60048036038101906101f791906122fb565b610877565b6040516102149c9b9a9998979695949392919061269d565b60405180910390f35b34801561022957600080fd5b50610244600480360381019061023f9190612584565b610a69565b005b34801561025257600080fd5b5061025b610abe565b6040516102689190612774565b60405180910390f35b34801561027d57600080fd5b50610286610ae7565b60405161029391906127aa565b60405180910390f35b6102b660048036038101906102b191906122fb565b610b3e565b005b3480156102c457600080fd5b506102df60048036038101906102da9190612584565b610c6b565b6040516102ec9190612883565b60405180910390f35b61030f600480360381019061030a9190612905565b610dbe565b005b34801561031d57600080fd5b50610338600480360381019061033391906122fb565b610ebc565b6040516103459190612774565b60405180910390f35b61036860048036038101906103639190612328565b610eef565b005b34801561037657600080fd5b50610391600480360381019061038c9190612584565b6119a1565b005b6103ad60048036038101906103a891906122fb565b6119be565b005b60075434146103bd57600080fd5b60006040516020016103ce906129bc565b60405160208183030381529060405280519060200120905060006103f0611aeb565b90506000600b60009054906101000a900473ffffffffffffffffffffffffffffffffffffffff1673ffffffffffffffffffffffffffffffffffffffff166394eb170d856040518263ffffffff1660e01b815260040161044f91906129d1565b61014060405180830381865afa15801561046d573d6000803e3d6000fd5b505050506040513d601f19601f820116820180604052508101906104919190612a2d565b909192939495969798509091929394959697509091929394959650909192939495509091929394509091929350909192509091509050809150506104d6838383611b83565b50505050565b600a8281600482815481106104f4576104f3612b0c565b5b906000526020600020906005020160040160049054906101000a900461ffff1661ffff16101561052357600080fd5b836005600082815260200190815260200160002060009054906101000a900473ffffffffffffffffffffffffffffffffffffffff1673ffffffffffffffffffffffffffffffffffffffff163373ffffffffffffffffffffffffffffffffffffffff161461058f57600080fd5b601054341461059d57600080fd5b83600486815481106105b2576105b1612b0c565b5b9060005260206000209060050201600001819055505050505050565b60075434146105dc57600080fd5b6000600660003373ffffffffffffffffffffffffffffffffffffffff1673ffffffffffffffffffffffffffffffffffffffff168152602001908152602001600020541461062857600080fd5b600060405160200161063990612b87565b604051602081830303815290604052805190602001209050600061065c84611f36565b905060648161066b9190612bcb565b816106769190612c2b565b9050610683828483611b83565b50505050565b610691610ae7565b61069a57600080fd5b60115434146106a857600080fd5b60006106b2610abe565b90508073ffffffffffffffffffffffffffffffffffffffff166108fc479081150290604051600060405180830381858888f193505050501580156106fa573d6000803e3d6000fd5b5050565b610706610ae7565b61070f57600080fd5b80600a60006101000a81548173ffffffffffffffffffffffffffffffffffffffff021916908373ffffffffffffffffffffffffffffffffffffffff16021790555050565b61075b610ae7565b61076457600080fd5b80600960006101000a81548173ffffffffffffffffffffffffffffffffffffffff021916908373ffffffffffffffffffffffffffffffffffffffff16021790555050565b6107b0610ae7565b6107b957600080fd5b600073ffffffffffffffffffffffffffffffffffffffff1660008054906101000a900473ffffffffffffffffffffffffffffffffffffffff1673ffffffffffffffffffffffffffffffffffffffff167f8be0079c531659141344cd1fd0a4f28419497f9722a3daafe3b4186f6b6457e060405160405180910390a360008060006101000a81548173ffffffffffffffffffffffffffffffffffffffff021916908373ffffffffffffffffffffffffffffffffffffffff160217905550565b6004818154811061088757600080fd5b90600052602060002090600502016000915090508060000154908060010180546108b090612c8e565b80601f01602080910402602001604051908101604052809291908181526020018280546108dc90612c8e565b80156109295780601f106108fe57610100808354040283529160200191610929565b820191906000526020600020905b81548152906001019060200180831161090c57829003601f168201915b50505050509080600201805461093e90612c8e565b80601f016020809104026020016040519081016040528092919081815260200182805461096a90612c8e565b80156109b75780601f1061098c576101008083540402835291602001916109b7565b820191906000526020600020905b81548152906001019060200180831161099a57829003601f168201915b5050505050908060030154908060040160009054906101000a900463ffffffff16908060040160049054906101000a900461ffff16908060040160069054906101000a900461ffff16908060040160089054906101000a900461ffff169080600401600a9054906101000a900461ffff169080600401600c9054906101000a900461ffff169080600401600e9054906101000a900461ffff16908060040160109054906101000a900461ffff1690508c565b610a71610ae7565b610a7a57600080fd5b80600b60006101000a81548173ffffffffffffffffffffffffffffffffffffffff021916908373ffffffffffffffffffffffffffffffffffffffff16021790555050565b60008060009054906101000a900473ffffffffffffffffffffffffffffffffffffffff16905090565b60008060009054906101000a900473ffffffffffffffffffffffffffffffffffffffff1673ffffffffffffffffffffffffffffffffffffffff163373ffffffffffffffffffffffffffffffffffffffff1614905090565b6007543414610b4c57600080fd5b6000604051602001610b5d90612d0c565b6040516020818303038152906040528051906020012090506000610b7f611aeb565b90506000600960009054906101000a900473ffffffffffffffffffffffffffffffffffffffff1673ffffffffffffffffffffffffffffffffffffffff1663e98b7f4d856040518263ffffffff1660e01b8152600401610bde91906129d1565b61014060405180830381865afa158015610bfc573d6000803e3d6000fd5b505050506040513d601f19601f82011682018060405250810190610c209190612a2d565b90919293949596979850909192939495969750909192939495965090919293949550909192939450909192935090919250909150905080915050610c65838383611b83565b50505050565b60606000600660008473ffffffffffffffffffffffffffffffffffffffff1673ffffffffffffffffffffffffffffffffffffffff1681526020019081526020016000205467ffffffffffffffff811115610cc857610cc7612383565b5b604051908082528060200260200182016040528015610cf65781602001602082028036833780820191505090505b5090506000805b600480549050811015610db3578473ffffffffffffffffffffffffffffffffffffffff166005600083815260200190815260200160002060009054906101000a900473ffffffffffffffffffffffffffffffffffffffff1673ffffffffffffffffffffffffffffffffffffffff161415610da05780838381518110610d8557610d84612b0c565b5b6020026020010181815250508180610d9c90612d21565b9250505b8080610dab90612d21565b915050610cfd565b508192505050919050565b6002838160048281548110610dd657610dd5612b0c565b5b906000526020600020906005020160040160049054906101000a900461ffff1661ffff161015610e0557600080fd5b846005600082815260200190815260200160002060009054906101000a900473ffffffffffffffffffffffffffffffffffffffff1673ffffffffffffffffffffffffffffffffffffffff163373ffffffffffffffffffffffffffffffffffffffff1614610e7157600080fd5b600f543414610e7f57600080fd5b848460048881548110610e9557610e94612b0c565b5b90600052602060002090600502016001019190610eb3929190612188565b50505050505050565b60056020528060005260406000206000915054906101000a900473ffffffffffffffffffffffffffffffffffffffff1681565b816005600082815260200190815260200160002060009054906101000a900473ffffffffffffffffffffffffffffffffffffffff1673ffffffffffffffffffffffffffffffffffffffff163373ffffffffffffffffffffffffffffffffffffffff1614610f5b57600080fd5b816005600082815260200190815260200160002060009054906101000a900473ffffffffffffffffffffffffffffffffffffffff1673ffffffffffffffffffffffffffffffffffffffff163373ffffffffffffffffffffffffffffffffffffffff1614610fc757600080fd5b600060048581548110610fdd57610fdc612b0c565b5b9060005260206000209060050201905060006004858154811061100357611002612b0c565b5b9060005260206000209060050201905061101c82611f7b565b61102557600080fd5b61102e81611f7b565b61103757600080fd5b600e54341461104557600080fd5b600060028260000154846000015461105d9190612d6a565b6110679190612dc0565b9050600060405160200161107a90612e3d565b6040516020818303038152906040528051906020012084600301541480156110c957506040516020016110ac90612b87565b604051602081830303815290604052805190602001208360030154145b8061112e57506040516020016110de90612b87565b60405160208183030381529060405280519060200120846003015414801561112d575060405160200161111090612e3d565b604051602081830303815290604052805190602001208360030154145b5b1561115b5760405160200161114290612e9e565b6040516020818303038152906040528051906020012090505b60405160200161116a90612d0c565b6040516020818303038152906040528051906020012084600301541480156111b9575060405160200161119c90612b87565b604051602081830303815290604052805190602001208360030154145b8061121e57506040516020016111ce90612b87565b60405160208183030381529060405280519060200120846003015414801561121d575060405160200161120090612d0c565b604051602081830303815290604052805190602001208360030154145b5b1561124b5760405160200161123290612eff565b6040516020818303038152906040528051906020012090505b60405160200161125a906129bc565b6040516020818303038152906040528051906020012084600301541480156112a9575060405160200161128c90612b87565b604051602081830303815290604052805190602001208360030154145b8061130e57506040516020016112be90612b87565b60405160208183030381529060405280519060200120846003015414801561130d57506040516020016112f0906129bc565b604051602081830303815290604052805190602001208360030154145b5b1561133b5760405160200161132290612f60565b6040516020818303038152906040528051906020012090505b60405160200161134a90612e3d565b604051602081830303815290604052805190602001208460030154148015611399575060405160200161137c90612d0c565b604051602081830303815290604052805190602001208360030154145b806113fe57506040516020016113ae90612d0c565b6040516020818303038152906040528051906020012084600301541480156113fd57506040516020016113e090612e3d565b604051602081830303815290604052805190602001208360030154145b5b1561142b5760405160200161141290612fc1565b6040516020818303038152906040528051906020012090505b60405160200161143a90612e3d565b604051602081830303815290604052805190602001208460030154148015611489575060405160200161146c906129bc565b604051602081830303815290604052805190602001208360030154145b806114ee575060405160200161149e906129bc565b6040516020818303038152906040528051906020012084600301541480156114ed57506040516020016114d090612e3d565b604051602081830303815290604052805190602001208360030154145b5b1561151b5760405160200161150290613022565b6040516020818303038152906040528051906020012090505b60405160200161152a90612d0c565b604051602081830303815290604052805190602001208460030154148015611579575060405160200161155c906129bc565b604051602081830303815290604052805190602001208360030154145b806115de575060405160200161158e906129bc565b6040516020818303038152906040528051906020012084600301541480156115dd57506040516020016115c090612d0c565b604051602081830303815290604052805190602001208360030154145b5b1561160b576040516020016115f290612d0c565b6040516020818303038152906040528051906020012090505b60405160200161161a90612b87565b604051602081830303815290604052805190602001208460030154148015611669575060405160200161164c90612b87565b604051602081830303815290604052805190602001208360030154145b156116965760405160200161167d90612b87565b6040516020818303038152906040528051906020012090505b6040516020016116a590612d0c565b6040516020818303038152906040528051906020012084600301541480156116f457506040516020016116d790612d0c565b604051602081830303815290604052805190602001208360030154145b156117215760405160200161170890612d0c565b6040516020818303038152906040528051906020012090505b604051602001611730906129bc565b60405160208183030381529060405280519060200120846003015414801561177f5750604051602001611762906129bc565b604051602081830303815290604052805190602001208360030154145b156117ac57604051602001611793906129bc565b6040516020818303038152906040528051906020012090505b6040516020016117bb90612e3d565b60405160208183030381529060405280519060200120846003015414801561180a57506040516020016117ed90612e3d565b604051602081830303815290604052805190602001208360030154145b1561183b5760405160200161181e90612e3d565b604051602081830303815290604052805190602001209050611863565b60405160200161184a90613083565b6040516020818303038152906040528051906020012090505b600061186f6064611fa2565b9050600c54811115801561189b5750600d548560040160109054906101000a900461ffff1661ffff1611155b1561190d576118b2826118ac611aeb565b85611b83565b6118bb85611ffe565b6118c484611ffe565b6118ee60018660040160109054906101000a900461ffff1661ffff1661203190919063ffffffff16565b8560040160106101000a81548161ffff021916908361ffff1602179055505b600c54811180156119365750600d548560040160109054906101000a900461ffff1661ffff1611155b156119965761194485611ffe565b61194d84611ffe565b61197760018660040160109054906101000a900461ffff1661ffff1661203190919063ffffffff16565b8560040160106101000a81548161ffff021916908361ffff1602179055505b505050505050505050565b6119a9610ae7565b6119b257600080fd5b6119bb81612065565b50565b60075434146119cc57600080fd5b60006040516020016119dd90612e3d565b60405160208183030381529060405280519060200120905060006119ff611aeb565b90506000600a60009054906101000a900473ffffffffffffffffffffffffffffffffffffffff1673ffffffffffffffffffffffffffffffffffffffff16632a417612856040518263ffffffff1660e01b8152600401611a5e91906129d1565b61014060405180830381865afa158015611a7c573d6000803e3d6000fd5b505050506040513d601f19601f82011682018060405250810190611aa09190612a2d565b90919293949596979850909192939495969750909192939495965090919293949550909192939450909192935090919250909150905080915050611ae5838383611b83565b50505050565b6060600060329050606081611b006064611fa2565b11611b42576040518060400160405280600481526020017f6d616c65000000000000000000000000000000000000000000000000000000008152509050611b7b565b6040518060400160405280600681526020017f66656d616c65000000000000000000000000000000000000000000000000000081525090505b809250505090565b600060035442611b939190612d6a565b905060046040518061018001604052808481526020016040518060400160405280600681526020017f4e6f4e616d65000000000000000000000000000000000000000000000000000081525081526020018581526020018681526020018363ffffffff168152602001600161ffff168152602001600161ffff168152602001600161ffff168152602001600161ffff168152602001600161ffff168152602001600161ffff168152602001600061ffff168152509080600181540180825580915050600190039060005260206000209060050201600090919091909150600082015181600001556020820151816001019080519060200190611c9692919061220e565b506040820151816002019080519060200190611cb392919061220e565b506060820151816003015560808201518160040160006101000a81548163ffffffff021916908363ffffffff16021790555060a08201518160040160046101000a81548161ffff021916908361ffff16021790555060c08201518160040160066101000a81548161ffff021916908361ffff16021790555060e08201518160040160086101000a81548161ffff021916908361ffff16021790555061010082015181600401600a6101000a81548161ffff021916908361ffff16021790555061012082015181600401600c6101000a81548161ffff021916908361ffff16021790555061014082015181600401600e6101000a81548161ffff021916908361ffff1602179055506101608201518160040160106101000a81548161ffff021916908361ffff160217905550505060006001600480549050611df49190612c2b565b9050336005600083815260200190815260200160002060006101000a81548173ffffffffffffffffffffffffffffffffffffffff021916908373ffffffffffffffffffffffffffffffffffffffff160217905550611e9b6001600660003373ffffffffffffffffffffffffffffffffffffffff1673ffffffffffffffffffffffffffffffffffffffff1681526020019081526020016000205461215c90919063ffffffff16565b600660003373ffffffffffffffffffffffffffffffffffffffff1673ffffffffffffffffffffffffffffffffffffffff168152602001908152602001600020819055507ff115c9a61530c95eca79038e19e5bed64bbe37f60141674560372eed893172b281848688866001806001806001806000604051611f279c9b9a99989796959493929190613164565b60405180910390a15050505050565b60008082604051602001611f4a919061326a565b6040516020818303038152906040528051906020012060001c905060025481611f739190612bcb565b915050919050565b6000428260040160009054906101000a900463ffffffff1663ffffffff1611159050919050565b600060086000815480929190611fb790612d21565b9190505550814233600854604051602001611fd4939291906132ea565b6040516020818303038152906040528051906020012060001c611ff79190612bcb565b9050919050565b6003544261200c9190612d6a565b8160040160006101000a81548163ffffffff021916908363ffffffff16021790555050565b60008082846120409190613327565b90508361ffff168161ffff16101561205b5761205a61335f565b5b8091505092915050565b600073ffffffffffffffffffffffffffffffffffffffff168173ffffffffffffffffffffffffffffffffffffffff16141561209f57600080fd5b8073ffffffffffffffffffffffffffffffffffffffff1660008054906101000a900473ffffffffffffffffffffffffffffffffffffffff1673ffffffffffffffffffffffffffffffffffffffff167f8be0079c531659141344cd1fd0a4f28419497f9722a3daafe3b4186f6b6457e060405160405180910390a3806000806101000a81548173ffffffffffffffffffffffffffffffffffffffff021916908373ffffffffffffffffffffffffffffffffffffffff16021790555050565b600080828461216b9190612d6a565b90508381101561217e5761217d61335f565b5b8091505092915050565b82805461219490612c8e565b90600052602060002090601f0160209004810192826121b657600085556121fd565b82601f106121cf57803560ff19168380011785556121fd565b828001600101855582156121fd579182015b828111156121fc5782358255916020019190600101906121e1565b5b50905061220a9190612294565b5090565b82805461221a90612c8e565b90600052602060002090601f01602090048101928261223c5760008555612283565b82601f1061225557805160ff1916838001178555612283565b82800160010185558215612283579182015b82811115612282578251825591602001919060010190612267565b5b5090506122909190612294565b5090565b5b808211156122ad576000816000905550600101612295565b5090565b6000604051905090565b600080fd5b600080fd5b6000819050919050565b6122d8816122c5565b81146122e357600080fd5b50565b6000813590506122f5816122cf565b92915050565b600060208284031215612311576123106122bb565b5b600061231f848285016122e6565b91505092915050565b6000806040838503121561233f5761233e6122bb565b5b600061234d858286016122e6565b925050602061235e858286016122e6565b9150509250929050565b600080fd5b600080fd5b6000601f19601f8301169050919050565b7f4e487b7100000000000000000000000000000000000000000000000000000000600052604160045260246000fd5b6123bb82612372565b810181811067ffffffffffffffff821117156123da576123d9612383565b5b80604052505050565b60006123ed6122b1565b90506123f982826123b2565b919050565b600067ffffffffffffffff82111561241957612418612383565b5b61242282612372565b9050602081019050919050565b82818337600083830152505050565b600061245161244c846123fe565b6123e3565b90508281526020810184848401111561246d5761246c61236d565b5b61247884828561242f565b509392505050565b600082601f83011261249557612494612368565b5b81356124a584826020860161243e565b91505092915050565b600080604083850312156124c5576124c46122bb565b5b600083013567ffffffffffffffff8111156124e3576124e26122c0565b5b6124ef85828601612480565b925050602083013567ffffffffffffffff8111156125105761250f6122c0565b5b61251c85828601612480565b9150509250929050565b600073ffffffffffffffffffffffffffffffffffffffff82169050919050565b600061255182612526565b9050919050565b61256181612546565b811461256c57600080fd5b50565b60008135905061257e81612558565b92915050565b60006020828403121561259a576125996122bb565b5b60006125a88482850161256f565b91505092915050565b6125ba816122c5565b82525050565b600081519050919050565b600082825260208201905092915050565b60005b838110156125fa5780820151818401526020810190506125df565b83811115612609576000848401525b50505050565b600061261a826125c0565b61262481856125cb565b93506126348185602086016125dc565b61263d81612372565b840191505092915050565b6000819050919050565b61265b81612648565b82525050565b600063ffffffff82169050919050565b61267a81612661565b82525050565b600061ffff82169050919050565b61269781612680565b82525050565b6000610180820190506126b3600083018f6125b1565b81810360208301526126c5818e61260f565b905081810360408301526126d9818d61260f565b90506126e8606083018c612652565b6126f5608083018b612671565b61270260a083018a61268e565b61270f60c083018961268e565b61271c60e083018861268e565b61272a61010083018761268e565b61273861012083018661268e565b61274661014083018561268e565b61275461016083018461268e565b9d9c50505050505050505050505050565b61276e81612546565b82525050565b60006020820190506127896000830184612765565b92915050565b60008115159050919050565b6127a48161278f565b82525050565b60006020820190506127bf600083018461279b565b92915050565b600081519050919050565b600082825260208201905092915050565b6000819050602082019050919050565b6127fa816122c5565b82525050565b600061280c83836127f1565b60208301905092915050565b6000602082019050919050565b6000612830826127c5565b61283a81856127d0565b9350612845836127e1565b8060005b8381101561287657815161285d8882612800565b975061286883612818565b925050600181019050612849565b5085935050505092915050565b6000602082019050818103600083015261289d8184612825565b905092915050565b600080fd5b600080fd5b60008083601f8401126128c5576128c4612368565b5b8235905067ffffffffffffffff8111156128e2576128e16128a5565b5b6020830191508360018202830111156128fe576128fd6128aa565b5b9250929050565b60008060006040848603121561291e5761291d6122bb565b5b600061292c868287016122e6565b935050602084013567ffffffffffffffff81111561294d5761294c6122c0565b5b612959868287016128af565b92509250509250925092565b600081905092915050565b7f626f726564417065000000000000000000000000000000000000000000000000600082015250565b60006129a6600883612965565b91506129b182612970565b600882019050919050565b60006129c782612999565b9150819050919050565b60006020820190506129e660008301846125b1565b92915050565b6129f58161278f565b8114612a0057600080fd5b50565b600081519050612a12816129ec565b92915050565b600081519050612a27816122cf565b92915050565b6000806000806000806000806000806101408b8d031215612a5157612a506122bb565b5b6000612a5f8d828e01612a03565b9a50506020612a708d828e01612a03565b9950506040612a818d828e01612a18565b9850506060612a928d828e01612a18565b9750506080612aa38d828e01612a18565b96505060a0612ab48d828e01612a18565b95505060c0612ac58d828e01612a18565b94505060e0612ad68d828e01612a18565b935050610100612ae88d828e01612a18565b925050610120612afa8d828e01612a18565b9150509295989b9194979a5092959850565b7f4e487b7100000000000000000000000000000000000000000000000000000000600052603260045260246000fd5b7f74726176656c6572000000000000000000000000000000000000000000000000600082015250565b6000612b71600883612965565b9150612b7c82612b3b565b600882019050919050565b6000612b9282612b64565b9150819050919050565b7f4e487b7100000000000000000000000000000000000000000000000000000000600052601260045260246000fd5b6000612bd6826122c5565b9150612be1836122c5565b925082612bf157612bf0612b9c565b5b828206905092915050565b7f4e487b7100000000000000000000000000000000000000000000000000000000600052601160045260246000fd5b6000612c36826122c5565b9150612c41836122c5565b925082821015612c5457612c53612bfc565b5b828203905092915050565b7f4e487b7100000000000000000000000000000000000000000000000000000000600052602260045260246000fd5b60006002820490506001821680612ca657607f821691505b60208210811415612cba57612cb9612c5f565b5b50919050565b7f6b69747479000000000000000000000000000000000000000000000000000000600082015250565b6000612cf6600583612965565b9150612d0182612cc0565b600582019050919050565b6000612d1782612ce9565b9150819050919050565b6000612d2c826122c5565b91507fffffffffffffffffffffffffffffffffffffffffffffffffffffffffffffffff821415612d5f57612d5e612bfc565b5b600182019050919050565b6000612d75826122c5565b9150612d80836122c5565b9250827fffffffffffffffffffffffffffffffffffffffffffffffffffffffffffffffff03821115612db557612db4612bfc565b5b828201905092915050565b6000612dcb826122c5565b9150612dd6836122c5565b925082612de657612de5612b9c565b5b828204905092915050565b7f63797068657250756e6b00000000000000000000000000000000000000000000600082015250565b6000612e27600a83612965565b9150612e3282612df1565b600a82019050919050565b6000612e4882612e1a565b9150819050919050565b7f63797068657254726176656c6572000000000000000000000000000000000000600082015250565b6000612e88600e83612965565b9150612e9382612e52565b600e82019050919050565b6000612ea982612e7b565b9150819050919050565b7f6b6974747954726176656c657200000000000000000000000000000000000000600082015250565b6000612ee9600d83612965565b9150612ef482612eb3565b600d82019050919050565b6000612f0a82612edc565b9150819050919050565b7f626f72656454726176656c657200000000000000000000000000000000000000600082015250565b6000612f4a600d83612965565b9150612f5582612f14565b600d82019050919050565b6000612f6b82612f3d565b9150819050919050565b7f6379706865724b69747479000000000000000000000000000000000000000000600082015250565b6000612fab600b83612965565b9150612fb682612f75565b600b82019050919050565b6000612fcc82612f9e565b9150819050919050565b7f6379706865724170650000000000000000000000000000000000000000000000600082015250565b600061300c600983612965565b915061301782612fd6565b600982019050919050565b600061302d82612fff565b9150819050919050565b7f6e65775261636573000000000000000000000000000000000000000000000000600082015250565b600061306d600883612965565b915061307882613037565b600882019050919050565b600061308e82613060565b9150819050919050565b7f4e6f4e616d650000000000000000000000000000000000000000000000000000600082015250565b60006130ce6006836125cb565b91506130d982613098565b602082019050919050565b6000819050919050565b6000819050919050565b600061311361310e613109846130e4565b6130ee565b612680565b9050919050565b613123816130f8565b82525050565b6000819050919050565b600061314e61314961314484613129565b6130ee565b612680565b9050919050565b61315e81613133565b82525050565b60006101a08201905061317a600083018f6125b1565b613187602083018e6125b1565b8181036040830152613198816130c1565b905081810360608301526131ac818d61260f565b90506131bb608083018c612652565b6131c860a083018b612671565b6131d560c083018a61311a565b6131e260e083018961311a565b6131f061010083018861311a565b6131fe61012083018761311a565b61320c61014083018661311a565b61321a61016083018561311a565b613228610180830184613155565b9d9c50505050505050505050505050565b6000613244826125c0565b61324e8185612965565b935061325e8185602086016125dc565b80840191505092915050565b60006132768284613239565b915081905092915050565b6000819050919050565b61329c613297826122c5565b613281565b82525050565b60008160601b9050919050565b60006132ba826132a2565b9050919050565b60006132cc826132af565b9050919050565b6132e46132df82612546565b6132c1565b82525050565b60006132f6828661328b565b60208201915061330682856132d3565b601482019150613316828461328b565b602082019150819050949350505050565b600061333282612680565b915061333d83612680565b92508261ffff0382111561335457613353612bfc565b5b828201905092915050565b7f4e487b7100000000000000000000000000000000000000000000000000000000600052600160045260246000fdfea264697066735822122046a8b3b959974400f3791c47a9e626f1422fb7292d0043443de6208d02c4ae5364736f6c634300080a0033",
  "immutableReferences": {},
  "source": "// SPDX-License-Identifier: MIT\r\npragma solidity >=0.4.22 <0.9.0;\r\n\r\nimport \"./avatarbreeding.sol\";\r\n\r\ncontract AvatarHelper is AvatarBreeding {\r\n\r\n  modifier aboveAvatarLevel(uint _level, uint _avatarId) {\r\n    require(avatars[_avatarId].avatarLevel >= _level);\r\n    _;\r\n  }\r\n  function withdrawAvatar() external payable onlyOwner {\r\n    require(msg.value == withdrawAvatarFee);\r\n    address _owner = owner();\r\n    payable(_owner).transfer(address(this).balance);\r\n  }\r\n  uint changeAvatarNameFee = 0.1 ether;\r\n  uint changeAvatarDnaFee = 10 ether;\r\n  uint withdrawAvatarFee = 0.01 ether;\r\n\r\n  function changeAvatarName(uint _avatarId, string calldata _newName) external payable aboveAvatarLevel(2, _avatarId) onlyOwnerOfAvatar(_avatarId) {\r\n    require(msg.value == changeAvatarNameFee);\r\n    avatars[_avatarId].avatarName = _newName;\r\n  }\r\n\r\n  function changeAvatarDna(uint _avatarId, uint _newDna) external payable aboveAvatarLevel(10, _avatarId) onlyOwnerOfAvatar(_avatarId) {\r\n    require(msg.value == changeAvatarDnaFee);\r\n    avatars[_avatarId].avatarDna = _newDna;\r\n  }\r\n\r\n  function getAvatarsByOwner(address _owner) external view returns(uint[] memory) {\r\n    uint[] memory result = new uint[](ownerAvatarCount[_owner]);\r\n    uint counter = 0;\r\n    for (uint i = 0; i < avatars.length; i++) {\r\n      if (avatarToOwner[i] == _owner) {\r\n        result[counter] = i;\r\n        counter++;\r\n      }\r\n    }\r\n    return result;\r\n  }\r\n\r\n}\r\n",
  "sourcePath": "C:\\Users\\pablo\\PycharmProjects\\LiveAndTravel\\contracts\\avatarhelper.sol",
  "compiler": {
    "name": "solc",
    "version": "0.8.10+commit.fc410830.Emscripten.clang"
  },
  "schemaVersion": "3.4.4",
  "updatedAt": "2022-01-01T19:27:48.377Z",
  "devdoc": {
    "kind": "dev",
    "methods": {},
    "version": 1
  },
  "userdoc": {
    "kind": "user",
    "methods": {},
    "version": 1
  }
}