{
  "contractName": "AvatarBreeding",
  "abi": [
    {
      "anonymous": false,
      "inputs": [
        {
          "indexed": false,
          "internalType": "uint256",
          "name": "avatarId",
          "type": "uint256"
        },
        {
          "indexed": false,
          "internalType": "uint256",
          "name": "avatarDna",
          "type": "uint256"
        },
        {
          "indexed": false,
          "internalType": "string",
          "name": "avatarName",
          "type": "string"
        },
        {
          "indexed": false,
          "internalType": "string",
          "name": "avatarSex",
          "type": "string"
        },
        {
          "indexed": false,
          "internalType": "bytes32",
          "name": "avatarRace",
          "type": "bytes32"
        },
        {
          "indexed": false,
          "internalType": "uint32",
          "name": "avatarReadyTime",
          "type": "uint32"
        },
        {
          "indexed": false,
          "internalType": "uint16",
          "name": "avatarLevel",
          "type": "uint16"
        },
        {
          "indexed": false,
          "internalType": "uint16",
          "name": "avatarLuck",
          "type": "uint16"
        },
        {
          "indexed": false,
          "internalType": "uint16",
          "name": "avatarInt",
          "type": "uint16"
        },
        {
          "indexed": false,
          "internalType": "uint16",
          "name": "avatarAgi",
          "type": "uint16"
        },
        {
          "indexed": false,
          "internalType": "uint16",
          "name": "avatarStr",
          "type": "uint16"
        },
        {
          "indexed": false,
          "internalType": "uint16",
          "name": "avatarSta",
          "type": "uint16"
        },
        {
          "indexed": false,
          "internalType": "uint16",
          "name": "avatarBreedCount",
          "type": "uint16"
        }
      ],
      "name": "NewAvatar",
      "type": "event"
    },
    {
      "anonymous": false,
      "inputs": [
        {
          "indexed": true,
          "internalType": "address",
          "name": "previousOwner",
          "type": "address"
        },
        {
          "indexed": true,
          "internalType": "address",
          "name": "newOwner",
          "type": "address"
        }
      ],
      "name": "OwnershipTransferred",
      "type": "event"
    },
    {
      "inputs": [
        {
          "internalType": "uint256",
          "name": "",
          "type": "uint256"
        }
      ],
      "name": "avatarToOwner",
      "outputs": [
        {
          "internalType": "address",
          "name": "",
          "type": "address"
        }
      ],
      "stateMutability": "view",
      "type": "function"
    },
    {
      "inputs": [
        {
          "internalType": "uint256",
          "name": "",
          "type": "uint256"
        }
      ],
      "name": "avatars",
      "outputs": [
        {
          "internalType": "uint256",
          "name": "avatarDna",
          "type": "uint256"
        },
        {
          "internalType": "string",
          "name": "avatarName",
          "type": "string"
        },
        {
          "internalType": "string",
          "name": "avatarSex",
          "type": "string"
        },
        {
          "internalType": "bytes32",
          "name": "avatarRace",
          "type": "bytes32"
        },
        {
          "internalType": "uint32",
          "name": "avatarReadyTime",
          "type": "uint32"
        },
        {
          "internalType": "uint16",
          "name": "avatarLevel",
          "type": "uint16"
        },
        {
          "internalType": "uint16",
          "name": "avatarLuck",
          "type": "uint16"
        },
        {
          "internalType": "uint16",
          "name": "avatarIntellect",
          "type": "uint16"
        },
        {
          "internalType": "uint16",
          "name": "avatarAgility",
          "type": "uint16"
        },
        {
          "internalType": "uint16",
          "name": "avatarStrength",
          "type": "uint16"
        },
        {
          "internalType": "uint16",
          "name": "avatarStamina",
          "type": "uint16"
        },
        {
          "internalType": "uint16",
          "name": "breedCount",
          "type": "uint16"
        }
      ],
      "stateMutability": "view",
      "type": "function"
    },
    {
      "inputs": [
        {
          "internalType": "string",
          "name": "_name",
          "type": "string"
        },
        {
          "internalType": "string",
          "name": "_sex",
          "type": "string"
        }
      ],
      "name": "createRandomAvatar",
      "outputs": [],
      "stateMutability": "payable",
      "type": "function"
    },
    {
      "inputs": [],
      "name": "isOwner",
      "outputs": [
        {
          "internalType": "bool",
          "name": "",
          "type": "bool"
        }
      ],
      "stateMutability": "view",
      "type": "function"
    },
    {
      "inputs": [
        {
          "internalType": "uint256",
          "name": "_boredApeId",
          "type": "uint256"
        }
      ],
      "name": "migrateBoredApe",
      "outputs": [],
      "stateMutability": "payable",
      "type": "function"
    },
    {
      "inputs": [
        {
          "internalType": "uint256",
          "name": "_cypherPunkId",
          "type": "uint256"
        }
      ],
      "name": "migrateCypherPunk",
      "outputs": [],
      "stateMutability": "payable",
      "type": "function"
    },
    {
      "inputs": [
        {
          "internalType": "uint256",
          "name": "_kittyId",
          "type": "uint256"
        }
      ],
      "name": "migrateKitty",
      "outputs": [],
      "stateMutability": "payable",
      "type": "function"
    },
    {
      "inputs": [],
      "name": "owner",
      "outputs": [
        {
          "internalType": "address",
          "name": "",
          "type": "address"
        }
      ],
      "stateMutability": "view",
      "type": "function"
    },
    {
      "inputs": [],
      "name": "renounceOwnership",
      "outputs": [],
      "stateMutability": "nonpayable",
      "type": "function"
    },
    {
      "inputs": [
        {
          "internalType": "address",
          "name": "_address",
          "type": "address"
        }
      ],
      "name": "setBoredApeContractAddress",
      "outputs": [],
      "stateMutability": "nonpayable",
      "type": "function"
    },
    {
      "inputs": [
        {
          "internalType": "address",
          "name": "_address",
          "type": "address"
        }
      ],
      "name": "setCypherPunkContractAddress",
      "outputs": [],
      "stateMutability": "nonpayable",
      "type": "function"
    },
    {
      "inputs": [
        {
          "internalType": "address",
          "name": "_address",
          "type": "address"
        }
      ],
      "name": "setKittyContractAddress",
      "outputs": [],
      "stateMutability": "nonpayable",
      "type": "function"
    },
    {
      "inputs": [
        {
          "internalType": "address",
          "name": "newOwner",
          "type": "address"
        }
      ],
      "name": "transferOwnership",
      "outputs": [],
      "stateMutability": "nonpayable",
      "type": "function"
    },
    {
      "inputs": [
        {
          "internalType": "uint256",
          "name": "_avatarId",
          "type": "uint256"
        },
        {
          "internalType": "uint256",
          "name": "_targetAvatarId",
          "type": "uint256"
        }
      ],
      "name": "breed",
      "outputs": [],
      "stateMutability": "payable",
      "type": "function"
    }
  ],
  "bytecode": "0x60806040526010600155600154600a6200001a9190620002a7565b60025562015180600355670de0b6b3a76400006007556000600855605a600c556007600d55670de0b6b3a7640000600e553480156200005857600080fd5b50336000806101000a81548173ffffffffffffffffffffffffffffffffffffffff021916908373ffffffffffffffffffffffffffffffffffffffff16021790555060008054906101000a900473ffffffffffffffffffffffffffffffffffffffff1673ffffffffffffffffffffffffffffffffffffffff16600073ffffffffffffffffffffffffffffffffffffffff167f8be0079c531659141344cd1fd0a4f28419497f9722a3daafe3b4186f6b6457e060405160405180910390a3620002f8565b7f4e487b7100000000000000000000000000000000000000000000000000000000600052601160045260246000fd5b60008160011c9050919050565b6000808291508390505b6001851115620001a85780860481111562000180576200017f6200011a565b5b6001851615620001905780820291505b8081029050620001a08562000149565b945062000160565b94509492505050565b600082620001c3576001905062000296565b81620001d3576000905062000296565b8160018114620001ec5760028114620001f7576200022d565b600191505062000296565b60ff8411156200020c576200020b6200011a565b5b8360020a9150848211156200022657620002256200011a565b5b5062000296565b5060208310610133831016604e8410600b8410161715620002675782820a9050838111156200026157620002606200011a565b5b62000296565b62000276848484600162000156565b9250905081840481111562000290576200028f6200011a565b5b81810290505b9392505050565b6000819050919050565b6000620002b4826200029d565b9150620002c1836200029d565b9250620002f07fffffffffffffffffffffffffffffffffffffffffffffffffffffffffffffffff8484620001b1565b905092915050565b612d4080620003086000396000f3fe6080604052600436106100dd5760003560e01c80638da5cb5b1161007f578063c8539c4b11610059578063c8539c4b14610266578063d9ecad7b146102a3578063f2fde38b146102bf578063f5dcef04146102e8576100dd565b80638da5cb5b146101f45780638f32d59b1461021f578063968787121461024a576100dd565b80635f4623f1116100bb5780635f4623f114610143578063715018a61461016c578063834d5fac146101835780638b030aaa146101cb576100dd565b80630351cf51146100e257806324ef8f70146100fe5780635de842881461011a575b600080fd5b6100fc60048036038101906100f79190611e17565b610304565b005b61011860048036038101906101139190611f8a565b610431565b005b34801561012657600080fd5b50610141600480360381019061013c9190612060565b6104ec565b005b34801561014f57600080fd5b5061016a60048036038101906101659190612060565b610541565b005b34801561017857600080fd5b50610181610596565b005b34801561018f57600080fd5b506101aa60048036038101906101a59190611e17565b610665565b6040516101c29c9b9a99989796959493929190612179565b60405180910390f35b3480156101d757600080fd5b506101f260048036038101906101ed9190612060565b610857565b005b34801561020057600080fd5b506102096108ac565b6040516102169190612250565b60405180910390f35b34801561022b57600080fd5b506102346108d5565b6040516102419190612286565b60405180910390f35b610264600480360381019061025f9190611e17565b61092c565b005b34801561027257600080fd5b5061028d60048036038101906102889190611e17565b610a59565b60405161029a9190612250565b60405180910390f35b6102bd60048036038101906102b891906122a1565b610a8c565b005b3480156102cb57600080fd5b506102e660048036038101906102e19190612060565b611543565b005b61030260048036038101906102fd9190611e17565b611560565b005b600754341461031257600080fd5b600060405160200161032390612338565b604051602081830303815290604052805190602001209050600061034561168d565b90506000600b60009054906101000a900473ffffffffffffffffffffffffffffffffffffffff1673ffffffffffffffffffffffffffffffffffffffff166394eb170d856040518263ffffffff1660e01b81526004016103a4919061234d565b61014060405180830381865afa1580156103c2573d6000803e3d6000fd5b505050506040513d601f19601f820116820180604052508101906103e691906123a9565b9091929394959697985090919293949596975090919293949596509091929394955090919293945090919293509091925090915090508091505061042b838383611725565b50505050565b600754341461043f57600080fd5b6000600660003373ffffffffffffffffffffffffffffffffffffffff1673ffffffffffffffffffffffffffffffffffffffff168152602001908152602001600020541461048b57600080fd5b600060405160200161049c906124d4565b60405160208183030381529060405280519060200120905060006104bf84611ad8565b90506064816104ce9190612518565b816104d99190612578565b90506104e6828483611725565b50505050565b6104f46108d5565b6104fd57600080fd5b80600a60006101000a81548173ffffffffffffffffffffffffffffffffffffffff021916908373ffffffffffffffffffffffffffffffffffffffff16021790555050565b6105496108d5565b61055257600080fd5b80600960006101000a81548173ffffffffffffffffffffffffffffffffffffffff021916908373ffffffffffffffffffffffffffffffffffffffff16021790555050565b61059e6108d5565b6105a757600080fd5b600073ffffffffffffffffffffffffffffffffffffffff1660008054906101000a900473ffffffffffffffffffffffffffffffffffffffff1673ffffffffffffffffffffffffffffffffffffffff167f8be0079c531659141344cd1fd0a4f28419497f9722a3daafe3b4186f6b6457e060405160405180910390a360008060006101000a81548173ffffffffffffffffffffffffffffffffffffffff021916908373ffffffffffffffffffffffffffffffffffffffff160217905550565b6004818154811061067557600080fd5b906000526020600020906005020160009150905080600001549080600101805461069e906125db565b80601f01602080910402602001604051908101604052809291908181526020018280546106ca906125db565b80156107175780601f106106ec57610100808354040283529160200191610717565b820191906000526020600020905b8154815290600101906020018083116106fa57829003601f168201915b50505050509080600201805461072c906125db565b80601f0160208091040260200160405190810160405280929190818152602001828054610758906125db565b80156107a55780601f1061077a576101008083540402835291602001916107a5565b820191906000526020600020905b81548152906001019060200180831161078857829003601f168201915b5050505050908060030154908060040160009054906101000a900463ffffffff16908060040160049054906101000a900461ffff16908060040160069054906101000a900461ffff16908060040160089054906101000a900461ffff169080600401600a9054906101000a900461ffff169080600401600c9054906101000a900461ffff169080600401600e9054906101000a900461ffff16908060040160109054906101000a900461ffff1690508c565b61085f6108d5565b61086857600080fd5b80600b60006101000a81548173ffffffffffffffffffffffffffffffffffffffff021916908373ffffffffffffffffffffffffffffffffffffffff16021790555050565b60008060009054906101000a900473ffffffffffffffffffffffffffffffffffffffff16905090565b60008060009054906101000a900473ffffffffffffffffffffffffffffffffffffffff1673ffffffffffffffffffffffffffffffffffffffff163373ffffffffffffffffffffffffffffffffffffffff1614905090565b600754341461093a57600080fd5b600060405160200161094b90612659565b604051602081830303815290604052805190602001209050600061096d61168d565b90506000600960009054906101000a900473ffffffffffffffffffffffffffffffffffffffff1673ffffffffffffffffffffffffffffffffffffffff1663e98b7f4d856040518263ffffffff1660e01b81526004016109cc919061234d565b61014060405180830381865afa1580156109ea573d6000803e3d6000fd5b505050506040513d601f19601f82011682018060405250810190610a0e91906123a9565b90919293949596979850909192939495969750909192939495965090919293949550909192939450909192935090919250909150905080915050610a53838383611725565b50505050565b60056020528060005260406000206000915054906101000a900473ffffffffffffffffffffffffffffffffffffffff1681565b816005600082815260200190815260200160002060009054906101000a900473ffffffffffffffffffffffffffffffffffffffff1673ffffffffffffffffffffffffffffffffffffffff163373ffffffffffffffffffffffffffffffffffffffff1614610af857600080fd5b816005600082815260200190815260200160002060009054906101000a900473ffffffffffffffffffffffffffffffffffffffff1673ffffffffffffffffffffffffffffffffffffffff163373ffffffffffffffffffffffffffffffffffffffff1614610b6457600080fd5b600060048581548110610b7a57610b7961266e565b5b90600052602060002090600502019050600060048581548110610ba057610b9f61266e565b5b90600052602060002090600502019050610bb982611b1d565b610bc257600080fd5b610bcb81611b1d565b610bd457600080fd5b600e543414610be257600080fd5b6000600282600001548460000154610bfa919061269d565b610c0491906126f3565b90506000604051602001610c1790612770565b604051602081830303815290604052805190602001208460030154148015610c665750604051602001610c49906124d4565b604051602081830303815290604052805190602001208360030154145b80610ccb5750604051602001610c7b906124d4565b604051602081830303815290604052805190602001208460030154148015610cca5750604051602001610cad90612770565b604051602081830303815290604052805190602001208360030154145b5b15610cf857604051602001610cdf906127d1565b6040516020818303038152906040528051906020012090505b604051602001610d0790612659565b604051602081830303815290604052805190602001208460030154148015610d565750604051602001610d39906124d4565b604051602081830303815290604052805190602001208360030154145b80610dbb5750604051602001610d6b906124d4565b604051602081830303815290604052805190602001208460030154148015610dba5750604051602001610d9d90612659565b604051602081830303815290604052805190602001208360030154145b5b15610de857604051602001610dcf90612832565b6040516020818303038152906040528051906020012090505b604051602001610df790612338565b604051602081830303815290604052805190602001208460030154148015610e465750604051602001610e29906124d4565b604051602081830303815290604052805190602001208360030154145b80610eab5750604051602001610e5b906124d4565b604051602081830303815290604052805190602001208460030154148015610eaa5750604051602001610e8d90612338565b604051602081830303815290604052805190602001208360030154145b5b15610ed857604051602001610ebf90612893565b6040516020818303038152906040528051906020012090505b604051602001610ee790612770565b604051602081830303815290604052805190602001208460030154148015610f365750604051602001610f1990612659565b604051602081830303815290604052805190602001208360030154145b80610f9b5750604051602001610f4b90612659565b604051602081830303815290604052805190602001208460030154148015610f9a5750604051602001610f7d90612770565b604051602081830303815290604052805190602001208360030154145b5b15610fc857604051602001610faf906128f4565b6040516020818303038152906040528051906020012090505b604051602001610fd790612770565b604051602081830303815290604052805190602001208460030154148015611026575060405160200161100990612338565b604051602081830303815290604052805190602001208360030154145b8061108b575060405160200161103b90612338565b60405160208183030381529060405280519060200120846003015414801561108a575060405160200161106d90612770565b604051602081830303815290604052805190602001208360030154145b5b156110b85760405160200161109f90612955565b6040516020818303038152906040528051906020012090505b6040516020016110c790612659565b60405160208183030381529060405280519060200120846003015414801561111657506040516020016110f990612338565b604051602081830303815290604052805190602001208360030154145b8061117b575060405160200161112b90612338565b60405160208183030381529060405280519060200120846003015414801561117a575060405160200161115d90612659565b604051602081830303815290604052805190602001208360030154145b5b156111a85760405160200161118f90612659565b6040516020818303038152906040528051906020012090505b6040516020016111b7906124d4565b60405160208183030381529060405280519060200120846003015414801561120657506040516020016111e9906124d4565b604051602081830303815290604052805190602001208360030154145b156112335760405160200161121a906124d4565b6040516020818303038152906040528051906020012090505b60405160200161124290612659565b604051602081830303815290604052805190602001208460030154148015611291575060405160200161127490612659565b604051602081830303815290604052805190602001208360030154145b156112be576040516020016112a590612659565b6040516020818303038152906040528051906020012090505b6040516020016112cd90612338565b60405160208183030381529060405280519060200120846003015414801561131c57506040516020016112ff90612338565b604051602081830303815290604052805190602001208360030154145b156113495760405160200161133090612338565b6040516020818303038152906040528051906020012090505b60405160200161135890612770565b6040516020818303038152906040528051906020012084600301541480156113a7575060405160200161138a90612770565b604051602081830303815290604052805190602001208360030154145b156113d8576040516020016113bb90612770565b604051602081830303815290604052805190602001209050611400565b6040516020016113e7906129b6565b6040516020818303038152906040528051906020012090505b600061140c6064611b44565b9050600c5481111580156114385750600d548560040160109054906101000a900461ffff1661ffff1611155b156114ae5761144f8261144961168d565b85611725565b61145885611ba0565b61146184611ba0565b61148b60018660040160109054906101000a900461ffff1661ffff16611bd390919063ffffffff16565b8560040160106101000a81548161ffff021916908361ffff160217905550611538565b600c54811180156114d75750600d548560040160109054906101000a900461ffff1661ffff1611155b15611537576114e585611ba0565b6114ee84611ba0565b61151860018660040160109054906101000a900461ffff1661ffff16611bd390919063ffffffff16565b8560040160106101000a81548161ffff021916908361ffff1602179055505b5b505050505050505050565b61154b6108d5565b61155457600080fd5b61155d81611c07565b50565b600754341461156e57600080fd5b600060405160200161157f90612770565b60405160208183030381529060405280519060200120905060006115a161168d565b90506000600a60009054906101000a900473ffffffffffffffffffffffffffffffffffffffff1673ffffffffffffffffffffffffffffffffffffffff16632a417612856040518263ffffffff1660e01b8152600401611600919061234d565b61014060405180830381865afa15801561161e573d6000803e3d6000fd5b505050506040513d601f19601f8201168201806040525081019061164291906123a9565b90919293949596979850909192939495969750909192939495965090919293949550909192939450909192935090919250909150905080915050611687838383611725565b50505050565b60606000603290506060816116a26064611b44565b116116e4576040518060400160405280600481526020017f6d616c6500000000000000000000000000000000000000000000000000000000815250905061171d565b6040518060400160405280600681526020017f66656d616c65000000000000000000000000000000000000000000000000000081525090505b809250505090565b600060035442611735919061269d565b905060046040518061018001604052808481526020016040518060400160405280600681526020017f4e6f4e616d65000000000000000000000000000000000000000000000000000081525081526020018581526020018681526020018363ffffffff168152602001600161ffff168152602001600161ffff168152602001600161ffff168152602001600161ffff168152602001600161ffff168152602001600161ffff168152602001600061ffff168152509080600181540180825580915050600190039060005260206000209060050201600090919091909150600082015181600001556020820151816001019080519060200190611838929190611d2a565b506040820151816002019080519060200190611855929190611d2a565b506060820151816003015560808201518160040160006101000a81548163ffffffff021916908363ffffffff16021790555060a08201518160040160046101000a81548161ffff021916908361ffff16021790555060c08201518160040160066101000a81548161ffff021916908361ffff16021790555060e08201518160040160086101000a81548161ffff021916908361ffff16021790555061010082015181600401600a6101000a81548161ffff021916908361ffff16021790555061012082015181600401600c6101000a81548161ffff021916908361ffff16021790555061014082015181600401600e6101000a81548161ffff021916908361ffff1602179055506101608201518160040160106101000a81548161ffff021916908361ffff1602179055505050600060016004805490506119969190612578565b9050336005600083815260200190815260200160002060006101000a81548173ffffffffffffffffffffffffffffffffffffffff021916908373ffffffffffffffffffffffffffffffffffffffff160217905550611a3d6001600660003373ffffffffffffffffffffffffffffffffffffffff1673ffffffffffffffffffffffffffffffffffffffff16815260200190815260200160002054611cfe90919063ffffffff16565b600660003373ffffffffffffffffffffffffffffffffffffffff1673ffffffffffffffffffffffffffffffffffffffff168152602001908152602001600020819055507ff115c9a61530c95eca79038e19e5bed64bbe37f60141674560372eed893172b281848688866001806001806001806000604051611ac99c9b9a99989796959493929190612a97565b60405180910390a15050505050565b60008082604051602001611aec9190612b9d565b6040516020818303038152906040528051906020012060001c905060025481611b159190612518565b915050919050565b6000428260040160009054906101000a900463ffffffff1663ffffffff1611159050919050565b600060086000815480929190611b5990612bb4565b9190505550814233600854604051602001611b7693929190612c66565b6040516020818303038152906040528051906020012060001c611b999190612518565b9050919050565b60035442611bae919061269d565b8160040160006101000a81548163ffffffff021916908363ffffffff16021790555050565b6000808284611be29190612ca3565b90508361ffff168161ffff161015611bfd57611bfc612cdb565b5b8091505092915050565b600073ffffffffffffffffffffffffffffffffffffffff168173ffffffffffffffffffffffffffffffffffffffff161415611c4157600080fd5b8073ffffffffffffffffffffffffffffffffffffffff1660008054906101000a900473ffffffffffffffffffffffffffffffffffffffff1673ffffffffffffffffffffffffffffffffffffffff167f8be0079c531659141344cd1fd0a4f28419497f9722a3daafe3b4186f6b6457e060405160405180910390a3806000806101000a81548173ffffffffffffffffffffffffffffffffffffffff021916908373ffffffffffffffffffffffffffffffffffffffff16021790555050565b6000808284611d0d919061269d565b905083811015611d2057611d1f612cdb565b5b8091505092915050565b828054611d36906125db565b90600052602060002090601f016020900481019282611d585760008555611d9f565b82601f10611d7157805160ff1916838001178555611d9f565b82800160010185558215611d9f579182015b82811115611d9e578251825591602001919060010190611d83565b5b509050611dac9190611db0565b5090565b5b80821115611dc9576000816000905550600101611db1565b5090565b6000604051905090565b600080fd5b600080fd5b6000819050919050565b611df481611de1565b8114611dff57600080fd5b50565b600081359050611e1181611deb565b92915050565b600060208284031215611e2d57611e2c611dd7565b5b6000611e3b84828501611e02565b91505092915050565b600080fd5b600080fd5b6000601f19601f8301169050919050565b7f4e487b7100000000000000000000000000000000000000000000000000000000600052604160045260246000fd5b611e9782611e4e565b810181811067ffffffffffffffff82111715611eb657611eb5611e5f565b5b80604052505050565b6000611ec9611dcd565b9050611ed58282611e8e565b919050565b600067ffffffffffffffff821115611ef557611ef4611e5f565b5b611efe82611e4e565b9050602081019050919050565b82818337600083830152505050565b6000611f2d611f2884611eda565b611ebf565b905082815260208101848484011115611f4957611f48611e49565b5b611f54848285611f0b565b509392505050565b600082601f830112611f7157611f70611e44565b5b8135611f81848260208601611f1a565b91505092915050565b60008060408385031215611fa157611fa0611dd7565b5b600083013567ffffffffffffffff811115611fbf57611fbe611ddc565b5b611fcb85828601611f5c565b925050602083013567ffffffffffffffff811115611fec57611feb611ddc565b5b611ff885828601611f5c565b9150509250929050565b600073ffffffffffffffffffffffffffffffffffffffff82169050919050565b600061202d82612002565b9050919050565b61203d81612022565b811461204857600080fd5b50565b60008135905061205a81612034565b92915050565b60006020828403121561207657612075611dd7565b5b60006120848482850161204b565b91505092915050565b61209681611de1565b82525050565b600081519050919050565b600082825260208201905092915050565b60005b838110156120d65780820151818401526020810190506120bb565b838111156120e5576000848401525b50505050565b60006120f68261209c565b61210081856120a7565b93506121108185602086016120b8565b61211981611e4e565b840191505092915050565b6000819050919050565b61213781612124565b82525050565b600063ffffffff82169050919050565b6121568161213d565b82525050565b600061ffff82169050919050565b6121738161215c565b82525050565b60006101808201905061218f600083018f61208d565b81810360208301526121a1818e6120eb565b905081810360408301526121b5818d6120eb565b90506121c4606083018c61212e565b6121d1608083018b61214d565b6121de60a083018a61216a565b6121eb60c083018961216a565b6121f860e083018861216a565b61220661010083018761216a565b61221461012083018661216a565b61222261014083018561216a565b61223061016083018461216a565b9d9c50505050505050505050505050565b61224a81612022565b82525050565b60006020820190506122656000830184612241565b92915050565b60008115159050919050565b6122808161226b565b82525050565b600060208201905061229b6000830184612277565b92915050565b600080604083850312156122b8576122b7611dd7565b5b60006122c685828601611e02565b92505060206122d785828601611e02565b9150509250929050565b600081905092915050565b7f626f726564417065000000000000000000000000000000000000000000000000600082015250565b60006123226008836122e1565b915061232d826122ec565b600882019050919050565b600061234382612315565b9150819050919050565b6000602082019050612362600083018461208d565b92915050565b6123718161226b565b811461237c57600080fd5b50565b60008151905061238e81612368565b92915050565b6000815190506123a381611deb565b92915050565b6000806000806000806000806000806101408b8d0312156123cd576123cc611dd7565b5b60006123db8d828e0161237f565b9a505060206123ec8d828e0161237f565b99505060406123fd8d828e01612394565b985050606061240e8d828e01612394565b975050608061241f8d828e01612394565b96505060a06124308d828e01612394565b95505060c06124418d828e01612394565b94505060e06124528d828e01612394565b9350506101006124648d828e01612394565b9250506101206124768d828e01612394565b9150509295989b9194979a5092959850565b7f74726176656c6572000000000000000000000000000000000000000000000000600082015250565b60006124be6008836122e1565b91506124c982612488565b600882019050919050565b60006124df826124b1565b9150819050919050565b7f4e487b7100000000000000000000000000000000000000000000000000000000600052601260045260246000fd5b600061252382611de1565b915061252e83611de1565b92508261253e5761253d6124e9565b5b828206905092915050565b7f4e487b7100000000000000000000000000000000000000000000000000000000600052601160045260246000fd5b600061258382611de1565b915061258e83611de1565b9250828210156125a1576125a0612549565b5b828203905092915050565b7f4e487b7100000000000000000000000000000000000000000000000000000000600052602260045260246000fd5b600060028204905060018216806125f357607f821691505b60208210811415612607576126066125ac565b5b50919050565b7f6b69747479000000000000000000000000000000000000000000000000000000600082015250565b60006126436005836122e1565b915061264e8261260d565b600582019050919050565b600061266482612636565b9150819050919050565b7f4e487b7100000000000000000000000000000000000000000000000000000000600052603260045260246000fd5b60006126a882611de1565b91506126b383611de1565b9250827fffffffffffffffffffffffffffffffffffffffffffffffffffffffffffffffff038211156126e8576126e7612549565b5b828201905092915050565b60006126fe82611de1565b915061270983611de1565b925082612719576127186124e9565b5b828204905092915050565b7f63797068657250756e6b00000000000000000000000000000000000000000000600082015250565b600061275a600a836122e1565b915061276582612724565b600a82019050919050565b600061277b8261274d565b9150819050919050565b7f63797068657254726176656c6572000000000000000000000000000000000000600082015250565b60006127bb600e836122e1565b91506127c682612785565b600e82019050919050565b60006127dc826127ae565b9150819050919050565b7f6b6974747954726176656c657200000000000000000000000000000000000000600082015250565b600061281c600d836122e1565b9150612827826127e6565b600d82019050919050565b600061283d8261280f565b9150819050919050565b7f626f72656454726176656c657200000000000000000000000000000000000000600082015250565b600061287d600d836122e1565b915061288882612847565b600d82019050919050565b600061289e82612870565b9150819050919050565b7f6379706865724b69747479000000000000000000000000000000000000000000600082015250565b60006128de600b836122e1565b91506128e9826128a8565b600b82019050919050565b60006128ff826128d1565b9150819050919050565b7f6379706865724170650000000000000000000000000000000000000000000000600082015250565b600061293f6009836122e1565b915061294a82612909565b600982019050919050565b600061296082612932565b9150819050919050565b7f6e65775261636573000000000000000000000000000000000000000000000000600082015250565b60006129a06008836122e1565b91506129ab8261296a565b600882019050919050565b60006129c182612993565b9150819050919050565b7f4e6f4e616d650000000000000000000000000000000000000000000000000000600082015250565b6000612a016006836120a7565b9150612a0c826129cb565b602082019050919050565b6000819050919050565b6000819050919050565b6000612a46612a41612a3c84612a17565b612a21565b61215c565b9050919050565b612a5681612a2b565b82525050565b6000819050919050565b6000612a81612a7c612a7784612a5c565b612a21565b61215c565b9050919050565b612a9181612a66565b82525050565b60006101a082019050612aad600083018f61208d565b612aba602083018e61208d565b8181036040830152612acb816129f4565b90508181036060830152612adf818d6120eb565b9050612aee608083018c61212e565b612afb60a083018b61214d565b612b0860c083018a612a4d565b612b1560e0830189612a4d565b612b23610100830188612a4d565b612b31610120830187612a4d565b612b3f610140830186612a4d565b612b4d610160830185612a4d565b612b5b610180830184612a88565b9d9c50505050505050505050505050565b6000612b778261209c565b612b8181856122e1565b9350612b918185602086016120b8565b80840191505092915050565b6000612ba98284612b6c565b915081905092915050565b6000612bbf82611de1565b91507fffffffffffffffffffffffffffffffffffffffffffffffffffffffffffffffff821415612bf257612bf1612549565b5b600182019050919050565b6000819050919050565b612c18612c1382611de1565b612bfd565b82525050565b60008160601b9050919050565b6000612c3682612c1e565b9050919050565b6000612c4882612c2b565b9050919050565b612c60612c5b82612022565b612c3d565b82525050565b6000612c728286612c07565b602082019150612c828285612c4f565b601482019150612c928284612c07565b602082019150819050949350505050565b6000612cae8261215c565b9150612cb98361215c565b92508261ffff03821115612cd057612ccf612549565b5b828201905092915050565b7f4e487b7100000000000000000000000000000000000000000000000000000000600052600160045260246000fdfea26469706673582212208e154f9487bfc8eb4ec0d335ea21d71586478d8f8c737439d4c2285ca62ac5cf64736f6c634300080a0033",
  "immutableReferences": {},
  "source": "// SPDX-License-Identifier: MIT\r\npragma solidity >=0.4.22 <0.9.0;\r\n\r\nimport \"./avatarmigration.sol\";\r\nimport \"./safemath.sol\";\r\n\r\ncontract AvatarBreeding is AvatarMigration {\r\n\r\n    using SafeMath16 for uint16;\r\n\r\n    uint breedProbability = 90;\r\n    uint maxBreed = 7;\r\n    modifier onlyOwnerOfAvatar(uint _avatarId) {\r\n        require(msg.sender == avatarToOwner[_avatarId]);\r\n        _;\r\n    }\r\n\r\n    function _triggerCd(Avatar storage _avatar) internal {\r\n        _avatar.avatarReadyTime = uint32(block.timestamp + avatarCdTime);\r\n    }\r\n\r\n    function _isReady(Avatar storage _avatar) internal view returns (bool) {\r\n       return (_avatar.avatarReadyTime <= block.timestamp);\r\n    }\r\n\r\n    uint breedFee = 1 ether; //live tokens\r\n\r\n    function breed(uint _avatarId, uint _targetAvatarId) external onlyOwnerOfAvatar(_avatarId) onlyOwnerOfAvatar(_targetAvatarId) payable {\r\n        Avatar storage myAvatar = avatars[_avatarId];\r\n        Avatar storage targetAvatar = avatars[_targetAvatarId];\r\n        require(_isReady(myAvatar));\r\n        require (_isReady(targetAvatar));\r\n        require(msg.value == breedFee);\r\n        uint newDna = (myAvatar.avatarDna + targetAvatar.avatarDna) / 2;\r\n        bytes32 newRace;\r\n        if (((myAvatar.avatarRace == keccak256(abi.encodePacked(\"cypherPunk\"))) && (targetAvatar.avatarRace == keccak256(abi.encodePacked(\"traveler\")))) || ((myAvatar.avatarRace == keccak256(abi.encodePacked(\"traveler\"))) && (targetAvatar.avatarRace == keccak256(abi.encodePacked(\"cypherPunk\"))))) {\r\n            newRace = keccak256(abi.encodePacked(\"cypherTraveler\"));\r\n        }\r\n        if (((myAvatar.avatarRace == keccak256(abi.encodePacked(\"kitty\"))) && (targetAvatar.avatarRace == keccak256(abi.encodePacked(\"traveler\")))) || ((myAvatar.avatarRace == keccak256(abi.encodePacked(\"traveler\"))) && (targetAvatar.avatarRace == keccak256(abi.encodePacked(\"kitty\"))))) {\r\n            newRace = keccak256(abi.encodePacked(\"kittyTraveler\"));\r\n        }\r\n        if (((myAvatar.avatarRace == keccak256(abi.encodePacked(\"boredApe\"))) && (targetAvatar.avatarRace == keccak256(abi.encodePacked(\"traveler\")))) || ((myAvatar.avatarRace == keccak256(abi.encodePacked(\"traveler\"))) && (targetAvatar.avatarRace == keccak256(abi.encodePacked(\"boredApe\"))))) {\r\n            newRace = keccak256(abi.encodePacked(\"boredTraveler\"));\r\n        }\r\n        if (((myAvatar.avatarRace == keccak256(abi.encodePacked(\"cypherPunk\"))) && (targetAvatar.avatarRace == keccak256(abi.encodePacked(\"kitty\")))) || ((myAvatar.avatarRace == keccak256(abi.encodePacked(\"kitty\"))) && (targetAvatar.avatarRace == keccak256(abi.encodePacked(\"cypherPunk\"))))) {\r\n            newRace = keccak256(abi.encodePacked(\"cypherKitty\"));\r\n        }\r\n        if (((myAvatar.avatarRace == keccak256(abi.encodePacked(\"cypherPunk\"))) && (targetAvatar.avatarRace == keccak256(abi.encodePacked(\"boredApe\")))) || ((myAvatar.avatarRace == keccak256(abi.encodePacked(\"boredApe\"))) && (targetAvatar.avatarRace == keccak256(abi.encodePacked(\"cypherPunk\"))))) {\r\n            newRace = keccak256(abi.encodePacked(\"cypherApe\"));\r\n        }\r\n        if (((myAvatar.avatarRace == keccak256(abi.encodePacked(\"kitty\"))) && (targetAvatar.avatarRace == keccak256(abi.encodePacked(\"boredApe\")))) || ((myAvatar.avatarRace == keccak256(abi.encodePacked(\"boredApe\"))) && (targetAvatar.avatarRace == keccak256(abi.encodePacked(\"kitty\"))))) {\r\n            newRace = keccak256(abi.encodePacked(\"kitty\"));\r\n        }\r\n        if (((myAvatar.avatarRace == keccak256(abi.encodePacked(\"traveler\"))) && (targetAvatar.avatarRace == keccak256(abi.encodePacked(\"traveler\"))))) {\r\n            newRace = keccak256(abi.encodePacked(\"traveler\"));\r\n        }\r\n        if (((myAvatar.avatarRace == keccak256(abi.encodePacked(\"kitty\"))) && (targetAvatar.avatarRace == keccak256(abi.encodePacked(\"kitty\"))))) {\r\n            newRace = keccak256(abi.encodePacked(\"kitty\"));\r\n        }\r\n        if (((myAvatar.avatarRace == keccak256(abi.encodePacked(\"boredApe\"))) && (targetAvatar.avatarRace == keccak256(abi.encodePacked(\"boredApe\"))))) {\r\n            newRace = keccak256(abi.encodePacked(\"boredApe\"));\r\n        }\r\n        if (((myAvatar.avatarRace == keccak256(abi.encodePacked(\"cypherPunk\"))) && (targetAvatar.avatarRace == keccak256(abi.encodePacked(\"cypherPunk\"))))) {\r\n            newRace = keccak256(abi.encodePacked(\"cypherPunk\"));\r\n        }\r\n        else {\r\n            newRace = keccak256(abi.encodePacked(\"newRaces\"));\r\n        }\r\n        uint rand = randMod(100);\r\n        if (rand <= breedProbability && myAvatar.breedCount <= maxBreed) {\r\n            _createAvatar(newRace, _randSex(), newDna);\r\n            _triggerCd(myAvatar);\r\n            _triggerCd(targetAvatar);\r\n            myAvatar.breedCount = myAvatar.breedCount.add(1);\r\n        } else if (rand > breedProbability && myAvatar.breedCount <= maxBreed) {\r\n            _triggerCd(myAvatar);\r\n            _triggerCd(targetAvatar);\r\n            myAvatar.breedCount = myAvatar.breedCount.add(1);\r\n        }\r\n    }\r\n}\r\n",
  "sourcePath": "C:\\Users\\pablo\\PycharmProjects\\LiveAndTravel\\contracts\\avatarbreeding.sol",
  "compiler": {
    "name": "solc",
    "version": "0.8.10+commit.fc410830.Emscripten.clang"
  },
  "schemaVersion": "3.4.4",
  "updatedAt": "2021-12-30T16:56:21.293Z",
  "devdoc": {
    "kind": "dev",
    "methods": {},
    "version": 1
  },
  "userdoc": {
    "kind": "user",
    "methods": {},
    "version": 1
  }
}