{
  "contractName": "AvatarFactory",
  "abi": [
    {
      "anonymous": false,
      "inputs": [
        {
          "indexed": false,
          "internalType": "uint256",
          "name": "avatarId",
          "type": "uint256"
        },
        {
          "indexed": false,
          "internalType": "uint256",
          "name": "avatarDna",
          "type": "uint256"
        },
        {
          "indexed": false,
          "internalType": "string",
          "name": "avatarName",
          "type": "string"
        },
        {
          "indexed": false,
          "internalType": "string",
          "name": "avatarSex",
          "type": "string"
        },
        {
          "indexed": false,
          "internalType": "bytes32",
          "name": "avatarRace",
          "type": "bytes32"
        },
        {
          "indexed": false,
          "internalType": "uint32",
          "name": "avatarReadyTime",
          "type": "uint32"
        },
        {
          "indexed": false,
          "internalType": "uint16",
          "name": "avatarMiles",
          "type": "uint16"
        },
        {
          "indexed": false,
          "internalType": "uint16",
          "name": "avatarHome",
          "type": "uint16"
        },
        {
          "indexed": false,
          "internalType": "uint16",
          "name": "avatarWorkPlace",
          "type": "uint16"
        },
        {
          "indexed": false,
          "internalType": "uint16",
          "name": "avatarBreedCount",
          "type": "uint16"
        }
      ],
      "name": "NewAvatar",
      "type": "event"
    },
    {
      "anonymous": false,
      "inputs": [
        {
          "indexed": true,
          "internalType": "address",
          "name": "previousOwner",
          "type": "address"
        },
        {
          "indexed": true,
          "internalType": "address",
          "name": "newOwner",
          "type": "address"
        }
      ],
      "name": "OwnershipTransferred",
      "type": "event"
    },
    {
      "constant": true,
      "inputs": [
        {
          "internalType": "uint256",
          "name": "",
          "type": "uint256"
        }
      ],
      "name": "avatarToOwner",
      "outputs": [
        {
          "internalType": "address",
          "name": "",
          "type": "address"
        }
      ],
      "payable": false,
      "stateMutability": "view",
      "type": "function"
    },
    {
      "constant": true,
      "inputs": [
        {
          "internalType": "uint256",
          "name": "",
          "type": "uint256"
        }
      ],
      "name": "avatars",
      "outputs": [
        {
          "internalType": "uint256",
          "name": "avatarDna",
          "type": "uint256"
        },
        {
          "internalType": "string",
          "name": "avatarName",
          "type": "string"
        },
        {
          "internalType": "string",
          "name": "avatarSex",
          "type": "string"
        },
        {
          "internalType": "bytes32",
          "name": "avatarRace",
          "type": "bytes32"
        },
        {
          "internalType": "uint32",
          "name": "avatarReadyTime",
          "type": "uint32"
        },
        {
          "internalType": "uint256",
          "name": "avatarMiles",
          "type": "uint256"
        },
        {
          "internalType": "uint256",
          "name": "avatarHome",
          "type": "uint256"
        },
        {
          "internalType": "uint256",
          "name": "avatarWorkPlace",
          "type": "uint256"
        },
        {
          "internalType": "uint16",
          "name": "breedCount",
          "type": "uint16"
        }
      ],
      "payable": false,
      "stateMutability": "view",
      "type": "function"
    },
    {
      "constant": true,
      "inputs": [],
      "name": "isOwner",
      "outputs": [
        {
          "internalType": "bool",
          "name": "",
          "type": "bool"
        }
      ],
      "payable": false,
      "stateMutability": "view",
      "type": "function"
    },
    {
      "constant": true,
      "inputs": [],
      "name": "owner",
      "outputs": [
        {
          "internalType": "address",
          "name": "",
          "type": "address"
        }
      ],
      "payable": false,
      "stateMutability": "view",
      "type": "function"
    },
    {
      "constant": false,
      "inputs": [],
      "name": "renounceOwnership",
      "outputs": [],
      "payable": false,
      "stateMutability": "nonpayable",
      "type": "function"
    },
    {
      "constant": false,
      "inputs": [
        {
          "internalType": "address",
          "name": "newOwner",
          "type": "address"
        }
      ],
      "name": "transferOwnership",
      "outputs": [],
      "payable": false,
      "stateMutability": "nonpayable",
      "type": "function"
    },
    {
      "constant": false,
      "inputs": [
        {
          "internalType": "string",
          "name": "_sex",
          "type": "string"
        }
      ],
      "name": "createRandomAvatar",
      "outputs": [],
      "payable": true,
      "stateMutability": "payable",
      "type": "function"
    }
  ],
  "bytecode": "0x60806040526010600155600154600a0a6002556201518060035567016345785d8a00006007556000600855336000806101000a81548173ffffffffffffffffffffffffffffffffffffffff021916908373ffffffffffffffffffffffffffffffffffffffff1602179055506000809054906101000a900473ffffffffffffffffffffffffffffffffffffffff1673ffffffffffffffffffffffffffffffffffffffff16600073ffffffffffffffffffffffffffffffffffffffff167f8be0079c531659141344cd1fd0a4f28419497f9722a3daafe3b4186f6b6457e060405160405180910390a3610e6b806100f56000396000f3fe6080604052600436106100705760003560e01c80638f32d59b1161004e5780638f32d59b14610248578063c8539c4b14610277578063d2541607146102f2578063f2fde38b146103ad57610070565b8063715018a614610075578063834d5fac1461008c5780638da5cb5b146101f1575b600080fd5b34801561008157600080fd5b5061008a6103fe565b005b34801561009857600080fd5b506100c5600480360360208110156100af57600080fd5b81019080803590602001909291905050506104ce565b604051808a815260200180602001806020018981526020018863ffffffff1663ffffffff1681526020018781526020018681526020018581526020018461ffff1661ffff16815260200183810383528b818151815260200191508051906020019080838360005b8381101561014757808201518184015260208101905061012c565b50505050905090810190601f1680156101745780820380516001836020036101000a031916815260200191505b5083810382528a818151815260200191508051906020019080838360005b838110156101ad578082015181840152602081019050610192565b50505050905090810190601f1680156101da5780820380516001836020036101000a031916815260200191505b509b50505050505050505050505060405180910390f35b3480156101fd57600080fd5b50610206610677565b604051808273ffffffffffffffffffffffffffffffffffffffff1673ffffffffffffffffffffffffffffffffffffffff16815260200191505060405180910390f35b34801561025457600080fd5b5061025d6106a0565b604051808215151515815260200191505060405180910390f35b34801561028357600080fd5b506102b06004803603602081101561029a57600080fd5b81019080803590602001909291905050506106f7565b604051808273ffffffffffffffffffffffffffffffffffffffff1673ffffffffffffffffffffffffffffffffffffffff16815260200191505060405180910390f35b6103ab6004803603602081101561030857600080fd5b810190808035906020019064010000000081111561032557600080fd5b82018360208201111561033757600080fd5b8035906020019184600183028401116401000000008311171561035957600080fd5b91908080601f016020809104026020016040519081016040528093929190818152602001838380828437600081840152601f19601f82011690508083019250505050505050919291929050505061072a565b005b3480156103b957600080fd5b506103fc600480360360208110156103d057600080fd5b81019080803573ffffffffffffffffffffffffffffffffffffffff169060200190929190505050610830565b005b6104066106a0565b61040f57600080fd5b600073ffffffffffffffffffffffffffffffffffffffff166000809054906101000a900473ffffffffffffffffffffffffffffffffffffffff1673ffffffffffffffffffffffffffffffffffffffff167f8be0079c531659141344cd1fd0a4f28419497f9722a3daafe3b4186f6b6457e060405160405180910390a360008060006101000a81548173ffffffffffffffffffffffffffffffffffffffff021916908373ffffffffffffffffffffffffffffffffffffffff160217905550565b600481815481106104db57fe5b9060005260206000209060090201600091509050806000015490806001018054600181600116156101000203166002900480601f01602080910402602001604051908101604052809291908181526020018280546001816001161561010002031660029004801561058d5780601f106105625761010080835404028352916020019161058d565b820191906000526020600020905b81548152906001019060200180831161057057829003601f168201915b505050505090806002018054600181600116156101000203166002900480601f01602080910402602001604051908101604052809291908181526020018280546001816001161561010002031660029004801561062b5780601f106106005761010080835404028352916020019161062b565b820191906000526020600020905b81548152906001019060200180831161060e57829003601f168201915b5050505050908060030154908060040160009054906101000a900463ffffffff16908060050154908060060154908060070154908060080160009054906101000a900461ffff16905089565b60008060009054906101000a900473ffffffffffffffffffffffffffffffffffffffff16905090565b60008060009054906101000a900473ffffffffffffffffffffffffffffffffffffffff1673ffffffffffffffffffffffffffffffffffffffff163373ffffffffffffffffffffffffffffffffffffffff1614905090565b60056020528060005260406000206000915054906101000a900473ffffffffffffffffffffffffffffffffffffffff1681565b600754341461073857600080fd5b6000600660003373ffffffffffffffffffffffffffffffffffffffff1673ffffffffffffffffffffffffffffffffffffffff168152602001908152602001600020541461078457600080fd5b600060405160200180807f74726176656c65720000000000000000000000000000000000000000000000008152506008019050604051602081830303815290604052805190602001209050600061080f6040518060400160405280600881526020017f74726176656c657200000000000000000000000000000000000000000000000081525061084d565b90506064818161081b57fe5b068103905061082b8284836108db565b505050565b6108386106a0565b61084157600080fd5b61084a81610c7d565b50565b600080826040516020018082805190602001908083835b602083106108875780518252602082019150602081019050602083039250610864565b6001836020036101000a0380198251168184511680821785525050505050509050019150506040516020818303038152906040528051906020012060001c905060025481816108d257fe5b06915050919050565b60006003544201905060046040518061012001604052808481526020016040518060400160405280600681526020017f4e6f4e616d65000000000000000000000000000000000000000000000000000081525081526020018581526020018681526020018363ffffffff168152602001600081526020016000815260200160008152602001600061ffff16815250908060018154018082558091505090600182039060005260206000209060090201600090919290919091506000820151816000015560208201518160010190805190602001906109ba929190610d91565b5060408201518160020190805190602001906109d7929190610d91565b506060820151816003015560808201518160040160006101000a81548163ffffffff021916908363ffffffff16021790555060a0820151816005015560c0820151816006015560e082015181600701556101008201518160080160006101000a81548161ffff021916908361ffff16021790555050505060006001600480549050039050336005600083815260200190815260200160002060006101000a81548173ffffffffffffffffffffffffffffffffffffffff021916908373ffffffffffffffffffffffffffffffffffffffff160217905550610b006001600660003373ffffffffffffffffffffffffffffffffffffffff1673ffffffffffffffffffffffffffffffffffffffff16815260200190815260200160002054610d7590919063ffffffff16565b600660003373ffffffffffffffffffffffffffffffffffffffff1673ffffffffffffffffffffffffffffffffffffffff168152602001908152602001600020819055507f678dbb6331d0cd0cd21ff45fcbb1bc795295619c327d618856814cc8530d54f78184868886600080600080604051808a815260200189815260200180602001806020018981526020018863ffffffff1663ffffffff1681526020018761ffff1681526020018661ffff1681526020018561ffff1681526020018461ffff168152602001838103835260068152602001807f4e6f4e616d65000000000000000000000000000000000000000000000000000081525060200183810382528a818151815260200191508051906020019080838360005b83811015610c33578082015181840152602081019050610c18565b50505050905090810190601f168015610c605780820380516001836020036101000a031916815260200191505b509b50505050505050505050505060405180910390a15050505050565b600073ffffffffffffffffffffffffffffffffffffffff168173ffffffffffffffffffffffffffffffffffffffff161415610cb757600080fd5b8073ffffffffffffffffffffffffffffffffffffffff166000809054906101000a900473ffffffffffffffffffffffffffffffffffffffff1673ffffffffffffffffffffffffffffffffffffffff167f8be0079c531659141344cd1fd0a4f28419497f9722a3daafe3b4186f6b6457e060405160405180910390a3806000806101000a81548173ffffffffffffffffffffffffffffffffffffffff021916908373ffffffffffffffffffffffffffffffffffffffff16021790555050565b600080828401905083811015610d8757fe5b8091505092915050565b828054600181600116156101000203166002900490600052602060002090601f016020900481019282601f10610dd257805160ff1916838001178555610e00565b82800160010185558215610e00579182015b82811115610dff578251825591602001919060010190610de4565b5b509050610e0d9190610e11565b5090565b610e3391905b80821115610e2f576000816000905550600101610e17565b5090565b9056fea265627a7a72315820315a06f4745885e2c2623154e8d1668ec0ae342d9133e772e23fb6af6a0b759964736f6c63430005100032",
  "source": "// SPDX-License-Identifier: MIT\r\npragma solidity >=0.4.22 <0.9.0;\r\n\r\nimport \"./ownable.sol\";\r\nimport \"./safemath.sol\";\r\n\r\ncontract AvatarFactory is Ownable {\r\n\r\n    using SafeMath for uint256;\r\n    using SafeMath32 for uint32;\r\n    using SafeMath16 for uint16;\r\n\r\n    event NewAvatar(uint avatarId, uint avatarDna, string avatarName, string avatarSex, bytes32 avatarRace, uint32 avatarReadyTime,  uint16 avatarMiles, uint16 avatarHome, uint16 avatarWorkPlace, uint16 avatarBreedCount);\r\n\r\n    uint avatarDnaDigits = 16;\r\n    uint avatarDnaModulus = 10 ** avatarDnaDigits;\r\n    uint avatarCdTime = 1 days;\r\n\r\n    struct Avatar {\r\n        uint avatarDna;\r\n        string avatarName;\r\n        string avatarSex;\r\n        bytes32 avatarRace;\r\n        uint32 avatarReadyTime;\r\n        uint256 avatarMiles;\r\n        uint256 avatarHome;\r\n        uint256 avatarWorkPlace;\r\n        uint16 breedCount;\r\n    }\r\n\r\n    Avatar[] public avatars;\r\n\r\n    mapping (uint => address) public avatarToOwner;\r\n    mapping (address => uint) ownerAvatarCount;\r\n\r\n    uint avatarCreationFee = 0.1 ether;\r\n    uint randAvatarNonce = 0;\r\n\r\n    function randAvatarMod(uint _modulus) internal returns(uint) {\r\n        randAvatarNonce++;\r\n        return uint(keccak256(abi.encodePacked(block.timestamp,msg.sender,randAvatarNonce))) % _modulus;\r\n    }\r\n\r\n    function _randSex() internal returns(string memory) {\r\n        uint maleProbability = 50;\r\n        string memory _sex;\r\n        if (randAvatarMod(100) <= maleProbability) {\r\n            _sex = \"male\";\r\n        } else {\r\n            _sex = \"female\";\r\n        }\r\n        return (_sex);\r\n    }\r\n\r\n    function _createAvatar(bytes32 _race, string memory _sex, uint _dna) internal {\r\n        uint32 _readyTime = uint32(block.timestamp + avatarCdTime);\r\n        // Note: We chose not to prevent the year 2038 problem... So don't need\r\n        // worry about overflows on readyTime. Our app is screwed in 2038 anyway ;)\r\n        avatars.push(Avatar(_dna, \"NoName\", _sex, _race, _readyTime, 0, 0, 0, 0));\r\n        uint avatarId = avatars.length -1;\r\n        avatarToOwner[avatarId] = msg.sender;\r\n        ownerAvatarCount[msg.sender] = ownerAvatarCount[msg.sender].add(1);\r\n        emit NewAvatar(avatarId, _dna, \"NoName\", _sex, _race, _readyTime, 0, 0, 0, 0);\r\n    }\r\n\r\n    function _generateRandomAvatarDna(string memory _str) private view returns (uint) {\r\n        uint rand = uint (keccak256(abi.encodePacked(_str)));\r\n        return rand % avatarDnaModulus;\r\n    }\r\n\r\n    function createRandomAvatar(string memory _sex) public payable {\r\n        require(msg.value == avatarCreationFee);\r\n        require(ownerAvatarCount[msg.sender] == 0);\r\n        bytes32 _race = keccak256(abi.encodePacked(\"traveler\"));\r\n        uint randDna = _generateRandomAvatarDna(\"traveler\");\r\n        randDna = randDna - randDna % 100;\r\n        _createAvatar(_race, _sex, randDna);\r\n    }\r\n}",
  "sourcePath": "C:\\Users\\pablo\\PycharmProjects\\LiveAndTravel\\contracts\\avatarfactory.sol",
  "compiler": {
    "name": "solc",
    "version": "0.5.16+commit.9c3226ce.Emscripten.clang"
  },
  "schemaVersion": "3.4.4",
  "updatedAt": "2022-01-17T17:37:50.202Z",
  "devdoc": {
    "methods": {}
  },
  "userdoc": {
    "methods": {}
  }
}