{
  "contractName": "CryptoAvatars",
  "abi": [
    {
      "anonymous": false,
      "inputs": [
        {
          "indexed": true,
          "internalType": "address",
          "name": "_owner",
          "type": "address"
        },
        {
          "indexed": true,
          "internalType": "address",
          "name": "_approved",
          "type": "address"
        },
        {
          "indexed": true,
          "internalType": "uint256",
          "name": "_tokenId",
          "type": "uint256"
        }
      ],
      "name": "Approval",
      "type": "event"
    },
    {
      "anonymous": false,
      "inputs": [
        {
          "indexed": false,
          "internalType": "uint256",
          "name": "avatarId",
          "type": "uint256"
        },
        {
          "indexed": false,
          "internalType": "uint256",
          "name": "avatarDna",
          "type": "uint256"
        },
        {
          "indexed": false,
          "internalType": "string",
          "name": "avatarName",
          "type": "string"
        },
        {
          "indexed": false,
          "internalType": "string",
          "name": "avatarSex",
          "type": "string"
        },
        {
          "indexed": false,
          "internalType": "bytes32",
          "name": "avatarRace",
          "type": "bytes32"
        },
        {
          "indexed": false,
          "internalType": "uint32",
          "name": "avatarReadyTime",
          "type": "uint32"
        },
        {
          "indexed": false,
          "internalType": "uint16",
          "name": "avatarMiles",
          "type": "uint16"
        },
        {
          "indexed": false,
          "internalType": "uint16",
          "name": "avatarHome",
          "type": "uint16"
        },
        {
          "indexed": false,
          "internalType": "uint16",
          "name": "avatarWorkPlace",
          "type": "uint16"
        },
        {
          "indexed": false,
          "internalType": "uint16",
          "name": "avatarBreedCount",
          "type": "uint16"
        }
      ],
      "name": "NewAvatar",
      "type": "event"
    },
    {
      "anonymous": false,
      "inputs": [
        {
          "indexed": true,
          "internalType": "address",
          "name": "previousOwner",
          "type": "address"
        },
        {
          "indexed": true,
          "internalType": "address",
          "name": "newOwner",
          "type": "address"
        }
      ],
      "name": "OwnershipTransferred",
      "type": "event"
    },
    {
      "anonymous": false,
      "inputs": [
        {
          "indexed": true,
          "internalType": "address",
          "name": "_from",
          "type": "address"
        },
        {
          "indexed": true,
          "internalType": "address",
          "name": "_to",
          "type": "address"
        },
        {
          "indexed": true,
          "internalType": "uint256",
          "name": "_tokenId",
          "type": "uint256"
        }
      ],
      "name": "Transfer",
      "type": "event"
    },
    {
      "constant": false,
      "inputs": [
        {
          "internalType": "address",
          "name": "_approved",
          "type": "address"
        },
        {
          "internalType": "uint256",
          "name": "_tokenId",
          "type": "uint256"
        }
      ],
      "name": "approve",
      "outputs": [],
      "payable": true,
      "stateMutability": "payable",
      "type": "function"
    },
    {
      "constant": true,
      "inputs": [
        {
          "internalType": "uint256",
          "name": "",
          "type": "uint256"
        }
      ],
      "name": "avatarToOwner",
      "outputs": [
        {
          "internalType": "address",
          "name": "",
          "type": "address"
        }
      ],
      "payable": false,
      "stateMutability": "view",
      "type": "function"
    },
    {
      "constant": true,
      "inputs": [
        {
          "internalType": "uint256",
          "name": "",
          "type": "uint256"
        }
      ],
      "name": "avatars",
      "outputs": [
        {
          "internalType": "uint256",
          "name": "avatarDna",
          "type": "uint256"
        },
        {
          "internalType": "string",
          "name": "avatarName",
          "type": "string"
        },
        {
          "internalType": "string",
          "name": "avatarSex",
          "type": "string"
        },
        {
          "internalType": "bytes32",
          "name": "avatarRace",
          "type": "bytes32"
        },
        {
          "internalType": "uint32",
          "name": "avatarReadyTime",
          "type": "uint32"
        },
        {
          "internalType": "uint256",
          "name": "avatarMiles",
          "type": "uint256"
        },
        {
          "internalType": "uint256",
          "name": "avatarHome",
          "type": "uint256"
        },
        {
          "internalType": "uint256",
          "name": "avatarWorkPlace",
          "type": "uint256"
        },
        {
          "internalType": "uint16",
          "name": "breedCount",
          "type": "uint16"
        }
      ],
      "payable": false,
      "stateMutability": "view",
      "type": "function"
    },
    {
      "constant": true,
      "inputs": [
        {
          "internalType": "address",
          "name": "_owner",
          "type": "address"
        }
      ],
      "name": "balanceOf",
      "outputs": [
        {
          "internalType": "uint256",
          "name": "",
          "type": "uint256"
        }
      ],
      "payable": false,
      "stateMutability": "view",
      "type": "function"
    },
    {
      "constant": false,
      "inputs": [
        {
          "internalType": "uint256",
          "name": "_avatarId",
          "type": "uint256"
        },
        {
          "internalType": "uint256",
          "name": "_targetAvatarId",
          "type": "uint256"
        }
      ],
      "name": "breed",
      "outputs": [],
      "payable": true,
      "stateMutability": "payable",
      "type": "function"
    },
    {
      "constant": false,
      "inputs": [
        {
          "internalType": "string",
          "name": "_sex",
          "type": "string"
        }
      ],
      "name": "createRandomAvatar",
      "outputs": [],
      "payable": true,
      "stateMutability": "payable",
      "type": "function"
    },
    {
      "constant": true,
      "inputs": [],
      "name": "isOwner",
      "outputs": [
        {
          "internalType": "bool",
          "name": "",
          "type": "bool"
        }
      ],
      "payable": false,
      "stateMutability": "view",
      "type": "function"
    },
    {
      "constant": false,
      "inputs": [
        {
          "internalType": "uint256",
          "name": "_boredApeId",
          "type": "uint256"
        }
      ],
      "name": "migrateBoredApe",
      "outputs": [],
      "payable": true,
      "stateMutability": "payable",
      "type": "function"
    },
    {
      "constant": false,
      "inputs": [
        {
          "internalType": "uint256",
          "name": "_cypherPunkId",
          "type": "uint256"
        }
      ],
      "name": "migrateCypherPunk",
      "outputs": [],
      "payable": true,
      "stateMutability": "payable",
      "type": "function"
    },
    {
      "constant": false,
      "inputs": [
        {
          "internalType": "uint256",
          "name": "_kittyId",
          "type": "uint256"
        }
      ],
      "name": "migrateKitty",
      "outputs": [],
      "payable": true,
      "stateMutability": "payable",
      "type": "function"
    },
    {
      "constant": true,
      "inputs": [],
      "name": "owner",
      "outputs": [
        {
          "internalType": "address",
          "name": "",
          "type": "address"
        }
      ],
      "payable": false,
      "stateMutability": "view",
      "type": "function"
    },
    {
      "constant": true,
      "inputs": [
        {
          "internalType": "uint256",
          "name": "_tokenId",
          "type": "uint256"
        }
      ],
      "name": "ownerOf",
      "outputs": [
        {
          "internalType": "address",
          "name": "",
          "type": "address"
        }
      ],
      "payable": false,
      "stateMutability": "view",
      "type": "function"
    },
    {
      "constant": false,
      "inputs": [],
      "name": "renounceOwnership",
      "outputs": [],
      "payable": false,
      "stateMutability": "nonpayable",
      "type": "function"
    },
    {
      "constant": false,
      "inputs": [
        {
          "internalType": "address",
          "name": "_address",
          "type": "address"
        }
      ],
      "name": "setBoredApeContractAddress",
      "outputs": [],
      "payable": false,
      "stateMutability": "nonpayable",
      "type": "function"
    },
    {
      "constant": false,
      "inputs": [
        {
          "internalType": "address",
          "name": "_address",
          "type": "address"
        }
      ],
      "name": "setCypherPunkContractAddress",
      "outputs": [],
      "payable": false,
      "stateMutability": "nonpayable",
      "type": "function"
    },
    {
      "constant": false,
      "inputs": [
        {
          "internalType": "address",
          "name": "_address",
          "type": "address"
        }
      ],
      "name": "setKittyContractAddress",
      "outputs": [],
      "payable": false,
      "stateMutability": "nonpayable",
      "type": "function"
    },
    {
      "constant": false,
      "inputs": [
        {
          "internalType": "address",
          "name": "_from",
          "type": "address"
        },
        {
          "internalType": "address",
          "name": "_to",
          "type": "address"
        },
        {
          "internalType": "uint256",
          "name": "_tokenId",
          "type": "uint256"
        }
      ],
      "name": "transferFrom",
      "outputs": [],
      "payable": true,
      "stateMutability": "payable",
      "type": "function"
    },
    {
      "constant": false,
      "inputs": [
        {
          "internalType": "address",
          "name": "newOwner",
          "type": "address"
        }
      ],
      "name": "transferOwnership",
      "outputs": [],
      "payable": false,
      "stateMutability": "nonpayable",
      "type": "function"
    }
  ],
  "bytecode": "0x60806040526010600155600154600a0a6002556201518060035567016345785d8a00006007556000600855605a600c556007600d55670429d069189e0000600e55336000806101000a81548173ffffffffffffffffffffffffffffffffffffffff021916908373ffffffffffffffffffffffffffffffffffffffff1602179055506000809054906101000a900473ffffffffffffffffffffffffffffffffffffffff1673ffffffffffffffffffffffffffffffffffffffff16600073ffffffffffffffffffffffffffffffffffffffff167f8be0079c531659141344cd1fd0a4f28419497f9722a3daafe3b4186f6b6457e060405160405180910390a3612ef08061010b6000396000f3fe6080604052600436106101095760003560e01c80638b030aaa11610095578063c8539c4b11610064578063c8539c4b146105fb578063d254160714610676578063d9ecad7b14610731578063f2fde38b14610769578063f5dcef04146107ba57610109565b80638b030aaa146104f65780638da5cb5b146105475780638f32d59b1461059e57806396878712146105cd57610109565b80635f4623f1116100dc5780635f4623f1146102495780636352211e1461029a57806370a0823114610315578063715018a61461037a578063834d5fac1461039157610109565b80630351cf511461010e578063095ea7b31461013c57806323b872dd1461018a5780635de84288146101f8575b600080fd5b61013a6004803603602081101561012457600080fd5b81019080803590602001909291905050506107e8565b005b6101886004803603604081101561015257600080fd5b81019080803573ffffffffffffffffffffffffffffffffffffffff169060200190929190803590602001909291905050506109a4565b005b6101f6600480360360608110156101a057600080fd5b81019080803573ffffffffffffffffffffffffffffffffffffffff169060200190929190803573ffffffffffffffffffffffffffffffffffffffff16906020019092919080359060200190929190505050610ac2565b005b34801561020457600080fd5b506102476004803603602081101561021b57600080fd5b81019080803573ffffffffffffffffffffffffffffffffffffffff169060200190929190505050610ba6565b005b34801561025557600080fd5b506102986004803603602081101561026c57600080fd5b81019080803573ffffffffffffffffffffffffffffffffffffffff169060200190929190505050610bfb565b005b3480156102a657600080fd5b506102d3600480360360208110156102bd57600080fd5b8101908080359060200190929190505050610c50565b604051808273ffffffffffffffffffffffffffffffffffffffff1673ffffffffffffffffffffffffffffffffffffffff16815260200191505060405180910390f35b34801561032157600080fd5b506103646004803603602081101561033857600080fd5b81019080803573ffffffffffffffffffffffffffffffffffffffff169060200190929190505050610c8d565b6040518082815260200191505060405180910390f35b34801561038657600080fd5b5061038f610cd6565b005b34801561039d57600080fd5b506103ca600480360360208110156103b457600080fd5b8101908080359060200190929190505050610da6565b604051808a815260200180602001806020018981526020018863ffffffff1663ffffffff1681526020018781526020018681526020018581526020018461ffff1661ffff16815260200183810383528b818151815260200191508051906020019080838360005b8381101561044c578082015181840152602081019050610431565b50505050905090810190601f1680156104795780820380516001836020036101000a031916815260200191505b5083810382528a818151815260200191508051906020019080838360005b838110156104b2578082015181840152602081019050610497565b50505050905090810190601f1680156104df5780820380516001836020036101000a031916815260200191505b509b50505050505050505050505060405180910390f35b34801561050257600080fd5b506105456004803603602081101561051957600080fd5b81019080803573ffffffffffffffffffffffffffffffffffffffff169060200190929190505050610f4f565b005b34801561055357600080fd5b5061055c610fa4565b604051808273ffffffffffffffffffffffffffffffffffffffff1673ffffffffffffffffffffffffffffffffffffffff16815260200191505060405180910390f35b3480156105aa57600080fd5b506105b3610fcd565b604051808215151515815260200191505060405180910390f35b6105f9600480360360208110156105e357600080fd5b8101908080359060200190929190505050611024565b005b34801561060757600080fd5b506106346004803603602081101561061e57600080fd5b81019080803590602001909291905050506111e0565b604051808273ffffffffffffffffffffffffffffffffffffffff1673ffffffffffffffffffffffffffffffffffffffff16815260200191505060405180910390f35b61072f6004803603602081101561068c57600080fd5b81019080803590602001906401000000008111156106a957600080fd5b8201836020820111156106bb57600080fd5b803590602001918460018302840111640100000000831117156106dd57600080fd5b91908080601f016020809104026020016040519081016040528093929190818152602001838380828437600081840152601f19601f820116905080830192505050505050509192919290505050611213565b005b6107676004803603604081101561074757600080fd5b810190808035906020019092919080359060200190929190505050611319565b005b34801561077557600080fd5b506107b86004803603602081101561078c57600080fd5b81019080803573ffffffffffffffffffffffffffffffffffffffff169060200190929190505050612368565b005b6107e6600480360360208110156107d057600080fd5b8101908080359060200190929190505050612385565b005b60075434146107f657600080fd5b600060405160200180807f626f7265644170650000000000000000000000000000000000000000000000008152506008019050604051602081830303815290604052805190602001209050606061084b612541565b90506000600b60009054906101000a900473ffffffffffffffffffffffffffffffffffffffff1673ffffffffffffffffffffffffffffffffffffffff166394eb170d856040518263ffffffff1660e01b8152600401808281526020019150506101406040518083038186803b1580156108c357600080fd5b505afa1580156108d7573d6000803e3d6000fd5b505050506040513d6101408110156108ee57600080fd5b81019080805190602001909291908051906020019092919080519060200190929190805190602001909291908051906020019092919080519060200190929190805190602001909291908051906020019092919080519060200190929190805190602001909291905050509091929394959697985090919293949596975090919293949596509091929394955090919293945090919293509091925090915090508091505061099e8383836125d9565b50505050565b806005600082815260200190815260200160002060009054906101000a900473ffffffffffffffffffffffffffffffffffffffff1673ffffffffffffffffffffffffffffffffffffffff163373ffffffffffffffffffffffffffffffffffffffff1614610a1057600080fd5b82600f600084815260200190815260200160002060006101000a81548173ffffffffffffffffffffffffffffffffffffffff021916908373ffffffffffffffffffffffffffffffffffffffff160217905550818373ffffffffffffffffffffffffffffffffffffffff163373ffffffffffffffffffffffffffffffffffffffff167f8c5be1e5ebec7d5bd14f71427d1e84f3dd0314c0f7b2291e5b200ac8c7c3b92560405160405180910390a4505050565b3373ffffffffffffffffffffffffffffffffffffffff166005600083815260200190815260200160002060009054906101000a900473ffffffffffffffffffffffffffffffffffffffff1673ffffffffffffffffffffffffffffffffffffffff161480610b8d57503373ffffffffffffffffffffffffffffffffffffffff16600f600083815260200190815260200160002060009054906101000a900473ffffffffffffffffffffffffffffffffffffffff1673ffffffffffffffffffffffffffffffffffffffff16145b610b9657600080fd5b610ba183838361297b565b505050565b610bae610fcd565b610bb757600080fd5b80600a60006101000a81548173ffffffffffffffffffffffffffffffffffffffff021916908373ffffffffffffffffffffffffffffffffffffffff16021790555050565b610c03610fcd565b610c0c57600080fd5b80600960006101000a81548173ffffffffffffffffffffffffffffffffffffffff021916908373ffffffffffffffffffffffffffffffffffffffff16021790555050565b60006005600083815260200190815260200160002060009054906101000a900473ffffffffffffffffffffffffffffffffffffffff169050919050565b6000600660008373ffffffffffffffffffffffffffffffffffffffff1673ffffffffffffffffffffffffffffffffffffffff168152602001908152602001600020549050919050565b610cde610fcd565b610ce757600080fd5b600073ffffffffffffffffffffffffffffffffffffffff166000809054906101000a900473ffffffffffffffffffffffffffffffffffffffff1673ffffffffffffffffffffffffffffffffffffffff167f8be0079c531659141344cd1fd0a4f28419497f9722a3daafe3b4186f6b6457e060405160405180910390a360008060006101000a81548173ffffffffffffffffffffffffffffffffffffffff021916908373ffffffffffffffffffffffffffffffffffffffff160217905550565b60048181548110610db357fe5b9060005260206000209060090201600091509050806000015490806001018054600181600116156101000203166002900480601f016020809104026020016040519081016040528092919081815260200182805460018160011615610100020316600290048015610e655780601f10610e3a57610100808354040283529160200191610e65565b820191906000526020600020905b815481529060010190602001808311610e4857829003601f168201915b505050505090806002018054600181600116156101000203166002900480601f016020809104026020016040519081016040528092919081815260200182805460018160011615610100020316600290048015610f035780601f10610ed857610100808354040283529160200191610f03565b820191906000526020600020905b815481529060010190602001808311610ee657829003601f168201915b5050505050908060030154908060040160009054906101000a900463ffffffff16908060050154908060060154908060070154908060080160009054906101000a900461ffff16905089565b610f57610fcd565b610f6057600080fd5b80600b60006101000a81548173ffffffffffffffffffffffffffffffffffffffff021916908373ffffffffffffffffffffffffffffffffffffffff16021790555050565b60008060009054906101000a900473ffffffffffffffffffffffffffffffffffffffff16905090565b60008060009054906101000a900473ffffffffffffffffffffffffffffffffffffffff1673ffffffffffffffffffffffffffffffffffffffff163373ffffffffffffffffffffffffffffffffffffffff1614905090565b600754341461103257600080fd5b600060405160200180807f6b6974747900000000000000000000000000000000000000000000000000000081525060050190506040516020818303038152906040528051906020012090506060611087612541565b90506000600960009054906101000a900473ffffffffffffffffffffffffffffffffffffffff1673ffffffffffffffffffffffffffffffffffffffff1663e98b7f4d856040518263ffffffff1660e01b8152600401808281526020019150506101406040518083038186803b1580156110ff57600080fd5b505afa158015611113573d6000803e3d6000fd5b505050506040513d61014081101561112a57600080fd5b8101908080519060200190929190805190602001909291908051906020019092919080519060200190929190805190602001909291908051906020019092919080519060200190929190805190602001909291908051906020019092919080519060200190929190505050909192939495969798509091929394959697509091929394959650909192939495509091929394509091929350909192509091509050809150506111da8383836125d9565b50505050565b60056020528060005260406000206000915054906101000a900473ffffffffffffffffffffffffffffffffffffffff1681565b600754341461122157600080fd5b6000600660003373ffffffffffffffffffffffffffffffffffffffff1673ffffffffffffffffffffffffffffffffffffffff168152602001908152602001600020541461126d57600080fd5b600060405160200180807f74726176656c6572000000000000000000000000000000000000000000000000815250600801905060405160208183030381529060405280519060200120905060006112f86040518060400160405280600881526020017f74726176656c6572000000000000000000000000000000000000000000000000815250612b59565b90506064818161130457fe5b06810390506113148284836125d9565b505050565b816005600082815260200190815260200160002060009054906101000a900473ffffffffffffffffffffffffffffffffffffffff1673ffffffffffffffffffffffffffffffffffffffff163373ffffffffffffffffffffffffffffffffffffffff161461138557600080fd5b816005600082815260200190815260200160002060009054906101000a900473ffffffffffffffffffffffffffffffffffffffff1673ffffffffffffffffffffffffffffffffffffffff163373ffffffffffffffffffffffffffffffffffffffff16146113f157600080fd5b60006004858154811061140057fe5b9060005260206000209060090201905060006004858154811061141f57fe5b9060005260206000209060090201905061143882612be7565b61144157600080fd5b61144a81612be7565b61145357600080fd5b600e54341461146157600080fd5b6000600282600001548460000154018161147757fe5b049050600060405160200180807f63797068657250756e6b00000000000000000000000000000000000000000000815250600a01905060405160208183030381529060405280519060200120846003015414801561151e575060405160200180807f74726176656c65720000000000000000000000000000000000000000000000008152506008019050604051602081830303815290604052805190602001208360030154145b806115c7575060405160200180807f74726176656c657200000000000000000000000000000000000000000000000081525060080190506040516020818303038152906040528051906020012084600301541480156115c6575060405160200180807f63797068657250756e6b00000000000000000000000000000000000000000000815250600a019050604051602081830303815290604052805190602001208360030154145b5b156116165760405160200180807f63797068657254726176656c6572000000000000000000000000000000000000815250600e0190506040516020818303038152906040528051906020012090505b60405160200180807f6b6974747900000000000000000000000000000000000000000000000000000081525060050190506040516020818303038152906040528051906020012084600301541480156116b8575060405160200180807f74726176656c65720000000000000000000000000000000000000000000000008152506008019050604051602081830303815290604052805190602001208360030154145b80611761575060405160200180807f74726176656c65720000000000000000000000000000000000000000000000008152506008019050604051602081830303815290604052805190602001208460030154148015611760575060405160200180807f6b697474790000000000000000000000000000000000000000000000000000008152506005019050604051602081830303815290604052805190602001208360030154145b5b156117b05760405160200180807f6b6974747954726176656c657200000000000000000000000000000000000000815250600d0190506040516020818303038152906040528051906020012090505b60405160200180807f626f7265644170650000000000000000000000000000000000000000000000008152506008019050604051602081830303815290604052805190602001208460030154148015611852575060405160200180807f74726176656c65720000000000000000000000000000000000000000000000008152506008019050604051602081830303815290604052805190602001208360030154145b806118fb575060405160200180807f74726176656c657200000000000000000000000000000000000000000000000081525060080190506040516020818303038152906040528051906020012084600301541480156118fa575060405160200180807f626f7265644170650000000000000000000000000000000000000000000000008152506008019050604051602081830303815290604052805190602001208360030154145b5b1561194a5760405160200180807f626f72656454726176656c657200000000000000000000000000000000000000815250600d0190506040516020818303038152906040528051906020012090505b60405160200180807f63797068657250756e6b00000000000000000000000000000000000000000000815250600a0190506040516020818303038152906040528051906020012084600301541480156119ec575060405160200180807f6b697474790000000000000000000000000000000000000000000000000000008152506005019050604051602081830303815290604052805190602001208360030154145b80611a95575060405160200180807f6b697474790000000000000000000000000000000000000000000000000000008152506005019050604051602081830303815290604052805190602001208460030154148015611a94575060405160200180807f63797068657250756e6b00000000000000000000000000000000000000000000815250600a019050604051602081830303815290604052805190602001208360030154145b5b15611ae45760405160200180807f6379706865724b69747479000000000000000000000000000000000000000000815250600b0190506040516020818303038152906040528051906020012090505b60405160200180807f63797068657250756e6b00000000000000000000000000000000000000000000815250600a019050604051602081830303815290604052805190602001208460030154148015611b86575060405160200180807f626f7265644170650000000000000000000000000000000000000000000000008152506008019050604051602081830303815290604052805190602001208360030154145b80611c2f575060405160200180807f626f7265644170650000000000000000000000000000000000000000000000008152506008019050604051602081830303815290604052805190602001208460030154148015611c2e575060405160200180807f63797068657250756e6b00000000000000000000000000000000000000000000815250600a019050604051602081830303815290604052805190602001208360030154145b5b15611c7e5760405160200180807f637970686572417065000000000000000000000000000000000000000000000081525060090190506040516020818303038152906040528051906020012090505b60405160200180807f6b697474790000000000000000000000000000000000000000000000000000008152506005019050604051602081830303815290604052805190602001208460030154148015611d20575060405160200180807f626f7265644170650000000000000000000000000000000000000000000000008152506008019050604051602081830303815290604052805190602001208360030154145b80611dc9575060405160200180807f626f7265644170650000000000000000000000000000000000000000000000008152506008019050604051602081830303815290604052805190602001208460030154148015611dc8575060405160200180807f6b697474790000000000000000000000000000000000000000000000000000008152506005019050604051602081830303815290604052805190602001208360030154145b5b15611e185760405160200180807f6b6974747900000000000000000000000000000000000000000000000000000081525060050190506040516020818303038152906040528051906020012090505b60405160200180807f74726176656c65720000000000000000000000000000000000000000000000008152506008019050604051602081830303815290604052805190602001208460030154148015611eba575060405160200180807f74726176656c65720000000000000000000000000000000000000000000000008152506008019050604051602081830303815290604052805190602001208360030154145b15611f095760405160200180807f74726176656c657200000000000000000000000000000000000000000000000081525060080190506040516020818303038152906040528051906020012090505b60405160200180807f6b697474790000000000000000000000000000000000000000000000000000008152506005019050604051602081830303815290604052805190602001208460030154148015611fab575060405160200180807f6b697474790000000000000000000000000000000000000000000000000000008152506005019050604051602081830303815290604052805190602001208360030154145b15611ffa5760405160200180807f6b6974747900000000000000000000000000000000000000000000000000000081525060050190506040516020818303038152906040528051906020012090505b60405160200180807f626f726564417065000000000000000000000000000000000000000000000000815250600801905060405160208183030381529060405280519060200120846003015414801561209c575060405160200180807f626f7265644170650000000000000000000000000000000000000000000000008152506008019050604051602081830303815290604052805190602001208360030154145b156120eb5760405160200180807f626f72656441706500000000000000000000000000000000000000000000000081525060080190506040516020818303038152906040528051906020012090505b60405160200180807f63797068657250756e6b00000000000000000000000000000000000000000000815250600a01905060405160208183030381529060405280519060200120846003015414801561218d575060405160200180807f63797068657250756e6b00000000000000000000000000000000000000000000815250600a019050604051602081830303815290604052805190602001208360030154145b156121e05760405160200180807f63797068657250756e6b00000000000000000000000000000000000000000000815250600a01905060405160208183030381529060405280519060200120905061222a565b60405160200180807f6e6577526163657300000000000000000000000000000000000000000000000081525060080190506040516020818303038152906040528051906020012090505b60006122366064612c0e565b9050600c5481111580156122625750600d548560080160009054906101000a900461ffff1661ffff1611155b156122d45761227982612273612541565b856125d9565b61228285612c9d565b61228b84612c9d565b6122b560018660080160009054906101000a900461ffff1661ffff16612cc790919063ffffffff16565b8560080160006101000a81548161ffff021916908361ffff1602179055505b600c54811180156122fd5750600d548560080160009054906101000a900461ffff1661ffff1611155b1561235d5761230b85612c9d565b61231484612c9d565b61233e60018660080160009054906101000a900461ffff1661ffff16612cc790919063ffffffff16565b8560080160006101000a81548161ffff021916908361ffff1602179055505b505050505050505050565b612370610fcd565b61237957600080fd5b61238281612ceb565b50565b600754341461239357600080fd5b600060405160200180807f63797068657250756e6b00000000000000000000000000000000000000000000815250600a01905060405160208183030381529060405280519060200120905060606123e8612541565b90506000600a60009054906101000a900473ffffffffffffffffffffffffffffffffffffffff1673ffffffffffffffffffffffffffffffffffffffff16632a417612856040518263ffffffff1660e01b8152600401808281526020019150506101406040518083038186803b15801561246057600080fd5b505afa158015612474573d6000803e3d6000fd5b505050506040513d61014081101561248b57600080fd5b81019080805190602001909291908051906020019092919080519060200190929190805190602001909291908051906020019092919080519060200190929190805190602001909291908051906020019092919080519060200190929190805190602001909291905050509091929394959697985090919293949596975090919293949596509091929394955090919293945090919293509091925090915090508091505061253b8383836125d9565b50505050565b60606000603290506060816125566064612c0e565b11612598576040518060400160405280600481526020017f6d616c650000000000000000000000000000000000000000000000000000000081525090506125d1565b6040518060400160405280600681526020017f66656d616c65000000000000000000000000000000000000000000000000000081525090505b809250505090565b60006003544201905060046040518061012001604052808481526020016040518060400160405280600681526020017f4e6f4e616d65000000000000000000000000000000000000000000000000000081525081526020018581526020018681526020018363ffffffff168152602001600081526020016000815260200160008152602001600061ffff16815250908060018154018082558091505090600182039060005260206000209060090201600090919290919091506000820151816000015560208201518160010190805190602001906126b8929190612e16565b5060408201518160020190805190602001906126d5929190612e16565b506060820151816003015560808201518160040160006101000a81548163ffffffff021916908363ffffffff16021790555060a0820151816005015560c0820151816006015560e082015181600701556101008201518160080160006101000a81548161ffff021916908361ffff16021790555050505060006001600480549050039050336005600083815260200190815260200160002060006101000a81548173ffffffffffffffffffffffffffffffffffffffff021916908373ffffffffffffffffffffffffffffffffffffffff1602179055506127fe6001600660003373ffffffffffffffffffffffffffffffffffffffff1673ffffffffffffffffffffffffffffffffffffffff16815260200190815260200160002054612de390919063ffffffff16565b600660003373ffffffffffffffffffffffffffffffffffffffff1673ffffffffffffffffffffffffffffffffffffffff168152602001908152602001600020819055507f678dbb6331d0cd0cd21ff45fcbb1bc795295619c327d618856814cc8530d54f78184868886600080600080604051808a815260200189815260200180602001806020018981526020018863ffffffff1663ffffffff1681526020018761ffff1681526020018661ffff1681526020018561ffff1681526020018461ffff168152602001838103835260068152602001807f4e6f4e616d65000000000000000000000000000000000000000000000000000081525060200183810382528a818151815260200191508051906020019080838360005b83811015612931578082015181840152602081019050612916565b50505050905090810190601f16801561295e5780820380516001836020036101000a031916815260200191505b509b50505050505050505050505060405180910390a15050505050565b6129ce6001600660008573ffffffffffffffffffffffffffffffffffffffff1673ffffffffffffffffffffffffffffffffffffffff16815260200190815260200160002054612de390919063ffffffff16565b600660008473ffffffffffffffffffffffffffffffffffffffff1673ffffffffffffffffffffffffffffffffffffffff16815260200190815260200160002081905550612a646001600660003373ffffffffffffffffffffffffffffffffffffffff1673ffffffffffffffffffffffffffffffffffffffff16815260200190815260200160002054612dff90919063ffffffff16565b600660003373ffffffffffffffffffffffffffffffffffffffff1673ffffffffffffffffffffffffffffffffffffffff16815260200190815260200160002081905550816005600083815260200190815260200160002060006101000a81548173ffffffffffffffffffffffffffffffffffffffff021916908373ffffffffffffffffffffffffffffffffffffffff160217905550808273ffffffffffffffffffffffffffffffffffffffff168473ffffffffffffffffffffffffffffffffffffffff167fddf252ad1be2c89b69c2b068fc378daa952ba7f163c4a11628f55a4df523b3ef60405160405180910390a4505050565b600080826040516020018082805190602001908083835b60208310612b935780518252602082019150602081019050602083039250612b70565b6001836020036101000a0380198251168184511680821785525050505050509050019150506040516020818303038152906040528051906020012060001c90506002548181612bde57fe5b06915050919050565b6000428260040160009054906101000a900463ffffffff1663ffffffff1611159050919050565b6000600860008154809291906001019190505550814233600854604051602001808481526020018373ffffffffffffffffffffffffffffffffffffffff1673ffffffffffffffffffffffffffffffffffffffff1660601b815260140182815260200193505050506040516020818303038152906040528051906020012060001c81612c9557fe5b069050919050565b60035442018160040160006101000a81548163ffffffff021916908363ffffffff16021790555050565b60008082840190508361ffff168161ffff161015612ce157fe5b8091505092915050565b600073ffffffffffffffffffffffffffffffffffffffff168173ffffffffffffffffffffffffffffffffffffffff161415612d2557600080fd5b8073ffffffffffffffffffffffffffffffffffffffff166000809054906101000a900473ffffffffffffffffffffffffffffffffffffffff1673ffffffffffffffffffffffffffffffffffffffff167f8be0079c531659141344cd1fd0a4f28419497f9722a3daafe3b4186f6b6457e060405160405180910390a3806000806101000a81548173ffffffffffffffffffffffffffffffffffffffff021916908373ffffffffffffffffffffffffffffffffffffffff16021790555050565b600080828401905083811015612df557fe5b8091505092915050565b600082821115612e0b57fe5b818303905092915050565b828054600181600116156101000203166002900490600052602060002090601f016020900481019282601f10612e5757805160ff1916838001178555612e85565b82800160010185558215612e85579182015b82811115612e84578251825591602001919060010190612e69565b5b509050612e929190612e96565b5090565b612eb891905b80821115612eb4576000816000905550600101612e9c565b5090565b9056fea265627a7a723158205fe329f1e00636d2a2909bac3810dfb3a993904db5bd259e25eb016b7b18669864736f6c63430005100032",
  "source": "// SPDX-License-Identifier: MIT\r\npragma solidity >=0.4.22 <0.9.0;\r\n\r\nimport \"./avatarownership.sol\";\r\n\r\ncontract CryptoAvatars is AvatarOwnership\r\n{\r\n\r\n\r\n}",
  "sourcePath": "C:\\Users\\pablo\\PycharmProjects\\LiveAndTravel\\contracts\\cryptoavatars.sol",
  "compiler": {
    "name": "solc",
    "version": "0.5.16+commit.9c3226ce.Emscripten.clang"
  },
  "schemaVersion": "3.4.4",
  "updatedAt": "2022-01-18T21:10:56.140Z",
  "networkType": "ethereum",
  "devdoc": {
    "methods": {}
  },
  "userdoc": {
    "methods": {}
  }
}