{
  "contractName": "PieceOwnership",
  "abi": [
    {
      "anonymous": false,
      "inputs": [
        {
          "indexed": true,
          "internalType": "address",
          "name": "_owner",
          "type": "address"
        },
        {
          "indexed": true,
          "internalType": "address",
          "name": "_approved",
          "type": "address"
        },
        {
          "indexed": true,
          "internalType": "uint256",
          "name": "_tokenId",
          "type": "uint256"
        }
      ],
      "name": "Approval",
      "type": "event"
    },
    {
      "anonymous": false,
      "inputs": [
        {
          "indexed": false,
          "internalType": "uint256",
          "name": "pieceId",
          "type": "uint256"
        },
        {
          "indexed": false,
          "internalType": "uint256",
          "name": "pieceDna",
          "type": "uint256"
        },
        {
          "indexed": false,
          "internalType": "bytes32",
          "name": "pieceClass",
          "type": "bytes32"
        },
        {
          "indexed": false,
          "internalType": "uint32",
          "name": "pieceReadyTime",
          "type": "uint32"
        },
        {
          "indexed": false,
          "internalType": "uint256",
          "name": "pieceCreationLoc",
          "type": "uint256"
        },
        {
          "indexed": false,
          "internalType": "uint16",
          "name": "pieceMergeCount",
          "type": "uint16"
        }
      ],
      "name": "NewPiece",
      "type": "event"
    },
    {
      "anonymous": false,
      "inputs": [
        {
          "indexed": true,
          "internalType": "address",
          "name": "previousOwner",
          "type": "address"
        },
        {
          "indexed": true,
          "internalType": "address",
          "name": "newOwner",
          "type": "address"
        }
      ],
      "name": "OwnershipTransferred",
      "type": "event"
    },
    {
      "anonymous": false,
      "inputs": [
        {
          "indexed": true,
          "internalType": "address",
          "name": "_from",
          "type": "address"
        },
        {
          "indexed": true,
          "internalType": "address",
          "name": "_to",
          "type": "address"
        },
        {
          "indexed": true,
          "internalType": "uint256",
          "name": "_tokenId",
          "type": "uint256"
        }
      ],
      "name": "Transfer",
      "type": "event"
    },
    {
      "constant": true,
      "inputs": [],
      "name": "isOwner",
      "outputs": [
        {
          "internalType": "bool",
          "name": "",
          "type": "bool"
        }
      ],
      "payable": false,
      "stateMutability": "view",
      "type": "function"
    },
    {
      "constant": false,
      "inputs": [
        {
          "internalType": "uint256",
          "name": "_pieceId",
          "type": "uint256"
        },
        {
          "internalType": "uint256",
          "name": "_targetPieceId",
          "type": "uint256"
        },
        {
          "internalType": "uint256",
          "name": "_curr_loc",
          "type": "uint256"
        }
      ],
      "name": "merge",
      "outputs": [],
      "payable": true,
      "stateMutability": "payable",
      "type": "function"
    },
    {
      "constant": false,
      "inputs": [
        {
          "internalType": "uint256",
          "name": "_itemId",
          "type": "uint256"
        },
        {
          "internalType": "uint256",
          "name": "_curr_loc",
          "type": "uint256"
        }
      ],
      "name": "migratePantsItem",
      "outputs": [],
      "payable": true,
      "stateMutability": "payable",
      "type": "function"
    },
    {
      "constant": false,
      "inputs": [
        {
          "internalType": "uint256",
          "name": "_itemId",
          "type": "uint256"
        },
        {
          "internalType": "uint256",
          "name": "_curr_loc",
          "type": "uint256"
        }
      ],
      "name": "migrateShirtItem",
      "outputs": [],
      "payable": true,
      "stateMutability": "payable",
      "type": "function"
    },
    {
      "constant": false,
      "inputs": [
        {
          "internalType": "uint256",
          "name": "_itemId",
          "type": "uint256"
        },
        {
          "internalType": "uint256",
          "name": "_curr_loc",
          "type": "uint256"
        }
      ],
      "name": "migrateShoesItem",
      "outputs": [],
      "payable": true,
      "stateMutability": "payable",
      "type": "function"
    },
    {
      "constant": false,
      "inputs": [
        {
          "internalType": "uint256",
          "name": "_itemId",
          "type": "uint256"
        },
        {
          "internalType": "uint256",
          "name": "_curr_loc",
          "type": "uint256"
        }
      ],
      "name": "migrateSnapbackItem",
      "outputs": [],
      "payable": true,
      "stateMutability": "payable",
      "type": "function"
    },
    {
      "constant": false,
      "inputs": [
        {
          "internalType": "uint256",
          "name": "_itemId",
          "type": "uint256"
        },
        {
          "internalType": "uint256",
          "name": "_curr_loc",
          "type": "uint256"
        }
      ],
      "name": "migrateSocksItem",
      "outputs": [],
      "payable": true,
      "stateMutability": "payable",
      "type": "function"
    },
    {
      "constant": false,
      "inputs": [
        {
          "internalType": "uint256",
          "name": "_itemId",
          "type": "uint256"
        },
        {
          "internalType": "uint256",
          "name": "_curr_loc",
          "type": "uint256"
        }
      ],
      "name": "migrateUnderwearItem",
      "outputs": [],
      "payable": true,
      "stateMutability": "payable",
      "type": "function"
    },
    {
      "constant": true,
      "inputs": [],
      "name": "owner",
      "outputs": [
        {
          "internalType": "address",
          "name": "",
          "type": "address"
        }
      ],
      "payable": false,
      "stateMutability": "view",
      "type": "function"
    },
    {
      "constant": true,
      "inputs": [
        {
          "internalType": "uint256",
          "name": "",
          "type": "uint256"
        }
      ],
      "name": "pieceToOwner",
      "outputs": [
        {
          "internalType": "address",
          "name": "",
          "type": "address"
        }
      ],
      "payable": false,
      "stateMutability": "view",
      "type": "function"
    },
    {
      "constant": true,
      "inputs": [
        {
          "internalType": "uint256",
          "name": "",
          "type": "uint256"
        }
      ],
      "name": "pieces",
      "outputs": [
        {
          "internalType": "uint256",
          "name": "pieceDna",
          "type": "uint256"
        },
        {
          "internalType": "bytes32",
          "name": "pieceClass",
          "type": "bytes32"
        },
        {
          "internalType": "uint32",
          "name": "pieceReadyTime",
          "type": "uint32"
        },
        {
          "internalType": "uint256",
          "name": "pieceCreationLoc",
          "type": "uint256"
        },
        {
          "internalType": "uint16",
          "name": "mergeCount",
          "type": "uint16"
        }
      ],
      "payable": false,
      "stateMutability": "view",
      "type": "function"
    },
    {
      "constant": false,
      "inputs": [],
      "name": "renounceOwnership",
      "outputs": [],
      "payable": false,
      "stateMutability": "nonpayable",
      "type": "function"
    },
    {
      "constant": false,
      "inputs": [
        {
          "internalType": "address",
          "name": "_address",
          "type": "address"
        }
      ],
      "name": "setHoodieContractAddress",
      "outputs": [],
      "payable": false,
      "stateMutability": "nonpayable",
      "type": "function"
    },
    {
      "constant": false,
      "inputs": [
        {
          "internalType": "address",
          "name": "_address",
          "type": "address"
        }
      ],
      "name": "setPantsContractAddress",
      "outputs": [],
      "payable": false,
      "stateMutability": "nonpayable",
      "type": "function"
    },
    {
      "constant": false,
      "inputs": [
        {
          "internalType": "address",
          "name": "_address",
          "type": "address"
        }
      ],
      "name": "setShirtContractAddress",
      "outputs": [],
      "payable": false,
      "stateMutability": "nonpayable",
      "type": "function"
    },
    {
      "constant": false,
      "inputs": [
        {
          "internalType": "address",
          "name": "_address",
          "type": "address"
        }
      ],
      "name": "setShoesContractAddress",
      "outputs": [],
      "payable": false,
      "stateMutability": "nonpayable",
      "type": "function"
    },
    {
      "constant": false,
      "inputs": [
        {
          "internalType": "address",
          "name": "_address",
          "type": "address"
        }
      ],
      "name": "setSnapbackContractAddress",
      "outputs": [],
      "payable": false,
      "stateMutability": "nonpayable",
      "type": "function"
    },
    {
      "constant": false,
      "inputs": [
        {
          "internalType": "address",
          "name": "_address",
          "type": "address"
        }
      ],
      "name": "setSocksContractAddress",
      "outputs": [],
      "payable": false,
      "stateMutability": "nonpayable",
      "type": "function"
    },
    {
      "constant": false,
      "inputs": [
        {
          "internalType": "address",
          "name": "_address",
          "type": "address"
        }
      ],
      "name": "setUnderwearContractAddress",
      "outputs": [],
      "payable": false,
      "stateMutability": "nonpayable",
      "type": "function"
    },
    {
      "constant": false,
      "inputs": [
        {
          "internalType": "address",
          "name": "newOwner",
          "type": "address"
        }
      ],
      "name": "transferOwnership",
      "outputs": [],
      "payable": false,
      "stateMutability": "nonpayable",
      "type": "function"
    },
    {
      "constant": true,
      "inputs": [
        {
          "internalType": "address",
          "name": "_owner",
          "type": "address"
        }
      ],
      "name": "balanceOf",
      "outputs": [
        {
          "internalType": "uint256",
          "name": "",
          "type": "uint256"
        }
      ],
      "payable": false,
      "stateMutability": "view",
      "type": "function"
    },
    {
      "constant": true,
      "inputs": [
        {
          "internalType": "uint256",
          "name": "_tokenId",
          "type": "uint256"
        }
      ],
      "name": "ownerOf",
      "outputs": [
        {
          "internalType": "address",
          "name": "",
          "type": "address"
        }
      ],
      "payable": false,
      "stateMutability": "view",
      "type": "function"
    },
    {
      "constant": false,
      "inputs": [
        {
          "internalType": "address",
          "name": "_from",
          "type": "address"
        },
        {
          "internalType": "address",
          "name": "_to",
          "type": "address"
        },
        {
          "internalType": "uint256",
          "name": "_tokenId",
          "type": "uint256"
        }
      ],
      "name": "transferFrom",
      "outputs": [],
      "payable": true,
      "stateMutability": "payable",
      "type": "function"
    },
    {
      "constant": false,
      "inputs": [
        {
          "internalType": "address",
          "name": "_approved",
          "type": "address"
        },
        {
          "internalType": "uint256",
          "name": "_tokenId",
          "type": "uint256"
        }
      ],
      "name": "approve",
      "outputs": [],
      "payable": true,
      "stateMutability": "payable",
      "type": "function"
    }
  ],
  "bytecode": "0x60806040526010600155600154600a0a600255620151806003556000600755670de0b6b3a7640000600855605f601055600160115567016345785d8a0000601255336000806101000a81548173ffffffffffffffffffffffffffffffffffffffff021916908373ffffffffffffffffffffffffffffffffffffffff1602179055506000809054906101000a900473ffffffffffffffffffffffffffffffffffffffff1673ffffffffffffffffffffffffffffffffffffffff16600073ffffffffffffffffffffffffffffffffffffffff167f8be0079c531659141344cd1fd0a4f28419497f9722a3daafe3b4186f6b6457e060405160405180910390a3612d0d8061010b6000396000f3fe60806040526004361061014b5760003560e01c80637a43061f116100b6578063c78309f51161006f578063c78309f5146106d8578063cd90cb9814610710578063cfd720ec14610748578063e14d485b14610780578063f2fde38b146107d1578063f56fa8d4146108225761014b565b80637a43061f146104f95780637be41814146105315780638c081f5d146105825780638da5cb5b146105d35780638f32d59b1461062a5780638f64be30146106595761014b565b80634f1b3e3e116101085780634f1b3e3e1461031e5780635a2e4bd91461036f5780636352211e146103b15780636c492f3d1461042c57806370a082311461047d578063715018a6146104e25761014b565b8063095ea7b3146101505780631507a3311461019e57806323b872dd146101d6578063241ec36d1461024457806327f1a4f3146102955780634720833f146102e6575b600080fd5b61019c6004803603604081101561016657600080fd5b81019080803573ffffffffffffffffffffffffffffffffffffffff1690602001909291908035906020019092919050505061089d565b005b6101d4600480360360408110156101b457600080fd5b8101908080359060200190929190803590602001909291905050506109bb565b005b610242600480360360608110156101ec57600080fd5b81019080803573ffffffffffffffffffffffffffffffffffffffff169060200190929190803573ffffffffffffffffffffffffffffffffffffffff16906020019092919080359060200190929190505050610b44565b005b34801561025057600080fd5b506102936004803603602081101561026757600080fd5b81019080803573ffffffffffffffffffffffffffffffffffffffff169060200190929190505050610c28565b005b3480156102a157600080fd5b506102e4600480360360208110156102b857600080fd5b81019080803573ffffffffffffffffffffffffffffffffffffffff169060200190929190505050610c7d565b005b61031c600480360360408110156102fc57600080fd5b810190808035906020019092919080359060200190929190505050610cd2565b005b34801561032a57600080fd5b5061036d6004803603602081101561034157600080fd5b81019080803573ffffffffffffffffffffffffffffffffffffffff169060200190929190505050610e5b565b005b6103af6004803603606081101561038557600080fd5b81019080803590602001909291908035906020019092919080359060200190929190505050610eb0565b005b3480156103bd57600080fd5b506103ea600480360360208110156103d457600080fd5b8101908080359060200190929190505050611c8d565b604051808273ffffffffffffffffffffffffffffffffffffffff1673ffffffffffffffffffffffffffffffffffffffff16815260200191505060405180910390f35b34801561043857600080fd5b5061047b6004803603602081101561044f57600080fd5b81019080803573ffffffffffffffffffffffffffffffffffffffff169060200190929190505050611cca565b005b34801561048957600080fd5b506104cc600480360360208110156104a057600080fd5b81019080803573ffffffffffffffffffffffffffffffffffffffff169060200190929190505050611d1f565b6040518082815260200191505060405180910390f35b3480156104ee57600080fd5b506104f7611d68565b005b61052f6004803603604081101561050f57600080fd5b810190808035906020019092919080359060200190929190505050611e38565b005b34801561053d57600080fd5b506105806004803603602081101561055457600080fd5b81019080803573ffffffffffffffffffffffffffffffffffffffff169060200190929190505050611fc1565b005b34801561058e57600080fd5b506105d1600480360360208110156105a557600080fd5b81019080803573ffffffffffffffffffffffffffffffffffffffff169060200190929190505050612016565b005b3480156105df57600080fd5b506105e861206b565b604051808273ffffffffffffffffffffffffffffffffffffffff1673ffffffffffffffffffffffffffffffffffffffff16815260200191505060405180910390f35b34801561063657600080fd5b5061063f612094565b604051808215151515815260200191505060405180910390f35b34801561066557600080fd5b506106926004803603602081101561067c57600080fd5b81019080803590602001909291905050506120eb565b604051808681526020018581526020018463ffffffff1663ffffffff1681526020018381526020018261ffff1661ffff1681526020019550505050505060405180910390f35b61070e600480360360408110156106ee57600080fd5b81019080803590602001909291908035906020019092919050505061214c565b005b6107466004803603604081101561072657600080fd5b8101908080359060200190929190803590602001909291905050506122d5565b005b61077e6004803603604081101561075e57600080fd5b81019080803590602001909291908035906020019092919050505061245e565b005b34801561078c57600080fd5b506107cf600480360360208110156107a357600080fd5b81019080803573ffffffffffffffffffffffffffffffffffffffff1690602001909291905050506125e7565b005b3480156107dd57600080fd5b50610820600480360360208110156107f457600080fd5b81019080803573ffffffffffffffffffffffffffffffffffffffff16906020019092919050505061263c565b005b34801561082e57600080fd5b5061085b6004803603602081101561084557600080fd5b8101908080359060200190929190505050612659565b604051808273ffffffffffffffffffffffffffffffffffffffff1673ffffffffffffffffffffffffffffffffffffffff16815260200191505060405180910390f35b806005600082815260200190815260200160002060009054906101000a900473ffffffffffffffffffffffffffffffffffffffff1673ffffffffffffffffffffffffffffffffffffffff163373ffffffffffffffffffffffffffffffffffffffff161461090957600080fd5b826013600084815260200190815260200160002060006101000a81548173ffffffffffffffffffffffffffffffffffffffff021916908373ffffffffffffffffffffffffffffffffffffffff160217905550818373ffffffffffffffffffffffffffffffffffffffff163373ffffffffffffffffffffffffffffffffffffffff167f8c5be1e5ebec7d5bd14f71427d1e84f3dd0314c0f7b2291e5b200ac8c7c3b92560405160405180910390a4505050565b60085434146109c957600080fd5b600060405160200180807f50616e747300000000000000000000000000000000000000000000000000000081525060050190506040516020818303038152906040528051906020012090506000600b60009054906101000a900473ffffffffffffffffffffffffffffffffffffffff1673ffffffffffffffffffffffffffffffffffffffff16634337932d856040518263ffffffff1660e01b8152600401808281526020019150506101006040518083038186803b158015610a8a57600080fd5b505afa158015610a9e573d6000803e3d6000fd5b505050506040513d610100811015610ab557600080fd5b810190808051906020019092919080519060200190929190805190602001909291908051906020019092919080519060200190929190805190602001909291908051906020019092919080519060200190929190505050909192939495965090919293949550909192939450909192935090919250909150905080915050610b3e82828561268c565b50505050565b3373ffffffffffffffffffffffffffffffffffffffff166005600083815260200190815260200160002060009054906101000a900473ffffffffffffffffffffffffffffffffffffffff1673ffffffffffffffffffffffffffffffffffffffff161480610c0f57503373ffffffffffffffffffffffffffffffffffffffff166013600083815260200190815260200160002060009054906101000a900473ffffffffffffffffffffffffffffffffffffffff1673ffffffffffffffffffffffffffffffffffffffff16145b610c1857600080fd5b610c238383836128cb565b505050565b610c30612094565b610c3957600080fd5b80600b60006101000a81548173ffffffffffffffffffffffffffffffffffffffff021916908373ffffffffffffffffffffffffffffffffffffffff16021790555050565b610c85612094565b610c8e57600080fd5b80600c60006101000a81548173ffffffffffffffffffffffffffffffffffffffff021916908373ffffffffffffffffffffffffffffffffffffffff16021790555050565b6008543414610ce057600080fd5b600060405160200180807f536869727400000000000000000000000000000000000000000000000000000081525060050190506040516020818303038152906040528051906020012090506000600d60009054906101000a900473ffffffffffffffffffffffffffffffffffffffff1673ffffffffffffffffffffffffffffffffffffffff16634c9c05ea856040518263ffffffff1660e01b8152600401808281526020019150506101006040518083038186803b158015610da157600080fd5b505afa158015610db5573d6000803e3d6000fd5b505050506040513d610100811015610dcc57600080fd5b810190808051906020019092919080519060200190929190805190602001909291908051906020019092919080519060200190929190805190602001909291908051906020019092919080519060200190929190505050909192939495965090919293949550909192939450909192935090919250909150905080915050610e5582828561268c565b50505050565b610e63612094565b610e6c57600080fd5b80600f60006101000a81548173ffffffffffffffffffffffffffffffffffffffff021916908373ffffffffffffffffffffffffffffffffffffffff16021790555050565b826005600082815260200190815260200160002060009054906101000a900473ffffffffffffffffffffffffffffffffffffffff1673ffffffffffffffffffffffffffffffffffffffff163373ffffffffffffffffffffffffffffffffffffffff1614610f1c57600080fd5b826005600082815260200190815260200160002060009054906101000a900473ffffffffffffffffffffffffffffffffffffffff1673ffffffffffffffffffffffffffffffffffffffff163373ffffffffffffffffffffffffffffffffffffffff1614610f8857600080fd5b600060048681548110610f9757fe5b90600052602060002090600502019050600060048681548110610fb657fe5b90600052602060002090600502019050610fcf82612aa9565b610fd857600080fd5b610fe181612aa9565b610fea57600080fd5b6012543414610ff857600080fd5b6000600282600001548460000154018161100e57fe5b049050600060405160200180807f53686f657300000000000000000000000000000000000000000000000000000081525060050190506040516020818303038152906040528051906020012084600101541480156110c15750826001015460405160200180807f54726176656c205061696e747300000000000000000000000000000000000000815250600d01828152602001915050604051602081830303815290604052805190602001208360010154145b8061116a575060405160200180807f54726176656c205061696e747300000000000000000000000000000000000000815250600d019050604051602081830303815290604052805190602001208460010154148015611169575060405160200180807f53686f65730000000000000000000000000000000000000000000000000000008152506005019050604051602081830303815290604052805190602001208360010154145b5b156111b95760405160200180807f5061696e7465642053686f657300000000000000000000000000000000000000815250600d0190506040516020818303038152906040528051906020012090505b60405160200180807f536f636b7300000000000000000000000000000000000000000000000000000081525060050190506040516020818303038152906040528051906020012084600101541480156112675750826001015460405160200180807f54726176656c205061696e747300000000000000000000000000000000000000815250600d01828152602001915050604051602081830303815290604052805190602001208360010154145b80611310575060405160200180807f54726176656c205061696e747300000000000000000000000000000000000000815250600d01905060405160208183030381529060405280519060200120846001015414801561130f575060405160200180807f536f636b730000000000000000000000000000000000000000000000000000008152506005019050604051602081830303815290604052805190602001208360010154145b5b1561135f5760405160200180807f5061696e74656420536f636b7300000000000000000000000000000000000000815250600d0190506040516020818303038152906040528051906020012090505b60405160200180807f50616e7473000000000000000000000000000000000000000000000000000000815250600501905060405160208183030381529060405280519060200120846001015414801561140d5750826001015460405160200180807f54726176656c205061696e747300000000000000000000000000000000000000815250600d01828152602001915050604051602081830303815290604052805190602001208360010154145b806114b6575060405160200180807f54726176656c205061696e747300000000000000000000000000000000000000815250600d0190506040516020818303038152906040528051906020012084600101541480156114b5575060405160200180807f50616e74730000000000000000000000000000000000000000000000000000008152506005019050604051602081830303815290604052805190602001208360010154145b5b156115055760405160200180807f5061696e7465642050616e747300000000000000000000000000000000000000815250600d0190506040516020818303038152906040528051906020012090505b60405160200180807f556e64657277656172000000000000000000000000000000000000000000000081525060090190506040516020818303038152906040528051906020012084600101541480156115b35750826001015460405160200180807f54726176656c205061696e747300000000000000000000000000000000000000815250600d01828152602001915050604051602081830303815290604052805190602001208360010154145b8061165c575060405160200180807f54726176656c205061696e747300000000000000000000000000000000000000815250600d01905060405160208183030381529060405280519060200120846001015414801561165b575060405160200180807f556e6465727765617200000000000000000000000000000000000000000000008152506009019050604051602081830303815290604052805190602001208360010154145b5b156116ab5760405160200180807f5061696e74656420556e6465727765617200000000000000000000000000000081525060110190506040516020818303038152906040528051906020012090505b60405160200180807f536869727400000000000000000000000000000000000000000000000000000081525060050190506040516020818303038152906040528051906020012084600101541480156117595750826001015460405160200180807f54726176656c205061696e747300000000000000000000000000000000000000815250600d01828152602001915050604051602081830303815290604052805190602001208360010154145b80611802575060405160200180807f54726176656c205061696e747300000000000000000000000000000000000000815250600d019050604051602081830303815290604052805190602001208460010154148015611801575060405160200180807f53686972740000000000000000000000000000000000000000000000000000008152506005019050604051602081830303815290604052805190602001208360010154145b5b156118515760405160200180807f5061696e74656420536869727400000000000000000000000000000000000000815250600d0190506040516020818303038152906040528051906020012090505b60405160200180807f486f6f646965000000000000000000000000000000000000000000000000000081525060060190506040516020818303038152906040528051906020012084600101541480156118ff5750826001015460405160200180807f54726176656c205061696e747300000000000000000000000000000000000000815250600d01828152602001915050604051602081830303815290604052805190602001208360010154145b806119a8575060405160200180807f54726176656c205061696e747300000000000000000000000000000000000000815250600d0190506040516020818303038152906040528051906020012084600101541480156119a7575060405160200180807f486f6f64696500000000000000000000000000000000000000000000000000008152506006019050604051602081830303815290604052805190602001208360010154145b5b156119f75760405160200180807f5061696e74656420486f6f646965000000000000000000000000000000000000815250600e0190506040516020818303038152906040528051906020012090505b60405160200180807f536e61706261636b0000000000000000000000000000000000000000000000008152506008019050604051602081830303815290604052805190602001208460010154148015611aa55750826001015460405160200180807f54726176656c205061696e747300000000000000000000000000000000000000815250600d01828152602001915050604051602081830303815290604052805190602001208360010154145b80611b4e575060405160200180807f54726176656c205061696e747300000000000000000000000000000000000000815250600d019050604051602081830303815290604052805190602001208460010154148015611b4d575060405160200180807f536e61706261636b0000000000000000000000000000000000000000000000008152506008019050604051602081830303815290604052805190602001208360010154145b5b15611b9d5760405160200180807f5061696e74656420536e61706261636b0000000000000000000000000000000081525060100190506040516020818303038152906040528051906020012090505b6000611ba96064612ad0565b90506010548111158015611bd557506011548560040160009054906101000a900461ffff1661ffff1611155b15611c4057611be582848a61268c565b611bee85612b5f565b611bf784612b5f565b611c2160018660040160009054906101000a900461ffff1661ffff16612b8990919063ffffffff16565b8560040160006101000a81548161ffff021916908361ffff1602179055505b60105481118015611c6957506011548560040160009054906101000a900461ffff1661ffff1611155b15611c8157611c7785612b5f565b611c8084612b5f565b5b50505050505050505050565b60006005600083815260200190815260200160002060009054906101000a900473ffffffffffffffffffffffffffffffffffffffff169050919050565b611cd2612094565b611cdb57600080fd5b80600a60006101000a81548173ffffffffffffffffffffffffffffffffffffffff021916908373ffffffffffffffffffffffffffffffffffffffff16021790555050565b6000600660008373ffffffffffffffffffffffffffffffffffffffff1673ffffffffffffffffffffffffffffffffffffffff168152602001908152602001600020549050919050565b611d70612094565b611d7957600080fd5b600073ffffffffffffffffffffffffffffffffffffffff166000809054906101000a900473ffffffffffffffffffffffffffffffffffffffff1673ffffffffffffffffffffffffffffffffffffffff167f8be0079c531659141344cd1fd0a4f28419497f9722a3daafe3b4186f6b6457e060405160405180910390a360008060006101000a81548173ffffffffffffffffffffffffffffffffffffffff021916908373ffffffffffffffffffffffffffffffffffffffff160217905550565b6008543414611e4657600080fd5b600060405160200180807f536e61706261636b00000000000000000000000000000000000000000000000081525060080190506040516020818303038152906040528051906020012090506000600d60009054906101000a900473ffffffffffffffffffffffffffffffffffffffff1673ffffffffffffffffffffffffffffffffffffffff16634c9c05ea856040518263ffffffff1660e01b8152600401808281526020019150506101006040518083038186803b158015611f0757600080fd5b505afa158015611f1b573d6000803e3d6000fd5b505050506040513d610100811015611f3257600080fd5b810190808051906020019092919080519060200190929190805190602001909291908051906020019092919080519060200190929190805190602001909291908051906020019092919080519060200190929190505050909192939495965090919293949550909192939450909192935090919250909150905080915050611fbb82828561268c565b50505050565b611fc9612094565b611fd257600080fd5b80600d60006101000a81548173ffffffffffffffffffffffffffffffffffffffff021916908373ffffffffffffffffffffffffffffffffffffffff16021790555050565b61201e612094565b61202757600080fd5b80600960006101000a81548173ffffffffffffffffffffffffffffffffffffffff021916908373ffffffffffffffffffffffffffffffffffffffff16021790555050565b60008060009054906101000a900473ffffffffffffffffffffffffffffffffffffffff16905090565b60008060009054906101000a900473ffffffffffffffffffffffffffffffffffffffff1673ffffffffffffffffffffffffffffffffffffffff163373ffffffffffffffffffffffffffffffffffffffff1614905090565b600481815481106120f857fe5b90600052602060002090600502016000915090508060000154908060010154908060020160009054906101000a900463ffffffff16908060030154908060040160009054906101000a900461ffff16905085565b600854341461215a57600080fd5b600060405160200180807f53686f657300000000000000000000000000000000000000000000000000000081525060050190506040516020818303038152906040528051906020012090506000600960009054906101000a900473ffffffffffffffffffffffffffffffffffffffff1673ffffffffffffffffffffffffffffffffffffffff1663a5f23e1d856040518263ffffffff1660e01b8152600401808281526020019150506101006040518083038186803b15801561221b57600080fd5b505afa15801561222f573d6000803e3d6000fd5b505050506040513d61010081101561224657600080fd5b8101908080519060200190929190805190602001909291908051906020019092919080519060200190929190805190602001909291908051906020019092919080519060200190929190805190602001909291905050509091929394959650909192939495509091929394509091929350909192509091509050809150506122cf82828561268c565b50505050565b60085434146122e357600080fd5b600060405160200180807f556e64657277656172000000000000000000000000000000000000000000000081525060090190506040516020818303038152906040528051906020012090506000600c60009054906101000a900473ffffffffffffffffffffffffffffffffffffffff1673ffffffffffffffffffffffffffffffffffffffff166325f76202856040518263ffffffff1660e01b8152600401808281526020019150506101006040518083038186803b1580156123a457600080fd5b505afa1580156123b8573d6000803e3d6000fd5b505050506040513d6101008110156123cf57600080fd5b81019080805190602001909291908051906020019092919080519060200190929190805190602001909291908051906020019092919080519060200190929190805190602001909291908051906020019092919050505090919293949596509091929394955090919293945090919293509091925090915090508091505061245882828561268c565b50505050565b600854341461246c57600080fd5b600060405160200180807f536f636b7300000000000000000000000000000000000000000000000000000081525060050190506040516020818303038152906040528051906020012090506000600a60009054906101000a900473ffffffffffffffffffffffffffffffffffffffff1673ffffffffffffffffffffffffffffffffffffffff1663ee5394de856040518263ffffffff1660e01b8152600401808281526020019150506101006040518083038186803b15801561252d57600080fd5b505afa158015612541573d6000803e3d6000fd5b505050506040513d61010081101561255857600080fd5b8101908080519060200190929190805190602001909291908051906020019092919080519060200190929190805190602001909291908051906020019092919080519060200190929190805190602001909291905050509091929394959650909192939495509091929394509091929350909192509091509050809150506125e182828561268c565b50505050565b6125ef612094565b6125f857600080fd5b80600e60006101000a81548173ffffffffffffffffffffffffffffffffffffffff021916908373ffffffffffffffffffffffffffffffffffffffff16021790555050565b612644612094565b61264d57600080fd5b61265681612bad565b50565b60056020528060005260406000206000915054906101000a900473ffffffffffffffffffffffffffffffffffffffff1681565b60006003544201905060046040518060a001604052808581526020018681526020018363ffffffff168152602001848152602001600061ffff1681525090806001815401808255809150509060018203906000526020600020906005020160009091929091909150600082015181600001556020820151816001015560408201518160020160006101000a81548163ffffffff021916908363ffffffff1602179055506060820151816003015560808201518160040160006101000a81548161ffff021916908361ffff16021790555050505060006001600480549050039050336005600083815260200190815260200160002060006101000a81548173ffffffffffffffffffffffffffffffffffffffff021916908373ffffffffffffffffffffffffffffffffffffffff1602179055506128116001600660003373ffffffffffffffffffffffffffffffffffffffff1673ffffffffffffffffffffffffffffffffffffffff16815260200190815260200160002054612ca590919063ffffffff16565b600660003373ffffffffffffffffffffffffffffffffffffffff1673ffffffffffffffffffffffffffffffffffffffff168152602001908152602001600020819055507f5ad354523f49f6a431c943b15028530250f3c9c42deb03b1bc586d7698af018881858785876000604051808781526020018681526020018581526020018463ffffffff1663ffffffff1681526020018381526020018261ffff168152602001965050505050505060405180910390a15050505050565b61291e6001600660008573ffffffffffffffffffffffffffffffffffffffff1673ffffffffffffffffffffffffffffffffffffffff16815260200190815260200160002054612ca590919063ffffffff16565b600660008473ffffffffffffffffffffffffffffffffffffffff1673ffffffffffffffffffffffffffffffffffffffff168152602001908152602001600020819055506129b46001600660003373ffffffffffffffffffffffffffffffffffffffff1673ffffffffffffffffffffffffffffffffffffffff16815260200190815260200160002054612cc190919063ffffffff16565b600660003373ffffffffffffffffffffffffffffffffffffffff1673ffffffffffffffffffffffffffffffffffffffff16815260200190815260200160002081905550816005600083815260200190815260200160002060006101000a81548173ffffffffffffffffffffffffffffffffffffffff021916908373ffffffffffffffffffffffffffffffffffffffff160217905550808273ffffffffffffffffffffffffffffffffffffffff168473ffffffffffffffffffffffffffffffffffffffff167fddf252ad1be2c89b69c2b068fc378daa952ba7f163c4a11628f55a4df523b3ef60405160405180910390a4505050565b6000428260020160009054906101000a900463ffffffff1663ffffffff1611159050919050565b6000600760008154809291906001019190505550814233600754604051602001808481526020018373ffffffffffffffffffffffffffffffffffffffff1673ffffffffffffffffffffffffffffffffffffffff1660601b815260140182815260200193505050506040516020818303038152906040528051906020012060001c81612b5757fe5b069050919050565b60035442018160020160006101000a81548163ffffffff021916908363ffffffff16021790555050565b60008082840190508361ffff168161ffff161015612ba357fe5b8091505092915050565b600073ffffffffffffffffffffffffffffffffffffffff168173ffffffffffffffffffffffffffffffffffffffff161415612be757600080fd5b8073ffffffffffffffffffffffffffffffffffffffff166000809054906101000a900473ffffffffffffffffffffffffffffffffffffffff1673ffffffffffffffffffffffffffffffffffffffff167f8be0079c531659141344cd1fd0a4f28419497f9722a3daafe3b4186f6b6457e060405160405180910390a3806000806101000a81548173ffffffffffffffffffffffffffffffffffffffff021916908373ffffffffffffffffffffffffffffffffffffffff16021790555050565b600080828401905083811015612cb757fe5b8091505092915050565b600082821115612ccd57fe5b81830390509291505056fea265627a7a7231582037f3c0562147750a623857729cf0fcbd548af79df279f0ac3a274c5030e2e9fd64736f6c63430005100032",
  "source": "// SPDX-License-Identifier: MIT\r\npragma solidity >=0.4.22 <0.9.0;\r\n\r\nimport \"./piecemerging.sol\";\r\nimport \"./erc721.sol\";\r\nimport \"./safemath.sol\";\r\n\r\ncontract PieceOwnership is PieceMerging, ERC721 {\r\n\r\n  using SafeMath for uint256;\r\n\r\n  mapping (uint => address) Approvals;\r\n\r\n  function balanceOf(address _owner) external view returns (uint256) {\r\n    return ownerPieceCount[_owner];\r\n  }\r\n\r\n  function ownerOf(uint256 _tokenId) external view returns (address) {\r\n    return pieceToOwner[_tokenId];\r\n  }\r\n\r\n  function _transfer(address _from, address _to, uint256 _tokenId) private {\r\n    ownerPieceCount[_to] = ownerPieceCount[_to].add(1);\r\n    ownerPieceCount[msg.sender] = ownerPieceCount[msg.sender].sub(1);\r\n    pieceToOwner[_tokenId] = _to;\r\n    emit Transfer(_from, _to, _tokenId);\r\n  }\r\n\r\n  function transferFrom(address _from, address _to, uint256 _tokenId) external payable {\r\n    require (pieceToOwner[_tokenId] == msg.sender || Approvals[_tokenId] == msg.sender);\r\n    _transfer(_from, _to, _tokenId);\r\n  }\r\n\r\n  function approve(address _approved, uint256 _tokenId) external payable onlyOwnerOfPiece(_tokenId) {\r\n    Approvals[_tokenId] = _approved;\r\n    emit Approval(msg.sender, _approved, _tokenId);\r\n  }\r\n\r\n}\r\n",
  "sourcePath": "C:\\Users\\pablo\\PycharmProjects\\LiveAndTravel\\contracts\\pieceownership.sol",
  "compiler": {
    "name": "solc",
    "version": "0.5.16+commit.9c3226ce.Emscripten.clang"
  },
  "schemaVersion": "3.4.4",
  "updatedAt": "2022-01-18T21:10:52.380Z",
  "devdoc": {
    "methods": {}
  },
  "userdoc": {
    "methods": {}
  }
}