{
  "contractName": "PieceMerging",
  "abi": [
    {
      "anonymous": false,
      "inputs": [
        {
          "indexed": false,
          "internalType": "uint256",
          "name": "pieceId",
          "type": "uint256"
        },
        {
          "indexed": false,
          "internalType": "uint256",
          "name": "pieceDna",
          "type": "uint256"
        },
        {
          "indexed": false,
          "internalType": "bytes32",
          "name": "pieceClass",
          "type": "bytes32"
        },
        {
          "indexed": false,
          "internalType": "uint32",
          "name": "pieceReadyTime",
          "type": "uint32"
        },
        {
          "indexed": false,
          "internalType": "uint256",
          "name": "pieceCreationLoc",
          "type": "uint256"
        },
        {
          "indexed": false,
          "internalType": "uint16",
          "name": "pieceMergeCount",
          "type": "uint16"
        }
      ],
      "name": "NewPiece",
      "type": "event"
    },
    {
      "anonymous": false,
      "inputs": [
        {
          "indexed": true,
          "internalType": "address",
          "name": "previousOwner",
          "type": "address"
        },
        {
          "indexed": true,
          "internalType": "address",
          "name": "newOwner",
          "type": "address"
        }
      ],
      "name": "OwnershipTransferred",
      "type": "event"
    },
    {
      "inputs": [],
      "name": "isOwner",
      "outputs": [
        {
          "internalType": "bool",
          "name": "",
          "type": "bool"
        }
      ],
      "stateMutability": "view",
      "type": "function"
    },
    {
      "inputs": [
        {
          "internalType": "uint256",
          "name": "_itemId",
          "type": "uint256"
        },
        {
          "internalType": "uint256",
          "name": "_curr_loc",
          "type": "uint256"
        }
      ],
      "name": "migratePantsItem",
      "outputs": [],
      "stateMutability": "payable",
      "type": "function"
    },
    {
      "inputs": [
        {
          "internalType": "uint256",
          "name": "_itemId",
          "type": "uint256"
        },
        {
          "internalType": "uint256",
          "name": "_curr_loc",
          "type": "uint256"
        }
      ],
      "name": "migrateShirtItem",
      "outputs": [],
      "stateMutability": "payable",
      "type": "function"
    },
    {
      "inputs": [
        {
          "internalType": "uint256",
          "name": "_itemId",
          "type": "uint256"
        },
        {
          "internalType": "uint256",
          "name": "_curr_loc",
          "type": "uint256"
        }
      ],
      "name": "migrateShoesItem",
      "outputs": [],
      "stateMutability": "payable",
      "type": "function"
    },
    {
      "inputs": [
        {
          "internalType": "uint256",
          "name": "_itemId",
          "type": "uint256"
        },
        {
          "internalType": "uint256",
          "name": "_curr_loc",
          "type": "uint256"
        }
      ],
      "name": "migrateSnapbackItem",
      "outputs": [],
      "stateMutability": "payable",
      "type": "function"
    },
    {
      "inputs": [
        {
          "internalType": "uint256",
          "name": "_itemId",
          "type": "uint256"
        },
        {
          "internalType": "uint256",
          "name": "_curr_loc",
          "type": "uint256"
        }
      ],
      "name": "migrateSocksItem",
      "outputs": [],
      "stateMutability": "payable",
      "type": "function"
    },
    {
      "inputs": [
        {
          "internalType": "uint256",
          "name": "_itemId",
          "type": "uint256"
        },
        {
          "internalType": "uint256",
          "name": "_curr_loc",
          "type": "uint256"
        }
      ],
      "name": "migrateUnderwearItem",
      "outputs": [],
      "stateMutability": "payable",
      "type": "function"
    },
    {
      "inputs": [],
      "name": "owner",
      "outputs": [
        {
          "internalType": "address",
          "name": "",
          "type": "address"
        }
      ],
      "stateMutability": "view",
      "type": "function"
    },
    {
      "inputs": [
        {
          "internalType": "uint256",
          "name": "",
          "type": "uint256"
        }
      ],
      "name": "pieceToOwner",
      "outputs": [
        {
          "internalType": "address",
          "name": "",
          "type": "address"
        }
      ],
      "stateMutability": "view",
      "type": "function"
    },
    {
      "inputs": [
        {
          "internalType": "uint256",
          "name": "",
          "type": "uint256"
        }
      ],
      "name": "pieces",
      "outputs": [
        {
          "internalType": "uint256",
          "name": "pieceDna",
          "type": "uint256"
        },
        {
          "internalType": "bytes32",
          "name": "pieceClass",
          "type": "bytes32"
        },
        {
          "internalType": "uint32",
          "name": "pieceReadyTime",
          "type": "uint32"
        },
        {
          "internalType": "uint256",
          "name": "pieceCreationLoc",
          "type": "uint256"
        },
        {
          "internalType": "uint16",
          "name": "mergeCount",
          "type": "uint16"
        }
      ],
      "stateMutability": "view",
      "type": "function"
    },
    {
      "inputs": [],
      "name": "renounceOwnership",
      "outputs": [],
      "stateMutability": "nonpayable",
      "type": "function"
    },
    {
      "inputs": [
        {
          "internalType": "address",
          "name": "_address",
          "type": "address"
        }
      ],
      "name": "setHoodieContractAddress",
      "outputs": [],
      "stateMutability": "nonpayable",
      "type": "function"
    },
    {
      "inputs": [
        {
          "internalType": "address",
          "name": "_address",
          "type": "address"
        }
      ],
      "name": "setPantsContractAddress",
      "outputs": [],
      "stateMutability": "nonpayable",
      "type": "function"
    },
    {
      "inputs": [
        {
          "internalType": "address",
          "name": "_address",
          "type": "address"
        }
      ],
      "name": "setShirtContractAddress",
      "outputs": [],
      "stateMutability": "nonpayable",
      "type": "function"
    },
    {
      "inputs": [
        {
          "internalType": "address",
          "name": "_address",
          "type": "address"
        }
      ],
      "name": "setShoesContractAddress",
      "outputs": [],
      "stateMutability": "nonpayable",
      "type": "function"
    },
    {
      "inputs": [
        {
          "internalType": "address",
          "name": "_address",
          "type": "address"
        }
      ],
      "name": "setSnapbackContractAddress",
      "outputs": [],
      "stateMutability": "nonpayable",
      "type": "function"
    },
    {
      "inputs": [
        {
          "internalType": "address",
          "name": "_address",
          "type": "address"
        }
      ],
      "name": "setSocksContractAddress",
      "outputs": [],
      "stateMutability": "nonpayable",
      "type": "function"
    },
    {
      "inputs": [
        {
          "internalType": "address",
          "name": "_address",
          "type": "address"
        }
      ],
      "name": "setUnderwearContractAddress",
      "outputs": [],
      "stateMutability": "nonpayable",
      "type": "function"
    },
    {
      "inputs": [
        {
          "internalType": "address",
          "name": "newOwner",
          "type": "address"
        }
      ],
      "name": "transferOwnership",
      "outputs": [],
      "stateMutability": "nonpayable",
      "type": "function"
    },
    {
      "inputs": [
        {
          "internalType": "uint256",
          "name": "_pieceId",
          "type": "uint256"
        },
        {
          "internalType": "uint256",
          "name": "_targetPieceId",
          "type": "uint256"
        },
        {
          "internalType": "uint256",
          "name": "_curr_loc",
          "type": "uint256"
        }
      ],
      "name": "merge",
      "outputs": [],
      "stateMutability": "payable",
      "type": "function"
    }
  ],
  "bytecode": "0x60806040526010600155600154600a6200001a9190620002a7565b600255620151806003556000600755670de0b6b3a7640000600855605f601055600160115567016345785d8a00006012553480156200005857600080fd5b50336000806101000a81548173ffffffffffffffffffffffffffffffffffffffff021916908373ffffffffffffffffffffffffffffffffffffffff16021790555060008054906101000a900473ffffffffffffffffffffffffffffffffffffffff1673ffffffffffffffffffffffffffffffffffffffff16600073ffffffffffffffffffffffffffffffffffffffff167f8be0079c531659141344cd1fd0a4f28419497f9722a3daafe3b4186f6b6457e060405160405180910390a3620002f8565b7f4e487b7100000000000000000000000000000000000000000000000000000000600052601160045260246000fd5b60008160011c9050919050565b6000808291508390505b6001851115620001a85780860481111562000180576200017f6200011a565b5b6001851615620001905780820291505b8081029050620001a08562000149565b945062000160565b94509492505050565b600082620001c3576001905062000296565b81620001d3576000905062000296565b8160018114620001ec5760028114620001f7576200022d565b600191505062000296565b60ff8411156200020c576200020b6200011a565b5b8360020a9150848211156200022657620002256200011a565b5b5062000296565b5060208310610133831016604e8410600b8410161715620002675782820a9050838111156200026157620002606200011a565b5b62000296565b62000276848484600162000156565b9250905081840481111562000290576200028f6200011a565b5b81810290505b9392505050565b6000819050919050565b6000620002b4826200029d565b9150620002c1836200029d565b9250620002f07fffffffffffffffffffffffffffffffffffffffffffffffffffffffffffffffff8484620001b1565b905092915050565b61297380620003086000396000f3fe60806040526004361061011f5760003560e01c80638c081f5d116100a0578063cd90cb9811610064578063cd90cb9814610354578063cfd720ec14610370578063e14d485b1461038c578063f2fde38b146103b5578063f56fa8d4146103de5761011f565b80638c081f5d146102785780638da5cb5b146102a15780638f32d59b146102cc5780638f64be30146102f7578063c78309f5146103385761011f565b80635a2e4bd9116100e75780635a2e4bd9146101d75780636c492f3d146101f3578063715018a61461021c5780637a43061f146102335780637be418141461024f5761011f565b80631507a33114610124578063241ec36d1461014057806327f1a4f3146101695780634720833f146101925780634f1b3e3e146101ae575b600080fd5b61013e60048036038101906101399190611c53565b61041b565b005b34801561014c57600080fd5b5061016760048036038101906101629190611cf1565b610529565b005b34801561017557600080fd5b50610190600480360381019061018b9190611cf1565b61057e565b005b6101ac60048036038101906101a79190611c53565b6105d3565b005b3480156101ba57600080fd5b506101d560048036038101906101d09190611cf1565b6106e1565b005b6101f160048036038101906101ec9190611d1e565b610736565b005b3480156101ff57600080fd5b5061021a60048036038101906102159190611cf1565b61105c565b005b34801561022857600080fd5b506102316110b1565b005b61024d60048036038101906102489190611c53565b611180565b005b34801561025b57600080fd5b5061027660048036038101906102719190611cf1565b61128e565b005b34801561028457600080fd5b5061029f600480360381019061029a9190611cf1565b6112e3565b005b3480156102ad57600080fd5b506102b6611338565b6040516102c39190611d80565b60405180910390f35b3480156102d857600080fd5b506102e1611361565b6040516102ee9190611db6565b60405180910390f35b34801561030357600080fd5b5061031e60048036038101906103199190611dd1565b6113b8565b60405161032f959493929190611e62565b60405180910390f35b610352600480360381019061034d9190611c53565b61141c565b005b61036e60048036038101906103699190611c53565b61152a565b005b61038a60048036038101906103859190611c53565b611638565b005b34801561039857600080fd5b506103b360048036038101906103ae9190611cf1565b611746565b005b3480156103c157600080fd5b506103dc60048036038101906103d79190611cf1565b61179b565b005b3480156103ea57600080fd5b5061040560048036038101906104009190611dd1565b6117b8565b6040516104129190611d80565b60405180910390f35b600854341461042957600080fd5b600060405160200161043a90611f0c565b6040516020818303038152906040528051906020012090506000600b60009054906101000a900473ffffffffffffffffffffffffffffffffffffffff1673ffffffffffffffffffffffffffffffffffffffff16634337932d856040518263ffffffff1660e01b81526004016104af9190611f21565b61010060405180830381865afa1580156104cd573d6000803e3d6000fd5b505050506040513d601f19601f820116820180604052508101906104f19190611f7d565b9091929394959650909192939495509091929394509091929350909192509091509050809150506105238282856117eb565b50505050565b610531611361565b61053a57600080fd5b80600b60006101000a81548173ffffffffffffffffffffffffffffffffffffffff021916908373ffffffffffffffffffffffffffffffffffffffff16021790555050565b610586611361565b61058f57600080fd5b80600c60006101000a81548173ffffffffffffffffffffffffffffffffffffffff021916908373ffffffffffffffffffffffffffffffffffffffff16021790555050565b60085434146105e157600080fd5b60006040516020016105f29061207f565b6040516020818303038152906040528051906020012090506000600d60009054906101000a900473ffffffffffffffffffffffffffffffffffffffff1673ffffffffffffffffffffffffffffffffffffffff16634c9c05ea856040518263ffffffff1660e01b81526004016106679190611f21565b61010060405180830381865afa158015610685573d6000803e3d6000fd5b505050506040513d601f19601f820116820180604052508101906106a99190611f7d565b9091929394959650909192939495509091929394509091929350909192509091509050809150506106db8282856117eb565b50505050565b6106e9611361565b6106f257600080fd5b80600f60006101000a81548173ffffffffffffffffffffffffffffffffffffffff021916908373ffffffffffffffffffffffffffffffffffffffff16021790555050565b826005600082815260200190815260200160002060009054906101000a900473ffffffffffffffffffffffffffffffffffffffff1673ffffffffffffffffffffffffffffffffffffffff163373ffffffffffffffffffffffffffffffffffffffff16146107a257600080fd5b826005600082815260200190815260200160002060009054906101000a900473ffffffffffffffffffffffffffffffffffffffff1673ffffffffffffffffffffffffffffffffffffffff163373ffffffffffffffffffffffffffffffffffffffff161461080e57600080fd5b60006004868154811061082457610823612094565b5b9060005260206000209060050201905060006004868154811061084a57610849612094565b5b9060005260206000209060050201905061086382611a0b565b61086c57600080fd5b61087581611a0b565b61087e57600080fd5b601254341461088c57600080fd5b60006002826000015484600001546108a491906120f2565b6108ae9190612177565b905060006040516020016108c1906121f4565b604051602081830303815290604052805190602001208460010154148015610916575082600101546040516020016108f99190612276565b604051602081830303815290604052805190602001208360010154145b8061097b575060405160200161092b9061229c565b60405160208183030381529060405280519060200120846001015414801561097a575060405160200161095d906121f4565b604051602081830303815290604052805190602001208360010154145b5b156109a85760405160200161098f906122fd565b6040516020818303038152906040528051906020012090505b6040516020016109b79061235e565b604051602081830303815290604052805190602001208460010154148015610a0c575082600101546040516020016109ef9190612276565b604051602081830303815290604052805190602001208360010154145b80610a715750604051602001610a219061229c565b604051602081830303815290604052805190602001208460010154148015610a705750604051602001610a539061235e565b604051602081830303815290604052805190602001208360010154145b5b15610a9e57604051602001610a85906123bf565b6040516020818303038152906040528051906020012090505b604051602001610aad90611f0c565b604051602081830303815290604052805190602001208460010154148015610b0257508260010154604051602001610ae59190612276565b604051602081830303815290604052805190602001208360010154145b80610b675750604051602001610b179061229c565b604051602081830303815290604052805190602001208460010154148015610b665750604051602001610b4990611f0c565b604051602081830303815290604052805190602001208360010154145b5b15610b9457604051602001610b7b90612420565b6040516020818303038152906040528051906020012090505b604051602001610ba390612481565b604051602081830303815290604052805190602001208460010154148015610bf857508260010154604051602001610bdb9190612276565b604051602081830303815290604052805190602001208360010154145b80610c5d5750604051602001610c0d9061229c565b604051602081830303815290604052805190602001208460010154148015610c5c5750604051602001610c3f90612481565b604051602081830303815290604052805190602001208360010154145b5b15610c8a57604051602001610c71906124e2565b6040516020818303038152906040528051906020012090505b604051602001610c999061207f565b604051602081830303815290604052805190602001208460010154148015610cee57508260010154604051602001610cd19190612276565b604051602081830303815290604052805190602001208360010154145b80610d535750604051602001610d039061229c565b604051602081830303815290604052805190602001208460010154148015610d525750604051602001610d359061207f565b604051602081830303815290604052805190602001208360010154145b5b15610d8057604051602001610d6790612543565b6040516020818303038152906040528051906020012090505b604051602001610d8f906125a4565b604051602081830303815290604052805190602001208460010154148015610de457508260010154604051602001610dc79190612276565b604051602081830303815290604052805190602001208360010154145b80610e495750604051602001610df99061229c565b604051602081830303815290604052805190602001208460010154148015610e485750604051602001610e2b906125a4565b604051602081830303815290604052805190602001208360010154145b5b15610e7657604051602001610e5d90612605565b6040516020818303038152906040528051906020012090505b604051602001610e8590612666565b604051602081830303815290604052805190602001208460010154148015610eda57508260010154604051602001610ebd9190612276565b604051602081830303815290604052805190602001208360010154145b80610f3f5750604051602001610eef9061229c565b604051602081830303815290604052805190602001208460010154148015610f3e5750604051602001610f2190612666565b604051602081830303815290604052805190602001208360010154145b5b15610f6c57604051602001610f53906126c7565b6040516020818303038152906040528051906020012090505b6000610f786064611a32565b90506010548111158015610fa457506011548560040160009054906101000a900461ffff1661ffff1611155b1561100f57610fb482848a6117eb565b610fbd85611a8e565b610fc684611a8e565b610ff060018660040160009054906101000a900461ffff1661ffff16611ac190919063ffffffff16565b8560040160006101000a81548161ffff021916908361ffff1602179055505b6010548111801561103857506011548560040160009054906101000a900461ffff1661ffff1611155b156110505761104685611a8e565b61104f84611a8e565b5b50505050505050505050565b611064611361565b61106d57600080fd5b80600a60006101000a81548173ffffffffffffffffffffffffffffffffffffffff021916908373ffffffffffffffffffffffffffffffffffffffff16021790555050565b6110b9611361565b6110c257600080fd5b600073ffffffffffffffffffffffffffffffffffffffff1660008054906101000a900473ffffffffffffffffffffffffffffffffffffffff1673ffffffffffffffffffffffffffffffffffffffff167f8be0079c531659141344cd1fd0a4f28419497f9722a3daafe3b4186f6b6457e060405160405180910390a360008060006101000a81548173ffffffffffffffffffffffffffffffffffffffff021916908373ffffffffffffffffffffffffffffffffffffffff160217905550565b600854341461118e57600080fd5b600060405160200161119f90612666565b6040516020818303038152906040528051906020012090506000600d60009054906101000a900473ffffffffffffffffffffffffffffffffffffffff1673ffffffffffffffffffffffffffffffffffffffff16634c9c05ea856040518263ffffffff1660e01b81526004016112149190611f21565b61010060405180830381865afa158015611232573d6000803e3d6000fd5b505050506040513d601f19601f820116820180604052508101906112569190611f7d565b9091929394959650909192939495509091929394509091929350909192509091509050809150506112888282856117eb565b50505050565b611296611361565b61129f57600080fd5b80600d60006101000a81548173ffffffffffffffffffffffffffffffffffffffff021916908373ffffffffffffffffffffffffffffffffffffffff16021790555050565b6112eb611361565b6112f457600080fd5b80600960006101000a81548173ffffffffffffffffffffffffffffffffffffffff021916908373ffffffffffffffffffffffffffffffffffffffff16021790555050565b60008060009054906101000a900473ffffffffffffffffffffffffffffffffffffffff16905090565b60008060009054906101000a900473ffffffffffffffffffffffffffffffffffffffff1673ffffffffffffffffffffffffffffffffffffffff163373ffffffffffffffffffffffffffffffffffffffff1614905090565b600481815481106113c857600080fd5b90600052602060002090600502016000915090508060000154908060010154908060020160009054906101000a900463ffffffff16908060030154908060040160009054906101000a900461ffff16905085565b600854341461142a57600080fd5b600060405160200161143b906121f4565b6040516020818303038152906040528051906020012090506000600960009054906101000a900473ffffffffffffffffffffffffffffffffffffffff1673ffffffffffffffffffffffffffffffffffffffff1663a5f23e1d856040518263ffffffff1660e01b81526004016114b09190611f21565b61010060405180830381865afa1580156114ce573d6000803e3d6000fd5b505050506040513d601f19601f820116820180604052508101906114f29190611f7d565b9091929394959650909192939495509091929394509091929350909192509091509050809150506115248282856117eb565b50505050565b600854341461153857600080fd5b600060405160200161154990612481565b6040516020818303038152906040528051906020012090506000600c60009054906101000a900473ffffffffffffffffffffffffffffffffffffffff1673ffffffffffffffffffffffffffffffffffffffff166325f76202856040518263ffffffff1660e01b81526004016115be9190611f21565b61010060405180830381865afa1580156115dc573d6000803e3d6000fd5b505050506040513d601f19601f820116820180604052508101906116009190611f7d565b9091929394959650909192939495509091929394509091929350909192509091509050809150506116328282856117eb565b50505050565b600854341461164657600080fd5b60006040516020016116579061235e565b6040516020818303038152906040528051906020012090506000600a60009054906101000a900473ffffffffffffffffffffffffffffffffffffffff1673ffffffffffffffffffffffffffffffffffffffff1663ee5394de856040518263ffffffff1660e01b81526004016116cc9190611f21565b61010060405180830381865afa1580156116ea573d6000803e3d6000fd5b505050506040513d601f19601f8201168201806040525081019061170e9190611f7d565b9091929394959650909192939495509091929394509091929350909192509091509050809150506117408282856117eb565b50505050565b61174e611361565b61175757600080fd5b80600e60006101000a81548173ffffffffffffffffffffffffffffffffffffffff021916908373ffffffffffffffffffffffffffffffffffffffff16021790555050565b6117a3611361565b6117ac57600080fd5b6117b581611af5565b50565b60056020528060005260406000206000915054906101000a900473ffffffffffffffffffffffffffffffffffffffff1681565b6000600354426117fb91906120f2565b905060046040518060a001604052808581526020018681526020018363ffffffff168152602001848152602001600061ffff168152509080600181540180825580915050600190039060005260206000209060050201600090919091909150600082015181600001556020820151816001015560408201518160020160006101000a81548163ffffffff021916908363ffffffff1602179055506060820151816003015560808201518160040160006101000a81548161ffff021916908361ffff1602179055505050600060016004805490506118d891906126dc565b9050336005600083815260200190815260200160002060006101000a81548173ffffffffffffffffffffffffffffffffffffffff021916908373ffffffffffffffffffffffffffffffffffffffff16021790555061197f6001600660003373ffffffffffffffffffffffffffffffffffffffff1673ffffffffffffffffffffffffffffffffffffffff16815260200190815260200160002054611bec90919063ffffffff16565b600660003373ffffffffffffffffffffffffffffffffffffffff1673ffffffffffffffffffffffffffffffffffffffff168152602001908152602001600020819055507f5ad354523f49f6a431c943b15028530250f3c9c42deb03b1bc586d7698af0188818587858760006040516119fc96959493929190612755565b60405180910390a15050505050565b6000428260020160009054906101000a900463ffffffff1663ffffffff1611159050919050565b600060076000815480929190611a47906127b6565b9190505550814233600754604051602001611a6493929190612868565b6040516020818303038152906040528051906020012060001c611a8791906128a5565b9050919050565b60035442611a9c91906120f2565b8160020160006101000a81548163ffffffff021916908363ffffffff16021790555050565b6000808284611ad091906128d6565b90508361ffff168161ffff161015611aeb57611aea61290e565b5b8091505092915050565b600073ffffffffffffffffffffffffffffffffffffffff168173ffffffffffffffffffffffffffffffffffffffff161415611b2f57600080fd5b8073ffffffffffffffffffffffffffffffffffffffff1660008054906101000a900473ffffffffffffffffffffffffffffffffffffffff1673ffffffffffffffffffffffffffffffffffffffff167f8be0079c531659141344cd1fd0a4f28419497f9722a3daafe3b4186f6b6457e060405160405180910390a3806000806101000a81548173ffffffffffffffffffffffffffffffffffffffff021916908373ffffffffffffffffffffffffffffffffffffffff16021790555050565b6000808284611bfb91906120f2565b905083811015611c0e57611c0d61290e565b5b8091505092915050565b600080fd5b6000819050919050565b611c3081611c1d565b8114611c3b57600080fd5b50565b600081359050611c4d81611c27565b92915050565b60008060408385031215611c6a57611c69611c18565b5b6000611c7885828601611c3e565b9250506020611c8985828601611c3e565b9150509250929050565b600073ffffffffffffffffffffffffffffffffffffffff82169050919050565b6000611cbe82611c93565b9050919050565b611cce81611cb3565b8114611cd957600080fd5b50565b600081359050611ceb81611cc5565b92915050565b600060208284031215611d0757611d06611c18565b5b6000611d1584828501611cdc565b91505092915050565b600080600060608486031215611d3757611d36611c18565b5b6000611d4586828701611c3e565b9350506020611d5686828701611c3e565b9250506040611d6786828701611c3e565b9150509250925092565b611d7a81611cb3565b82525050565b6000602082019050611d956000830184611d71565b92915050565b60008115159050919050565b611db081611d9b565b82525050565b6000602082019050611dcb6000830184611da7565b92915050565b600060208284031215611de757611de6611c18565b5b6000611df584828501611c3e565b91505092915050565b611e0781611c1d565b82525050565b6000819050919050565b611e2081611e0d565b82525050565b600063ffffffff82169050919050565b611e3f81611e26565b82525050565b600061ffff82169050919050565b611e5c81611e45565b82525050565b600060a082019050611e776000830188611dfe565b611e846020830187611e17565b611e916040830186611e36565b611e9e6060830185611dfe565b611eab6080830184611e53565b9695505050505050565b600081905092915050565b7f50616e7473000000000000000000000000000000000000000000000000000000600082015250565b6000611ef6600583611eb5565b9150611f0182611ec0565b600582019050919050565b6000611f1782611ee9565b9150819050919050565b6000602082019050611f366000830184611dfe565b92915050565b611f4581611d9b565b8114611f5057600080fd5b50565b600081519050611f6281611f3c565b92915050565b600081519050611f7781611c27565b92915050565b600080600080600080600080610100898b031215611f9e57611f9d611c18565b5b6000611fac8b828c01611f53565b9850506020611fbd8b828c01611f68565b9750506040611fce8b828c01611f68565b9650506060611fdf8b828c01611f68565b9550506080611ff08b828c01611f68565b94505060a06120018b828c01611f68565b93505060c06120128b828c01611f68565b92505060e06120238b828c01611f68565b9150509295985092959890939650565b7f5368697274000000000000000000000000000000000000000000000000000000600082015250565b6000612069600583611eb5565b915061207482612033565b600582019050919050565b600061208a8261205c565b9150819050919050565b7f4e487b7100000000000000000000000000000000000000000000000000000000600052603260045260246000fd5b7f4e487b7100000000000000000000000000000000000000000000000000000000600052601160045260246000fd5b60006120fd82611c1d565b915061210883611c1d565b9250827fffffffffffffffffffffffffffffffffffffffffffffffffffffffffffffffff0382111561213d5761213c6120c3565b5b828201905092915050565b7f4e487b7100000000000000000000000000000000000000000000000000000000600052601260045260246000fd5b600061218282611c1d565b915061218d83611c1d565b92508261219d5761219c612148565b5b828204905092915050565b7f53686f6573000000000000000000000000000000000000000000000000000000600082015250565b60006121de600583611eb5565b91506121e9826121a8565b600582019050919050565b60006121ff826121d1565b9150819050919050565b7f54726176656c205061696e747300000000000000000000000000000000000000600082015250565b600061223f600d83611eb5565b915061224a82612209565b600d82019050919050565b6000819050919050565b61227061226b82611e0d565b612255565b82525050565b600061228182612232565b915061228d828461225f565b60208201915081905092915050565b60006122a782612232565b9150819050919050565b7f5061696e7465642053686f657300000000000000000000000000000000000000600082015250565b60006122e7600d83611eb5565b91506122f2826122b1565b600d82019050919050565b6000612308826122da565b9150819050919050565b7f536f636b73000000000000000000000000000000000000000000000000000000600082015250565b6000612348600583611eb5565b915061235382612312565b600582019050919050565b60006123698261233b565b9150819050919050565b7f5061696e74656420536f636b7300000000000000000000000000000000000000600082015250565b60006123a9600d83611eb5565b91506123b482612373565b600d82019050919050565b60006123ca8261239c565b9150819050919050565b7f5061696e7465642050616e747300000000000000000000000000000000000000600082015250565b600061240a600d83611eb5565b9150612415826123d4565b600d82019050919050565b600061242b826123fd565b9150819050919050565b7f556e646572776561720000000000000000000000000000000000000000000000600082015250565b600061246b600983611eb5565b915061247682612435565b600982019050919050565b600061248c8261245e565b9150819050919050565b7f5061696e74656420556e64657277656172000000000000000000000000000000600082015250565b60006124cc601183611eb5565b91506124d782612496565b601182019050919050565b60006124ed826124bf565b9150819050919050565b7f5061696e74656420536869727400000000000000000000000000000000000000600082015250565b600061252d600d83611eb5565b9150612538826124f7565b600d82019050919050565b600061254e82612520565b9150819050919050565b7f486f6f6469650000000000000000000000000000000000000000000000000000600082015250565b600061258e600683611eb5565b915061259982612558565b600682019050919050565b60006125af82612581565b9150819050919050565b7f5061696e74656420486f6f646965000000000000000000000000000000000000600082015250565b60006125ef600e83611eb5565b91506125fa826125b9565b600e82019050919050565b6000612610826125e2565b9150819050919050565b7f536e61706261636b000000000000000000000000000000000000000000000000600082015250565b6000612650600883611eb5565b915061265b8261261a565b600882019050919050565b600061267182612643565b9150819050919050565b7f5061696e74656420536e61706261636b00000000000000000000000000000000600082015250565b60006126b1601083611eb5565b91506126bc8261267b565b601082019050919050565b60006126d2826126a4565b9150819050919050565b60006126e782611c1d565b91506126f283611c1d565b925082821015612705576127046120c3565b5b828203905092915050565b6000819050919050565b6000819050919050565b600061273f61273a61273584612710565b61271a565b611e45565b9050919050565b61274f81612724565b82525050565b600060c08201905061276a6000830189611dfe565b6127776020830188611dfe565b6127846040830187611e17565b6127916060830186611e36565b61279e6080830185611dfe565b6127ab60a0830184612746565b979650505050505050565b60006127c182611c1d565b91507fffffffffffffffffffffffffffffffffffffffffffffffffffffffffffffffff8214156127f4576127f36120c3565b5b600182019050919050565b6000819050919050565b61281a61281582611c1d565b6127ff565b82525050565b60008160601b9050919050565b600061283882612820565b9050919050565b600061284a8261282d565b9050919050565b61286261285d82611cb3565b61283f565b82525050565b60006128748286612809565b6020820191506128848285612851565b6014820191506128948284612809565b602082019150819050949350505050565b60006128b082611c1d565b91506128bb83611c1d565b9250826128cb576128ca612148565b5b828206905092915050565b60006128e182611e45565b91506128ec83611e45565b92508261ffff03821115612903576129026120c3565b5b828201905092915050565b7f4e487b7100000000000000000000000000000000000000000000000000000000600052600160045260246000fdfea2646970667358221220feadd7ac270d349322dcff759f8d3aa4c3cb8a9e360f7096e69378cb9ba2141b64736f6c634300080a0033",
  "immutableReferences": {},
  "source": "// SPDX-License-Identifier: MIT\r\npragma solidity >=0.4.22 <0.9.0;\r\n\r\nimport \"./piecemigration.sol\";\r\nimport \"./safemath.sol\";\r\n\r\n\r\ncontract PieceMerging is PieceMigration {\r\n\r\n    using SafeMath16 for uint16;\r\n\r\n    uint mergeProbability = 95;\r\n    uint maxMerge = 1;\r\n    modifier onlyOwnerOfPiece(uint _pieceId) {\r\n        require(msg.sender == pieceToOwner[_pieceId]);\r\n        _;\r\n    }\r\n\r\n    function _triggerCd(Piece storage _piece) internal {\r\n        _piece.pieceReadyTime = uint32(block.timestamp + pieceCdTime);\r\n    }\r\n\r\n    function _isReady(Piece storage _piece) internal view returns (bool) {\r\n       return (_piece.pieceReadyTime <= block.timestamp);\r\n    }\r\n\r\n    uint mergeFee = 0.1 ether; //live tokens\r\n\r\n    function merge(uint _pieceId, uint _targetPieceId, uint256 _curr_loc) public onlyOwnerOfPiece(_pieceId) onlyOwnerOfPiece(_targetPieceId) payable {\r\n        Piece storage myPiece = pieces[_pieceId];\r\n        Piece storage targetPiece = pieces[_targetPieceId];\r\n        require(_isReady(myPiece));\r\n        require (_isReady(targetPiece));\r\n        require(msg.value == mergeFee);\r\n        uint newDna = (myPiece.pieceDna + targetPiece.pieceDna) / 2;\r\n        bytes32 newClass;\r\n        if ((((myPiece.pieceClass == keccak256(abi.encodePacked(\"Shoes\"))) && (targetPiece.pieceClass == keccak256(abi.encodePacked(\"Travel Paints\",targetPiece.pieceClass))))) || (((myPiece.pieceClass == keccak256(abi.encodePacked(\"Travel Paints\"))) && (targetPiece.pieceClass == keccak256(abi.encodePacked(\"Shoes\")))))) {\r\n            newClass = keccak256(abi.encodePacked(\"Painted Shoes\"));\r\n        }\r\n        if ((((myPiece.pieceClass == keccak256(abi.encodePacked(\"Socks\"))) && (targetPiece.pieceClass == keccak256(abi.encodePacked(\"Travel Paints\",targetPiece.pieceClass))))) || (((myPiece.pieceClass == keccak256(abi.encodePacked(\"Travel Paints\"))) && (targetPiece.pieceClass == keccak256(abi.encodePacked(\"Socks\")))))) {\r\n            newClass = keccak256(abi.encodePacked(\"Painted Socks\"));\r\n        }\r\n        if ((((myPiece.pieceClass == keccak256(abi.encodePacked(\"Pants\"))) && (targetPiece.pieceClass == keccak256(abi.encodePacked(\"Travel Paints\",targetPiece.pieceClass))))) || (((myPiece.pieceClass == keccak256(abi.encodePacked(\"Travel Paints\"))) && (targetPiece.pieceClass == keccak256(abi.encodePacked(\"Pants\")))))) {\r\n            newClass = keccak256(abi.encodePacked(\"Painted Pants\"));\r\n        }   \r\n        if ((((myPiece.pieceClass == keccak256(abi.encodePacked(\"Underwear\"))) && (targetPiece.pieceClass == keccak256(abi.encodePacked(\"Travel Paints\",targetPiece.pieceClass))))) || (((myPiece.pieceClass == keccak256(abi.encodePacked(\"Travel Paints\"))) && (targetPiece.pieceClass == keccak256(abi.encodePacked(\"Underwear\")))))) {\r\n            newClass = keccak256(abi.encodePacked(\"Painted Underwear\"));\r\n        }\r\n        if ((((myPiece.pieceClass == keccak256(abi.encodePacked(\"Shirt\"))) && (targetPiece.pieceClass == keccak256(abi.encodePacked(\"Travel Paints\",targetPiece.pieceClass))))) || (((myPiece.pieceClass == keccak256(abi.encodePacked(\"Travel Paints\"))) && (targetPiece.pieceClass == keccak256(abi.encodePacked(\"Shirt\")))))) {\r\n            newClass = keccak256(abi.encodePacked(\"Painted Shirt\"));\r\n        }\r\n        if ((((myPiece.pieceClass == keccak256(abi.encodePacked(\"Hoodie\"))) && (targetPiece.pieceClass == keccak256(abi.encodePacked(\"Travel Paints\",targetPiece.pieceClass))))) || (((myPiece.pieceClass == keccak256(abi.encodePacked(\"Travel Paints\"))) && (targetPiece.pieceClass == keccak256(abi.encodePacked(\"Hoodie\")))))) {\r\n            newClass = keccak256(abi.encodePacked(\"Painted Hoodie\"));\r\n        }\r\n        if ((((myPiece.pieceClass == keccak256(abi.encodePacked(\"Snapback\"))) && (targetPiece.pieceClass == keccak256(abi.encodePacked(\"Travel Paints\",targetPiece.pieceClass))))) || (((myPiece.pieceClass == keccak256(abi.encodePacked(\"Travel Paints\"))) && (targetPiece.pieceClass == keccak256(abi.encodePacked(\"Snapback\")))))) {\r\n            newClass = keccak256(abi.encodePacked(\"Painted Snapback\"));\r\n        }\r\n        //Complete posibilities\r\n        uint rand = randPieceMod(100);\r\n        if (rand <= mergeProbability && myPiece.mergeCount <= maxMerge) {\r\n            _createPiece(newClass, newDna, _curr_loc);\r\n            _triggerCd(myPiece);\r\n            _triggerCd(targetPiece);\r\n            myPiece.mergeCount = myPiece.mergeCount.add(1);\r\n            //burn old piece -> transfer to wallet without secret key\r\n        } if (rand > mergeProbability && myPiece.mergeCount <= maxMerge) {\r\n            _triggerCd(myPiece);\r\n            _triggerCd(targetPiece);\r\n        }\r\n    }\r\n}\r\n",
  "sourcePath": "C:\\Users\\pablo\\PycharmProjects\\LiveAndTravel\\contracts\\piecemerging.sol",
  "compiler": {
    "name": "solc",
    "version": "0.8.10+commit.fc410830.Emscripten.clang"
  },
  "schemaVersion": "3.4.4",
  "updatedAt": "2022-01-13T15:03:14.754Z",
  "devdoc": {
    "kind": "dev",
    "methods": {},
    "version": 1
  },
  "userdoc": {
    "kind": "user",
    "methods": {},
    "version": 1
  }
}