{
  "contractName": "PieceHelper",
  "abi": [
    {
      "anonymous": false,
      "inputs": [
        {
          "indexed": false,
          "internalType": "uint256",
          "name": "pieceId",
          "type": "uint256"
        },
        {
          "indexed": false,
          "internalType": "uint256",
          "name": "pieceDna",
          "type": "uint256"
        },
        {
          "indexed": false,
          "internalType": "bytes32",
          "name": "pieceClass",
          "type": "bytes32"
        },
        {
          "indexed": false,
          "internalType": "uint32",
          "name": "pieceReadyTime",
          "type": "uint32"
        },
        {
          "indexed": false,
          "internalType": "uint16",
          "name": "pieceLevel",
          "type": "uint16"
        },
        {
          "indexed": false,
          "internalType": "uint16",
          "name": "pieceLuck",
          "type": "uint16"
        },
        {
          "indexed": false,
          "internalType": "uint16",
          "name": "pieceInt",
          "type": "uint16"
        },
        {
          "indexed": false,
          "internalType": "uint16",
          "name": "pieceAgi",
          "type": "uint16"
        },
        {
          "indexed": false,
          "internalType": "uint16",
          "name": "pieceStr",
          "type": "uint16"
        },
        {
          "indexed": false,
          "internalType": "uint16",
          "name": "pieceSta",
          "type": "uint16"
        },
        {
          "indexed": false,
          "internalType": "uint16",
          "name": "pieceMergeCount",
          "type": "uint16"
        }
      ],
      "name": "NewPiece",
      "type": "event"
    },
    {
      "anonymous": false,
      "inputs": [
        {
          "indexed": true,
          "internalType": "address",
          "name": "previousOwner",
          "type": "address"
        },
        {
          "indexed": true,
          "internalType": "address",
          "name": "newOwner",
          "type": "address"
        }
      ],
      "name": "OwnershipTransferred",
      "type": "event"
    },
    {
      "inputs": [],
      "name": "createHoodie",
      "outputs": [],
      "stateMutability": "payable",
      "type": "function"
    },
    {
      "inputs": [],
      "name": "createPants",
      "outputs": [],
      "stateMutability": "payable",
      "type": "function"
    },
    {
      "inputs": [],
      "name": "createShirt",
      "outputs": [],
      "stateMutability": "payable",
      "type": "function"
    },
    {
      "inputs": [],
      "name": "createSnapback",
      "outputs": [],
      "stateMutability": "payable",
      "type": "function"
    },
    {
      "inputs": [],
      "name": "createSocks",
      "outputs": [],
      "stateMutability": "payable",
      "type": "function"
    },
    {
      "inputs": [
        {
          "internalType": "uint256",
          "name": "_location",
          "type": "uint256"
        }
      ],
      "name": "createTravelPaint",
      "outputs": [],
      "stateMutability": "payable",
      "type": "function"
    },
    {
      "inputs": [],
      "name": "createUnderwear",
      "outputs": [],
      "stateMutability": "payable",
      "type": "function"
    },
    {
      "inputs": [],
      "name": "isOwner",
      "outputs": [
        {
          "internalType": "bool",
          "name": "",
          "type": "bool"
        }
      ],
      "stateMutability": "view",
      "type": "function"
    },
    {
      "inputs": [
        {
          "internalType": "uint256",
          "name": "_pieceId",
          "type": "uint256"
        },
        {
          "internalType": "uint256",
          "name": "_targetPieceId",
          "type": "uint256"
        }
      ],
      "name": "merge",
      "outputs": [],
      "stateMutability": "payable",
      "type": "function"
    },
    {
      "inputs": [
        {
          "internalType": "uint256",
          "name": "_itemId",
          "type": "uint256"
        }
      ],
      "name": "migratePantsItem",
      "outputs": [],
      "stateMutability": "payable",
      "type": "function"
    },
    {
      "inputs": [
        {
          "internalType": "uint256",
          "name": "_itemId",
          "type": "uint256"
        }
      ],
      "name": "migrateShirtItem",
      "outputs": [],
      "stateMutability": "payable",
      "type": "function"
    },
    {
      "inputs": [
        {
          "internalType": "uint256",
          "name": "_itemId",
          "type": "uint256"
        }
      ],
      "name": "migrateShoesItem",
      "outputs": [],
      "stateMutability": "payable",
      "type": "function"
    },
    {
      "inputs": [
        {
          "internalType": "uint256",
          "name": "_itemId",
          "type": "uint256"
        }
      ],
      "name": "migrateSnapbackItem",
      "outputs": [],
      "stateMutability": "payable",
      "type": "function"
    },
    {
      "inputs": [
        {
          "internalType": "uint256",
          "name": "_itemId",
          "type": "uint256"
        }
      ],
      "name": "migrateSocksItem",
      "outputs": [],
      "stateMutability": "payable",
      "type": "function"
    },
    {
      "inputs": [
        {
          "internalType": "uint256",
          "name": "_itemId",
          "type": "uint256"
        }
      ],
      "name": "migrateUnderwearItem",
      "outputs": [],
      "stateMutability": "payable",
      "type": "function"
    },
    {
      "inputs": [],
      "name": "owner",
      "outputs": [
        {
          "internalType": "address",
          "name": "",
          "type": "address"
        }
      ],
      "stateMutability": "view",
      "type": "function"
    },
    {
      "inputs": [
        {
          "internalType": "uint256",
          "name": "",
          "type": "uint256"
        }
      ],
      "name": "pieceToOwner",
      "outputs": [
        {
          "internalType": "address",
          "name": "",
          "type": "address"
        }
      ],
      "stateMutability": "view",
      "type": "function"
    },
    {
      "inputs": [
        {
          "internalType": "uint256",
          "name": "",
          "type": "uint256"
        }
      ],
      "name": "pieces",
      "outputs": [
        {
          "internalType": "uint256",
          "name": "pieceDna",
          "type": "uint256"
        },
        {
          "internalType": "bytes32",
          "name": "pieceClass",
          "type": "bytes32"
        },
        {
          "internalType": "uint32",
          "name": "pieceReadyTime",
          "type": "uint32"
        },
        {
          "internalType": "uint16",
          "name": "pieceLevel",
          "type": "uint16"
        },
        {
          "internalType": "uint16",
          "name": "pieceLuck",
          "type": "uint16"
        },
        {
          "internalType": "uint16",
          "name": "pieceIntellect",
          "type": "uint16"
        },
        {
          "internalType": "uint16",
          "name": "pieceAgility",
          "type": "uint16"
        },
        {
          "internalType": "uint16",
          "name": "pieceStrength",
          "type": "uint16"
        },
        {
          "internalType": "uint16",
          "name": "pieceStamina",
          "type": "uint16"
        },
        {
          "internalType": "uint16",
          "name": "mergeCount",
          "type": "uint16"
        }
      ],
      "stateMutability": "view",
      "type": "function"
    },
    {
      "inputs": [],
      "name": "renounceOwnership",
      "outputs": [],
      "stateMutability": "nonpayable",
      "type": "function"
    },
    {
      "inputs": [
        {
          "internalType": "address",
          "name": "_address",
          "type": "address"
        }
      ],
      "name": "setHoodieContractAddress",
      "outputs": [],
      "stateMutability": "nonpayable",
      "type": "function"
    },
    {
      "inputs": [
        {
          "internalType": "address",
          "name": "_address",
          "type": "address"
        }
      ],
      "name": "setPantsContractAddress",
      "outputs": [],
      "stateMutability": "nonpayable",
      "type": "function"
    },
    {
      "inputs": [
        {
          "internalType": "address",
          "name": "_address",
          "type": "address"
        }
      ],
      "name": "setShirtContractAddress",
      "outputs": [],
      "stateMutability": "nonpayable",
      "type": "function"
    },
    {
      "inputs": [
        {
          "internalType": "address",
          "name": "_address",
          "type": "address"
        }
      ],
      "name": "setShoesContractAddress",
      "outputs": [],
      "stateMutability": "nonpayable",
      "type": "function"
    },
    {
      "inputs": [
        {
          "internalType": "address",
          "name": "_address",
          "type": "address"
        }
      ],
      "name": "setSnapbackContractAddress",
      "outputs": [],
      "stateMutability": "nonpayable",
      "type": "function"
    },
    {
      "inputs": [
        {
          "internalType": "address",
          "name": "_address",
          "type": "address"
        }
      ],
      "name": "setSocksContractAddress",
      "outputs": [],
      "stateMutability": "nonpayable",
      "type": "function"
    },
    {
      "inputs": [
        {
          "internalType": "address",
          "name": "_address",
          "type": "address"
        }
      ],
      "name": "setUnderwearContractAddress",
      "outputs": [],
      "stateMutability": "nonpayable",
      "type": "function"
    },
    {
      "inputs": [
        {
          "internalType": "address",
          "name": "newOwner",
          "type": "address"
        }
      ],
      "name": "transferOwnership",
      "outputs": [],
      "stateMutability": "nonpayable",
      "type": "function"
    },
    {
      "inputs": [],
      "name": "withdrawPiece",
      "outputs": [],
      "stateMutability": "payable",
      "type": "function"
    },
    {
      "inputs": [
        {
          "internalType": "uint256",
          "name": "_pieceId",
          "type": "uint256"
        },
        {
          "internalType": "uint256",
          "name": "_newDna",
          "type": "uint256"
        }
      ],
      "name": "changePieceDna",
      "outputs": [],
      "stateMutability": "payable",
      "type": "function"
    },
    {
      "inputs": [
        {
          "internalType": "address",
          "name": "_owner",
          "type": "address"
        }
      ],
      "name": "getPiecesByOwner",
      "outputs": [
        {
          "internalType": "uint256[]",
          "name": "",
          "type": "uint256[]"
        }
      ],
      "stateMutability": "view",
      "type": "function"
    }
  ],
  "bytecode": "0x60806040526010600155600154600a6200001a9190620002bd565b6002556201518060035567016345785d8a00006007556000600855605f6010556001601155662386f26fc10000601255678ac7230489e80000601355662386f26fc100006014553480156200006e57600080fd5b50336000806101000a81548173ffffffffffffffffffffffffffffffffffffffff021916908373ffffffffffffffffffffffffffffffffffffffff16021790555060008054906101000a900473ffffffffffffffffffffffffffffffffffffffff1673ffffffffffffffffffffffffffffffffffffffff16600073ffffffffffffffffffffffffffffffffffffffff167f8be0079c531659141344cd1fd0a4f28419497f9722a3daafe3b4186f6b6457e060405160405180910390a36200030e565b7f4e487b7100000000000000000000000000000000000000000000000000000000600052601160045260246000fd5b60008160011c9050919050565b6000808291508390505b6001851115620001be5780860481111562000196576200019562000130565b5b6001851615620001a65780820291505b8081029050620001b6856200015f565b945062000176565b94509492505050565b600082620001d95760019050620002ac565b81620001e95760009050620002ac565b81600181146200020257600281146200020d5762000243565b6001915050620002ac565b60ff84111562000222576200022162000130565b5b8360020a9150848211156200023c576200023b62000130565b5b50620002ac565b5060208310610133831016604e8410600b84101617156200027d5782820a90508381111562000277576200027662000130565b5b620002ac565b6200028c84848460016200016c565b92509050818404811115620002a657620002a562000130565b5b81810290505b9392505050565b6000819050919050565b6000620002ca82620002b3565b9150620002d783620002b3565b9250620003067fffffffffffffffffffffffffffffffffffffffffffffffffffffffffffffffff8484620001c7565b905092915050565b6133b1806200031e6000396000f3fe6080604052600436106101cd5760003560e01c80637c47a7da116100f7578063b4ad1c0311610095578063e14d485b11610064578063e14d485b146104de578063ebb0481e14610507578063f2fde38b14610523578063f56fa8d41461054c576101cd565b8063b4ad1c0314610480578063bcea81951461049c578063c27a9cae146104b8578063d1c2babb146104c2576101cd565b80638da5cb5b116100d15780638da5cb5b146103da5780638f32d59b146104055780638f64be30146104305780639005c5eb14610476576101cd565b80637c47a7da1461038b5780637f1075a2146103a75780638c081f5d146103b1576101cd565b80634f1b3e3e1161016f578063715018a61161013e578063715018a61461032557806374503a2b1461033c5780637a18736e146103465780637be4181414610362576101cd565b80634f1b3e3e146102ad57806358c8f090146102d65780636adb7c9c146102e05780636c492f3d146102fc576101cd565b8063241ec36d116101ab578063241ec36d1461021457806327f1a4f31461023d57806330a39248146102665780633ba1d94414610270576101cd565b806302281d04146101d25780630cdecbc1146101ee5780631a9beb8f1461020a575b600080fd5b6101ec60048036038101906101e79190612398565b610589565b005b61020860048036038101906102039190612398565b610697565b005b6102126107a5565b005b34801561022057600080fd5b5061023b60048036038101906102369190612423565b610892565b005b34801561024957600080fd5b50610264600480360381019061025f9190612423565b6108e7565b005b61026e61093c565b005b34801561027c57600080fd5b5061029760048036038101906102929190612423565b610a29565b6040516102a4919061250e565b60405180910390f35b3480156102b957600080fd5b506102d460048036038101906102cf9190612423565b610b7c565b005b6102de610bd1565b005b6102fa60048036038101906102f59190612398565b610cbe565b005b34801561030857600080fd5b50610323600480360381019061031e9190612423565b610dcc565b005b34801561033157600080fd5b5061033a610e21565b005b610344610ef0565b005b610360600480360381019061035b9190612398565b610fdd565b005b34801561036e57600080fd5b5061038960048036038101906103849190612423565b6110eb565b005b6103a560048036038101906103a09190612398565b611140565b005b6103af61121a565b005b3480156103bd57600080fd5b506103d860048036038101906103d39190612423565b61128f565b005b3480156103e657600080fd5b506103ef6112e4565b6040516103fc919061253f565b60405180910390f35b34801561041157600080fd5b5061041a61130d565b6040516104279190612575565b60405180910390f35b34801561043c57600080fd5b5061045760048036038101906104529190612398565b611364565b60405161046d9a999897969594939291906125f4565b60405180910390f35b61047e61143a565b005b61049a60048036038101906104959190612398565b611527565b005b6104b660048036038101906104b19190612690565b611635565b005b6104c0611727565b005b6104dc60048036038101906104d79190612690565b611814565b005b3480156104ea57600080fd5b5061050560048036038101906105009190612423565b611c25565b005b610521600480360381019061051c9190612398565b611c7a565b005b34801561052f57600080fd5b5061054a60048036038101906105459190612423565b611d88565b005b34801561055857600080fd5b50610573600480360381019061056e9190612398565b611da5565b604051610580919061253f565b60405180910390f35b600754341461059757600080fd5b6000816040516020016105aa9190612748565b6040516020818303038152906040528051906020012090506000600b60009054906101000a900473ffffffffffffffffffffffffffffffffffffffff1673ffffffffffffffffffffffffffffffffffffffff16634337932d846040518263ffffffff1660e01b815260040161061f919061276e565b61010060405180830381865afa15801561063d573d6000803e3d6000fd5b505050506040513d601f19601f8201168201806040525081019061066191906127ca565b9091929394959650909192939495509091929394509091929350909192509091509050809150506106928282611dd8565b505050565b60075434146106a557600080fd5b6000816040516020016106b891906128cc565b6040516020818303038152906040528051906020012090506000600960009054906101000a900473ffffffffffffffffffffffffffffffffffffffff1673ffffffffffffffffffffffffffffffffffffffff1663a5f23e1d846040518263ffffffff1660e01b815260040161072d919061276e565b61010060405180830381865afa15801561074b573d6000803e3d6000fd5b505050506040513d601f19601f8201168201806040525081019061076f91906127ca565b9091929394959650909192939495509091929394509091929350909192509091509050809150506107a08282611dd8565b505050565b60075434146107b357600080fd5b6000600660003373ffffffffffffffffffffffffffffffffffffffff1673ffffffffffffffffffffffffffffffffffffffff16815260200190815260200160002054146107ff57600080fd5b60006040516020016108109061293e565b60405160208183030381529060405280519060200120905060006108686040518060400160405280600f81526020017f426c616e6b20556e64657277656172000000000000000000000000000000000081525061210b565b90506064816108779190612982565b8161088291906129e2565b905061088e8282611dd8565b5050565b61089a61130d565b6108a357600080fd5b80600b60006101000a81548173ffffffffffffffffffffffffffffffffffffffff021916908373ffffffffffffffffffffffffffffffffffffffff16021790555050565b6108ef61130d565b6108f857600080fd5b80600c60006101000a81548173ffffffffffffffffffffffffffffffffffffffff021916908373ffffffffffffffffffffffffffffffffffffffff16021790555050565b600754341461094a57600080fd5b6000600660003373ffffffffffffffffffffffffffffffffffffffff1673ffffffffffffffffffffffffffffffffffffffff168152602001908152602001600020541461099657600080fd5b60006040516020016109a790612a62565b60405160208183030381529060405280519060200120905060006109ff6040518060400160405280600e81526020017f426c616e6b20536e61706261636b00000000000000000000000000000000000081525061210b565b9050606481610a0e9190612982565b81610a1991906129e2565b9050610a258282611dd8565b5050565b60606000600660008473ffffffffffffffffffffffffffffffffffffffff1673ffffffffffffffffffffffffffffffffffffffff1681526020019081526020016000205467ffffffffffffffff811115610a8657610a85612a77565b5b604051908082528060200260200182016040528015610ab45781602001602082028036833780820191505090505b5090506000805b600480549050811015610b71578473ffffffffffffffffffffffffffffffffffffffff166005600083815260200190815260200160002060009054906101000a900473ffffffffffffffffffffffffffffffffffffffff1673ffffffffffffffffffffffffffffffffffffffff161415610b5e5780838381518110610b4357610b42612aa6565b5b6020026020010181815250508180610b5a90612ad5565b9250505b8080610b6990612ad5565b915050610abb565b508192505050919050565b610b8461130d565b610b8d57600080fd5b80600f60006101000a81548173ffffffffffffffffffffffffffffffffffffffff021916908373ffffffffffffffffffffffffffffffffffffffff16021790555050565b6007543414610bdf57600080fd5b6000600660003373ffffffffffffffffffffffffffffffffffffffff1673ffffffffffffffffffffffffffffffffffffffff1681526020019081526020016000205414610c2b57600080fd5b6000604051602001610c3c90612b6a565b6040516020818303038152906040528051906020012090506000610c946040518060400160405280600c81526020017f426c616e6b20486f6f646965000000000000000000000000000000000000000081525061210b565b9050606481610ca39190612982565b81610cae91906129e2565b9050610cba8282611dd8565b5050565b6007543414610ccc57600080fd5b600081604051602001610cdf9190612bcb565b6040516020818303038152906040528051906020012090506000600d60009054906101000a900473ffffffffffffffffffffffffffffffffffffffff1673ffffffffffffffffffffffffffffffffffffffff16634c9c05ea846040518263ffffffff1660e01b8152600401610d54919061276e565b61010060405180830381865afa158015610d72573d6000803e3d6000fd5b505050506040513d601f19601f82011682018060405250810190610d9691906127ca565b909192939495965090919293949550909192939450909192935090919250909150905080915050610dc78282611dd8565b505050565b610dd461130d565b610ddd57600080fd5b80600a60006101000a81548173ffffffffffffffffffffffffffffffffffffffff021916908373ffffffffffffffffffffffffffffffffffffffff16021790555050565b610e2961130d565b610e3257600080fd5b600073ffffffffffffffffffffffffffffffffffffffff1660008054906101000a900473ffffffffffffffffffffffffffffffffffffffff1673ffffffffffffffffffffffffffffffffffffffff167f8be0079c531659141344cd1fd0a4f28419497f9722a3daafe3b4186f6b6457e060405160405180910390a360008060006101000a81548173ffffffffffffffffffffffffffffffffffffffff021916908373ffffffffffffffffffffffffffffffffffffffff160217905550565b6007543414610efe57600080fd5b6000600660003373ffffffffffffffffffffffffffffffffffffffff1673ffffffffffffffffffffffffffffffffffffffff1681526020019081526020016000205414610f4a57600080fd5b6000604051602001610f5b90612c3d565b6040516020818303038152906040528051906020012090506000610fb36040518060400160405280600b81526020017f426c616e6b2050616e747300000000000000000000000000000000000000000081525061210b565b9050606481610fc29190612982565b81610fcd91906129e2565b9050610fd98282611dd8565b5050565b6007543414610feb57600080fd5b600081604051602001610ffe9190612c9e565b6040516020818303038152906040528051906020012090506000600c60009054906101000a900473ffffffffffffffffffffffffffffffffffffffff1673ffffffffffffffffffffffffffffffffffffffff166325f76202846040518263ffffffff1660e01b8152600401611073919061276e565b61010060405180830381865afa158015611091573d6000803e3d6000fd5b505050506040513d601f19601f820116820180604052508101906110b591906127ca565b9091929394959650909192939495509091929394509091929350909192509091509050809150506110e68282611dd8565b505050565b6110f361130d565b6110fc57600080fd5b80600d60006101000a81548173ffffffffffffffffffffffffffffffffffffffff021916908373ffffffffffffffffffffffffffffffffffffffff16021790555050565b600754341461114e57600080fd5b6000600660003373ffffffffffffffffffffffffffffffffffffffff1673ffffffffffffffffffffffffffffffffffffffff168152602001908152602001600020541461119a57600080fd5b6000816040516020016111ad9190612d10565b60405160208183030381529060405280519060200120905060006111ef836040516020016111db9190612d10565b60405160208183030381529060405261210b565b90506064816111fe9190612982565b8161120991906129e2565b90506112158282611dd8565b505050565b61122261130d565b61122b57600080fd5b601454341461123957600080fd5b60006112436112e4565b90508073ffffffffffffffffffffffffffffffffffffffff166108fc479081150290604051600060405180830381858888f1935050505015801561128b573d6000803e3d6000fd5b5050565b61129761130d565b6112a057600080fd5b80600960006101000a81548173ffffffffffffffffffffffffffffffffffffffff021916908373ffffffffffffffffffffffffffffffffffffffff16021790555050565b60008060009054906101000a900473ffffffffffffffffffffffffffffffffffffffff16905090565b60008060009054906101000a900473ffffffffffffffffffffffffffffffffffffffff1673ffffffffffffffffffffffffffffffffffffffff163373ffffffffffffffffffffffffffffffffffffffff1614905090565b6004818154811061137457600080fd5b90600052602060002090600302016000915090508060000154908060010154908060020160009054906101000a900463ffffffff16908060020160049054906101000a900461ffff16908060020160069054906101000a900461ffff16908060020160089054906101000a900461ffff169080600201600a9054906101000a900461ffff169080600201600c9054906101000a900461ffff169080600201600e9054906101000a900461ffff16908060020160109054906101000a900461ffff1690508a565b600754341461144857600080fd5b6000600660003373ffffffffffffffffffffffffffffffffffffffff1673ffffffffffffffffffffffffffffffffffffffff168152602001908152602001600020541461149457600080fd5b60006040516020016114a590612d82565b60405160208183030381529060405280519060200120905060006114fd6040518060400160405280600b81526020017f426c616e6b20536f636b7300000000000000000000000000000000000000000081525061210b565b905060648161150c9190612982565b8161151791906129e2565b90506115238282611dd8565b5050565b600754341461153557600080fd5b6000816040516020016115489190612de3565b6040516020818303038152906040528051906020012090506000600a60009054906101000a900473ffffffffffffffffffffffffffffffffffffffff1673ffffffffffffffffffffffffffffffffffffffff1663ee5394de846040518263ffffffff1660e01b81526004016115bd919061276e565b61010060405180830381865afa1580156115db573d6000803e3d6000fd5b505050506040513d601f19601f820116820180604052508101906115ff91906127ca565b9091929394959650909192939495509091929394509091929350909192509091509050809150506116308282611dd8565b505050565b600a82816004828154811061164d5761164c612aa6565b5b906000526020600020906003020160020160049054906101000a900461ffff1661ffff16101561167c57600080fd5b836005600082815260200190815260200160002060009054906101000a900473ffffffffffffffffffffffffffffffffffffffff1673ffffffffffffffffffffffffffffffffffffffff163373ffffffffffffffffffffffffffffffffffffffff16146116e857600080fd5b60135434146116f657600080fd5b836004868154811061170b5761170a612aa6565b5b9060005260206000209060030201600001819055505050505050565b600754341461173557600080fd5b6000600660003373ffffffffffffffffffffffffffffffffffffffff1673ffffffffffffffffffffffffffffffffffffffff168152602001908152602001600020541461178157600080fd5b600060405160200161179290612e55565b60405160208183030381529060405280519060200120905060006117ea6040518060400160405280600b81526020017f426c616e6b20536869727400000000000000000000000000000000000000000081525061210b565b90506064816117f99190612982565b8161180491906129e2565b90506118108282611dd8565b5050565b816005600082815260200190815260200160002060009054906101000a900473ffffffffffffffffffffffffffffffffffffffff1673ffffffffffffffffffffffffffffffffffffffff163373ffffffffffffffffffffffffffffffffffffffff161461188057600080fd5b816005600082815260200190815260200160002060009054906101000a900473ffffffffffffffffffffffffffffffffffffffff1673ffffffffffffffffffffffffffffffffffffffff163373ffffffffffffffffffffffffffffffffffffffff16146118ec57600080fd5b60006004858154811061190257611901612aa6565b5b9060005260206000209060030201905060006004858154811061192857611927612aa6565b5b9060005260206000209060030201905061194182612150565b61194a57600080fd5b61195381612150565b61195c57600080fd5b601254341461196a57600080fd5b60006002826000015484600001546119829190612e6a565b61198c9190612ec0565b9050600060405160200161199f90612f3d565b6040516020818303038152906040528051906020012084600101541480156119f4575082600101546040516020016119d79190612f73565b604051602081830303815290604052805190602001208360010154145b15611a2b578260010154604051602001611a0e9190612fe5565b604051602081830303815290604052805190602001209050611aef565b8360010154604051602001611a409190612f73565b604051602081830303815290604052805190602001208460010154148015611a8f5750604051602001611a7290612f3d565b604051602081830303815290604052805190602001208360010154145b15611ac6578360010154604051602001611aa99190612fe5565b604051602081830303815290604052805190602001209050611aee565b604051602001611ad590613057565b6040516020818303038152906040528051906020012090505b5b6000611afb6064612177565b90506010548111158015611b2757506011548560020160109054906101000a900461ffff1661ffff1611155b15611b9157611b368284611dd8565b611b3f856121d3565b611b48846121d3565b611b7260018660020160109054906101000a900461ffff1661ffff1661220690919063ffffffff16565b8560020160106101000a81548161ffff021916908361ffff1602179055505b60105481118015611bba57506011548560020160109054906101000a900461ffff1661ffff1611155b15611c1a57611bc8856121d3565b611bd1846121d3565b611bfb60018660020160109054906101000a900461ffff1661ffff1661220690919063ffffffff16565b8560020160106101000a81548161ffff021916908361ffff1602179055505b505050505050505050565b611c2d61130d565b611c3657600080fd5b80600e60006101000a81548173ffffffffffffffffffffffffffffffffffffffff021916908373ffffffffffffffffffffffffffffffffffffffff16021790555050565b6007543414611c8857600080fd5b600081604051602001611c9b91906130b8565b6040516020818303038152906040528051906020012090506000600f60009054906101000a900473ffffffffffffffffffffffffffffffffffffffff1673ffffffffffffffffffffffffffffffffffffffff1663447dc311846040518263ffffffff1660e01b8152600401611d10919061276e565b61010060405180830381865afa158015611d2e573d6000803e3d6000fd5b505050506040513d601f19601f82011682018060405250810190611d5291906127ca565b909192939495965090919293949550909192939450909192935090919250909150905080915050611d838282611dd8565b505050565b611d9061130d565b611d9957600080fd5b611da28161223a565b50565b60056020528060005260406000206000915054906101000a900473ffffffffffffffffffffffffffffffffffffffff1681565b600060035442611de89190612e6a565b905060046040518061014001604052808481526020018581526020018363ffffffff168152602001600161ffff168152602001600161ffff168152602001600161ffff168152602001600161ffff168152602001600161ffff168152602001600161ffff168152602001600061ffff168152509080600181540180825580915050600190039060005260206000209060030201600090919091909150600082015181600001556020820151816001015560408201518160020160006101000a81548163ffffffff021916908363ffffffff16021790555060608201518160020160046101000a81548161ffff021916908361ffff16021790555060808201518160020160066101000a81548161ffff021916908361ffff16021790555060a08201518160020160086101000a81548161ffff021916908361ffff16021790555060c082015181600201600a6101000a81548161ffff021916908361ffff16021790555060e082015181600201600c6101000a81548161ffff021916908361ffff16021790555061010082015181600201600e6101000a81548161ffff021916908361ffff1602179055506101208201518160020160106101000a81548161ffff021916908361ffff160217905550505060006001600480549050611fcc91906129e2565b9050336005600083815260200190815260200160002060006101000a81548173ffffffffffffffffffffffffffffffffffffffff021916908373ffffffffffffffffffffffffffffffffffffffff1602179055506120736001600660003373ffffffffffffffffffffffffffffffffffffffff1673ffffffffffffffffffffffffffffffffffffffff1681526020019081526020016000205461233190919063ffffffff16565b600660003373ffffffffffffffffffffffffffffffffffffffff1673ffffffffffffffffffffffffffffffffffffffff168152602001908152602001600020819055507fd58efb7994e28d1377ec0d585ff7107bd97f413ff747c3432d25a442157b7dcc8184868560018060018060018060006040516120fd9b9a9998979695949392919061315e565b60405180910390a150505050565b6000808260405160200161211f9190613278565b6040516020818303038152906040528051906020012060001c9050600254816121489190612982565b915050919050565b6000428260020160009054906101000a900463ffffffff1663ffffffff1611159050919050565b60006008600081548092919061218c90612ad5565b91905055508142336008546040516020016121a9939291906132d7565b6040516020818303038152906040528051906020012060001c6121cc9190612982565b9050919050565b600354426121e19190612e6a565b8160020160006101000a81548163ffffffff021916908363ffffffff16021790555050565b60008082846122159190613314565b90508361ffff168161ffff1610156122305761222f61334c565b5b8091505092915050565b600073ffffffffffffffffffffffffffffffffffffffff168173ffffffffffffffffffffffffffffffffffffffff16141561227457600080fd5b8073ffffffffffffffffffffffffffffffffffffffff1660008054906101000a900473ffffffffffffffffffffffffffffffffffffffff1673ffffffffffffffffffffffffffffffffffffffff167f8be0079c531659141344cd1fd0a4f28419497f9722a3daafe3b4186f6b6457e060405160405180910390a3806000806101000a81548173ffffffffffffffffffffffffffffffffffffffff021916908373ffffffffffffffffffffffffffffffffffffffff16021790555050565b60008082846123409190612e6a565b9050838110156123535761235261334c565b5b8091505092915050565b600080fd5b6000819050919050565b61237581612362565b811461238057600080fd5b50565b6000813590506123928161236c565b92915050565b6000602082840312156123ae576123ad61235d565b5b60006123bc84828501612383565b91505092915050565b600073ffffffffffffffffffffffffffffffffffffffff82169050919050565b60006123f0826123c5565b9050919050565b612400816123e5565b811461240b57600080fd5b50565b60008135905061241d816123f7565b92915050565b6000602082840312156124395761243861235d565b5b60006124478482850161240e565b91505092915050565b600081519050919050565b600082825260208201905092915050565b6000819050602082019050919050565b61248581612362565b82525050565b6000612497838361247c565b60208301905092915050565b6000602082019050919050565b60006124bb82612450565b6124c5818561245b565b93506124d08361246c565b8060005b838110156125015781516124e8888261248b565b97506124f3836124a3565b9250506001810190506124d4565b5085935050505092915050565b6000602082019050818103600083015261252881846124b0565b905092915050565b612539816123e5565b82525050565b60006020820190506125546000830184612530565b92915050565b60008115159050919050565b61256f8161255a565b82525050565b600060208201905061258a6000830184612566565b92915050565b61259981612362565b82525050565b6000819050919050565b6125b28161259f565b82525050565b600063ffffffff82169050919050565b6125d1816125b8565b82525050565b600061ffff82169050919050565b6125ee816125d7565b82525050565b60006101408201905061260a600083018d612590565b612617602083018c6125a9565b612624604083018b6125c8565b612631606083018a6125e5565b61263e60808301896125e5565b61264b60a08301886125e5565b61265860c08301876125e5565b61266560e08301866125e5565b6126736101008301856125e5565b6126816101208301846125e5565b9b9a5050505050505050505050565b600080604083850312156126a7576126a661235d565b5b60006126b585828601612383565b92505060206126c685828601612383565b9150509250929050565b6000819050919050565b6126eb6126e682612362565b6126d0565b82525050565b600081905092915050565b7f2050616e74730000000000000000000000000000000000000000000000000000600082015250565b60006127326006836126f1565b915061273d826126fc565b600682019050919050565b600061275482846126da565b60208201915061276382612725565b915081905092915050565b60006020820190506127836000830184612590565b92915050565b6127928161255a565b811461279d57600080fd5b50565b6000815190506127af81612789565b92915050565b6000815190506127c48161236c565b92915050565b600080600080600080600080610100898b0312156127eb576127ea61235d565b5b60006127f98b828c016127a0565b985050602061280a8b828c016127b5565b975050604061281b8b828c016127b5565b965050606061282c8b828c016127b5565b955050608061283d8b828c016127b5565b94505060a061284e8b828c016127b5565b93505060c061285f8b828c016127b5565b92505060e06128708b828c016127b5565b9150509295985092959890939650565b7f2053686f65730000000000000000000000000000000000000000000000000000600082015250565b60006128b66006836126f1565b91506128c182612880565b600682019050919050565b60006128d882846126da565b6020820191506128e7826128a9565b915081905092915050565b7f426c616e6b20556e646572776561720000000000000000000000000000000000600082015250565b6000612928600f836126f1565b9150612933826128f2565b600f82019050919050565b60006129498261291b565b9150819050919050565b7f4e487b7100000000000000000000000000000000000000000000000000000000600052601260045260246000fd5b600061298d82612362565b915061299883612362565b9250826129a8576129a7612953565b5b828206905092915050565b7f4e487b7100000000000000000000000000000000000000000000000000000000600052601160045260246000fd5b60006129ed82612362565b91506129f883612362565b925082821015612a0b57612a0a6129b3565b5b828203905092915050565b7f426c616e6b20536e61706261636b000000000000000000000000000000000000600082015250565b6000612a4c600e836126f1565b9150612a5782612a16565b600e82019050919050565b6000612a6d82612a3f565b9150819050919050565b7f4e487b7100000000000000000000000000000000000000000000000000000000600052604160045260246000fd5b7f4e487b7100000000000000000000000000000000000000000000000000000000600052603260045260246000fd5b6000612ae082612362565b91507fffffffffffffffffffffffffffffffffffffffffffffffffffffffffffffffff821415612b1357612b126129b3565b5b600182019050919050565b7f426c616e6b20486f6f6469650000000000000000000000000000000000000000600082015250565b6000612b54600c836126f1565b9150612b5f82612b1e565b600c82019050919050565b6000612b7582612b47565b9150819050919050565b7f2053686972740000000000000000000000000000000000000000000000000000600082015250565b6000612bb56006836126f1565b9150612bc082612b7f565b600682019050919050565b6000612bd782846126da565b602082019150612be682612ba8565b915081905092915050565b7f426c616e6b2050616e7473000000000000000000000000000000000000000000600082015250565b6000612c27600b836126f1565b9150612c3282612bf1565b600b82019050919050565b6000612c4882612c1a565b9150819050919050565b7f20556e6465727765617200000000000000000000000000000000000000000000600082015250565b6000612c88600a836126f1565b9150612c9382612c52565b600a82019050919050565b6000612caa82846126da565b602082019150612cb982612c7b565b915081905092915050565b7f54726176656c205061696e742066726f6d200000000000000000000000000000600082015250565b6000612cfa6012836126f1565b9150612d0582612cc4565b601282019050919050565b6000612d1b82612ced565b9150612d2782846126da565b60208201915081905092915050565b7f426c616e6b20536f636b73000000000000000000000000000000000000000000600082015250565b6000612d6c600b836126f1565b9150612d7782612d36565b600b82019050919050565b6000612d8d82612d5f565b9150819050919050565b7f20536f636b730000000000000000000000000000000000000000000000000000600082015250565b6000612dcd6006836126f1565b9150612dd882612d97565b600682019050919050565b6000612def82846126da565b602082019150612dfe82612dc0565b915081905092915050565b7f426c616e6b205368697274000000000000000000000000000000000000000000600082015250565b6000612e3f600b836126f1565b9150612e4a82612e09565b600b82019050919050565b6000612e6082612e32565b9150819050919050565b6000612e7582612362565b9150612e8083612362565b9250827fffffffffffffffffffffffffffffffffffffffffffffffffffffffffffffffff03821115612eb557612eb46129b3565b5b828201905092915050565b6000612ecb82612362565b9150612ed683612362565b925082612ee657612ee5612953565b5b828204905092915050565b7f426c616e6b2053686f6573000000000000000000000000000000000000000000600082015250565b6000612f27600b836126f1565b9150612f3282612ef1565b600b82019050919050565b6000612f4882612f1a565b9150819050919050565b6000819050919050565b612f6d612f688261259f565b612f52565b82525050565b6000612f7e82612ced565b9150612f8a8284612f5c565b60208201915081905092915050565b7f207061696e7465642053686f6573000000000000000000000000000000000000600082015250565b6000612fcf600e836126f1565b9150612fda82612f99565b600e82019050919050565b6000612ff18284612f5c565b60208201915061300082612fc2565b915081905092915050565b7f6e6577436c617373657300000000000000000000000000000000000000000000600082015250565b6000613041600a836126f1565b915061304c8261300b565b600a82019050919050565b600061306282613034565b9150819050919050565b7f20536e61706261636b0000000000000000000000000000000000000000000000600082015250565b60006130a26009836126f1565b91506130ad8261306c565b600982019050919050565b60006130c482846126da565b6020820191506130d382613095565b915081905092915050565b6000819050919050565b6000819050919050565b600061310d613108613103846130de565b6130e8565b6125d7565b9050919050565b61311d816130f2565b82525050565b6000819050919050565b600061314861314361313e84613123565b6130e8565b6125d7565b9050919050565b6131588161312d565b82525050565b600061016082019050613174600083018e612590565b613181602083018d612590565b61318e604083018c6125a9565b61319b606083018b6125c8565b6131a8608083018a613114565b6131b560a0830189613114565b6131c260c0830188613114565b6131cf60e0830187613114565b6131dd610100830186613114565b6131eb610120830185613114565b6131f961014083018461314f565b9c9b505050505050505050505050565b600081519050919050565b60005b83811015613232578082015181840152602081019050613217565b83811115613241576000848401525b50505050565b600061325282613209565b61325c81856126f1565b935061326c818560208601613214565b80840191505092915050565b60006132848284613247565b915081905092915050565b60008160601b9050919050565b60006132a78261328f565b9050919050565b60006132b98261329c565b9050919050565b6132d16132cc826123e5565b6132ae565b82525050565b60006132e382866126da565b6020820191506132f382856132c0565b60148201915061330382846126da565b602082019150819050949350505050565b600061331f826125d7565b915061332a836125d7565b92508261ffff03821115613341576133406129b3565b5b828201905092915050565b7f4e487b7100000000000000000000000000000000000000000000000000000000600052600160045260246000fdfea2646970667358221220a70f1a39e9bc52cd3b6427a16efb81b87fd35f83ac09abf8fa2fa671788134eb64736f6c634300080a0033",
  "immutableReferences": {},
  "source": "// SPDX-License-Identifier: MIT\r\npragma solidity >=0.4.22 <0.9.0;\r\n\r\nimport \"./piecemerging.sol\";\r\n\r\ncontract PieceHelper is PieceMerging {\r\n\r\n  uint changePieceDnaFee = 10 ether;\r\n  uint withdrawPieceFee = 0.01 ether;\r\n\r\n  modifier abovePieceLevel(uint _level, uint _pieceId) {\r\n    require(pieces[_pieceId].pieceLevel >= _level);\r\n    _;\r\n  }\r\n  function withdrawPiece() external payable onlyOwner {\r\n    require(msg.value == withdrawPieceFee);\r\n    address _owner = owner();\r\n    payable(_owner).transfer(address(this).balance);\r\n  }\r\n\r\n  function changePieceDna(uint _pieceId, uint _newDna) external payable abovePieceLevel(10, _pieceId) onlyOwnerOfPiece(_pieceId) {\r\n    require(msg.value == changePieceDnaFee);\r\n    pieces[_pieceId].pieceDna = _newDna;\r\n  }\r\n\r\n  function getPiecesByOwner(address _owner) external view returns(uint[] memory) {\r\n    uint[] memory result = new uint[](ownerPieceCount[_owner]);\r\n    uint counter = 0;\r\n    for (uint i = 0; i < pieces.length; i++) {\r\n      if (pieceToOwner[i] == _owner) {\r\n        result[counter] = i;\r\n        counter++;\r\n      }\r\n    }\r\n    return result;\r\n  }\r\n\r\n}\r\n",
  "sourcePath": "C:\\Users\\pablo\\PycharmProjects\\LiveAndTravel\\contracts\\piecehelper.sol",
  "compiler": {
    "name": "solc",
    "version": "0.8.10+commit.fc410830.Emscripten.clang"
  },
  "schemaVersion": "3.4.4",
  "updatedAt": "2022-01-01T19:27:48.472Z",
  "devdoc": {
    "kind": "dev",
    "methods": {},
    "version": 1
  },
  "userdoc": {
    "kind": "user",
    "methods": {},
    "version": 1
  }
}