{
  "contractName": "PieceFactory",
  "abi": [
    {
      "anonymous": false,
      "inputs": [
        {
          "indexed": false,
          "internalType": "uint256",
          "name": "pieceId",
          "type": "uint256"
        },
        {
          "indexed": false,
          "internalType": "uint256",
          "name": "pieceDna",
          "type": "uint256"
        },
        {
          "indexed": false,
          "internalType": "bytes32",
          "name": "pieceClass",
          "type": "bytes32"
        },
        {
          "indexed": false,
          "internalType": "uint32",
          "name": "pieceReadyTime",
          "type": "uint32"
        },
        {
          "indexed": false,
          "internalType": "uint256",
          "name": "pieceCreationLoc",
          "type": "uint256"
        },
        {
          "indexed": false,
          "internalType": "uint16",
          "name": "pieceMergeCount",
          "type": "uint16"
        }
      ],
      "name": "NewPiece",
      "type": "event"
    },
    {
      "anonymous": false,
      "inputs": [
        {
          "indexed": true,
          "internalType": "address",
          "name": "previousOwner",
          "type": "address"
        },
        {
          "indexed": true,
          "internalType": "address",
          "name": "newOwner",
          "type": "address"
        }
      ],
      "name": "OwnershipTransferred",
      "type": "event"
    },
    {
      "constant": true,
      "inputs": [],
      "name": "isOwner",
      "outputs": [
        {
          "internalType": "bool",
          "name": "",
          "type": "bool"
        }
      ],
      "payable": false,
      "stateMutability": "view",
      "type": "function"
    },
    {
      "constant": true,
      "inputs": [],
      "name": "owner",
      "outputs": [
        {
          "internalType": "address",
          "name": "",
          "type": "address"
        }
      ],
      "payable": false,
      "stateMutability": "view",
      "type": "function"
    },
    {
      "constant": true,
      "inputs": [
        {
          "internalType": "uint256",
          "name": "",
          "type": "uint256"
        }
      ],
      "name": "pieceToOwner",
      "outputs": [
        {
          "internalType": "address",
          "name": "",
          "type": "address"
        }
      ],
      "payable": false,
      "stateMutability": "view",
      "type": "function"
    },
    {
      "constant": true,
      "inputs": [
        {
          "internalType": "uint256",
          "name": "",
          "type": "uint256"
        }
      ],
      "name": "pieces",
      "outputs": [
        {
          "internalType": "uint256",
          "name": "pieceDna",
          "type": "uint256"
        },
        {
          "internalType": "bytes32",
          "name": "pieceClass",
          "type": "bytes32"
        },
        {
          "internalType": "uint32",
          "name": "pieceReadyTime",
          "type": "uint32"
        },
        {
          "internalType": "uint256",
          "name": "pieceCreationLoc",
          "type": "uint256"
        },
        {
          "internalType": "uint16",
          "name": "mergeCount",
          "type": "uint16"
        }
      ],
      "payable": false,
      "stateMutability": "view",
      "type": "function"
    },
    {
      "constant": false,
      "inputs": [],
      "name": "renounceOwnership",
      "outputs": [],
      "payable": false,
      "stateMutability": "nonpayable",
      "type": "function"
    },
    {
      "constant": false,
      "inputs": [
        {
          "internalType": "address",
          "name": "newOwner",
          "type": "address"
        }
      ],
      "name": "transferOwnership",
      "outputs": [],
      "payable": false,
      "stateMutability": "nonpayable",
      "type": "function"
    }
  ],
  "bytecode": "0x60806040526010600155600154600a0a600255620151806003556000600755336000806101000a81548173ffffffffffffffffffffffffffffffffffffffff021916908373ffffffffffffffffffffffffffffffffffffffff1602179055506000809054906101000a900473ffffffffffffffffffffffffffffffffffffffff1673ffffffffffffffffffffffffffffffffffffffff16600073ffffffffffffffffffffffffffffffffffffffff167f8be0079c531659141344cd1fd0a4f28419497f9722a3daafe3b4186f6b6457e060405160405180910390a361052f806100e96000396000f3fe608060405234801561001057600080fd5b50600436106100625760003560e01c8063715018a6146100675780638da5cb5b146100715780638f32d59b146100bb5780638f64be30146100dd578063f2fde38b1461014f578063f56fa8d414610193575b600080fd5b61006f610201565b005b6100796102d1565b604051808273ffffffffffffffffffffffffffffffffffffffff1673ffffffffffffffffffffffffffffffffffffffff16815260200191505060405180910390f35b6100c36102fa565b604051808215151515815260200191505060405180910390f35b610109600480360360208110156100f357600080fd5b8101908080359060200190929190505050610351565b604051808681526020018581526020018463ffffffff1663ffffffff1681526020018381526020018261ffff1661ffff1681526020019550505050505060405180910390f35b6101916004803603602081101561016557600080fd5b81019080803573ffffffffffffffffffffffffffffffffffffffff1690602001909291905050506103b2565b005b6101bf600480360360208110156101a957600080fd5b81019080803590602001909291905050506103cf565b604051808273ffffffffffffffffffffffffffffffffffffffff1673ffffffffffffffffffffffffffffffffffffffff16815260200191505060405180910390f35b6102096102fa565b61021257600080fd5b600073ffffffffffffffffffffffffffffffffffffffff166000809054906101000a900473ffffffffffffffffffffffffffffffffffffffff1673ffffffffffffffffffffffffffffffffffffffff167f8be0079c531659141344cd1fd0a4f28419497f9722a3daafe3b4186f6b6457e060405160405180910390a360008060006101000a81548173ffffffffffffffffffffffffffffffffffffffff021916908373ffffffffffffffffffffffffffffffffffffffff160217905550565b60008060009054906101000a900473ffffffffffffffffffffffffffffffffffffffff16905090565b60008060009054906101000a900473ffffffffffffffffffffffffffffffffffffffff1673ffffffffffffffffffffffffffffffffffffffff163373ffffffffffffffffffffffffffffffffffffffff1614905090565b6004818154811061035e57fe5b90600052602060002090600502016000915090508060000154908060010154908060020160009054906101000a900463ffffffff16908060030154908060040160009054906101000a900461ffff16905085565b6103ba6102fa565b6103c357600080fd5b6103cc81610402565b50565b60056020528060005260406000206000915054906101000a900473ffffffffffffffffffffffffffffffffffffffff1681565b600073ffffffffffffffffffffffffffffffffffffffff168173ffffffffffffffffffffffffffffffffffffffff16141561043c57600080fd5b8073ffffffffffffffffffffffffffffffffffffffff166000809054906101000a900473ffffffffffffffffffffffffffffffffffffffff1673ffffffffffffffffffffffffffffffffffffffff167f8be0079c531659141344cd1fd0a4f28419497f9722a3daafe3b4186f6b6457e060405160405180910390a3806000806101000a81548173ffffffffffffffffffffffffffffffffffffffff021916908373ffffffffffffffffffffffffffffffffffffffff1602179055505056fea265627a7a72315820207647f46bf3f6b42110df8b257028b64334ce13fea1aa1a80aa0625042b563564736f6c63430005100032",
  "source": "// SPDX-License-Identifier: MIT\r\npragma solidity >=0.4.22 <0.9.0;\r\n\r\nimport \"./ownable.sol\";\r\nimport \"./safemath.sol\";\r\n\r\ncontract PieceFactory is Ownable {\r\n\r\n    using SafeMath for uint256;\r\n    using SafeMath32 for uint32;\r\n    using SafeMath16 for uint16;\r\n\r\n    event NewPiece(uint pieceId, uint pieceDna, bytes32 pieceClass, uint32 pieceReadyTime, uint256 pieceCreationLoc, uint16 pieceMergeCount);\r\n\r\n    uint pieceDnaDigits = 16;\r\n    uint pieceDnaModulus = 10 ** pieceDnaDigits;\r\n    uint pieceCdTime = 1 days;\r\n\r\n    struct Piece {\r\n        uint pieceDna;\r\n        bytes32 pieceClass;\r\n        uint32 pieceReadyTime;\r\n        uint256 pieceCreationLoc;\r\n        uint16 mergeCount;\r\n    }\r\n\r\n    Piece[] public pieces;\r\n\r\n    mapping (uint => address) public pieceToOwner;\r\n    mapping (address => uint) ownerPieceCount;\r\n\r\n    uint randPieceNonce = 0;\r\n\r\n    function randPieceMod(uint _modulus) internal returns(uint) {\r\n        randPieceNonce++;\r\n        return uint(keccak256(abi.encodePacked(block.timestamp,msg.sender,randPieceNonce))) % _modulus;\r\n    }\r\n\r\n    function _createPiece(bytes32 _class, uint _dna, uint256 _pieceCreationLoc) internal {\r\n        uint32 _readyTime = uint32(block.timestamp + pieceCdTime);\r\n        // Note: We chose not to prevent the year 2038 problem... So don't need\r\n        // worry about overflows on readyTime. Our app is screwed in 2038 anyway ;)\r\n        pieces.push(Piece(_dna, _class, _readyTime, _pieceCreationLoc, 0));\r\n        uint pieceId = pieces.length -1;\r\n        pieceToOwner[pieceId] = msg.sender;\r\n        ownerPieceCount[msg.sender] = ownerPieceCount[msg.sender].add(1);\r\n        emit NewPiece(pieceId, _dna, _class, _readyTime, _pieceCreationLoc, 0);\r\n    }\r\n\r\n    function _generateRandomPieceDna(string memory _str) private view returns (uint) {\r\n        uint rand = uint (keccak256(abi.encodePacked(_str)));\r\n        return rand % pieceDnaModulus;\r\n    }\r\n\r\n  function _createShoes(uint256 _curr_loc) internal {\r\n     bytes32 _class = keccak256(abi.encodePacked(\"Shoes\"));\r\n     uint randDna = _generateRandomPieceDna(\"Blank Shoes\");\r\n     randDna = randDna - randDna % 100;\r\n     _createPiece(_class, randDna, _curr_loc);\r\n  }\r\n\r\n  function _createSocks(uint256 _curr_loc) internal {\r\n     bytes32 _class = keccak256(abi.encodePacked(\"Socks\"));\r\n     uint randDna = _generateRandomPieceDna(\"Blank Socks\");\r\n     randDna = randDna - randDna % 100;\r\n     _createPiece(_class, randDna, _curr_loc);\r\n  }\r\n\r\n\r\n  function _createPants(uint256 _curr_loc) internal {\r\n     bytes32 _class = keccak256(abi.encodePacked(\"Pants\"));\r\n     uint randDna = _generateRandomPieceDna(\"Blank Pants\");\r\n     randDna = randDna - randDna % 100;\r\n     _createPiece(_class, randDna, _curr_loc);\r\n  }\r\n\r\n  function _createUnderwear(uint256 _curr_loc) internal {\r\n     bytes32 _class = keccak256(abi.encodePacked(\"Underwear\"));\r\n     uint randDna = _generateRandomPieceDna(\"Blank Underwear\");\r\n     randDna = randDna - randDna % 100;\r\n     _createPiece(_class, randDna, _curr_loc);\r\n  }\r\n\r\n  function _createShirt(uint256 _curr_loc) internal {\r\n     bytes32 _class = keccak256(abi.encodePacked(\"Shirt\"));\r\n     uint randDna = _generateRandomPieceDna(\"Blank Shirt\");\r\n     randDna = randDna - randDna % 100;\r\n     _createPiece(_class, randDna, _curr_loc);\r\n  }\r\n\r\n  function _createHoodie(uint256 _curr_loc) internal {\r\n     bytes32 _class = keccak256(abi.encodePacked(\"Hoodie\"));\r\n     uint randDna = _generateRandomPieceDna(\"Blank Hoodie\");\r\n     randDna = randDna - randDna % 100;\r\n     _createPiece(_class, randDna, _curr_loc);\r\n  }\r\n\r\n  function _createSnapback(uint256 _curr_loc) internal {\r\n     bytes32 _class = keccak256(abi.encodePacked(\"Snapback\"));\r\n     uint randDna = _generateRandomPieceDna(\"Blank Snapback\");\r\n     randDna = randDna - randDna % 100;\r\n     _createPiece(_class, randDna, _curr_loc);\r\n  }\r\n\r\n  function _createTravelPaint(uint256 _ini_loc, uint256 _end_loc) internal {\r\n     bytes32 _class = keccak256(abi.encodePacked(\"Travel Paint\"));\r\n     uint randDna = _generateRandomPieceDna(string(abi.encodePacked(_ini_loc, _end_loc)));\r\n     randDna = randDna - randDna % 100;\r\n     _createPiece(_class, randDna, _end_loc);\r\n  }\r\n\r\n  function _createTravelItem(uint256 _ini_loc, uint256 _end_loc) internal {\r\n     bytes32 _class = keccak256(abi.encodePacked(\"Travel Item\"));\r\n     uint randDna = _generateRandomPieceDna(string(abi.encodePacked(_ini_loc, _end_loc)));\r\n     randDna = randDna - randDna % 100;\r\n     _createPiece(_class, randDna, _end_loc);\r\n  }\r\n\r\n  function _createTravelCoupon(uint256 _ini_loc, uint256 _end_loc) internal {\r\n     bytes32 _class = keccak256(abi.encodePacked(\"Travel Coupon\"));\r\n     uint randDna = _generateRandomPieceDna(string(abi.encodePacked(_ini_loc, _end_loc)));\r\n     randDna = randDna - randDna % 100;\r\n     _createPiece(_class, randDna, _end_loc);\r\n  }\r\n\r\n}",
  "sourcePath": "C:\\Users\\pablo\\PycharmProjects\\LiveAndTravel\\contracts\\piecefactory.sol",
  "compiler": {
    "name": "solc",
    "version": "0.5.16+commit.9c3226ce.Emscripten.clang"
  },
  "schemaVersion": "3.4.4",
  "updatedAt": "2022-01-18T21:10:52.221Z",
  "devdoc": {
    "methods": {}
  },
  "userdoc": {
    "methods": {}
  }
}