{
  "contractName": "PieceMerging",
  "abi": [
    {
      "anonymous": false,
      "inputs": [
        {
          "indexed": false,
          "internalType": "uint256",
          "name": "pieceId",
          "type": "uint256"
        },
        {
          "indexed": false,
          "internalType": "uint256",
          "name": "pieceDna",
          "type": "uint256"
        },
        {
          "indexed": false,
          "internalType": "bytes32",
          "name": "pieceClass",
          "type": "bytes32"
        },
        {
          "indexed": false,
          "internalType": "uint32",
          "name": "pieceReadyTime",
          "type": "uint32"
        },
        {
          "indexed": false,
          "internalType": "uint16",
          "name": "pieceLevel",
          "type": "uint16"
        },
        {
          "indexed": false,
          "internalType": "uint16",
          "name": "pieceLuck",
          "type": "uint16"
        },
        {
          "indexed": false,
          "internalType": "uint16",
          "name": "pieceInt",
          "type": "uint16"
        },
        {
          "indexed": false,
          "internalType": "uint16",
          "name": "pieceAgi",
          "type": "uint16"
        },
        {
          "indexed": false,
          "internalType": "uint16",
          "name": "pieceStr",
          "type": "uint16"
        },
        {
          "indexed": false,
          "internalType": "uint16",
          "name": "pieceSta",
          "type": "uint16"
        },
        {
          "indexed": false,
          "internalType": "uint16",
          "name": "pieceMergeCount",
          "type": "uint16"
        }
      ],
      "name": "NewPiece",
      "type": "event"
    },
    {
      "anonymous": false,
      "inputs": [
        {
          "indexed": true,
          "internalType": "address",
          "name": "previousOwner",
          "type": "address"
        },
        {
          "indexed": true,
          "internalType": "address",
          "name": "newOwner",
          "type": "address"
        }
      ],
      "name": "OwnershipTransferred",
      "type": "event"
    },
    {
      "inputs": [],
      "name": "createHoodie",
      "outputs": [],
      "stateMutability": "payable",
      "type": "function"
    },
    {
      "inputs": [],
      "name": "createPants",
      "outputs": [],
      "stateMutability": "payable",
      "type": "function"
    },
    {
      "inputs": [],
      "name": "createShirt",
      "outputs": [],
      "stateMutability": "payable",
      "type": "function"
    },
    {
      "inputs": [],
      "name": "createSnapback",
      "outputs": [],
      "stateMutability": "payable",
      "type": "function"
    },
    {
      "inputs": [],
      "name": "createSocks",
      "outputs": [],
      "stateMutability": "payable",
      "type": "function"
    },
    {
      "inputs": [
        {
          "internalType": "uint256",
          "name": "_location",
          "type": "uint256"
        }
      ],
      "name": "createTravelPaint",
      "outputs": [],
      "stateMutability": "payable",
      "type": "function"
    },
    {
      "inputs": [],
      "name": "createUnderwear",
      "outputs": [],
      "stateMutability": "payable",
      "type": "function"
    },
    {
      "inputs": [],
      "name": "isOwner",
      "outputs": [
        {
          "internalType": "bool",
          "name": "",
          "type": "bool"
        }
      ],
      "stateMutability": "view",
      "type": "function"
    },
    {
      "inputs": [
        {
          "internalType": "uint256",
          "name": "_itemId",
          "type": "uint256"
        }
      ],
      "name": "migratePantsItem",
      "outputs": [],
      "stateMutability": "payable",
      "type": "function"
    },
    {
      "inputs": [
        {
          "internalType": "uint256",
          "name": "_itemId",
          "type": "uint256"
        }
      ],
      "name": "migrateShirtItem",
      "outputs": [],
      "stateMutability": "payable",
      "type": "function"
    },
    {
      "inputs": [
        {
          "internalType": "uint256",
          "name": "_itemId",
          "type": "uint256"
        }
      ],
      "name": "migrateShoesItem",
      "outputs": [],
      "stateMutability": "payable",
      "type": "function"
    },
    {
      "inputs": [
        {
          "internalType": "uint256",
          "name": "_itemId",
          "type": "uint256"
        }
      ],
      "name": "migrateSnapbackItem",
      "outputs": [],
      "stateMutability": "payable",
      "type": "function"
    },
    {
      "inputs": [
        {
          "internalType": "uint256",
          "name": "_itemId",
          "type": "uint256"
        }
      ],
      "name": "migrateSocksItem",
      "outputs": [],
      "stateMutability": "payable",
      "type": "function"
    },
    {
      "inputs": [
        {
          "internalType": "uint256",
          "name": "_itemId",
          "type": "uint256"
        }
      ],
      "name": "migrateUnderwearItem",
      "outputs": [],
      "stateMutability": "payable",
      "type": "function"
    },
    {
      "inputs": [],
      "name": "owner",
      "outputs": [
        {
          "internalType": "address",
          "name": "",
          "type": "address"
        }
      ],
      "stateMutability": "view",
      "type": "function"
    },
    {
      "inputs": [
        {
          "internalType": "uint256",
          "name": "",
          "type": "uint256"
        }
      ],
      "name": "pieceToOwner",
      "outputs": [
        {
          "internalType": "address",
          "name": "",
          "type": "address"
        }
      ],
      "stateMutability": "view",
      "type": "function"
    },
    {
      "inputs": [
        {
          "internalType": "uint256",
          "name": "",
          "type": "uint256"
        }
      ],
      "name": "pieces",
      "outputs": [
        {
          "internalType": "uint256",
          "name": "pieceDna",
          "type": "uint256"
        },
        {
          "internalType": "bytes32",
          "name": "pieceClass",
          "type": "bytes32"
        },
        {
          "internalType": "uint32",
          "name": "pieceReadyTime",
          "type": "uint32"
        },
        {
          "internalType": "uint16",
          "name": "pieceLevel",
          "type": "uint16"
        },
        {
          "internalType": "uint16",
          "name": "pieceLuck",
          "type": "uint16"
        },
        {
          "internalType": "uint16",
          "name": "pieceIntellect",
          "type": "uint16"
        },
        {
          "internalType": "uint16",
          "name": "pieceAgility",
          "type": "uint16"
        },
        {
          "internalType": "uint16",
          "name": "pieceStrength",
          "type": "uint16"
        },
        {
          "internalType": "uint16",
          "name": "pieceStamina",
          "type": "uint16"
        },
        {
          "internalType": "uint16",
          "name": "mergeCount",
          "type": "uint16"
        }
      ],
      "stateMutability": "view",
      "type": "function"
    },
    {
      "inputs": [],
      "name": "renounceOwnership",
      "outputs": [],
      "stateMutability": "nonpayable",
      "type": "function"
    },
    {
      "inputs": [
        {
          "internalType": "address",
          "name": "_address",
          "type": "address"
        }
      ],
      "name": "setHoodieContractAddress",
      "outputs": [],
      "stateMutability": "nonpayable",
      "type": "function"
    },
    {
      "inputs": [
        {
          "internalType": "address",
          "name": "_address",
          "type": "address"
        }
      ],
      "name": "setPantsContractAddress",
      "outputs": [],
      "stateMutability": "nonpayable",
      "type": "function"
    },
    {
      "inputs": [
        {
          "internalType": "address",
          "name": "_address",
          "type": "address"
        }
      ],
      "name": "setShirtContractAddress",
      "outputs": [],
      "stateMutability": "nonpayable",
      "type": "function"
    },
    {
      "inputs": [
        {
          "internalType": "address",
          "name": "_address",
          "type": "address"
        }
      ],
      "name": "setShoesContractAddress",
      "outputs": [],
      "stateMutability": "nonpayable",
      "type": "function"
    },
    {
      "inputs": [
        {
          "internalType": "address",
          "name": "_address",
          "type": "address"
        }
      ],
      "name": "setSnapbackContractAddress",
      "outputs": [],
      "stateMutability": "nonpayable",
      "type": "function"
    },
    {
      "inputs": [
        {
          "internalType": "address",
          "name": "_address",
          "type": "address"
        }
      ],
      "name": "setSocksContractAddress",
      "outputs": [],
      "stateMutability": "nonpayable",
      "type": "function"
    },
    {
      "inputs": [
        {
          "internalType": "address",
          "name": "_address",
          "type": "address"
        }
      ],
      "name": "setUnderwearContractAddress",
      "outputs": [],
      "stateMutability": "nonpayable",
      "type": "function"
    },
    {
      "inputs": [
        {
          "internalType": "address",
          "name": "newOwner",
          "type": "address"
        }
      ],
      "name": "transferOwnership",
      "outputs": [],
      "stateMutability": "nonpayable",
      "type": "function"
    },
    {
      "inputs": [
        {
          "internalType": "uint256",
          "name": "_pieceId",
          "type": "uint256"
        },
        {
          "internalType": "uint256",
          "name": "_targetPieceId",
          "type": "uint256"
        }
      ],
      "name": "merge",
      "outputs": [],
      "stateMutability": "payable",
      "type": "function"
    }
  ],
  "bytecode": "0x60806040526010600155600154600a6200001a9190620002a6565b6002556201518060035567016345785d8a00006007556000600855605f6010556001601155662386f26fc100006012553480156200005757600080fd5b50336000806101000a81548173ffffffffffffffffffffffffffffffffffffffff021916908373ffffffffffffffffffffffffffffffffffffffff16021790555060008054906101000a900473ffffffffffffffffffffffffffffffffffffffff1673ffffffffffffffffffffffffffffffffffffffff16600073ffffffffffffffffffffffffffffffffffffffff167f8be0079c531659141344cd1fd0a4f28419497f9722a3daafe3b4186f6b6457e060405160405180910390a3620002f7565b7f4e487b7100000000000000000000000000000000000000000000000000000000600052601160045260246000fd5b60008160011c9050919050565b6000808291508390505b6001851115620001a7578086048111156200017f576200017e62000119565b5b60018516156200018f5780820291505b80810290506200019f8562000148565b94506200015f565b94509492505050565b600082620001c2576001905062000295565b81620001d2576000905062000295565b8160018114620001eb5760028114620001f6576200022c565b600191505062000295565b60ff8411156200020b576200020a62000119565b5b8360020a91508482111562000225576200022462000119565b5b5062000295565b5060208310610133831016604e8410600b8410161715620002665782820a90508381111562000260576200025f62000119565b5b62000295565b62000275848484600162000155565b925090508184048111156200028f576200028e62000119565b5b81810290505b9392505050565b6000819050919050565b6000620002b3826200029c565b9150620002c0836200029c565b9250620002ef7fffffffffffffffffffffffffffffffffffffffffffffffffffffffffffffffff8484620001b0565b905092915050565b612f5480620003076000396000f3fe60806040526004361061019c5760003560e01c80637be41814116100ec578063b4ad1c031161008a578063e14d485b11610064578063e14d485b1461044a578063ebb0481e14610473578063f2fde38b1461048f578063f56fa8d4146104b85761019c565b8063b4ad1c0314610408578063c27a9cae14610424578063d1c2babb1461042e5761019c565b80638da5cb5b116100c65780638da5cb5b146103625780638f32d59b1461038d5780638f64be30146103b85780639005c5eb146103fe5761019c565b80637be41814146102f45780637c47a7da1461031d5780638c081f5d146103395761019c565b80634f1b3e3e116101595780636c492f3d116101335780636c492f3d1461028e578063715018a6146102b757806374503a2b146102ce5780637a18736e146102d85761019c565b80634f1b3e3e1461023f57806358c8f090146102685780636adb7c9c146102725761019c565b806302281d04146101a15780630cdecbc1146101bd5780631a9beb8f146101d9578063241ec36d146101e357806327f1a4f31461020c57806330a3924814610235575b600080fd5b6101bb60048036038101906101b6919061204a565b6104f5565b005b6101d760048036038101906101d2919061204a565b610603565b005b6101e1610711565b005b3480156101ef57600080fd5b5061020a600480360381019061020591906120d5565b6107fe565b005b34801561021857600080fd5b50610233600480360381019061022e91906120d5565b610853565b005b61023d6108a8565b005b34801561024b57600080fd5b50610266600480360381019061026191906120d5565b610995565b005b6102706109ea565b005b61028c6004803603810190610287919061204a565b610ad7565b005b34801561029a57600080fd5b506102b560048036038101906102b091906120d5565b610be5565b005b3480156102c357600080fd5b506102cc610c3a565b005b6102d6610d09565b005b6102f260048036038101906102ed919061204a565b610df6565b005b34801561030057600080fd5b5061031b600480360381019061031691906120d5565b610f04565b005b6103376004803603810190610332919061204a565b610f59565b005b34801561034557600080fd5b50610360600480360381019061035b91906120d5565b611033565b005b34801561036e57600080fd5b50610377611088565b6040516103849190612111565b60405180910390f35b34801561039957600080fd5b506103a26110b1565b6040516103af9190612147565b60405180910390f35b3480156103c457600080fd5b506103df60048036038101906103da919061204a565b611108565b6040516103f59a999897969594939291906121c6565b60405180910390f35b6104066111de565b005b610422600480360381019061041d919061204a565b6112cb565b005b61042c6113d9565b005b61044860048036038101906104439190612262565b6114c6565b005b34801561045657600080fd5b50610471600480360381019061046c91906120d5565b6118d7565b005b61048d6004803603810190610488919061204a565b61192c565b005b34801561049b57600080fd5b506104b660048036038101906104b191906120d5565b611a3a565b005b3480156104c457600080fd5b506104df60048036038101906104da919061204a565b611a57565b6040516104ec9190612111565b60405180910390f35b600754341461050357600080fd5b600081604051602001610516919061231a565b6040516020818303038152906040528051906020012090506000600b60009054906101000a900473ffffffffffffffffffffffffffffffffffffffff1673ffffffffffffffffffffffffffffffffffffffff16634337932d846040518263ffffffff1660e01b815260040161058b9190612340565b61010060405180830381865afa1580156105a9573d6000803e3d6000fd5b505050506040513d601f19601f820116820180604052508101906105cd919061239c565b9091929394959650909192939495509091929394509091929350909192509091509050809150506105fe8282611a8a565b505050565b600754341461061157600080fd5b600081604051602001610624919061249e565b6040516020818303038152906040528051906020012090506000600960009054906101000a900473ffffffffffffffffffffffffffffffffffffffff1673ffffffffffffffffffffffffffffffffffffffff1663a5f23e1d846040518263ffffffff1660e01b81526004016106999190612340565b61010060405180830381865afa1580156106b7573d6000803e3d6000fd5b505050506040513d601f19601f820116820180604052508101906106db919061239c565b90919293949596509091929394955090919293945090919293509091925090915090508091505061070c8282611a8a565b505050565b600754341461071f57600080fd5b6000600660003373ffffffffffffffffffffffffffffffffffffffff1673ffffffffffffffffffffffffffffffffffffffff168152602001908152602001600020541461076b57600080fd5b600060405160200161077c90612510565b60405160208183030381529060405280519060200120905060006107d46040518060400160405280600f81526020017f426c616e6b20556e646572776561720000000000000000000000000000000000815250611dbd565b90506064816107e39190612554565b816107ee91906125b4565b90506107fa8282611a8a565b5050565b6108066110b1565b61080f57600080fd5b80600b60006101000a81548173ffffffffffffffffffffffffffffffffffffffff021916908373ffffffffffffffffffffffffffffffffffffffff16021790555050565b61085b6110b1565b61086457600080fd5b80600c60006101000a81548173ffffffffffffffffffffffffffffffffffffffff021916908373ffffffffffffffffffffffffffffffffffffffff16021790555050565b60075434146108b657600080fd5b6000600660003373ffffffffffffffffffffffffffffffffffffffff1673ffffffffffffffffffffffffffffffffffffffff168152602001908152602001600020541461090257600080fd5b600060405160200161091390612634565b604051602081830303815290604052805190602001209050600061096b6040518060400160405280600e81526020017f426c616e6b20536e61706261636b000000000000000000000000000000000000815250611dbd565b905060648161097a9190612554565b8161098591906125b4565b90506109918282611a8a565b5050565b61099d6110b1565b6109a657600080fd5b80600f60006101000a81548173ffffffffffffffffffffffffffffffffffffffff021916908373ffffffffffffffffffffffffffffffffffffffff16021790555050565b60075434146109f857600080fd5b6000600660003373ffffffffffffffffffffffffffffffffffffffff1673ffffffffffffffffffffffffffffffffffffffff1681526020019081526020016000205414610a4457600080fd5b6000604051602001610a5590612695565b6040516020818303038152906040528051906020012090506000610aad6040518060400160405280600c81526020017f426c616e6b20486f6f6469650000000000000000000000000000000000000000815250611dbd565b9050606481610abc9190612554565b81610ac791906125b4565b9050610ad38282611a8a565b5050565b6007543414610ae557600080fd5b600081604051602001610af891906126f6565b6040516020818303038152906040528051906020012090506000600d60009054906101000a900473ffffffffffffffffffffffffffffffffffffffff1673ffffffffffffffffffffffffffffffffffffffff16634c9c05ea846040518263ffffffff1660e01b8152600401610b6d9190612340565b61010060405180830381865afa158015610b8b573d6000803e3d6000fd5b505050506040513d601f19601f82011682018060405250810190610baf919061239c565b909192939495965090919293949550909192939450909192935090919250909150905080915050610be08282611a8a565b505050565b610bed6110b1565b610bf657600080fd5b80600a60006101000a81548173ffffffffffffffffffffffffffffffffffffffff021916908373ffffffffffffffffffffffffffffffffffffffff16021790555050565b610c426110b1565b610c4b57600080fd5b600073ffffffffffffffffffffffffffffffffffffffff1660008054906101000a900473ffffffffffffffffffffffffffffffffffffffff1673ffffffffffffffffffffffffffffffffffffffff167f8be0079c531659141344cd1fd0a4f28419497f9722a3daafe3b4186f6b6457e060405160405180910390a360008060006101000a81548173ffffffffffffffffffffffffffffffffffffffff021916908373ffffffffffffffffffffffffffffffffffffffff160217905550565b6007543414610d1757600080fd5b6000600660003373ffffffffffffffffffffffffffffffffffffffff1673ffffffffffffffffffffffffffffffffffffffff1681526020019081526020016000205414610d6357600080fd5b6000604051602001610d7490612768565b6040516020818303038152906040528051906020012090506000610dcc6040518060400160405280600b81526020017f426c616e6b2050616e7473000000000000000000000000000000000000000000815250611dbd565b9050606481610ddb9190612554565b81610de691906125b4565b9050610df28282611a8a565b5050565b6007543414610e0457600080fd5b600081604051602001610e1791906127c9565b6040516020818303038152906040528051906020012090506000600c60009054906101000a900473ffffffffffffffffffffffffffffffffffffffff1673ffffffffffffffffffffffffffffffffffffffff166325f76202846040518263ffffffff1660e01b8152600401610e8c9190612340565b61010060405180830381865afa158015610eaa573d6000803e3d6000fd5b505050506040513d601f19601f82011682018060405250810190610ece919061239c565b909192939495965090919293949550909192939450909192935090919250909150905080915050610eff8282611a8a565b505050565b610f0c6110b1565b610f1557600080fd5b80600d60006101000a81548173ffffffffffffffffffffffffffffffffffffffff021916908373ffffffffffffffffffffffffffffffffffffffff16021790555050565b6007543414610f6757600080fd5b6000600660003373ffffffffffffffffffffffffffffffffffffffff1673ffffffffffffffffffffffffffffffffffffffff1681526020019081526020016000205414610fb357600080fd5b600081604051602001610fc6919061283b565b604051602081830303815290604052805190602001209050600061100883604051602001610ff4919061283b565b604051602081830303815290604052611dbd565b90506064816110179190612554565b8161102291906125b4565b905061102e8282611a8a565b505050565b61103b6110b1565b61104457600080fd5b80600960006101000a81548173ffffffffffffffffffffffffffffffffffffffff021916908373ffffffffffffffffffffffffffffffffffffffff16021790555050565b60008060009054906101000a900473ffffffffffffffffffffffffffffffffffffffff16905090565b60008060009054906101000a900473ffffffffffffffffffffffffffffffffffffffff1673ffffffffffffffffffffffffffffffffffffffff163373ffffffffffffffffffffffffffffffffffffffff1614905090565b6004818154811061111857600080fd5b90600052602060002090600302016000915090508060000154908060010154908060020160009054906101000a900463ffffffff16908060020160049054906101000a900461ffff16908060020160069054906101000a900461ffff16908060020160089054906101000a900461ffff169080600201600a9054906101000a900461ffff169080600201600c9054906101000a900461ffff169080600201600e9054906101000a900461ffff16908060020160109054906101000a900461ffff1690508a565b60075434146111ec57600080fd5b6000600660003373ffffffffffffffffffffffffffffffffffffffff1673ffffffffffffffffffffffffffffffffffffffff168152602001908152602001600020541461123857600080fd5b6000604051602001611249906128ad565b60405160208183030381529060405280519060200120905060006112a16040518060400160405280600b81526020017f426c616e6b20536f636b73000000000000000000000000000000000000000000815250611dbd565b90506064816112b09190612554565b816112bb91906125b4565b90506112c78282611a8a565b5050565b60075434146112d957600080fd5b6000816040516020016112ec919061290e565b6040516020818303038152906040528051906020012090506000600a60009054906101000a900473ffffffffffffffffffffffffffffffffffffffff1673ffffffffffffffffffffffffffffffffffffffff1663ee5394de846040518263ffffffff1660e01b81526004016113619190612340565b61010060405180830381865afa15801561137f573d6000803e3d6000fd5b505050506040513d601f19601f820116820180604052508101906113a3919061239c565b9091929394959650909192939495509091929394509091929350909192509091509050809150506113d48282611a8a565b505050565b60075434146113e757600080fd5b6000600660003373ffffffffffffffffffffffffffffffffffffffff1673ffffffffffffffffffffffffffffffffffffffff168152602001908152602001600020541461143357600080fd5b600060405160200161144490612980565b604051602081830303815290604052805190602001209050600061149c6040518060400160405280600b81526020017f426c616e6b205368697274000000000000000000000000000000000000000000815250611dbd565b90506064816114ab9190612554565b816114b691906125b4565b90506114c28282611a8a565b5050565b816005600082815260200190815260200160002060009054906101000a900473ffffffffffffffffffffffffffffffffffffffff1673ffffffffffffffffffffffffffffffffffffffff163373ffffffffffffffffffffffffffffffffffffffff161461153257600080fd5b816005600082815260200190815260200160002060009054906101000a900473ffffffffffffffffffffffffffffffffffffffff1673ffffffffffffffffffffffffffffffffffffffff163373ffffffffffffffffffffffffffffffffffffffff161461159e57600080fd5b6000600485815481106115b4576115b3612995565b5b906000526020600020906003020190506000600485815481106115da576115d9612995565b5b906000526020600020906003020190506115f382611e02565b6115fc57600080fd5b61160581611e02565b61160e57600080fd5b601254341461161c57600080fd5b600060028260000154846000015461163491906129c4565b61163e9190612a1a565b9050600060405160200161165190612a97565b6040516020818303038152906040528051906020012084600101541480156116a6575082600101546040516020016116899190612acd565b604051602081830303815290604052805190602001208360010154145b156116dd5782600101546040516020016116c09190612b3f565b6040516020818303038152906040528051906020012090506117a1565b83600101546040516020016116f29190612acd565b604051602081830303815290604052805190602001208460010154148015611741575060405160200161172490612a97565b604051602081830303815290604052805190602001208360010154145b1561177857836001015460405160200161175b9190612b3f565b6040516020818303038152906040528051906020012090506117a0565b60405160200161178790612bb1565b6040516020818303038152906040528051906020012090505b5b60006117ad6064611e29565b905060105481111580156117d957506011548560020160109054906101000a900461ffff1661ffff1611155b15611843576117e88284611a8a565b6117f185611e85565b6117fa84611e85565b61182460018660020160109054906101000a900461ffff1661ffff16611eb890919063ffffffff16565b8560020160106101000a81548161ffff021916908361ffff1602179055505b6010548111801561186c57506011548560020160109054906101000a900461ffff1661ffff1611155b156118cc5761187a85611e85565b61188384611e85565b6118ad60018660020160109054906101000a900461ffff1661ffff16611eb890919063ffffffff16565b8560020160106101000a81548161ffff021916908361ffff1602179055505b505050505050505050565b6118df6110b1565b6118e857600080fd5b80600e60006101000a81548173ffffffffffffffffffffffffffffffffffffffff021916908373ffffffffffffffffffffffffffffffffffffffff16021790555050565b600754341461193a57600080fd5b60008160405160200161194d9190612c12565b6040516020818303038152906040528051906020012090506000600f60009054906101000a900473ffffffffffffffffffffffffffffffffffffffff1673ffffffffffffffffffffffffffffffffffffffff1663447dc311846040518263ffffffff1660e01b81526004016119c29190612340565b61010060405180830381865afa1580156119e0573d6000803e3d6000fd5b505050506040513d601f19601f82011682018060405250810190611a04919061239c565b909192939495965090919293949550909192939450909192935090919250909150905080915050611a358282611a8a565b505050565b611a426110b1565b611a4b57600080fd5b611a5481611eec565b50565b60056020528060005260406000206000915054906101000a900473ffffffffffffffffffffffffffffffffffffffff1681565b600060035442611a9a91906129c4565b905060046040518061014001604052808481526020018581526020018363ffffffff168152602001600161ffff168152602001600161ffff168152602001600161ffff168152602001600161ffff168152602001600161ffff168152602001600161ffff168152602001600061ffff168152509080600181540180825580915050600190039060005260206000209060030201600090919091909150600082015181600001556020820151816001015560408201518160020160006101000a81548163ffffffff021916908363ffffffff16021790555060608201518160020160046101000a81548161ffff021916908361ffff16021790555060808201518160020160066101000a81548161ffff021916908361ffff16021790555060a08201518160020160086101000a81548161ffff021916908361ffff16021790555060c082015181600201600a6101000a81548161ffff021916908361ffff16021790555060e082015181600201600c6101000a81548161ffff021916908361ffff16021790555061010082015181600201600e6101000a81548161ffff021916908361ffff1602179055506101208201518160020160106101000a81548161ffff021916908361ffff160217905550505060006001600480549050611c7e91906125b4565b9050336005600083815260200190815260200160002060006101000a81548173ffffffffffffffffffffffffffffffffffffffff021916908373ffffffffffffffffffffffffffffffffffffffff160217905550611d256001600660003373ffffffffffffffffffffffffffffffffffffffff1673ffffffffffffffffffffffffffffffffffffffff16815260200190815260200160002054611fe390919063ffffffff16565b600660003373ffffffffffffffffffffffffffffffffffffffff1673ffffffffffffffffffffffffffffffffffffffff168152602001908152602001600020819055507fd58efb7994e28d1377ec0d585ff7107bd97f413ff747c3432d25a442157b7dcc818486856001806001806001806000604051611daf9b9a99989796959493929190612cb8565b60405180910390a150505050565b60008082604051602001611dd19190612dd2565b6040516020818303038152906040528051906020012060001c905060025481611dfa9190612554565b915050919050565b6000428260020160009054906101000a900463ffffffff1663ffffffff1611159050919050565b600060086000815480929190611e3e90612de9565b9190505550814233600854604051602001611e5b93929190612e7a565b6040516020818303038152906040528051906020012060001c611e7e9190612554565b9050919050565b60035442611e9391906129c4565b8160020160006101000a81548163ffffffff021916908363ffffffff16021790555050565b6000808284611ec79190612eb7565b90508361ffff168161ffff161015611ee257611ee1612eef565b5b8091505092915050565b600073ffffffffffffffffffffffffffffffffffffffff168173ffffffffffffffffffffffffffffffffffffffff161415611f2657600080fd5b8073ffffffffffffffffffffffffffffffffffffffff1660008054906101000a900473ffffffffffffffffffffffffffffffffffffffff1673ffffffffffffffffffffffffffffffffffffffff167f8be0079c531659141344cd1fd0a4f28419497f9722a3daafe3b4186f6b6457e060405160405180910390a3806000806101000a81548173ffffffffffffffffffffffffffffffffffffffff021916908373ffffffffffffffffffffffffffffffffffffffff16021790555050565b6000808284611ff291906129c4565b90508381101561200557612004612eef565b5b8091505092915050565b600080fd5b6000819050919050565b61202781612014565b811461203257600080fd5b50565b6000813590506120448161201e565b92915050565b6000602082840312156120605761205f61200f565b5b600061206e84828501612035565b91505092915050565b600073ffffffffffffffffffffffffffffffffffffffff82169050919050565b60006120a282612077565b9050919050565b6120b281612097565b81146120bd57600080fd5b50565b6000813590506120cf816120a9565b92915050565b6000602082840312156120eb576120ea61200f565b5b60006120f9848285016120c0565b91505092915050565b61210b81612097565b82525050565b60006020820190506121266000830184612102565b92915050565b60008115159050919050565b6121418161212c565b82525050565b600060208201905061215c6000830184612138565b92915050565b61216b81612014565b82525050565b6000819050919050565b61218481612171565b82525050565b600063ffffffff82169050919050565b6121a38161218a565b82525050565b600061ffff82169050919050565b6121c0816121a9565b82525050565b6000610140820190506121dc600083018d612162565b6121e9602083018c61217b565b6121f6604083018b61219a565b612203606083018a6121b7565b61221060808301896121b7565b61221d60a08301886121b7565b61222a60c08301876121b7565b61223760e08301866121b7565b6122456101008301856121b7565b6122536101208301846121b7565b9b9a5050505050505050505050565b600080604083850312156122795761227861200f565b5b600061228785828601612035565b925050602061229885828601612035565b9150509250929050565b6000819050919050565b6122bd6122b882612014565b6122a2565b82525050565b600081905092915050565b7f2050616e74730000000000000000000000000000000000000000000000000000600082015250565b60006123046006836122c3565b915061230f826122ce565b600682019050919050565b600061232682846122ac565b602082019150612335826122f7565b915081905092915050565b60006020820190506123556000830184612162565b92915050565b6123648161212c565b811461236f57600080fd5b50565b6000815190506123818161235b565b92915050565b6000815190506123968161201e565b92915050565b600080600080600080600080610100898b0312156123bd576123bc61200f565b5b60006123cb8b828c01612372565b98505060206123dc8b828c01612387565b97505060406123ed8b828c01612387565b96505060606123fe8b828c01612387565b955050608061240f8b828c01612387565b94505060a06124208b828c01612387565b93505060c06124318b828c01612387565b92505060e06124428b828c01612387565b9150509295985092959890939650565b7f2053686f65730000000000000000000000000000000000000000000000000000600082015250565b60006124886006836122c3565b915061249382612452565b600682019050919050565b60006124aa82846122ac565b6020820191506124b98261247b565b915081905092915050565b7f426c616e6b20556e646572776561720000000000000000000000000000000000600082015250565b60006124fa600f836122c3565b9150612505826124c4565b600f82019050919050565b600061251b826124ed565b9150819050919050565b7f4e487b7100000000000000000000000000000000000000000000000000000000600052601260045260246000fd5b600061255f82612014565b915061256a83612014565b92508261257a57612579612525565b5b828206905092915050565b7f4e487b7100000000000000000000000000000000000000000000000000000000600052601160045260246000fd5b60006125bf82612014565b91506125ca83612014565b9250828210156125dd576125dc612585565b5b828203905092915050565b7f426c616e6b20536e61706261636b000000000000000000000000000000000000600082015250565b600061261e600e836122c3565b9150612629826125e8565b600e82019050919050565b600061263f82612611565b9150819050919050565b7f426c616e6b20486f6f6469650000000000000000000000000000000000000000600082015250565b600061267f600c836122c3565b915061268a82612649565b600c82019050919050565b60006126a082612672565b9150819050919050565b7f2053686972740000000000000000000000000000000000000000000000000000600082015250565b60006126e06006836122c3565b91506126eb826126aa565b600682019050919050565b600061270282846122ac565b602082019150612711826126d3565b915081905092915050565b7f426c616e6b2050616e7473000000000000000000000000000000000000000000600082015250565b6000612752600b836122c3565b915061275d8261271c565b600b82019050919050565b600061277382612745565b9150819050919050565b7f20556e6465727765617200000000000000000000000000000000000000000000600082015250565b60006127b3600a836122c3565b91506127be8261277d565b600a82019050919050565b60006127d582846122ac565b6020820191506127e4826127a6565b915081905092915050565b7f54726176656c205061696e742066726f6d200000000000000000000000000000600082015250565b60006128256012836122c3565b9150612830826127ef565b601282019050919050565b600061284682612818565b915061285282846122ac565b60208201915081905092915050565b7f426c616e6b20536f636b73000000000000000000000000000000000000000000600082015250565b6000612897600b836122c3565b91506128a282612861565b600b82019050919050565b60006128b88261288a565b9150819050919050565b7f20536f636b730000000000000000000000000000000000000000000000000000600082015250565b60006128f86006836122c3565b9150612903826128c2565b600682019050919050565b600061291a82846122ac565b602082019150612929826128eb565b915081905092915050565b7f426c616e6b205368697274000000000000000000000000000000000000000000600082015250565b600061296a600b836122c3565b915061297582612934565b600b82019050919050565b600061298b8261295d565b9150819050919050565b7f4e487b7100000000000000000000000000000000000000000000000000000000600052603260045260246000fd5b60006129cf82612014565b91506129da83612014565b9250827fffffffffffffffffffffffffffffffffffffffffffffffffffffffffffffffff03821115612a0f57612a0e612585565b5b828201905092915050565b6000612a2582612014565b9150612a3083612014565b925082612a4057612a3f612525565b5b828204905092915050565b7f426c616e6b2053686f6573000000000000000000000000000000000000000000600082015250565b6000612a81600b836122c3565b9150612a8c82612a4b565b600b82019050919050565b6000612aa282612a74565b9150819050919050565b6000819050919050565b612ac7612ac282612171565b612aac565b82525050565b6000612ad882612818565b9150612ae48284612ab6565b60208201915081905092915050565b7f207061696e7465642053686f6573000000000000000000000000000000000000600082015250565b6000612b29600e836122c3565b9150612b3482612af3565b600e82019050919050565b6000612b4b8284612ab6565b602082019150612b5a82612b1c565b915081905092915050565b7f6e6577436c617373657300000000000000000000000000000000000000000000600082015250565b6000612b9b600a836122c3565b9150612ba682612b65565b600a82019050919050565b6000612bbc82612b8e565b9150819050919050565b7f20536e61706261636b0000000000000000000000000000000000000000000000600082015250565b6000612bfc6009836122c3565b9150612c0782612bc6565b600982019050919050565b6000612c1e82846122ac565b602082019150612c2d82612bef565b915081905092915050565b6000819050919050565b6000819050919050565b6000612c67612c62612c5d84612c38565b612c42565b6121a9565b9050919050565b612c7781612c4c565b82525050565b6000819050919050565b6000612ca2612c9d612c9884612c7d565b612c42565b6121a9565b9050919050565b612cb281612c87565b82525050565b600061016082019050612cce600083018e612162565b612cdb602083018d612162565b612ce8604083018c61217b565b612cf5606083018b61219a565b612d02608083018a612c6e565b612d0f60a0830189612c6e565b612d1c60c0830188612c6e565b612d2960e0830187612c6e565b612d37610100830186612c6e565b612d45610120830185612c6e565b612d53610140830184612ca9565b9c9b505050505050505050505050565b600081519050919050565b60005b83811015612d8c578082015181840152602081019050612d71565b83811115612d9b576000848401525b50505050565b6000612dac82612d63565b612db681856122c3565b9350612dc6818560208601612d6e565b80840191505092915050565b6000612dde8284612da1565b915081905092915050565b6000612df482612014565b91507fffffffffffffffffffffffffffffffffffffffffffffffffffffffffffffffff821415612e2757612e26612585565b5b600182019050919050565b60008160601b9050919050565b6000612e4a82612e32565b9050919050565b6000612e5c82612e3f565b9050919050565b612e74612e6f82612097565b612e51565b82525050565b6000612e8682866122ac565b602082019150612e968285612e63565b601482019150612ea682846122ac565b602082019150819050949350505050565b6000612ec2826121a9565b9150612ecd836121a9565b92508261ffff03821115612ee457612ee3612585565b5b828201905092915050565b7f4e487b7100000000000000000000000000000000000000000000000000000000600052600160045260246000fdfea26469706673582212205e8cf81df62c54caaefbad5538109479a3be092045391945593e8debc9b417a464736f6c634300080a0033",
  "immutableReferences": {},
  "source": "// SPDX-License-Identifier: MIT\r\npragma solidity >=0.4.22 <0.9.0;\r\n\r\nimport \"./piecemigration.sol\";\r\nimport \"./safemath.sol\";\r\n\r\n\r\ncontract PieceMerging is PieceMigration {\r\n\r\n    using SafeMath16 for uint16;\r\n\r\n    uint mergeProbability = 95;\r\n    uint maxMerge = 1;\r\n    modifier onlyOwnerOfPiece(uint _pieceId) {\r\n        require(msg.sender == pieceToOwner[_pieceId]);\r\n        _;\r\n    }\r\n\r\n    function _triggerCd(Piece storage _piece) internal {\r\n        _piece.pieceReadyTime = uint32(block.timestamp + pieceCdTime);\r\n    }\r\n\r\n    function _isReady(Piece storage _piece) internal view returns (bool) {\r\n       return (_piece.pieceReadyTime <= block.timestamp);\r\n    }\r\n\r\n    uint mergeFee = 0.01 ether; //live tokens\r\n\r\n    function merge(uint _pieceId, uint _targetPieceId) external onlyOwnerOfPiece(_pieceId) onlyOwnerOfPiece(_targetPieceId) payable {\r\n        Piece storage myPiece = pieces[_pieceId];\r\n        Piece storage targetPiece = pieces[_targetPieceId];\r\n        require(_isReady(myPiece));\r\n        require (_isReady(targetPiece));\r\n        require(msg.value == mergeFee);\r\n        uint newDna = (myPiece.pieceDna + targetPiece.pieceDna) / 2;\r\n        bytes32 newClass;\r\n        if (((myPiece.pieceClass == keccak256(abi.encodePacked(\"Blank Shoes\"))) && (targetPiece.pieceClass == keccak256(abi.encodePacked(\"Travel Paint from \",targetPiece.pieceClass))))) {\r\n            newClass = keccak256(abi.encodePacked(targetPiece.pieceClass,\" painted Shoes\"));\r\n        } else if (((myPiece.pieceClass == keccak256(abi.encodePacked(\"Travel Paint from \",myPiece.pieceClass))) && (targetPiece.pieceClass == keccak256(abi.encodePacked(\"Blank Shoes\"))))) {\r\n            newClass = keccak256(abi.encodePacked(myPiece.pieceClass,\" painted Shoes\"));\r\n        }\r\n        //complete combinations\r\n        else {\r\n            newClass = keccak256(abi.encodePacked(\"newClasses\"));\r\n        }\r\n        uint rand = randMod(100);\r\n        if (rand <= mergeProbability && myPiece.mergeCount <= maxMerge) {\r\n            _createPiece(newClass, newDna);\r\n            _triggerCd(myPiece);\r\n            _triggerCd(targetPiece);\r\n            myPiece.mergeCount = myPiece.mergeCount.add(1);\r\n            //burn old piece\r\n        } if (rand > mergeProbability && myPiece.mergeCount <= maxMerge) {\r\n            _triggerCd(myPiece);\r\n            _triggerCd(targetPiece);\r\n            myPiece.mergeCount = myPiece.mergeCount.add(1);\r\n        }\r\n    }\r\n}\r\n",
  "sourcePath": "C:\\Users\\pablo\\PycharmProjects\\LiveAndTravel\\contracts\\piecemerging.sol",
  "compiler": {
    "name": "solc",
    "version": "0.8.10+commit.fc410830.Emscripten.clang"
  },
  "schemaVersion": "3.4.4",
  "updatedAt": "2022-01-01T19:27:48.491Z",
  "devdoc": {
    "kind": "dev",
    "methods": {},
    "version": 1
  },
  "userdoc": {
    "kind": "user",
    "methods": {},
    "version": 1
  }
}