{
  "contractName": "PieceFactory",
  "abi": [
    {
      "anonymous": false,
      "inputs": [
        {
          "indexed": false,
          "internalType": "uint256",
          "name": "pieceId",
          "type": "uint256"
        },
        {
          "indexed": false,
          "internalType": "uint256",
          "name": "pieceDna",
          "type": "uint256"
        },
        {
          "indexed": false,
          "internalType": "string",
          "name": "pieceName",
          "type": "string"
        },
        {
          "indexed": false,
          "internalType": "string",
          "name": "pieceSex",
          "type": "string"
        },
        {
          "indexed": false,
          "internalType": "bytes32",
          "name": "pieceClass",
          "type": "bytes32"
        },
        {
          "indexed": false,
          "internalType": "uint32",
          "name": "pieceReadyTime",
          "type": "uint32"
        },
        {
          "indexed": false,
          "internalType": "uint16",
          "name": "pieceLevel",
          "type": "uint16"
        },
        {
          "indexed": false,
          "internalType": "uint16",
          "name": "pieceLuck",
          "type": "uint16"
        },
        {
          "indexed": false,
          "internalType": "uint16",
          "name": "pieceInt",
          "type": "uint16"
        },
        {
          "indexed": false,
          "internalType": "uint16",
          "name": "pieceAgi",
          "type": "uint16"
        },
        {
          "indexed": false,
          "internalType": "uint16",
          "name": "pieceStr",
          "type": "uint16"
        },
        {
          "indexed": false,
          "internalType": "uint16",
          "name": "pieceSta",
          "type": "uint16"
        },
        {
          "indexed": false,
          "internalType": "uint16",
          "name": "pieceMergeCount",
          "type": "uint16"
        }
      ],
      "name": "NewPiece",
      "type": "event"
    },
    {
      "anonymous": false,
      "inputs": [
        {
          "indexed": true,
          "internalType": "address",
          "name": "previousOwner",
          "type": "address"
        },
        {
          "indexed": true,
          "internalType": "address",
          "name": "newOwner",
          "type": "address"
        }
      ],
      "name": "OwnershipTransferred",
      "type": "event"
    },
    {
      "inputs": [],
      "name": "isOwner",
      "outputs": [
        {
          "internalType": "bool",
          "name": "",
          "type": "bool"
        }
      ],
      "stateMutability": "view",
      "type": "function"
    },
    {
      "inputs": [],
      "name": "owner",
      "outputs": [
        {
          "internalType": "address",
          "name": "",
          "type": "address"
        }
      ],
      "stateMutability": "view",
      "type": "function"
    },
    {
      "inputs": [
        {
          "internalType": "uint256",
          "name": "",
          "type": "uint256"
        }
      ],
      "name": "pieceToOwner",
      "outputs": [
        {
          "internalType": "address",
          "name": "",
          "type": "address"
        }
      ],
      "stateMutability": "view",
      "type": "function"
    },
    {
      "inputs": [
        {
          "internalType": "uint256",
          "name": "",
          "type": "uint256"
        }
      ],
      "name": "pieces",
      "outputs": [
        {
          "internalType": "uint256",
          "name": "pieceDna",
          "type": "uint256"
        },
        {
          "internalType": "string",
          "name": "pieceName",
          "type": "string"
        },
        {
          "internalType": "string",
          "name": "pieceSex",
          "type": "string"
        },
        {
          "internalType": "bytes32",
          "name": "pieceClass",
          "type": "bytes32"
        },
        {
          "internalType": "uint32",
          "name": "pieceReadyTime",
          "type": "uint32"
        },
        {
          "internalType": "uint16",
          "name": "pieceLevel",
          "type": "uint16"
        },
        {
          "internalType": "uint16",
          "name": "pieceLuck",
          "type": "uint16"
        },
        {
          "internalType": "uint16",
          "name": "pieceIntellect",
          "type": "uint16"
        },
        {
          "internalType": "uint16",
          "name": "pieceAgility",
          "type": "uint16"
        },
        {
          "internalType": "uint16",
          "name": "pieceStrength",
          "type": "uint16"
        },
        {
          "internalType": "uint16",
          "name": "pieceStamina",
          "type": "uint16"
        },
        {
          "internalType": "uint16",
          "name": "mergeCount",
          "type": "uint16"
        }
      ],
      "stateMutability": "view",
      "type": "function"
    },
    {
      "inputs": [],
      "name": "renounceOwnership",
      "outputs": [],
      "stateMutability": "nonpayable",
      "type": "function"
    },
    {
      "inputs": [
        {
          "internalType": "address",
          "name": "newOwner",
          "type": "address"
        }
      ],
      "name": "transferOwnership",
      "outputs": [],
      "stateMutability": "nonpayable",
      "type": "function"
    },
    {
      "inputs": [
        {
          "internalType": "string",
          "name": "_name",
          "type": "string"
        },
        {
          "internalType": "string",
          "name": "_sex",
          "type": "string"
        }
      ],
      "name": "createRandomPiece",
      "outputs": [],
      "stateMutability": "payable",
      "type": "function"
    }
  ],
  "bytecode": "0x60806040526010600155600154600a6200001a919062000291565b60025562015180600355670de0b6b3a764000060075560006008553480156200004257600080fd5b50336000806101000a81548173ffffffffffffffffffffffffffffffffffffffff021916908373ffffffffffffffffffffffffffffffffffffffff16021790555060008054906101000a900473ffffffffffffffffffffffffffffffffffffffff1673ffffffffffffffffffffffffffffffffffffffff16600073ffffffffffffffffffffffffffffffffffffffff167f8be0079c531659141344cd1fd0a4f28419497f9722a3daafe3b4186f6b6457e060405160405180910390a3620002e2565b7f4e487b7100000000000000000000000000000000000000000000000000000000600052601160045260246000fd5b60008160011c9050919050565b6000808291508390505b600185111562000192578086048111156200016a576200016962000104565b5b60018516156200017a5780820291505b80810290506200018a8562000133565b94506200014a565b94509492505050565b600082620001ad576001905062000280565b81620001bd576000905062000280565b8160018114620001d65760028114620001e15762000217565b600191505062000280565b60ff841115620001f657620001f562000104565b5b8360020a91508482111562000210576200020f62000104565b5b5062000280565b5060208310610133831016604e8410600b8410161715620002515782820a9050838111156200024b576200024a62000104565b5b62000280565b62000260848484600162000140565b925090508184048111156200027a576200027962000104565b5b81810290505b9392505050565b6000819050919050565b60006200029e8262000287565b9150620002ab8362000287565b9250620002da7fffffffffffffffffffffffffffffffffffffffffffffffffffffffffffffffff84846200019b565b905092915050565b6114be80620002f26000396000f3fe6080604052600436106100705760003560e01c80638f32d59b1161004e5780638f32d59b146100d35780638f64be30146100fe578063f2fde38b14610146578063f56fa8d41461016f57610070565b80636d86604e14610075578063715018a6146100915780638da5cb5b146100a8575b600080fd5b61008f600480360381019061008a9190610d10565b6101ac565b005b34801561009d57600080fd5b506100a6610267565b005b3480156100b457600080fd5b506100bd610336565b6040516100ca9190610dc9565b60405180910390f35b3480156100df57600080fd5b506100e861035f565b6040516100f59190610dff565b60405180910390f35b34801561010a57600080fd5b5061012560048036038101906101209190610e50565b6103b6565b60405161013d9c9b9a99989796959493929190610f69565b60405180910390f35b34801561015257600080fd5b5061016d6004803603810190610168919061105d565b6105a8565b005b34801561017b57600080fd5b5061019660048036038101906101919190610e50565b6105c5565b6040516101a39190610dc9565b60405180910390f35b60075434146101ba57600080fd5b6000600660003373ffffffffffffffffffffffffffffffffffffffff1673ffffffffffffffffffffffffffffffffffffffff168152602001908152602001600020541461020657600080fd5b6000604051602001610217906110e1565b604051602081830303815290604052805190602001209050600061023a846105f8565b90506064816102499190611125565b816102549190611185565b905061026182848361063d565b50505050565b61026f61035f565b61027857600080fd5b600073ffffffffffffffffffffffffffffffffffffffff1660008054906101000a900473ffffffffffffffffffffffffffffffffffffffff1673ffffffffffffffffffffffffffffffffffffffff167f8be0079c531659141344cd1fd0a4f28419497f9722a3daafe3b4186f6b6457e060405160405180910390a360008060006101000a81548173ffffffffffffffffffffffffffffffffffffffff021916908373ffffffffffffffffffffffffffffffffffffffff160217905550565b60008060009054906101000a900473ffffffffffffffffffffffffffffffffffffffff16905090565b60008060009054906101000a900473ffffffffffffffffffffffffffffffffffffffff1673ffffffffffffffffffffffffffffffffffffffff163373ffffffffffffffffffffffffffffffffffffffff1614905090565b600481815481106103c657600080fd5b90600052602060002090600502016000915090508060000154908060010180546103ef906111e8565b80601f016020809104026020016040519081016040528092919081815260200182805461041b906111e8565b80156104685780601f1061043d57610100808354040283529160200191610468565b820191906000526020600020905b81548152906001019060200180831161044b57829003601f168201915b50505050509080600201805461047d906111e8565b80601f01602080910402602001604051908101604052809291908181526020018280546104a9906111e8565b80156104f65780601f106104cb576101008083540402835291602001916104f6565b820191906000526020600020905b8154815290600101906020018083116104d957829003601f168201915b5050505050908060030154908060040160009054906101000a900463ffffffff16908060040160049054906101000a900461ffff16908060040160069054906101000a900461ffff16908060040160089054906101000a900461ffff169080600401600a9054906101000a900461ffff169080600401600c9054906101000a900461ffff169080600401600e9054906101000a900461ffff16908060040160109054906101000a900461ffff1690508c565b6105b061035f565b6105b957600080fd5b6105c2816109f0565b50565b60056020528060005260406000206000915054906101000a900473ffffffffffffffffffffffffffffffffffffffff1681565b6000808260405160200161060c919061124b565b6040516020818303038152906040528051906020012060001c9050600254816106359190611125565b915050919050565b60006003544261064d9190611262565b905060046040518061018001604052808481526020016040518060400160405280600681526020017f4e6f4e616d65000000000000000000000000000000000000000000000000000081525081526020018581526020018681526020018363ffffffff168152602001600161ffff168152602001600161ffff168152602001600161ffff168152602001600161ffff168152602001600161ffff168152602001600161ffff168152602001600061ffff168152509080600181540180825580915050600190039060005260206000209060050201600090919091909150600082015181600001556020820151816001019080519060200190610750929190610b13565b50604082015181600201908051906020019061076d929190610b13565b506060820151816003015560808201518160040160006101000a81548163ffffffff021916908363ffffffff16021790555060a08201518160040160046101000a81548161ffff021916908361ffff16021790555060c08201518160040160066101000a81548161ffff021916908361ffff16021790555060e08201518160040160086101000a81548161ffff021916908361ffff16021790555061010082015181600401600a6101000a81548161ffff021916908361ffff16021790555061012082015181600401600c6101000a81548161ffff021916908361ffff16021790555061014082015181600401600e6101000a81548161ffff021916908361ffff1602179055506101608201518160040160106101000a81548161ffff021916908361ffff1602179055505050600060016004805490506108ae9190611185565b9050336005600083815260200190815260200160002060006101000a81548173ffffffffffffffffffffffffffffffffffffffff021916908373ffffffffffffffffffffffffffffffffffffffff1602179055506109556001600660003373ffffffffffffffffffffffffffffffffffffffff1673ffffffffffffffffffffffffffffffffffffffff16815260200190815260200160002054610ae790919063ffffffff16565b600660003373ffffffffffffffffffffffffffffffffffffffff1673ffffffffffffffffffffffffffffffffffffffff168152602001908152602001600020819055507f8c0ab4f733626b70a14feffd2077d631c06ed4a29b41dd5d93c852a5312c398b818486888660018060018060018060006040516109e19c9b9a99989796959493929190611384565b60405180910390a15050505050565b600073ffffffffffffffffffffffffffffffffffffffff168173ffffffffffffffffffffffffffffffffffffffff161415610a2a57600080fd5b8073ffffffffffffffffffffffffffffffffffffffff1660008054906101000a900473ffffffffffffffffffffffffffffffffffffffff1673ffffffffffffffffffffffffffffffffffffffff167f8be0079c531659141344cd1fd0a4f28419497f9722a3daafe3b4186f6b6457e060405160405180910390a3806000806101000a81548173ffffffffffffffffffffffffffffffffffffffff021916908373ffffffffffffffffffffffffffffffffffffffff16021790555050565b6000808284610af69190611262565b905083811015610b0957610b08611459565b5b8091505092915050565b828054610b1f906111e8565b90600052602060002090601f016020900481019282610b415760008555610b88565b82601f10610b5a57805160ff1916838001178555610b88565b82800160010185558215610b88579182015b82811115610b87578251825591602001919060010190610b6c565b5b509050610b959190610b99565b5090565b5b80821115610bb2576000816000905550600101610b9a565b5090565b6000604051905090565b600080fd5b600080fd5b600080fd5b600080fd5b6000601f19601f8301169050919050565b7f4e487b7100000000000000000000000000000000000000000000000000000000600052604160045260246000fd5b610c1d82610bd4565b810181811067ffffffffffffffff82111715610c3c57610c3b610be5565b5b80604052505050565b6000610c4f610bb6565b9050610c5b8282610c14565b919050565b600067ffffffffffffffff821115610c7b57610c7a610be5565b5b610c8482610bd4565b9050602081019050919050565b82818337600083830152505050565b6000610cb3610cae84610c60565b610c45565b905082815260208101848484011115610ccf57610cce610bcf565b5b610cda848285610c91565b509392505050565b600082601f830112610cf757610cf6610bca565b5b8135610d07848260208601610ca0565b91505092915050565b60008060408385031215610d2757610d26610bc0565b5b600083013567ffffffffffffffff811115610d4557610d44610bc5565b5b610d5185828601610ce2565b925050602083013567ffffffffffffffff811115610d7257610d71610bc5565b5b610d7e85828601610ce2565b9150509250929050565b600073ffffffffffffffffffffffffffffffffffffffff82169050919050565b6000610db382610d88565b9050919050565b610dc381610da8565b82525050565b6000602082019050610dde6000830184610dba565b92915050565b60008115159050919050565b610df981610de4565b82525050565b6000602082019050610e146000830184610df0565b92915050565b6000819050919050565b610e2d81610e1a565b8114610e3857600080fd5b50565b600081359050610e4a81610e24565b92915050565b600060208284031215610e6657610e65610bc0565b5b6000610e7484828501610e3b565b91505092915050565b610e8681610e1a565b82525050565b600081519050919050565b600082825260208201905092915050565b60005b83811015610ec6578082015181840152602081019050610eab565b83811115610ed5576000848401525b50505050565b6000610ee682610e8c565b610ef08185610e97565b9350610f00818560208601610ea8565b610f0981610bd4565b840191505092915050565b6000819050919050565b610f2781610f14565b82525050565b600063ffffffff82169050919050565b610f4681610f2d565b82525050565b600061ffff82169050919050565b610f6381610f4c565b82525050565b600061018082019050610f7f600083018f610e7d565b8181036020830152610f91818e610edb565b90508181036040830152610fa5818d610edb565b9050610fb4606083018c610f1e565b610fc1608083018b610f3d565b610fce60a083018a610f5a565b610fdb60c0830189610f5a565b610fe860e0830188610f5a565b610ff6610100830187610f5a565b611004610120830186610f5a565b611012610140830185610f5a565b611020610160830184610f5a565b9d9c50505050505050505050505050565b61103a81610da8565b811461104557600080fd5b50565b60008135905061105781611031565b92915050565b60006020828403121561107357611072610bc0565b5b600061108184828501611048565b91505092915050565b600081905092915050565b7f74726176656c6572000000000000000000000000000000000000000000000000600082015250565b60006110cb60088361108a565b91506110d682611095565b600882019050919050565b60006110ec826110be565b9150819050919050565b7f4e487b7100000000000000000000000000000000000000000000000000000000600052601260045260246000fd5b600061113082610e1a565b915061113b83610e1a565b92508261114b5761114a6110f6565b5b828206905092915050565b7f4e487b7100000000000000000000000000000000000000000000000000000000600052601160045260246000fd5b600061119082610e1a565b915061119b83610e1a565b9250828210156111ae576111ad611156565b5b828203905092915050565b7f4e487b7100000000000000000000000000000000000000000000000000000000600052602260045260246000fd5b6000600282049050600182168061120057607f821691505b60208210811415611214576112136111b9565b5b50919050565b600061122582610e8c565b61122f818561108a565b935061123f818560208601610ea8565b80840191505092915050565b6000611257828461121a565b915081905092915050565b600061126d82610e1a565b915061127883610e1a565b9250827fffffffffffffffffffffffffffffffffffffffffffffffffffffffffffffffff038211156112ad576112ac611156565b5b828201905092915050565b7f4e6f4e616d650000000000000000000000000000000000000000000000000000600082015250565b60006112ee600683610e97565b91506112f9826112b8565b602082019050919050565b6000819050919050565b6000819050919050565b600061133361132e61132984611304565b61130e565b610f4c565b9050919050565b61134381611318565b82525050565b6000819050919050565b600061136e61136961136484611349565b61130e565b610f4c565b9050919050565b61137e81611353565b82525050565b60006101a08201905061139a600083018f610e7d565b6113a7602083018e610e7d565b81810360408301526113b8816112e1565b905081810360608301526113cc818d610edb565b90506113db608083018c610f1e565b6113e860a083018b610f3d565b6113f560c083018a61133a565b61140260e083018961133a565b61141061010083018861133a565b61141e61012083018761133a565b61142c61014083018661133a565b61143a61016083018561133a565b611448610180830184611375565b9d9c50505050505050505050505050565b7f4e487b7100000000000000000000000000000000000000000000000000000000600052600160045260246000fdfea26469706673582212200d7b77cdc5ed0def20a31a1f7023a78aed2970e5ec591c976294554c15e68f4764736f6c634300080a0033",
  "immutableReferences": {},
  "source": "// SPDX-License-Identifier: MIT\r\npragma solidity >=0.4.22 <0.9.0;\r\n\r\nimport \"./ownable.sol\";\r\nimport \"./safemath.sol\";\r\n\r\ncontract PieceFactory is Ownable {\r\n\r\n    using SafeMath for uint256;\r\n    using SafeMath32 for uint32;\r\n    using SafeMath16 for uint16;\r\n\r\n    event NewPiece(uint pieceId, uint pieceDna, string pieceName, string pieceSex, bytes32 pieceClass, uint32 pieceReadyTime, uint16 pieceLevel,  uint16 pieceLuck, uint16 pieceInt, uint16 pieceAgi, uint16 pieceStr, uint16 pieceSta, uint16 pieceMergeCount);\r\n\r\n    uint pieceDnaDigits = 16;\r\n    uint pieceDnaModulus = 10 ** pieceDnaDigits;\r\n    uint pieceCdTime = 1 days;\r\n\r\n    struct Piece {\r\n        uint pieceDna;\r\n        string pieceName;\r\n        string pieceSex;\r\n        bytes32 pieceClass;\r\n        uint32 pieceReadyTime;\r\n        uint16 pieceLevel;\r\n        uint16 pieceLuck;\r\n        uint16 pieceIntellect;\r\n        uint16 pieceAgility;\r\n        uint16 pieceStrength;\r\n        uint16 pieceStamina;\r\n        uint16 mergeCount;\r\n    }\r\n\r\n    Piece[] public pieces;\r\n\r\n    mapping (uint => address) public pieceToOwner;\r\n    mapping (address => uint) ownerPieceCount;\r\n\r\n    uint pieceCreationFee = 1 ether;\r\n    uint randNonce = 0;\r\n\r\n    function randMod(uint _modulus) internal returns(uint) {\r\n        randNonce++;\r\n        return uint(keccak256(abi.encodePacked(block.timestamp,msg.sender,randNonce))) % _modulus;\r\n    }\r\n\r\n    function _randSex() internal returns(string memory) {\r\n        uint maleProbability = 50;\r\n        string memory _sex;\r\n        if (randMod(100) <= maleProbability) {\r\n            _sex = \"male\";\r\n        } else {\r\n            _sex = \"female\";\r\n        }\r\n        return (_sex);\r\n    }\r\n\r\n    function _createPiece(bytes32 _class, string memory _sex, uint _dna) internal {\r\n        uint32 _readyTime = uint32(block.timestamp + pieceCdTime);\r\n        // Note: We chose not to prevent the year 2038 problem... So don't need\r\n        // worry about overflows on readyTime. Our app is screwed in 2038 anyway ;)\r\n        pieces.push(Piece(_dna, \"NoName\", _sex, _class, _readyTime, 1, 1, 1, 1, 1, 1, 0));\r\n        uint pieceId = pieces.length -1;\r\n        pieceToOwner[pieceId] = msg.sender;\r\n        ownerPieceCount[msg.sender] = ownerPieceCount[msg.sender].add(1);\r\n        emit NewPiece(pieceId, _dna, \"NoName\", _sex, _class, _readyTime, 1, 1, 1, 1, 1, 1, 0);\r\n    }\r\n\r\n    function _generateRandomPieceDna(string memory _str) private view returns (uint) {\r\n        uint rand = uint (keccak256(abi.encodePacked(_str)));\r\n        return rand % pieceDnaModulus;\r\n    }\r\n\r\n    function createRandomPiece(string memory _name, string memory _sex) public payable {\r\n        require(msg.value == pieceCreationFee);\r\n        require(ownerPieceCount[msg.sender] == 0);\r\n        bytes32 _class = keccak256(abi.encodePacked(\"traveler\"));\r\n        uint randDna = _generateRandomPieceDna(_name);\r\n        randDna = randDna - randDna % 100;\r\n        _createPiece(_class, _sex, randDna);\r\n    }\r\n}",
  "sourcePath": "C:\\Users\\pablo\\PycharmProjects\\LiveAndTravel\\contracts\\piecefactory.sol",
  "compiler": {
    "name": "solc",
    "version": "0.8.10+commit.fc410830.Emscripten.clang"
  },
  "schemaVersion": "3.4.4",
  "updatedAt": "2021-12-30T16:56:21.449Z",
  "devdoc": {
    "kind": "dev",
    "methods": {},
    "version": 1
  },
  "userdoc": {
    "kind": "user",
    "methods": {},
    "version": 1
  }
}