{
  "contractName": "PieceHelper",
  "abi": [
    {
      "anonymous": false,
      "inputs": [
        {
          "indexed": false,
          "internalType": "uint256",
          "name": "pieceId",
          "type": "uint256"
        },
        {
          "indexed": false,
          "internalType": "uint256",
          "name": "pieceDna",
          "type": "uint256"
        },
        {
          "indexed": false,
          "internalType": "bytes32",
          "name": "pieceClass",
          "type": "bytes32"
        },
        {
          "indexed": false,
          "internalType": "uint32",
          "name": "pieceReadyTime",
          "type": "uint32"
        },
        {
          "indexed": false,
          "internalType": "uint256",
          "name": "pieceCreationLoc",
          "type": "uint256"
        },
        {
          "indexed": false,
          "internalType": "uint16",
          "name": "pieceMergeCount",
          "type": "uint16"
        }
      ],
      "name": "NewPiece",
      "type": "event"
    },
    {
      "anonymous": false,
      "inputs": [
        {
          "indexed": true,
          "internalType": "address",
          "name": "previousOwner",
          "type": "address"
        },
        {
          "indexed": true,
          "internalType": "address",
          "name": "newOwner",
          "type": "address"
        }
      ],
      "name": "OwnershipTransferred",
      "type": "event"
    },
    {
      "inputs": [],
      "name": "isOwner",
      "outputs": [
        {
          "internalType": "bool",
          "name": "",
          "type": "bool"
        }
      ],
      "stateMutability": "view",
      "type": "function"
    },
    {
      "inputs": [
        {
          "internalType": "uint256",
          "name": "_pieceId",
          "type": "uint256"
        },
        {
          "internalType": "uint256",
          "name": "_targetPieceId",
          "type": "uint256"
        },
        {
          "internalType": "uint256",
          "name": "_curr_loc",
          "type": "uint256"
        }
      ],
      "name": "merge",
      "outputs": [],
      "stateMutability": "payable",
      "type": "function"
    },
    {
      "inputs": [
        {
          "internalType": "uint256",
          "name": "_itemId",
          "type": "uint256"
        },
        {
          "internalType": "uint256",
          "name": "_curr_loc",
          "type": "uint256"
        }
      ],
      "name": "migratePantsItem",
      "outputs": [],
      "stateMutability": "payable",
      "type": "function"
    },
    {
      "inputs": [
        {
          "internalType": "uint256",
          "name": "_itemId",
          "type": "uint256"
        },
        {
          "internalType": "uint256",
          "name": "_curr_loc",
          "type": "uint256"
        }
      ],
      "name": "migrateShirtItem",
      "outputs": [],
      "stateMutability": "payable",
      "type": "function"
    },
    {
      "inputs": [
        {
          "internalType": "uint256",
          "name": "_itemId",
          "type": "uint256"
        },
        {
          "internalType": "uint256",
          "name": "_curr_loc",
          "type": "uint256"
        }
      ],
      "name": "migrateShoesItem",
      "outputs": [],
      "stateMutability": "payable",
      "type": "function"
    },
    {
      "inputs": [
        {
          "internalType": "uint256",
          "name": "_itemId",
          "type": "uint256"
        },
        {
          "internalType": "uint256",
          "name": "_curr_loc",
          "type": "uint256"
        }
      ],
      "name": "migrateSnapbackItem",
      "outputs": [],
      "stateMutability": "payable",
      "type": "function"
    },
    {
      "inputs": [
        {
          "internalType": "uint256",
          "name": "_itemId",
          "type": "uint256"
        },
        {
          "internalType": "uint256",
          "name": "_curr_loc",
          "type": "uint256"
        }
      ],
      "name": "migrateSocksItem",
      "outputs": [],
      "stateMutability": "payable",
      "type": "function"
    },
    {
      "inputs": [
        {
          "internalType": "uint256",
          "name": "_itemId",
          "type": "uint256"
        },
        {
          "internalType": "uint256",
          "name": "_curr_loc",
          "type": "uint256"
        }
      ],
      "name": "migrateUnderwearItem",
      "outputs": [],
      "stateMutability": "payable",
      "type": "function"
    },
    {
      "inputs": [],
      "name": "owner",
      "outputs": [
        {
          "internalType": "address",
          "name": "",
          "type": "address"
        }
      ],
      "stateMutability": "view",
      "type": "function"
    },
    {
      "inputs": [
        {
          "internalType": "uint256",
          "name": "",
          "type": "uint256"
        }
      ],
      "name": "pieceToOwner",
      "outputs": [
        {
          "internalType": "address",
          "name": "",
          "type": "address"
        }
      ],
      "stateMutability": "view",
      "type": "function"
    },
    {
      "inputs": [
        {
          "internalType": "uint256",
          "name": "",
          "type": "uint256"
        }
      ],
      "name": "pieces",
      "outputs": [
        {
          "internalType": "uint256",
          "name": "pieceDna",
          "type": "uint256"
        },
        {
          "internalType": "bytes32",
          "name": "pieceClass",
          "type": "bytes32"
        },
        {
          "internalType": "uint32",
          "name": "pieceReadyTime",
          "type": "uint32"
        },
        {
          "internalType": "uint256",
          "name": "pieceCreationLoc",
          "type": "uint256"
        },
        {
          "internalType": "uint16",
          "name": "mergeCount",
          "type": "uint16"
        }
      ],
      "stateMutability": "view",
      "type": "function"
    },
    {
      "inputs": [],
      "name": "renounceOwnership",
      "outputs": [],
      "stateMutability": "nonpayable",
      "type": "function"
    },
    {
      "inputs": [
        {
          "internalType": "address",
          "name": "_address",
          "type": "address"
        }
      ],
      "name": "setHoodieContractAddress",
      "outputs": [],
      "stateMutability": "nonpayable",
      "type": "function"
    },
    {
      "inputs": [
        {
          "internalType": "address",
          "name": "_address",
          "type": "address"
        }
      ],
      "name": "setPantsContractAddress",
      "outputs": [],
      "stateMutability": "nonpayable",
      "type": "function"
    },
    {
      "inputs": [
        {
          "internalType": "address",
          "name": "_address",
          "type": "address"
        }
      ],
      "name": "setShirtContractAddress",
      "outputs": [],
      "stateMutability": "nonpayable",
      "type": "function"
    },
    {
      "inputs": [
        {
          "internalType": "address",
          "name": "_address",
          "type": "address"
        }
      ],
      "name": "setShoesContractAddress",
      "outputs": [],
      "stateMutability": "nonpayable",
      "type": "function"
    },
    {
      "inputs": [
        {
          "internalType": "address",
          "name": "_address",
          "type": "address"
        }
      ],
      "name": "setSnapbackContractAddress",
      "outputs": [],
      "stateMutability": "nonpayable",
      "type": "function"
    },
    {
      "inputs": [
        {
          "internalType": "address",
          "name": "_address",
          "type": "address"
        }
      ],
      "name": "setSocksContractAddress",
      "outputs": [],
      "stateMutability": "nonpayable",
      "type": "function"
    },
    {
      "inputs": [
        {
          "internalType": "address",
          "name": "_address",
          "type": "address"
        }
      ],
      "name": "setUnderwearContractAddress",
      "outputs": [],
      "stateMutability": "nonpayable",
      "type": "function"
    },
    {
      "inputs": [
        {
          "internalType": "address",
          "name": "newOwner",
          "type": "address"
        }
      ],
      "name": "transferOwnership",
      "outputs": [],
      "stateMutability": "nonpayable",
      "type": "function"
    },
    {
      "inputs": [],
      "name": "withdrawPiece",
      "outputs": [],
      "stateMutability": "payable",
      "type": "function"
    },
    {
      "inputs": [
        {
          "internalType": "uint256",
          "name": "_pieceId",
          "type": "uint256"
        },
        {
          "internalType": "uint256",
          "name": "_newDna",
          "type": "uint256"
        }
      ],
      "name": "changePieceDna",
      "outputs": [],
      "stateMutability": "payable",
      "type": "function"
    },
    {
      "inputs": [
        {
          "internalType": "address",
          "name": "_owner",
          "type": "address"
        }
      ],
      "name": "getPiecesByOwner",
      "outputs": [
        {
          "internalType": "uint256[]",
          "name": "",
          "type": "uint256[]"
        }
      ],
      "stateMutability": "view",
      "type": "function"
    }
  ],
  "bytecode": "0x60806040526010600155600154600a6200001a9190620002be565b600255620151806003556000600755670de0b6b3a7640000600855605f601055600160115567016345785d8a0000601255678ac7230489e80000601355662386f26fc100006014553480156200006f57600080fd5b50336000806101000a81548173ffffffffffffffffffffffffffffffffffffffff021916908373ffffffffffffffffffffffffffffffffffffffff16021790555060008054906101000a900473ffffffffffffffffffffffffffffffffffffffff1673ffffffffffffffffffffffffffffffffffffffff16600073ffffffffffffffffffffffffffffffffffffffff167f8be0079c531659141344cd1fd0a4f28419497f9722a3daafe3b4186f6b6457e060405160405180910390a36200030f565b7f4e487b7100000000000000000000000000000000000000000000000000000000600052601160045260246000fd5b60008160011c9050919050565b6000808291508390505b6001851115620001bf5780860481111562000197576200019662000131565b5b6001851615620001a75780820291505b8081029050620001b78562000160565b945062000177565b94509492505050565b600082620001da5760019050620002ad565b81620001ea5760009050620002ad565b81600181146200020357600281146200020e5762000244565b6001915050620002ad565b60ff84111562000223576200022262000131565b5b8360020a9150848211156200023d576200023c62000131565b5b50620002ad565b5060208310610133831016604e8410600b84101617156200027e5782820a90508381111562000278576200027762000131565b5b620002ad565b6200028d84848460016200016d565b92509050818404811115620002a757620002a662000131565b5b81810290505b9392505050565b6000819050919050565b6000620002cb82620002b4565b9150620002d883620002b4565b9250620003077fffffffffffffffffffffffffffffffffffffffffffffffffffffffffffffffff8484620001c8565b905092915050565b612d77806200031f6000396000f3fe6080604052600436106101405760003560e01c80637f1075a2116100b6578063c78309f51161006f578063c78309f5146103bc578063cd90cb98146103d8578063cfd720ec146103f4578063e14d485b14610410578063f2fde38b14610439578063f56fa8d41461046257610140565b80637f1075a2146102d65780638c081f5d146102e05780638da5cb5b146103095780638f32d59b146103345780638f64be301461035f578063bcea8195146103a057610140565b80634f1b3e3e116101085780634f1b3e3e1461020c5780635a2e4bd9146102355780636c492f3d14610251578063715018a61461027a5780637a43061f146102915780637be41814146102ad57610140565b80631507a33114610145578063241ec36d1461016157806327f1a4f31461018a5780633ba1d944146101b35780634720833f146101f0575b600080fd5b61015f600480360381019061015a9190611f48565b61049f565b005b34801561016d57600080fd5b5061018860048036038101906101839190611fe6565b6105ad565b005b34801561019657600080fd5b506101b160048036038101906101ac9190611fe6565b610602565b005b3480156101bf57600080fd5b506101da60048036038101906101d59190611fe6565b610657565b6040516101e791906120d1565b60405180910390f35b61020a60048036038101906102059190611f48565b6107aa565b005b34801561021857600080fd5b50610233600480360381019061022e9190611fe6565b6108b8565b005b61024f600480360381019061024a91906120f3565b61090d565b005b34801561025d57600080fd5b5061027860048036038101906102739190611fe6565b611233565b005b34801561028657600080fd5b5061028f611288565b005b6102ab60048036038101906102a69190611f48565b611357565b005b3480156102b957600080fd5b506102d460048036038101906102cf9190611fe6565b611465565b005b6102de6114ba565b005b3480156102ec57600080fd5b5061030760048036038101906103029190611fe6565b61152f565b005b34801561031557600080fd5b5061031e611584565b60405161032b9190612155565b60405180910390f35b34801561034057600080fd5b506103496115ad565b604051610356919061218b565b60405180910390f35b34801561036b57600080fd5b50610386600480360381019061038191906121a6565b611604565b604051610397959493929190612237565b60405180910390f35b6103ba60048036038101906103b59190611f48565b611668565b005b6103d660048036038101906103d19190611f48565b611711565b005b6103f260048036038101906103ed9190611f48565b61181f565b005b61040e60048036038101906104099190611f48565b61192d565b005b34801561041c57600080fd5b5061043760048036038101906104329190611fe6565b611a3b565b005b34801561044557600080fd5b50610460600480360381019061045b9190611fe6565b611a90565b005b34801561046e57600080fd5b50610489600480360381019061048491906121a6565b611aad565b6040516104969190612155565b60405180910390f35b60085434146104ad57600080fd5b60006040516020016104be906122e1565b6040516020818303038152906040528051906020012090506000600b60009054906101000a900473ffffffffffffffffffffffffffffffffffffffff1673ffffffffffffffffffffffffffffffffffffffff16634337932d856040518263ffffffff1660e01b815260040161053391906122f6565b61010060405180830381865afa158015610551573d6000803e3d6000fd5b505050506040513d601f19601f820116820180604052508101906105759190612352565b9091929394959650909192939495509091929394509091929350909192509091509050809150506105a7828285611ae0565b50505050565b6105b56115ad565b6105be57600080fd5b80600b60006101000a81548173ffffffffffffffffffffffffffffffffffffffff021916908373ffffffffffffffffffffffffffffffffffffffff16021790555050565b61060a6115ad565b61061357600080fd5b80600c60006101000a81548173ffffffffffffffffffffffffffffffffffffffff021916908373ffffffffffffffffffffffffffffffffffffffff16021790555050565b60606000600660008473ffffffffffffffffffffffffffffffffffffffff1673ffffffffffffffffffffffffffffffffffffffff1681526020019081526020016000205467ffffffffffffffff8111156106b4576106b3612408565b5b6040519080825280602002602001820160405280156106e25781602001602082028036833780820191505090505b5090506000805b60048054905081101561079f578473ffffffffffffffffffffffffffffffffffffffff166005600083815260200190815260200160002060009054906101000a900473ffffffffffffffffffffffffffffffffffffffff1673ffffffffffffffffffffffffffffffffffffffff16141561078c578083838151811061077157610770612437565b5b602002602001018181525050818061078890612495565b9250505b808061079790612495565b9150506106e9565b508192505050919050565b60085434146107b857600080fd5b60006040516020016107c99061252a565b6040516020818303038152906040528051906020012090506000600d60009054906101000a900473ffffffffffffffffffffffffffffffffffffffff1673ffffffffffffffffffffffffffffffffffffffff16634c9c05ea856040518263ffffffff1660e01b815260040161083e91906122f6565b61010060405180830381865afa15801561085c573d6000803e3d6000fd5b505050506040513d601f19601f820116820180604052508101906108809190612352565b9091929394959650909192939495509091929394509091929350909192509091509050809150506108b2828285611ae0565b50505050565b6108c06115ad565b6108c957600080fd5b80600f60006101000a81548173ffffffffffffffffffffffffffffffffffffffff021916908373ffffffffffffffffffffffffffffffffffffffff16021790555050565b826005600082815260200190815260200160002060009054906101000a900473ffffffffffffffffffffffffffffffffffffffff1673ffffffffffffffffffffffffffffffffffffffff163373ffffffffffffffffffffffffffffffffffffffff161461097957600080fd5b826005600082815260200190815260200160002060009054906101000a900473ffffffffffffffffffffffffffffffffffffffff1673ffffffffffffffffffffffffffffffffffffffff163373ffffffffffffffffffffffffffffffffffffffff16146109e557600080fd5b6000600486815481106109fb576109fa612437565b5b90600052602060002090600502019050600060048681548110610a2157610a20612437565b5b90600052602060002090600502019050610a3a82611d00565b610a4357600080fd5b610a4c81611d00565b610a5557600080fd5b6012543414610a6357600080fd5b6000600282600001548460000154610a7b919061253f565b610a8591906125c4565b90506000604051602001610a9890612641565b604051602081830303815290604052805190602001208460010154148015610aed57508260010154604051602001610ad091906126c3565b604051602081830303815290604052805190602001208360010154145b80610b525750604051602001610b02906126e9565b604051602081830303815290604052805190602001208460010154148015610b515750604051602001610b3490612641565b604051602081830303815290604052805190602001208360010154145b5b15610b7f57604051602001610b669061274a565b6040516020818303038152906040528051906020012090505b604051602001610b8e906127ab565b604051602081830303815290604052805190602001208460010154148015610be357508260010154604051602001610bc691906126c3565b604051602081830303815290604052805190602001208360010154145b80610c485750604051602001610bf8906126e9565b604051602081830303815290604052805190602001208460010154148015610c475750604051602001610c2a906127ab565b604051602081830303815290604052805190602001208360010154145b5b15610c7557604051602001610c5c9061280c565b6040516020818303038152906040528051906020012090505b604051602001610c84906122e1565b604051602081830303815290604052805190602001208460010154148015610cd957508260010154604051602001610cbc91906126c3565b604051602081830303815290604052805190602001208360010154145b80610d3e5750604051602001610cee906126e9565b604051602081830303815290604052805190602001208460010154148015610d3d5750604051602001610d20906122e1565b604051602081830303815290604052805190602001208360010154145b5b15610d6b57604051602001610d529061286d565b6040516020818303038152906040528051906020012090505b604051602001610d7a906128ce565b604051602081830303815290604052805190602001208460010154148015610dcf57508260010154604051602001610db291906126c3565b604051602081830303815290604052805190602001208360010154145b80610e345750604051602001610de4906126e9565b604051602081830303815290604052805190602001208460010154148015610e335750604051602001610e16906128ce565b604051602081830303815290604052805190602001208360010154145b5b15610e6157604051602001610e489061292f565b6040516020818303038152906040528051906020012090505b604051602001610e709061252a565b604051602081830303815290604052805190602001208460010154148015610ec557508260010154604051602001610ea891906126c3565b604051602081830303815290604052805190602001208360010154145b80610f2a5750604051602001610eda906126e9565b604051602081830303815290604052805190602001208460010154148015610f295750604051602001610f0c9061252a565b604051602081830303815290604052805190602001208360010154145b5b15610f5757604051602001610f3e90612990565b6040516020818303038152906040528051906020012090505b604051602001610f66906129f1565b604051602081830303815290604052805190602001208460010154148015610fbb57508260010154604051602001610f9e91906126c3565b604051602081830303815290604052805190602001208360010154145b806110205750604051602001610fd0906126e9565b60405160208183030381529060405280519060200120846001015414801561101f5750604051602001611002906129f1565b604051602081830303815290604052805190602001208360010154145b5b1561104d5760405160200161103490612a52565b6040516020818303038152906040528051906020012090505b60405160200161105c90612ab3565b6040516020818303038152906040528051906020012084600101541480156110b15750826001015460405160200161109491906126c3565b604051602081830303815290604052805190602001208360010154145b8061111657506040516020016110c6906126e9565b60405160208183030381529060405280519060200120846001015414801561111557506040516020016110f890612ab3565b604051602081830303815290604052805190602001208360010154145b5b156111435760405160200161112a90612b14565b6040516020818303038152906040528051906020012090505b600061114f6064611d27565b9050601054811115801561117b57506011548560040160009054906101000a900461ffff1661ffff1611155b156111e65761118b82848a611ae0565b61119485611d83565b61119d84611d83565b6111c760018660040160009054906101000a900461ffff1661ffff16611db690919063ffffffff16565b8560040160006101000a81548161ffff021916908361ffff1602179055505b6010548111801561120f57506011548560040160009054906101000a900461ffff1661ffff1611155b156112275761121d85611d83565b61122684611d83565b5b50505050505050505050565b61123b6115ad565b61124457600080fd5b80600a60006101000a81548173ffffffffffffffffffffffffffffffffffffffff021916908373ffffffffffffffffffffffffffffffffffffffff16021790555050565b6112906115ad565b61129957600080fd5b600073ffffffffffffffffffffffffffffffffffffffff1660008054906101000a900473ffffffffffffffffffffffffffffffffffffffff1673ffffffffffffffffffffffffffffffffffffffff167f8be0079c531659141344cd1fd0a4f28419497f9722a3daafe3b4186f6b6457e060405160405180910390a360008060006101000a81548173ffffffffffffffffffffffffffffffffffffffff021916908373ffffffffffffffffffffffffffffffffffffffff160217905550565b600854341461136557600080fd5b600060405160200161137690612ab3565b6040516020818303038152906040528051906020012090506000600d60009054906101000a900473ffffffffffffffffffffffffffffffffffffffff1673ffffffffffffffffffffffffffffffffffffffff16634c9c05ea856040518263ffffffff1660e01b81526004016113eb91906122f6565b61010060405180830381865afa158015611409573d6000803e3d6000fd5b505050506040513d601f19601f8201168201806040525081019061142d9190612352565b90919293949596509091929394955090919293945090919293509091925090915090508091505061145f828285611ae0565b50505050565b61146d6115ad565b61147657600080fd5b80600d60006101000a81548173ffffffffffffffffffffffffffffffffffffffff021916908373ffffffffffffffffffffffffffffffffffffffff16021790555050565b6114c26115ad565b6114cb57600080fd5b60145434146114d957600080fd5b60006114e3611584565b90508073ffffffffffffffffffffffffffffffffffffffff166108fc479081150290604051600060405180830381858888f1935050505015801561152b573d6000803e3d6000fd5b5050565b6115376115ad565b61154057600080fd5b80600960006101000a81548173ffffffffffffffffffffffffffffffffffffffff021916908373ffffffffffffffffffffffffffffffffffffffff16021790555050565b60008060009054906101000a900473ffffffffffffffffffffffffffffffffffffffff16905090565b60008060009054906101000a900473ffffffffffffffffffffffffffffffffffffffff1673ffffffffffffffffffffffffffffffffffffffff163373ffffffffffffffffffffffffffffffffffffffff1614905090565b6004818154811061161457600080fd5b90600052602060002090600502016000915090508060000154908060010154908060020160009054906101000a900463ffffffff16908060030154908060040160009054906101000a900461ffff16905085565b816005600082815260200190815260200160002060009054906101000a900473ffffffffffffffffffffffffffffffffffffffff1673ffffffffffffffffffffffffffffffffffffffff163373ffffffffffffffffffffffffffffffffffffffff16146116d457600080fd5b60135434146116e257600080fd5b81600484815481106116f7576116f6612437565b5b906000526020600020906005020160000181905550505050565b600854341461171f57600080fd5b600060405160200161173090612641565b6040516020818303038152906040528051906020012090506000600960009054906101000a900473ffffffffffffffffffffffffffffffffffffffff1673ffffffffffffffffffffffffffffffffffffffff1663a5f23e1d856040518263ffffffff1660e01b81526004016117a591906122f6565b61010060405180830381865afa1580156117c3573d6000803e3d6000fd5b505050506040513d601f19601f820116820180604052508101906117e79190612352565b909192939495965090919293949550909192939450909192935090919250909150905080915050611819828285611ae0565b50505050565b600854341461182d57600080fd5b600060405160200161183e906128ce565b6040516020818303038152906040528051906020012090506000600c60009054906101000a900473ffffffffffffffffffffffffffffffffffffffff1673ffffffffffffffffffffffffffffffffffffffff166325f76202856040518263ffffffff1660e01b81526004016118b391906122f6565b61010060405180830381865afa1580156118d1573d6000803e3d6000fd5b505050506040513d601f19601f820116820180604052508101906118f59190612352565b909192939495965090919293949550909192939450909192935090919250909150905080915050611927828285611ae0565b50505050565b600854341461193b57600080fd5b600060405160200161194c906127ab565b6040516020818303038152906040528051906020012090506000600a60009054906101000a900473ffffffffffffffffffffffffffffffffffffffff1673ffffffffffffffffffffffffffffffffffffffff1663ee5394de856040518263ffffffff1660e01b81526004016119c191906122f6565b61010060405180830381865afa1580156119df573d6000803e3d6000fd5b505050506040513d601f19601f82011682018060405250810190611a039190612352565b909192939495965090919293949550909192939450909192935090919250909150905080915050611a35828285611ae0565b50505050565b611a436115ad565b611a4c57600080fd5b80600e60006101000a81548173ffffffffffffffffffffffffffffffffffffffff021916908373ffffffffffffffffffffffffffffffffffffffff16021790555050565b611a986115ad565b611aa157600080fd5b611aaa81611dea565b50565b60056020528060005260406000206000915054906101000a900473ffffffffffffffffffffffffffffffffffffffff1681565b600060035442611af0919061253f565b905060046040518060a001604052808581526020018681526020018363ffffffff168152602001848152602001600061ffff168152509080600181540180825580915050600190039060005260206000209060050201600090919091909150600082015181600001556020820151816001015560408201518160020160006101000a81548163ffffffff021916908363ffffffff1602179055506060820151816003015560808201518160040160006101000a81548161ffff021916908361ffff160217905550505060006001600480549050611bcd9190612b29565b9050336005600083815260200190815260200160002060006101000a81548173ffffffffffffffffffffffffffffffffffffffff021916908373ffffffffffffffffffffffffffffffffffffffff160217905550611c746001600660003373ffffffffffffffffffffffffffffffffffffffff1673ffffffffffffffffffffffffffffffffffffffff16815260200190815260200160002054611ee190919063ffffffff16565b600660003373ffffffffffffffffffffffffffffffffffffffff1673ffffffffffffffffffffffffffffffffffffffff168152602001908152602001600020819055507f5ad354523f49f6a431c943b15028530250f3c9c42deb03b1bc586d7698af018881858785876000604051611cf196959493929190612ba2565b60405180910390a15050505050565b6000428260020160009054906101000a900463ffffffff1663ffffffff1611159050919050565b600060076000815480929190611d3c90612495565b9190505550814233600754604051602001611d5993929190612c6c565b6040516020818303038152906040528051906020012060001c611d7c9190612ca9565b9050919050565b60035442611d91919061253f565b8160020160006101000a81548163ffffffff021916908363ffffffff16021790555050565b6000808284611dc59190612cda565b90508361ffff168161ffff161015611de057611ddf612d12565b5b8091505092915050565b600073ffffffffffffffffffffffffffffffffffffffff168173ffffffffffffffffffffffffffffffffffffffff161415611e2457600080fd5b8073ffffffffffffffffffffffffffffffffffffffff1660008054906101000a900473ffffffffffffffffffffffffffffffffffffffff1673ffffffffffffffffffffffffffffffffffffffff167f8be0079c531659141344cd1fd0a4f28419497f9722a3daafe3b4186f6b6457e060405160405180910390a3806000806101000a81548173ffffffffffffffffffffffffffffffffffffffff021916908373ffffffffffffffffffffffffffffffffffffffff16021790555050565b6000808284611ef0919061253f565b905083811015611f0357611f02612d12565b5b8091505092915050565b600080fd5b6000819050919050565b611f2581611f12565b8114611f3057600080fd5b50565b600081359050611f4281611f1c565b92915050565b60008060408385031215611f5f57611f5e611f0d565b5b6000611f6d85828601611f33565b9250506020611f7e85828601611f33565b9150509250929050565b600073ffffffffffffffffffffffffffffffffffffffff82169050919050565b6000611fb382611f88565b9050919050565b611fc381611fa8565b8114611fce57600080fd5b50565b600081359050611fe081611fba565b92915050565b600060208284031215611ffc57611ffb611f0d565b5b600061200a84828501611fd1565b91505092915050565b600081519050919050565b600082825260208201905092915050565b6000819050602082019050919050565b61204881611f12565b82525050565b600061205a838361203f565b60208301905092915050565b6000602082019050919050565b600061207e82612013565b612088818561201e565b93506120938361202f565b8060005b838110156120c45781516120ab888261204e565b97506120b683612066565b925050600181019050612097565b5085935050505092915050565b600060208201905081810360008301526120eb8184612073565b905092915050565b60008060006060848603121561210c5761210b611f0d565b5b600061211a86828701611f33565b935050602061212b86828701611f33565b925050604061213c86828701611f33565b9150509250925092565b61214f81611fa8565b82525050565b600060208201905061216a6000830184612146565b92915050565b60008115159050919050565b61218581612170565b82525050565b60006020820190506121a0600083018461217c565b92915050565b6000602082840312156121bc576121bb611f0d565b5b60006121ca84828501611f33565b91505092915050565b6121dc81611f12565b82525050565b6000819050919050565b6121f5816121e2565b82525050565b600063ffffffff82169050919050565b612214816121fb565b82525050565b600061ffff82169050919050565b6122318161221a565b82525050565b600060a08201905061224c60008301886121d3565b61225960208301876121ec565b612266604083018661220b565b61227360608301856121d3565b6122806080830184612228565b9695505050505050565b600081905092915050565b7f50616e7473000000000000000000000000000000000000000000000000000000600082015250565b60006122cb60058361228a565b91506122d682612295565b600582019050919050565b60006122ec826122be565b9150819050919050565b600060208201905061230b60008301846121d3565b92915050565b61231a81612170565b811461232557600080fd5b50565b60008151905061233781612311565b92915050565b60008151905061234c81611f1c565b92915050565b600080600080600080600080610100898b03121561237357612372611f0d565b5b60006123818b828c01612328565b98505060206123928b828c0161233d565b97505060406123a38b828c0161233d565b96505060606123b48b828c0161233d565b95505060806123c58b828c0161233d565b94505060a06123d68b828c0161233d565b93505060c06123e78b828c0161233d565b92505060e06123f88b828c0161233d565b9150509295985092959890939650565b7f4e487b7100000000000000000000000000000000000000000000000000000000600052604160045260246000fd5b7f4e487b7100000000000000000000000000000000000000000000000000000000600052603260045260246000fd5b7f4e487b7100000000000000000000000000000000000000000000000000000000600052601160045260246000fd5b60006124a082611f12565b91507fffffffffffffffffffffffffffffffffffffffffffffffffffffffffffffffff8214156124d3576124d2612466565b5b600182019050919050565b7f5368697274000000000000000000000000000000000000000000000000000000600082015250565b600061251460058361228a565b915061251f826124de565b600582019050919050565b600061253582612507565b9150819050919050565b600061254a82611f12565b915061255583611f12565b9250827fffffffffffffffffffffffffffffffffffffffffffffffffffffffffffffffff0382111561258a57612589612466565b5b828201905092915050565b7f4e487b7100000000000000000000000000000000000000000000000000000000600052601260045260246000fd5b60006125cf82611f12565b91506125da83611f12565b9250826125ea576125e9612595565b5b828204905092915050565b7f53686f6573000000000000000000000000000000000000000000000000000000600082015250565b600061262b60058361228a565b9150612636826125f5565b600582019050919050565b600061264c8261261e565b9150819050919050565b7f54726176656c205061696e747300000000000000000000000000000000000000600082015250565b600061268c600d8361228a565b915061269782612656565b600d82019050919050565b6000819050919050565b6126bd6126b8826121e2565b6126a2565b82525050565b60006126ce8261267f565b91506126da82846126ac565b60208201915081905092915050565b60006126f48261267f565b9150819050919050565b7f5061696e7465642053686f657300000000000000000000000000000000000000600082015250565b6000612734600d8361228a565b915061273f826126fe565b600d82019050919050565b600061275582612727565b9150819050919050565b7f536f636b73000000000000000000000000000000000000000000000000000000600082015250565b600061279560058361228a565b91506127a08261275f565b600582019050919050565b60006127b682612788565b9150819050919050565b7f5061696e74656420536f636b7300000000000000000000000000000000000000600082015250565b60006127f6600d8361228a565b9150612801826127c0565b600d82019050919050565b6000612817826127e9565b9150819050919050565b7f5061696e7465642050616e747300000000000000000000000000000000000000600082015250565b6000612857600d8361228a565b915061286282612821565b600d82019050919050565b60006128788261284a565b9150819050919050565b7f556e646572776561720000000000000000000000000000000000000000000000600082015250565b60006128b860098361228a565b91506128c382612882565b600982019050919050565b60006128d9826128ab565b9150819050919050565b7f5061696e74656420556e64657277656172000000000000000000000000000000600082015250565b600061291960118361228a565b9150612924826128e3565b601182019050919050565b600061293a8261290c565b9150819050919050565b7f5061696e74656420536869727400000000000000000000000000000000000000600082015250565b600061297a600d8361228a565b915061298582612944565b600d82019050919050565b600061299b8261296d565b9150819050919050565b7f486f6f6469650000000000000000000000000000000000000000000000000000600082015250565b60006129db60068361228a565b91506129e6826129a5565b600682019050919050565b60006129fc826129ce565b9150819050919050565b7f5061696e74656420486f6f646965000000000000000000000000000000000000600082015250565b6000612a3c600e8361228a565b9150612a4782612a06565b600e82019050919050565b6000612a5d82612a2f565b9150819050919050565b7f536e61706261636b000000000000000000000000000000000000000000000000600082015250565b6000612a9d60088361228a565b9150612aa882612a67565b600882019050919050565b6000612abe82612a90565b9150819050919050565b7f5061696e74656420536e61706261636b00000000000000000000000000000000600082015250565b6000612afe60108361228a565b9150612b0982612ac8565b601082019050919050565b6000612b1f82612af1565b9150819050919050565b6000612b3482611f12565b9150612b3f83611f12565b925082821015612b5257612b51612466565b5b828203905092915050565b6000819050919050565b6000819050919050565b6000612b8c612b87612b8284612b5d565b612b67565b61221a565b9050919050565b612b9c81612b71565b82525050565b600060c082019050612bb760008301896121d3565b612bc460208301886121d3565b612bd160408301876121ec565b612bde606083018661220b565b612beb60808301856121d3565b612bf860a0830184612b93565b979650505050505050565b6000819050919050565b612c1e612c1982611f12565b612c03565b82525050565b60008160601b9050919050565b6000612c3c82612c24565b9050919050565b6000612c4e82612c31565b9050919050565b612c66612c6182611fa8565b612c43565b82525050565b6000612c788286612c0d565b602082019150612c888285612c55565b601482019150612c988284612c0d565b602082019150819050949350505050565b6000612cb482611f12565b9150612cbf83611f12565b925082612ccf57612cce612595565b5b828206905092915050565b6000612ce58261221a565b9150612cf08361221a565b92508261ffff03821115612d0757612d06612466565b5b828201905092915050565b7f4e487b7100000000000000000000000000000000000000000000000000000000600052600160045260246000fdfea264697066735822122044cc3703bfa162db7a6ee8f0f8e3a226f502aae1258d9bdd54a0ecf4f440261964736f6c634300080a0033",
  "immutableReferences": {},
  "source": "// SPDX-License-Identifier: MIT\r\npragma solidity >=0.4.22 <0.9.0;\r\n\r\nimport \"./piecemerging.sol\";\r\n\r\ncontract PieceHelper is PieceMerging {\r\n\r\n  uint changePieceDnaFee = 10 ether;\r\n  uint withdrawPieceFee = 0.01 ether;\r\n\r\n  function withdrawPiece() external payable onlyOwner {\r\n    require(msg.value == withdrawPieceFee);\r\n    address _owner = owner();\r\n    payable(_owner).transfer(address(this).balance);\r\n  }\r\n\r\n  function changePieceDna(uint _pieceId, uint _newDna) external payable onlyOwnerOfPiece(_pieceId) {\r\n    require(msg.value == changePieceDnaFee);\r\n    pieces[_pieceId].pieceDna = _newDna;\r\n  }\r\n\r\n  function getPiecesByOwner(address _owner) external view returns(uint[] memory) {\r\n    uint[] memory result = new uint[](ownerPieceCount[_owner]);\r\n    uint counter = 0;\r\n    for (uint i = 0; i < pieces.length; i++) {\r\n      if (pieceToOwner[i] == _owner) {\r\n        result[counter] = i;\r\n        counter++;\r\n      }\r\n    }\r\n    return result;\r\n  }\r\n\r\n  function _firstHomeSetRewards(uint256 _curr_loc) internal {\r\n      _createUnderwear(_curr_loc);\r\n      _createSocks(_curr_loc);\r\n      }\r\n\r\n  function _firstWorkPlaceSetRewards(uint256 _curr_loc) internal {\r\n      _createShirt(_curr_loc);\r\n      _createPants(_curr_loc);\r\n      _createShoes(_curr_loc);\r\n      }\r\n\r\n  function _createTravelGift(uint256 _ini_loc, uint256 _end_loc) internal {\r\n     uint rand = randPieceMod(100);\r\n     if (rand < 50) {\r\n         _createTravelPaint(_ini_loc, _end_loc);\r\n     } else if (rand < 75) {\r\n         _createTravelItem(_ini_loc, _end_loc);\r\n     } else {\r\n         _createTravelCoupon(_ini_loc, _end_loc);\r\n     }\r\n  }\r\n}",
  "sourcePath": "C:\\Users\\pablo\\PycharmProjects\\LiveAndTravel\\contracts\\piecehelper.sol",
  "compiler": {
    "name": "solc",
    "version": "0.8.10+commit.fc410830.Emscripten.clang"
  },
  "schemaVersion": "3.4.4",
  "updatedAt": "2022-01-13T15:03:14.686Z",
  "devdoc": {
    "kind": "dev",
    "methods": {},
    "version": 1
  },
  "userdoc": {
    "kind": "user",
    "methods": {},
    "version": 1
  }
}