{
  "contractName": "PieceFactory",
  "abi": [
    {
      "anonymous": false,
      "inputs": [
        {
          "indexed": false,
          "internalType": "uint256",
          "name": "pieceId",
          "type": "uint256"
        },
        {
          "indexed": false,
          "internalType": "uint256",
          "name": "pieceDna",
          "type": "uint256"
        },
        {
          "indexed": false,
          "internalType": "bytes32",
          "name": "pieceClass",
          "type": "bytes32"
        },
        {
          "indexed": false,
          "internalType": "uint32",
          "name": "pieceReadyTime",
          "type": "uint32"
        },
        {
          "indexed": false,
          "internalType": "uint16",
          "name": "pieceLevel",
          "type": "uint16"
        },
        {
          "indexed": false,
          "internalType": "uint16",
          "name": "pieceLuck",
          "type": "uint16"
        },
        {
          "indexed": false,
          "internalType": "uint16",
          "name": "pieceInt",
          "type": "uint16"
        },
        {
          "indexed": false,
          "internalType": "uint16",
          "name": "pieceAgi",
          "type": "uint16"
        },
        {
          "indexed": false,
          "internalType": "uint16",
          "name": "pieceStr",
          "type": "uint16"
        },
        {
          "indexed": false,
          "internalType": "uint16",
          "name": "pieceSta",
          "type": "uint16"
        },
        {
          "indexed": false,
          "internalType": "uint16",
          "name": "pieceMergeCount",
          "type": "uint16"
        }
      ],
      "name": "NewPiece",
      "type": "event"
    },
    {
      "anonymous": false,
      "inputs": [
        {
          "indexed": true,
          "internalType": "address",
          "name": "previousOwner",
          "type": "address"
        },
        {
          "indexed": true,
          "internalType": "address",
          "name": "newOwner",
          "type": "address"
        }
      ],
      "name": "OwnershipTransferred",
      "type": "event"
    },
    {
      "inputs": [],
      "name": "isOwner",
      "outputs": [
        {
          "internalType": "bool",
          "name": "",
          "type": "bool"
        }
      ],
      "stateMutability": "view",
      "type": "function"
    },
    {
      "inputs": [],
      "name": "owner",
      "outputs": [
        {
          "internalType": "address",
          "name": "",
          "type": "address"
        }
      ],
      "stateMutability": "view",
      "type": "function"
    },
    {
      "inputs": [
        {
          "internalType": "uint256",
          "name": "",
          "type": "uint256"
        }
      ],
      "name": "pieceToOwner",
      "outputs": [
        {
          "internalType": "address",
          "name": "",
          "type": "address"
        }
      ],
      "stateMutability": "view",
      "type": "function"
    },
    {
      "inputs": [
        {
          "internalType": "uint256",
          "name": "",
          "type": "uint256"
        }
      ],
      "name": "pieces",
      "outputs": [
        {
          "internalType": "uint256",
          "name": "pieceDna",
          "type": "uint256"
        },
        {
          "internalType": "bytes32",
          "name": "pieceClass",
          "type": "bytes32"
        },
        {
          "internalType": "uint32",
          "name": "pieceReadyTime",
          "type": "uint32"
        },
        {
          "internalType": "uint16",
          "name": "pieceLevel",
          "type": "uint16"
        },
        {
          "internalType": "uint16",
          "name": "pieceLuck",
          "type": "uint16"
        },
        {
          "internalType": "uint16",
          "name": "pieceIntellect",
          "type": "uint16"
        },
        {
          "internalType": "uint16",
          "name": "pieceAgility",
          "type": "uint16"
        },
        {
          "internalType": "uint16",
          "name": "pieceStrength",
          "type": "uint16"
        },
        {
          "internalType": "uint16",
          "name": "pieceStamina",
          "type": "uint16"
        },
        {
          "internalType": "uint16",
          "name": "mergeCount",
          "type": "uint16"
        }
      ],
      "stateMutability": "view",
      "type": "function"
    },
    {
      "inputs": [],
      "name": "renounceOwnership",
      "outputs": [],
      "stateMutability": "nonpayable",
      "type": "function"
    },
    {
      "inputs": [
        {
          "internalType": "address",
          "name": "newOwner",
          "type": "address"
        }
      ],
      "name": "transferOwnership",
      "outputs": [],
      "stateMutability": "nonpayable",
      "type": "function"
    },
    {
      "inputs": [],
      "name": "createSocks",
      "outputs": [],
      "stateMutability": "payable",
      "type": "function"
    },
    {
      "inputs": [],
      "name": "createPants",
      "outputs": [],
      "stateMutability": "payable",
      "type": "function"
    },
    {
      "inputs": [],
      "name": "createUnderwear",
      "outputs": [],
      "stateMutability": "payable",
      "type": "function"
    },
    {
      "inputs": [],
      "name": "createShirt",
      "outputs": [],
      "stateMutability": "payable",
      "type": "function"
    },
    {
      "inputs": [],
      "name": "createHoodie",
      "outputs": [],
      "stateMutability": "payable",
      "type": "function"
    },
    {
      "inputs": [],
      "name": "createSnapback",
      "outputs": [],
      "stateMutability": "payable",
      "type": "function"
    },
    {
      "inputs": [
        {
          "internalType": "uint256",
          "name": "_location",
          "type": "uint256"
        }
      ],
      "name": "createTravelPaint",
      "outputs": [],
      "stateMutability": "payable",
      "type": "function"
    }
  ],
  "bytecode": "0x60806040526010600155600154600a6200001a919062000291565b6002556201518060035567016345785d8a000060075560006008553480156200004257600080fd5b50336000806101000a81548173ffffffffffffffffffffffffffffffffffffffff021916908373ffffffffffffffffffffffffffffffffffffffff16021790555060008054906101000a900473ffffffffffffffffffffffffffffffffffffffff1673ffffffffffffffffffffffffffffffffffffffff16600073ffffffffffffffffffffffffffffffffffffffff167f8be0079c531659141344cd1fd0a4f28419497f9722a3daafe3b4186f6b6457e060405160405180910390a3620002e2565b7f4e487b7100000000000000000000000000000000000000000000000000000000600052601160045260246000fd5b60008160011c9050919050565b6000808291508390505b600185111562000192578086048111156200016a576200016962000104565b5b60018516156200017a5780820291505b80810290506200018a8562000133565b94506200014a565b94509492505050565b600082620001ad576001905062000280565b81620001bd576000905062000280565b8160018114620001d65760028114620001e15762000217565b600191505062000280565b60ff841115620001f657620001f562000104565b5b8360020a91508482111562000210576200020f62000104565b5b5062000280565b5060208310610133831016604e8410600b8410161715620002515782820a9050838111156200024b576200024a62000104565b5b62000280565b62000260848484600162000140565b925090508184048111156200027a576200027962000104565b5b81810290505b9392505050565b6000819050919050565b60006200029e8262000287565b9150620002ab8362000287565b9250620002da7fffffffffffffffffffffffffffffffffffffffffffffffffffffffffffffffff84846200019b565b905092915050565b61181680620002f26000396000f3fe6080604052600436106100c25760003560e01c80638da5cb5b1161007f5780639005c5eb116100595780639005c5eb146101be578063c27a9cae146101c8578063f2fde38b146101d2578063f56fa8d4146101fb576100c2565b80638da5cb5b146101225780638f32d59b1461014d5780638f64be3014610178576100c2565b80631a9beb8f146100c757806330a39248146100d157806358c8f090146100db578063715018a6146100e557806374503a2b146100fc5780637c47a7da14610106575b600080fd5b6100cf610238565b005b6100d9610325565b005b6100e3610412565b005b3480156100f157600080fd5b506100fa6104ff565b005b6101046105ce565b005b610120600480360381019061011b9190610feb565b6106bb565b005b34801561012e57600080fd5b50610137610795565b6040516101449190611059565b60405180910390f35b34801561015957600080fd5b506101626107be565b60405161016f919061108f565b60405180910390f35b34801561018457600080fd5b5061019f600480360381019061019a9190610feb565b610815565b6040516101b59a9998979695949392919061110e565b60405180910390f35b6101c66108eb565b005b6101d06109d8565b005b3480156101de57600080fd5b506101f960048036038101906101f491906111d6565b610ac5565b005b34801561020757600080fd5b50610222600480360381019061021d9190610feb565b610ae2565b60405161022f9190611059565b60405180910390f35b600754341461024657600080fd5b6000600660003373ffffffffffffffffffffffffffffffffffffffff1673ffffffffffffffffffffffffffffffffffffffff168152602001908152602001600020541461029257600080fd5b60006040516020016102a39061125a565b60405160208183030381529060405280519060200120905060006102fb6040518060400160405280600f81526020017f426c616e6b20556e646572776561720000000000000000000000000000000000815250610b15565b905060648161030a919061129e565b8161031591906112fe565b90506103218282610b5a565b5050565b600754341461033357600080fd5b6000600660003373ffffffffffffffffffffffffffffffffffffffff1673ffffffffffffffffffffffffffffffffffffffff168152602001908152602001600020541461037f57600080fd5b60006040516020016103909061137e565b60405160208183030381529060405280519060200120905060006103e86040518060400160405280600e81526020017f426c616e6b20536e61706261636b000000000000000000000000000000000000815250610b15565b90506064816103f7919061129e565b8161040291906112fe565b905061040e8282610b5a565b5050565b600754341461042057600080fd5b6000600660003373ffffffffffffffffffffffffffffffffffffffff1673ffffffffffffffffffffffffffffffffffffffff168152602001908152602001600020541461046c57600080fd5b600060405160200161047d906113df565b60405160208183030381529060405280519060200120905060006104d56040518060400160405280600c81526020017f426c616e6b20486f6f6469650000000000000000000000000000000000000000815250610b15565b90506064816104e4919061129e565b816104ef91906112fe565b90506104fb8282610b5a565b5050565b6105076107be565b61051057600080fd5b600073ffffffffffffffffffffffffffffffffffffffff1660008054906101000a900473ffffffffffffffffffffffffffffffffffffffff1673ffffffffffffffffffffffffffffffffffffffff167f8be0079c531659141344cd1fd0a4f28419497f9722a3daafe3b4186f6b6457e060405160405180910390a360008060006101000a81548173ffffffffffffffffffffffffffffffffffffffff021916908373ffffffffffffffffffffffffffffffffffffffff160217905550565b60075434146105dc57600080fd5b6000600660003373ffffffffffffffffffffffffffffffffffffffff1673ffffffffffffffffffffffffffffffffffffffff168152602001908152602001600020541461062857600080fd5b600060405160200161063990611440565b60405160208183030381529060405280519060200120905060006106916040518060400160405280600b81526020017f426c616e6b2050616e7473000000000000000000000000000000000000000000815250610b15565b90506064816106a0919061129e565b816106ab91906112fe565b90506106b78282610b5a565b5050565b60075434146106c957600080fd5b6000600660003373ffffffffffffffffffffffffffffffffffffffff1673ffffffffffffffffffffffffffffffffffffffff168152602001908152602001600020541461071557600080fd5b60008160405160200161072891906114c2565b604051602081830303815290604052805190602001209050600061076a8360405160200161075691906114c2565b604051602081830303815290604052610b15565b9050606481610779919061129e565b8161078491906112fe565b90506107908282610b5a565b505050565b60008060009054906101000a900473ffffffffffffffffffffffffffffffffffffffff16905090565b60008060009054906101000a900473ffffffffffffffffffffffffffffffffffffffff1673ffffffffffffffffffffffffffffffffffffffff163373ffffffffffffffffffffffffffffffffffffffff1614905090565b6004818154811061082557600080fd5b90600052602060002090600302016000915090508060000154908060010154908060020160009054906101000a900463ffffffff16908060020160049054906101000a900461ffff16908060020160069054906101000a900461ffff16908060020160089054906101000a900461ffff169080600201600a9054906101000a900461ffff169080600201600c9054906101000a900461ffff169080600201600e9054906101000a900461ffff16908060020160109054906101000a900461ffff1690508a565b60075434146108f957600080fd5b6000600660003373ffffffffffffffffffffffffffffffffffffffff1673ffffffffffffffffffffffffffffffffffffffff168152602001908152602001600020541461094557600080fd5b600060405160200161095690611534565b60405160208183030381529060405280519060200120905060006109ae6040518060400160405280600b81526020017f426c616e6b20536f636b73000000000000000000000000000000000000000000815250610b15565b90506064816109bd919061129e565b816109c891906112fe565b90506109d48282610b5a565b5050565b60075434146109e657600080fd5b6000600660003373ffffffffffffffffffffffffffffffffffffffff1673ffffffffffffffffffffffffffffffffffffffff1681526020019081526020016000205414610a3257600080fd5b6000604051602001610a4390611595565b6040516020818303038152906040528051906020012090506000610a9b6040518060400160405280600b81526020017f426c616e6b205368697274000000000000000000000000000000000000000000815250610b15565b9050606481610aaa919061129e565b81610ab591906112fe565b9050610ac18282610b5a565b5050565b610acd6107be565b610ad657600080fd5b610adf81610e8d565b50565b60056020528060005260406000206000915054906101000a900473ffffffffffffffffffffffffffffffffffffffff1681565b60008082604051602001610b299190611619565b6040516020818303038152906040528051906020012060001c905060025481610b52919061129e565b915050919050565b600060035442610b6a9190611630565b905060046040518061014001604052808481526020018581526020018363ffffffff168152602001600161ffff168152602001600161ffff168152602001600161ffff168152602001600161ffff168152602001600161ffff168152602001600161ffff168152602001600061ffff168152509080600181540180825580915050600190039060005260206000209060030201600090919091909150600082015181600001556020820151816001015560408201518160020160006101000a81548163ffffffff021916908363ffffffff16021790555060608201518160020160046101000a81548161ffff021916908361ffff16021790555060808201518160020160066101000a81548161ffff021916908361ffff16021790555060a08201518160020160086101000a81548161ffff021916908361ffff16021790555060c082015181600201600a6101000a81548161ffff021916908361ffff16021790555060e082015181600201600c6101000a81548161ffff021916908361ffff16021790555061010082015181600201600e6101000a81548161ffff021916908361ffff1602179055506101208201518160020160106101000a81548161ffff021916908361ffff160217905550505060006001600480549050610d4e91906112fe565b9050336005600083815260200190815260200160002060006101000a81548173ffffffffffffffffffffffffffffffffffffffff021916908373ffffffffffffffffffffffffffffffffffffffff160217905550610df56001600660003373ffffffffffffffffffffffffffffffffffffffff1673ffffffffffffffffffffffffffffffffffffffff16815260200190815260200160002054610f8490919063ffffffff16565b600660003373ffffffffffffffffffffffffffffffffffffffff1673ffffffffffffffffffffffffffffffffffffffff168152602001908152602001600020819055507fd58efb7994e28d1377ec0d585ff7107bd97f413ff747c3432d25a442157b7dcc818486856001806001806001806000604051610e7f9b9a99989796959493929190611706565b60405180910390a150505050565b600073ffffffffffffffffffffffffffffffffffffffff168173ffffffffffffffffffffffffffffffffffffffff161415610ec757600080fd5b8073ffffffffffffffffffffffffffffffffffffffff1660008054906101000a900473ffffffffffffffffffffffffffffffffffffffff1673ffffffffffffffffffffffffffffffffffffffff167f8be0079c531659141344cd1fd0a4f28419497f9722a3daafe3b4186f6b6457e060405160405180910390a3806000806101000a81548173ffffffffffffffffffffffffffffffffffffffff021916908373ffffffffffffffffffffffffffffffffffffffff16021790555050565b6000808284610f939190611630565b905083811015610fa657610fa56117b1565b5b8091505092915050565b600080fd5b6000819050919050565b610fc881610fb5565b8114610fd357600080fd5b50565b600081359050610fe581610fbf565b92915050565b60006020828403121561100157611000610fb0565b5b600061100f84828501610fd6565b91505092915050565b600073ffffffffffffffffffffffffffffffffffffffff82169050919050565b600061104382611018565b9050919050565b61105381611038565b82525050565b600060208201905061106e600083018461104a565b92915050565b60008115159050919050565b61108981611074565b82525050565b60006020820190506110a46000830184611080565b92915050565b6110b381610fb5565b82525050565b6000819050919050565b6110cc816110b9565b82525050565b600063ffffffff82169050919050565b6110eb816110d2565b82525050565b600061ffff82169050919050565b611108816110f1565b82525050565b600061014082019050611124600083018d6110aa565b611131602083018c6110c3565b61113e604083018b6110e2565b61114b606083018a6110ff565b61115860808301896110ff565b61116560a08301886110ff565b61117260c08301876110ff565b61117f60e08301866110ff565b61118d6101008301856110ff565b61119b6101208301846110ff565b9b9a5050505050505050505050565b6111b381611038565b81146111be57600080fd5b50565b6000813590506111d0816111aa565b92915050565b6000602082840312156111ec576111eb610fb0565b5b60006111fa848285016111c1565b91505092915050565b600081905092915050565b7f426c616e6b20556e646572776561720000000000000000000000000000000000600082015250565b6000611244600f83611203565b915061124f8261120e565b600f82019050919050565b600061126582611237565b9150819050919050565b7f4e487b7100000000000000000000000000000000000000000000000000000000600052601260045260246000fd5b60006112a982610fb5565b91506112b483610fb5565b9250826112c4576112c361126f565b5b828206905092915050565b7f4e487b7100000000000000000000000000000000000000000000000000000000600052601160045260246000fd5b600061130982610fb5565b915061131483610fb5565b925082821015611327576113266112cf565b5b828203905092915050565b7f426c616e6b20536e61706261636b000000000000000000000000000000000000600082015250565b6000611368600e83611203565b915061137382611332565b600e82019050919050565b60006113898261135b565b9150819050919050565b7f426c616e6b20486f6f6469650000000000000000000000000000000000000000600082015250565b60006113c9600c83611203565b91506113d482611393565b600c82019050919050565b60006113ea826113bc565b9150819050919050565b7f426c616e6b2050616e7473000000000000000000000000000000000000000000600082015250565b600061142a600b83611203565b9150611435826113f4565b600b82019050919050565b600061144b8261141d565b9150819050919050565b7f54726176656c205061696e742066726f6d200000000000000000000000000000600082015250565b600061148b601283611203565b915061149682611455565b601282019050919050565b6000819050919050565b6114bc6114b782610fb5565b6114a1565b82525050565b60006114cd8261147e565b91506114d982846114ab565b60208201915081905092915050565b7f426c616e6b20536f636b73000000000000000000000000000000000000000000600082015250565b600061151e600b83611203565b9150611529826114e8565b600b82019050919050565b600061153f82611511565b9150819050919050565b7f426c616e6b205368697274000000000000000000000000000000000000000000600082015250565b600061157f600b83611203565b915061158a82611549565b600b82019050919050565b60006115a082611572565b9150819050919050565b600081519050919050565b60005b838110156115d35780820151818401526020810190506115b8565b838111156115e2576000848401525b50505050565b60006115f3826115aa565b6115fd8185611203565b935061160d8185602086016115b5565b80840191505092915050565b600061162582846115e8565b915081905092915050565b600061163b82610fb5565b915061164683610fb5565b9250827fffffffffffffffffffffffffffffffffffffffffffffffffffffffffffffffff0382111561167b5761167a6112cf565b5b828201905092915050565b6000819050919050565b6000819050919050565b60006116b56116b06116ab84611686565b611690565b6110f1565b9050919050565b6116c58161169a565b82525050565b6000819050919050565b60006116f06116eb6116e6846116cb565b611690565b6110f1565b9050919050565b611700816116d5565b82525050565b60006101608201905061171c600083018e6110aa565b611729602083018d6110aa565b611736604083018c6110c3565b611743606083018b6110e2565b611750608083018a6116bc565b61175d60a08301896116bc565b61176a60c08301886116bc565b61177760e08301876116bc565b6117856101008301866116bc565b6117936101208301856116bc565b6117a16101408301846116f7565b9c9b505050505050505050505050565b7f4e487b7100000000000000000000000000000000000000000000000000000000600052600160045260246000fdfea2646970667358221220305666e30daee320886c9955873c3d26268921732ec12111df3011e89313e64f64736f6c634300080a0033",
  "immutableReferences": {},
  "source": "// SPDX-License-Identifier: MIT\r\npragma solidity >=0.4.22 <0.9.0;\r\n\r\nimport \"./ownable.sol\";\r\nimport \"./safemath.sol\";\r\n\r\ncontract PieceFactory is Ownable {\r\n\r\n    using SafeMath for uint256;\r\n    using SafeMath32 for uint32;\r\n    using SafeMath16 for uint16;\r\n\r\n    event NewPiece(uint pieceId, uint pieceDna, bytes32 pieceClass, uint32 pieceReadyTime, uint16 pieceLevel,  uint16 pieceLuck, uint16 pieceInt, uint16 pieceAgi, uint16 pieceStr, uint16 pieceSta, uint16 pieceMergeCount);\r\n\r\n    uint pieceDnaDigits = 16;\r\n    uint pieceDnaModulus = 10 ** pieceDnaDigits;\r\n    uint pieceCdTime = 1 days;\r\n\r\n    struct Piece {\r\n        uint pieceDna;\r\n        bytes32 pieceClass;\r\n        uint32 pieceReadyTime;\r\n        uint16 pieceLevel;\r\n        uint16 pieceLuck;\r\n        uint16 pieceIntellect;\r\n        uint16 pieceAgility;\r\n        uint16 pieceStrength;\r\n        uint16 pieceStamina;\r\n        uint16 mergeCount;\r\n    }\r\n\r\n    Piece[] public pieces;\r\n\r\n    mapping (uint => address) public pieceToOwner;\r\n    mapping (address => uint) ownerPieceCount;\r\n\r\n    uint pieceCreationFee = 0.1 ether;\r\n    uint randPieceNonce = 0;\r\n\r\n    function randMod(uint _modulus) internal returns(uint) {\r\n        randPieceNonce++;\r\n        return uint(keccak256(abi.encodePacked(block.timestamp,msg.sender,randPieceNonce))) % _modulus;\r\n    }\r\n\r\n    function _createPiece(bytes32 _class, uint _dna) internal {\r\n        uint32 _readyTime = uint32(block.timestamp + pieceCdTime);\r\n        // Note: We chose not to prevent the year 2038 problem... So don't need\r\n        // worry about overflows on readyTime. Our app is screwed in 2038 anyway ;)\r\n        pieces.push(Piece(_dna, _class, _readyTime, 1, 1, 1, 1, 1, 1, 0));\r\n        uint pieceId = pieces.length -1;\r\n        pieceToOwner[pieceId] = msg.sender;\r\n        ownerPieceCount[msg.sender] = ownerPieceCount[msg.sender].add(1);\r\n        emit NewPiece(pieceId, _dna, _class, _readyTime, 1, 1, 1, 1, 1, 1, 0);\r\n    }\r\n\r\n    function _generateRandomPieceDna(string memory _str) private view returns (uint) {\r\n        uint rand = uint (keccak256(abi.encodePacked(_str)));\r\n        return rand % pieceDnaModulus;\r\n    }\r\n\r\n\r\n  function createSocks() public payable { //migrate to piecehelper with private here. parametrize there public payable abovelevel and class\r\n     require(msg.value == pieceCreationFee);\r\n     require(ownerPieceCount[msg.sender] == 0);\r\n     bytes32 _class = keccak256(abi.encodePacked(\"Blank Socks\"));\r\n     uint randDna = _generateRandomPieceDna(\"Blank Socks\");\r\n     randDna = randDna - randDna % 100;\r\n     _createPiece(_class, randDna);\r\n  }\r\n\r\n\r\n  function createPants() public payable {\r\n     require(msg.value == pieceCreationFee);\r\n     require(ownerPieceCount[msg.sender] == 0);\r\n     bytes32 _class = keccak256(abi.encodePacked(\"Blank Pants\"));\r\n     uint randDna = _generateRandomPieceDna(\"Blank Pants\");\r\n     randDna = randDna - randDna % 100;\r\n     _createPiece(_class, randDna);\r\n  }\r\n\r\n  function createUnderwear() public payable {\r\n     require(msg.value == pieceCreationFee);\r\n     require(ownerPieceCount[msg.sender] == 0);\r\n     bytes32 _class = keccak256(abi.encodePacked(\"Blank Underwear\"));\r\n     uint randDna = _generateRandomPieceDna(\"Blank Underwear\");\r\n     randDna = randDna - randDna % 100;\r\n     _createPiece(_class, randDna);\r\n  }\r\n\r\n  function createShirt() public payable {\r\n     require(msg.value == pieceCreationFee);\r\n     require(ownerPieceCount[msg.sender] == 0);\r\n     bytes32 _class = keccak256(abi.encodePacked(\"Blank Shirt\"));\r\n     uint randDna = _generateRandomPieceDna(\"Blank Shirt\");\r\n     randDna = randDna - randDna % 100;\r\n     _createPiece(_class, randDna);\r\n  }\r\n\r\n  function createHoodie() public payable {\r\n     require(msg.value == pieceCreationFee);\r\n     require(ownerPieceCount[msg.sender] == 0);\r\n     bytes32 _class = keccak256(abi.encodePacked(\"Blank Hoodie\"));\r\n     uint randDna = _generateRandomPieceDna(\"Blank Hoodie\");\r\n     randDna = randDna - randDna % 100;\r\n     _createPiece(_class, randDna);\r\n  }\r\n\r\n  function createSnapback() public payable {\r\n     require(msg.value == pieceCreationFee);\r\n     require(ownerPieceCount[msg.sender] == 0);\r\n     bytes32 _class = keccak256(abi.encodePacked(\"Blank Snapback\"));\r\n     uint randDna = _generateRandomPieceDna(\"Blank Snapback\");\r\n     randDna = randDna - randDna % 100;\r\n     _createPiece(_class, randDna);\r\n  }\r\n\r\n  function createTravelPaint(uint256 _location) public payable { //change to not public but to quest reward adjusting level\r\n     require(msg.value == pieceCreationFee);\r\n     require(ownerPieceCount[msg.sender] == 0);\r\n     bytes32 _class = keccak256(abi.encodePacked(\"Travel Paint from \", _location));\r\n     uint randDna = _generateRandomPieceDna(string(abi.encodePacked(\"Travel Paint from \", _location)));\r\n     randDna = randDna - randDna % 100;\r\n     _createPiece(_class, randDna);\r\n  }\r\n\r\n}",
  "sourcePath": "C:\\Users\\pablo\\PycharmProjects\\LiveAndTravel\\contracts\\piecefactory.sol",
  "compiler": {
    "name": "solc",
    "version": "0.8.10+commit.fc410830.Emscripten.clang"
  },
  "schemaVersion": "3.4.4",
  "updatedAt": "2022-01-01T19:27:48.449Z",
  "devdoc": {
    "kind": "dev",
    "methods": {},
    "version": 1
  },
  "userdoc": {
    "kind": "user",
    "methods": {},
    "version": 1
  }
}