{
  "contractName": "PieceFactory",
  "abi": [
    {
      "anonymous": false,
      "inputs": [
        {
          "indexed": false,
          "internalType": "uint256",
          "name": "pieceId",
          "type": "uint256"
        },
        {
          "indexed": false,
          "internalType": "uint256",
          "name": "pieceDna",
          "type": "uint256"
        },
        {
          "indexed": false,
          "internalType": "bytes32",
          "name": "pieceClass",
          "type": "bytes32"
        },
        {
          "indexed": false,
          "internalType": "uint32",
          "name": "pieceReadyTime",
          "type": "uint32"
        },
        {
          "indexed": false,
          "internalType": "uint256",
          "name": "pieceCreationLoc",
          "type": "uint256"
        },
        {
          "indexed": false,
          "internalType": "uint16",
          "name": "pieceMergeCount",
          "type": "uint16"
        }
      ],
      "name": "NewPiece",
      "type": "event"
    },
    {
      "anonymous": false,
      "inputs": [
        {
          "indexed": true,
          "internalType": "address",
          "name": "previousOwner",
          "type": "address"
        },
        {
          "indexed": true,
          "internalType": "address",
          "name": "newOwner",
          "type": "address"
        }
      ],
      "name": "OwnershipTransferred",
      "type": "event"
    },
    {
      "inputs": [],
      "name": "isOwner",
      "outputs": [
        {
          "internalType": "bool",
          "name": "",
          "type": "bool"
        }
      ],
      "stateMutability": "view",
      "type": "function"
    },
    {
      "inputs": [],
      "name": "owner",
      "outputs": [
        {
          "internalType": "address",
          "name": "",
          "type": "address"
        }
      ],
      "stateMutability": "view",
      "type": "function"
    },
    {
      "inputs": [
        {
          "internalType": "uint256",
          "name": "",
          "type": "uint256"
        }
      ],
      "name": "pieceToOwner",
      "outputs": [
        {
          "internalType": "address",
          "name": "",
          "type": "address"
        }
      ],
      "stateMutability": "view",
      "type": "function"
    },
    {
      "inputs": [
        {
          "internalType": "uint256",
          "name": "",
          "type": "uint256"
        }
      ],
      "name": "pieces",
      "outputs": [
        {
          "internalType": "uint256",
          "name": "pieceDna",
          "type": "uint256"
        },
        {
          "internalType": "bytes32",
          "name": "pieceClass",
          "type": "bytes32"
        },
        {
          "internalType": "uint32",
          "name": "pieceReadyTime",
          "type": "uint32"
        },
        {
          "internalType": "uint256",
          "name": "pieceCreationLoc",
          "type": "uint256"
        },
        {
          "internalType": "uint16",
          "name": "mergeCount",
          "type": "uint16"
        }
      ],
      "stateMutability": "view",
      "type": "function"
    },
    {
      "inputs": [],
      "name": "renounceOwnership",
      "outputs": [],
      "stateMutability": "nonpayable",
      "type": "function"
    },
    {
      "inputs": [
        {
          "internalType": "address",
          "name": "newOwner",
          "type": "address"
        }
      ],
      "name": "transferOwnership",
      "outputs": [],
      "stateMutability": "nonpayable",
      "type": "function"
    }
  ],
  "bytecode": "0x60806040526010600155600154600a6200001a919062000285565b6002556201518060035560006007553480156200003657600080fd5b50336000806101000a81548173ffffffffffffffffffffffffffffffffffffffff021916908373ffffffffffffffffffffffffffffffffffffffff16021790555060008054906101000a900473ffffffffffffffffffffffffffffffffffffffff1673ffffffffffffffffffffffffffffffffffffffff16600073ffffffffffffffffffffffffffffffffffffffff167f8be0079c531659141344cd1fd0a4f28419497f9722a3daafe3b4186f6b6457e060405160405180910390a3620002d6565b7f4e487b7100000000000000000000000000000000000000000000000000000000600052601160045260246000fd5b60008160011c9050919050565b6000808291508390505b600185111562000186578086048111156200015e576200015d620000f8565b5b60018516156200016e5780820291505b80810290506200017e8562000127565b94506200013e565b94509492505050565b600082620001a1576001905062000274565b81620001b1576000905062000274565b8160018114620001ca5760028114620001d5576200020b565b600191505062000274565b60ff841115620001ea57620001e9620000f8565b5b8360020a915084821115620002045762000203620000f8565b5b5062000274565b5060208310610133831016604e8410600b8410161715620002455782820a9050838111156200023f576200023e620000f8565b5b62000274565b62000254848484600162000134565b925090508184048111156200026e576200026d620000f8565b5b81810290505b9392505050565b6000819050919050565b600062000292826200027b565b91506200029f836200027b565b9250620002ce7fffffffffffffffffffffffffffffffffffffffffffffffffffffffffffffffff84846200018f565b905092915050565b61066780620002e66000396000f3fe608060405234801561001057600080fd5b50600436106100625760003560e01c8063715018a6146100675780638da5cb5b146100715780638f32d59b1461008f5780638f64be30146100ad578063f2fde38b146100e1578063f56fa8d4146100fd575b600080fd5b61006f61012d565b005b6100796101fc565b6040516100869190610468565b60405180910390f35b610097610225565b6040516100a4919061049e565b60405180910390f35b6100c760048036038101906100c291906104f4565b61027c565b6040516100d8959493929190610585565b60405180910390f35b6100fb60048036038101906100f69190610604565b6102e0565b005b610117600480360381019061011291906104f4565b6102fd565b6040516101249190610468565b60405180910390f35b610135610225565b61013e57600080fd5b600073ffffffffffffffffffffffffffffffffffffffff1660008054906101000a900473ffffffffffffffffffffffffffffffffffffffff1673ffffffffffffffffffffffffffffffffffffffff167f8be0079c531659141344cd1fd0a4f28419497f9722a3daafe3b4186f6b6457e060405160405180910390a360008060006101000a81548173ffffffffffffffffffffffffffffffffffffffff021916908373ffffffffffffffffffffffffffffffffffffffff160217905550565b60008060009054906101000a900473ffffffffffffffffffffffffffffffffffffffff16905090565b60008060009054906101000a900473ffffffffffffffffffffffffffffffffffffffff1673ffffffffffffffffffffffffffffffffffffffff163373ffffffffffffffffffffffffffffffffffffffff1614905090565b6004818154811061028c57600080fd5b90600052602060002090600502016000915090508060000154908060010154908060020160009054906101000a900463ffffffff16908060030154908060040160009054906101000a900461ffff16905085565b6102e8610225565b6102f157600080fd5b6102fa81610330565b50565b60056020528060005260406000206000915054906101000a900473ffffffffffffffffffffffffffffffffffffffff1681565b600073ffffffffffffffffffffffffffffffffffffffff168173ffffffffffffffffffffffffffffffffffffffff16141561036a57600080fd5b8073ffffffffffffffffffffffffffffffffffffffff1660008054906101000a900473ffffffffffffffffffffffffffffffffffffffff1673ffffffffffffffffffffffffffffffffffffffff167f8be0079c531659141344cd1fd0a4f28419497f9722a3daafe3b4186f6b6457e060405160405180910390a3806000806101000a81548173ffffffffffffffffffffffffffffffffffffffff021916908373ffffffffffffffffffffffffffffffffffffffff16021790555050565b600073ffffffffffffffffffffffffffffffffffffffff82169050919050565b600061045282610427565b9050919050565b61046281610447565b82525050565b600060208201905061047d6000830184610459565b92915050565b60008115159050919050565b61049881610483565b82525050565b60006020820190506104b3600083018461048f565b92915050565b600080fd5b6000819050919050565b6104d1816104be565b81146104dc57600080fd5b50565b6000813590506104ee816104c8565b92915050565b60006020828403121561050a576105096104b9565b5b6000610518848285016104df565b91505092915050565b61052a816104be565b82525050565b6000819050919050565b61054381610530565b82525050565b600063ffffffff82169050919050565b61056281610549565b82525050565b600061ffff82169050919050565b61057f81610568565b82525050565b600060a08201905061059a6000830188610521565b6105a7602083018761053a565b6105b46040830186610559565b6105c16060830185610521565b6105ce6080830184610576565b9695505050505050565b6105e181610447565b81146105ec57600080fd5b50565b6000813590506105fe816105d8565b92915050565b60006020828403121561061a576106196104b9565b5b6000610628848285016105ef565b9150509291505056fea2646970667358221220de8a196dbdfffb31deeaf60e0d8b57d697dbf716440738ed5e94f3e36d1dcee464736f6c634300080a0033",
  "immutableReferences": {},
  "source": "// SPDX-License-Identifier: MIT\r\npragma solidity >=0.4.22 <0.9.0;\r\n\r\nimport \"./ownable.sol\";\r\nimport \"./safemath.sol\";\r\n\r\ncontract PieceFactory is Ownable {\r\n\r\n    using SafeMath for uint256;\r\n    using SafeMath32 for uint32;\r\n    using SafeMath16 for uint16;\r\n\r\n    event NewPiece(uint pieceId, uint pieceDna, bytes32 pieceClass, uint32 pieceReadyTime, uint256 pieceCreationLoc, uint16 pieceMergeCount);\r\n\r\n    uint pieceDnaDigits = 16;\r\n    uint pieceDnaModulus = 10 ** pieceDnaDigits;\r\n    uint pieceCdTime = 1 days;\r\n\r\n    struct Piece {\r\n        uint pieceDna;\r\n        bytes32 pieceClass;\r\n        uint32 pieceReadyTime;\r\n        uint256 pieceCreationLoc;\r\n        uint16 mergeCount;\r\n    }\r\n\r\n    Piece[] public pieces;\r\n\r\n    mapping (uint => address) public pieceToOwner;\r\n    mapping (address => uint) ownerPieceCount;\r\n\r\n    uint randPieceNonce = 0;\r\n\r\n    function randPieceMod(uint _modulus) internal returns(uint) {\r\n        randPieceNonce++;\r\n        return uint(keccak256(abi.encodePacked(block.timestamp,msg.sender,randPieceNonce))) % _modulus;\r\n    }\r\n\r\n    function _createPiece(bytes32 _class, uint _dna, uint256 _pieceCreationLoc) internal {\r\n        uint32 _readyTime = uint32(block.timestamp + pieceCdTime);\r\n        // Note: We chose not to prevent the year 2038 problem... So don't need\r\n        // worry about overflows on readyTime. Our app is screwed in 2038 anyway ;)\r\n        pieces.push(Piece(_dna, _class, _readyTime, _pieceCreationLoc, 0));\r\n        uint pieceId = pieces.length -1;\r\n        pieceToOwner[pieceId] = msg.sender;\r\n        ownerPieceCount[msg.sender] = ownerPieceCount[msg.sender].add(1);\r\n        emit NewPiece(pieceId, _dna, _class, _readyTime, _pieceCreationLoc, 0);\r\n    }\r\n\r\n    function _generateRandomPieceDna(string memory _str) private view returns (uint) {\r\n        uint rand = uint (keccak256(abi.encodePacked(_str)));\r\n        return rand % pieceDnaModulus;\r\n    }\r\n\r\n  function _createShoes(uint256 _curr_loc) internal {\r\n     bytes32 _class = keccak256(abi.encodePacked(\"Shoes\"));\r\n     uint randDna = _generateRandomPieceDna(\"Blank Shoes\");\r\n     randDna = randDna - randDna % 100;\r\n     _createPiece(_class, randDna, _curr_loc);\r\n  }\r\n\r\n  function _createSocks(uint256 _curr_loc) internal {\r\n     bytes32 _class = keccak256(abi.encodePacked(\"Socks\"));\r\n     uint randDna = _generateRandomPieceDna(\"Blank Socks\");\r\n     randDna = randDna - randDna % 100;\r\n     _createPiece(_class, randDna, _curr_loc);\r\n  }\r\n\r\n\r\n  function _createPants(uint256 _curr_loc) internal {\r\n     bytes32 _class = keccak256(abi.encodePacked(\"Pants\"));\r\n     uint randDna = _generateRandomPieceDna(\"Blank Pants\");\r\n     randDna = randDna - randDna % 100;\r\n     _createPiece(_class, randDna, _curr_loc);\r\n  }\r\n\r\n  function _createUnderwear(uint256 _curr_loc) internal {\r\n     bytes32 _class = keccak256(abi.encodePacked(\"Underwear\"));\r\n     uint randDna = _generateRandomPieceDna(\"Blank Underwear\");\r\n     randDna = randDna - randDna % 100;\r\n     _createPiece(_class, randDna, _curr_loc);\r\n  }\r\n\r\n  function _createShirt(uint256 _curr_loc) internal {\r\n     bytes32 _class = keccak256(abi.encodePacked(\"Shirt\"));\r\n     uint randDna = _generateRandomPieceDna(\"Blank Shirt\");\r\n     randDna = randDna - randDna % 100;\r\n     _createPiece(_class, randDna, _curr_loc);\r\n  }\r\n\r\n  function _createHoodie(uint256 _curr_loc) internal {\r\n     bytes32 _class = keccak256(abi.encodePacked(\"Hoodie\"));\r\n     uint randDna = _generateRandomPieceDna(\"Blank Hoodie\");\r\n     randDna = randDna - randDna % 100;\r\n     _createPiece(_class, randDna, _curr_loc);\r\n  }\r\n\r\n  function _createSnapback(uint256 _curr_loc) internal {\r\n     bytes32 _class = keccak256(abi.encodePacked(\"Snapback\"));\r\n     uint randDna = _generateRandomPieceDna(\"Blank Snapback\");\r\n     randDna = randDna - randDna % 100;\r\n     _createPiece(_class, randDna, _curr_loc);\r\n  }\r\n\r\n  function _createTravelPaint(uint256 _ini_loc, uint256 _end_loc) internal {\r\n     bytes32 _class = keccak256(abi.encodePacked(\"Travel Paint\"));\r\n     uint randDna = _generateRandomPieceDna(string(abi.encodePacked(_ini_loc, _end_loc)));\r\n     randDna = randDna - randDna % 100;\r\n     _createPiece(_class, randDna, _end_loc);\r\n  }\r\n\r\n  function _createTravelItem(uint256 _ini_loc, uint256 _end_loc) internal {\r\n     bytes32 _class = keccak256(abi.encodePacked(\"Travel Item\"));\r\n     uint randDna = _generateRandomPieceDna(string(abi.encodePacked(_ini_loc, _end_loc)));\r\n     randDna = randDna - randDna % 100;\r\n     _createPiece(_class, randDna, _end_loc);\r\n  }\r\n\r\n  function _createTravelCoupon(uint256 _ini_loc, uint256 _end_loc) internal {\r\n     bytes32 _class = keccak256(abi.encodePacked(\"Travel Coupon\"));\r\n     uint randDna = _generateRandomPieceDna(string(abi.encodePacked(_ini_loc, _end_loc)));\r\n     randDna = randDna - randDna % 100;\r\n     _createPiece(_class, randDna, _end_loc);\r\n  }\r\n\r\n}",
  "sourcePath": "C:\\Users\\pablo\\PycharmProjects\\LiveAndTravel\\contracts\\piecefactory.sol",
  "compiler": {
    "name": "solc",
    "version": "0.8.10+commit.fc410830.Emscripten.clang"
  },
  "schemaVersion": "3.4.4",
  "updatedAt": "2022-01-13T15:03:14.645Z",
  "devdoc": {
    "kind": "dev",
    "methods": {},
    "version": 1
  },
  "userdoc": {
    "kind": "user",
    "methods": {},
    "version": 1
  }
}