{
  "contractName": "PieceMerging",
  "abi": [
    {
      "anonymous": false,
      "inputs": [
        {
          "indexed": false,
          "internalType": "uint256",
          "name": "pieceId",
          "type": "uint256"
        },
        {
          "indexed": false,
          "internalType": "uint256",
          "name": "pieceDna",
          "type": "uint256"
        },
        {
          "indexed": false,
          "internalType": "string",
          "name": "pieceName",
          "type": "string"
        },
        {
          "indexed": false,
          "internalType": "string",
          "name": "pieceSex",
          "type": "string"
        },
        {
          "indexed": false,
          "internalType": "bytes32",
          "name": "pieceClass",
          "type": "bytes32"
        },
        {
          "indexed": false,
          "internalType": "uint32",
          "name": "pieceReadyTime",
          "type": "uint32"
        },
        {
          "indexed": false,
          "internalType": "uint16",
          "name": "pieceLevel",
          "type": "uint16"
        },
        {
          "indexed": false,
          "internalType": "uint16",
          "name": "pieceLuck",
          "type": "uint16"
        },
        {
          "indexed": false,
          "internalType": "uint16",
          "name": "pieceInt",
          "type": "uint16"
        },
        {
          "indexed": false,
          "internalType": "uint16",
          "name": "pieceAgi",
          "type": "uint16"
        },
        {
          "indexed": false,
          "internalType": "uint16",
          "name": "pieceStr",
          "type": "uint16"
        },
        {
          "indexed": false,
          "internalType": "uint16",
          "name": "pieceSta",
          "type": "uint16"
        },
        {
          "indexed": false,
          "internalType": "uint16",
          "name": "pieceMergeCount",
          "type": "uint16"
        }
      ],
      "name": "NewPiece",
      "type": "event"
    },
    {
      "anonymous": false,
      "inputs": [
        {
          "indexed": true,
          "internalType": "address",
          "name": "previousOwner",
          "type": "address"
        },
        {
          "indexed": true,
          "internalType": "address",
          "name": "newOwner",
          "type": "address"
        }
      ],
      "name": "OwnershipTransferred",
      "type": "event"
    },
    {
      "inputs": [
        {
          "internalType": "string",
          "name": "_name",
          "type": "string"
        },
        {
          "internalType": "string",
          "name": "_sex",
          "type": "string"
        }
      ],
      "name": "createRandomPiece",
      "outputs": [],
      "stateMutability": "payable",
      "type": "function"
    },
    {
      "inputs": [],
      "name": "isOwner",
      "outputs": [
        {
          "internalType": "bool",
          "name": "",
          "type": "bool"
        }
      ],
      "stateMutability": "view",
      "type": "function"
    },
    {
      "inputs": [
        {
          "internalType": "uint256",
          "name": "_boredApeId",
          "type": "uint256"
        }
      ],
      "name": "migrateBoredApe2",
      "outputs": [],
      "stateMutability": "payable",
      "type": "function"
    },
    {
      "inputs": [
        {
          "internalType": "uint256",
          "name": "_cypherPunkId",
          "type": "uint256"
        }
      ],
      "name": "migrateCypherPunk2",
      "outputs": [],
      "stateMutability": "payable",
      "type": "function"
    },
    {
      "inputs": [
        {
          "internalType": "uint256",
          "name": "_kittyId",
          "type": "uint256"
        }
      ],
      "name": "migrateKitty2",
      "outputs": [],
      "stateMutability": "payable",
      "type": "function"
    },
    {
      "inputs": [],
      "name": "owner",
      "outputs": [
        {
          "internalType": "address",
          "name": "",
          "type": "address"
        }
      ],
      "stateMutability": "view",
      "type": "function"
    },
    {
      "inputs": [
        {
          "internalType": "uint256",
          "name": "",
          "type": "uint256"
        }
      ],
      "name": "pieceToOwner",
      "outputs": [
        {
          "internalType": "address",
          "name": "",
          "type": "address"
        }
      ],
      "stateMutability": "view",
      "type": "function"
    },
    {
      "inputs": [
        {
          "internalType": "uint256",
          "name": "",
          "type": "uint256"
        }
      ],
      "name": "pieces",
      "outputs": [
        {
          "internalType": "uint256",
          "name": "pieceDna",
          "type": "uint256"
        },
        {
          "internalType": "string",
          "name": "pieceName",
          "type": "string"
        },
        {
          "internalType": "string",
          "name": "pieceSex",
          "type": "string"
        },
        {
          "internalType": "bytes32",
          "name": "pieceClass",
          "type": "bytes32"
        },
        {
          "internalType": "uint32",
          "name": "pieceReadyTime",
          "type": "uint32"
        },
        {
          "internalType": "uint16",
          "name": "pieceLevel",
          "type": "uint16"
        },
        {
          "internalType": "uint16",
          "name": "pieceLuck",
          "type": "uint16"
        },
        {
          "internalType": "uint16",
          "name": "pieceIntellect",
          "type": "uint16"
        },
        {
          "internalType": "uint16",
          "name": "pieceAgility",
          "type": "uint16"
        },
        {
          "internalType": "uint16",
          "name": "pieceStrength",
          "type": "uint16"
        },
        {
          "internalType": "uint16",
          "name": "pieceStamina",
          "type": "uint16"
        },
        {
          "internalType": "uint16",
          "name": "mergeCount",
          "type": "uint16"
        }
      ],
      "stateMutability": "view",
      "type": "function"
    },
    {
      "inputs": [],
      "name": "renounceOwnership",
      "outputs": [],
      "stateMutability": "nonpayable",
      "type": "function"
    },
    {
      "inputs": [
        {
          "internalType": "address",
          "name": "_address",
          "type": "address"
        }
      ],
      "name": "setBoredApeContractAddress2",
      "outputs": [],
      "stateMutability": "nonpayable",
      "type": "function"
    },
    {
      "inputs": [
        {
          "internalType": "address",
          "name": "_address",
          "type": "address"
        }
      ],
      "name": "setCypherPunkContractAddress2",
      "outputs": [],
      "stateMutability": "nonpayable",
      "type": "function"
    },
    {
      "inputs": [
        {
          "internalType": "address",
          "name": "_address",
          "type": "address"
        }
      ],
      "name": "setKittyContractAddress2",
      "outputs": [],
      "stateMutability": "nonpayable",
      "type": "function"
    },
    {
      "inputs": [
        {
          "internalType": "address",
          "name": "newOwner",
          "type": "address"
        }
      ],
      "name": "transferOwnership",
      "outputs": [],
      "stateMutability": "nonpayable",
      "type": "function"
    },
    {
      "inputs": [
        {
          "internalType": "uint256",
          "name": "_pieceId",
          "type": "uint256"
        },
        {
          "internalType": "uint256",
          "name": "_targetPieceId",
          "type": "uint256"
        }
      ],
      "name": "merge",
      "outputs": [],
      "stateMutability": "payable",
      "type": "function"
    }
  ],
  "bytecode": "0x60806040526010600155600154600a6200001a9190620002a7565b60025562015180600355670de0b6b3a76400006007556000600855605a600c556007600d55670de0b6b3a7640000600e553480156200005857600080fd5b50336000806101000a81548173ffffffffffffffffffffffffffffffffffffffff021916908373ffffffffffffffffffffffffffffffffffffffff16021790555060008054906101000a900473ffffffffffffffffffffffffffffffffffffffff1673ffffffffffffffffffffffffffffffffffffffff16600073ffffffffffffffffffffffffffffffffffffffff167f8be0079c531659141344cd1fd0a4f28419497f9722a3daafe3b4186f6b6457e060405160405180910390a3620002f8565b7f4e487b7100000000000000000000000000000000000000000000000000000000600052601160045260246000fd5b60008160011c9050919050565b6000808291508390505b6001851115620001a85780860481111562000180576200017f6200011a565b5b6001851615620001905780820291505b8081029050620001a08562000149565b945062000160565b94509492505050565b600082620001c3576001905062000296565b81620001d3576000905062000296565b8160018114620001ec5760028114620001f7576200022d565b600191505062000296565b60ff8411156200020c576200020b6200011a565b5b8360020a9150848211156200022657620002256200011a565b5b5062000296565b5060208310610133831016604e8410600b8410161715620002675782820a9050838111156200026157620002606200011a565b5b62000296565b62000276848484600162000156565b9250905081840481111562000290576200028f6200011a565b5b81810290505b9392505050565b6000819050919050565b6000620002b4826200029d565b9150620002c1836200029d565b9250620002f07fffffffffffffffffffffffffffffffffffffffffffffffffffffffffffffffff8484620001b1565b905092915050565b612d4080620003086000396000f3fe6080604052600436106100dd5760003560e01c8063a123663d1161007f578063e972150911610059578063e972150914610259578063f2fde38b14610282578063f56fa8d4146102ab578063f5d976d1146102e8576100dd565b8063a123663d146101f8578063be8deaa714610221578063d1c2babb1461023d576100dd565b80638715404d116100bb5780638715404d1461013e5780638da5cb5b1461015a5780638f32d59b146101855780638f64be30146101b0576100dd565b80632415a313146100e25780636d86604e1461010b578063715018a614610127575b600080fd5b3480156100ee57600080fd5b5061010960048036038101906101049190611e3f565b610304565b005b61012560048036038101906101209190611fb2565b610359565b005b34801561013357600080fd5b5061013c610414565b005b61015860048036038101906101539190612060565b6104e3565b005b34801561016657600080fd5b5061016f610610565b60405161017c919061209c565b60405180910390f35b34801561019157600080fd5b5061019a610639565b6040516101a791906120d2565b60405180910390f35b3480156101bc57600080fd5b506101d760048036038101906101d29190612060565b610690565b6040516101ef9c9b9a999897969594939291906121d9565b60405180910390f35b34801561020457600080fd5b5061021f600480360381019061021a9190611e3f565b610882565b005b61023b60048036038101906102369190612060565b6108d7565b005b610257600480360381019061025291906122a1565b610a04565b005b34801561026557600080fd5b50610280600480360381019061027b9190611e3f565b6114bb565b005b34801561028e57600080fd5b506102a960048036038101906102a49190611e3f565b611510565b005b3480156102b757600080fd5b506102d260048036038101906102cd9190612060565b61152d565b6040516102df919061209c565b60405180910390f35b61030260048036038101906102fd9190612060565b611560565b005b61030c610639565b61031557600080fd5b80600b60006101000a81548173ffffffffffffffffffffffffffffffffffffffff021916908373ffffffffffffffffffffffffffffffffffffffff16021790555050565b600754341461036757600080fd5b6000600660003373ffffffffffffffffffffffffffffffffffffffff1673ffffffffffffffffffffffffffffffffffffffff16815260200190815260200160002054146103b357600080fd5b60006040516020016103c490612338565b60405160208183030381529060405280519060200120905060006103e78461168d565b90506064816103f6919061237c565b8161040191906123dc565b905061040e8284836116d2565b50505050565b61041c610639565b61042557600080fd5b600073ffffffffffffffffffffffffffffffffffffffff1660008054906101000a900473ffffffffffffffffffffffffffffffffffffffff1673ffffffffffffffffffffffffffffffffffffffff167f8be0079c531659141344cd1fd0a4f28419497f9722a3daafe3b4186f6b6457e060405160405180910390a360008060006101000a81548173ffffffffffffffffffffffffffffffffffffffff021916908373ffffffffffffffffffffffffffffffffffffffff160217905550565b60075434146104f157600080fd5b60006040516020016105029061245c565b6040516020818303038152906040528051906020012090506000610524611a85565b90506000600960009054906101000a900473ffffffffffffffffffffffffffffffffffffffff1673ffffffffffffffffffffffffffffffffffffffff166383ec865c856040518263ffffffff1660e01b81526004016105839190612471565b61014060405180830381865afa1580156105a1573d6000803e3d6000fd5b505050506040513d601f19601f820116820180604052508101906105c591906124cd565b9091929394959697985090919293949596975090919293949596509091929394955090919293945090919293509091925090915090508091505061060a8383836116d2565b50505050565b60008060009054906101000a900473ffffffffffffffffffffffffffffffffffffffff16905090565b60008060009054906101000a900473ffffffffffffffffffffffffffffffffffffffff1673ffffffffffffffffffffffffffffffffffffffff163373ffffffffffffffffffffffffffffffffffffffff1614905090565b600481815481106106a057600080fd5b90600052602060002090600502016000915090508060000154908060010180546106c9906125db565b80601f01602080910402602001604051908101604052809291908181526020018280546106f5906125db565b80156107425780601f1061071757610100808354040283529160200191610742565b820191906000526020600020905b81548152906001019060200180831161072557829003601f168201915b505050505090806002018054610757906125db565b80601f0160208091040260200160405190810160405280929190818152602001828054610783906125db565b80156107d05780601f106107a5576101008083540402835291602001916107d0565b820191906000526020600020905b8154815290600101906020018083116107b357829003601f168201915b5050505050908060030154908060040160009054906101000a900463ffffffff16908060040160049054906101000a900461ffff16908060040160069054906101000a900461ffff16908060040160089054906101000a900461ffff169080600401600a9054906101000a900461ffff169080600401600c9054906101000a900461ffff169080600401600e9054906101000a900461ffff16908060040160109054906101000a900461ffff1690508c565b61088a610639565b61089357600080fd5b80600a60006101000a81548173ffffffffffffffffffffffffffffffffffffffff021916908373ffffffffffffffffffffffffffffffffffffffff16021790555050565b60075434146108e557600080fd5b60006040516020016108f690612659565b6040516020818303038152906040528051906020012090506000610918611a85565b90506000600a60009054906101000a900473ffffffffffffffffffffffffffffffffffffffff1673ffffffffffffffffffffffffffffffffffffffff166398d8a78a856040518263ffffffff1660e01b81526004016109779190612471565b61014060405180830381865afa158015610995573d6000803e3d6000fd5b505050506040513d601f19601f820116820180604052508101906109b991906124cd565b909192939495969798509091929394959697509091929394959650909192939495509091929394509091929350909192509091509050809150506109fe8383836116d2565b50505050565b816005600082815260200190815260200160002060009054906101000a900473ffffffffffffffffffffffffffffffffffffffff1673ffffffffffffffffffffffffffffffffffffffff163373ffffffffffffffffffffffffffffffffffffffff1614610a7057600080fd5b816005600082815260200190815260200160002060009054906101000a900473ffffffffffffffffffffffffffffffffffffffff1673ffffffffffffffffffffffffffffffffffffffff163373ffffffffffffffffffffffffffffffffffffffff1614610adc57600080fd5b600060048581548110610af257610af161266e565b5b90600052602060002090600502019050600060048581548110610b1857610b1761266e565b5b90600052602060002090600502019050610b3182611b1d565b610b3a57600080fd5b610b4381611b1d565b610b4c57600080fd5b600e543414610b5a57600080fd5b6000600282600001548460000154610b72919061269d565b610b7c91906126f3565b90506000604051602001610b8f90612659565b604051602081830303815290604052805190602001208460030154148015610bde5750604051602001610bc190612338565b604051602081830303815290604052805190602001208360030154145b80610c435750604051602001610bf390612338565b604051602081830303815290604052805190602001208460030154148015610c425750604051602001610c2590612659565b604051602081830303815290604052805190602001208360030154145b5b15610c7057604051602001610c5790612770565b6040516020818303038152906040528051906020012090505b604051602001610c7f9061245c565b604051602081830303815290604052805190602001208460030154148015610cce5750604051602001610cb190612338565b604051602081830303815290604052805190602001208360030154145b80610d335750604051602001610ce390612338565b604051602081830303815290604052805190602001208460030154148015610d325750604051602001610d159061245c565b604051602081830303815290604052805190602001208360030154145b5b15610d6057604051602001610d47906127d1565b6040516020818303038152906040528051906020012090505b604051602001610d6f90612832565b604051602081830303815290604052805190602001208460030154148015610dbe5750604051602001610da190612338565b604051602081830303815290604052805190602001208360030154145b80610e235750604051602001610dd390612338565b604051602081830303815290604052805190602001208460030154148015610e225750604051602001610e0590612832565b604051602081830303815290604052805190602001208360030154145b5b15610e5057604051602001610e3790612893565b6040516020818303038152906040528051906020012090505b604051602001610e5f90612659565b604051602081830303815290604052805190602001208460030154148015610eae5750604051602001610e919061245c565b604051602081830303815290604052805190602001208360030154145b80610f135750604051602001610ec39061245c565b604051602081830303815290604052805190602001208460030154148015610f125750604051602001610ef590612659565b604051602081830303815290604052805190602001208360030154145b5b15610f4057604051602001610f27906128f4565b6040516020818303038152906040528051906020012090505b604051602001610f4f90612659565b604051602081830303815290604052805190602001208460030154148015610f9e5750604051602001610f8190612832565b604051602081830303815290604052805190602001208360030154145b806110035750604051602001610fb390612832565b6040516020818303038152906040528051906020012084600301541480156110025750604051602001610fe590612659565b604051602081830303815290604052805190602001208360030154145b5b156110305760405160200161101790612955565b6040516020818303038152906040528051906020012090505b60405160200161103f9061245c565b60405160208183030381529060405280519060200120846003015414801561108e575060405160200161107190612832565b604051602081830303815290604052805190602001208360030154145b806110f357506040516020016110a390612832565b6040516020818303038152906040528051906020012084600301541480156110f257506040516020016110d59061245c565b604051602081830303815290604052805190602001208360030154145b5b15611120576040516020016111079061245c565b6040516020818303038152906040528051906020012090505b60405160200161112f90612338565b60405160208183030381529060405280519060200120846003015414801561117e575060405160200161116190612338565b604051602081830303815290604052805190602001208360030154145b156111ab5760405160200161119290612338565b6040516020818303038152906040528051906020012090505b6040516020016111ba9061245c565b60405160208183030381529060405280519060200120846003015414801561120957506040516020016111ec9061245c565b604051602081830303815290604052805190602001208360030154145b156112365760405160200161121d9061245c565b6040516020818303038152906040528051906020012090505b60405160200161124590612832565b604051602081830303815290604052805190602001208460030154148015611294575060405160200161127790612832565b604051602081830303815290604052805190602001208360030154145b156112c1576040516020016112a890612832565b6040516020818303038152906040528051906020012090505b6040516020016112d090612659565b60405160208183030381529060405280519060200120846003015414801561131f575060405160200161130290612659565b604051602081830303815290604052805190602001208360030154145b156113505760405160200161133390612659565b604051602081830303815290604052805190602001209050611378565b60405160200161135f906129b6565b6040516020818303038152906040528051906020012090505b60006113846064611b44565b9050600c5481111580156113b05750600d548560040160109054906101000a900461ffff1661ffff1611155b15611426576113c7826113c1611a85565b856116d2565b6113d085611ba0565b6113d984611ba0565b61140360018660040160109054906101000a900461ffff1661ffff16611bd390919063ffffffff16565b8560040160106101000a81548161ffff021916908361ffff1602179055506114b0565b600c548111801561144f5750600d548560040160109054906101000a900461ffff1661ffff1611155b156114af5761145d85611ba0565b61146684611ba0565b61149060018660040160109054906101000a900461ffff1661ffff16611bd390919063ffffffff16565b8560040160106101000a81548161ffff021916908361ffff1602179055505b5b505050505050505050565b6114c3610639565b6114cc57600080fd5b80600960006101000a81548173ffffffffffffffffffffffffffffffffffffffff021916908373ffffffffffffffffffffffffffffffffffffffff16021790555050565b611518610639565b61152157600080fd5b61152a81611c07565b50565b60056020528060005260406000206000915054906101000a900473ffffffffffffffffffffffffffffffffffffffff1681565b600754341461156e57600080fd5b600060405160200161157f90612832565b60405160208183030381529060405280519060200120905060006115a1611a85565b90506000600b60009054906101000a900473ffffffffffffffffffffffffffffffffffffffff1673ffffffffffffffffffffffffffffffffffffffff1663828bc59a856040518263ffffffff1660e01b81526004016116009190612471565b61014060405180830381865afa15801561161e573d6000803e3d6000fd5b505050506040513d601f19601f8201168201806040525081019061164291906124cd565b909192939495969798509091929394959697509091929394959650909192939495509091929394509091929350909192509091509050809150506116878383836116d2565b50505050565b600080826040516020016116a191906129fc565b6040516020818303038152906040528051906020012060001c9050600254816116ca919061237c565b915050919050565b6000600354426116e2919061269d565b905060046040518061018001604052808481526020016040518060400160405280600681526020017f4e6f4e616d65000000000000000000000000000000000000000000000000000081525081526020018581526020018681526020018363ffffffff168152602001600161ffff168152602001600161ffff168152602001600161ffff168152602001600161ffff168152602001600161ffff168152602001600161ffff168152602001600061ffff1681525090806001815401808255809150506001900390600052602060002090600502016000909190919091506000820151816000015560208201518160010190805190602001906117e5929190611d2a565b506040820151816002019080519060200190611802929190611d2a565b506060820151816003015560808201518160040160006101000a81548163ffffffff021916908363ffffffff16021790555060a08201518160040160046101000a81548161ffff021916908361ffff16021790555060c08201518160040160066101000a81548161ffff021916908361ffff16021790555060e08201518160040160086101000a81548161ffff021916908361ffff16021790555061010082015181600401600a6101000a81548161ffff021916908361ffff16021790555061012082015181600401600c6101000a81548161ffff021916908361ffff16021790555061014082015181600401600e6101000a81548161ffff021916908361ffff1602179055506101608201518160040160106101000a81548161ffff021916908361ffff16021790555050506000600160048054905061194391906123dc565b9050336005600083815260200190815260200160002060006101000a81548173ffffffffffffffffffffffffffffffffffffffff021916908373ffffffffffffffffffffffffffffffffffffffff1602179055506119ea6001600660003373ffffffffffffffffffffffffffffffffffffffff1673ffffffffffffffffffffffffffffffffffffffff16815260200190815260200160002054611cfe90919063ffffffff16565b600660003373ffffffffffffffffffffffffffffffffffffffff1673ffffffffffffffffffffffffffffffffffffffff168152602001908152602001600020819055507f8c0ab4f733626b70a14feffd2077d631c06ed4a29b41dd5d93c852a5312c398b81848688866001806001806001806000604051611a769c9b9a99989796959493929190612adf565b60405180910390a15050505050565b6060600060329050606081611a9a6064611b44565b11611adc576040518060400160405280600481526020017f6d616c65000000000000000000000000000000000000000000000000000000008152509050611b15565b6040518060400160405280600681526020017f66656d616c65000000000000000000000000000000000000000000000000000081525090505b809250505090565b6000428260040160009054906101000a900463ffffffff1663ffffffff1611159050919050565b600060086000815480929190611b5990612bb4565b9190505550814233600854604051602001611b7693929190612c66565b6040516020818303038152906040528051906020012060001c611b99919061237c565b9050919050565b60035442611bae919061269d565b8160040160006101000a81548163ffffffff021916908363ffffffff16021790555050565b6000808284611be29190612ca3565b90508361ffff168161ffff161015611bfd57611bfc612cdb565b5b8091505092915050565b600073ffffffffffffffffffffffffffffffffffffffff168173ffffffffffffffffffffffffffffffffffffffff161415611c4157600080fd5b8073ffffffffffffffffffffffffffffffffffffffff1660008054906101000a900473ffffffffffffffffffffffffffffffffffffffff1673ffffffffffffffffffffffffffffffffffffffff167f8be0079c531659141344cd1fd0a4f28419497f9722a3daafe3b4186f6b6457e060405160405180910390a3806000806101000a81548173ffffffffffffffffffffffffffffffffffffffff021916908373ffffffffffffffffffffffffffffffffffffffff16021790555050565b6000808284611d0d919061269d565b905083811015611d2057611d1f612cdb565b5b8091505092915050565b828054611d36906125db565b90600052602060002090601f016020900481019282611d585760008555611d9f565b82601f10611d7157805160ff1916838001178555611d9f565b82800160010185558215611d9f579182015b82811115611d9e578251825591602001919060010190611d83565b5b509050611dac9190611db0565b5090565b5b80821115611dc9576000816000905550600101611db1565b5090565b6000604051905090565b600080fd5b600080fd5b600073ffffffffffffffffffffffffffffffffffffffff82169050919050565b6000611e0c82611de1565b9050919050565b611e1c81611e01565b8114611e2757600080fd5b50565b600081359050611e3981611e13565b92915050565b600060208284031215611e5557611e54611dd7565b5b6000611e6384828501611e2a565b91505092915050565b600080fd5b600080fd5b6000601f19601f8301169050919050565b7f4e487b7100000000000000000000000000000000000000000000000000000000600052604160045260246000fd5b611ebf82611e76565b810181811067ffffffffffffffff82111715611ede57611edd611e87565b5b80604052505050565b6000611ef1611dcd565b9050611efd8282611eb6565b919050565b600067ffffffffffffffff821115611f1d57611f1c611e87565b5b611f2682611e76565b9050602081019050919050565b82818337600083830152505050565b6000611f55611f5084611f02565b611ee7565b905082815260208101848484011115611f7157611f70611e71565b5b611f7c848285611f33565b509392505050565b600082601f830112611f9957611f98611e6c565b5b8135611fa9848260208601611f42565b91505092915050565b60008060408385031215611fc957611fc8611dd7565b5b600083013567ffffffffffffffff811115611fe757611fe6611ddc565b5b611ff385828601611f84565b925050602083013567ffffffffffffffff81111561201457612013611ddc565b5b61202085828601611f84565b9150509250929050565b6000819050919050565b61203d8161202a565b811461204857600080fd5b50565b60008135905061205a81612034565b92915050565b60006020828403121561207657612075611dd7565b5b60006120848482850161204b565b91505092915050565b61209681611e01565b82525050565b60006020820190506120b1600083018461208d565b92915050565b60008115159050919050565b6120cc816120b7565b82525050565b60006020820190506120e760008301846120c3565b92915050565b6120f68161202a565b82525050565b600081519050919050565b600082825260208201905092915050565b60005b8381101561213657808201518184015260208101905061211b565b83811115612145576000848401525b50505050565b6000612156826120fc565b6121608185612107565b9350612170818560208601612118565b61217981611e76565b840191505092915050565b6000819050919050565b61219781612184565b82525050565b600063ffffffff82169050919050565b6121b68161219d565b82525050565b600061ffff82169050919050565b6121d3816121bc565b82525050565b6000610180820190506121ef600083018f6120ed565b8181036020830152612201818e61214b565b90508181036040830152612215818d61214b565b9050612224606083018c61218e565b612231608083018b6121ad565b61223e60a083018a6121ca565b61224b60c08301896121ca565b61225860e08301886121ca565b6122666101008301876121ca565b6122746101208301866121ca565b6122826101408301856121ca565b6122906101608301846121ca565b9d9c50505050505050505050505050565b600080604083850312156122b8576122b7611dd7565b5b60006122c68582860161204b565b92505060206122d78582860161204b565b9150509250929050565b600081905092915050565b7f74726176656c6572000000000000000000000000000000000000000000000000600082015250565b60006123226008836122e1565b915061232d826122ec565b600882019050919050565b600061234382612315565b9150819050919050565b7f4e487b7100000000000000000000000000000000000000000000000000000000600052601260045260246000fd5b60006123878261202a565b91506123928361202a565b9250826123a2576123a161234d565b5b828206905092915050565b7f4e487b7100000000000000000000000000000000000000000000000000000000600052601160045260246000fd5b60006123e78261202a565b91506123f28361202a565b925082821015612405576124046123ad565b5b828203905092915050565b7f6b69747479000000000000000000000000000000000000000000000000000000600082015250565b60006124466005836122e1565b915061245182612410565b600582019050919050565b600061246782612439565b9150819050919050565b600060208201905061248660008301846120ed565b92915050565b612495816120b7565b81146124a057600080fd5b50565b6000815190506124b28161248c565b92915050565b6000815190506124c781612034565b92915050565b6000806000806000806000806000806101408b8d0312156124f1576124f0611dd7565b5b60006124ff8d828e016124a3565b9a505060206125108d828e016124a3565b99505060406125218d828e016124b8565b98505060606125328d828e016124b8565b97505060806125438d828e016124b8565b96505060a06125548d828e016124b8565b95505060c06125658d828e016124b8565b94505060e06125768d828e016124b8565b9350506101006125888d828e016124b8565b92505061012061259a8d828e016124b8565b9150509295989b9194979a5092959850565b7f4e487b7100000000000000000000000000000000000000000000000000000000600052602260045260246000fd5b600060028204905060018216806125f357607f821691505b60208210811415612607576126066125ac565b5b50919050565b7f63797068657250756e6b00000000000000000000000000000000000000000000600082015250565b6000612643600a836122e1565b915061264e8261260d565b600a82019050919050565b600061266482612636565b9150819050919050565b7f4e487b7100000000000000000000000000000000000000000000000000000000600052603260045260246000fd5b60006126a88261202a565b91506126b38361202a565b9250827fffffffffffffffffffffffffffffffffffffffffffffffffffffffffffffffff038211156126e8576126e76123ad565b5b828201905092915050565b60006126fe8261202a565b91506127098361202a565b9250826127195761271861234d565b5b828204905092915050565b7f63797068657254726176656c6572000000000000000000000000000000000000600082015250565b600061275a600e836122e1565b915061276582612724565b600e82019050919050565b600061277b8261274d565b9150819050919050565b7f6b6974747954726176656c657200000000000000000000000000000000000000600082015250565b60006127bb600d836122e1565b91506127c682612785565b600d82019050919050565b60006127dc826127ae565b9150819050919050565b7f626f726564417065000000000000000000000000000000000000000000000000600082015250565b600061281c6008836122e1565b9150612827826127e6565b600882019050919050565b600061283d8261280f565b9150819050919050565b7f626f72656454726176656c657200000000000000000000000000000000000000600082015250565b600061287d600d836122e1565b915061288882612847565b600d82019050919050565b600061289e82612870565b9150819050919050565b7f6379706865724b69747479000000000000000000000000000000000000000000600082015250565b60006128de600b836122e1565b91506128e9826128a8565b600b82019050919050565b60006128ff826128d1565b9150819050919050565b7f6379706865724170650000000000000000000000000000000000000000000000600082015250565b600061293f6009836122e1565b915061294a82612909565b600982019050919050565b600061296082612932565b9150819050919050565b7f6e6577436c617373657300000000000000000000000000000000000000000000600082015250565b60006129a0600a836122e1565b91506129ab8261296a565b600a82019050919050565b60006129c182612993565b9150819050919050565b60006129d6826120fc565b6129e081856122e1565b93506129f0818560208601612118565b80840191505092915050565b6000612a0882846129cb565b915081905092915050565b7f4e6f4e616d650000000000000000000000000000000000000000000000000000600082015250565b6000612a49600683612107565b9150612a5482612a13565b602082019050919050565b6000819050919050565b6000819050919050565b6000612a8e612a89612a8484612a5f565b612a69565b6121bc565b9050919050565b612a9e81612a73565b82525050565b6000819050919050565b6000612ac9612ac4612abf84612aa4565b612a69565b6121bc565b9050919050565b612ad981612aae565b82525050565b60006101a082019050612af5600083018f6120ed565b612b02602083018e6120ed565b8181036040830152612b1381612a3c565b90508181036060830152612b27818d61214b565b9050612b36608083018c61218e565b612b4360a083018b6121ad565b612b5060c083018a612a95565b612b5d60e0830189612a95565b612b6b610100830188612a95565b612b79610120830187612a95565b612b87610140830186612a95565b612b95610160830185612a95565b612ba3610180830184612ad0565b9d9c50505050505050505050505050565b6000612bbf8261202a565b91507fffffffffffffffffffffffffffffffffffffffffffffffffffffffffffffffff821415612bf257612bf16123ad565b5b600182019050919050565b6000819050919050565b612c18612c138261202a565b612bfd565b82525050565b60008160601b9050919050565b6000612c3682612c1e565b9050919050565b6000612c4882612c2b565b9050919050565b612c60612c5b82611e01565b612c3d565b82525050565b6000612c728286612c07565b602082019150612c828285612c4f565b601482019150612c928284612c07565b602082019150819050949350505050565b6000612cae826121bc565b9150612cb9836121bc565b92508261ffff03821115612cd057612ccf6123ad565b5b828201905092915050565b7f4e487b7100000000000000000000000000000000000000000000000000000000600052600160045260246000fdfea2646970667358221220b2df349d2b8fb943352be9a803699c88ac9cdccb398d47d1120e41cc01509a2164736f6c634300080a0033",
  "immutableReferences": {},
  "source": "// SPDX-License-Identifier: MIT\r\npragma solidity >=0.4.22 <0.9.0;\r\n\r\nimport \"./piecemigration.sol\";\r\nimport \"./safemath.sol\";\r\n\r\ncontract PieceMerging is PieceMigration {\r\n\r\n    using SafeMath16 for uint16;\r\n\r\n    uint mergeProbability = 90;\r\n    uint maxMerge = 7;\r\n    modifier onlyOwnerOfPiece(uint _pieceId) {\r\n        require(msg.sender == pieceToOwner[_pieceId]);\r\n        _;\r\n    }\r\n\r\n    function _triggerCd(Piece storage _piece) internal {\r\n        _piece.pieceReadyTime = uint32(block.timestamp + pieceCdTime);\r\n    }\r\n\r\n    function _isReady(Piece storage _piece) internal view returns (bool) {\r\n       return (_piece.pieceReadyTime <= block.timestamp);\r\n    }\r\n\r\n    uint mergeFee = 1 ether; //live tokens\r\n\r\n    function merge(uint _pieceId, uint _targetPieceId) external onlyOwnerOfPiece(_pieceId) onlyOwnerOfPiece(_targetPieceId) payable {\r\n        Piece storage myPiece = pieces[_pieceId];\r\n        Piece storage targetPiece = pieces[_targetPieceId];\r\n        require(_isReady(myPiece));\r\n        require (_isReady(targetPiece));\r\n        require(msg.value == mergeFee);\r\n        uint newDna = (myPiece.pieceDna + targetPiece.pieceDna) / 2;\r\n        bytes32 newClass;\r\n        if (((myPiece.pieceClass == keccak256(abi.encodePacked(\"cypherPunk\"))) && (targetPiece.pieceClass == keccak256(abi.encodePacked(\"traveler\")))) || ((myPiece.pieceClass == keccak256(abi.encodePacked(\"traveler\"))) && (targetPiece.pieceClass == keccak256(abi.encodePacked(\"cypherPunk\"))))) {\r\n            newClass = keccak256(abi.encodePacked(\"cypherTraveler\"));\r\n        }\r\n        if (((myPiece.pieceClass == keccak256(abi.encodePacked(\"kitty\"))) && (targetPiece.pieceClass == keccak256(abi.encodePacked(\"traveler\")))) || ((myPiece.pieceClass == keccak256(abi.encodePacked(\"traveler\"))) && (targetPiece.pieceClass == keccak256(abi.encodePacked(\"kitty\"))))) {\r\n            newClass = keccak256(abi.encodePacked(\"kittyTraveler\"));\r\n        }\r\n        if (((myPiece.pieceClass == keccak256(abi.encodePacked(\"boredApe\"))) && (targetPiece.pieceClass == keccak256(abi.encodePacked(\"traveler\")))) || ((myPiece.pieceClass == keccak256(abi.encodePacked(\"traveler\"))) && (targetPiece.pieceClass == keccak256(abi.encodePacked(\"boredApe\"))))) {\r\n            newClass = keccak256(abi.encodePacked(\"boredTraveler\"));\r\n        }\r\n        if (((myPiece.pieceClass == keccak256(abi.encodePacked(\"cypherPunk\"))) && (targetPiece.pieceClass == keccak256(abi.encodePacked(\"kitty\")))) || ((myPiece.pieceClass == keccak256(abi.encodePacked(\"kitty\"))) && (targetPiece.pieceClass == keccak256(abi.encodePacked(\"cypherPunk\"))))) {\r\n            newClass = keccak256(abi.encodePacked(\"cypherKitty\"));\r\n        }\r\n        if (((myPiece.pieceClass == keccak256(abi.encodePacked(\"cypherPunk\"))) && (targetPiece.pieceClass == keccak256(abi.encodePacked(\"boredApe\")))) || ((myPiece.pieceClass == keccak256(abi.encodePacked(\"boredApe\"))) && (targetPiece.pieceClass == keccak256(abi.encodePacked(\"cypherPunk\"))))) {\r\n            newClass = keccak256(abi.encodePacked(\"cypherApe\"));\r\n        }\r\n        if (((myPiece.pieceClass == keccak256(abi.encodePacked(\"kitty\"))) && (targetPiece.pieceClass == keccak256(abi.encodePacked(\"boredApe\")))) || ((myPiece.pieceClass == keccak256(abi.encodePacked(\"boredApe\"))) && (targetPiece.pieceClass == keccak256(abi.encodePacked(\"kitty\"))))) {\r\n            newClass = keccak256(abi.encodePacked(\"kitty\"));\r\n        }\r\n        if (((myPiece.pieceClass == keccak256(abi.encodePacked(\"traveler\"))) && (targetPiece.pieceClass == keccak256(abi.encodePacked(\"traveler\"))))) {\r\n            newClass = keccak256(abi.encodePacked(\"traveler\"));\r\n        }\r\n        if (((myPiece.pieceClass == keccak256(abi.encodePacked(\"kitty\"))) && (targetPiece.pieceClass == keccak256(abi.encodePacked(\"kitty\"))))) {\r\n            newClass = keccak256(abi.encodePacked(\"kitty\"));\r\n        }\r\n        if (((myPiece.pieceClass == keccak256(abi.encodePacked(\"boredApe\"))) && (targetPiece.pieceClass == keccak256(abi.encodePacked(\"boredApe\"))))) {\r\n            newClass = keccak256(abi.encodePacked(\"boredApe\"));\r\n        }\r\n        if (((myPiece.pieceClass == keccak256(abi.encodePacked(\"cypherPunk\"))) && (targetPiece.pieceClass == keccak256(abi.encodePacked(\"cypherPunk\"))))) {\r\n            newClass = keccak256(abi.encodePacked(\"cypherPunk\"));\r\n        }\r\n        else {\r\n            newClass = keccak256(abi.encodePacked(\"newClasses\"));\r\n        }\r\n        uint rand = randMod(100);\r\n        if (rand <= mergeProbability && myPiece.mergeCount <= maxMerge) {\r\n            _createPiece(newClass, _randSex(), newDna);\r\n            _triggerCd(myPiece);\r\n            _triggerCd(targetPiece);\r\n            myPiece.mergeCount = myPiece.mergeCount.add(1);\r\n        } else if (rand > mergeProbability && myPiece.mergeCount <= maxMerge) {\r\n            _triggerCd(myPiece);\r\n            _triggerCd(targetPiece);\r\n            myPiece.mergeCount = myPiece.mergeCount.add(1);\r\n        }\r\n    }\r\n}\r\n",
  "sourcePath": "C:\\Users\\pablo\\PycharmProjects\\LiveAndTravel\\contracts\\piecemerging.sol",
  "compiler": {
    "name": "solc",
    "version": "0.8.10+commit.fc410830.Emscripten.clang"
  },
  "schemaVersion": "3.4.4",
  "updatedAt": "2021-12-30T16:56:21.497Z",
  "devdoc": {
    "kind": "dev",
    "methods": {},
    "version": 1
  },
  "userdoc": {
    "kind": "user",
    "methods": {},
    "version": 1
  }
}