{
  "contractName": "PieceHelper",
  "abi": [
    {
      "anonymous": false,
      "inputs": [
        {
          "indexed": false,
          "internalType": "uint256",
          "name": "pieceId",
          "type": "uint256"
        },
        {
          "indexed": false,
          "internalType": "uint256",
          "name": "pieceDna",
          "type": "uint256"
        },
        {
          "indexed": false,
          "internalType": "bytes32",
          "name": "pieceClass",
          "type": "bytes32"
        },
        {
          "indexed": false,
          "internalType": "uint32",
          "name": "pieceReadyTime",
          "type": "uint32"
        },
        {
          "indexed": false,
          "internalType": "uint256",
          "name": "pieceCreationLoc",
          "type": "uint256"
        },
        {
          "indexed": false,
          "internalType": "uint16",
          "name": "pieceMergeCount",
          "type": "uint16"
        }
      ],
      "name": "NewPiece",
      "type": "event"
    },
    {
      "anonymous": false,
      "inputs": [
        {
          "indexed": true,
          "internalType": "address",
          "name": "previousOwner",
          "type": "address"
        },
        {
          "indexed": true,
          "internalType": "address",
          "name": "newOwner",
          "type": "address"
        }
      ],
      "name": "OwnershipTransferred",
      "type": "event"
    },
    {
      "constant": true,
      "inputs": [],
      "name": "isOwner",
      "outputs": [
        {
          "internalType": "bool",
          "name": "",
          "type": "bool"
        }
      ],
      "payable": false,
      "stateMutability": "view",
      "type": "function"
    },
    {
      "constant": false,
      "inputs": [
        {
          "internalType": "uint256",
          "name": "_pieceId",
          "type": "uint256"
        },
        {
          "internalType": "uint256",
          "name": "_targetPieceId",
          "type": "uint256"
        },
        {
          "internalType": "uint256",
          "name": "_curr_loc",
          "type": "uint256"
        }
      ],
      "name": "merge",
      "outputs": [],
      "payable": true,
      "stateMutability": "payable",
      "type": "function"
    },
    {
      "constant": false,
      "inputs": [
        {
          "internalType": "uint256",
          "name": "_itemId",
          "type": "uint256"
        },
        {
          "internalType": "uint256",
          "name": "_curr_loc",
          "type": "uint256"
        }
      ],
      "name": "migratePantsItem",
      "outputs": [],
      "payable": true,
      "stateMutability": "payable",
      "type": "function"
    },
    {
      "constant": false,
      "inputs": [
        {
          "internalType": "uint256",
          "name": "_itemId",
          "type": "uint256"
        },
        {
          "internalType": "uint256",
          "name": "_curr_loc",
          "type": "uint256"
        }
      ],
      "name": "migrateShirtItem",
      "outputs": [],
      "payable": true,
      "stateMutability": "payable",
      "type": "function"
    },
    {
      "constant": false,
      "inputs": [
        {
          "internalType": "uint256",
          "name": "_itemId",
          "type": "uint256"
        },
        {
          "internalType": "uint256",
          "name": "_curr_loc",
          "type": "uint256"
        }
      ],
      "name": "migrateShoesItem",
      "outputs": [],
      "payable": true,
      "stateMutability": "payable",
      "type": "function"
    },
    {
      "constant": false,
      "inputs": [
        {
          "internalType": "uint256",
          "name": "_itemId",
          "type": "uint256"
        },
        {
          "internalType": "uint256",
          "name": "_curr_loc",
          "type": "uint256"
        }
      ],
      "name": "migrateSnapbackItem",
      "outputs": [],
      "payable": true,
      "stateMutability": "payable",
      "type": "function"
    },
    {
      "constant": false,
      "inputs": [
        {
          "internalType": "uint256",
          "name": "_itemId",
          "type": "uint256"
        },
        {
          "internalType": "uint256",
          "name": "_curr_loc",
          "type": "uint256"
        }
      ],
      "name": "migrateSocksItem",
      "outputs": [],
      "payable": true,
      "stateMutability": "payable",
      "type": "function"
    },
    {
      "constant": false,
      "inputs": [
        {
          "internalType": "uint256",
          "name": "_itemId",
          "type": "uint256"
        },
        {
          "internalType": "uint256",
          "name": "_curr_loc",
          "type": "uint256"
        }
      ],
      "name": "migrateUnderwearItem",
      "outputs": [],
      "payable": true,
      "stateMutability": "payable",
      "type": "function"
    },
    {
      "constant": true,
      "inputs": [],
      "name": "owner",
      "outputs": [
        {
          "internalType": "address",
          "name": "",
          "type": "address"
        }
      ],
      "payable": false,
      "stateMutability": "view",
      "type": "function"
    },
    {
      "constant": true,
      "inputs": [
        {
          "internalType": "uint256",
          "name": "",
          "type": "uint256"
        }
      ],
      "name": "pieceToOwner",
      "outputs": [
        {
          "internalType": "address",
          "name": "",
          "type": "address"
        }
      ],
      "payable": false,
      "stateMutability": "view",
      "type": "function"
    },
    {
      "constant": true,
      "inputs": [
        {
          "internalType": "uint256",
          "name": "",
          "type": "uint256"
        }
      ],
      "name": "pieces",
      "outputs": [
        {
          "internalType": "uint256",
          "name": "pieceDna",
          "type": "uint256"
        },
        {
          "internalType": "bytes32",
          "name": "pieceClass",
          "type": "bytes32"
        },
        {
          "internalType": "uint32",
          "name": "pieceReadyTime",
          "type": "uint32"
        },
        {
          "internalType": "uint256",
          "name": "pieceCreationLoc",
          "type": "uint256"
        },
        {
          "internalType": "uint16",
          "name": "mergeCount",
          "type": "uint16"
        }
      ],
      "payable": false,
      "stateMutability": "view",
      "type": "function"
    },
    {
      "constant": false,
      "inputs": [],
      "name": "renounceOwnership",
      "outputs": [],
      "payable": false,
      "stateMutability": "nonpayable",
      "type": "function"
    },
    {
      "constant": false,
      "inputs": [
        {
          "internalType": "address",
          "name": "_address",
          "type": "address"
        }
      ],
      "name": "setHoodieContractAddress",
      "outputs": [],
      "payable": false,
      "stateMutability": "nonpayable",
      "type": "function"
    },
    {
      "constant": false,
      "inputs": [
        {
          "internalType": "address",
          "name": "_address",
          "type": "address"
        }
      ],
      "name": "setPantsContractAddress",
      "outputs": [],
      "payable": false,
      "stateMutability": "nonpayable",
      "type": "function"
    },
    {
      "constant": false,
      "inputs": [
        {
          "internalType": "address",
          "name": "_address",
          "type": "address"
        }
      ],
      "name": "setShirtContractAddress",
      "outputs": [],
      "payable": false,
      "stateMutability": "nonpayable",
      "type": "function"
    },
    {
      "constant": false,
      "inputs": [
        {
          "internalType": "address",
          "name": "_address",
          "type": "address"
        }
      ],
      "name": "setShoesContractAddress",
      "outputs": [],
      "payable": false,
      "stateMutability": "nonpayable",
      "type": "function"
    },
    {
      "constant": false,
      "inputs": [
        {
          "internalType": "address",
          "name": "_address",
          "type": "address"
        }
      ],
      "name": "setSnapbackContractAddress",
      "outputs": [],
      "payable": false,
      "stateMutability": "nonpayable",
      "type": "function"
    },
    {
      "constant": false,
      "inputs": [
        {
          "internalType": "address",
          "name": "_address",
          "type": "address"
        }
      ],
      "name": "setSocksContractAddress",
      "outputs": [],
      "payable": false,
      "stateMutability": "nonpayable",
      "type": "function"
    },
    {
      "constant": false,
      "inputs": [
        {
          "internalType": "address",
          "name": "_address",
          "type": "address"
        }
      ],
      "name": "setUnderwearContractAddress",
      "outputs": [],
      "payable": false,
      "stateMutability": "nonpayable",
      "type": "function"
    },
    {
      "constant": false,
      "inputs": [
        {
          "internalType": "address",
          "name": "newOwner",
          "type": "address"
        }
      ],
      "name": "transferOwnership",
      "outputs": [],
      "payable": false,
      "stateMutability": "nonpayable",
      "type": "function"
    },
    {
      "constant": false,
      "inputs": [],
      "name": "withdrawPiece",
      "outputs": [],
      "payable": true,
      "stateMutability": "payable",
      "type": "function"
    },
    {
      "constant": false,
      "inputs": [
        {
          "internalType": "uint256",
          "name": "_pieceId",
          "type": "uint256"
        },
        {
          "internalType": "uint256",
          "name": "_newDna",
          "type": "uint256"
        }
      ],
      "name": "changePieceDna",
      "outputs": [],
      "payable": true,
      "stateMutability": "payable",
      "type": "function"
    },
    {
      "constant": true,
      "inputs": [
        {
          "internalType": "address",
          "name": "_owner",
          "type": "address"
        }
      ],
      "name": "getPiecesByOwner",
      "outputs": [
        {
          "internalType": "uint256[]",
          "name": "",
          "type": "uint256[]"
        }
      ],
      "payable": false,
      "stateMutability": "view",
      "type": "function"
    }
  ],
  "bytecode": "0x60806040526010600155600154600a0a600255620151806003556000600755670de0b6b3a7640000600855605f601055600160115567016345785d8a0000601255678ac7230489e80000601355662386f26fc10000601455336000806101000a81548173ffffffffffffffffffffffffffffffffffffffff021916908373ffffffffffffffffffffffffffffffffffffffff1602179055506000809054906101000a900473ffffffffffffffffffffffffffffffffffffffff1673ffffffffffffffffffffffffffffffffffffffff16600073ffffffffffffffffffffffffffffffffffffffff167f8be0079c531659141344cd1fd0a4f28419497f9722a3daafe3b4186f6b6457e060405160405180910390a3612a15806101226000396000f3fe6080604052600436106101405760003560e01c80637f1075a2116100b6578063c78309f51161006f578063c78309f514610619578063cd90cb9814610651578063cfd720ec14610689578063e14d485b146106c1578063f2fde38b14610712578063f56fa8d41461076357610140565b80637f1075a2146104815780638c081f5d1461048b5780638da5cb5b146104dc5780638f32d59b146105335780638f64be3014610562578063bcea8195146105e157610140565b80634f1b3e3e116101085780634f1b3e3e146102fd5780635a2e4bd91461034e5780636c492f3d14610390578063715018a6146103e15780637a43061f146103f85780637be418141461043057610140565b80631507a33114610145578063241ec36d1461017d57806327f1a4f3146101ce5780633ba1d9441461021f5780634720833f146102c5575b600080fd5b61017b6004803603604081101561015b57600080fd5b8101908080359060200190929190803590602001909291905050506107de565b005b34801561018957600080fd5b506101cc600480360360208110156101a057600080fd5b81019080803573ffffffffffffffffffffffffffffffffffffffff169060200190929190505050610967565b005b3480156101da57600080fd5b5061021d600480360360208110156101f157600080fd5b81019080803573ffffffffffffffffffffffffffffffffffffffff1690602001909291905050506109bc565b005b34801561022b57600080fd5b5061026e6004803603602081101561024257600080fd5b81019080803573ffffffffffffffffffffffffffffffffffffffff169060200190929190505050610a11565b6040518080602001828103825283818151815260200191508051906020019060200280838360005b838110156102b1578082015181840152602081019050610296565b505050509050019250505060405180910390f35b6102fb600480360360408110156102db57600080fd5b810190808035906020019092919080359060200190929190505050610b3e565b005b34801561030957600080fd5b5061034c6004803603602081101561032057600080fd5b81019080803573ffffffffffffffffffffffffffffffffffffffff169060200190929190505050610cc7565b005b61038e6004803603606081101561036457600080fd5b81019080803590602001909291908035906020019092919080359060200190929190505050610d1c565b005b34801561039c57600080fd5b506103df600480360360208110156103b357600080fd5b81019080803573ffffffffffffffffffffffffffffffffffffffff169060200190929190505050611af9565b005b3480156103ed57600080fd5b506103f6611b4e565b005b61042e6004803603604081101561040e57600080fd5b810190808035906020019092919080359060200190929190505050611c1e565b005b34801561043c57600080fd5b5061047f6004803603602081101561045357600080fd5b81019080803573ffffffffffffffffffffffffffffffffffffffff169060200190929190505050611da7565b005b610489611dfc565b005b34801561049757600080fd5b506104da600480360360208110156104ae57600080fd5b81019080803573ffffffffffffffffffffffffffffffffffffffff169060200190929190505050611e71565b005b3480156104e857600080fd5b506104f1611ec6565b604051808273ffffffffffffffffffffffffffffffffffffffff1673ffffffffffffffffffffffffffffffffffffffff16815260200191505060405180910390f35b34801561053f57600080fd5b50610548611eef565b604051808215151515815260200191505060405180910390f35b34801561056e57600080fd5b5061059b6004803603602081101561058557600080fd5b8101908080359060200190929190505050611f46565b604051808681526020018581526020018463ffffffff1663ffffffff1681526020018381526020018261ffff1661ffff1681526020019550505050505060405180910390f35b610617600480360360408110156105f757600080fd5b810190808035906020019092919080359060200190929190505050611fa7565b005b61064f6004803603604081101561062f57600080fd5b810190808035906020019092919080359060200190929190505050612049565b005b6106876004803603604081101561066757600080fd5b8101908080359060200190929190803590602001909291905050506121d2565b005b6106bf6004803603604081101561069f57600080fd5b81019080803590602001909291908035906020019092919050505061235b565b005b3480156106cd57600080fd5b50610710600480360360208110156106e457600080fd5b81019080803573ffffffffffffffffffffffffffffffffffffffff1690602001909291905050506124e4565b005b34801561071e57600080fd5b506107616004803603602081101561073557600080fd5b81019080803573ffffffffffffffffffffffffffffffffffffffff169060200190929190505050612539565b005b34801561076f57600080fd5b5061079c6004803603602081101561078657600080fd5b8101908080359060200190929190505050612556565b604051808273ffffffffffffffffffffffffffffffffffffffff1673ffffffffffffffffffffffffffffffffffffffff16815260200191505060405180910390f35b60085434146107ec57600080fd5b600060405160200180807f50616e747300000000000000000000000000000000000000000000000000000081525060050190506040516020818303038152906040528051906020012090506000600b60009054906101000a900473ffffffffffffffffffffffffffffffffffffffff1673ffffffffffffffffffffffffffffffffffffffff16634337932d856040518263ffffffff1660e01b8152600401808281526020019150506101006040518083038186803b1580156108ad57600080fd5b505afa1580156108c1573d6000803e3d6000fd5b505050506040513d6101008110156108d857600080fd5b810190808051906020019092919080519060200190929190805190602001909291908051906020019092919080519060200190929190805190602001909291908051906020019092919080519060200190929190505050909192939495965090919293949550909192939450909192935090919250909150905080915050610961828285612589565b50505050565b61096f611eef565b61097857600080fd5b80600b60006101000a81548173ffffffffffffffffffffffffffffffffffffffff021916908373ffffffffffffffffffffffffffffffffffffffff16021790555050565b6109c4611eef565b6109cd57600080fd5b80600c60006101000a81548173ffffffffffffffffffffffffffffffffffffffff021916908373ffffffffffffffffffffffffffffffffffffffff16021790555050565b606080600660008473ffffffffffffffffffffffffffffffffffffffff1673ffffffffffffffffffffffffffffffffffffffff16815260200190815260200160002054604051908082528060200260200182016040528015610a825781602001602082028038833980820191505090505b509050600080905060008090505b600480549050811015610b33578473ffffffffffffffffffffffffffffffffffffffff166005600083815260200190815260200160002060009054906101000a900473ffffffffffffffffffffffffffffffffffffffff1673ffffffffffffffffffffffffffffffffffffffff161415610b265780838381518110610b1157fe5b60200260200101818152505081806001019250505b8080600101915050610a90565b508192505050919050565b6008543414610b4c57600080fd5b600060405160200180807f536869727400000000000000000000000000000000000000000000000000000081525060050190506040516020818303038152906040528051906020012090506000600d60009054906101000a900473ffffffffffffffffffffffffffffffffffffffff1673ffffffffffffffffffffffffffffffffffffffff16634c9c05ea856040518263ffffffff1660e01b8152600401808281526020019150506101006040518083038186803b158015610c0d57600080fd5b505afa158015610c21573d6000803e3d6000fd5b505050506040513d610100811015610c3857600080fd5b810190808051906020019092919080519060200190929190805190602001909291908051906020019092919080519060200190929190805190602001909291908051906020019092919080519060200190929190505050909192939495965090919293949550909192939450909192935090919250909150905080915050610cc1828285612589565b50505050565b610ccf611eef565b610cd857600080fd5b80600f60006101000a81548173ffffffffffffffffffffffffffffffffffffffff021916908373ffffffffffffffffffffffffffffffffffffffff16021790555050565b826005600082815260200190815260200160002060009054906101000a900473ffffffffffffffffffffffffffffffffffffffff1673ffffffffffffffffffffffffffffffffffffffff163373ffffffffffffffffffffffffffffffffffffffff1614610d8857600080fd5b826005600082815260200190815260200160002060009054906101000a900473ffffffffffffffffffffffffffffffffffffffff1673ffffffffffffffffffffffffffffffffffffffff163373ffffffffffffffffffffffffffffffffffffffff1614610df457600080fd5b600060048681548110610e0357fe5b90600052602060002090600502019050600060048681548110610e2257fe5b90600052602060002090600502019050610e3b826127c8565b610e4457600080fd5b610e4d816127c8565b610e5657600080fd5b6012543414610e6457600080fd5b60006002826000015484600001540181610e7a57fe5b049050600060405160200180807f53686f65730000000000000000000000000000000000000000000000000000008152506005019050604051602081830303815290604052805190602001208460010154148015610f2d5750826001015460405160200180807f54726176656c205061696e747300000000000000000000000000000000000000815250600d01828152602001915050604051602081830303815290604052805190602001208360010154145b80610fd6575060405160200180807f54726176656c205061696e747300000000000000000000000000000000000000815250600d019050604051602081830303815290604052805190602001208460010154148015610fd5575060405160200180807f53686f65730000000000000000000000000000000000000000000000000000008152506005019050604051602081830303815290604052805190602001208360010154145b5b156110255760405160200180807f5061696e7465642053686f657300000000000000000000000000000000000000815250600d0190506040516020818303038152906040528051906020012090505b60405160200180807f536f636b7300000000000000000000000000000000000000000000000000000081525060050190506040516020818303038152906040528051906020012084600101541480156110d35750826001015460405160200180807f54726176656c205061696e747300000000000000000000000000000000000000815250600d01828152602001915050604051602081830303815290604052805190602001208360010154145b8061117c575060405160200180807f54726176656c205061696e747300000000000000000000000000000000000000815250600d01905060405160208183030381529060405280519060200120846001015414801561117b575060405160200180807f536f636b730000000000000000000000000000000000000000000000000000008152506005019050604051602081830303815290604052805190602001208360010154145b5b156111cb5760405160200180807f5061696e74656420536f636b7300000000000000000000000000000000000000815250600d0190506040516020818303038152906040528051906020012090505b60405160200180807f50616e747300000000000000000000000000000000000000000000000000000081525060050190506040516020818303038152906040528051906020012084600101541480156112795750826001015460405160200180807f54726176656c205061696e747300000000000000000000000000000000000000815250600d01828152602001915050604051602081830303815290604052805190602001208360010154145b80611322575060405160200180807f54726176656c205061696e747300000000000000000000000000000000000000815250600d019050604051602081830303815290604052805190602001208460010154148015611321575060405160200180807f50616e74730000000000000000000000000000000000000000000000000000008152506005019050604051602081830303815290604052805190602001208360010154145b5b156113715760405160200180807f5061696e7465642050616e747300000000000000000000000000000000000000815250600d0190506040516020818303038152906040528051906020012090505b60405160200180807f556e646572776561720000000000000000000000000000000000000000000000815250600901905060405160208183030381529060405280519060200120846001015414801561141f5750826001015460405160200180807f54726176656c205061696e747300000000000000000000000000000000000000815250600d01828152602001915050604051602081830303815290604052805190602001208360010154145b806114c8575060405160200180807f54726176656c205061696e747300000000000000000000000000000000000000815250600d0190506040516020818303038152906040528051906020012084600101541480156114c7575060405160200180807f556e6465727765617200000000000000000000000000000000000000000000008152506009019050604051602081830303815290604052805190602001208360010154145b5b156115175760405160200180807f5061696e74656420556e6465727765617200000000000000000000000000000081525060110190506040516020818303038152906040528051906020012090505b60405160200180807f536869727400000000000000000000000000000000000000000000000000000081525060050190506040516020818303038152906040528051906020012084600101541480156115c55750826001015460405160200180807f54726176656c205061696e747300000000000000000000000000000000000000815250600d01828152602001915050604051602081830303815290604052805190602001208360010154145b8061166e575060405160200180807f54726176656c205061696e747300000000000000000000000000000000000000815250600d01905060405160208183030381529060405280519060200120846001015414801561166d575060405160200180807f53686972740000000000000000000000000000000000000000000000000000008152506005019050604051602081830303815290604052805190602001208360010154145b5b156116bd5760405160200180807f5061696e74656420536869727400000000000000000000000000000000000000815250600d0190506040516020818303038152906040528051906020012090505b60405160200180807f486f6f6469650000000000000000000000000000000000000000000000000000815250600601905060405160208183030381529060405280519060200120846001015414801561176b5750826001015460405160200180807f54726176656c205061696e747300000000000000000000000000000000000000815250600d01828152602001915050604051602081830303815290604052805190602001208360010154145b80611814575060405160200180807f54726176656c205061696e747300000000000000000000000000000000000000815250600d019050604051602081830303815290604052805190602001208460010154148015611813575060405160200180807f486f6f64696500000000000000000000000000000000000000000000000000008152506006019050604051602081830303815290604052805190602001208360010154145b5b156118635760405160200180807f5061696e74656420486f6f646965000000000000000000000000000000000000815250600e0190506040516020818303038152906040528051906020012090505b60405160200180807f536e61706261636b00000000000000000000000000000000000000000000000081525060080190506040516020818303038152906040528051906020012084600101541480156119115750826001015460405160200180807f54726176656c205061696e747300000000000000000000000000000000000000815250600d01828152602001915050604051602081830303815290604052805190602001208360010154145b806119ba575060405160200180807f54726176656c205061696e747300000000000000000000000000000000000000815250600d0190506040516020818303038152906040528051906020012084600101541480156119b9575060405160200180807f536e61706261636b0000000000000000000000000000000000000000000000008152506008019050604051602081830303815290604052805190602001208360010154145b5b15611a095760405160200180807f5061696e74656420536e61706261636b0000000000000000000000000000000081525060100190506040516020818303038152906040528051906020012090505b6000611a1560646127ef565b90506010548111158015611a4157506011548560040160009054906101000a900461ffff1661ffff1611155b15611aac57611a5182848a612589565b611a5a8561287e565b611a638461287e565b611a8d60018660040160009054906101000a900461ffff1661ffff166128a890919063ffffffff16565b8560040160006101000a81548161ffff021916908361ffff1602179055505b60105481118015611ad557506011548560040160009054906101000a900461ffff1661ffff1611155b15611aed57611ae38561287e565b611aec8461287e565b5b50505050505050505050565b611b01611eef565b611b0a57600080fd5b80600a60006101000a81548173ffffffffffffffffffffffffffffffffffffffff021916908373ffffffffffffffffffffffffffffffffffffffff16021790555050565b611b56611eef565b611b5f57600080fd5b600073ffffffffffffffffffffffffffffffffffffffff166000809054906101000a900473ffffffffffffffffffffffffffffffffffffffff1673ffffffffffffffffffffffffffffffffffffffff167f8be0079c531659141344cd1fd0a4f28419497f9722a3daafe3b4186f6b6457e060405160405180910390a360008060006101000a81548173ffffffffffffffffffffffffffffffffffffffff021916908373ffffffffffffffffffffffffffffffffffffffff160217905550565b6008543414611c2c57600080fd5b600060405160200180807f536e61706261636b00000000000000000000000000000000000000000000000081525060080190506040516020818303038152906040528051906020012090506000600d60009054906101000a900473ffffffffffffffffffffffffffffffffffffffff1673ffffffffffffffffffffffffffffffffffffffff16634c9c05ea856040518263ffffffff1660e01b8152600401808281526020019150506101006040518083038186803b158015611ced57600080fd5b505afa158015611d01573d6000803e3d6000fd5b505050506040513d610100811015611d1857600080fd5b810190808051906020019092919080519060200190929190805190602001909291908051906020019092919080519060200190929190805190602001909291908051906020019092919080519060200190929190505050909192939495965090919293949550909192939450909192935090919250909150905080915050611da1828285612589565b50505050565b611daf611eef565b611db857600080fd5b80600d60006101000a81548173ffffffffffffffffffffffffffffffffffffffff021916908373ffffffffffffffffffffffffffffffffffffffff16021790555050565b611e04611eef565b611e0d57600080fd5b6014543414611e1b57600080fd5b6000611e25611ec6565b90508073ffffffffffffffffffffffffffffffffffffffff166108fc479081150290604051600060405180830381858888f19350505050158015611e6d573d6000803e3d6000fd5b5050565b611e79611eef565b611e8257600080fd5b80600960006101000a81548173ffffffffffffffffffffffffffffffffffffffff021916908373ffffffffffffffffffffffffffffffffffffffff16021790555050565b60008060009054906101000a900473ffffffffffffffffffffffffffffffffffffffff16905090565b60008060009054906101000a900473ffffffffffffffffffffffffffffffffffffffff1673ffffffffffffffffffffffffffffffffffffffff163373ffffffffffffffffffffffffffffffffffffffff1614905090565b60048181548110611f5357fe5b90600052602060002090600502016000915090508060000154908060010154908060020160009054906101000a900463ffffffff16908060030154908060040160009054906101000a900461ffff16905085565b816005600082815260200190815260200160002060009054906101000a900473ffffffffffffffffffffffffffffffffffffffff1673ffffffffffffffffffffffffffffffffffffffff163373ffffffffffffffffffffffffffffffffffffffff161461201357600080fd5b601354341461202157600080fd5b816004848154811061202f57fe5b906000526020600020906005020160000181905550505050565b600854341461205757600080fd5b600060405160200180807f53686f657300000000000000000000000000000000000000000000000000000081525060050190506040516020818303038152906040528051906020012090506000600960009054906101000a900473ffffffffffffffffffffffffffffffffffffffff1673ffffffffffffffffffffffffffffffffffffffff1663a5f23e1d856040518263ffffffff1660e01b8152600401808281526020019150506101006040518083038186803b15801561211857600080fd5b505afa15801561212c573d6000803e3d6000fd5b505050506040513d61010081101561214357600080fd5b8101908080519060200190929190805190602001909291908051906020019092919080519060200190929190805190602001909291908051906020019092919080519060200190929190805190602001909291905050509091929394959650909192939495509091929394509091929350909192509091509050809150506121cc828285612589565b50505050565b60085434146121e057600080fd5b600060405160200180807f556e64657277656172000000000000000000000000000000000000000000000081525060090190506040516020818303038152906040528051906020012090506000600c60009054906101000a900473ffffffffffffffffffffffffffffffffffffffff1673ffffffffffffffffffffffffffffffffffffffff166325f76202856040518263ffffffff1660e01b8152600401808281526020019150506101006040518083038186803b1580156122a157600080fd5b505afa1580156122b5573d6000803e3d6000fd5b505050506040513d6101008110156122cc57600080fd5b810190808051906020019092919080519060200190929190805190602001909291908051906020019092919080519060200190929190805190602001909291908051906020019092919080519060200190929190505050909192939495965090919293949550909192939450909192935090919250909150905080915050612355828285612589565b50505050565b600854341461236957600080fd5b600060405160200180807f536f636b7300000000000000000000000000000000000000000000000000000081525060050190506040516020818303038152906040528051906020012090506000600a60009054906101000a900473ffffffffffffffffffffffffffffffffffffffff1673ffffffffffffffffffffffffffffffffffffffff1663ee5394de856040518263ffffffff1660e01b8152600401808281526020019150506101006040518083038186803b15801561242a57600080fd5b505afa15801561243e573d6000803e3d6000fd5b505050506040513d61010081101561245557600080fd5b8101908080519060200190929190805190602001909291908051906020019092919080519060200190929190805190602001909291908051906020019092919080519060200190929190805190602001909291905050509091929394959650909192939495509091929394509091929350909192509091509050809150506124de828285612589565b50505050565b6124ec611eef565b6124f557600080fd5b80600e60006101000a81548173ffffffffffffffffffffffffffffffffffffffff021916908373ffffffffffffffffffffffffffffffffffffffff16021790555050565b612541611eef565b61254a57600080fd5b612553816128cc565b50565b60056020528060005260406000206000915054906101000a900473ffffffffffffffffffffffffffffffffffffffff1681565b60006003544201905060046040518060a001604052808581526020018681526020018363ffffffff168152602001848152602001600061ffff1681525090806001815401808255809150509060018203906000526020600020906005020160009091929091909150600082015181600001556020820151816001015560408201518160020160006101000a81548163ffffffff021916908363ffffffff1602179055506060820151816003015560808201518160040160006101000a81548161ffff021916908361ffff16021790555050505060006001600480549050039050336005600083815260200190815260200160002060006101000a81548173ffffffffffffffffffffffffffffffffffffffff021916908373ffffffffffffffffffffffffffffffffffffffff16021790555061270e6001600660003373ffffffffffffffffffffffffffffffffffffffff1673ffffffffffffffffffffffffffffffffffffffff168152602001908152602001600020546129c490919063ffffffff16565b600660003373ffffffffffffffffffffffffffffffffffffffff1673ffffffffffffffffffffffffffffffffffffffff168152602001908152602001600020819055507f5ad354523f49f6a431c943b15028530250f3c9c42deb03b1bc586d7698af018881858785876000604051808781526020018681526020018581526020018463ffffffff1663ffffffff1681526020018381526020018261ffff168152602001965050505050505060405180910390a15050505050565b6000428260020160009054906101000a900463ffffffff1663ffffffff1611159050919050565b6000600760008154809291906001019190505550814233600754604051602001808481526020018373ffffffffffffffffffffffffffffffffffffffff1673ffffffffffffffffffffffffffffffffffffffff1660601b815260140182815260200193505050506040516020818303038152906040528051906020012060001c8161287657fe5b069050919050565b60035442018160020160006101000a81548163ffffffff021916908363ffffffff16021790555050565b60008082840190508361ffff168161ffff1610156128c257fe5b8091505092915050565b600073ffffffffffffffffffffffffffffffffffffffff168173ffffffffffffffffffffffffffffffffffffffff16141561290657600080fd5b8073ffffffffffffffffffffffffffffffffffffffff166000809054906101000a900473ffffffffffffffffffffffffffffffffffffffff1673ffffffffffffffffffffffffffffffffffffffff167f8be0079c531659141344cd1fd0a4f28419497f9722a3daafe3b4186f6b6457e060405160405180910390a3806000806101000a81548173ffffffffffffffffffffffffffffffffffffffff021916908373ffffffffffffffffffffffffffffffffffffffff16021790555050565b6000808284019050838110156129d657fe5b809150509291505056fea265627a7a7231582094e6ef36b8365b414d0462ac94d8b49b6c9a6dc135d3bb7839d5459728182a9664736f6c63430005100032",
  "source": "// SPDX-License-Identifier: MIT\r\npragma solidity >=0.4.22 <0.9.0;\r\n\r\nimport \"./piecemerging.sol\";\r\n\r\ncontract PieceHelper is PieceMerging {\r\n\r\n  uint changePieceDnaFee = 10 ether;\r\n  uint withdrawPieceFee = 0.01 ether;\r\n\r\n  function withdrawPiece() external payable onlyOwner {\r\n    require(msg.value == withdrawPieceFee);\r\n    address payable _owner = address(uint160(owner()));\r\n    _owner.transfer(address(this).balance);\r\n  }\r\n\r\n  function changePieceDna(uint _pieceId, uint _newDna) external payable onlyOwnerOfPiece(_pieceId) {\r\n    require(msg.value == changePieceDnaFee);\r\n    pieces[_pieceId].pieceDna = _newDna;\r\n  }\r\n\r\n  function getPiecesByOwner(address _owner) external view returns(uint[] memory) {\r\n    uint[] memory result = new uint[](ownerPieceCount[_owner]);\r\n    uint counter = 0;\r\n    for (uint i = 0; i < pieces.length; i++) {\r\n      if (pieceToOwner[i] == _owner) {\r\n        result[counter] = i;\r\n        counter++;\r\n      }\r\n    }\r\n    return result;\r\n  }\r\n\r\n  function _firstHomeSetRewards(uint256 _curr_loc) internal {\r\n      _createUnderwear(_curr_loc);\r\n      _createSocks(_curr_loc);\r\n      }\r\n\r\n  function _firstWorkPlaceSetRewards(uint256 _curr_loc) internal {\r\n      _createShirt(_curr_loc);\r\n      _createPants(_curr_loc);\r\n      _createShoes(_curr_loc);\r\n      }\r\n\r\n  function _createTravelGift(uint256 _ini_loc, uint256 _end_loc) internal {\r\n     uint rand = randPieceMod(100);\r\n     if (rand < 50) {\r\n         _createTravelPaint(_ini_loc, _end_loc);\r\n     } else if (rand < 75) {\r\n         _createTravelItem(_ini_loc, _end_loc);\r\n     } else {\r\n         _createTravelCoupon(_ini_loc, _end_loc);\r\n     }\r\n  }\r\n}",
  "sourcePath": "C:\\Users\\pablo\\PycharmProjects\\LiveAndTravel\\contracts\\piecehelper.sol",
  "compiler": {
    "name": "solc",
    "version": "0.5.16+commit.9c3226ce.Emscripten.clang"
  },
  "schemaVersion": "3.4.4",
  "updatedAt": "2022-01-17T17:37:50.264Z",
  "devdoc": {
    "methods": {}
  },
  "userdoc": {
    "methods": {}
  }
}