{
  "contractName": "PieceHelper",
  "abi": [
    {
      "anonymous": false,
      "inputs": [
        {
          "indexed": false,
          "internalType": "uint256",
          "name": "pieceId",
          "type": "uint256"
        },
        {
          "indexed": false,
          "internalType": "uint256",
          "name": "pieceDna",
          "type": "uint256"
        },
        {
          "indexed": false,
          "internalType": "string",
          "name": "pieceName",
          "type": "string"
        },
        {
          "indexed": false,
          "internalType": "string",
          "name": "pieceSex",
          "type": "string"
        },
        {
          "indexed": false,
          "internalType": "bytes32",
          "name": "pieceClass",
          "type": "bytes32"
        },
        {
          "indexed": false,
          "internalType": "uint32",
          "name": "pieceReadyTime",
          "type": "uint32"
        },
        {
          "indexed": false,
          "internalType": "uint16",
          "name": "pieceLevel",
          "type": "uint16"
        },
        {
          "indexed": false,
          "internalType": "uint16",
          "name": "pieceLuck",
          "type": "uint16"
        },
        {
          "indexed": false,
          "internalType": "uint16",
          "name": "pieceInt",
          "type": "uint16"
        },
        {
          "indexed": false,
          "internalType": "uint16",
          "name": "pieceAgi",
          "type": "uint16"
        },
        {
          "indexed": false,
          "internalType": "uint16",
          "name": "pieceStr",
          "type": "uint16"
        },
        {
          "indexed": false,
          "internalType": "uint16",
          "name": "pieceSta",
          "type": "uint16"
        },
        {
          "indexed": false,
          "internalType": "uint16",
          "name": "pieceMergeCount",
          "type": "uint16"
        }
      ],
      "name": "NewPiece",
      "type": "event"
    },
    {
      "anonymous": false,
      "inputs": [
        {
          "indexed": true,
          "internalType": "address",
          "name": "previousOwner",
          "type": "address"
        },
        {
          "indexed": true,
          "internalType": "address",
          "name": "newOwner",
          "type": "address"
        }
      ],
      "name": "OwnershipTransferred",
      "type": "event"
    },
    {
      "inputs": [
        {
          "internalType": "string",
          "name": "_name",
          "type": "string"
        },
        {
          "internalType": "string",
          "name": "_sex",
          "type": "string"
        }
      ],
      "name": "createRandomPiece",
      "outputs": [],
      "stateMutability": "payable",
      "type": "function"
    },
    {
      "inputs": [],
      "name": "isOwner",
      "outputs": [
        {
          "internalType": "bool",
          "name": "",
          "type": "bool"
        }
      ],
      "stateMutability": "view",
      "type": "function"
    },
    {
      "inputs": [
        {
          "internalType": "uint256",
          "name": "_pieceId",
          "type": "uint256"
        },
        {
          "internalType": "uint256",
          "name": "_targetPieceId",
          "type": "uint256"
        }
      ],
      "name": "merge",
      "outputs": [],
      "stateMutability": "payable",
      "type": "function"
    },
    {
      "inputs": [
        {
          "internalType": "uint256",
          "name": "_boredApeId",
          "type": "uint256"
        }
      ],
      "name": "migrateBoredApe2",
      "outputs": [],
      "stateMutability": "payable",
      "type": "function"
    },
    {
      "inputs": [
        {
          "internalType": "uint256",
          "name": "_cypherPunkId",
          "type": "uint256"
        }
      ],
      "name": "migrateCypherPunk2",
      "outputs": [],
      "stateMutability": "payable",
      "type": "function"
    },
    {
      "inputs": [
        {
          "internalType": "uint256",
          "name": "_kittyId",
          "type": "uint256"
        }
      ],
      "name": "migrateKitty2",
      "outputs": [],
      "stateMutability": "payable",
      "type": "function"
    },
    {
      "inputs": [],
      "name": "owner",
      "outputs": [
        {
          "internalType": "address",
          "name": "",
          "type": "address"
        }
      ],
      "stateMutability": "view",
      "type": "function"
    },
    {
      "inputs": [
        {
          "internalType": "uint256",
          "name": "",
          "type": "uint256"
        }
      ],
      "name": "pieceToOwner",
      "outputs": [
        {
          "internalType": "address",
          "name": "",
          "type": "address"
        }
      ],
      "stateMutability": "view",
      "type": "function"
    },
    {
      "inputs": [
        {
          "internalType": "uint256",
          "name": "",
          "type": "uint256"
        }
      ],
      "name": "pieces",
      "outputs": [
        {
          "internalType": "uint256",
          "name": "pieceDna",
          "type": "uint256"
        },
        {
          "internalType": "string",
          "name": "pieceName",
          "type": "string"
        },
        {
          "internalType": "string",
          "name": "pieceSex",
          "type": "string"
        },
        {
          "internalType": "bytes32",
          "name": "pieceClass",
          "type": "bytes32"
        },
        {
          "internalType": "uint32",
          "name": "pieceReadyTime",
          "type": "uint32"
        },
        {
          "internalType": "uint16",
          "name": "pieceLevel",
          "type": "uint16"
        },
        {
          "internalType": "uint16",
          "name": "pieceLuck",
          "type": "uint16"
        },
        {
          "internalType": "uint16",
          "name": "pieceIntellect",
          "type": "uint16"
        },
        {
          "internalType": "uint16",
          "name": "pieceAgility",
          "type": "uint16"
        },
        {
          "internalType": "uint16",
          "name": "pieceStrength",
          "type": "uint16"
        },
        {
          "internalType": "uint16",
          "name": "pieceStamina",
          "type": "uint16"
        },
        {
          "internalType": "uint16",
          "name": "mergeCount",
          "type": "uint16"
        }
      ],
      "stateMutability": "view",
      "type": "function"
    },
    {
      "inputs": [],
      "name": "renounceOwnership",
      "outputs": [],
      "stateMutability": "nonpayable",
      "type": "function"
    },
    {
      "inputs": [
        {
          "internalType": "address",
          "name": "_address",
          "type": "address"
        }
      ],
      "name": "setBoredApeContractAddress2",
      "outputs": [],
      "stateMutability": "nonpayable",
      "type": "function"
    },
    {
      "inputs": [
        {
          "internalType": "address",
          "name": "_address",
          "type": "address"
        }
      ],
      "name": "setCypherPunkContractAddress2",
      "outputs": [],
      "stateMutability": "nonpayable",
      "type": "function"
    },
    {
      "inputs": [
        {
          "internalType": "address",
          "name": "_address",
          "type": "address"
        }
      ],
      "name": "setKittyContractAddress2",
      "outputs": [],
      "stateMutability": "nonpayable",
      "type": "function"
    },
    {
      "inputs": [
        {
          "internalType": "address",
          "name": "newOwner",
          "type": "address"
        }
      ],
      "name": "transferOwnership",
      "outputs": [],
      "stateMutability": "nonpayable",
      "type": "function"
    },
    {
      "inputs": [],
      "name": "withdrawPiece",
      "outputs": [],
      "stateMutability": "payable",
      "type": "function"
    },
    {
      "inputs": [
        {
          "internalType": "uint256",
          "name": "_pieceId",
          "type": "uint256"
        },
        {
          "internalType": "string",
          "name": "_newName",
          "type": "string"
        }
      ],
      "name": "changePieceName",
      "outputs": [],
      "stateMutability": "payable",
      "type": "function"
    },
    {
      "inputs": [
        {
          "internalType": "uint256",
          "name": "_pieceId",
          "type": "uint256"
        },
        {
          "internalType": "uint256",
          "name": "_newDna",
          "type": "uint256"
        }
      ],
      "name": "changePieceDna",
      "outputs": [],
      "stateMutability": "payable",
      "type": "function"
    },
    {
      "inputs": [
        {
          "internalType": "address",
          "name": "_owner",
          "type": "address"
        }
      ],
      "name": "getPiecesByOwner",
      "outputs": [
        {
          "internalType": "uint256[]",
          "name": "",
          "type": "uint256[]"
        }
      ],
      "stateMutability": "view",
      "type": "function"
    }
  ],
  "bytecode": "0x60806040526010600155600154600a6200001a9190620002ca565b60025562015180600355670de0b6b3a76400006007556000600855605a600c556007600d55670de0b6b3a7640000600e5567016345785d8a0000600f55678ac7230489e80000601055662386f26fc100006011553480156200007b57600080fd5b50336000806101000a81548173ffffffffffffffffffffffffffffffffffffffff021916908373ffffffffffffffffffffffffffffffffffffffff16021790555060008054906101000a900473ffffffffffffffffffffffffffffffffffffffff1673ffffffffffffffffffffffffffffffffffffffff16600073ffffffffffffffffffffffffffffffffffffffff167f8be0079c531659141344cd1fd0a4f28419497f9722a3daafe3b4186f6b6457e060405160405180910390a36200031b565b7f4e487b7100000000000000000000000000000000000000000000000000000000600052601160045260246000fd5b60008160011c9050919050565b6000808291508390505b6001851115620001cb57808604811115620001a357620001a26200013d565b5b6001851615620001b35780820291505b8081029050620001c3856200016c565b945062000183565b94509492505050565b600082620001e65760019050620002b9565b81620001f65760009050620002b9565b81600181146200020f57600281146200021a5762000250565b6001915050620002b9565b60ff8411156200022f576200022e6200013d565b5b8360020a9150848211156200024957620002486200013d565b5b50620002b9565b5060208310610133831016604e8410600b84101617156200028a5782820a9050838111156200028457620002836200013d565b5b620002b9565b62000299848484600162000179565b92509050818404811115620002b357620002b26200013d565b5b81810290505b9392505050565b6000819050919050565b6000620002d782620002c0565b9150620002e483620002c0565b9250620003137fffffffffffffffffffffffffffffffffffffffffffffffffffffffffffffffff8484620001d4565b905092915050565b6133c9806200032b6000396000f3fe6080604052600436106101095760003560e01c80638f64be3011610095578063d1c2babb11610064578063d1c2babb146102e8578063e972150914610304578063f2fde38b1461032d578063f56fa8d414610356578063f5d976d11461039357610109565b80638f64be301461023f578063a123663d14610287578063bcea8195146102b0578063be8deaa7146102cc57610109565b8063715018a6116100dc578063715018a6146101ac5780637f1075a2146101c35780638715404d146101cd5780638da5cb5b146101e95780638f32d59b1461021457610109565b80632415a3131461010e5780633ba1d944146101375780633f2760f7146101745780636d86604e14610190575b600080fd5b34801561011a57600080fd5b5061013560048036038101906101309190612328565b6103af565b005b34801561014357600080fd5b5061015e60048036038101906101599190612328565b610404565b60405161016b919061241d565b60405180910390f35b61018e600480360381019061018991906124d0565b610557565b005b6101aa60048036038101906101a59190612671565b610655565b005b3480156101b857600080fd5b506101c1610710565b005b6101cb6107df565b005b6101e760048036038101906101e291906126e9565b610854565b005b3480156101f557600080fd5b506101fe610981565b60405161020b9190612725565b60405180910390f35b34801561022057600080fd5b506102296109aa565b604051610236919061275b565b60405180910390f35b34801561024b57600080fd5b50610266600480360381019061026191906126e9565b610a01565b60405161027e9c9b9a99989796959493929190612862565b60405180910390f35b34801561029357600080fd5b506102ae60048036038101906102a99190612328565b610bf3565b005b6102ca60048036038101906102c5919061292a565b610c48565b005b6102e660048036038101906102e191906126e9565b610d3a565b005b61030260048036038101906102fd919061292a565b610e67565b005b34801561031057600080fd5b5061032b60048036038101906103269190612328565b61191e565b005b34801561033957600080fd5b50610354600480360381019061034f9190612328565b611973565b005b34801561036257600080fd5b5061037d600480360381019061037891906126e9565b611990565b60405161038a9190612725565b60405180910390f35b6103ad60048036038101906103a891906126e9565b6119c3565b005b6103b76109aa565b6103c057600080fd5b80600b60006101000a81548173ffffffffffffffffffffffffffffffffffffffff021916908373ffffffffffffffffffffffffffffffffffffffff16021790555050565b60606000600660008473ffffffffffffffffffffffffffffffffffffffff1673ffffffffffffffffffffffffffffffffffffffff1681526020019081526020016000205467ffffffffffffffff81111561046157610460612546565b5b60405190808252806020026020018201604052801561048f5781602001602082028036833780820191505090505b5090506000805b60048054905081101561054c578473ffffffffffffffffffffffffffffffffffffffff166005600083815260200190815260200160002060009054906101000a900473ffffffffffffffffffffffffffffffffffffffff1673ffffffffffffffffffffffffffffffffffffffff161415610539578083838151811061051e5761051d61296a565b5b6020026020010181815250508180610535906129c8565b9250505b8080610544906129c8565b915050610496565b508192505050919050565b600283816004828154811061056f5761056e61296a565b5b906000526020600020906005020160040160049054906101000a900461ffff1661ffff16101561059e57600080fd5b846005600082815260200190815260200160002060009054906101000a900473ffffffffffffffffffffffffffffffffffffffff1673ffffffffffffffffffffffffffffffffffffffff163373ffffffffffffffffffffffffffffffffffffffff161461060a57600080fd5b600f54341461061857600080fd5b84846004888154811061062e5761062d61296a565b5b9060005260206000209060050201600101919061064c92919061218d565b50505050505050565b600754341461066357600080fd5b6000600660003373ffffffffffffffffffffffffffffffffffffffff1673ffffffffffffffffffffffffffffffffffffffff16815260200190815260200160002054146106af57600080fd5b60006040516020016106c090612a68565b60405160208183030381529060405280519060200120905060006106e384611af0565b90506064816106f29190612aac565b816106fd9190612add565b905061070a828483611b35565b50505050565b6107186109aa565b61072157600080fd5b600073ffffffffffffffffffffffffffffffffffffffff1660008054906101000a900473ffffffffffffffffffffffffffffffffffffffff1673ffffffffffffffffffffffffffffffffffffffff167f8be0079c531659141344cd1fd0a4f28419497f9722a3daafe3b4186f6b6457e060405160405180910390a360008060006101000a81548173ffffffffffffffffffffffffffffffffffffffff021916908373ffffffffffffffffffffffffffffffffffffffff160217905550565b6107e76109aa565b6107f057600080fd5b60115434146107fe57600080fd5b6000610808610981565b90508073ffffffffffffffffffffffffffffffffffffffff166108fc479081150290604051600060405180830381858888f19350505050158015610850573d6000803e3d6000fd5b5050565b600754341461086257600080fd5b600060405160200161087390612b5d565b6040516020818303038152906040528051906020012090506000610895611ee8565b90506000600960009054906101000a900473ffffffffffffffffffffffffffffffffffffffff1673ffffffffffffffffffffffffffffffffffffffff166383ec865c856040518263ffffffff1660e01b81526004016108f49190612b72565b61014060405180830381865afa158015610912573d6000803e3d6000fd5b505050506040513d601f19601f820116820180604052508101906109369190612bce565b9091929394959697985090919293949596975090919293949596509091929394955090919293945090919293509091925090915090508091505061097b838383611b35565b50505050565b60008060009054906101000a900473ffffffffffffffffffffffffffffffffffffffff16905090565b60008060009054906101000a900473ffffffffffffffffffffffffffffffffffffffff1673ffffffffffffffffffffffffffffffffffffffff163373ffffffffffffffffffffffffffffffffffffffff1614905090565b60048181548110610a1157600080fd5b9060005260206000209060050201600091509050806000015490806001018054610a3a90612cdc565b80601f0160208091040260200160405190810160405280929190818152602001828054610a6690612cdc565b8015610ab35780601f10610a8857610100808354040283529160200191610ab3565b820191906000526020600020905b815481529060010190602001808311610a9657829003601f168201915b505050505090806002018054610ac890612cdc565b80601f0160208091040260200160405190810160405280929190818152602001828054610af490612cdc565b8015610b415780601f10610b1657610100808354040283529160200191610b41565b820191906000526020600020905b815481529060010190602001808311610b2457829003601f168201915b5050505050908060030154908060040160009054906101000a900463ffffffff16908060040160049054906101000a900461ffff16908060040160069054906101000a900461ffff16908060040160089054906101000a900461ffff169080600401600a9054906101000a900461ffff169080600401600c9054906101000a900461ffff169080600401600e9054906101000a900461ffff16908060040160109054906101000a900461ffff1690508c565b610bfb6109aa565b610c0457600080fd5b80600a60006101000a81548173ffffffffffffffffffffffffffffffffffffffff021916908373ffffffffffffffffffffffffffffffffffffffff16021790555050565b600a828160048281548110610c6057610c5f61296a565b5b906000526020600020906005020160040160049054906101000a900461ffff1661ffff161015610c8f57600080fd5b836005600082815260200190815260200160002060009054906101000a900473ffffffffffffffffffffffffffffffffffffffff1673ffffffffffffffffffffffffffffffffffffffff163373ffffffffffffffffffffffffffffffffffffffff1614610cfb57600080fd5b6010543414610d0957600080fd5b8360048681548110610d1e57610d1d61296a565b5b9060005260206000209060050201600001819055505050505050565b6007543414610d4857600080fd5b6000604051602001610d5990612d5a565b6040516020818303038152906040528051906020012090506000610d7b611ee8565b90506000600a60009054906101000a900473ffffffffffffffffffffffffffffffffffffffff1673ffffffffffffffffffffffffffffffffffffffff166398d8a78a856040518263ffffffff1660e01b8152600401610dda9190612b72565b61014060405180830381865afa158015610df8573d6000803e3d6000fd5b505050506040513d601f19601f82011682018060405250810190610e1c9190612bce565b90919293949596979850909192939495969750909192939495965090919293949550909192939450909192935090919250909150905080915050610e61838383611b35565b50505050565b816005600082815260200190815260200160002060009054906101000a900473ffffffffffffffffffffffffffffffffffffffff1673ffffffffffffffffffffffffffffffffffffffff163373ffffffffffffffffffffffffffffffffffffffff1614610ed357600080fd5b816005600082815260200190815260200160002060009054906101000a900473ffffffffffffffffffffffffffffffffffffffff1673ffffffffffffffffffffffffffffffffffffffff163373ffffffffffffffffffffffffffffffffffffffff1614610f3f57600080fd5b600060048581548110610f5557610f5461296a565b5b90600052602060002090600502019050600060048581548110610f7b57610f7a61296a565b5b90600052602060002090600502019050610f9482611f80565b610f9d57600080fd5b610fa681611f80565b610faf57600080fd5b600e543414610fbd57600080fd5b6000600282600001548460000154610fd59190612d6f565b610fdf9190612dc5565b90506000604051602001610ff290612d5a565b604051602081830303815290604052805190602001208460030154148015611041575060405160200161102490612a68565b604051602081830303815290604052805190602001208360030154145b806110a6575060405160200161105690612a68565b6040516020818303038152906040528051906020012084600301541480156110a5575060405160200161108890612d5a565b604051602081830303815290604052805190602001208360030154145b5b156110d3576040516020016110ba90612e42565b6040516020818303038152906040528051906020012090505b6040516020016110e290612b5d565b604051602081830303815290604052805190602001208460030154148015611131575060405160200161111490612a68565b604051602081830303815290604052805190602001208360030154145b80611196575060405160200161114690612a68565b604051602081830303815290604052805190602001208460030154148015611195575060405160200161117890612b5d565b604051602081830303815290604052805190602001208360030154145b5b156111c3576040516020016111aa90612ea3565b6040516020818303038152906040528051906020012090505b6040516020016111d290612f04565b604051602081830303815290604052805190602001208460030154148015611221575060405160200161120490612a68565b604051602081830303815290604052805190602001208360030154145b80611286575060405160200161123690612a68565b604051602081830303815290604052805190602001208460030154148015611285575060405160200161126890612f04565b604051602081830303815290604052805190602001208360030154145b5b156112b35760405160200161129a90612f65565b6040516020818303038152906040528051906020012090505b6040516020016112c290612d5a565b60405160208183030381529060405280519060200120846003015414801561131157506040516020016112f490612b5d565b604051602081830303815290604052805190602001208360030154145b80611376575060405160200161132690612b5d565b604051602081830303815290604052805190602001208460030154148015611375575060405160200161135890612d5a565b604051602081830303815290604052805190602001208360030154145b5b156113a35760405160200161138a90612fc6565b6040516020818303038152906040528051906020012090505b6040516020016113b290612d5a565b60405160208183030381529060405280519060200120846003015414801561140157506040516020016113e490612f04565b604051602081830303815290604052805190602001208360030154145b80611466575060405160200161141690612f04565b604051602081830303815290604052805190602001208460030154148015611465575060405160200161144890612d5a565b604051602081830303815290604052805190602001208360030154145b5b156114935760405160200161147a90613027565b6040516020818303038152906040528051906020012090505b6040516020016114a290612b5d565b6040516020818303038152906040528051906020012084600301541480156114f157506040516020016114d490612f04565b604051602081830303815290604052805190602001208360030154145b80611556575060405160200161150690612f04565b604051602081830303815290604052805190602001208460030154148015611555575060405160200161153890612b5d565b604051602081830303815290604052805190602001208360030154145b5b156115835760405160200161156a90612b5d565b6040516020818303038152906040528051906020012090505b60405160200161159290612a68565b6040516020818303038152906040528051906020012084600301541480156115e157506040516020016115c490612a68565b604051602081830303815290604052805190602001208360030154145b1561160e576040516020016115f590612a68565b6040516020818303038152906040528051906020012090505b60405160200161161d90612b5d565b60405160208183030381529060405280519060200120846003015414801561166c575060405160200161164f90612b5d565b604051602081830303815290604052805190602001208360030154145b156116995760405160200161168090612b5d565b6040516020818303038152906040528051906020012090505b6040516020016116a890612f04565b6040516020818303038152906040528051906020012084600301541480156116f757506040516020016116da90612f04565b604051602081830303815290604052805190602001208360030154145b156117245760405160200161170b90612f04565b6040516020818303038152906040528051906020012090505b60405160200161173390612d5a565b604051602081830303815290604052805190602001208460030154148015611782575060405160200161176590612d5a565b604051602081830303815290604052805190602001208360030154145b156117b35760405160200161179690612d5a565b6040516020818303038152906040528051906020012090506117db565b6040516020016117c290613088565b6040516020818303038152906040528051906020012090505b60006117e76064611fa7565b9050600c5481111580156118135750600d548560040160109054906101000a900461ffff1661ffff1611155b156118895761182a82611824611ee8565b85611b35565b61183385612003565b61183c84612003565b61186660018660040160109054906101000a900461ffff1661ffff1661203690919063ffffffff16565b8560040160106101000a81548161ffff021916908361ffff160217905550611913565b600c54811180156118b25750600d548560040160109054906101000a900461ffff1661ffff1611155b15611912576118c085612003565b6118c984612003565b6118f360018660040160109054906101000a900461ffff1661ffff1661203690919063ffffffff16565b8560040160106101000a81548161ffff021916908361ffff1602179055505b5b505050505050505050565b6119266109aa565b61192f57600080fd5b80600960006101000a81548173ffffffffffffffffffffffffffffffffffffffff021916908373ffffffffffffffffffffffffffffffffffffffff16021790555050565b61197b6109aa565b61198457600080fd5b61198d8161206a565b50565b60056020528060005260406000206000915054906101000a900473ffffffffffffffffffffffffffffffffffffffff1681565b60075434146119d157600080fd5b60006040516020016119e290612f04565b6040516020818303038152906040528051906020012090506000611a04611ee8565b90506000600b60009054906101000a900473ffffffffffffffffffffffffffffffffffffffff1673ffffffffffffffffffffffffffffffffffffffff1663828bc59a856040518263ffffffff1660e01b8152600401611a639190612b72565b61014060405180830381865afa158015611a81573d6000803e3d6000fd5b505050506040513d601f19601f82011682018060405250810190611aa59190612bce565b90919293949596979850909192939495969750909192939495965090919293949550909192939450909192935090919250909150905080915050611aea838383611b35565b50505050565b60008082604051602001611b0491906130ce565b6040516020818303038152906040528051906020012060001c905060025481611b2d9190612aac565b915050919050565b600060035442611b459190612d6f565b905060046040518061018001604052808481526020016040518060400160405280600681526020017f4e6f4e616d65000000000000000000000000000000000000000000000000000081525081526020018581526020018681526020018363ffffffff168152602001600161ffff168152602001600161ffff168152602001600161ffff168152602001600161ffff168152602001600161ffff168152602001600161ffff168152602001600061ffff168152509080600181540180825580915050600190039060005260206000209060050201600090919091909150600082015181600001556020820151816001019080519060200190611c48929190612213565b506040820151816002019080519060200190611c65929190612213565b506060820151816003015560808201518160040160006101000a81548163ffffffff021916908363ffffffff16021790555060a08201518160040160046101000a81548161ffff021916908361ffff16021790555060c08201518160040160066101000a81548161ffff021916908361ffff16021790555060e08201518160040160086101000a81548161ffff021916908361ffff16021790555061010082015181600401600a6101000a81548161ffff021916908361ffff16021790555061012082015181600401600c6101000a81548161ffff021916908361ffff16021790555061014082015181600401600e6101000a81548161ffff021916908361ffff1602179055506101608201518160040160106101000a81548161ffff021916908361ffff160217905550505060006001600480549050611da69190612add565b9050336005600083815260200190815260200160002060006101000a81548173ffffffffffffffffffffffffffffffffffffffff021916908373ffffffffffffffffffffffffffffffffffffffff160217905550611e4d6001600660003373ffffffffffffffffffffffffffffffffffffffff1673ffffffffffffffffffffffffffffffffffffffff1681526020019081526020016000205461216190919063ffffffff16565b600660003373ffffffffffffffffffffffffffffffffffffffff1673ffffffffffffffffffffffffffffffffffffffff168152602001908152602001600020819055507f8c0ab4f733626b70a14feffd2077d631c06ed4a29b41dd5d93c852a5312c398b81848688866001806001806001806000604051611ed99c9b9a999897969594939291906131b1565b60405180910390a15050505050565b6060600060329050606081611efd6064611fa7565b11611f3f576040518060400160405280600481526020017f6d616c65000000000000000000000000000000000000000000000000000000008152509050611f78565b6040518060400160405280600681526020017f66656d616c65000000000000000000000000000000000000000000000000000081525090505b809250505090565b6000428260040160009054906101000a900463ffffffff1663ffffffff1611159050919050565b600060086000815480929190611fbc906129c8565b9190505550814233600854604051602001611fd9939291906132ef565b6040516020818303038152906040528051906020012060001c611ffc9190612aac565b9050919050565b600354426120119190612d6f565b8160040160006101000a81548163ffffffff021916908363ffffffff16021790555050565b6000808284612045919061332c565b90508361ffff168161ffff1610156120605761205f613364565b5b8091505092915050565b600073ffffffffffffffffffffffffffffffffffffffff168173ffffffffffffffffffffffffffffffffffffffff1614156120a457600080fd5b8073ffffffffffffffffffffffffffffffffffffffff1660008054906101000a900473ffffffffffffffffffffffffffffffffffffffff1673ffffffffffffffffffffffffffffffffffffffff167f8be0079c531659141344cd1fd0a4f28419497f9722a3daafe3b4186f6b6457e060405160405180910390a3806000806101000a81548173ffffffffffffffffffffffffffffffffffffffff021916908373ffffffffffffffffffffffffffffffffffffffff16021790555050565b60008082846121709190612d6f565b90508381101561218357612182613364565b5b8091505092915050565b82805461219990612cdc565b90600052602060002090601f0160209004810192826121bb5760008555612202565b82601f106121d457803560ff1916838001178555612202565b82800160010185558215612202579182015b828111156122015782358255916020019190600101906121e6565b5b50905061220f9190612299565b5090565b82805461221f90612cdc565b90600052602060002090601f0160209004810192826122415760008555612288565b82601f1061225a57805160ff1916838001178555612288565b82800160010185558215612288579182015b8281111561228757825182559160200191906001019061226c565b5b5090506122959190612299565b5090565b5b808211156122b257600081600090555060010161229a565b5090565b6000604051905090565b600080fd5b600080fd5b600073ffffffffffffffffffffffffffffffffffffffff82169050919050565b60006122f5826122ca565b9050919050565b612305816122ea565b811461231057600080fd5b50565b600081359050612322816122fc565b92915050565b60006020828403121561233e5761233d6122c0565b5b600061234c84828501612313565b91505092915050565b600081519050919050565b600082825260208201905092915050565b6000819050602082019050919050565b6000819050919050565b61239481612381565b82525050565b60006123a6838361238b565b60208301905092915050565b6000602082019050919050565b60006123ca82612355565b6123d48185612360565b93506123df83612371565b8060005b838110156124105781516123f7888261239a565b9750612402836123b2565b9250506001810190506123e3565b5085935050505092915050565b6000602082019050818103600083015261243781846123bf565b905092915050565b61244881612381565b811461245357600080fd5b50565b6000813590506124658161243f565b92915050565b600080fd5b600080fd5b600080fd5b60008083601f8401126124905761248f61246b565b5b8235905067ffffffffffffffff8111156124ad576124ac612470565b5b6020830191508360018202830111156124c9576124c8612475565b5b9250929050565b6000806000604084860312156124e9576124e86122c0565b5b60006124f786828701612456565b935050602084013567ffffffffffffffff811115612518576125176122c5565b5b6125248682870161247a565b92509250509250925092565b600080fd5b6000601f19601f8301169050919050565b7f4e487b7100000000000000000000000000000000000000000000000000000000600052604160045260246000fd5b61257e82612535565b810181811067ffffffffffffffff8211171561259d5761259c612546565b5b80604052505050565b60006125b06122b6565b90506125bc8282612575565b919050565b600067ffffffffffffffff8211156125dc576125db612546565b5b6125e582612535565b9050602081019050919050565b82818337600083830152505050565b600061261461260f846125c1565b6125a6565b9050828152602081018484840111156126305761262f612530565b5b61263b8482856125f2565b509392505050565b600082601f8301126126585761265761246b565b5b8135612668848260208601612601565b91505092915050565b60008060408385031215612688576126876122c0565b5b600083013567ffffffffffffffff8111156126a6576126a56122c5565b5b6126b285828601612643565b925050602083013567ffffffffffffffff8111156126d3576126d26122c5565b5b6126df85828601612643565b9150509250929050565b6000602082840312156126ff576126fe6122c0565b5b600061270d84828501612456565b91505092915050565b61271f816122ea565b82525050565b600060208201905061273a6000830184612716565b92915050565b60008115159050919050565b61275581612740565b82525050565b6000602082019050612770600083018461274c565b92915050565b61277f81612381565b82525050565b600081519050919050565b600082825260208201905092915050565b60005b838110156127bf5780820151818401526020810190506127a4565b838111156127ce576000848401525b50505050565b60006127df82612785565b6127e98185612790565b93506127f98185602086016127a1565b61280281612535565b840191505092915050565b6000819050919050565b6128208161280d565b82525050565b600063ffffffff82169050919050565b61283f81612826565b82525050565b600061ffff82169050919050565b61285c81612845565b82525050565b600061018082019050612878600083018f612776565b818103602083015261288a818e6127d4565b9050818103604083015261289e818d6127d4565b90506128ad606083018c612817565b6128ba608083018b612836565b6128c760a083018a612853565b6128d460c0830189612853565b6128e160e0830188612853565b6128ef610100830187612853565b6128fd610120830186612853565b61290b610140830185612853565b612919610160830184612853565b9d9c50505050505050505050505050565b60008060408385031215612941576129406122c0565b5b600061294f85828601612456565b925050602061296085828601612456565b9150509250929050565b7f4e487b7100000000000000000000000000000000000000000000000000000000600052603260045260246000fd5b7f4e487b7100000000000000000000000000000000000000000000000000000000600052601160045260246000fd5b60006129d382612381565b91507fffffffffffffffffffffffffffffffffffffffffffffffffffffffffffffffff821415612a0657612a05612999565b5b600182019050919050565b600081905092915050565b7f74726176656c6572000000000000000000000000000000000000000000000000600082015250565b6000612a52600883612a11565b9150612a5d82612a1c565b600882019050919050565b6000612a7382612a45565b9150819050919050565b7f4e487b7100000000000000000000000000000000000000000000000000000000600052601260045260246000fd5b6000612ab782612381565b9150612ac283612381565b925082612ad257612ad1612a7d565b5b828206905092915050565b6000612ae882612381565b9150612af383612381565b925082821015612b0657612b05612999565b5b828203905092915050565b7f6b69747479000000000000000000000000000000000000000000000000000000600082015250565b6000612b47600583612a11565b9150612b5282612b11565b600582019050919050565b6000612b6882612b3a565b9150819050919050565b6000602082019050612b876000830184612776565b92915050565b612b9681612740565b8114612ba157600080fd5b50565b600081519050612bb381612b8d565b92915050565b600081519050612bc88161243f565b92915050565b6000806000806000806000806000806101408b8d031215612bf257612bf16122c0565b5b6000612c008d828e01612ba4565b9a50506020612c118d828e01612ba4565b9950506040612c228d828e01612bb9565b9850506060612c338d828e01612bb9565b9750506080612c448d828e01612bb9565b96505060a0612c558d828e01612bb9565b95505060c0612c668d828e01612bb9565b94505060e0612c778d828e01612bb9565b935050610100612c898d828e01612bb9565b925050610120612c9b8d828e01612bb9565b9150509295989b9194979a5092959850565b7f4e487b7100000000000000000000000000000000000000000000000000000000600052602260045260246000fd5b60006002820490506001821680612cf457607f821691505b60208210811415612d0857612d07612cad565b5b50919050565b7f63797068657250756e6b00000000000000000000000000000000000000000000600082015250565b6000612d44600a83612a11565b9150612d4f82612d0e565b600a82019050919050565b6000612d6582612d37565b9150819050919050565b6000612d7a82612381565b9150612d8583612381565b9250827fffffffffffffffffffffffffffffffffffffffffffffffffffffffffffffffff03821115612dba57612db9612999565b5b828201905092915050565b6000612dd082612381565b9150612ddb83612381565b925082612deb57612dea612a7d565b5b828204905092915050565b7f63797068657254726176656c6572000000000000000000000000000000000000600082015250565b6000612e2c600e83612a11565b9150612e3782612df6565b600e82019050919050565b6000612e4d82612e1f565b9150819050919050565b7f6b6974747954726176656c657200000000000000000000000000000000000000600082015250565b6000612e8d600d83612a11565b9150612e9882612e57565b600d82019050919050565b6000612eae82612e80565b9150819050919050565b7f626f726564417065000000000000000000000000000000000000000000000000600082015250565b6000612eee600883612a11565b9150612ef982612eb8565b600882019050919050565b6000612f0f82612ee1565b9150819050919050565b7f626f72656454726176656c657200000000000000000000000000000000000000600082015250565b6000612f4f600d83612a11565b9150612f5a82612f19565b600d82019050919050565b6000612f7082612f42565b9150819050919050565b7f6379706865724b69747479000000000000000000000000000000000000000000600082015250565b6000612fb0600b83612a11565b9150612fbb82612f7a565b600b82019050919050565b6000612fd182612fa3565b9150819050919050565b7f6379706865724170650000000000000000000000000000000000000000000000600082015250565b6000613011600983612a11565b915061301c82612fdb565b600982019050919050565b600061303282613004565b9150819050919050565b7f6e6577436c617373657300000000000000000000000000000000000000000000600082015250565b6000613072600a83612a11565b915061307d8261303c565b600a82019050919050565b600061309382613065565b9150819050919050565b60006130a882612785565b6130b28185612a11565b93506130c28185602086016127a1565b80840191505092915050565b60006130da828461309d565b915081905092915050565b7f4e6f4e616d650000000000000000000000000000000000000000000000000000600082015250565b600061311b600683612790565b9150613126826130e5565b602082019050919050565b6000819050919050565b6000819050919050565b600061316061315b61315684613131565b61313b565b612845565b9050919050565b61317081613145565b82525050565b6000819050919050565b600061319b61319661319184613176565b61313b565b612845565b9050919050565b6131ab81613180565b82525050565b60006101a0820190506131c7600083018f612776565b6131d4602083018e612776565b81810360408301526131e58161310e565b905081810360608301526131f9818d6127d4565b9050613208608083018c612817565b61321560a083018b612836565b61322260c083018a613167565b61322f60e0830189613167565b61323d610100830188613167565b61324b610120830187613167565b613259610140830186613167565b613267610160830185613167565b6132756101808301846131a2565b9d9c50505050505050505050505050565b6000819050919050565b6132a161329c82612381565b613286565b82525050565b60008160601b9050919050565b60006132bf826132a7565b9050919050565b60006132d1826132b4565b9050919050565b6132e96132e4826122ea565b6132c6565b82525050565b60006132fb8286613290565b60208201915061330b82856132d8565b60148201915061331b8284613290565b602082019150819050949350505050565b600061333782612845565b915061334283612845565b92508261ffff0382111561335957613358612999565b5b828201905092915050565b7f4e487b7100000000000000000000000000000000000000000000000000000000600052600160045260246000fdfea2646970667358221220d4a1553176f4621290e1c798abe27c832ad7ddb25f7e926981b11b289e99a1f164736f6c634300080a0033",
  "immutableReferences": {},
  "source": "// SPDX-License-Identifier: MIT\r\npragma solidity >=0.4.22 <0.9.0;\r\n\r\nimport \"./piecemerging.sol\";\r\n\r\ncontract PieceHelper is PieceMerging {\r\n\r\n  modifier abovePieceLevel(uint _level, uint _pieceId) {\r\n    require(pieces[_pieceId].pieceLevel >= _level);\r\n    _;\r\n  }\r\n  function withdrawPiece() external payable onlyOwner {\r\n    require(msg.value == withdrawPieceFee);\r\n    address _owner = owner();\r\n    payable(_owner).transfer(address(this).balance);\r\n  }\r\n  uint changePieceNameFee = 0.1 ether;\r\n  uint changePieceDnaFee = 10 ether;\r\n  uint withdrawPieceFee = 0.01 ether;\r\n\r\n  function changePieceName(uint _pieceId, string calldata _newName) external payable abovePieceLevel(2, _pieceId) onlyOwnerOfPiece(_pieceId) {\r\n    require(msg.value == changePieceNameFee);\r\n    pieces[_pieceId].pieceName = _newName;\r\n  }\r\n\r\n  function changePieceDna(uint _pieceId, uint _newDna) external payable abovePieceLevel(10, _pieceId) onlyOwnerOfPiece(_pieceId) {\r\n    require(msg.value == changePieceDnaFee);\r\n    pieces[_pieceId].pieceDna = _newDna;\r\n  }\r\n\r\n  function getPiecesByOwner(address _owner) external view returns(uint[] memory) {\r\n    uint[] memory result = new uint[](ownerPieceCount[_owner]);\r\n    uint counter = 0;\r\n    for (uint i = 0; i < pieces.length; i++) {\r\n      if (pieceToOwner[i] == _owner) {\r\n        result[counter] = i;\r\n        counter++;\r\n      }\r\n    }\r\n    return result;\r\n  }\r\n\r\n}\r\n",
  "sourcePath": "C:\\Users\\pablo\\PycharmProjects\\LiveAndTravel\\contracts\\piecehelper.sol",
  "compiler": {
    "name": "solc",
    "version": "0.8.10+commit.fc410830.Emscripten.clang"
  },
  "schemaVersion": "3.4.4",
  "updatedAt": "2021-12-30T16:56:21.469Z",
  "devdoc": {
    "kind": "dev",
    "methods": {},
    "version": 1
  },
  "userdoc": {
    "kind": "user",
    "methods": {},
    "version": 1
  }
}