{
  "contractName": "PieceMerging",
  "abi": [
    {
      "anonymous": false,
      "inputs": [
        {
          "indexed": false,
          "internalType": "uint256",
          "name": "pieceId",
          "type": "uint256"
        },
        {
          "indexed": false,
          "internalType": "uint256",
          "name": "pieceDna",
          "type": "uint256"
        },
        {
          "indexed": false,
          "internalType": "bytes32",
          "name": "pieceClass",
          "type": "bytes32"
        },
        {
          "indexed": false,
          "internalType": "uint32",
          "name": "pieceReadyTime",
          "type": "uint32"
        },
        {
          "indexed": false,
          "internalType": "uint256",
          "name": "pieceCreationLoc",
          "type": "uint256"
        },
        {
          "indexed": false,
          "internalType": "uint16",
          "name": "pieceMergeCount",
          "type": "uint16"
        }
      ],
      "name": "NewPiece",
      "type": "event"
    },
    {
      "anonymous": false,
      "inputs": [
        {
          "indexed": true,
          "internalType": "address",
          "name": "previousOwner",
          "type": "address"
        },
        {
          "indexed": true,
          "internalType": "address",
          "name": "newOwner",
          "type": "address"
        }
      ],
      "name": "OwnershipTransferred",
      "type": "event"
    },
    {
      "constant": true,
      "inputs": [],
      "name": "isOwner",
      "outputs": [
        {
          "internalType": "bool",
          "name": "",
          "type": "bool"
        }
      ],
      "payable": false,
      "stateMutability": "view",
      "type": "function"
    },
    {
      "constant": false,
      "inputs": [
        {
          "internalType": "uint256",
          "name": "_itemId",
          "type": "uint256"
        },
        {
          "internalType": "uint256",
          "name": "_curr_loc",
          "type": "uint256"
        }
      ],
      "name": "migratePantsItem",
      "outputs": [],
      "payable": true,
      "stateMutability": "payable",
      "type": "function"
    },
    {
      "constant": false,
      "inputs": [
        {
          "internalType": "uint256",
          "name": "_itemId",
          "type": "uint256"
        },
        {
          "internalType": "uint256",
          "name": "_curr_loc",
          "type": "uint256"
        }
      ],
      "name": "migrateShirtItem",
      "outputs": [],
      "payable": true,
      "stateMutability": "payable",
      "type": "function"
    },
    {
      "constant": false,
      "inputs": [
        {
          "internalType": "uint256",
          "name": "_itemId",
          "type": "uint256"
        },
        {
          "internalType": "uint256",
          "name": "_curr_loc",
          "type": "uint256"
        }
      ],
      "name": "migrateShoesItem",
      "outputs": [],
      "payable": true,
      "stateMutability": "payable",
      "type": "function"
    },
    {
      "constant": false,
      "inputs": [
        {
          "internalType": "uint256",
          "name": "_itemId",
          "type": "uint256"
        },
        {
          "internalType": "uint256",
          "name": "_curr_loc",
          "type": "uint256"
        }
      ],
      "name": "migrateSnapbackItem",
      "outputs": [],
      "payable": true,
      "stateMutability": "payable",
      "type": "function"
    },
    {
      "constant": false,
      "inputs": [
        {
          "internalType": "uint256",
          "name": "_itemId",
          "type": "uint256"
        },
        {
          "internalType": "uint256",
          "name": "_curr_loc",
          "type": "uint256"
        }
      ],
      "name": "migrateSocksItem",
      "outputs": [],
      "payable": true,
      "stateMutability": "payable",
      "type": "function"
    },
    {
      "constant": false,
      "inputs": [
        {
          "internalType": "uint256",
          "name": "_itemId",
          "type": "uint256"
        },
        {
          "internalType": "uint256",
          "name": "_curr_loc",
          "type": "uint256"
        }
      ],
      "name": "migrateUnderwearItem",
      "outputs": [],
      "payable": true,
      "stateMutability": "payable",
      "type": "function"
    },
    {
      "constant": true,
      "inputs": [],
      "name": "owner",
      "outputs": [
        {
          "internalType": "address",
          "name": "",
          "type": "address"
        }
      ],
      "payable": false,
      "stateMutability": "view",
      "type": "function"
    },
    {
      "constant": true,
      "inputs": [
        {
          "internalType": "uint256",
          "name": "",
          "type": "uint256"
        }
      ],
      "name": "pieceToOwner",
      "outputs": [
        {
          "internalType": "address",
          "name": "",
          "type": "address"
        }
      ],
      "payable": false,
      "stateMutability": "view",
      "type": "function"
    },
    {
      "constant": true,
      "inputs": [
        {
          "internalType": "uint256",
          "name": "",
          "type": "uint256"
        }
      ],
      "name": "pieces",
      "outputs": [
        {
          "internalType": "uint256",
          "name": "pieceDna",
          "type": "uint256"
        },
        {
          "internalType": "bytes32",
          "name": "pieceClass",
          "type": "bytes32"
        },
        {
          "internalType": "uint32",
          "name": "pieceReadyTime",
          "type": "uint32"
        },
        {
          "internalType": "uint256",
          "name": "pieceCreationLoc",
          "type": "uint256"
        },
        {
          "internalType": "uint16",
          "name": "mergeCount",
          "type": "uint16"
        }
      ],
      "payable": false,
      "stateMutability": "view",
      "type": "function"
    },
    {
      "constant": false,
      "inputs": [],
      "name": "renounceOwnership",
      "outputs": [],
      "payable": false,
      "stateMutability": "nonpayable",
      "type": "function"
    },
    {
      "constant": false,
      "inputs": [
        {
          "internalType": "address",
          "name": "_address",
          "type": "address"
        }
      ],
      "name": "setHoodieContractAddress",
      "outputs": [],
      "payable": false,
      "stateMutability": "nonpayable",
      "type": "function"
    },
    {
      "constant": false,
      "inputs": [
        {
          "internalType": "address",
          "name": "_address",
          "type": "address"
        }
      ],
      "name": "setPantsContractAddress",
      "outputs": [],
      "payable": false,
      "stateMutability": "nonpayable",
      "type": "function"
    },
    {
      "constant": false,
      "inputs": [
        {
          "internalType": "address",
          "name": "_address",
          "type": "address"
        }
      ],
      "name": "setShirtContractAddress",
      "outputs": [],
      "payable": false,
      "stateMutability": "nonpayable",
      "type": "function"
    },
    {
      "constant": false,
      "inputs": [
        {
          "internalType": "address",
          "name": "_address",
          "type": "address"
        }
      ],
      "name": "setShoesContractAddress",
      "outputs": [],
      "payable": false,
      "stateMutability": "nonpayable",
      "type": "function"
    },
    {
      "constant": false,
      "inputs": [
        {
          "internalType": "address",
          "name": "_address",
          "type": "address"
        }
      ],
      "name": "setSnapbackContractAddress",
      "outputs": [],
      "payable": false,
      "stateMutability": "nonpayable",
      "type": "function"
    },
    {
      "constant": false,
      "inputs": [
        {
          "internalType": "address",
          "name": "_address",
          "type": "address"
        }
      ],
      "name": "setSocksContractAddress",
      "outputs": [],
      "payable": false,
      "stateMutability": "nonpayable",
      "type": "function"
    },
    {
      "constant": false,
      "inputs": [
        {
          "internalType": "address",
          "name": "_address",
          "type": "address"
        }
      ],
      "name": "setUnderwearContractAddress",
      "outputs": [],
      "payable": false,
      "stateMutability": "nonpayable",
      "type": "function"
    },
    {
      "constant": false,
      "inputs": [
        {
          "internalType": "address",
          "name": "newOwner",
          "type": "address"
        }
      ],
      "name": "transferOwnership",
      "outputs": [],
      "payable": false,
      "stateMutability": "nonpayable",
      "type": "function"
    },
    {
      "constant": false,
      "inputs": [
        {
          "internalType": "uint256",
          "name": "_pieceId",
          "type": "uint256"
        },
        {
          "internalType": "uint256",
          "name": "_targetPieceId",
          "type": "uint256"
        },
        {
          "internalType": "uint256",
          "name": "_curr_loc",
          "type": "uint256"
        }
      ],
      "name": "merge",
      "outputs": [],
      "payable": true,
      "stateMutability": "payable",
      "type": "function"
    }
  ],
  "bytecode": "0x60806040526010600155600154600a0a600255620151806003556000600755670de0b6b3a7640000600855605f601055600160115567016345785d8a0000601255336000806101000a81548173ffffffffffffffffffffffffffffffffffffffff021916908373ffffffffffffffffffffffffffffffffffffffff1602179055506000809054906101000a900473ffffffffffffffffffffffffffffffffffffffff1673ffffffffffffffffffffffffffffffffffffffff16600073ffffffffffffffffffffffffffffffffffffffff167f8be0079c531659141344cd1fd0a4f28419497f9722a3daafe3b4186f6b6457e060405160405180910390a36126c88061010b6000396000f3fe60806040526004361061011f5760003560e01c80638c081f5d116100a0578063cd90cb9811610064578063cd90cb9814610548578063cfd720ec14610580578063e14d485b146105b8578063f2fde38b14610609578063f56fa8d41461065a5761011f565b80638c081f5d146103ba5780638da5cb5b1461040b5780638f32d59b146104625780638f64be3014610491578063c78309f5146105105761011f565b80635a2e4bd9116100e75780635a2e4bd9146102875780636c492f3d146102c9578063715018a61461031a5780637a43061f146103315780637be41814146103695761011f565b80631507a33114610124578063241ec36d1461015c57806327f1a4f3146101ad5780634720833f146101fe5780634f1b3e3e14610236575b600080fd5b61015a6004803603604081101561013a57600080fd5b8101908080359060200190929190803590602001909291905050506106d5565b005b34801561016857600080fd5b506101ab6004803603602081101561017f57600080fd5b81019080803573ffffffffffffffffffffffffffffffffffffffff16906020019092919050505061085e565b005b3480156101b957600080fd5b506101fc600480360360208110156101d057600080fd5b81019080803573ffffffffffffffffffffffffffffffffffffffff1690602001909291905050506108b3565b005b6102346004803603604081101561021457600080fd5b810190808035906020019092919080359060200190929190505050610908565b005b34801561024257600080fd5b506102856004803603602081101561025957600080fd5b81019080803573ffffffffffffffffffffffffffffffffffffffff169060200190929190505050610a91565b005b6102c76004803603606081101561029d57600080fd5b81019080803590602001909291908035906020019092919080359060200190929190505050610ae6565b005b3480156102d557600080fd5b50610318600480360360208110156102ec57600080fd5b81019080803573ffffffffffffffffffffffffffffffffffffffff1690602001909291905050506118c3565b005b34801561032657600080fd5b5061032f611918565b005b6103676004803603604081101561034757600080fd5b8101908080359060200190929190803590602001909291905050506119e8565b005b34801561037557600080fd5b506103b86004803603602081101561038c57600080fd5b81019080803573ffffffffffffffffffffffffffffffffffffffff169060200190929190505050611b71565b005b3480156103c657600080fd5b50610409600480360360208110156103dd57600080fd5b81019080803573ffffffffffffffffffffffffffffffffffffffff169060200190929190505050611bc6565b005b34801561041757600080fd5b50610420611c1b565b604051808273ffffffffffffffffffffffffffffffffffffffff1673ffffffffffffffffffffffffffffffffffffffff16815260200191505060405180910390f35b34801561046e57600080fd5b50610477611c44565b604051808215151515815260200191505060405180910390f35b34801561049d57600080fd5b506104ca600480360360208110156104b457600080fd5b8101908080359060200190929190505050611c9b565b604051808681526020018581526020018463ffffffff1663ffffffff1681526020018381526020018261ffff1661ffff1681526020019550505050505060405180910390f35b6105466004803603604081101561052657600080fd5b810190808035906020019092919080359060200190929190505050611cfc565b005b61057e6004803603604081101561055e57600080fd5b810190808035906020019092919080359060200190929190505050611e85565b005b6105b66004803603604081101561059657600080fd5b81019080803590602001909291908035906020019092919050505061200e565b005b3480156105c457600080fd5b50610607600480360360208110156105db57600080fd5b81019080803573ffffffffffffffffffffffffffffffffffffffff169060200190929190505050612197565b005b34801561061557600080fd5b506106586004803603602081101561062c57600080fd5b81019080803573ffffffffffffffffffffffffffffffffffffffff1690602001909291905050506121ec565b005b34801561066657600080fd5b506106936004803603602081101561067d57600080fd5b8101908080359060200190929190505050612209565b604051808273ffffffffffffffffffffffffffffffffffffffff1673ffffffffffffffffffffffffffffffffffffffff16815260200191505060405180910390f35b60085434146106e357600080fd5b600060405160200180807f50616e747300000000000000000000000000000000000000000000000000000081525060050190506040516020818303038152906040528051906020012090506000600b60009054906101000a900473ffffffffffffffffffffffffffffffffffffffff1673ffffffffffffffffffffffffffffffffffffffff16634337932d856040518263ffffffff1660e01b8152600401808281526020019150506101006040518083038186803b1580156107a457600080fd5b505afa1580156107b8573d6000803e3d6000fd5b505050506040513d6101008110156107cf57600080fd5b81019080805190602001909291908051906020019092919080519060200190929190805190602001909291908051906020019092919080519060200190929190805190602001909291908051906020019092919050505090919293949596509091929394955090919293945090919293509091925090915090508091505061085882828561223c565b50505050565b610866611c44565b61086f57600080fd5b80600b60006101000a81548173ffffffffffffffffffffffffffffffffffffffff021916908373ffffffffffffffffffffffffffffffffffffffff16021790555050565b6108bb611c44565b6108c457600080fd5b80600c60006101000a81548173ffffffffffffffffffffffffffffffffffffffff021916908373ffffffffffffffffffffffffffffffffffffffff16021790555050565b600854341461091657600080fd5b600060405160200180807f536869727400000000000000000000000000000000000000000000000000000081525060050190506040516020818303038152906040528051906020012090506000600d60009054906101000a900473ffffffffffffffffffffffffffffffffffffffff1673ffffffffffffffffffffffffffffffffffffffff16634c9c05ea856040518263ffffffff1660e01b8152600401808281526020019150506101006040518083038186803b1580156109d757600080fd5b505afa1580156109eb573d6000803e3d6000fd5b505050506040513d610100811015610a0257600080fd5b810190808051906020019092919080519060200190929190805190602001909291908051906020019092919080519060200190929190805190602001909291908051906020019092919080519060200190929190505050909192939495965090919293949550909192939450909192935090919250909150905080915050610a8b82828561223c565b50505050565b610a99611c44565b610aa257600080fd5b80600f60006101000a81548173ffffffffffffffffffffffffffffffffffffffff021916908373ffffffffffffffffffffffffffffffffffffffff16021790555050565b826005600082815260200190815260200160002060009054906101000a900473ffffffffffffffffffffffffffffffffffffffff1673ffffffffffffffffffffffffffffffffffffffff163373ffffffffffffffffffffffffffffffffffffffff1614610b5257600080fd5b826005600082815260200190815260200160002060009054906101000a900473ffffffffffffffffffffffffffffffffffffffff1673ffffffffffffffffffffffffffffffffffffffff163373ffffffffffffffffffffffffffffffffffffffff1614610bbe57600080fd5b600060048681548110610bcd57fe5b90600052602060002090600502019050600060048681548110610bec57fe5b90600052602060002090600502019050610c058261247b565b610c0e57600080fd5b610c178161247b565b610c2057600080fd5b6012543414610c2e57600080fd5b60006002826000015484600001540181610c4457fe5b049050600060405160200180807f53686f65730000000000000000000000000000000000000000000000000000008152506005019050604051602081830303815290604052805190602001208460010154148015610cf75750826001015460405160200180807f54726176656c205061696e747300000000000000000000000000000000000000815250600d01828152602001915050604051602081830303815290604052805190602001208360010154145b80610da0575060405160200180807f54726176656c205061696e747300000000000000000000000000000000000000815250600d019050604051602081830303815290604052805190602001208460010154148015610d9f575060405160200180807f53686f65730000000000000000000000000000000000000000000000000000008152506005019050604051602081830303815290604052805190602001208360010154145b5b15610def5760405160200180807f5061696e7465642053686f657300000000000000000000000000000000000000815250600d0190506040516020818303038152906040528051906020012090505b60405160200180807f536f636b730000000000000000000000000000000000000000000000000000008152506005019050604051602081830303815290604052805190602001208460010154148015610e9d5750826001015460405160200180807f54726176656c205061696e747300000000000000000000000000000000000000815250600d01828152602001915050604051602081830303815290604052805190602001208360010154145b80610f46575060405160200180807f54726176656c205061696e747300000000000000000000000000000000000000815250600d019050604051602081830303815290604052805190602001208460010154148015610f45575060405160200180807f536f636b730000000000000000000000000000000000000000000000000000008152506005019050604051602081830303815290604052805190602001208360010154145b5b15610f955760405160200180807f5061696e74656420536f636b7300000000000000000000000000000000000000815250600d0190506040516020818303038152906040528051906020012090505b60405160200180807f50616e747300000000000000000000000000000000000000000000000000000081525060050190506040516020818303038152906040528051906020012084600101541480156110435750826001015460405160200180807f54726176656c205061696e747300000000000000000000000000000000000000815250600d01828152602001915050604051602081830303815290604052805190602001208360010154145b806110ec575060405160200180807f54726176656c205061696e747300000000000000000000000000000000000000815250600d0190506040516020818303038152906040528051906020012084600101541480156110eb575060405160200180807f50616e74730000000000000000000000000000000000000000000000000000008152506005019050604051602081830303815290604052805190602001208360010154145b5b1561113b5760405160200180807f5061696e7465642050616e747300000000000000000000000000000000000000815250600d0190506040516020818303038152906040528051906020012090505b60405160200180807f556e64657277656172000000000000000000000000000000000000000000000081525060090190506040516020818303038152906040528051906020012084600101541480156111e95750826001015460405160200180807f54726176656c205061696e747300000000000000000000000000000000000000815250600d01828152602001915050604051602081830303815290604052805190602001208360010154145b80611292575060405160200180807f54726176656c205061696e747300000000000000000000000000000000000000815250600d019050604051602081830303815290604052805190602001208460010154148015611291575060405160200180807f556e6465727765617200000000000000000000000000000000000000000000008152506009019050604051602081830303815290604052805190602001208360010154145b5b156112e15760405160200180807f5061696e74656420556e6465727765617200000000000000000000000000000081525060110190506040516020818303038152906040528051906020012090505b60405160200180807f5368697274000000000000000000000000000000000000000000000000000000815250600501905060405160208183030381529060405280519060200120846001015414801561138f5750826001015460405160200180807f54726176656c205061696e747300000000000000000000000000000000000000815250600d01828152602001915050604051602081830303815290604052805190602001208360010154145b80611438575060405160200180807f54726176656c205061696e747300000000000000000000000000000000000000815250600d019050604051602081830303815290604052805190602001208460010154148015611437575060405160200180807f53686972740000000000000000000000000000000000000000000000000000008152506005019050604051602081830303815290604052805190602001208360010154145b5b156114875760405160200180807f5061696e74656420536869727400000000000000000000000000000000000000815250600d0190506040516020818303038152906040528051906020012090505b60405160200180807f486f6f646965000000000000000000000000000000000000000000000000000081525060060190506040516020818303038152906040528051906020012084600101541480156115355750826001015460405160200180807f54726176656c205061696e747300000000000000000000000000000000000000815250600d01828152602001915050604051602081830303815290604052805190602001208360010154145b806115de575060405160200180807f54726176656c205061696e747300000000000000000000000000000000000000815250600d0190506040516020818303038152906040528051906020012084600101541480156115dd575060405160200180807f486f6f64696500000000000000000000000000000000000000000000000000008152506006019050604051602081830303815290604052805190602001208360010154145b5b1561162d5760405160200180807f5061696e74656420486f6f646965000000000000000000000000000000000000815250600e0190506040516020818303038152906040528051906020012090505b60405160200180807f536e61706261636b00000000000000000000000000000000000000000000000081525060080190506040516020818303038152906040528051906020012084600101541480156116db5750826001015460405160200180807f54726176656c205061696e747300000000000000000000000000000000000000815250600d01828152602001915050604051602081830303815290604052805190602001208360010154145b80611784575060405160200180807f54726176656c205061696e747300000000000000000000000000000000000000815250600d019050604051602081830303815290604052805190602001208460010154148015611783575060405160200180807f536e61706261636b0000000000000000000000000000000000000000000000008152506008019050604051602081830303815290604052805190602001208360010154145b5b156117d35760405160200180807f5061696e74656420536e61706261636b0000000000000000000000000000000081525060100190506040516020818303038152906040528051906020012090505b60006117df60646124a2565b9050601054811115801561180b57506011548560040160009054906101000a900461ffff1661ffff1611155b156118765761181b82848a61223c565b61182485612531565b61182d84612531565b61185760018660040160009054906101000a900461ffff1661ffff1661255b90919063ffffffff16565b8560040160006101000a81548161ffff021916908361ffff1602179055505b6010548111801561189f57506011548560040160009054906101000a900461ffff1661ffff1611155b156118b7576118ad85612531565b6118b684612531565b5b50505050505050505050565b6118cb611c44565b6118d457600080fd5b80600a60006101000a81548173ffffffffffffffffffffffffffffffffffffffff021916908373ffffffffffffffffffffffffffffffffffffffff16021790555050565b611920611c44565b61192957600080fd5b600073ffffffffffffffffffffffffffffffffffffffff166000809054906101000a900473ffffffffffffffffffffffffffffffffffffffff1673ffffffffffffffffffffffffffffffffffffffff167f8be0079c531659141344cd1fd0a4f28419497f9722a3daafe3b4186f6b6457e060405160405180910390a360008060006101000a81548173ffffffffffffffffffffffffffffffffffffffff021916908373ffffffffffffffffffffffffffffffffffffffff160217905550565b60085434146119f657600080fd5b600060405160200180807f536e61706261636b00000000000000000000000000000000000000000000000081525060080190506040516020818303038152906040528051906020012090506000600d60009054906101000a900473ffffffffffffffffffffffffffffffffffffffff1673ffffffffffffffffffffffffffffffffffffffff16634c9c05ea856040518263ffffffff1660e01b8152600401808281526020019150506101006040518083038186803b158015611ab757600080fd5b505afa158015611acb573d6000803e3d6000fd5b505050506040513d610100811015611ae257600080fd5b810190808051906020019092919080519060200190929190805190602001909291908051906020019092919080519060200190929190805190602001909291908051906020019092919080519060200190929190505050909192939495965090919293949550909192939450909192935090919250909150905080915050611b6b82828561223c565b50505050565b611b79611c44565b611b8257600080fd5b80600d60006101000a81548173ffffffffffffffffffffffffffffffffffffffff021916908373ffffffffffffffffffffffffffffffffffffffff16021790555050565b611bce611c44565b611bd757600080fd5b80600960006101000a81548173ffffffffffffffffffffffffffffffffffffffff021916908373ffffffffffffffffffffffffffffffffffffffff16021790555050565b60008060009054906101000a900473ffffffffffffffffffffffffffffffffffffffff16905090565b60008060009054906101000a900473ffffffffffffffffffffffffffffffffffffffff1673ffffffffffffffffffffffffffffffffffffffff163373ffffffffffffffffffffffffffffffffffffffff1614905090565b60048181548110611ca857fe5b90600052602060002090600502016000915090508060000154908060010154908060020160009054906101000a900463ffffffff16908060030154908060040160009054906101000a900461ffff16905085565b6008543414611d0a57600080fd5b600060405160200180807f53686f657300000000000000000000000000000000000000000000000000000081525060050190506040516020818303038152906040528051906020012090506000600960009054906101000a900473ffffffffffffffffffffffffffffffffffffffff1673ffffffffffffffffffffffffffffffffffffffff1663a5f23e1d856040518263ffffffff1660e01b8152600401808281526020019150506101006040518083038186803b158015611dcb57600080fd5b505afa158015611ddf573d6000803e3d6000fd5b505050506040513d610100811015611df657600080fd5b810190808051906020019092919080519060200190929190805190602001909291908051906020019092919080519060200190929190805190602001909291908051906020019092919080519060200190929190505050909192939495965090919293949550909192939450909192935090919250909150905080915050611e7f82828561223c565b50505050565b6008543414611e9357600080fd5b600060405160200180807f556e64657277656172000000000000000000000000000000000000000000000081525060090190506040516020818303038152906040528051906020012090506000600c60009054906101000a900473ffffffffffffffffffffffffffffffffffffffff1673ffffffffffffffffffffffffffffffffffffffff166325f76202856040518263ffffffff1660e01b8152600401808281526020019150506101006040518083038186803b158015611f5457600080fd5b505afa158015611f68573d6000803e3d6000fd5b505050506040513d610100811015611f7f57600080fd5b81019080805190602001909291908051906020019092919080519060200190929190805190602001909291908051906020019092919080519060200190929190805190602001909291908051906020019092919050505090919293949596509091929394955090919293945090919293509091925090915090508091505061200882828561223c565b50505050565b600854341461201c57600080fd5b600060405160200180807f536f636b7300000000000000000000000000000000000000000000000000000081525060050190506040516020818303038152906040528051906020012090506000600a60009054906101000a900473ffffffffffffffffffffffffffffffffffffffff1673ffffffffffffffffffffffffffffffffffffffff1663ee5394de856040518263ffffffff1660e01b8152600401808281526020019150506101006040518083038186803b1580156120dd57600080fd5b505afa1580156120f1573d6000803e3d6000fd5b505050506040513d61010081101561210857600080fd5b81019080805190602001909291908051906020019092919080519060200190929190805190602001909291908051906020019092919080519060200190929190805190602001909291908051906020019092919050505090919293949596509091929394955090919293945090919293509091925090915090508091505061219182828561223c565b50505050565b61219f611c44565b6121a857600080fd5b80600e60006101000a81548173ffffffffffffffffffffffffffffffffffffffff021916908373ffffffffffffffffffffffffffffffffffffffff16021790555050565b6121f4611c44565b6121fd57600080fd5b6122068161257f565b50565b60056020528060005260406000206000915054906101000a900473ffffffffffffffffffffffffffffffffffffffff1681565b60006003544201905060046040518060a001604052808581526020018681526020018363ffffffff168152602001848152602001600061ffff1681525090806001815401808255809150509060018203906000526020600020906005020160009091929091909150600082015181600001556020820151816001015560408201518160020160006101000a81548163ffffffff021916908363ffffffff1602179055506060820151816003015560808201518160040160006101000a81548161ffff021916908361ffff16021790555050505060006001600480549050039050336005600083815260200190815260200160002060006101000a81548173ffffffffffffffffffffffffffffffffffffffff021916908373ffffffffffffffffffffffffffffffffffffffff1602179055506123c16001600660003373ffffffffffffffffffffffffffffffffffffffff1673ffffffffffffffffffffffffffffffffffffffff1681526020019081526020016000205461267790919063ffffffff16565b600660003373ffffffffffffffffffffffffffffffffffffffff1673ffffffffffffffffffffffffffffffffffffffff168152602001908152602001600020819055507f5ad354523f49f6a431c943b15028530250f3c9c42deb03b1bc586d7698af018881858785876000604051808781526020018681526020018581526020018463ffffffff1663ffffffff1681526020018381526020018261ffff168152602001965050505050505060405180910390a15050505050565b6000428260020160009054906101000a900463ffffffff1663ffffffff1611159050919050565b6000600760008154809291906001019190505550814233600754604051602001808481526020018373ffffffffffffffffffffffffffffffffffffffff1673ffffffffffffffffffffffffffffffffffffffff1660601b815260140182815260200193505050506040516020818303038152906040528051906020012060001c8161252957fe5b069050919050565b60035442018160020160006101000a81548163ffffffff021916908363ffffffff16021790555050565b60008082840190508361ffff168161ffff16101561257557fe5b8091505092915050565b600073ffffffffffffffffffffffffffffffffffffffff168173ffffffffffffffffffffffffffffffffffffffff1614156125b957600080fd5b8073ffffffffffffffffffffffffffffffffffffffff166000809054906101000a900473ffffffffffffffffffffffffffffffffffffffff1673ffffffffffffffffffffffffffffffffffffffff167f8be0079c531659141344cd1fd0a4f28419497f9722a3daafe3b4186f6b6457e060405160405180910390a3806000806101000a81548173ffffffffffffffffffffffffffffffffffffffff021916908373ffffffffffffffffffffffffffffffffffffffff16021790555050565b60008082840190508381101561268957fe5b809150509291505056fea265627a7a723158207eb3e32df6d00bd33bdeb336e42bac92f9433da78a132f0b5c4ac6d5e10f5de564736f6c63430005100032",
  "source": "// SPDX-License-Identifier: MIT\r\npragma solidity >=0.4.22 <0.9.0;\r\n\r\nimport \"./piecemigration.sol\";\r\nimport \"./safemath.sol\";\r\n\r\n\r\ncontract PieceMerging is PieceMigration {\r\n\r\n    using SafeMath16 for uint16;\r\n\r\n    uint mergeProbability = 95;\r\n    uint maxMerge = 1;\r\n    modifier onlyOwnerOfPiece(uint _pieceId) {\r\n        require(msg.sender == pieceToOwner[_pieceId]);\r\n        _;\r\n    }\r\n\r\n    function _triggerCd(Piece storage _piece) internal {\r\n        _piece.pieceReadyTime = uint32(block.timestamp + pieceCdTime);\r\n    }\r\n\r\n    function _isReady(Piece storage _piece) internal view returns (bool) {\r\n       return (_piece.pieceReadyTime <= block.timestamp);\r\n    }\r\n\r\n    uint mergeFee = 0.1 ether; //live tokens\r\n\r\n    function merge(uint _pieceId, uint _targetPieceId, uint256 _curr_loc) public onlyOwnerOfPiece(_pieceId) onlyOwnerOfPiece(_targetPieceId) payable {\r\n        Piece storage myPiece = pieces[_pieceId];\r\n        Piece storage targetPiece = pieces[_targetPieceId];\r\n        require(_isReady(myPiece));\r\n        require (_isReady(targetPiece));\r\n        require(msg.value == mergeFee);\r\n        uint newDna = (myPiece.pieceDna + targetPiece.pieceDna) / 2;\r\n        bytes32 newClass;\r\n        if ((((myPiece.pieceClass == keccak256(abi.encodePacked(\"Shoes\"))) && (targetPiece.pieceClass == keccak256(abi.encodePacked(\"Travel Paints\",targetPiece.pieceClass))))) || (((myPiece.pieceClass == keccak256(abi.encodePacked(\"Travel Paints\"))) && (targetPiece.pieceClass == keccak256(abi.encodePacked(\"Shoes\")))))) {\r\n            newClass = keccak256(abi.encodePacked(\"Painted Shoes\"));\r\n        }\r\n        if ((((myPiece.pieceClass == keccak256(abi.encodePacked(\"Socks\"))) && (targetPiece.pieceClass == keccak256(abi.encodePacked(\"Travel Paints\",targetPiece.pieceClass))))) || (((myPiece.pieceClass == keccak256(abi.encodePacked(\"Travel Paints\"))) && (targetPiece.pieceClass == keccak256(abi.encodePacked(\"Socks\")))))) {\r\n            newClass = keccak256(abi.encodePacked(\"Painted Socks\"));\r\n        }\r\n        if ((((myPiece.pieceClass == keccak256(abi.encodePacked(\"Pants\"))) && (targetPiece.pieceClass == keccak256(abi.encodePacked(\"Travel Paints\",targetPiece.pieceClass))))) || (((myPiece.pieceClass == keccak256(abi.encodePacked(\"Travel Paints\"))) && (targetPiece.pieceClass == keccak256(abi.encodePacked(\"Pants\")))))) {\r\n            newClass = keccak256(abi.encodePacked(\"Painted Pants\"));\r\n        }   \r\n        if ((((myPiece.pieceClass == keccak256(abi.encodePacked(\"Underwear\"))) && (targetPiece.pieceClass == keccak256(abi.encodePacked(\"Travel Paints\",targetPiece.pieceClass))))) || (((myPiece.pieceClass == keccak256(abi.encodePacked(\"Travel Paints\"))) && (targetPiece.pieceClass == keccak256(abi.encodePacked(\"Underwear\")))))) {\r\n            newClass = keccak256(abi.encodePacked(\"Painted Underwear\"));\r\n        }\r\n        if ((((myPiece.pieceClass == keccak256(abi.encodePacked(\"Shirt\"))) && (targetPiece.pieceClass == keccak256(abi.encodePacked(\"Travel Paints\",targetPiece.pieceClass))))) || (((myPiece.pieceClass == keccak256(abi.encodePacked(\"Travel Paints\"))) && (targetPiece.pieceClass == keccak256(abi.encodePacked(\"Shirt\")))))) {\r\n            newClass = keccak256(abi.encodePacked(\"Painted Shirt\"));\r\n        }\r\n        if ((((myPiece.pieceClass == keccak256(abi.encodePacked(\"Hoodie\"))) && (targetPiece.pieceClass == keccak256(abi.encodePacked(\"Travel Paints\",targetPiece.pieceClass))))) || (((myPiece.pieceClass == keccak256(abi.encodePacked(\"Travel Paints\"))) && (targetPiece.pieceClass == keccak256(abi.encodePacked(\"Hoodie\")))))) {\r\n            newClass = keccak256(abi.encodePacked(\"Painted Hoodie\"));\r\n        }\r\n        if ((((myPiece.pieceClass == keccak256(abi.encodePacked(\"Snapback\"))) && (targetPiece.pieceClass == keccak256(abi.encodePacked(\"Travel Paints\",targetPiece.pieceClass))))) || (((myPiece.pieceClass == keccak256(abi.encodePacked(\"Travel Paints\"))) && (targetPiece.pieceClass == keccak256(abi.encodePacked(\"Snapback\")))))) {\r\n            newClass = keccak256(abi.encodePacked(\"Painted Snapback\"));\r\n        }\r\n        //Complete posibilities\r\n        uint rand = randPieceMod(100);\r\n        if (rand <= mergeProbability && myPiece.mergeCount <= maxMerge) {\r\n            _createPiece(newClass, newDna, _curr_loc);\r\n            _triggerCd(myPiece);\r\n            _triggerCd(targetPiece);\r\n            myPiece.mergeCount = myPiece.mergeCount.add(1);\r\n            //burn old piece -> transfer to wallet without secret key\r\n        } if (rand > mergeProbability && myPiece.mergeCount <= maxMerge) {\r\n            _triggerCd(myPiece);\r\n            _triggerCd(targetPiece);\r\n        }\r\n    }\r\n}\r\n",
  "sourcePath": "C:\\Users\\pablo\\PycharmProjects\\LiveAndTravel\\contracts\\piecemerging.sol",
  "compiler": {
    "name": "solc",
    "version": "0.5.16+commit.9c3226ce.Emscripten.clang"
  },
  "schemaVersion": "3.4.4",
  "updatedAt": "2022-01-18T21:10:52.248Z",
  "devdoc": {
    "methods": {}
  },
  "userdoc": {
    "methods": {}
  }
}