{
  "contractName": "PieceMigration",
  "abi": [
    {
      "anonymous": false,
      "inputs": [
        {
          "indexed": false,
          "internalType": "uint256",
          "name": "pieceId",
          "type": "uint256"
        },
        {
          "indexed": false,
          "internalType": "uint256",
          "name": "pieceDna",
          "type": "uint256"
        },
        {
          "indexed": false,
          "internalType": "string",
          "name": "pieceName",
          "type": "string"
        },
        {
          "indexed": false,
          "internalType": "string",
          "name": "pieceSex",
          "type": "string"
        },
        {
          "indexed": false,
          "internalType": "bytes32",
          "name": "pieceClass",
          "type": "bytes32"
        },
        {
          "indexed": false,
          "internalType": "uint32",
          "name": "pieceReadyTime",
          "type": "uint32"
        },
        {
          "indexed": false,
          "internalType": "uint16",
          "name": "pieceLevel",
          "type": "uint16"
        },
        {
          "indexed": false,
          "internalType": "uint16",
          "name": "pieceLuck",
          "type": "uint16"
        },
        {
          "indexed": false,
          "internalType": "uint16",
          "name": "pieceInt",
          "type": "uint16"
        },
        {
          "indexed": false,
          "internalType": "uint16",
          "name": "pieceAgi",
          "type": "uint16"
        },
        {
          "indexed": false,
          "internalType": "uint16",
          "name": "pieceStr",
          "type": "uint16"
        },
        {
          "indexed": false,
          "internalType": "uint16",
          "name": "pieceSta",
          "type": "uint16"
        },
        {
          "indexed": false,
          "internalType": "uint16",
          "name": "pieceMergeCount",
          "type": "uint16"
        }
      ],
      "name": "NewPiece",
      "type": "event"
    },
    {
      "anonymous": false,
      "inputs": [
        {
          "indexed": true,
          "internalType": "address",
          "name": "previousOwner",
          "type": "address"
        },
        {
          "indexed": true,
          "internalType": "address",
          "name": "newOwner",
          "type": "address"
        }
      ],
      "name": "OwnershipTransferred",
      "type": "event"
    },
    {
      "inputs": [
        {
          "internalType": "string",
          "name": "_name",
          "type": "string"
        },
        {
          "internalType": "string",
          "name": "_sex",
          "type": "string"
        }
      ],
      "name": "createRandomPiece",
      "outputs": [],
      "stateMutability": "payable",
      "type": "function"
    },
    {
      "inputs": [],
      "name": "isOwner",
      "outputs": [
        {
          "internalType": "bool",
          "name": "",
          "type": "bool"
        }
      ],
      "stateMutability": "view",
      "type": "function"
    },
    {
      "inputs": [],
      "name": "owner",
      "outputs": [
        {
          "internalType": "address",
          "name": "",
          "type": "address"
        }
      ],
      "stateMutability": "view",
      "type": "function"
    },
    {
      "inputs": [
        {
          "internalType": "uint256",
          "name": "",
          "type": "uint256"
        }
      ],
      "name": "pieceToOwner",
      "outputs": [
        {
          "internalType": "address",
          "name": "",
          "type": "address"
        }
      ],
      "stateMutability": "view",
      "type": "function"
    },
    {
      "inputs": [
        {
          "internalType": "uint256",
          "name": "",
          "type": "uint256"
        }
      ],
      "name": "pieces",
      "outputs": [
        {
          "internalType": "uint256",
          "name": "pieceDna",
          "type": "uint256"
        },
        {
          "internalType": "string",
          "name": "pieceName",
          "type": "string"
        },
        {
          "internalType": "string",
          "name": "pieceSex",
          "type": "string"
        },
        {
          "internalType": "bytes32",
          "name": "pieceClass",
          "type": "bytes32"
        },
        {
          "internalType": "uint32",
          "name": "pieceReadyTime",
          "type": "uint32"
        },
        {
          "internalType": "uint16",
          "name": "pieceLevel",
          "type": "uint16"
        },
        {
          "internalType": "uint16",
          "name": "pieceLuck",
          "type": "uint16"
        },
        {
          "internalType": "uint16",
          "name": "pieceIntellect",
          "type": "uint16"
        },
        {
          "internalType": "uint16",
          "name": "pieceAgility",
          "type": "uint16"
        },
        {
          "internalType": "uint16",
          "name": "pieceStrength",
          "type": "uint16"
        },
        {
          "internalType": "uint16",
          "name": "pieceStamina",
          "type": "uint16"
        },
        {
          "internalType": "uint16",
          "name": "mergeCount",
          "type": "uint16"
        }
      ],
      "stateMutability": "view",
      "type": "function"
    },
    {
      "inputs": [],
      "name": "renounceOwnership",
      "outputs": [],
      "stateMutability": "nonpayable",
      "type": "function"
    },
    {
      "inputs": [
        {
          "internalType": "address",
          "name": "newOwner",
          "type": "address"
        }
      ],
      "name": "transferOwnership",
      "outputs": [],
      "stateMutability": "nonpayable",
      "type": "function"
    },
    {
      "inputs": [
        {
          "internalType": "address",
          "name": "_address",
          "type": "address"
        }
      ],
      "name": "setKittyContractAddress2",
      "outputs": [],
      "stateMutability": "nonpayable",
      "type": "function"
    },
    {
      "inputs": [
        {
          "internalType": "address",
          "name": "_address",
          "type": "address"
        }
      ],
      "name": "setCypherPunkContractAddress2",
      "outputs": [],
      "stateMutability": "nonpayable",
      "type": "function"
    },
    {
      "inputs": [
        {
          "internalType": "address",
          "name": "_address",
          "type": "address"
        }
      ],
      "name": "setBoredApeContractAddress2",
      "outputs": [],
      "stateMutability": "nonpayable",
      "type": "function"
    },
    {
      "inputs": [
        {
          "internalType": "uint256",
          "name": "_kittyId",
          "type": "uint256"
        }
      ],
      "name": "migrateKitty2",
      "outputs": [],
      "stateMutability": "payable",
      "type": "function"
    },
    {
      "inputs": [
        {
          "internalType": "uint256",
          "name": "_boredApeId",
          "type": "uint256"
        }
      ],
      "name": "migrateBoredApe2",
      "outputs": [],
      "stateMutability": "payable",
      "type": "function"
    },
    {
      "inputs": [
        {
          "internalType": "uint256",
          "name": "_cypherPunkId",
          "type": "uint256"
        }
      ],
      "name": "migrateCypherPunk2",
      "outputs": [],
      "stateMutability": "payable",
      "type": "function"
    }
  ],
  "bytecode": "0x60806040526010600155600154600a6200001a919062000291565b60025562015180600355670de0b6b3a764000060075560006008553480156200004257600080fd5b50336000806101000a81548173ffffffffffffffffffffffffffffffffffffffff021916908373ffffffffffffffffffffffffffffffffffffffff16021790555060008054906101000a900473ffffffffffffffffffffffffffffffffffffffff1673ffffffffffffffffffffffffffffffffffffffff16600073ffffffffffffffffffffffffffffffffffffffff167f8be0079c531659141344cd1fd0a4f28419497f9722a3daafe3b4186f6b6457e060405160405180910390a3620002e2565b7f4e487b7100000000000000000000000000000000000000000000000000000000600052601160045260246000fd5b60008160011c9050919050565b6000808291508390505b600185111562000192578086048111156200016a576200016962000104565b5b60018516156200017a5780820291505b80810290506200018a8562000133565b94506200014a565b94509492505050565b600082620001ad576001905062000280565b81620001bd576000905062000280565b8160018114620001d65760028114620001e15762000217565b600191505062000280565b60ff841115620001f657620001f562000104565b5b8360020a91508482111562000210576200020f62000104565b5b5062000280565b5060208310610133831016604e8410600b8410161715620002515782820a9050838111156200024b576200024a62000104565b5b62000280565b62000260848484600162000140565b925090508184048111156200027a576200027962000104565b5b81810290505b9392505050565b6000819050919050565b60006200029e8262000287565b9150620002ab8362000287565b9250620002da7fffffffffffffffffffffffffffffffffffffffffffffffffffffffffffffffff84846200019b565b905092915050565b611ea680620002f26000396000f3fe6080604052600436106100c25760003560e01c80638f64be301161007f578063e972150911610059578063e972150914610222578063f2fde38b1461024b578063f56fa8d414610274578063f5d976d1146102b1576100c2565b80638f64be3014610195578063a123663d146101dd578063be8deaa714610206576100c2565b80632415a313146100c75780636d86604e146100f0578063715018a61461010c5780638715404d146101235780638da5cb5b1461013f5780638f32d59b1461016a575b600080fd5b3480156100d357600080fd5b506100ee60048036038101906100e991906112c3565b6102cd565b005b61010a60048036038101906101059190611436565b610322565b005b34801561011857600080fd5b506101216103dd565b005b61013d600480360381019061013891906114e4565b6104ac565b005b34801561014b57600080fd5b506101546105d9565b6040516101619190611520565b60405180910390f35b34801561017657600080fd5b5061017f610602565b60405161018c9190611556565b60405180910390f35b3480156101a157600080fd5b506101bc60048036038101906101b791906114e4565b610659565b6040516101d49c9b9a9998979695949392919061165d565b60405180910390f35b3480156101e957600080fd5b5061020460048036038101906101ff91906112c3565b61084b565b005b610220600480360381019061021b91906114e4565b6108a0565b005b34801561022e57600080fd5b50610249600480360381019061024491906112c3565b6109cd565b005b34801561025757600080fd5b50610272600480360381019061026d91906112c3565b610a22565b005b34801561028057600080fd5b5061029b600480360381019061029691906114e4565b610a3f565b6040516102a89190611520565b60405180910390f35b6102cb60048036038101906102c691906114e4565b610a72565b005b6102d5610602565b6102de57600080fd5b80600b60006101000a81548173ffffffffffffffffffffffffffffffffffffffff021916908373ffffffffffffffffffffffffffffffffffffffff16021790555050565b600754341461033057600080fd5b6000600660003373ffffffffffffffffffffffffffffffffffffffff1673ffffffffffffffffffffffffffffffffffffffff168152602001908152602001600020541461037c57600080fd5b600060405160200161038d9061177c565b60405160208183030381529060405280519060200120905060006103b084610b9f565b90506064816103bf91906117c0565b816103ca9190611820565b90506103d7828483610be4565b50505050565b6103e5610602565b6103ee57600080fd5b600073ffffffffffffffffffffffffffffffffffffffff1660008054906101000a900473ffffffffffffffffffffffffffffffffffffffff1673ffffffffffffffffffffffffffffffffffffffff167f8be0079c531659141344cd1fd0a4f28419497f9722a3daafe3b4186f6b6457e060405160405180910390a360008060006101000a81548173ffffffffffffffffffffffffffffffffffffffff021916908373ffffffffffffffffffffffffffffffffffffffff160217905550565b60075434146104ba57600080fd5b60006040516020016104cb906118a0565b60405160208183030381529060405280519060200120905060006104ed610f97565b90506000600960009054906101000a900473ffffffffffffffffffffffffffffffffffffffff1673ffffffffffffffffffffffffffffffffffffffff166383ec865c856040518263ffffffff1660e01b815260040161054c91906118b5565b61014060405180830381865afa15801561056a573d6000803e3d6000fd5b505050506040513d601f19601f8201168201806040525081019061058e9190611911565b909192939495969798509091929394959697509091929394959650909192939495509091929394509091929350909192509091509050809150506105d3838383610be4565b50505050565b60008060009054906101000a900473ffffffffffffffffffffffffffffffffffffffff16905090565b60008060009054906101000a900473ffffffffffffffffffffffffffffffffffffffff1673ffffffffffffffffffffffffffffffffffffffff163373ffffffffffffffffffffffffffffffffffffffff1614905090565b6004818154811061066957600080fd5b906000526020600020906005020160009150905080600001549080600101805461069290611a1f565b80601f01602080910402602001604051908101604052809291908181526020018280546106be90611a1f565b801561070b5780601f106106e05761010080835404028352916020019161070b565b820191906000526020600020905b8154815290600101906020018083116106ee57829003601f168201915b50505050509080600201805461072090611a1f565b80601f016020809104026020016040519081016040528092919081815260200182805461074c90611a1f565b80156107995780601f1061076e57610100808354040283529160200191610799565b820191906000526020600020905b81548152906001019060200180831161077c57829003601f168201915b5050505050908060030154908060040160009054906101000a900463ffffffff16908060040160049054906101000a900461ffff16908060040160069054906101000a900461ffff16908060040160089054906101000a900461ffff169080600401600a9054906101000a900461ffff169080600401600c9054906101000a900461ffff169080600401600e9054906101000a900461ffff16908060040160109054906101000a900461ffff1690508c565b610853610602565b61085c57600080fd5b80600a60006101000a81548173ffffffffffffffffffffffffffffffffffffffff021916908373ffffffffffffffffffffffffffffffffffffffff16021790555050565b60075434146108ae57600080fd5b60006040516020016108bf90611a9d565b60405160208183030381529060405280519060200120905060006108e1610f97565b90506000600a60009054906101000a900473ffffffffffffffffffffffffffffffffffffffff1673ffffffffffffffffffffffffffffffffffffffff166398d8a78a856040518263ffffffff1660e01b815260040161094091906118b5565b61014060405180830381865afa15801561095e573d6000803e3d6000fd5b505050506040513d601f19601f820116820180604052508101906109829190611911565b909192939495969798509091929394959697509091929394959650909192939495509091929394509091929350909192509091509050809150506109c7838383610be4565b50505050565b6109d5610602565b6109de57600080fd5b80600960006101000a81548173ffffffffffffffffffffffffffffffffffffffff021916908373ffffffffffffffffffffffffffffffffffffffff16021790555050565b610a2a610602565b610a3357600080fd5b610a3c8161102f565b50565b60056020528060005260406000206000915054906101000a900473ffffffffffffffffffffffffffffffffffffffff1681565b6007543414610a8057600080fd5b6000604051602001610a9190611afe565b6040516020818303038152906040528051906020012090506000610ab3610f97565b90506000600b60009054906101000a900473ffffffffffffffffffffffffffffffffffffffff1673ffffffffffffffffffffffffffffffffffffffff1663828bc59a856040518263ffffffff1660e01b8152600401610b1291906118b5565b61014060405180830381865afa158015610b30573d6000803e3d6000fd5b505050506040513d601f19601f82011682018060405250810190610b549190611911565b90919293949596979850909192939495969750909192939495965090919293949550909192939450909192935090919250909150905080915050610b99838383610be4565b50505050565b60008082604051602001610bb39190611b44565b6040516020818303038152906040528051906020012060001c905060025481610bdc91906117c0565b915050919050565b600060035442610bf49190611b5b565b905060046040518061018001604052808481526020016040518060400160405280600681526020017f4e6f4e616d65000000000000000000000000000000000000000000000000000081525081526020018581526020018681526020018363ffffffff168152602001600161ffff168152602001600161ffff168152602001600161ffff168152602001600161ffff168152602001600161ffff168152602001600161ffff168152602001600061ffff168152509080600181540180825580915050600190039060005260206000209060050201600090919091909150600082015181600001556020820151816001019080519060200190610cf79291906111ae565b506040820151816002019080519060200190610d149291906111ae565b506060820151816003015560808201518160040160006101000a81548163ffffffff021916908363ffffffff16021790555060a08201518160040160046101000a81548161ffff021916908361ffff16021790555060c08201518160040160066101000a81548161ffff021916908361ffff16021790555060e08201518160040160086101000a81548161ffff021916908361ffff16021790555061010082015181600401600a6101000a81548161ffff021916908361ffff16021790555061012082015181600401600c6101000a81548161ffff021916908361ffff16021790555061014082015181600401600e6101000a81548161ffff021916908361ffff1602179055506101608201518160040160106101000a81548161ffff021916908361ffff160217905550505060006001600480549050610e559190611820565b9050336005600083815260200190815260200160002060006101000a81548173ffffffffffffffffffffffffffffffffffffffff021916908373ffffffffffffffffffffffffffffffffffffffff160217905550610efc6001600660003373ffffffffffffffffffffffffffffffffffffffff1673ffffffffffffffffffffffffffffffffffffffff1681526020019081526020016000205461112690919063ffffffff16565b600660003373ffffffffffffffffffffffffffffffffffffffff1673ffffffffffffffffffffffffffffffffffffffff168152602001908152602001600020819055507f8c0ab4f733626b70a14feffd2077d631c06ed4a29b41dd5d93c852a5312c398b81848688866001806001806001806000604051610f889c9b9a99989796959493929190611c7d565b60405180910390a15050505050565b6060600060329050606081610fac6064611152565b11610fee576040518060400160405280600481526020017f6d616c65000000000000000000000000000000000000000000000000000000008152509050611027565b6040518060400160405280600681526020017f66656d616c65000000000000000000000000000000000000000000000000000081525090505b809250505090565b600073ffffffffffffffffffffffffffffffffffffffff168173ffffffffffffffffffffffffffffffffffffffff16141561106957600080fd5b8073ffffffffffffffffffffffffffffffffffffffff1660008054906101000a900473ffffffffffffffffffffffffffffffffffffffff1673ffffffffffffffffffffffffffffffffffffffff167f8be0079c531659141344cd1fd0a4f28419497f9722a3daafe3b4186f6b6457e060405160405180910390a3806000806101000a81548173ffffffffffffffffffffffffffffffffffffffff021916908373ffffffffffffffffffffffffffffffffffffffff16021790555050565b60008082846111359190611b5b565b90508381101561114857611147611d52565b5b8091505092915050565b60006008600081548092919061116790611d81565b919050555081423360085460405160200161118493929190611e33565b6040516020818303038152906040528051906020012060001c6111a791906117c0565b9050919050565b8280546111ba90611a1f565b90600052602060002090601f0160209004810192826111dc5760008555611223565b82601f106111f557805160ff1916838001178555611223565b82800160010185558215611223579182015b82811115611222578251825591602001919060010190611207565b5b5090506112309190611234565b5090565b5b8082111561124d576000816000905550600101611235565b5090565b6000604051905090565b600080fd5b600080fd5b600073ffffffffffffffffffffffffffffffffffffffff82169050919050565b600061129082611265565b9050919050565b6112a081611285565b81146112ab57600080fd5b50565b6000813590506112bd81611297565b92915050565b6000602082840312156112d9576112d861125b565b5b60006112e7848285016112ae565b91505092915050565b600080fd5b600080fd5b6000601f19601f8301169050919050565b7f4e487b7100000000000000000000000000000000000000000000000000000000600052604160045260246000fd5b611343826112fa565b810181811067ffffffffffffffff821117156113625761136161130b565b5b80604052505050565b6000611375611251565b9050611381828261133a565b919050565b600067ffffffffffffffff8211156113a1576113a061130b565b5b6113aa826112fa565b9050602081019050919050565b82818337600083830152505050565b60006113d96113d484611386565b61136b565b9050828152602081018484840111156113f5576113f46112f5565b5b6114008482856113b7565b509392505050565b600082601f83011261141d5761141c6112f0565b5b813561142d8482602086016113c6565b91505092915050565b6000806040838503121561144d5761144c61125b565b5b600083013567ffffffffffffffff81111561146b5761146a611260565b5b61147785828601611408565b925050602083013567ffffffffffffffff81111561149857611497611260565b5b6114a485828601611408565b9150509250929050565b6000819050919050565b6114c1816114ae565b81146114cc57600080fd5b50565b6000813590506114de816114b8565b92915050565b6000602082840312156114fa576114f961125b565b5b6000611508848285016114cf565b91505092915050565b61151a81611285565b82525050565b60006020820190506115356000830184611511565b92915050565b60008115159050919050565b6115508161153b565b82525050565b600060208201905061156b6000830184611547565b92915050565b61157a816114ae565b82525050565b600081519050919050565b600082825260208201905092915050565b60005b838110156115ba57808201518184015260208101905061159f565b838111156115c9576000848401525b50505050565b60006115da82611580565b6115e4818561158b565b93506115f481856020860161159c565b6115fd816112fa565b840191505092915050565b6000819050919050565b61161b81611608565b82525050565b600063ffffffff82169050919050565b61163a81611621565b82525050565b600061ffff82169050919050565b61165781611640565b82525050565b600061018082019050611673600083018f611571565b8181036020830152611685818e6115cf565b90508181036040830152611699818d6115cf565b90506116a8606083018c611612565b6116b5608083018b611631565b6116c260a083018a61164e565b6116cf60c083018961164e565b6116dc60e083018861164e565b6116ea61010083018761164e565b6116f861012083018661164e565b61170661014083018561164e565b61171461016083018461164e565b9d9c50505050505050505050505050565b600081905092915050565b7f74726176656c6572000000000000000000000000000000000000000000000000600082015250565b6000611766600883611725565b915061177182611730565b600882019050919050565b600061178782611759565b9150819050919050565b7f4e487b7100000000000000000000000000000000000000000000000000000000600052601260045260246000fd5b60006117cb826114ae565b91506117d6836114ae565b9250826117e6576117e5611791565b5b828206905092915050565b7f4e487b7100000000000000000000000000000000000000000000000000000000600052601160045260246000fd5b600061182b826114ae565b9150611836836114ae565b925082821015611849576118486117f1565b5b828203905092915050565b7f6b69747479000000000000000000000000000000000000000000000000000000600082015250565b600061188a600583611725565b915061189582611854565b600582019050919050565b60006118ab8261187d565b9150819050919050565b60006020820190506118ca6000830184611571565b92915050565b6118d98161153b565b81146118e457600080fd5b50565b6000815190506118f6816118d0565b92915050565b60008151905061190b816114b8565b92915050565b6000806000806000806000806000806101408b8d0312156119355761193461125b565b5b60006119438d828e016118e7565b9a505060206119548d828e016118e7565b99505060406119658d828e016118fc565b98505060606119768d828e016118fc565b97505060806119878d828e016118fc565b96505060a06119988d828e016118fc565b95505060c06119a98d828e016118fc565b94505060e06119ba8d828e016118fc565b9350506101006119cc8d828e016118fc565b9250506101206119de8d828e016118fc565b9150509295989b9194979a5092959850565b7f4e487b7100000000000000000000000000000000000000000000000000000000600052602260045260246000fd5b60006002820490506001821680611a3757607f821691505b60208210811415611a4b57611a4a6119f0565b5b50919050565b7f63797068657250756e6b00000000000000000000000000000000000000000000600082015250565b6000611a87600a83611725565b9150611a9282611a51565b600a82019050919050565b6000611aa882611a7a565b9150819050919050565b7f626f726564417065000000000000000000000000000000000000000000000000600082015250565b6000611ae8600883611725565b9150611af382611ab2565b600882019050919050565b6000611b0982611adb565b9150819050919050565b6000611b1e82611580565b611b288185611725565b9350611b3881856020860161159c565b80840191505092915050565b6000611b508284611b13565b915081905092915050565b6000611b66826114ae565b9150611b71836114ae565b9250827fffffffffffffffffffffffffffffffffffffffffffffffffffffffffffffffff03821115611ba657611ba56117f1565b5b828201905092915050565b7f4e6f4e616d650000000000000000000000000000000000000000000000000000600082015250565b6000611be760068361158b565b9150611bf282611bb1565b602082019050919050565b6000819050919050565b6000819050919050565b6000611c2c611c27611c2284611bfd565b611c07565b611640565b9050919050565b611c3c81611c11565b82525050565b6000819050919050565b6000611c67611c62611c5d84611c42565b611c07565b611640565b9050919050565b611c7781611c4c565b82525050565b60006101a082019050611c93600083018f611571565b611ca0602083018e611571565b8181036040830152611cb181611bda565b90508181036060830152611cc5818d6115cf565b9050611cd4608083018c611612565b611ce160a083018b611631565b611cee60c083018a611c33565b611cfb60e0830189611c33565b611d09610100830188611c33565b611d17610120830187611c33565b611d25610140830186611c33565b611d33610160830185611c33565b611d41610180830184611c6e565b9d9c50505050505050505050505050565b7f4e487b7100000000000000000000000000000000000000000000000000000000600052600160045260246000fd5b6000611d8c826114ae565b91507fffffffffffffffffffffffffffffffffffffffffffffffffffffffffffffffff821415611dbf57611dbe6117f1565b5b600182019050919050565b6000819050919050565b611de5611de0826114ae565b611dca565b82525050565b60008160601b9050919050565b6000611e0382611deb565b9050919050565b6000611e1582611df8565b9050919050565b611e2d611e2882611285565b611e0a565b82525050565b6000611e3f8286611dd4565b602082019150611e4f8285611e1c565b601482019150611e5f8284611dd4565b60208201915081905094935050505056fea264697066735822122088d100cf29a631725403b0b8f000f3a6fc8b1e9c108f26246af6065e71451efb64736f6c634300080a0033",
  "immutableReferences": {},
  "source": "// SPDX-License-Identifier: MIT\r\npragma solidity >=0.4.22 <0.9.0;\r\n\r\nimport \"./piecefactory.sol\";\r\n\r\n//Examples of mapping different qualities of the piece/class that is going to be the couple to our piece from: NFT collections, other Games, etc.\r\n//Example: Qualities from crypto kitties\r\nabstract contract KittyInterface2 {\r\n\r\n    function getKitty2(uint256 _id) external virtual view returns (\r\n        bool isGestating,\r\n        bool isReady,\r\n        uint256 cooldownIndex,\r\n        uint256 nextActionAt,\r\n        uint256 siringWithId,\r\n        uint256 birthTime,\r\n        uint256 matronId,\r\n        uint256 sireId,\r\n        uint256 generation,\r\n        uint256 genes\r\n    );\r\n}\r\n//modify\r\nabstract contract CypherPunkInterface2 {\r\n\r\n    function getCypherPunk2(uint256 _id) external virtual view returns (\r\n        bool isGestating,\r\n        bool isReady,\r\n        uint256 cooldownIndex,\r\n        uint256 nextActionAt,\r\n        uint256 siringWithId,\r\n        uint256 birthTime,\r\n        uint256 matronId,\r\n        uint256 sireId,\r\n        uint256 generation,\r\n        uint256 genes\r\n    );\r\n}\r\n//modify\r\nabstract contract BoredApeInterface2 {\r\n\r\n    function getBoredApe2(uint256 _id) external virtual view returns (\r\n        bool isGestating,\r\n        bool isReady,\r\n        uint256 cooldownIndex,\r\n        uint256 nextActionAt,\r\n        uint256 siringWithId,\r\n        uint256 birthTime,\r\n        uint256 matronId,\r\n        uint256 sireId,\r\n        uint256 generation,\r\n        uint256 genes\r\n    );\r\n}\r\n\r\ncontract PieceMigration is PieceFactory {\r\n\r\n     KittyInterface2 kittyContract2;\r\n     CypherPunkInterface2 cypherPunkContract2;\r\n     BoredApeInterface2 boredApeContract2;\r\n\r\n    function setKittyContractAddress2(address _address) external onlyOwner {\r\n        kittyContract2 = KittyInterface2(_address);\r\n    }\r\n\r\n    function setCypherPunkContractAddress2(address _address) external onlyOwner {\r\n        cypherPunkContract2 = CypherPunkInterface2(_address);\r\n    }\r\n\r\n    function setBoredApeContractAddress2(address _address) external onlyOwner {\r\n        boredApeContract2 = BoredApeInterface2(_address);\r\n    }\r\n\r\n    function migrateKitty2(uint _kittyId) public payable {\r\n        require(msg.value == pieceCreationFee);\r\n        bytes32 _class = keccak256(abi.encodePacked(\"kitty\"));\r\n        string memory _sex = _randSex();\r\n        uint _dna;\r\n        (,,,,,,,,,_dna) = kittyContract2.getKitty2(_kittyId);\r\n        _createPiece(_class, _sex, _dna);\r\n    }\r\n\r\n    function migrateBoredApe2(uint _boredApeId) public payable {\r\n        require(msg.value == pieceCreationFee);\r\n        bytes32 _class = keccak256(abi.encodePacked(\"boredApe\"));\r\n        string memory _sex = _randSex();\r\n        uint _dna;\r\n        (,,,,,,,,,_dna) = boredApeContract2.getBoredApe2(_boredApeId);\r\n        _createPiece(_class, _sex, _dna);\r\n    }\r\n\r\n\r\n    function migrateCypherPunk2(uint _cypherPunkId) public payable {\r\n        require(msg.value == pieceCreationFee);\r\n        bytes32 _class = keccak256(abi.encodePacked(\"cypherPunk\"));\r\n        string memory _sex = _randSex();\r\n        uint _dna;\r\n        (,,,,,,,,,_dna) = cypherPunkContract2.getCypherPunk2(_cypherPunkId);\r\n        _createPiece(_class, _sex, _dna);\r\n    }\r\n}",
  "sourcePath": "C:\\Users\\pablo\\PycharmProjects\\LiveAndTravel\\contracts\\piecemigration.sol",
  "compiler": {
    "name": "solc",
    "version": "0.8.10+commit.fc410830.Emscripten.clang"
  },
  "schemaVersion": "3.4.4",
  "updatedAt": "2021-12-30T16:56:21.546Z",
  "devdoc": {
    "kind": "dev",
    "methods": {},
    "version": 1
  },
  "userdoc": {
    "kind": "user",
    "methods": {},
    "version": 1
  }
}