{
  "contractName": "PieceMigration",
  "abi": [
    {
      "anonymous": false,
      "inputs": [
        {
          "indexed": false,
          "internalType": "uint256",
          "name": "pieceId",
          "type": "uint256"
        },
        {
          "indexed": false,
          "internalType": "uint256",
          "name": "pieceDna",
          "type": "uint256"
        },
        {
          "indexed": false,
          "internalType": "bytes32",
          "name": "pieceClass",
          "type": "bytes32"
        },
        {
          "indexed": false,
          "internalType": "uint32",
          "name": "pieceReadyTime",
          "type": "uint32"
        },
        {
          "indexed": false,
          "internalType": "uint256",
          "name": "pieceCreationLoc",
          "type": "uint256"
        },
        {
          "indexed": false,
          "internalType": "uint16",
          "name": "pieceMergeCount",
          "type": "uint16"
        }
      ],
      "name": "NewPiece",
      "type": "event"
    },
    {
      "anonymous": false,
      "inputs": [
        {
          "indexed": true,
          "internalType": "address",
          "name": "previousOwner",
          "type": "address"
        },
        {
          "indexed": true,
          "internalType": "address",
          "name": "newOwner",
          "type": "address"
        }
      ],
      "name": "OwnershipTransferred",
      "type": "event"
    },
    {
      "inputs": [],
      "name": "isOwner",
      "outputs": [
        {
          "internalType": "bool",
          "name": "",
          "type": "bool"
        }
      ],
      "stateMutability": "view",
      "type": "function"
    },
    {
      "inputs": [],
      "name": "owner",
      "outputs": [
        {
          "internalType": "address",
          "name": "",
          "type": "address"
        }
      ],
      "stateMutability": "view",
      "type": "function"
    },
    {
      "inputs": [
        {
          "internalType": "uint256",
          "name": "",
          "type": "uint256"
        }
      ],
      "name": "pieceToOwner",
      "outputs": [
        {
          "internalType": "address",
          "name": "",
          "type": "address"
        }
      ],
      "stateMutability": "view",
      "type": "function"
    },
    {
      "inputs": [
        {
          "internalType": "uint256",
          "name": "",
          "type": "uint256"
        }
      ],
      "name": "pieces",
      "outputs": [
        {
          "internalType": "uint256",
          "name": "pieceDna",
          "type": "uint256"
        },
        {
          "internalType": "bytes32",
          "name": "pieceClass",
          "type": "bytes32"
        },
        {
          "internalType": "uint32",
          "name": "pieceReadyTime",
          "type": "uint32"
        },
        {
          "internalType": "uint256",
          "name": "pieceCreationLoc",
          "type": "uint256"
        },
        {
          "internalType": "uint16",
          "name": "mergeCount",
          "type": "uint16"
        }
      ],
      "stateMutability": "view",
      "type": "function"
    },
    {
      "inputs": [],
      "name": "renounceOwnership",
      "outputs": [],
      "stateMutability": "nonpayable",
      "type": "function"
    },
    {
      "inputs": [
        {
          "internalType": "address",
          "name": "newOwner",
          "type": "address"
        }
      ],
      "name": "transferOwnership",
      "outputs": [],
      "stateMutability": "nonpayable",
      "type": "function"
    },
    {
      "inputs": [
        {
          "internalType": "address",
          "name": "_address",
          "type": "address"
        }
      ],
      "name": "setShoesContractAddress",
      "outputs": [],
      "stateMutability": "nonpayable",
      "type": "function"
    },
    {
      "inputs": [
        {
          "internalType": "address",
          "name": "_address",
          "type": "address"
        }
      ],
      "name": "setSocksContractAddress",
      "outputs": [],
      "stateMutability": "nonpayable",
      "type": "function"
    },
    {
      "inputs": [
        {
          "internalType": "address",
          "name": "_address",
          "type": "address"
        }
      ],
      "name": "setPantsContractAddress",
      "outputs": [],
      "stateMutability": "nonpayable",
      "type": "function"
    },
    {
      "inputs": [
        {
          "internalType": "address",
          "name": "_address",
          "type": "address"
        }
      ],
      "name": "setUnderwearContractAddress",
      "outputs": [],
      "stateMutability": "nonpayable",
      "type": "function"
    },
    {
      "inputs": [
        {
          "internalType": "address",
          "name": "_address",
          "type": "address"
        }
      ],
      "name": "setShirtContractAddress",
      "outputs": [],
      "stateMutability": "nonpayable",
      "type": "function"
    },
    {
      "inputs": [
        {
          "internalType": "address",
          "name": "_address",
          "type": "address"
        }
      ],
      "name": "setHoodieContractAddress",
      "outputs": [],
      "stateMutability": "nonpayable",
      "type": "function"
    },
    {
      "inputs": [
        {
          "internalType": "address",
          "name": "_address",
          "type": "address"
        }
      ],
      "name": "setSnapbackContractAddress",
      "outputs": [],
      "stateMutability": "nonpayable",
      "type": "function"
    },
    {
      "inputs": [
        {
          "internalType": "uint256",
          "name": "_itemId",
          "type": "uint256"
        },
        {
          "internalType": "uint256",
          "name": "_curr_loc",
          "type": "uint256"
        }
      ],
      "name": "migrateShoesItem",
      "outputs": [],
      "stateMutability": "payable",
      "type": "function"
    },
    {
      "inputs": [
        {
          "internalType": "uint256",
          "name": "_itemId",
          "type": "uint256"
        },
        {
          "internalType": "uint256",
          "name": "_curr_loc",
          "type": "uint256"
        }
      ],
      "name": "migrateSocksItem",
      "outputs": [],
      "stateMutability": "payable",
      "type": "function"
    },
    {
      "inputs": [
        {
          "internalType": "uint256",
          "name": "_itemId",
          "type": "uint256"
        },
        {
          "internalType": "uint256",
          "name": "_curr_loc",
          "type": "uint256"
        }
      ],
      "name": "migratePantsItem",
      "outputs": [],
      "stateMutability": "payable",
      "type": "function"
    },
    {
      "inputs": [
        {
          "internalType": "uint256",
          "name": "_itemId",
          "type": "uint256"
        },
        {
          "internalType": "uint256",
          "name": "_curr_loc",
          "type": "uint256"
        }
      ],
      "name": "migrateUnderwearItem",
      "outputs": [],
      "stateMutability": "payable",
      "type": "function"
    },
    {
      "inputs": [
        {
          "internalType": "uint256",
          "name": "_itemId",
          "type": "uint256"
        },
        {
          "internalType": "uint256",
          "name": "_curr_loc",
          "type": "uint256"
        }
      ],
      "name": "migrateShirtItem",
      "outputs": [],
      "stateMutability": "payable",
      "type": "function"
    },
    {
      "inputs": [
        {
          "internalType": "uint256",
          "name": "_itemId",
          "type": "uint256"
        },
        {
          "internalType": "uint256",
          "name": "_curr_loc",
          "type": "uint256"
        }
      ],
      "name": "migrateSnapbackItem",
      "outputs": [],
      "stateMutability": "payable",
      "type": "function"
    }
  ],
  "bytecode": "0x60806040526010600155600154600a6200001a919062000291565b600255620151806003556000600755670de0b6b3a76400006008553480156200004257600080fd5b50336000806101000a81548173ffffffffffffffffffffffffffffffffffffffff021916908373ffffffffffffffffffffffffffffffffffffffff16021790555060008054906101000a900473ffffffffffffffffffffffffffffffffffffffff1673ffffffffffffffffffffffffffffffffffffffff16600073ffffffffffffffffffffffffffffffffffffffff167f8be0079c531659141344cd1fd0a4f28419497f9722a3daafe3b4186f6b6457e060405160405180910390a3620002e2565b7f4e487b7100000000000000000000000000000000000000000000000000000000600052601160045260246000fd5b60008160011c9050919050565b6000808291508390505b600185111562000192578086048111156200016a576200016962000104565b5b60018516156200017a5780820291505b80810290506200018a8562000133565b94506200014a565b94509492505050565b600082620001ad576001905062000280565b81620001bd576000905062000280565b8160018114620001d65760028114620001e15762000217565b600191505062000280565b60ff841115620001f657620001f562000104565b5b8360020a91508482111562000210576200020f62000104565b5b5062000280565b5060208310610133831016604e8410600b8410161715620002515782820a9050838111156200024b576200024a62000104565b5b62000280565b62000260848484600162000140565b925090508184048111156200027a576200027962000104565b5b81810290505b9392505050565b6000819050919050565b60006200029e8262000287565b9150620002ab8362000287565b9250620002da7fffffffffffffffffffffffffffffffffffffffffffffffffffffffffffffffff84846200019b565b905092915050565b61195280620002f26000396000f3fe6080604052600436106101145760003560e01c80638c081f5d116100a0578063cd90cb9811610064578063cd90cb981461032d578063cfd720ec14610349578063e14d485b14610365578063f2fde38b1461038e578063f56fa8d4146103b757610114565b80638c081f5d146102515780638da5cb5b1461027a5780638f32d59b146102a55780638f64be30146102d0578063c78309f51461031157610114565b80634f1b3e3e116100e75780634f1b3e3e146101a35780636c492f3d146101cc578063715018a6146101f55780637a43061f1461020c5780637be418141461022857610114565b80631507a33114610119578063241ec36d1461013557806327f1a4f31461015e5780634720833f14610187575b600080fd5b610133600480360381019061012e919061121c565b6103f4565b005b34801561014157600080fd5b5061015c600480360381019061015791906112ba565b610502565b005b34801561016a57600080fd5b50610185600480360381019061018091906112ba565b610557565b005b6101a1600480360381019061019c919061121c565b6105ac565b005b3480156101af57600080fd5b506101ca60048036038101906101c591906112ba565b6106ba565b005b3480156101d857600080fd5b506101f360048036038101906101ee91906112ba565b61070f565b005b34801561020157600080fd5b5061020a610764565b005b6102266004803603810190610221919061121c565b610833565b005b34801561023457600080fd5b5061024f600480360381019061024a91906112ba565b610941565b005b34801561025d57600080fd5b50610278600480360381019061027391906112ba565b610996565b005b34801561028657600080fd5b5061028f6109eb565b60405161029c91906112f6565b60405180910390f35b3480156102b157600080fd5b506102ba610a14565b6040516102c7919061132c565b60405180910390f35b3480156102dc57600080fd5b506102f760048036038101906102f29190611347565b610a6b565b6040516103089594939291906113d8565b60405180910390f35b61032b6004803603810190610326919061121c565b610acf565b005b6103476004803603810190610342919061121c565b610bdd565b005b610363600480360381019061035e919061121c565b610ceb565b005b34801561037157600080fd5b5061038c600480360381019061038791906112ba565b610df9565b005b34801561039a57600080fd5b506103b560048036038101906103b091906112ba565b610e4e565b005b3480156103c357600080fd5b506103de60048036038101906103d99190611347565b610e6b565b6040516103eb91906112f6565b60405180910390f35b600854341461040257600080fd5b600060405160200161041390611482565b6040516020818303038152906040528051906020012090506000600b60009054906101000a900473ffffffffffffffffffffffffffffffffffffffff1673ffffffffffffffffffffffffffffffffffffffff16634337932d856040518263ffffffff1660e01b81526004016104889190611497565b61010060405180830381865afa1580156104a6573d6000803e3d6000fd5b505050506040513d601f19601f820116820180604052508101906104ca91906114f3565b9091929394959650909192939495509091929394509091929350909192509091509050809150506104fc828285610e9e565b50505050565b61050a610a14565b61051357600080fd5b80600b60006101000a81548173ffffffffffffffffffffffffffffffffffffffff021916908373ffffffffffffffffffffffffffffffffffffffff16021790555050565b61055f610a14565b61056857600080fd5b80600c60006101000a81548173ffffffffffffffffffffffffffffffffffffffff021916908373ffffffffffffffffffffffffffffffffffffffff16021790555050565b60085434146105ba57600080fd5b60006040516020016105cb906115f5565b6040516020818303038152906040528051906020012090506000600d60009054906101000a900473ffffffffffffffffffffffffffffffffffffffff1673ffffffffffffffffffffffffffffffffffffffff16634c9c05ea856040518263ffffffff1660e01b81526004016106409190611497565b61010060405180830381865afa15801561065e573d6000803e3d6000fd5b505050506040513d601f19601f8201168201806040525081019061068291906114f3565b9091929394959650909192939495509091929394509091929350909192509091509050809150506106b4828285610e9e565b50505050565b6106c2610a14565b6106cb57600080fd5b80600f60006101000a81548173ffffffffffffffffffffffffffffffffffffffff021916908373ffffffffffffffffffffffffffffffffffffffff16021790555050565b610717610a14565b61072057600080fd5b80600a60006101000a81548173ffffffffffffffffffffffffffffffffffffffff021916908373ffffffffffffffffffffffffffffffffffffffff16021790555050565b61076c610a14565b61077557600080fd5b600073ffffffffffffffffffffffffffffffffffffffff1660008054906101000a900473ffffffffffffffffffffffffffffffffffffffff1673ffffffffffffffffffffffffffffffffffffffff167f8be0079c531659141344cd1fd0a4f28419497f9722a3daafe3b4186f6b6457e060405160405180910390a360008060006101000a81548173ffffffffffffffffffffffffffffffffffffffff021916908373ffffffffffffffffffffffffffffffffffffffff160217905550565b600854341461084157600080fd5b600060405160200161085290611656565b6040516020818303038152906040528051906020012090506000600d60009054906101000a900473ffffffffffffffffffffffffffffffffffffffff1673ffffffffffffffffffffffffffffffffffffffff16634c9c05ea856040518263ffffffff1660e01b81526004016108c79190611497565b61010060405180830381865afa1580156108e5573d6000803e3d6000fd5b505050506040513d601f19601f8201168201806040525081019061090991906114f3565b90919293949596509091929394955090919293945090919293509091925090915090508091505061093b828285610e9e565b50505050565b610949610a14565b61095257600080fd5b80600d60006101000a81548173ffffffffffffffffffffffffffffffffffffffff021916908373ffffffffffffffffffffffffffffffffffffffff16021790555050565b61099e610a14565b6109a757600080fd5b80600960006101000a81548173ffffffffffffffffffffffffffffffffffffffff021916908373ffffffffffffffffffffffffffffffffffffffff16021790555050565b60008060009054906101000a900473ffffffffffffffffffffffffffffffffffffffff16905090565b60008060009054906101000a900473ffffffffffffffffffffffffffffffffffffffff1673ffffffffffffffffffffffffffffffffffffffff163373ffffffffffffffffffffffffffffffffffffffff1614905090565b60048181548110610a7b57600080fd5b90600052602060002090600502016000915090508060000154908060010154908060020160009054906101000a900463ffffffff16908060030154908060040160009054906101000a900461ffff16905085565b6008543414610add57600080fd5b6000604051602001610aee906116b7565b6040516020818303038152906040528051906020012090506000600960009054906101000a900473ffffffffffffffffffffffffffffffffffffffff1673ffffffffffffffffffffffffffffffffffffffff1663a5f23e1d856040518263ffffffff1660e01b8152600401610b639190611497565b61010060405180830381865afa158015610b81573d6000803e3d6000fd5b505050506040513d601f19601f82011682018060405250810190610ba591906114f3565b909192939495965090919293949550909192939450909192935090919250909150905080915050610bd7828285610e9e565b50505050565b6008543414610beb57600080fd5b6000604051602001610bfc90611718565b6040516020818303038152906040528051906020012090506000600c60009054906101000a900473ffffffffffffffffffffffffffffffffffffffff1673ffffffffffffffffffffffffffffffffffffffff166325f76202856040518263ffffffff1660e01b8152600401610c719190611497565b61010060405180830381865afa158015610c8f573d6000803e3d6000fd5b505050506040513d601f19601f82011682018060405250810190610cb391906114f3565b909192939495965090919293949550909192939450909192935090919250909150905080915050610ce5828285610e9e565b50505050565b6008543414610cf957600080fd5b6000604051602001610d0a90611779565b6040516020818303038152906040528051906020012090506000600a60009054906101000a900473ffffffffffffffffffffffffffffffffffffffff1673ffffffffffffffffffffffffffffffffffffffff1663ee5394de856040518263ffffffff1660e01b8152600401610d7f9190611497565b61010060405180830381865afa158015610d9d573d6000803e3d6000fd5b505050506040513d601f19601f82011682018060405250810190610dc191906114f3565b909192939495965090919293949550909192939450909192935090919250909150905080915050610df3828285610e9e565b50505050565b610e01610a14565b610e0a57600080fd5b80600e60006101000a81548173ffffffffffffffffffffffffffffffffffffffff021916908373ffffffffffffffffffffffffffffffffffffffff16021790555050565b610e56610a14565b610e5f57600080fd5b610e68816110be565b50565b60056020528060005260406000206000915054906101000a900473ffffffffffffffffffffffffffffffffffffffff1681565b600060035442610eae91906117bd565b905060046040518060a001604052808581526020018681526020018363ffffffff168152602001848152602001600061ffff168152509080600181540180825580915050600190039060005260206000209060050201600090919091909150600082015181600001556020820151816001015560408201518160020160006101000a81548163ffffffff021916908363ffffffff1602179055506060820151816003015560808201518160040160006101000a81548161ffff021916908361ffff160217905550505060006001600480549050610f8b9190611813565b9050336005600083815260200190815260200160002060006101000a81548173ffffffffffffffffffffffffffffffffffffffff021916908373ffffffffffffffffffffffffffffffffffffffff1602179055506110326001600660003373ffffffffffffffffffffffffffffffffffffffff1673ffffffffffffffffffffffffffffffffffffffff168152602001908152602001600020546111b590919063ffffffff16565b600660003373ffffffffffffffffffffffffffffffffffffffff1673ffffffffffffffffffffffffffffffffffffffff168152602001908152602001600020819055507f5ad354523f49f6a431c943b15028530250f3c9c42deb03b1bc586d7698af0188818587858760006040516110af9695949392919061188c565b60405180910390a15050505050565b600073ffffffffffffffffffffffffffffffffffffffff168173ffffffffffffffffffffffffffffffffffffffff1614156110f857600080fd5b8073ffffffffffffffffffffffffffffffffffffffff1660008054906101000a900473ffffffffffffffffffffffffffffffffffffffff1673ffffffffffffffffffffffffffffffffffffffff167f8be0079c531659141344cd1fd0a4f28419497f9722a3daafe3b4186f6b6457e060405160405180910390a3806000806101000a81548173ffffffffffffffffffffffffffffffffffffffff021916908373ffffffffffffffffffffffffffffffffffffffff16021790555050565b60008082846111c491906117bd565b9050838110156111d7576111d66118ed565b5b8091505092915050565b600080fd5b6000819050919050565b6111f9816111e6565b811461120457600080fd5b50565b600081359050611216816111f0565b92915050565b60008060408385031215611233576112326111e1565b5b600061124185828601611207565b925050602061125285828601611207565b9150509250929050565b600073ffffffffffffffffffffffffffffffffffffffff82169050919050565b60006112878261125c565b9050919050565b6112978161127c565b81146112a257600080fd5b50565b6000813590506112b48161128e565b92915050565b6000602082840312156112d0576112cf6111e1565b5b60006112de848285016112a5565b91505092915050565b6112f08161127c565b82525050565b600060208201905061130b60008301846112e7565b92915050565b60008115159050919050565b61132681611311565b82525050565b6000602082019050611341600083018461131d565b92915050565b60006020828403121561135d5761135c6111e1565b5b600061136b84828501611207565b91505092915050565b61137d816111e6565b82525050565b6000819050919050565b61139681611383565b82525050565b600063ffffffff82169050919050565b6113b58161139c565b82525050565b600061ffff82169050919050565b6113d2816113bb565b82525050565b600060a0820190506113ed6000830188611374565b6113fa602083018761138d565b61140760408301866113ac565b6114146060830185611374565b61142160808301846113c9565b9695505050505050565b600081905092915050565b7f50616e7473000000000000000000000000000000000000000000000000000000600082015250565b600061146c60058361142b565b915061147782611436565b600582019050919050565b600061148d8261145f565b9150819050919050565b60006020820190506114ac6000830184611374565b92915050565b6114bb81611311565b81146114c657600080fd5b50565b6000815190506114d8816114b2565b92915050565b6000815190506114ed816111f0565b92915050565b600080600080600080600080610100898b031215611514576115136111e1565b5b60006115228b828c016114c9565b98505060206115338b828c016114de565b97505060406115448b828c016114de565b96505060606115558b828c016114de565b95505060806115668b828c016114de565b94505060a06115778b828c016114de565b93505060c06115888b828c016114de565b92505060e06115998b828c016114de565b9150509295985092959890939650565b7f5368697274000000000000000000000000000000000000000000000000000000600082015250565b60006115df60058361142b565b91506115ea826115a9565b600582019050919050565b6000611600826115d2565b9150819050919050565b7f536e61706261636b000000000000000000000000000000000000000000000000600082015250565b600061164060088361142b565b915061164b8261160a565b600882019050919050565b600061166182611633565b9150819050919050565b7f53686f6573000000000000000000000000000000000000000000000000000000600082015250565b60006116a160058361142b565b91506116ac8261166b565b600582019050919050565b60006116c282611694565b9150819050919050565b7f556e646572776561720000000000000000000000000000000000000000000000600082015250565b600061170260098361142b565b915061170d826116cc565b600982019050919050565b6000611723826116f5565b9150819050919050565b7f536f636b73000000000000000000000000000000000000000000000000000000600082015250565b600061176360058361142b565b915061176e8261172d565b600582019050919050565b600061178482611756565b9150819050919050565b7f4e487b7100000000000000000000000000000000000000000000000000000000600052601160045260246000fd5b60006117c8826111e6565b91506117d3836111e6565b9250827fffffffffffffffffffffffffffffffffffffffffffffffffffffffffffffffff038211156118085761180761178e565b5b828201905092915050565b600061181e826111e6565b9150611829836111e6565b92508282101561183c5761183b61178e565b5b828203905092915050565b6000819050919050565b6000819050919050565b600061187661187161186c84611847565b611851565b6113bb565b9050919050565b6118868161185b565b82525050565b600060c0820190506118a16000830189611374565b6118ae6020830188611374565b6118bb604083018761138d565b6118c860608301866113ac565b6118d56080830185611374565b6118e260a083018461187d565b979650505050505050565b7f4e487b7100000000000000000000000000000000000000000000000000000000600052600160045260246000fdfea264697066735822122071aa6c55ddcd9d94e57abc9766297914b3ccd65a2250d4b3791dfad9a010c7b164736f6c634300080a0033",
  "immutableReferences": {},
  "source": "// SPDX-License-Identifier: MIT\r\npragma solidity >=0.4.22 <0.9.0;\r\n\r\nimport \"./piecefactory.sol\";\r\n\r\n//Examples of mapping different qualities of the piece/class that is going to be the couple to our piece from: NFT collections, other Games, etc.\r\n//Example: 10kTF\r\n\r\nabstract contract ShoesInterface {\r\n\r\n    function getShoes(uint256 _id) external virtual view returns (\r\n        bool isReady,\r\n        uint256 cooldownIndex,\r\n        uint256 backGround,\r\n        uint256 collection,\r\n        uint256 item,\r\n        uint256 parentName,\r\n        uint256 year,\r\n        uint256 property\r\n    );\r\n}\r\n\r\nabstract contract SocksInterface {\r\n\r\n    function getSocks(uint256 _id) external virtual view returns (\r\n        bool isReady,\r\n        uint256 cooldownIndex,\r\n        uint256 backGround,\r\n        uint256 collection,\r\n        uint256 item,\r\n        uint256 parentName,\r\n        uint256 year,\r\n        uint256 property\r\n    );\r\n}\r\n\r\nabstract contract PantsInterface {\r\n\r\n    function getPants(uint256 _id) external virtual view returns (\r\n        bool isReady,\r\n        uint256 cooldownIndex,\r\n        uint256 backGround,\r\n        uint256 collection,\r\n        uint256 item,\r\n        uint256 parentName,\r\n        uint256 year,\r\n        uint256 property\r\n    );\r\n}\r\n\r\nabstract contract UnderwearInterface {\r\n\r\n    function getUnderwear(uint256 _id) external virtual view returns (\r\n        bool isReady,\r\n        uint256 cooldownIndex,\r\n        uint256 backGround,\r\n        uint256 collection,\r\n        uint256 item,\r\n        uint256 parentName,\r\n        uint256 year,\r\n        uint256 property\r\n    );\r\n}\r\n\r\nabstract contract ShirtInterface {\r\n\r\n    function getShirt(uint256 _id) external virtual view returns (\r\n        bool isReady,\r\n        uint256 cooldownIndex,\r\n        uint256 backGround,\r\n        uint256 collection,\r\n        uint256 item,\r\n        uint256 parentName,\r\n        uint256 year,\r\n        uint256 property\r\n    );\r\n}\r\n\r\nabstract contract HoodieInterface {\r\n\r\n    function getHoodie(uint256 _id) external virtual view returns (\r\n        bool isReady,\r\n        uint256 cooldownIndex,\r\n        uint256 backGround,\r\n        uint256 collection,\r\n        uint256 item,\r\n        uint256 parentName,\r\n        uint256 year,\r\n        uint256 property\r\n    );\r\n}\r\n\r\nabstract contract SnapbackInterface {\r\n\r\n    function getSnapback(uint256 _id) external virtual view returns (\r\n        bool isReady,\r\n        uint256 cooldownIndex,\r\n        uint256 backGround,\r\n        uint256 collection,\r\n        uint256 item,\r\n        uint256 parentName,\r\n        uint256 year,\r\n        uint256 property\r\n    );\r\n}\r\n\r\ncontract PieceMigration is PieceFactory {\r\n\r\n     uint createPieceFee = 1 ether;\r\n\r\n     ShoesInterface ShoesContract;\r\n     SocksInterface SocksContract;\r\n     PantsInterface PantsContract;\r\n     UnderwearInterface UnderwearContract;\r\n     ShirtInterface ShirtContract;\r\n     HoodieInterface HoodieContract;\r\n     SnapbackInterface SnapbackContract;    \r\n\r\n    function setShoesContractAddress(address _address) external onlyOwner {\r\n        ShoesContract = ShoesInterface(_address);\r\n    }\r\n    \r\n    function setSocksContractAddress(address _address) external onlyOwner {\r\n        SocksContract = SocksInterface(_address);\r\n    }\r\n    \r\n    function setPantsContractAddress(address _address) external onlyOwner {\r\n        PantsContract = PantsInterface(_address);\r\n    }\r\n    \r\n    function setUnderwearContractAddress(address _address) external onlyOwner {\r\n        UnderwearContract = UnderwearInterface(_address);\r\n    }\r\n    \r\n    function setShirtContractAddress(address _address) external onlyOwner {\r\n        ShirtContract = ShirtInterface(_address);\r\n    }\r\n    \r\n    function setHoodieContractAddress(address _address) external onlyOwner {\r\n        HoodieContract = HoodieInterface(_address);\r\n    }\r\n    \r\n    function setSnapbackContractAddress(address _address) external onlyOwner {\r\n        SnapbackContract = SnapbackInterface(_address);\r\n    }\r\n    \r\n    function migrateShoesItem(uint _itemId, uint256 _curr_loc) public payable {\r\n        require(msg.value == createPieceFee);\r\n        bytes32 _class = keccak256(abi.encodePacked(\"Shoes\"));\r\n        uint _dna;\r\n        (,,,,,,,_dna) = ShoesContract.getShoes(_itemId);\r\n        _createPiece(_class, _dna, _curr_loc);\r\n    }\r\n\r\n    function migrateSocksItem(uint _itemId, uint256 _curr_loc) public payable {\r\n        require(msg.value == createPieceFee);\r\n        bytes32 _class = keccak256(abi.encodePacked(\"Socks\"));\r\n        uint _dna;\r\n        (,,,,,,,_dna) = SocksContract.getSocks(_itemId);\r\n        _createPiece(_class, _dna, _curr_loc);\r\n    }\r\n\r\n    function migratePantsItem(uint _itemId, uint256 _curr_loc) public payable {\r\n        require(msg.value == createPieceFee);\r\n        bytes32 _class = keccak256(abi.encodePacked(\"Pants\"));\r\n        uint _dna;\r\n        (,,,,,,,_dna) = PantsContract.getPants(_itemId);\r\n        _createPiece(_class, _dna, _curr_loc);\r\n    }\r\n\r\n    function migrateUnderwearItem(uint _itemId, uint256 _curr_loc) public payable {\r\n        require(msg.value == createPieceFee);\r\n        bytes32 _class = keccak256(abi.encodePacked(\"Underwear\"));\r\n        uint _dna;\r\n        (,,,,,,,_dna) = UnderwearContract.getUnderwear(_itemId);\r\n        _createPiece(_class, _dna, _curr_loc);\r\n    }\r\n    \r\n    function migrateShirtItem(uint _itemId, uint256 _curr_loc) public payable {\r\n        require(msg.value == createPieceFee);\r\n        bytes32 _class = keccak256(abi.encodePacked(\"Shirt\"));\r\n        uint _dna;\r\n        (,,,,,,,_dna) = ShirtContract.getShirt(_itemId);\r\n        _createPiece(_class, _dna, _curr_loc);\r\n    }\r\n\r\n    function migrateSnapbackItem(uint _itemId, uint256 _curr_loc) public payable {\r\n        require(msg.value == createPieceFee);\r\n        bytes32 _class = keccak256(abi.encodePacked(\"Snapback\"));\r\n        uint _dna;\r\n        (,,,,,,,_dna) = ShirtContract.getShirt(_itemId);\r\n        //(,,,,,,,_dna) = _generateRandomPieceDna(abi.encodePacked(SnapbackContract.getSnapback(_itemId), \" Snapback\"));\r\n        //_dna = _dna - _dna % 100;\r\n        _createPiece(_class, _dna, _curr_loc);\r\n    }\r\n\r\n}",
  "sourcePath": "C:\\Users\\pablo\\PycharmProjects\\LiveAndTravel\\contracts\\piecemigration.sol",
  "compiler": {
    "name": "solc",
    "version": "0.8.10+commit.fc410830.Emscripten.clang"
  },
  "schemaVersion": "3.4.4",
  "updatedAt": "2022-01-13T15:03:14.940Z",
  "devdoc": {
    "kind": "dev",
    "methods": {},
    "version": 1
  },
  "userdoc": {
    "kind": "user",
    "methods": {},
    "version": 1
  }
}