{
  "contractName": "StoreNPC",
  "abi": [
    {
      "inputs": [],
      "name": "buySomething",
      "outputs": [],
      "stateMutability": "payable",
      "type": "function"
    }
  ],
  "bytecode": "0x6080604052348015600f57600080fd5b50607d8061001e6000396000f3fe608060405260043610601c5760003560e01c8063b0f373f9146021575b600080fd5b60276029565b005b66038d7ea4c680003414603b57600080fd5b6042336044565b565b5056fea26469706673582212201bca435a99c60d189a37a3faab7bdc11474b362f12f438fe34172c38160b094464736f6c634300080a0033",
  "immutableReferences": {},
  "source": "// SPDX-License-Identifier: MIT\r\npragma solidity >=0.4.22 <0.9.0;\r\n\r\ncontract StoreNPC {\r\n  function buySomething() external payable {\r\n    // Check to make sure 0.001 ether was sent to the function call:\r\n    require(msg.value == 0.001 ether);\r\n    // If so, some logic to transfer the digital item to the caller of the function:\r\n    transferThing(msg.sender);\r\n  }\r\n\r\n  function transferThing(address buyer) internal {\r\n\r\n  }\r\n}",
  "sourcePath": "C:\\Users\\pablo\\PycharmProjects\\LiveAndTravel\\contracts\\storenpc.sol",
  "compiler": {
    "name": "solc",
    "version": "0.8.10+commit.fc410830.Emscripten.clang"
  },
  "schemaVersion": "3.4.4",
  "updatedAt": "2021-12-30T16:56:21.594Z",
  "devdoc": {
    "kind": "dev",
    "methods": {},
    "version": 1
  },
  "userdoc": {
    "kind": "user",
    "methods": {},
    "version": 1
  }
}