{
  "contractName": "StoreNPC",
  "abi": [
    {
      "constant": false,
      "inputs": [],
      "name": "buySomething",
      "outputs": [],
      "payable": true,
      "stateMutability": "payable",
      "type": "function"
    }
  ],
  "bytecode": "0x6080604052348015600f57600080fd5b50607c8061001e6000396000f3fe608060405260043610601c5760003560e01c8063b0f373f9146021575b600080fd5b60276029565b005b66038d7ea4c680003414603b57600080fd5b6042336044565b565b5056fea265627a7a7231582082a91d7e984b0ff12d8c2f1a0976e832998815c40001603e2d8908c19f32f8e964736f6c63430005100032",
  "source": "// SPDX-License-Identifier: MIT\r\npragma solidity >=0.4.22 <0.9.0;\r\n\r\ncontract StoreNPC {\r\n  function buySomething() external payable {\r\n    // Check to make sure 0.001 ether was sent to the function call:\r\n    require(msg.value == 0.001 ether);\r\n    // If so, some logic to transfer the digital item to the caller of the function:\r\n    transferThing(msg.sender);\r\n  }\r\n\r\n  function transferThing(address buyer) internal {\r\n\r\n  }\r\n}",
  "sourcePath": "C:\\Users\\pablo\\PycharmProjects\\LiveAndTravel\\contracts\\storenpc.sol",
  "compiler": {
    "name": "solc",
    "version": "0.5.16+commit.9c3226ce.Emscripten.clang"
  },
  "schemaVersion": "3.4.4",
  "updatedAt": "2022-01-18T21:10:52.407Z",
  "devdoc": {
    "methods": {}
  },
  "userdoc": {
    "methods": {}
  }
}