{
  "contractName": "TravelQuestNPC",
  "abi": [
    {
      "anonymous": false,
      "inputs": [
        {
          "indexed": false,
          "internalType": "uint256",
          "name": "avatarId",
          "type": "uint256"
        },
        {
          "indexed": false,
          "internalType": "uint256",
          "name": "avatarDna",
          "type": "uint256"
        },
        {
          "indexed": false,
          "internalType": "string",
          "name": "avatarName",
          "type": "string"
        },
        {
          "indexed": false,
          "internalType": "string",
          "name": "avatarSex",
          "type": "string"
        },
        {
          "indexed": false,
          "internalType": "bytes32",
          "name": "avatarRace",
          "type": "bytes32"
        },
        {
          "indexed": false,
          "internalType": "uint32",
          "name": "avatarReadyTime",
          "type": "uint32"
        },
        {
          "indexed": false,
          "internalType": "uint16",
          "name": "avatarMiles",
          "type": "uint16"
        },
        {
          "indexed": false,
          "internalType": "uint16",
          "name": "avatarHome",
          "type": "uint16"
        },
        {
          "indexed": false,
          "internalType": "uint16",
          "name": "avatarWorkPlace",
          "type": "uint16"
        },
        {
          "indexed": false,
          "internalType": "uint16",
          "name": "avatarBreedCount",
          "type": "uint16"
        }
      ],
      "name": "NewAvatar",
      "type": "event"
    },
    {
      "anonymous": false,
      "inputs": [
        {
          "indexed": false,
          "internalType": "uint256",
          "name": "pieceId",
          "type": "uint256"
        },
        {
          "indexed": false,
          "internalType": "uint256",
          "name": "pieceDna",
          "type": "uint256"
        },
        {
          "indexed": false,
          "internalType": "bytes32",
          "name": "pieceClass",
          "type": "bytes32"
        },
        {
          "indexed": false,
          "internalType": "uint32",
          "name": "pieceReadyTime",
          "type": "uint32"
        },
        {
          "indexed": false,
          "internalType": "uint256",
          "name": "pieceCreationLoc",
          "type": "uint256"
        },
        {
          "indexed": false,
          "internalType": "uint16",
          "name": "pieceMergeCount",
          "type": "uint16"
        }
      ],
      "name": "NewPiece",
      "type": "event"
    },
    {
      "anonymous": false,
      "inputs": [
        {
          "indexed": true,
          "internalType": "address",
          "name": "previousOwner",
          "type": "address"
        },
        {
          "indexed": true,
          "internalType": "address",
          "name": "newOwner",
          "type": "address"
        }
      ],
      "name": "OwnershipTransferred",
      "type": "event"
    },
    {
      "inputs": [
        {
          "internalType": "uint256",
          "name": "",
          "type": "uint256"
        }
      ],
      "name": "avatarToOwner",
      "outputs": [
        {
          "internalType": "address",
          "name": "",
          "type": "address"
        }
      ],
      "stateMutability": "view",
      "type": "function"
    },
    {
      "inputs": [
        {
          "internalType": "uint256",
          "name": "",
          "type": "uint256"
        }
      ],
      "name": "avatars",
      "outputs": [
        {
          "internalType": "uint256",
          "name": "avatarDna",
          "type": "uint256"
        },
        {
          "internalType": "string",
          "name": "avatarName",
          "type": "string"
        },
        {
          "internalType": "string",
          "name": "avatarSex",
          "type": "string"
        },
        {
          "internalType": "bytes32",
          "name": "avatarRace",
          "type": "bytes32"
        },
        {
          "internalType": "uint32",
          "name": "avatarReadyTime",
          "type": "uint32"
        },
        {
          "internalType": "uint256",
          "name": "avatarMiles",
          "type": "uint256"
        },
        {
          "internalType": "uint256",
          "name": "avatarHome",
          "type": "uint256"
        },
        {
          "internalType": "uint256",
          "name": "avatarWorkPlace",
          "type": "uint256"
        },
        {
          "internalType": "uint16",
          "name": "breedCount",
          "type": "uint16"
        }
      ],
      "stateMutability": "view",
      "type": "function"
    },
    {
      "inputs": [
        {
          "internalType": "uint256",
          "name": "_avatarId",
          "type": "uint256"
        },
        {
          "internalType": "uint256",
          "name": "_targetAvatarId",
          "type": "uint256"
        }
      ],
      "name": "breed",
      "outputs": [],
      "stateMutability": "payable",
      "type": "function"
    },
    {
      "inputs": [
        {
          "internalType": "uint256",
          "name": "_avatarId",
          "type": "uint256"
        },
        {
          "internalType": "uint256",
          "name": "_newDna",
          "type": "uint256"
        }
      ],
      "name": "changeAvatarDna",
      "outputs": [],
      "stateMutability": "payable",
      "type": "function"
    },
    {
      "inputs": [
        {
          "internalType": "uint256",
          "name": "_avatarId",
          "type": "uint256"
        },
        {
          "internalType": "string",
          "name": "_newName",
          "type": "string"
        }
      ],
      "name": "changeAvatarName",
      "outputs": [],
      "stateMutability": "payable",
      "type": "function"
    },
    {
      "inputs": [
        {
          "internalType": "uint256",
          "name": "_pieceId",
          "type": "uint256"
        },
        {
          "internalType": "uint256",
          "name": "_newDna",
          "type": "uint256"
        }
      ],
      "name": "changePieceDna",
      "outputs": [],
      "stateMutability": "payable",
      "type": "function"
    },
    {
      "inputs": [
        {
          "internalType": "string",
          "name": "_sex",
          "type": "string"
        }
      ],
      "name": "createRandomAvatar",
      "outputs": [],
      "stateMutability": "payable",
      "type": "function"
    },
    {
      "inputs": [
        {
          "internalType": "address",
          "name": "_owner",
          "type": "address"
        }
      ],
      "name": "getAvatarsByOwner",
      "outputs": [
        {
          "internalType": "uint256[]",
          "name": "",
          "type": "uint256[]"
        }
      ],
      "stateMutability": "view",
      "type": "function"
    },
    {
      "inputs": [
        {
          "internalType": "address",
          "name": "_owner",
          "type": "address"
        }
      ],
      "name": "getPiecesByOwner",
      "outputs": [
        {
          "internalType": "uint256[]",
          "name": "",
          "type": "uint256[]"
        }
      ],
      "stateMutability": "view",
      "type": "function"
    },
    {
      "inputs": [],
      "name": "isOwner",
      "outputs": [
        {
          "internalType": "bool",
          "name": "",
          "type": "bool"
        }
      ],
      "stateMutability": "view",
      "type": "function"
    },
    {
      "inputs": [
        {
          "internalType": "uint256",
          "name": "_pieceId",
          "type": "uint256"
        },
        {
          "internalType": "uint256",
          "name": "_targetPieceId",
          "type": "uint256"
        },
        {
          "internalType": "uint256",
          "name": "_curr_loc",
          "type": "uint256"
        }
      ],
      "name": "merge",
      "outputs": [],
      "stateMutability": "payable",
      "type": "function"
    },
    {
      "inputs": [
        {
          "internalType": "uint256",
          "name": "_boredApeId",
          "type": "uint256"
        }
      ],
      "name": "migrateBoredApe",
      "outputs": [],
      "stateMutability": "payable",
      "type": "function"
    },
    {
      "inputs": [
        {
          "internalType": "uint256",
          "name": "_cypherPunkId",
          "type": "uint256"
        }
      ],
      "name": "migrateCypherPunk",
      "outputs": [],
      "stateMutability": "payable",
      "type": "function"
    },
    {
      "inputs": [
        {
          "internalType": "uint256",
          "name": "_kittyId",
          "type": "uint256"
        }
      ],
      "name": "migrateKitty",
      "outputs": [],
      "stateMutability": "payable",
      "type": "function"
    },
    {
      "inputs": [
        {
          "internalType": "uint256",
          "name": "_itemId",
          "type": "uint256"
        },
        {
          "internalType": "uint256",
          "name": "_curr_loc",
          "type": "uint256"
        }
      ],
      "name": "migratePantsItem",
      "outputs": [],
      "stateMutability": "payable",
      "type": "function"
    },
    {
      "inputs": [
        {
          "internalType": "uint256",
          "name": "_itemId",
          "type": "uint256"
        },
        {
          "internalType": "uint256",
          "name": "_curr_loc",
          "type": "uint256"
        }
      ],
      "name": "migrateShirtItem",
      "outputs": [],
      "stateMutability": "payable",
      "type": "function"
    },
    {
      "inputs": [
        {
          "internalType": "uint256",
          "name": "_itemId",
          "type": "uint256"
        },
        {
          "internalType": "uint256",
          "name": "_curr_loc",
          "type": "uint256"
        }
      ],
      "name": "migrateShoesItem",
      "outputs": [],
      "stateMutability": "payable",
      "type": "function"
    },
    {
      "inputs": [
        {
          "internalType": "uint256",
          "name": "_itemId",
          "type": "uint256"
        },
        {
          "internalType": "uint256",
          "name": "_curr_loc",
          "type": "uint256"
        }
      ],
      "name": "migrateSnapbackItem",
      "outputs": [],
      "stateMutability": "payable",
      "type": "function"
    },
    {
      "inputs": [
        {
          "internalType": "uint256",
          "name": "_itemId",
          "type": "uint256"
        },
        {
          "internalType": "uint256",
          "name": "_curr_loc",
          "type": "uint256"
        }
      ],
      "name": "migrateSocksItem",
      "outputs": [],
      "stateMutability": "payable",
      "type": "function"
    },
    {
      "inputs": [
        {
          "internalType": "uint256",
          "name": "_itemId",
          "type": "uint256"
        },
        {
          "internalType": "uint256",
          "name": "_curr_loc",
          "type": "uint256"
        }
      ],
      "name": "migrateUnderwearItem",
      "outputs": [],
      "stateMutability": "payable",
      "type": "function"
    },
    {
      "inputs": [],
      "name": "owner",
      "outputs": [
        {
          "internalType": "address",
          "name": "",
          "type": "address"
        }
      ],
      "stateMutability": "view",
      "type": "function"
    },
    {
      "inputs": [
        {
          "internalType": "uint256",
          "name": "",
          "type": "uint256"
        }
      ],
      "name": "pieceToOwner",
      "outputs": [
        {
          "internalType": "address",
          "name": "",
          "type": "address"
        }
      ],
      "stateMutability": "view",
      "type": "function"
    },
    {
      "inputs": [
        {
          "internalType": "uint256",
          "name": "",
          "type": "uint256"
        }
      ],
      "name": "pieces",
      "outputs": [
        {
          "internalType": "uint256",
          "name": "pieceDna",
          "type": "uint256"
        },
        {
          "internalType": "bytes32",
          "name": "pieceClass",
          "type": "bytes32"
        },
        {
          "internalType": "uint32",
          "name": "pieceReadyTime",
          "type": "uint32"
        },
        {
          "internalType": "uint256",
          "name": "pieceCreationLoc",
          "type": "uint256"
        },
        {
          "internalType": "uint16",
          "name": "mergeCount",
          "type": "uint16"
        }
      ],
      "stateMutability": "view",
      "type": "function"
    },
    {
      "inputs": [],
      "name": "renounceOwnership",
      "outputs": [],
      "stateMutability": "nonpayable",
      "type": "function"
    },
    {
      "inputs": [
        {
          "internalType": "address",
          "name": "_address",
          "type": "address"
        }
      ],
      "name": "setBoredApeContractAddress",
      "outputs": [],
      "stateMutability": "nonpayable",
      "type": "function"
    },
    {
      "inputs": [
        {
          "internalType": "address",
          "name": "_address",
          "type": "address"
        }
      ],
      "name": "setCypherPunkContractAddress",
      "outputs": [],
      "stateMutability": "nonpayable",
      "type": "function"
    },
    {
      "inputs": [
        {
          "internalType": "address",
          "name": "_address",
          "type": "address"
        }
      ],
      "name": "setHoodieContractAddress",
      "outputs": [],
      "stateMutability": "nonpayable",
      "type": "function"
    },
    {
      "inputs": [
        {
          "internalType": "address",
          "name": "_address",
          "type": "address"
        }
      ],
      "name": "setKittyContractAddress",
      "outputs": [],
      "stateMutability": "nonpayable",
      "type": "function"
    },
    {
      "inputs": [
        {
          "internalType": "address",
          "name": "_address",
          "type": "address"
        }
      ],
      "name": "setPantsContractAddress",
      "outputs": [],
      "stateMutability": "nonpayable",
      "type": "function"
    },
    {
      "inputs": [
        {
          "internalType": "address",
          "name": "_address",
          "type": "address"
        }
      ],
      "name": "setShirtContractAddress",
      "outputs": [],
      "stateMutability": "nonpayable",
      "type": "function"
    },
    {
      "inputs": [
        {
          "internalType": "address",
          "name": "_address",
          "type": "address"
        }
      ],
      "name": "setShoesContractAddress",
      "outputs": [],
      "stateMutability": "nonpayable",
      "type": "function"
    },
    {
      "inputs": [
        {
          "internalType": "address",
          "name": "_address",
          "type": "address"
        }
      ],
      "name": "setSnapbackContractAddress",
      "outputs": [],
      "stateMutability": "nonpayable",
      "type": "function"
    },
    {
      "inputs": [
        {
          "internalType": "address",
          "name": "_address",
          "type": "address"
        }
      ],
      "name": "setSocksContractAddress",
      "outputs": [],
      "stateMutability": "nonpayable",
      "type": "function"
    },
    {
      "inputs": [
        {
          "internalType": "address",
          "name": "_address",
          "type": "address"
        }
      ],
      "name": "setUnderwearContractAddress",
      "outputs": [],
      "stateMutability": "nonpayable",
      "type": "function"
    },
    {
      "inputs": [
        {
          "internalType": "address",
          "name": "newOwner",
          "type": "address"
        }
      ],
      "name": "transferOwnership",
      "outputs": [],
      "stateMutability": "nonpayable",
      "type": "function"
    },
    {
      "inputs": [],
      "name": "withdrawAvatar",
      "outputs": [],
      "stateMutability": "payable",
      "type": "function"
    },
    {
      "inputs": [],
      "name": "withdrawPiece",
      "outputs": [],
      "stateMutability": "payable",
      "type": "function"
    },
    {
      "inputs": [
        {
          "internalType": "uint256",
          "name": "_curr_loc",
          "type": "uint256"
        },
        {
          "internalType": "uint256",
          "name": "_avatarId",
          "type": "uint256"
        }
      ],
      "name": "setHomeQuest",
      "outputs": [],
      "stateMutability": "payable",
      "type": "function"
    },
    {
      "inputs": [
        {
          "internalType": "uint256",
          "name": "_curr_loc",
          "type": "uint256"
        },
        {
          "internalType": "uint256",
          "name": "_avatarId",
          "type": "uint256"
        }
      ],
      "name": "setWorkPlaceQuest",
      "outputs": [],
      "stateMutability": "payable",
      "type": "function"
    },
    {
      "inputs": [
        {
          "internalType": "uint256",
          "name": "_curr_loc",
          "type": "uint256"
        },
        {
          "internalType": "uint256",
          "name": "_avatarId",
          "type": "uint256"
        }
      ],
      "name": "workTravelQuest",
      "outputs": [],
      "stateMutability": "payable",
      "type": "function"
    },
    {
      "inputs": [
        {
          "internalType": "uint256",
          "name": "_curr_loc",
          "type": "uint256"
        },
        {
          "internalType": "uint256",
          "name": "_last_loc",
          "type": "uint256"
        },
        {
          "internalType": "uint256",
          "name": "_avatarId",
          "type": "uint256"
        }
      ],
      "name": "travelQuest",
      "outputs": [],
      "stateMutability": "payable",
      "type": "function"
    },
    {
      "inputs": [
        {
          "internalType": "uint256",
          "name": "_curr_loc",
          "type": "uint256"
        },
        {
          "internalType": "uint256",
          "name": "_avatarId",
          "type": "uint256"
        }
      ],
      "name": "workQuest",
      "outputs": [],
      "stateMutability": "nonpayable",
      "type": "function"
    }
  ],
  "bytecode": "0x60806040526010600155600154600a6200001a919062000379565b6002556201518060035567016345785d8a00006007556000600855605a600c556007600d55670429d069189e0000600e55662386f26fc10000600f55662386f26fc10000601055678ac7230489e800006011556010601255601254600a62000083919062000379565b601355620151806014556000601855670de0b6b3a7640000601955605f602155600160225567016345785d8a0000602355678ac7230489e80000602455662386f26fc10000602555662386f26fc10000602655662386f26fc100006027556000602860006101000a81548161ffff021916908361ffff1602179055506000602860026101000a81548161ffff021916908361ffff1602179055503480156200012a57600080fd5b50336000806101000a81548173ffffffffffffffffffffffffffffffffffffffff021916908373ffffffffffffffffffffffffffffffffffffffff16021790555060008054906101000a900473ffffffffffffffffffffffffffffffffffffffff1673ffffffffffffffffffffffffffffffffffffffff16600073ffffffffffffffffffffffffffffffffffffffff167f8be0079c531659141344cd1fd0a4f28419497f9722a3daafe3b4186f6b6457e060405160405180910390a3620003ca565b7f4e487b7100000000000000000000000000000000000000000000000000000000600052601160045260246000fd5b60008160011c9050919050565b6000808291508390505b60018511156200027a57808604811115620002525762000251620001ec565b5b6001851615620002625780820291505b808102905062000272856200021b565b945062000232565b94509492505050565b60008262000295576001905062000368565b81620002a5576000905062000368565b8160018114620002be5760028114620002c957620002ff565b600191505062000368565b60ff841115620002de57620002dd620001ec565b5b8360020a915084821115620002f857620002f7620001ec565b5b5062000368565b5060208310610133831016604e8410600b8410161715620003395782820a905083811115620003335762000332620001ec565b5b62000368565b62000348848484600162000228565b92509050818404811115620003625762000361620001ec565b5b81810290505b9392505050565b6000819050919050565b600062000386826200036f565b915062000393836200036f565b9250620003c27fffffffffffffffffffffffffffffffffffffffffffffffffffffffffffffffff848462000283565b905092915050565b6163f280620003da6000396000f3fe6080604052600436106102515760003560e01c80638b030aaa11610139578063bcea8195116100b6578063d25416071161007a578063d25416071461076e578063d9ecad7b1461078a578063e14d485b146107a6578063f2fde38b146107cf578063f56fa8d4146107f8578063f5dcef041461083557610251565b8063bcea8195146106c1578063c78309f5146106dd578063c8539c4b146106f9578063cd90cb9814610736578063cfd720ec1461075257610251565b80638fbcac04116100fd5780638fbcac0414610607578063968787121461063057806397abcb6c1461064c578063a21adccf14610689578063b2dc230d146106a557610251565b80638b030aaa1461051e5780638c081f5d146105475780638da5cb5b146105705780638f32d59b1461059b5780638f64be30146105c657610251565b80634f1b3e3e116101d2578063715018a611610196578063715018a6146104575780637a43061f1461046e5780637be418141461048a5780637e62f22b146104b35780637f1075a2146104cf578063834d5fac146104d957610251565b80634f1b3e3e146103975780635a2e4bd9146103c05780635de84288146103dc5780635f4623f1146104055780636c492f3d1461042e57610251565b806327f1a4f31161021957806327f1a4f3146102ef5780632a4b7eb9146103185780633ba1d944146103225780634585c35e1461035f5780634720833f1461037b57610251565b80630351cf511461025657806306d5e6e814610272578063093cf8261461028e5780631507a331146102aa578063241ec36d146102c6575b600080fd5b610270600480360381019061026b9190614a91565b610851565b005b61028c60048036038101906102879190614abe565b61097e565b005b6102a860048036038101906102a39190614abe565b610a60565b005b6102c460048036038101906102bf9190614abe565b610c0b565b005b3480156102d257600080fd5b506102ed60048036038101906102e89190614b5c565b610d19565b005b3480156102fb57600080fd5b5061031660048036038101906103119190614b5c565b610d6e565b005b610320610dc3565b005b34801561032e57600080fd5b5061034960048036038101906103449190614b5c565b610e38565b6040516103569190614c47565b60405180910390f35b61037960048036038101906103749190614abe565b610f8b565b005b61039560048036038101906103909190614abe565b6111a7565b005b3480156103a357600080fd5b506103be60048036038101906103b99190614b5c565b6112b5565b005b6103da60048036038101906103d59190614c69565b61130a565b005b3480156103e857600080fd5b5061040360048036038101906103fe9190614b5c565b611c30565b005b34801561041157600080fd5b5061042c60048036038101906104279190614b5c565b611c85565b005b34801561043a57600080fd5b5061045560048036038101906104509190614b5c565b611cda565b005b34801561046357600080fd5b5061046c611d2f565b005b61048860048036038101906104839190614abe565b611dfe565b005b34801561049657600080fd5b506104b160048036038101906104ac9190614b5c565b611f0c565b005b6104cd60048036038101906104c89190614c69565b611f61565b005b6104d7612004565b005b3480156104e557600080fd5b5061050060048036038101906104fb9190614a91565b612079565b60405161051599989796959493929190614db9565b60405180910390f35b34801561052a57600080fd5b5061054560048036038101906105409190614b5c565b612205565b005b34801561055357600080fd5b5061056e60048036038101906105699190614b5c565b61225a565b005b34801561057c57600080fd5b506105856122af565b6040516105929190614e63565b60405180910390f35b3480156105a757600080fd5b506105b06122d8565b6040516105bd9190614e99565b60405180910390f35b3480156105d257600080fd5b506105ed60048036038101906105e89190614a91565b61232f565b6040516105fe959493929190614eb4565b60405180910390f35b34801561061357600080fd5b5061062e60048036038101906106299190614abe565b612393565b005b61064a60048036038101906106459190614a91565b612439565b005b34801561065857600080fd5b50610673600480360381019061066e9190614b5c565b612566565b6040516106809190614c47565b60405180910390f35b6106a3600480360381019061069e9190614abe565b6126b9565b005b6106bf60048036038101906106ba9190614f6c565b61281e565b005b6106db60048036038101906106d69190614abe565b61290a565b005b6106f760048036038101906106f29190614abe565b6129b3565b005b34801561070557600080fd5b50610720600480360381019061071b9190614a91565b612ac1565b60405161072d9190614e63565b60405180910390f35b610750600480360381019061074b9190614abe565b612af4565b005b61076c60048036038101906107679190614abe565b612c02565b005b610788600480360381019061078391906150fc565b612d10565b005b6107a4600480360381019061079f9190614abe565b612dff565b005b3480156107b257600080fd5b506107cd60048036038101906107c89190614b5c565b6138b1565b005b3480156107db57600080fd5b506107f660048036038101906107f19190614b5c565b613906565b005b34801561080457600080fd5b5061081f600480360381019061081a9190614a91565b613923565b60405161082c9190614e63565b60405180910390f35b61084f600480360381019061084a9190614a91565b613956565b005b600754341461085f57600080fd5b60006040516020016108709061519c565b6040516020818303038152906040528051906020012090506000610892613a83565b90506000600b60009054906101000a900473ffffffffffffffffffffffffffffffffffffffff1673ffffffffffffffffffffffffffffffffffffffff166394eb170d856040518263ffffffff1660e01b81526004016108f191906151b1565b61014060405180830381865afa15801561090f573d6000803e3d6000fd5b505050506040513d601f19601f82011682018060405250810190610933919061520d565b90919293949596979850909192939495969750909192939495965090919293949550909192939450909192935090919250909150905080915050610978838383613b1b565b50505050565b620186a0828160048281548110610998576109976152ec565b5b90600052602060002090600902016005015410156109b557600080fd5b836005600082815260200190815260200160002060009054906101000a900473ffffffffffffffffffffffffffffffffffffffff1673ffffffffffffffffffffffffffffffffffffffff163373ffffffffffffffffffffffffffffffffffffffff1614610a2157600080fd5b6011543414610a2f57600080fd5b8360048681548110610a4457610a436152ec565b5b9060005260206000209060090201600001819055505050505050565b806005600082815260200190815260200160002060009054906101000a900473ffffffffffffffffffffffffffffffffffffffff1673ffffffffffffffffffffffffffffffffffffffff163373ffffffffffffffffffffffffffffffffffffffff1614610acc57600080fd5b600160048381548110610ae257610ae16152ec565b5b90600052602060002090600902016007015484610aff919061534a565b1080610b3b5750600160048381548110610b1c57610b1b6152ec565b5b90600052602060002090600902016006015484610b39919061534a565b105b15610c06576019543414610b4e57600080fd5b610ba260048381548110610b6557610b646152ec565b5b90600052602060002090600902016007015460048481548110610b8b57610b8a6152ec565b5b906000526020600020906009020160060154613de2565b6027543414610bb057600080fd5b610c058260048481548110610bc857610bc76152ec565b5b90600052602060002090600902016006015460048581548110610bee57610bed6152ec565b5b906000526020600020906009020160070154613e31565b5b505050565b6019543414610c1957600080fd5b6000604051602001610c2a906153ca565b6040516020818303038152906040528051906020012090506000601c60009054906101000a900473ffffffffffffffffffffffffffffffffffffffff1673ffffffffffffffffffffffffffffffffffffffff16634337932d856040518263ffffffff1660e01b8152600401610c9f91906151b1565b61010060405180830381865afa158015610cbd573d6000803e3d6000fd5b505050506040513d601f19601f82011682018060405250810190610ce191906153df565b909192939495965090919293949550909192939450909192935090919250909150905080915050610d13828285613f0f565b50505050565b610d216122d8565b610d2a57600080fd5b80601c60006101000a81548173ffffffffffffffffffffffffffffffffffffffff021916908373ffffffffffffffffffffffffffffffffffffffff16021790555050565b610d766122d8565b610d7f57600080fd5b80601d60006101000a81548173ffffffffffffffffffffffffffffffffffffffff021916908373ffffffffffffffffffffffffffffffffffffffff16021790555050565b610dcb6122d8565b610dd457600080fd5b6010543414610de257600080fd5b6000610dec6122af565b90508073ffffffffffffffffffffffffffffffffffffffff166108fc479081150290604051600060405180830381858888f19350505050158015610e34573d6000803e3d6000fd5b5050565b60606000601760008473ffffffffffffffffffffffffffffffffffffffff1673ffffffffffffffffffffffffffffffffffffffff1681526020019081526020016000205467ffffffffffffffff811115610e9557610e94614fd1565b5b604051908082528060200260200182016040528015610ec35781602001602082028036833780820191505090505b5090506000805b601580549050811015610f80578473ffffffffffffffffffffffffffffffffffffffff166016600083815260200190815260200160002060009054906101000a900473ffffffffffffffffffffffffffffffffffffffff1673ffffffffffffffffffffffffffffffffffffffff161415610f6d5780838381518110610f5257610f516152ec565b5b6020026020010181815250508180610f6990615495565b9250505b8080610f7890615495565b915050610eca565b508192505050919050565b806005600082815260200190815260200160002060009054906101000a900473ffffffffffffffffffffffffffffffffffffffff1673ffffffffffffffffffffffffffffffffffffffff163373ffffffffffffffffffffffffffffffffffffffff1614610ff757600080fd5b602654341461100557600080fd5b61103d836004848154811061101d5761101c6152ec565b5b90600052602060002090600902016007015461412f90919063ffffffff16565b60048381548110611051576110506152ec565b5b906000526020600020906009020160070181905550602754341461107457600080fd5b6110c9826004848154811061108c5761108b6152ec565b5b906000526020600020906009020160060154600485815481106110b2576110b16152ec565b5b906000526020600020906009020160070154613e31565b6000602860029054906101000a900461ffff1661ffff1614156111a25760046019546110f591906154de565b341461110057600080fd5b6111098361415b565b61115d600483815481106111205761111f6152ec565b5b90600052602060002090600902016007015460048481548110611146576111456152ec565b5b906000526020600020906009020160060154613de2565b6111856001602860029054906101000a900461ffff1661ffff1661417990919063ffffffff16565b602860026101000a81548161ffff021916908361ffff1602179055505b505050565b60195434146111b557600080fd5b60006040516020016111c690615584565b6040516020818303038152906040528051906020012090506000601e60009054906101000a900473ffffffffffffffffffffffffffffffffffffffff1673ffffffffffffffffffffffffffffffffffffffff16634c9c05ea856040518263ffffffff1660e01b815260040161123b91906151b1565b61010060405180830381865afa158015611259573d6000803e3d6000fd5b505050506040513d601f19601f8201168201806040525081019061127d91906153df565b9091929394959650909192939495509091929394509091929350909192509091509050809150506112af828285613f0f565b50505050565b6112bd6122d8565b6112c657600080fd5b80602060006101000a81548173ffffffffffffffffffffffffffffffffffffffff021916908373ffffffffffffffffffffffffffffffffffffffff16021790555050565b826016600082815260200190815260200160002060009054906101000a900473ffffffffffffffffffffffffffffffffffffffff1673ffffffffffffffffffffffffffffffffffffffff163373ffffffffffffffffffffffffffffffffffffffff161461137657600080fd5b826016600082815260200190815260200160002060009054906101000a900473ffffffffffffffffffffffffffffffffffffffff1673ffffffffffffffffffffffffffffffffffffffff163373ffffffffffffffffffffffffffffffffffffffff16146113e257600080fd5b6000601586815481106113f8576113f76152ec565b5b9060005260206000209060050201905060006015868154811061141e5761141d6152ec565b5b90600052602060002090600502019050611437826141ad565b61144057600080fd5b611449816141ad565b61145257600080fd5b602354341461146057600080fd5b60006002826000015484600001546114789190615599565b611482919061561e565b905060006040516020016114959061569b565b6040516020818303038152906040528051906020012084600101541480156114ea575082600101546040516020016114cd919061571d565b604051602081830303815290604052805190602001208360010154145b8061154f57506040516020016114ff90615743565b60405160208183030381529060405280519060200120846001015414801561154e57506040516020016115319061569b565b604051602081830303815290604052805190602001208360010154145b5b1561157c57604051602001611563906157a4565b6040516020818303038152906040528051906020012090505b60405160200161158b90615805565b6040516020818303038152906040528051906020012084600101541480156115e0575082600101546040516020016115c3919061571d565b604051602081830303815290604052805190602001208360010154145b8061164557506040516020016115f590615743565b604051602081830303815290604052805190602001208460010154148015611644575060405160200161162790615805565b604051602081830303815290604052805190602001208360010154145b5b156116725760405160200161165990615866565b6040516020818303038152906040528051906020012090505b604051602001611681906153ca565b6040516020818303038152906040528051906020012084600101541480156116d6575082600101546040516020016116b9919061571d565b604051602081830303815290604052805190602001208360010154145b8061173b57506040516020016116eb90615743565b60405160208183030381529060405280519060200120846001015414801561173a575060405160200161171d906153ca565b604051602081830303815290604052805190602001208360010154145b5b156117685760405160200161174f906158c7565b6040516020818303038152906040528051906020012090505b60405160200161177790615928565b6040516020818303038152906040528051906020012084600101541480156117cc575082600101546040516020016117af919061571d565b604051602081830303815290604052805190602001208360010154145b8061183157506040516020016117e190615743565b604051602081830303815290604052805190602001208460010154148015611830575060405160200161181390615928565b604051602081830303815290604052805190602001208360010154145b5b1561185e5760405160200161184590615989565b6040516020818303038152906040528051906020012090505b60405160200161186d90615584565b6040516020818303038152906040528051906020012084600101541480156118c2575082600101546040516020016118a5919061571d565b604051602081830303815290604052805190602001208360010154145b8061192757506040516020016118d790615743565b604051602081830303815290604052805190602001208460010154148015611926575060405160200161190990615584565b604051602081830303815290604052805190602001208360010154145b5b156119545760405160200161193b906159ea565b6040516020818303038152906040528051906020012090505b60405160200161196390615a4b565b6040516020818303038152906040528051906020012084600101541480156119b85750826001015460405160200161199b919061571d565b604051602081830303815290604052805190602001208360010154145b80611a1d57506040516020016119cd90615743565b604051602081830303815290604052805190602001208460010154148015611a1c57506040516020016119ff90615a4b565b604051602081830303815290604052805190602001208360010154145b5b15611a4a57604051602001611a3190615aac565b6040516020818303038152906040528051906020012090505b604051602001611a5990615b0d565b604051602081830303815290604052805190602001208460010154148015611aae57508260010154604051602001611a91919061571d565b604051602081830303815290604052805190602001208360010154145b80611b135750604051602001611ac390615743565b604051602081830303815290604052805190602001208460010154148015611b125750604051602001611af590615b0d565b604051602081830303815290604052805190602001208360010154145b5b15611b4057604051602001611b2790615b6e565b6040516020818303038152906040528051906020012090505b6000611b4c60646141d4565b90506021548111158015611b7857506022548560040160009054906101000a900461ffff1661ffff1611155b15611be357611b8882848a613f0f565b611b9185614230565b611b9a84614230565b611bc460018660040160009054906101000a900461ffff1661ffff1661417990919063ffffffff16565b8560040160006101000a81548161ffff021916908361ffff1602179055505b60215481118015611c0c57506022548560040160009054906101000a900461ffff1661ffff1611155b15611c2457611c1a85614230565b611c2384614230565b5b50505050505050505050565b611c386122d8565b611c4157600080fd5b80600a60006101000a81548173ffffffffffffffffffffffffffffffffffffffff021916908373ffffffffffffffffffffffffffffffffffffffff16021790555050565b611c8d6122d8565b611c9657600080fd5b80600960006101000a81548173ffffffffffffffffffffffffffffffffffffffff021916908373ffffffffffffffffffffffffffffffffffffffff16021790555050565b611ce26122d8565b611ceb57600080fd5b80601b60006101000a81548173ffffffffffffffffffffffffffffffffffffffff021916908373ffffffffffffffffffffffffffffffffffffffff16021790555050565b611d376122d8565b611d4057600080fd5b600073ffffffffffffffffffffffffffffffffffffffff1660008054906101000a900473ffffffffffffffffffffffffffffffffffffffff1673ffffffffffffffffffffffffffffffffffffffff167f8be0079c531659141344cd1fd0a4f28419497f9722a3daafe3b4186f6b6457e060405160405180910390a360008060006101000a81548173ffffffffffffffffffffffffffffffffffffffff021916908373ffffffffffffffffffffffffffffffffffffffff160217905550565b6019543414611e0c57600080fd5b6000604051602001611e1d90615b0d565b6040516020818303038152906040528051906020012090506000601e60009054906101000a900473ffffffffffffffffffffffffffffffffffffffff1673ffffffffffffffffffffffffffffffffffffffff16634c9c05ea856040518263ffffffff1660e01b8152600401611e9291906151b1565b61010060405180830381865afa158015611eb0573d6000803e3d6000fd5b505050506040513d601f19601f82011682018060405250810190611ed491906153df565b909192939495965090919293949550909192939450909192935090919250909150905080915050611f06828285613f0f565b50505050565b611f146122d8565b611f1d57600080fd5b80601e60006101000a81548173ffffffffffffffffffffffffffffffffffffffff021916908373ffffffffffffffffffffffffffffffffffffffff16021790555050565b806005600082815260200190815260200160002060009054906101000a900473ffffffffffffffffffffffffffffffffffffffff1673ffffffffffffffffffffffffffffffffffffffff163373ffffffffffffffffffffffffffffffffffffffff1614611fcd57600080fd5b6019543414611fdb57600080fd5b611fe58484613de2565b6027543414611ff357600080fd5b611ffe828585613e31565b50505050565b61200c6122d8565b61201557600080fd5b602554341461202357600080fd5b600061202d6122af565b90508073ffffffffffffffffffffffffffffffffffffffff166108fc479081150290604051600060405180830381858888f19350505050158015612075573d6000803e3d6000fd5b5050565b6004818154811061208957600080fd5b90600052602060002090600902016000915090508060000154908060010180546120b290615bb2565b80601f01602080910402602001604051908101604052809291908181526020018280546120de90615bb2565b801561212b5780601f106121005761010080835404028352916020019161212b565b820191906000526020600020905b81548152906001019060200180831161210e57829003601f168201915b50505050509080600201805461214090615bb2565b80601f016020809104026020016040519081016040528092919081815260200182805461216c90615bb2565b80156121b95780601f1061218e576101008083540402835291602001916121b9565b820191906000526020600020905b81548152906001019060200180831161219c57829003601f168201915b5050505050908060030154908060040160009054906101000a900463ffffffff16908060050154908060060154908060070154908060080160009054906101000a900461ffff16905089565b61220d6122d8565b61221657600080fd5b80600b60006101000a81548173ffffffffffffffffffffffffffffffffffffffff021916908373ffffffffffffffffffffffffffffffffffffffff16021790555050565b6122626122d8565b61226b57600080fd5b80601a60006101000a81548173ffffffffffffffffffffffffffffffffffffffff021916908373ffffffffffffffffffffffffffffffffffffffff16021790555050565b60008060009054906101000a900473ffffffffffffffffffffffffffffffffffffffff16905090565b60008060009054906101000a900473ffffffffffffffffffffffffffffffffffffffff1673ffffffffffffffffffffffffffffffffffffffff163373ffffffffffffffffffffffffffffffffffffffff1614905090565b6015818154811061233f57600080fd5b90600052602060002090600502016000915090508060000154908060010154908060020160009054906101000a900463ffffffff16908060030154908060040160009054906101000a900461ffff16905085565b806005600082815260200190815260200160002060009054906101000a900473ffffffffffffffffffffffffffffffffffffffff1673ffffffffffffffffffffffffffffffffffffffff163373ffffffffffffffffffffffffffffffffffffffff16146123ff57600080fd5b600160048381548110612415576124146152ec565b5b90600052602060002090600902016007015484612432919061534a565b5050505050565b600754341461244757600080fd5b600060405160200161245890615c30565b604051602081830303815290604052805190602001209050600061247a613a83565b90506000600960009054906101000a900473ffffffffffffffffffffffffffffffffffffffff1673ffffffffffffffffffffffffffffffffffffffff1663e98b7f4d856040518263ffffffff1660e01b81526004016124d991906151b1565b61014060405180830381865afa1580156124f7573d6000803e3d6000fd5b505050506040513d601f19601f8201168201806040525081019061251b919061520d565b90919293949596979850909192939495969750909192939495965090919293949550909192939450909192935090919250909150905080915050612560838383613b1b565b50505050565b60606000600660008473ffffffffffffffffffffffffffffffffffffffff1673ffffffffffffffffffffffffffffffffffffffff1681526020019081526020016000205467ffffffffffffffff8111156125c3576125c2614fd1565b5b6040519080825280602002602001820160405280156125f15781602001602082028036833780820191505090505b5090506000805b6004805490508110156126ae578473ffffffffffffffffffffffffffffffffffffffff166005600083815260200190815260200160002060009054906101000a900473ffffffffffffffffffffffffffffffffffffffff1673ffffffffffffffffffffffffffffffffffffffff16141561269b57808383815181106126805761267f6152ec565b5b602002602001018181525050818061269790615495565b9250505b80806126a690615495565b9150506125f8565b508192505050919050565b806005600082815260200190815260200160002060009054906101000a900473ffffffffffffffffffffffffffffffffffffffff1673ffffffffffffffffffffffffffffffffffffffff163373ffffffffffffffffffffffffffffffffffffffff161461272557600080fd5b602654341461273357600080fd5b61276b836004848154811061274b5761274a6152ec565b5b90600052602060002090600902016006015461412f90919063ffffffff16565b6004838154811061277f5761277e6152ec565b5b9060005260206000209060090201600601819055506000602860009054906101000a900461ffff1661ffff1614156128195760026019546127c091906154de565b34146127cb57600080fd5b6127d483614263565b6127fc6001602860009054906101000a900461ffff1661ffff1661417990919063ffffffff16565b602860006101000a81548161ffff021916908361ffff1602179055505b505050565b6064838160048281548110612836576128356152ec565b5b906000526020600020906009020160050154101561285357600080fd5b846005600082815260200190815260200160002060009054906101000a900473ffffffffffffffffffffffffffffffffffffffff1673ffffffffffffffffffffffffffffffffffffffff163373ffffffffffffffffffffffffffffffffffffffff16146128bf57600080fd5b600f5434146128cd57600080fd5b8484600488815481106128e3576128e26152ec565b5b9060005260206000209060090201600101919061290192919061491e565b50505050505050565b816016600082815260200190815260200160002060009054906101000a900473ffffffffffffffffffffffffffffffffffffffff1673ffffffffffffffffffffffffffffffffffffffff163373ffffffffffffffffffffffffffffffffffffffff161461297657600080fd5b602454341461298457600080fd5b8160158481548110612999576129986152ec565b5b906000526020600020906005020160000181905550505050565b60195434146129c157600080fd5b60006040516020016129d29061569b565b6040516020818303038152906040528051906020012090506000601a60009054906101000a900473ffffffffffffffffffffffffffffffffffffffff1673ffffffffffffffffffffffffffffffffffffffff1663a5f23e1d856040518263ffffffff1660e01b8152600401612a4791906151b1565b61010060405180830381865afa158015612a65573d6000803e3d6000fd5b505050506040513d601f19601f82011682018060405250810190612a8991906153df565b909192939495965090919293949550909192939450909192935090919250909150905080915050612abb828285613f0f565b50505050565b60056020528060005260406000206000915054906101000a900473ffffffffffffffffffffffffffffffffffffffff1681565b6019543414612b0257600080fd5b6000604051602001612b1390615928565b6040516020818303038152906040528051906020012090506000601d60009054906101000a900473ffffffffffffffffffffffffffffffffffffffff1673ffffffffffffffffffffffffffffffffffffffff166325f76202856040518263ffffffff1660e01b8152600401612b8891906151b1565b61010060405180830381865afa158015612ba6573d6000803e3d6000fd5b505050506040513d601f19601f82011682018060405250810190612bca91906153df565b909192939495965090919293949550909192939450909192935090919250909150905080915050612bfc828285613f0f565b50505050565b6019543414612c1057600080fd5b6000604051602001612c2190615805565b6040516020818303038152906040528051906020012090506000601b60009054906101000a900473ffffffffffffffffffffffffffffffffffffffff1673ffffffffffffffffffffffffffffffffffffffff1663ee5394de856040518263ffffffff1660e01b8152600401612c9691906151b1565b61010060405180830381865afa158015612cb4573d6000803e3d6000fd5b505050506040513d601f19601f82011682018060405250810190612cd891906153df565b909192939495965090919293949550909192939450909192935090919250909150905080915050612d0a828285613f0f565b50505050565b6007543414612d1e57600080fd5b6000600660003373ffffffffffffffffffffffffffffffffffffffff1673ffffffffffffffffffffffffffffffffffffffff1681526020019081526020016000205414612d6a57600080fd5b6000604051602001612d7b90615c91565b6040516020818303038152906040528051906020012090506000612dd36040518060400160405280600881526020017f74726176656c6572000000000000000000000000000000000000000000000000815250614278565b9050606481612de29190615ca6565b81612ded919061534a565b9050612dfa828483613b1b565b505050565b816005600082815260200190815260200160002060009054906101000a900473ffffffffffffffffffffffffffffffffffffffff1673ffffffffffffffffffffffffffffffffffffffff163373ffffffffffffffffffffffffffffffffffffffff1614612e6b57600080fd5b816005600082815260200190815260200160002060009054906101000a900473ffffffffffffffffffffffffffffffffffffffff1673ffffffffffffffffffffffffffffffffffffffff163373ffffffffffffffffffffffffffffffffffffffff1614612ed757600080fd5b600060048581548110612eed57612eec6152ec565b5b90600052602060002090600902019050600060048581548110612f1357612f126152ec565b5b90600052602060002090600902019050612f2c826142bd565b612f3557600080fd5b612f3e816142bd565b612f4757600080fd5b600e543414612f5557600080fd5b6000600282600001548460000154612f6d9190615599565b612f77919061561e565b90506000604051602001612f8a90615d23565b604051602081830303815290604052805190602001208460030154148015612fd95750604051602001612fbc90615c91565b604051602081830303815290604052805190602001208360030154145b8061303e5750604051602001612fee90615c91565b60405160208183030381529060405280519060200120846003015414801561303d575060405160200161302090615d23565b604051602081830303815290604052805190602001208360030154145b5b1561306b5760405160200161305290615d84565b6040516020818303038152906040528051906020012090505b60405160200161307a90615c30565b6040516020818303038152906040528051906020012084600301541480156130c957506040516020016130ac90615c91565b604051602081830303815290604052805190602001208360030154145b8061312e57506040516020016130de90615c91565b60405160208183030381529060405280519060200120846003015414801561312d575060405160200161311090615c30565b604051602081830303815290604052805190602001208360030154145b5b1561315b5760405160200161314290615de5565b6040516020818303038152906040528051906020012090505b60405160200161316a9061519c565b6040516020818303038152906040528051906020012084600301541480156131b9575060405160200161319c90615c91565b604051602081830303815290604052805190602001208360030154145b8061321e57506040516020016131ce90615c91565b60405160208183030381529060405280519060200120846003015414801561321d57506040516020016132009061519c565b604051602081830303815290604052805190602001208360030154145b5b1561324b5760405160200161323290615e46565b6040516020818303038152906040528051906020012090505b60405160200161325a90615d23565b6040516020818303038152906040528051906020012084600301541480156132a9575060405160200161328c90615c30565b604051602081830303815290604052805190602001208360030154145b8061330e57506040516020016132be90615c30565b60405160208183030381529060405280519060200120846003015414801561330d57506040516020016132f090615d23565b604051602081830303815290604052805190602001208360030154145b5b1561333b5760405160200161332290615ea7565b6040516020818303038152906040528051906020012090505b60405160200161334a90615d23565b604051602081830303815290604052805190602001208460030154148015613399575060405160200161337c9061519c565b604051602081830303815290604052805190602001208360030154145b806133fe57506040516020016133ae9061519c565b6040516020818303038152906040528051906020012084600301541480156133fd57506040516020016133e090615d23565b604051602081830303815290604052805190602001208360030154145b5b1561342b5760405160200161341290615f08565b6040516020818303038152906040528051906020012090505b60405160200161343a90615c30565b604051602081830303815290604052805190602001208460030154148015613489575060405160200161346c9061519c565b604051602081830303815290604052805190602001208360030154145b806134ee575060405160200161349e9061519c565b6040516020818303038152906040528051906020012084600301541480156134ed57506040516020016134d090615c30565b604051602081830303815290604052805190602001208360030154145b5b1561351b5760405160200161350290615c30565b6040516020818303038152906040528051906020012090505b60405160200161352a90615c91565b604051602081830303815290604052805190602001208460030154148015613579575060405160200161355c90615c91565b604051602081830303815290604052805190602001208360030154145b156135a65760405160200161358d90615c91565b6040516020818303038152906040528051906020012090505b6040516020016135b590615c30565b60405160208183030381529060405280519060200120846003015414801561360457506040516020016135e790615c30565b604051602081830303815290604052805190602001208360030154145b156136315760405160200161361890615c30565b6040516020818303038152906040528051906020012090505b6040516020016136409061519c565b60405160208183030381529060405280519060200120846003015414801561368f57506040516020016136729061519c565b604051602081830303815290604052805190602001208360030154145b156136bc576040516020016136a39061519c565b6040516020818303038152906040528051906020012090505b6040516020016136cb90615d23565b60405160208183030381529060405280519060200120846003015414801561371a57506040516020016136fd90615d23565b604051602081830303815290604052805190602001208360030154145b1561374b5760405160200161372e90615d23565b604051602081830303815290604052805190602001209050613773565b60405160200161375a90615f69565b6040516020818303038152906040528051906020012090505b600061377f60646142e4565b9050600c5481111580156137ab5750600d548560080160009054906101000a900461ffff1661ffff1611155b1561381d576137c2826137bc613a83565b85613b1b565b6137cb85614340565b6137d484614340565b6137fe60018660080160009054906101000a900461ffff1661ffff1661417990919063ffffffff16565b8560080160006101000a81548161ffff021916908361ffff1602179055505b600c54811180156138465750600d548560080160009054906101000a900461ffff1661ffff1611155b156138a65761385485614340565b61385d84614340565b61388760018660080160009054906101000a900461ffff1661ffff1661417990919063ffffffff16565b8560080160006101000a81548161ffff021916908361ffff1602179055505b505050505050505050565b6138b96122d8565b6138c257600080fd5b80601f60006101000a81548173ffffffffffffffffffffffffffffffffffffffff021916908373ffffffffffffffffffffffffffffffffffffffff16021790555050565b61390e6122d8565b61391757600080fd5b61392081614373565b50565b60166020528060005260406000206000915054906101000a900473ffffffffffffffffffffffffffffffffffffffff1681565b600754341461396457600080fd5b600060405160200161397590615d23565b6040516020818303038152906040528051906020012090506000613997613a83565b90506000600a60009054906101000a900473ffffffffffffffffffffffffffffffffffffffff1673ffffffffffffffffffffffffffffffffffffffff16632a417612856040518263ffffffff1660e01b81526004016139f691906151b1565b61014060405180830381865afa158015613a14573d6000803e3d6000fd5b505050506040513d601f19601f82011682018060405250810190613a38919061520d565b90919293949596979850909192939495969750909192939495965090919293949550909192939450909192935090919250909150905080915050613a7d838383613b1b565b50505050565b6060600060329050606081613a9860646142e4565b11613ada576040518060400160405280600481526020017f6d616c65000000000000000000000000000000000000000000000000000000008152509050613b13565b6040518060400160405280600681526020017f66656d616c65000000000000000000000000000000000000000000000000000081525090505b809250505090565b600060035442613b2b9190615599565b905060046040518061012001604052808481526020016040518060400160405280600681526020017f4e6f4e616d65000000000000000000000000000000000000000000000000000081525081526020018581526020018681526020018363ffffffff168152602001600081526020016000815260200160008152602001600061ffff168152509080600181540180825580915050600190039060005260206000209060090201600090919091909150600082015181600001556020820151816001019080519060200190613c019291906149a4565b506040820151816002019080519060200190613c1e9291906149a4565b506060820151816003015560808201518160040160006101000a81548163ffffffff021916908363ffffffff16021790555060a0820151816005015560c0820151816006015560e082015181600701556101008201518160080160006101000a81548161ffff021916908361ffff160217905550505060006001600480549050613ca8919061534a565b9050336005600083815260200190815260200160002060006101000a81548173ffffffffffffffffffffffffffffffffffffffff021916908373ffffffffffffffffffffffffffffffffffffffff160217905550613d4f6001600660003373ffffffffffffffffffffffffffffffffffffffff1673ffffffffffffffffffffffffffffffffffffffff1681526020019081526020016000205461412f90919063ffffffff16565b600660003373ffffffffffffffffffffffffffffffffffffffff1673ffffffffffffffffffffffffffffffffffffffff168152602001908152602001600020819055507f678dbb6331d0cd0cd21ff45fcbb1bc795295619c327d618856814cc8530d54f78184868886600080600080604051613dd39998979695949392919061600f565b60405180910390a15050505050565b6000613dee60646141d4565b90506032811015613e0857613e03838361446a565b613e2c565b604b811015613e2057613e1b83836144ec565b613e2b565b613e2a838361456e565b5b5b505050565b826005600082815260200190815260200160002060009054906101000a900473ffffffffffffffffffffffffffffffffffffffff1673ffffffffffffffffffffffffffffffffffffffff163373ffffffffffffffffffffffffffffffffffffffff1614613e9d57600080fd5b613ee08383613eac919061534a565b60048681548110613ec057613ebf6152ec565b5b90600052602060002090600902016005015461412f90919063ffffffff16565b60048581548110613ef457613ef36152ec565b5b90600052602060002090600902016005018190555050505050565b600060145442613f1f9190615599565b905060156040518060a001604052808581526020018681526020018363ffffffff168152602001848152602001600061ffff168152509080600181540180825580915050600190039060005260206000209060050201600090919091909150600082015181600001556020820151816001015560408201518160020160006101000a81548163ffffffff021916908363ffffffff1602179055506060820151816003015560808201518160040160006101000a81548161ffff021916908361ffff160217905550505060006001601580549050613ffc919061534a565b9050336016600083815260200190815260200160002060006101000a81548173ffffffffffffffffffffffffffffffffffffffff021916908373ffffffffffffffffffffffffffffffffffffffff1602179055506140a36001601760003373ffffffffffffffffffffffffffffffffffffffff1673ffffffffffffffffffffffffffffffffffffffff1681526020019081526020016000205461412f90919063ffffffff16565b601760003373ffffffffffffffffffffffffffffffffffffffff1673ffffffffffffffffffffffffffffffffffffffff168152602001908152602001600020819055507f5ad354523f49f6a431c943b15028530250f3c9c42deb03b1bc586d7698af018881858785876000604051614120969594939291906160b7565b60405180910390a15050505050565b600080828461413e9190615599565b90508381101561415157614150616118565b5b8091505092915050565b614164816145f0565b61416d81614685565b6141768161471a565b50565b60008082846141889190616147565b90508361ffff168161ffff1610156141a3576141a2616118565b5b8091505092915050565b6000428260020160009054906101000a900463ffffffff1663ffffffff1611159050919050565b6000601860008154809291906141e990615495565b9190505550814233601854604051602001614206939291906161e8565b6040516020818303038152906040528051906020012060001c6142299190615ca6565b9050919050565b6014544261423e9190615599565b8160020160006101000a81548163ffffffff021916908363ffffffff16021790555050565b61426c816147af565b61427581614844565b50565b6000808260405160200161428c9190616256565b6040516020818303038152906040528051906020012060001c9050600254816142b59190615ca6565b915050919050565b6000428260040160009054906101000a900463ffffffff1663ffffffff1611159050919050565b6000600860008154809291906142f990615495565b9190505550814233600854604051602001614316939291906161e8565b6040516020818303038152906040528051906020012060001c6143399190615ca6565b9050919050565b6003544261434e9190615599565b8160040160006101000a81548163ffffffff021916908363ffffffff16021790555050565b600073ffffffffffffffffffffffffffffffffffffffff168173ffffffffffffffffffffffffffffffffffffffff1614156143ad57600080fd5b8073ffffffffffffffffffffffffffffffffffffffff1660008054906101000a900473ffffffffffffffffffffffffffffffffffffffff1673ffffffffffffffffffffffffffffffffffffffff167f8be0079c531659141344cd1fd0a4f28419497f9722a3daafe3b4186f6b6457e060405160405180910390a3806000806101000a81548173ffffffffffffffffffffffffffffffffffffffff021916908373ffffffffffffffffffffffffffffffffffffffff16021790555050565b600060405160200161447b906162b9565b60405160208183030381529060405280519060200120905060006144bf84846040516020016144ab9291906162ce565b6040516020818303038152906040526148d9565b90506064816144ce9190615ca6565b816144d9919061534a565b90506144e6828285613f0f565b50505050565b60006040516020016144fd90616346565b6040516020818303038152906040528051906020012090506000614541848460405160200161452d9291906162ce565b6040516020818303038152906040526148d9565b90506064816145509190615ca6565b8161455b919061534a565b9050614568828285613f0f565b50505050565b600060405160200161457f906163a7565b60405160208183030381529060405280519060200120905060006145c384846040516020016145af9291906162ce565b6040516020818303038152906040526148d9565b90506064816145d29190615ca6565b816145dd919061534a565b90506145ea828285613f0f565b50505050565b600060405160200161460190615584565b60405160208183030381529060405280519060200120905060006146596040518060400160405280600b81526020017f426c616e6b2053686972740000000000000000000000000000000000000000008152506148d9565b90506064816146689190615ca6565b81614673919061534a565b9050614680828285613f0f565b505050565b6000604051602001614696906153ca565b60405160208183030381529060405280519060200120905060006146ee6040518060400160405280600b81526020017f426c616e6b2050616e74730000000000000000000000000000000000000000008152506148d9565b90506064816146fd9190615ca6565b81614708919061534a565b9050614715828285613f0f565b505050565b600060405160200161472b9061569b565b60405160208183030381529060405280519060200120905060006147836040518060400160405280600b81526020017f426c616e6b2053686f65730000000000000000000000000000000000000000008152506148d9565b90506064816147929190615ca6565b8161479d919061534a565b90506147aa828285613f0f565b505050565b60006040516020016147c090615928565b60405160208183030381529060405280519060200120905060006148186040518060400160405280600f81526020017f426c616e6b20556e6465727765617200000000000000000000000000000000008152506148d9565b90506064816148279190615ca6565b81614832919061534a565b905061483f828285613f0f565b505050565b600060405160200161485590615805565b60405160208183030381529060405280519060200120905060006148ad6040518060400160405280600b81526020017f426c616e6b20536f636b730000000000000000000000000000000000000000008152506148d9565b90506064816148bc9190615ca6565b816148c7919061534a565b90506148d4828285613f0f565b505050565b600080826040516020016148ed9190616256565b6040516020818303038152906040528051906020012060001c9050601354816149169190615ca6565b915050919050565b82805461492a90615bb2565b90600052602060002090601f01602090048101928261494c5760008555614993565b82601f1061496557803560ff1916838001178555614993565b82800160010185558215614993579182015b82811115614992578235825591602001919060010190614977565b5b5090506149a09190614a2a565b5090565b8280546149b090615bb2565b90600052602060002090601f0160209004810192826149d25760008555614a19565b82601f106149eb57805160ff1916838001178555614a19565b82800160010185558215614a19579182015b82811115614a185782518255916020019190600101906149fd565b5b509050614a269190614a2a565b5090565b5b80821115614a43576000816000905550600101614a2b565b5090565b6000604051905090565b600080fd5b600080fd5b6000819050919050565b614a6e81614a5b565b8114614a7957600080fd5b50565b600081359050614a8b81614a65565b92915050565b600060208284031215614aa757614aa6614a51565b5b6000614ab584828501614a7c565b91505092915050565b60008060408385031215614ad557614ad4614a51565b5b6000614ae385828601614a7c565b9250506020614af485828601614a7c565b9150509250929050565b600073ffffffffffffffffffffffffffffffffffffffff82169050919050565b6000614b2982614afe565b9050919050565b614b3981614b1e565b8114614b4457600080fd5b50565b600081359050614b5681614b30565b92915050565b600060208284031215614b7257614b71614a51565b5b6000614b8084828501614b47565b91505092915050565b600081519050919050565b600082825260208201905092915050565b6000819050602082019050919050565b614bbe81614a5b565b82525050565b6000614bd08383614bb5565b60208301905092915050565b6000602082019050919050565b6000614bf482614b89565b614bfe8185614b94565b9350614c0983614ba5565b8060005b83811015614c3a578151614c218882614bc4565b9750614c2c83614bdc565b925050600181019050614c0d565b5085935050505092915050565b60006020820190508181036000830152614c618184614be9565b905092915050565b600080600060608486031215614c8257614c81614a51565b5b6000614c9086828701614a7c565b9350506020614ca186828701614a7c565b9250506040614cb286828701614a7c565b9150509250925092565b614cc581614a5b565b82525050565b600081519050919050565b600082825260208201905092915050565b60005b83811015614d05578082015181840152602081019050614cea565b83811115614d14576000848401525b50505050565b6000601f19601f8301169050919050565b6000614d3682614ccb565b614d408185614cd6565b9350614d50818560208601614ce7565b614d5981614d1a565b840191505092915050565b6000819050919050565b614d7781614d64565b82525050565b600063ffffffff82169050919050565b614d9681614d7d565b82525050565b600061ffff82169050919050565b614db381614d9c565b82525050565b600061012082019050614dcf600083018c614cbc565b8181036020830152614de1818b614d2b565b90508181036040830152614df5818a614d2b565b9050614e046060830189614d6e565b614e116080830188614d8d565b614e1e60a0830187614cbc565b614e2b60c0830186614cbc565b614e3860e0830185614cbc565b614e46610100830184614daa565b9a9950505050505050505050565b614e5d81614b1e565b82525050565b6000602082019050614e786000830184614e54565b92915050565b60008115159050919050565b614e9381614e7e565b82525050565b6000602082019050614eae6000830184614e8a565b92915050565b600060a082019050614ec96000830188614cbc565b614ed66020830187614d6e565b614ee36040830186614d8d565b614ef06060830185614cbc565b614efd6080830184614daa565b9695505050505050565b600080fd5b600080fd5b600080fd5b60008083601f840112614f2c57614f2b614f07565b5b8235905067ffffffffffffffff811115614f4957614f48614f0c565b5b602083019150836001820283011115614f6557614f64614f11565b5b9250929050565b600080600060408486031215614f8557614f84614a51565b5b6000614f9386828701614a7c565b935050602084013567ffffffffffffffff811115614fb457614fb3614a56565b5b614fc086828701614f16565b92509250509250925092565b600080fd5b7f4e487b7100000000000000000000000000000000000000000000000000000000600052604160045260246000fd5b61500982614d1a565b810181811067ffffffffffffffff8211171561502857615027614fd1565b5b80604052505050565b600061503b614a47565b90506150478282615000565b919050565b600067ffffffffffffffff82111561506757615066614fd1565b5b61507082614d1a565b9050602081019050919050565b82818337600083830152505050565b600061509f61509a8461504c565b615031565b9050828152602081018484840111156150bb576150ba614fcc565b5b6150c684828561507d565b509392505050565b600082601f8301126150e3576150e2614f07565b5b81356150f384826020860161508c565b91505092915050565b60006020828403121561511257615111614a51565b5b600082013567ffffffffffffffff8111156151305761512f614a56565b5b61513c848285016150ce565b91505092915050565b600081905092915050565b7f626f726564417065000000000000000000000000000000000000000000000000600082015250565b6000615186600883615145565b915061519182615150565b600882019050919050565b60006151a782615179565b9150819050919050565b60006020820190506151c66000830184614cbc565b92915050565b6151d581614e7e565b81146151e057600080fd5b50565b6000815190506151f2816151cc565b92915050565b60008151905061520781614a65565b92915050565b6000806000806000806000806000806101408b8d03121561523157615230614a51565b5b600061523f8d828e016151e3565b9a505060206152508d828e016151e3565b99505060406152618d828e016151f8565b98505060606152728d828e016151f8565b97505060806152838d828e016151f8565b96505060a06152948d828e016151f8565b95505060c06152a58d828e016151f8565b94505060e06152b68d828e016151f8565b9350506101006152c88d828e016151f8565b9250506101206152da8d828e016151f8565b9150509295989b9194979a5092959850565b7f4e487b7100000000000000000000000000000000000000000000000000000000600052603260045260246000fd5b7f4e487b7100000000000000000000000000000000000000000000000000000000600052601160045260246000fd5b600061535582614a5b565b915061536083614a5b565b9250828210156153735761537261531b565b5b828203905092915050565b7f50616e7473000000000000000000000000000000000000000000000000000000600082015250565b60006153b4600583615145565b91506153bf8261537e565b600582019050919050565b60006153d5826153a7565b9150819050919050565b600080600080600080600080610100898b031215615400576153ff614a51565b5b600061540e8b828c016151e3565b985050602061541f8b828c016151f8565b97505060406154308b828c016151f8565b96505060606154418b828c016151f8565b95505060806154528b828c016151f8565b94505060a06154638b828c016151f8565b93505060c06154748b828c016151f8565b92505060e06154858b828c016151f8565b9150509295985092959890939650565b60006154a082614a5b565b91507fffffffffffffffffffffffffffffffffffffffffffffffffffffffffffffffff8214156154d3576154d261531b565b5b600182019050919050565b60006154e982614a5b565b91506154f483614a5b565b9250817fffffffffffffffffffffffffffffffffffffffffffffffffffffffffffffffff048311821515161561552d5761552c61531b565b5b828202905092915050565b7f5368697274000000000000000000000000000000000000000000000000000000600082015250565b600061556e600583615145565b915061557982615538565b600582019050919050565b600061558f82615561565b9150819050919050565b60006155a482614a5b565b91506155af83614a5b565b9250827fffffffffffffffffffffffffffffffffffffffffffffffffffffffffffffffff038211156155e4576155e361531b565b5b828201905092915050565b7f4e487b7100000000000000000000000000000000000000000000000000000000600052601260045260246000fd5b600061562982614a5b565b915061563483614a5b565b925082615644576156436155ef565b5b828204905092915050565b7f53686f6573000000000000000000000000000000000000000000000000000000600082015250565b6000615685600583615145565b91506156908261564f565b600582019050919050565b60006156a682615678565b9150819050919050565b7f54726176656c205061696e747300000000000000000000000000000000000000600082015250565b60006156e6600d83615145565b91506156f1826156b0565b600d82019050919050565b6000819050919050565b61571761571282614d64565b6156fc565b82525050565b6000615728826156d9565b91506157348284615706565b60208201915081905092915050565b600061574e826156d9565b9150819050919050565b7f5061696e7465642053686f657300000000000000000000000000000000000000600082015250565b600061578e600d83615145565b915061579982615758565b600d82019050919050565b60006157af82615781565b9150819050919050565b7f536f636b73000000000000000000000000000000000000000000000000000000600082015250565b60006157ef600583615145565b91506157fa826157b9565b600582019050919050565b6000615810826157e2565b9150819050919050565b7f5061696e74656420536f636b7300000000000000000000000000000000000000600082015250565b6000615850600d83615145565b915061585b8261581a565b600d82019050919050565b600061587182615843565b9150819050919050565b7f5061696e7465642050616e747300000000000000000000000000000000000000600082015250565b60006158b1600d83615145565b91506158bc8261587b565b600d82019050919050565b60006158d2826158a4565b9150819050919050565b7f556e646572776561720000000000000000000000000000000000000000000000600082015250565b6000615912600983615145565b915061591d826158dc565b600982019050919050565b600061593382615905565b9150819050919050565b7f5061696e74656420556e64657277656172000000000000000000000000000000600082015250565b6000615973601183615145565b915061597e8261593d565b601182019050919050565b600061599482615966565b9150819050919050565b7f5061696e74656420536869727400000000000000000000000000000000000000600082015250565b60006159d4600d83615145565b91506159df8261599e565b600d82019050919050565b60006159f5826159c7565b9150819050919050565b7f486f6f6469650000000000000000000000000000000000000000000000000000600082015250565b6000615a35600683615145565b9150615a40826159ff565b600682019050919050565b6000615a5682615a28565b9150819050919050565b7f5061696e74656420486f6f646965000000000000000000000000000000000000600082015250565b6000615a96600e83615145565b9150615aa182615a60565b600e82019050919050565b6000615ab782615a89565b9150819050919050565b7f536e61706261636b000000000000000000000000000000000000000000000000600082015250565b6000615af7600883615145565b9150615b0282615ac1565b600882019050919050565b6000615b1882615aea565b9150819050919050565b7f5061696e74656420536e61706261636b00000000000000000000000000000000600082015250565b6000615b58601083615145565b9150615b6382615b22565b601082019050919050565b6000615b7982615b4b565b9150819050919050565b7f4e487b7100000000000000000000000000000000000000000000000000000000600052602260045260246000fd5b60006002820490506001821680615bca57607f821691505b60208210811415615bde57615bdd615b83565b5b50919050565b7f6b69747479000000000000000000000000000000000000000000000000000000600082015250565b6000615c1a600583615145565b9150615c2582615be4565b600582019050919050565b6000615c3b82615c0d565b9150819050919050565b7f74726176656c6572000000000000000000000000000000000000000000000000600082015250565b6000615c7b600883615145565b9150615c8682615c45565b600882019050919050565b6000615c9c82615c6e565b9150819050919050565b6000615cb182614a5b565b9150615cbc83614a5b565b925082615ccc57615ccb6155ef565b5b828206905092915050565b7f63797068657250756e6b00000000000000000000000000000000000000000000600082015250565b6000615d0d600a83615145565b9150615d1882615cd7565b600a82019050919050565b6000615d2e82615d00565b9150819050919050565b7f63797068657254726176656c6572000000000000000000000000000000000000600082015250565b6000615d6e600e83615145565b9150615d7982615d38565b600e82019050919050565b6000615d8f82615d61565b9150819050919050565b7f6b6974747954726176656c657200000000000000000000000000000000000000600082015250565b6000615dcf600d83615145565b9150615dda82615d99565b600d82019050919050565b6000615df082615dc2565b9150819050919050565b7f626f72656454726176656c657200000000000000000000000000000000000000600082015250565b6000615e30600d83615145565b9150615e3b82615dfa565b600d82019050919050565b6000615e5182615e23565b9150819050919050565b7f6379706865724b69747479000000000000000000000000000000000000000000600082015250565b6000615e91600b83615145565b9150615e9c82615e5b565b600b82019050919050565b6000615eb282615e84565b9150819050919050565b7f6379706865724170650000000000000000000000000000000000000000000000600082015250565b6000615ef2600983615145565b9150615efd82615ebc565b600982019050919050565b6000615f1382615ee5565b9150819050919050565b7f6e65775261636573000000000000000000000000000000000000000000000000600082015250565b6000615f53600883615145565b9150615f5e82615f1d565b600882019050919050565b6000615f7482615f46565b9150819050919050565b7f4e6f4e616d650000000000000000000000000000000000000000000000000000600082015250565b6000615fb4600683614cd6565b9150615fbf82615f7e565b602082019050919050565b6000819050919050565b6000819050919050565b6000615ff9615ff4615fef84615fca565b615fd4565b614d9c565b9050919050565b61600981615fde565b82525050565b600061014082019050616025600083018c614cbc565b616032602083018b614cbc565b818103604083015261604381615fa7565b90508181036060830152616057818a614d2b565b90506160666080830189614d6e565b61607360a0830188614d8d565b61608060c0830187616000565b61608d60e0830186616000565b61609b610100830185616000565b6160a9610120830184616000565b9a9950505050505050505050565b600060c0820190506160cc6000830189614cbc565b6160d96020830188614cbc565b6160e66040830187614d6e565b6160f36060830186614d8d565b6161006080830185614cbc565b61610d60a0830184616000565b979650505050505050565b7f4e487b7100000000000000000000000000000000000000000000000000000000600052600160045260246000fd5b600061615282614d9c565b915061615d83614d9c565b92508261ffff038211156161745761617361531b565b5b828201905092915050565b6000819050919050565b61619a61619582614a5b565b61617f565b82525050565b60008160601b9050919050565b60006161b8826161a0565b9050919050565b60006161ca826161ad565b9050919050565b6161e26161dd82614b1e565b6161bf565b82525050565b60006161f48286616189565b60208201915061620482856161d1565b6014820191506162148284616189565b602082019150819050949350505050565b600061623082614ccb565b61623a8185615145565b935061624a818560208601614ce7565b80840191505092915050565b60006162628284616225565b915081905092915050565b7f54726176656c205061696e740000000000000000000000000000000000000000600082015250565b60006162a3600c83615145565b91506162ae8261626d565b600c82019050919050565b60006162c482616296565b9150819050919050565b60006162da8285616189565b6020820191506162ea8284616189565b6020820191508190509392505050565b7f54726176656c204974656d000000000000000000000000000000000000000000600082015250565b6000616330600b83615145565b915061633b826162fa565b600b82019050919050565b600061635182616323565b9150819050919050565b7f54726176656c20436f75706f6e00000000000000000000000000000000000000600082015250565b6000616391600d83615145565b915061639c8261635b565b600d82019050919050565b60006163b282616384565b915081905091905056fea264697066735822122027dcae6c464ff50b20a5b6a45eaa91a0ed86329c1fcebc138da7ea0bf690137464736f6c634300080a0033",
  "immutableReferences": {},
  "source": "// SPDX-License-Identifier: MIT\r\npragma solidity >=0.4.22 <0.9.0;\r\n\r\nimport \"./avatarhelper.sol\";\r\nimport \"./piecehelper.sol\";\r\nimport \"./safemath.sol\";\r\n\r\ncontract TravelQuestNPC is AvatarHelper, PieceHelper {\r\n\r\n  using SafeMath for uint256;\r\n  using SafeMath16 for uint16;\r\n\r\n  uint changeLocFee = 0.01 ether;\r\n  uint travelFee = 0.01 ether;\r\n  uint16 setHomeCount = 0;\r\n  uint16 setWorkCount = 0;\r\n\r\n  function setHomeQuest(uint256 _curr_loc, uint _avatarId) public payable onlyOwnerOfAvatar(_avatarId) {\r\n      require(msg.value == changeLocFee);\r\n      avatars[_avatarId].avatarHome = avatars[_avatarId].avatarHome.add(_curr_loc);\r\n      if(setHomeCount == 0) {\r\n          require(msg.value == createPieceFee * 2);\r\n          _firstHomeSetRewards(_curr_loc);\r\n          setHomeCount = setHomeCount.add(1);\r\n          }\r\n  }\r\n\r\n  function setWorkPlaceQuest(uint256 _curr_loc, uint _avatarId) public payable onlyOwnerOfAvatar(_avatarId) {\r\n      require(msg.value == changeLocFee);\r\n      avatars[_avatarId].avatarWorkPlace = avatars[_avatarId].avatarWorkPlace.add(_curr_loc);\r\n      require(msg.value == travelFee);\r\n      _traveledMiles(_avatarId, avatars[_avatarId].avatarHome, avatars[_avatarId].avatarWorkPlace);\r\n      if (setWorkCount == 0) {\r\n          require(msg.value == createPieceFee * 4);\r\n          _firstWorkPlaceSetRewards(_curr_loc);\r\n          _createTravelGift(avatars[_avatarId].avatarWorkPlace, avatars[_avatarId].avatarHome);\r\n          setWorkCount = setWorkCount.add(1);\r\n           //travel tokens rewards\r\n      }\r\n  }\r\n\r\n  function workTravelQuest(uint256 _curr_loc, uint _avatarId) public payable onlyOwnerOfAvatar(_avatarId) {\r\n      if (_curr_loc - avatars[_avatarId].avatarWorkPlace < 1 || _curr_loc - avatars[_avatarId].avatarHome < 1) {\r\n          require(msg.value == createPieceFee);\r\n          _createTravelGift(avatars[_avatarId].avatarWorkPlace, avatars[_avatarId].avatarHome);\r\n          require(msg.value == travelFee);\r\n          _traveledMiles(_avatarId, avatars[_avatarId].avatarHome, avatars[_avatarId].avatarWorkPlace);\r\n          //travel token rewards\r\n      }\r\n  }\r\n\r\n  function travelQuest(uint256 _curr_loc, uint256 _last_loc, uint _avatarId) public payable onlyOwnerOfAvatar(_avatarId) {\r\n      require(msg.value == createPieceFee);\r\n      _createTravelGift(_curr_loc, _last_loc);\r\n      require(msg.value == travelFee);\r\n      _traveledMiles(_avatarId, _curr_loc, _last_loc);\r\n      // travel tokens rewards\r\n  }\r\n\r\n  function workQuest(uint256 _curr_loc, uint _avatarId) public onlyOwnerOfAvatar(_avatarId) {\r\n      if(_curr_loc - avatars[_avatarId].avatarWorkPlace < 1) {\r\n          //start minning work tokens with devices\r\n      }\r\n  }\r\n}\r\n\r\n//c_no_mad_",
  "sourcePath": "C:\\Users\\pablo\\PycharmProjects\\LiveAndTravel\\contracts\\travelQuestNPC.sol",
  "compiler": {
    "name": "solc",
    "version": "0.8.10+commit.fc410830.Emscripten.clang"
  },
  "schemaVersion": "3.4.4",
  "updatedAt": "2022-01-13T15:03:15.284Z",
  "devdoc": {
    "kind": "dev",
    "methods": {},
    "version": 1
  },
  "userdoc": {
    "kind": "user",
    "methods": {},
    "version": 1
  }
}