{
  "contractName": "TravelQuestNPC",
  "abi": [
    {
      "anonymous": false,
      "inputs": [
        {
          "indexed": false,
          "internalType": "uint256",
          "name": "avatarId",
          "type": "uint256"
        },
        {
          "indexed": false,
          "internalType": "uint256",
          "name": "avatarDna",
          "type": "uint256"
        },
        {
          "indexed": false,
          "internalType": "string",
          "name": "avatarName",
          "type": "string"
        },
        {
          "indexed": false,
          "internalType": "string",
          "name": "avatarSex",
          "type": "string"
        },
        {
          "indexed": false,
          "internalType": "bytes32",
          "name": "avatarRace",
          "type": "bytes32"
        },
        {
          "indexed": false,
          "internalType": "uint32",
          "name": "avatarReadyTime",
          "type": "uint32"
        },
        {
          "indexed": false,
          "internalType": "uint16",
          "name": "avatarMiles",
          "type": "uint16"
        },
        {
          "indexed": false,
          "internalType": "uint16",
          "name": "avatarHome",
          "type": "uint16"
        },
        {
          "indexed": false,
          "internalType": "uint16",
          "name": "avatarWorkPlace",
          "type": "uint16"
        },
        {
          "indexed": false,
          "internalType": "uint16",
          "name": "avatarBreedCount",
          "type": "uint16"
        }
      ],
      "name": "NewAvatar",
      "type": "event"
    },
    {
      "anonymous": false,
      "inputs": [
        {
          "indexed": false,
          "internalType": "uint256",
          "name": "pieceId",
          "type": "uint256"
        },
        {
          "indexed": false,
          "internalType": "uint256",
          "name": "pieceDna",
          "type": "uint256"
        },
        {
          "indexed": false,
          "internalType": "bytes32",
          "name": "pieceClass",
          "type": "bytes32"
        },
        {
          "indexed": false,
          "internalType": "uint32",
          "name": "pieceReadyTime",
          "type": "uint32"
        },
        {
          "indexed": false,
          "internalType": "uint256",
          "name": "pieceCreationLoc",
          "type": "uint256"
        },
        {
          "indexed": false,
          "internalType": "uint16",
          "name": "pieceMergeCount",
          "type": "uint16"
        }
      ],
      "name": "NewPiece",
      "type": "event"
    },
    {
      "anonymous": false,
      "inputs": [
        {
          "indexed": true,
          "internalType": "address",
          "name": "previousOwner",
          "type": "address"
        },
        {
          "indexed": true,
          "internalType": "address",
          "name": "newOwner",
          "type": "address"
        }
      ],
      "name": "OwnershipTransferred",
      "type": "event"
    },
    {
      "constant": true,
      "inputs": [
        {
          "internalType": "uint256",
          "name": "",
          "type": "uint256"
        }
      ],
      "name": "avatarToOwner",
      "outputs": [
        {
          "internalType": "address",
          "name": "",
          "type": "address"
        }
      ],
      "payable": false,
      "stateMutability": "view",
      "type": "function"
    },
    {
      "constant": true,
      "inputs": [
        {
          "internalType": "uint256",
          "name": "",
          "type": "uint256"
        }
      ],
      "name": "avatars",
      "outputs": [
        {
          "internalType": "uint256",
          "name": "avatarDna",
          "type": "uint256"
        },
        {
          "internalType": "string",
          "name": "avatarName",
          "type": "string"
        },
        {
          "internalType": "string",
          "name": "avatarSex",
          "type": "string"
        },
        {
          "internalType": "bytes32",
          "name": "avatarRace",
          "type": "bytes32"
        },
        {
          "internalType": "uint32",
          "name": "avatarReadyTime",
          "type": "uint32"
        },
        {
          "internalType": "uint256",
          "name": "avatarMiles",
          "type": "uint256"
        },
        {
          "internalType": "uint256",
          "name": "avatarHome",
          "type": "uint256"
        },
        {
          "internalType": "uint256",
          "name": "avatarWorkPlace",
          "type": "uint256"
        },
        {
          "internalType": "uint16",
          "name": "breedCount",
          "type": "uint16"
        }
      ],
      "payable": false,
      "stateMutability": "view",
      "type": "function"
    },
    {
      "constant": false,
      "inputs": [
        {
          "internalType": "uint256",
          "name": "_avatarId",
          "type": "uint256"
        },
        {
          "internalType": "uint256",
          "name": "_targetAvatarId",
          "type": "uint256"
        }
      ],
      "name": "breed",
      "outputs": [],
      "payable": true,
      "stateMutability": "payable",
      "type": "function"
    },
    {
      "constant": false,
      "inputs": [
        {
          "internalType": "uint256",
          "name": "_avatarId",
          "type": "uint256"
        },
        {
          "internalType": "uint256",
          "name": "_newDna",
          "type": "uint256"
        }
      ],
      "name": "changeAvatarDna",
      "outputs": [],
      "payable": true,
      "stateMutability": "payable",
      "type": "function"
    },
    {
      "constant": false,
      "inputs": [
        {
          "internalType": "uint256",
          "name": "_avatarId",
          "type": "uint256"
        },
        {
          "internalType": "string",
          "name": "_newName",
          "type": "string"
        }
      ],
      "name": "changeAvatarName",
      "outputs": [],
      "payable": true,
      "stateMutability": "payable",
      "type": "function"
    },
    {
      "constant": false,
      "inputs": [
        {
          "internalType": "uint256",
          "name": "_pieceId",
          "type": "uint256"
        },
        {
          "internalType": "uint256",
          "name": "_newDna",
          "type": "uint256"
        }
      ],
      "name": "changePieceDna",
      "outputs": [],
      "payable": true,
      "stateMutability": "payable",
      "type": "function"
    },
    {
      "constant": false,
      "inputs": [
        {
          "internalType": "string",
          "name": "_sex",
          "type": "string"
        }
      ],
      "name": "createRandomAvatar",
      "outputs": [],
      "payable": true,
      "stateMutability": "payable",
      "type": "function"
    },
    {
      "constant": true,
      "inputs": [
        {
          "internalType": "address",
          "name": "_owner",
          "type": "address"
        }
      ],
      "name": "getAvatarsByOwner",
      "outputs": [
        {
          "internalType": "uint256[]",
          "name": "",
          "type": "uint256[]"
        }
      ],
      "payable": false,
      "stateMutability": "view",
      "type": "function"
    },
    {
      "constant": true,
      "inputs": [
        {
          "internalType": "address",
          "name": "_owner",
          "type": "address"
        }
      ],
      "name": "getPiecesByOwner",
      "outputs": [
        {
          "internalType": "uint256[]",
          "name": "",
          "type": "uint256[]"
        }
      ],
      "payable": false,
      "stateMutability": "view",
      "type": "function"
    },
    {
      "constant": true,
      "inputs": [],
      "name": "isOwner",
      "outputs": [
        {
          "internalType": "bool",
          "name": "",
          "type": "bool"
        }
      ],
      "payable": false,
      "stateMutability": "view",
      "type": "function"
    },
    {
      "constant": false,
      "inputs": [
        {
          "internalType": "uint256",
          "name": "_pieceId",
          "type": "uint256"
        },
        {
          "internalType": "uint256",
          "name": "_targetPieceId",
          "type": "uint256"
        },
        {
          "internalType": "uint256",
          "name": "_curr_loc",
          "type": "uint256"
        }
      ],
      "name": "merge",
      "outputs": [],
      "payable": true,
      "stateMutability": "payable",
      "type": "function"
    },
    {
      "constant": false,
      "inputs": [
        {
          "internalType": "uint256",
          "name": "_boredApeId",
          "type": "uint256"
        }
      ],
      "name": "migrateBoredApe",
      "outputs": [],
      "payable": true,
      "stateMutability": "payable",
      "type": "function"
    },
    {
      "constant": false,
      "inputs": [
        {
          "internalType": "uint256",
          "name": "_cypherPunkId",
          "type": "uint256"
        }
      ],
      "name": "migrateCypherPunk",
      "outputs": [],
      "payable": true,
      "stateMutability": "payable",
      "type": "function"
    },
    {
      "constant": false,
      "inputs": [
        {
          "internalType": "uint256",
          "name": "_kittyId",
          "type": "uint256"
        }
      ],
      "name": "migrateKitty",
      "outputs": [],
      "payable": true,
      "stateMutability": "payable",
      "type": "function"
    },
    {
      "constant": false,
      "inputs": [
        {
          "internalType": "uint256",
          "name": "_itemId",
          "type": "uint256"
        },
        {
          "internalType": "uint256",
          "name": "_curr_loc",
          "type": "uint256"
        }
      ],
      "name": "migratePantsItem",
      "outputs": [],
      "payable": true,
      "stateMutability": "payable",
      "type": "function"
    },
    {
      "constant": false,
      "inputs": [
        {
          "internalType": "uint256",
          "name": "_itemId",
          "type": "uint256"
        },
        {
          "internalType": "uint256",
          "name": "_curr_loc",
          "type": "uint256"
        }
      ],
      "name": "migrateShirtItem",
      "outputs": [],
      "payable": true,
      "stateMutability": "payable",
      "type": "function"
    },
    {
      "constant": false,
      "inputs": [
        {
          "internalType": "uint256",
          "name": "_itemId",
          "type": "uint256"
        },
        {
          "internalType": "uint256",
          "name": "_curr_loc",
          "type": "uint256"
        }
      ],
      "name": "migrateShoesItem",
      "outputs": [],
      "payable": true,
      "stateMutability": "payable",
      "type": "function"
    },
    {
      "constant": false,
      "inputs": [
        {
          "internalType": "uint256",
          "name": "_itemId",
          "type": "uint256"
        },
        {
          "internalType": "uint256",
          "name": "_curr_loc",
          "type": "uint256"
        }
      ],
      "name": "migrateSnapbackItem",
      "outputs": [],
      "payable": true,
      "stateMutability": "payable",
      "type": "function"
    },
    {
      "constant": false,
      "inputs": [
        {
          "internalType": "uint256",
          "name": "_itemId",
          "type": "uint256"
        },
        {
          "internalType": "uint256",
          "name": "_curr_loc",
          "type": "uint256"
        }
      ],
      "name": "migrateSocksItem",
      "outputs": [],
      "payable": true,
      "stateMutability": "payable",
      "type": "function"
    },
    {
      "constant": false,
      "inputs": [
        {
          "internalType": "uint256",
          "name": "_itemId",
          "type": "uint256"
        },
        {
          "internalType": "uint256",
          "name": "_curr_loc",
          "type": "uint256"
        }
      ],
      "name": "migrateUnderwearItem",
      "outputs": [],
      "payable": true,
      "stateMutability": "payable",
      "type": "function"
    },
    {
      "constant": true,
      "inputs": [],
      "name": "owner",
      "outputs": [
        {
          "internalType": "address",
          "name": "",
          "type": "address"
        }
      ],
      "payable": false,
      "stateMutability": "view",
      "type": "function"
    },
    {
      "constant": true,
      "inputs": [
        {
          "internalType": "uint256",
          "name": "",
          "type": "uint256"
        }
      ],
      "name": "pieceToOwner",
      "outputs": [
        {
          "internalType": "address",
          "name": "",
          "type": "address"
        }
      ],
      "payable": false,
      "stateMutability": "view",
      "type": "function"
    },
    {
      "constant": true,
      "inputs": [
        {
          "internalType": "uint256",
          "name": "",
          "type": "uint256"
        }
      ],
      "name": "pieces",
      "outputs": [
        {
          "internalType": "uint256",
          "name": "pieceDna",
          "type": "uint256"
        },
        {
          "internalType": "bytes32",
          "name": "pieceClass",
          "type": "bytes32"
        },
        {
          "internalType": "uint32",
          "name": "pieceReadyTime",
          "type": "uint32"
        },
        {
          "internalType": "uint256",
          "name": "pieceCreationLoc",
          "type": "uint256"
        },
        {
          "internalType": "uint16",
          "name": "mergeCount",
          "type": "uint16"
        }
      ],
      "payable": false,
      "stateMutability": "view",
      "type": "function"
    },
    {
      "constant": false,
      "inputs": [],
      "name": "renounceOwnership",
      "outputs": [],
      "payable": false,
      "stateMutability": "nonpayable",
      "type": "function"
    },
    {
      "constant": false,
      "inputs": [
        {
          "internalType": "address",
          "name": "_address",
          "type": "address"
        }
      ],
      "name": "setBoredApeContractAddress",
      "outputs": [],
      "payable": false,
      "stateMutability": "nonpayable",
      "type": "function"
    },
    {
      "constant": false,
      "inputs": [
        {
          "internalType": "address",
          "name": "_address",
          "type": "address"
        }
      ],
      "name": "setCypherPunkContractAddress",
      "outputs": [],
      "payable": false,
      "stateMutability": "nonpayable",
      "type": "function"
    },
    {
      "constant": false,
      "inputs": [
        {
          "internalType": "address",
          "name": "_address",
          "type": "address"
        }
      ],
      "name": "setHoodieContractAddress",
      "outputs": [],
      "payable": false,
      "stateMutability": "nonpayable",
      "type": "function"
    },
    {
      "constant": false,
      "inputs": [
        {
          "internalType": "address",
          "name": "_address",
          "type": "address"
        }
      ],
      "name": "setKittyContractAddress",
      "outputs": [],
      "payable": false,
      "stateMutability": "nonpayable",
      "type": "function"
    },
    {
      "constant": false,
      "inputs": [
        {
          "internalType": "address",
          "name": "_address",
          "type": "address"
        }
      ],
      "name": "setPantsContractAddress",
      "outputs": [],
      "payable": false,
      "stateMutability": "nonpayable",
      "type": "function"
    },
    {
      "constant": false,
      "inputs": [
        {
          "internalType": "address",
          "name": "_address",
          "type": "address"
        }
      ],
      "name": "setShirtContractAddress",
      "outputs": [],
      "payable": false,
      "stateMutability": "nonpayable",
      "type": "function"
    },
    {
      "constant": false,
      "inputs": [
        {
          "internalType": "address",
          "name": "_address",
          "type": "address"
        }
      ],
      "name": "setShoesContractAddress",
      "outputs": [],
      "payable": false,
      "stateMutability": "nonpayable",
      "type": "function"
    },
    {
      "constant": false,
      "inputs": [
        {
          "internalType": "address",
          "name": "_address",
          "type": "address"
        }
      ],
      "name": "setSnapbackContractAddress",
      "outputs": [],
      "payable": false,
      "stateMutability": "nonpayable",
      "type": "function"
    },
    {
      "constant": false,
      "inputs": [
        {
          "internalType": "address",
          "name": "_address",
          "type": "address"
        }
      ],
      "name": "setSocksContractAddress",
      "outputs": [],
      "payable": false,
      "stateMutability": "nonpayable",
      "type": "function"
    },
    {
      "constant": false,
      "inputs": [
        {
          "internalType": "address",
          "name": "_address",
          "type": "address"
        }
      ],
      "name": "setUnderwearContractAddress",
      "outputs": [],
      "payable": false,
      "stateMutability": "nonpayable",
      "type": "function"
    },
    {
      "constant": false,
      "inputs": [
        {
          "internalType": "address",
          "name": "newOwner",
          "type": "address"
        }
      ],
      "name": "transferOwnership",
      "outputs": [],
      "payable": false,
      "stateMutability": "nonpayable",
      "type": "function"
    },
    {
      "constant": false,
      "inputs": [],
      "name": "withdrawAvatar",
      "outputs": [],
      "payable": true,
      "stateMutability": "payable",
      "type": "function"
    },
    {
      "constant": false,
      "inputs": [],
      "name": "withdrawPiece",
      "outputs": [],
      "payable": true,
      "stateMutability": "payable",
      "type": "function"
    },
    {
      "constant": false,
      "inputs": [
        {
          "internalType": "uint256",
          "name": "_curr_loc",
          "type": "uint256"
        },
        {
          "internalType": "uint256",
          "name": "_avatarId",
          "type": "uint256"
        }
      ],
      "name": "setHomeQuest",
      "outputs": [],
      "payable": true,
      "stateMutability": "payable",
      "type": "function"
    },
    {
      "constant": false,
      "inputs": [
        {
          "internalType": "uint256",
          "name": "_curr_loc",
          "type": "uint256"
        },
        {
          "internalType": "uint256",
          "name": "_avatarId",
          "type": "uint256"
        }
      ],
      "name": "setWorkPlaceQuest",
      "outputs": [],
      "payable": true,
      "stateMutability": "payable",
      "type": "function"
    },
    {
      "constant": false,
      "inputs": [
        {
          "internalType": "uint256",
          "name": "_curr_loc",
          "type": "uint256"
        },
        {
          "internalType": "uint256",
          "name": "_avatarId",
          "type": "uint256"
        }
      ],
      "name": "workTravelQuest",
      "outputs": [],
      "payable": true,
      "stateMutability": "payable",
      "type": "function"
    },
    {
      "constant": false,
      "inputs": [
        {
          "internalType": "uint256",
          "name": "_curr_loc",
          "type": "uint256"
        },
        {
          "internalType": "uint256",
          "name": "_last_loc",
          "type": "uint256"
        },
        {
          "internalType": "uint256",
          "name": "_avatarId",
          "type": "uint256"
        }
      ],
      "name": "travelQuest",
      "outputs": [],
      "payable": true,
      "stateMutability": "payable",
      "type": "function"
    },
    {
      "constant": false,
      "inputs": [
        {
          "internalType": "uint256",
          "name": "_curr_loc",
          "type": "uint256"
        },
        {
          "internalType": "uint256",
          "name": "_avatarId",
          "type": "uint256"
        }
      ],
      "name": "workQuest",
      "outputs": [],
      "payable": false,
      "stateMutability": "nonpayable",
      "type": "function"
    }
  ],
  "bytecode": "0x60806040526010600155600154600a0a6002556201518060035567016345785d8a00006007556000600855605a600c556007600d55670429d069189e0000600e55662386f26fc10000600f55662386f26fc10000601055678ac7230489e800006011556010601255601254600a0a601355620151806014556000601855670de0b6b3a7640000601955605f602155600160225567016345785d8a0000602355678ac7230489e80000602455662386f26fc10000602555662386f26fc10000602655662386f26fc100006027556000602860006101000a81548161ffff021916908361ffff1602179055506000602860026101000a81548161ffff021916908361ffff160217905550336000806101000a81548173ffffffffffffffffffffffffffffffffffffffff021916908373ffffffffffffffffffffffffffffffffffffffff1602179055506000809054906101000a900473ffffffffffffffffffffffffffffffffffffffff1673ffffffffffffffffffffffffffffffffffffffff16600073ffffffffffffffffffffffffffffffffffffffff167f8be0079c531659141344cd1fd0a4f28419497f9722a3daafe3b4186f6b6457e060405160405180910390a361627b806101d26000396000f3fe6080604052600436106102515760003560e01c80638b030aaa11610139578063bcea8195116100b6578063d25416071161007a578063d254160714610d9b578063d9ecad7b14610e56578063e14d485b14610e8e578063f2fde38b14610edf578063f56fa8d414610f30578063f5dcef0414610fab57610251565b8063bcea819514610c40578063c78309f514610c78578063c8539c4b14610cb0578063cd90cb9814610d2b578063cfd720ec14610d6357610251565b80638fbcac04116100fd5780638fbcac0414610a6c5780639687871214610ab157806397abcb6c14610adf578063a21adccf14610b85578063b2dc230d14610bbd57610251565b80638b030aaa146108c55780638c081f5d146109165780638da5cb5b146109675780638f32d59b146109be5780638f64be30146109ed57610251565b80634f1b3e3e116101d2578063715018a611610196578063715018a6146106745780637a43061f1461068b5780637be41814146106c35780637e62f22b146107145780637f1075a214610756578063834d5fac1461076057610251565b80634f1b3e3e146104ee5780635a2e4bd91461053f5780635de84288146105815780635f4623f1146105d25780636c492f3d1461062357610251565b806327f1a4f31161021957806327f1a4f31461037d5780632a4b7eb9146103ce5780633ba1d944146103d85780634585c35e1461047e5780634720833f146104b657610251565b80630351cf511461025657806306d5e6e814610284578063093cf826146102bc5780631507a331146102f4578063241ec36d1461032c575b600080fd5b6102826004803603602081101561026c57600080fd5b8101908080359060200190929190505050610fd9565b005b6102ba6004803603604081101561029a57600080fd5b810190808035906020019092919080359060200190929190505050611195565b005b6102f2600480360360408110156102d257600080fd5b810190808035906020019092919080359060200190929190505050611269565b005b61032a6004803603604081101561030a57600080fd5b8101908080359060200190929190803590602001909291905050506113d8565b005b34801561033857600080fd5b5061037b6004803603602081101561034f57600080fd5b81019080803573ffffffffffffffffffffffffffffffffffffffff169060200190929190505050611561565b005b34801561038957600080fd5b506103cc600480360360208110156103a057600080fd5b81019080803573ffffffffffffffffffffffffffffffffffffffff1690602001909291905050506115b6565b005b6103d661160b565b005b3480156103e457600080fd5b50610427600480360360208110156103fb57600080fd5b81019080803573ffffffffffffffffffffffffffffffffffffffff169060200190929190505050611680565b6040518080602001828103825283818151815260200191508051906020019060200280838360005b8381101561046a57808201518184015260208101905061044f565b505050509050019250505060405180910390f35b6104b46004803603604081101561049457600080fd5b8101908080359060200190929190803590602001909291905050506117ad565b005b6104ec600480360360408110156104cc57600080fd5b810190808035906020019092919080359060200190929190505050611996565b005b3480156104fa57600080fd5b5061053d6004803603602081101561051157600080fd5b81019080803573ffffffffffffffffffffffffffffffffffffffff169060200190929190505050611b1f565b005b61057f6004803603606081101561055557600080fd5b81019080803590602001909291908035906020019092919080359060200190929190505050611b74565b005b34801561058d57600080fd5b506105d0600480360360208110156105a457600080fd5b81019080803573ffffffffffffffffffffffffffffffffffffffff169060200190929190505050612951565b005b3480156105de57600080fd5b50610621600480360360208110156105f557600080fd5b81019080803573ffffffffffffffffffffffffffffffffffffffff1690602001909291905050506129a6565b005b34801561062f57600080fd5b506106726004803603602081101561064657600080fd5b81019080803573ffffffffffffffffffffffffffffffffffffffff1690602001909291905050506129fb565b005b34801561068057600080fd5b50610689612a50565b005b6106c1600480360360408110156106a157600080fd5b810190808035906020019092919080359060200190929190505050612b20565b005b3480156106cf57600080fd5b50610712600480360360208110156106e657600080fd5b81019080803573ffffffffffffffffffffffffffffffffffffffff169060200190929190505050612ca9565b005b6107546004803603606081101561072a57600080fd5b81019080803590602001909291908035906020019092919080359060200190929190505050612cfe565b005b61075e612da1565b005b34801561076c57600080fd5b506107996004803603602081101561078357600080fd5b8101908080359060200190929190505050612e16565b604051808a815260200180602001806020018981526020018863ffffffff1663ffffffff1681526020018781526020018681526020018581526020018461ffff1661ffff16815260200183810383528b818151815260200191508051906020019080838360005b8381101561081b578082015181840152602081019050610800565b50505050905090810190601f1680156108485780820380516001836020036101000a031916815260200191505b5083810382528a818151815260200191508051906020019080838360005b83811015610881578082015181840152602081019050610866565b50505050905090810190601f1680156108ae5780820380516001836020036101000a031916815260200191505b509b50505050505050505050505060405180910390f35b3480156108d157600080fd5b50610914600480360360208110156108e857600080fd5b81019080803573ffffffffffffffffffffffffffffffffffffffff169060200190929190505050612fbf565b005b34801561092257600080fd5b506109656004803603602081101561093957600080fd5b81019080803573ffffffffffffffffffffffffffffffffffffffff169060200190929190505050613014565b005b34801561097357600080fd5b5061097c613069565b604051808273ffffffffffffffffffffffffffffffffffffffff1673ffffffffffffffffffffffffffffffffffffffff16815260200191505060405180910390f35b3480156109ca57600080fd5b506109d3613092565b604051808215151515815260200191505060405180910390f35b3480156109f957600080fd5b50610a2660048036036020811015610a1057600080fd5b81019080803590602001909291905050506130e9565b604051808681526020018581526020018463ffffffff1663ffffffff1681526020018381526020018261ffff1661ffff1681526020019550505050505060405180910390f35b348015610a7857600080fd5b50610aaf60048036036040811015610a8f57600080fd5b81019080803590602001909291908035906020019092919050505061314a565b005b610add60048036036020811015610ac757600080fd5b81019080803590602001909291905050506131d7565b005b348015610aeb57600080fd5b50610b2e60048036036020811015610b0257600080fd5b81019080803573ffffffffffffffffffffffffffffffffffffffff169060200190929190505050613393565b6040518080602001828103825283818151815260200191508051906020019060200280838360005b83811015610b71578082015181840152602081019050610b56565b505050509050019250505060405180910390f35b610bbb60048036036040811015610b9b57600080fd5b8101908080359060200190929190803590602001909291905050506134c0565b005b610c3e60048036036040811015610bd357600080fd5b810190808035906020019092919080359060200190640100000000811115610bfa57600080fd5b820183602082011115610c0c57600080fd5b80359060200191846001830284011164010000000083111715610c2e57600080fd5b909192939192939050505061360e565b005b610c7660048036036040811015610c5657600080fd5b8101908080359060200190929190803590602001909291905050506136ec565b005b610cae60048036036040811015610c8e57600080fd5b81019080803590602001909291908035906020019092919050505061378e565b005b348015610cbc57600080fd5b50610ce960048036036020811015610cd357600080fd5b8101908080359060200190929190505050613917565b604051808273ffffffffffffffffffffffffffffffffffffffff1673ffffffffffffffffffffffffffffffffffffffff16815260200191505060405180910390f35b610d6160048036036040811015610d4157600080fd5b81019080803590602001909291908035906020019092919050505061394a565b005b610d9960048036036040811015610d7957600080fd5b810190808035906020019092919080359060200190929190505050613ad3565b005b610e5460048036036020811015610db157600080fd5b8101908080359060200190640100000000811115610dce57600080fd5b820183602082011115610de057600080fd5b80359060200191846001830284011164010000000083111715610e0257600080fd5b91908080601f016020809104026020016040519081016040528093929190818152602001838380828437600081840152601f19601f820116905080830192505050505050509192919290505050613c5c565b005b610e8c60048036036040811015610e6c57600080fd5b810190808035906020019092919080359060200190929190505050613d62565b005b348015610e9a57600080fd5b50610edd60048036036020811015610eb157600080fd5b81019080803573ffffffffffffffffffffffffffffffffffffffff169060200190929190505050614db1565b005b348015610eeb57600080fd5b50610f2e60048036036020811015610f0257600080fd5b81019080803573ffffffffffffffffffffffffffffffffffffffff169060200190929190505050614e06565b005b348015610f3c57600080fd5b50610f6960048036036020811015610f5357600080fd5b8101908080359060200190929190505050614e23565b604051808273ffffffffffffffffffffffffffffffffffffffff1673ffffffffffffffffffffffffffffffffffffffff16815260200191505060405180910390f35b610fd760048036036020811015610fc157600080fd5b8101908080359060200190929190505050614e56565b005b6007543414610fe757600080fd5b600060405160200180807f626f7265644170650000000000000000000000000000000000000000000000008152506008019050604051602081830303815290604052805190602001209050606061103c615012565b90506000600b60009054906101000a900473ffffffffffffffffffffffffffffffffffffffff1673ffffffffffffffffffffffffffffffffffffffff166394eb170d856040518263ffffffff1660e01b8152600401808281526020019150506101406040518083038186803b1580156110b457600080fd5b505afa1580156110c8573d6000803e3d6000fd5b505050506040513d6101408110156110df57600080fd5b81019080805190602001909291908051906020019092919080519060200190929190805190602001909291908051906020019092919080519060200190929190805190602001909291908051906020019092919080519060200190929190805190602001909291905050509091929394959697985090919293949596975090919293949596509091929394955090919293945090919293509091925090915090508091505061118f8383836150aa565b50505050565b620186a08281600482815481106111a857fe5b90600052602060002090600902016005015410156111c557600080fd5b836005600082815260200190815260200160002060009054906101000a900473ffffffffffffffffffffffffffffffffffffffff1673ffffffffffffffffffffffffffffffffffffffff163373ffffffffffffffffffffffffffffffffffffffff161461123157600080fd5b601154341461123f57600080fd5b836004868154811061124d57fe5b9060005260206000209060090201600001819055505050505050565b806005600082815260200190815260200160002060009054906101000a900473ffffffffffffffffffffffffffffffffffffffff1673ffffffffffffffffffffffffffffffffffffffff163373ffffffffffffffffffffffffffffffffffffffff16146112d557600080fd5b6001600483815481106112e457fe5b90600052602060002090600902016007015484031080611324575060016004838154811061130e57fe5b9060005260206000209060090201600601548403105b156113d357601954341461133757600080fd5b61137d6004838154811061134757fe5b9060005260206000209060090201600701546004848154811061136657fe5b90600052602060002090600902016006015461544c565b602754341461138b57600080fd5b6113d2826004848154811061139c57fe5b906000526020600020906009020160060154600485815481106113bb57fe5b90600052602060002090600902016007015461549b565b5b505050565b60195434146113e657600080fd5b600060405160200180807f50616e747300000000000000000000000000000000000000000000000000000081525060050190506040516020818303038152906040528051906020012090506000601c60009054906101000a900473ffffffffffffffffffffffffffffffffffffffff1673ffffffffffffffffffffffffffffffffffffffff16634337932d856040518263ffffffff1660e01b8152600401808281526020019150506101006040518083038186803b1580156114a757600080fd5b505afa1580156114bb573d6000803e3d6000fd5b505050506040513d6101008110156114d257600080fd5b81019080805190602001909291908051906020019092919080519060200190929190805190602001909291908051906020019092919080519060200190929190805190602001909291908051906020019092919050505090919293949596509091929394955090919293945090919293509091925090915090508091505061155b828285615562565b50505050565b611569613092565b61157257600080fd5b80601c60006101000a81548173ffffffffffffffffffffffffffffffffffffffff021916908373ffffffffffffffffffffffffffffffffffffffff16021790555050565b6115be613092565b6115c757600080fd5b80601d60006101000a81548173ffffffffffffffffffffffffffffffffffffffff021916908373ffffffffffffffffffffffffffffffffffffffff16021790555050565b611613613092565b61161c57600080fd5b601054341461162a57600080fd5b6000611634613069565b90508073ffffffffffffffffffffffffffffffffffffffff166108fc479081150290604051600060405180830381858888f1935050505015801561167c573d6000803e3d6000fd5b5050565b606080601760008473ffffffffffffffffffffffffffffffffffffffff1673ffffffffffffffffffffffffffffffffffffffff168152602001908152602001600020546040519080825280602002602001820160405280156116f15781602001602082028038833980820191505090505b509050600080905060008090505b6015805490508110156117a2578473ffffffffffffffffffffffffffffffffffffffff166016600083815260200190815260200160002060009054906101000a900473ffffffffffffffffffffffffffffffffffffffff1673ffffffffffffffffffffffffffffffffffffffff161415611795578083838151811061178057fe5b60200260200101818152505081806001019250505b80806001019150506116ff565b508192505050919050565b806005600082815260200190815260200160002060009054906101000a900473ffffffffffffffffffffffffffffffffffffffff1673ffffffffffffffffffffffffffffffffffffffff163373ffffffffffffffffffffffffffffffffffffffff161461181957600080fd5b602654341461182757600080fd5b611858836004848154811061183857fe5b9060005260206000209060090201600701546157a190919063ffffffff16565b6004838154811061186557fe5b906000526020600020906009020160070181905550602754341461188857600080fd5b6118cf826004848154811061189957fe5b906000526020600020906009020160060154600485815481106118b857fe5b90600052602060002090600902016007015461549b565b6000602860029054906101000a900461ffff1661ffff1614156119915760046019540234146118fd57600080fd5b611906836157bd565b61194c6004838154811061191657fe5b9060005260206000209060090201600701546004848154811061193557fe5b90600052602060002090600902016006015461544c565b6119746001602860029054906101000a900461ffff1661ffff166157db90919063ffffffff16565b602860026101000a81548161ffff021916908361ffff1602179055505b505050565b60195434146119a457600080fd5b600060405160200180807f536869727400000000000000000000000000000000000000000000000000000081525060050190506040516020818303038152906040528051906020012090506000601e60009054906101000a900473ffffffffffffffffffffffffffffffffffffffff1673ffffffffffffffffffffffffffffffffffffffff16634c9c05ea856040518263ffffffff1660e01b8152600401808281526020019150506101006040518083038186803b158015611a6557600080fd5b505afa158015611a79573d6000803e3d6000fd5b505050506040513d610100811015611a9057600080fd5b810190808051906020019092919080519060200190929190805190602001909291908051906020019092919080519060200190929190805190602001909291908051906020019092919080519060200190929190505050909192939495965090919293949550909192939450909192935090919250909150905080915050611b19828285615562565b50505050565b611b27613092565b611b3057600080fd5b80602060006101000a81548173ffffffffffffffffffffffffffffffffffffffff021916908373ffffffffffffffffffffffffffffffffffffffff16021790555050565b826016600082815260200190815260200160002060009054906101000a900473ffffffffffffffffffffffffffffffffffffffff1673ffffffffffffffffffffffffffffffffffffffff163373ffffffffffffffffffffffffffffffffffffffff1614611be057600080fd5b826016600082815260200190815260200160002060009054906101000a900473ffffffffffffffffffffffffffffffffffffffff1673ffffffffffffffffffffffffffffffffffffffff163373ffffffffffffffffffffffffffffffffffffffff1614611c4c57600080fd5b600060158681548110611c5b57fe5b90600052602060002090600502019050600060158681548110611c7a57fe5b90600052602060002090600502019050611c93826157ff565b611c9c57600080fd5b611ca5816157ff565b611cae57600080fd5b6023543414611cbc57600080fd5b60006002826000015484600001540181611cd257fe5b049050600060405160200180807f53686f65730000000000000000000000000000000000000000000000000000008152506005019050604051602081830303815290604052805190602001208460010154148015611d855750826001015460405160200180807f54726176656c205061696e747300000000000000000000000000000000000000815250600d01828152602001915050604051602081830303815290604052805190602001208360010154145b80611e2e575060405160200180807f54726176656c205061696e747300000000000000000000000000000000000000815250600d019050604051602081830303815290604052805190602001208460010154148015611e2d575060405160200180807f53686f65730000000000000000000000000000000000000000000000000000008152506005019050604051602081830303815290604052805190602001208360010154145b5b15611e7d5760405160200180807f5061696e7465642053686f657300000000000000000000000000000000000000815250600d0190506040516020818303038152906040528051906020012090505b60405160200180807f536f636b730000000000000000000000000000000000000000000000000000008152506005019050604051602081830303815290604052805190602001208460010154148015611f2b5750826001015460405160200180807f54726176656c205061696e747300000000000000000000000000000000000000815250600d01828152602001915050604051602081830303815290604052805190602001208360010154145b80611fd4575060405160200180807f54726176656c205061696e747300000000000000000000000000000000000000815250600d019050604051602081830303815290604052805190602001208460010154148015611fd3575060405160200180807f536f636b730000000000000000000000000000000000000000000000000000008152506005019050604051602081830303815290604052805190602001208360010154145b5b156120235760405160200180807f5061696e74656420536f636b7300000000000000000000000000000000000000815250600d0190506040516020818303038152906040528051906020012090505b60405160200180807f50616e747300000000000000000000000000000000000000000000000000000081525060050190506040516020818303038152906040528051906020012084600101541480156120d15750826001015460405160200180807f54726176656c205061696e747300000000000000000000000000000000000000815250600d01828152602001915050604051602081830303815290604052805190602001208360010154145b8061217a575060405160200180807f54726176656c205061696e747300000000000000000000000000000000000000815250600d019050604051602081830303815290604052805190602001208460010154148015612179575060405160200180807f50616e74730000000000000000000000000000000000000000000000000000008152506005019050604051602081830303815290604052805190602001208360010154145b5b156121c95760405160200180807f5061696e7465642050616e747300000000000000000000000000000000000000815250600d0190506040516020818303038152906040528051906020012090505b60405160200180807f556e64657277656172000000000000000000000000000000000000000000000081525060090190506040516020818303038152906040528051906020012084600101541480156122775750826001015460405160200180807f54726176656c205061696e747300000000000000000000000000000000000000815250600d01828152602001915050604051602081830303815290604052805190602001208360010154145b80612320575060405160200180807f54726176656c205061696e747300000000000000000000000000000000000000815250600d01905060405160208183030381529060405280519060200120846001015414801561231f575060405160200180807f556e6465727765617200000000000000000000000000000000000000000000008152506009019050604051602081830303815290604052805190602001208360010154145b5b1561236f5760405160200180807f5061696e74656420556e6465727765617200000000000000000000000000000081525060110190506040516020818303038152906040528051906020012090505b60405160200180807f5368697274000000000000000000000000000000000000000000000000000000815250600501905060405160208183030381529060405280519060200120846001015414801561241d5750826001015460405160200180807f54726176656c205061696e747300000000000000000000000000000000000000815250600d01828152602001915050604051602081830303815290604052805190602001208360010154145b806124c6575060405160200180807f54726176656c205061696e747300000000000000000000000000000000000000815250600d0190506040516020818303038152906040528051906020012084600101541480156124c5575060405160200180807f53686972740000000000000000000000000000000000000000000000000000008152506005019050604051602081830303815290604052805190602001208360010154145b5b156125155760405160200180807f5061696e74656420536869727400000000000000000000000000000000000000815250600d0190506040516020818303038152906040528051906020012090505b60405160200180807f486f6f646965000000000000000000000000000000000000000000000000000081525060060190506040516020818303038152906040528051906020012084600101541480156125c35750826001015460405160200180807f54726176656c205061696e747300000000000000000000000000000000000000815250600d01828152602001915050604051602081830303815290604052805190602001208360010154145b8061266c575060405160200180807f54726176656c205061696e747300000000000000000000000000000000000000815250600d01905060405160208183030381529060405280519060200120846001015414801561266b575060405160200180807f486f6f64696500000000000000000000000000000000000000000000000000008152506006019050604051602081830303815290604052805190602001208360010154145b5b156126bb5760405160200180807f5061696e74656420486f6f646965000000000000000000000000000000000000815250600e0190506040516020818303038152906040528051906020012090505b60405160200180807f536e61706261636b00000000000000000000000000000000000000000000000081525060080190506040516020818303038152906040528051906020012084600101541480156127695750826001015460405160200180807f54726176656c205061696e747300000000000000000000000000000000000000815250600d01828152602001915050604051602081830303815290604052805190602001208360010154145b80612812575060405160200180807f54726176656c205061696e747300000000000000000000000000000000000000815250600d019050604051602081830303815290604052805190602001208460010154148015612811575060405160200180807f536e61706261636b0000000000000000000000000000000000000000000000008152506008019050604051602081830303815290604052805190602001208360010154145b5b156128615760405160200180807f5061696e74656420536e61706261636b0000000000000000000000000000000081525060100190506040516020818303038152906040528051906020012090505b600061286d6064615826565b9050602154811115801561289957506022548560040160009054906101000a900461ffff1661ffff1611155b15612904576128a982848a615562565b6128b2856158b5565b6128bb846158b5565b6128e560018660040160009054906101000a900461ffff1661ffff166157db90919063ffffffff16565b8560040160006101000a81548161ffff021916908361ffff1602179055505b6021548111801561292d57506022548560040160009054906101000a900461ffff1661ffff1611155b156129455761293b856158b5565b612944846158b5565b5b50505050505050505050565b612959613092565b61296257600080fd5b80600a60006101000a81548173ffffffffffffffffffffffffffffffffffffffff021916908373ffffffffffffffffffffffffffffffffffffffff16021790555050565b6129ae613092565b6129b757600080fd5b80600960006101000a81548173ffffffffffffffffffffffffffffffffffffffff021916908373ffffffffffffffffffffffffffffffffffffffff16021790555050565b612a03613092565b612a0c57600080fd5b80601b60006101000a81548173ffffffffffffffffffffffffffffffffffffffff021916908373ffffffffffffffffffffffffffffffffffffffff16021790555050565b612a58613092565b612a6157600080fd5b600073ffffffffffffffffffffffffffffffffffffffff166000809054906101000a900473ffffffffffffffffffffffffffffffffffffffff1673ffffffffffffffffffffffffffffffffffffffff167f8be0079c531659141344cd1fd0a4f28419497f9722a3daafe3b4186f6b6457e060405160405180910390a360008060006101000a81548173ffffffffffffffffffffffffffffffffffffffff021916908373ffffffffffffffffffffffffffffffffffffffff160217905550565b6019543414612b2e57600080fd5b600060405160200180807f536e61706261636b00000000000000000000000000000000000000000000000081525060080190506040516020818303038152906040528051906020012090506000601e60009054906101000a900473ffffffffffffffffffffffffffffffffffffffff1673ffffffffffffffffffffffffffffffffffffffff16634c9c05ea856040518263ffffffff1660e01b8152600401808281526020019150506101006040518083038186803b158015612bef57600080fd5b505afa158015612c03573d6000803e3d6000fd5b505050506040513d610100811015612c1a57600080fd5b810190808051906020019092919080519060200190929190805190602001909291908051906020019092919080519060200190929190805190602001909291908051906020019092919080519060200190929190505050909192939495965090919293949550909192939450909192935090919250909150905080915050612ca3828285615562565b50505050565b612cb1613092565b612cba57600080fd5b80601e60006101000a81548173ffffffffffffffffffffffffffffffffffffffff021916908373ffffffffffffffffffffffffffffffffffffffff16021790555050565b806005600082815260200190815260200160002060009054906101000a900473ffffffffffffffffffffffffffffffffffffffff1673ffffffffffffffffffffffffffffffffffffffff163373ffffffffffffffffffffffffffffffffffffffff1614612d6a57600080fd5b6019543414612d7857600080fd5b612d82848461544c565b6027543414612d9057600080fd5b612d9b82858561549b565b50505050565b612da9613092565b612db257600080fd5b6025543414612dc057600080fd5b6000612dca613069565b90508073ffffffffffffffffffffffffffffffffffffffff166108fc479081150290604051600060405180830381858888f19350505050158015612e12573d6000803e3d6000fd5b5050565b60048181548110612e2357fe5b9060005260206000209060090201600091509050806000015490806001018054600181600116156101000203166002900480601f016020809104026020016040519081016040528092919081815260200182805460018160011615610100020316600290048015612ed55780601f10612eaa57610100808354040283529160200191612ed5565b820191906000526020600020905b815481529060010190602001808311612eb857829003601f168201915b505050505090806002018054600181600116156101000203166002900480601f016020809104026020016040519081016040528092919081815260200182805460018160011615610100020316600290048015612f735780601f10612f4857610100808354040283529160200191612f73565b820191906000526020600020905b815481529060010190602001808311612f5657829003601f168201915b5050505050908060030154908060040160009054906101000a900463ffffffff16908060050154908060060154908060070154908060080160009054906101000a900461ffff16905089565b612fc7613092565b612fd057600080fd5b80600b60006101000a81548173ffffffffffffffffffffffffffffffffffffffff021916908373ffffffffffffffffffffffffffffffffffffffff16021790555050565b61301c613092565b61302557600080fd5b80601a60006101000a81548173ffffffffffffffffffffffffffffffffffffffff021916908373ffffffffffffffffffffffffffffffffffffffff16021790555050565b60008060009054906101000a900473ffffffffffffffffffffffffffffffffffffffff16905090565b60008060009054906101000a900473ffffffffffffffffffffffffffffffffffffffff1673ffffffffffffffffffffffffffffffffffffffff163373ffffffffffffffffffffffffffffffffffffffff1614905090565b601581815481106130f657fe5b90600052602060002090600502016000915090508060000154908060010154908060020160009054906101000a900463ffffffff16908060030154908060040160009054906101000a900461ffff16905085565b806005600082815260200190815260200160002060009054906101000a900473ffffffffffffffffffffffffffffffffffffffff1673ffffffffffffffffffffffffffffffffffffffff163373ffffffffffffffffffffffffffffffffffffffff16146131b657600080fd5b6001600483815481106131c557fe5b90600052602060002090505050505050565b60075434146131e557600080fd5b600060405160200180807f6b697474790000000000000000000000000000000000000000000000000000008152506005019050604051602081830303815290604052805190602001209050606061323a615012565b90506000600960009054906101000a900473ffffffffffffffffffffffffffffffffffffffff1673ffffffffffffffffffffffffffffffffffffffff1663e98b7f4d856040518263ffffffff1660e01b8152600401808281526020019150506101406040518083038186803b1580156132b257600080fd5b505afa1580156132c6573d6000803e3d6000fd5b505050506040513d6101408110156132dd57600080fd5b81019080805190602001909291908051906020019092919080519060200190929190805190602001909291908051906020019092919080519060200190929190805190602001909291908051906020019092919080519060200190929190805190602001909291905050509091929394959697985090919293949596975090919293949596509091929394955090919293945090919293509091925090915090508091505061338d8383836150aa565b50505050565b606080600660008473ffffffffffffffffffffffffffffffffffffffff1673ffffffffffffffffffffffffffffffffffffffff168152602001908152602001600020546040519080825280602002602001820160405280156134045781602001602082028038833980820191505090505b509050600080905060008090505b6004805490508110156134b5578473ffffffffffffffffffffffffffffffffffffffff166005600083815260200190815260200160002060009054906101000a900473ffffffffffffffffffffffffffffffffffffffff1673ffffffffffffffffffffffffffffffffffffffff1614156134a8578083838151811061349357fe5b60200260200101818152505081806001019250505b8080600101915050613412565b508192505050919050565b806005600082815260200190815260200160002060009054906101000a900473ffffffffffffffffffffffffffffffffffffffff1673ffffffffffffffffffffffffffffffffffffffff163373ffffffffffffffffffffffffffffffffffffffff161461352c57600080fd5b602654341461353a57600080fd5b61356b836004848154811061354b57fe5b9060005260206000209060090201600601546157a190919063ffffffff16565b6004838154811061357857fe5b9060005260206000209060090201600601819055506000602860009054906101000a900461ffff1661ffff1614156136095760026019540234146135bb57600080fd5b6135c4836158df565b6135ec6001602860009054906101000a900461ffff1661ffff166157db90919063ffffffff16565b602860006101000a81548161ffff021916908361ffff1602179055505b505050565b606483816004828154811061361f57fe5b906000526020600020906009020160050154101561363c57600080fd5b846005600082815260200190815260200160002060009054906101000a900473ffffffffffffffffffffffffffffffffffffffff1673ffffffffffffffffffffffffffffffffffffffff163373ffffffffffffffffffffffffffffffffffffffff16146136a857600080fd5b600f5434146136b657600080fd5b8484600488815481106136c557fe5b906000526020600020906009020160010191906136e3929190616121565b50505050505050565b816016600082815260200190815260200160002060009054906101000a900473ffffffffffffffffffffffffffffffffffffffff1673ffffffffffffffffffffffffffffffffffffffff163373ffffffffffffffffffffffffffffffffffffffff161461375857600080fd5b602454341461376657600080fd5b816015848154811061377457fe5b906000526020600020906005020160000181905550505050565b601954341461379c57600080fd5b600060405160200180807f53686f657300000000000000000000000000000000000000000000000000000081525060050190506040516020818303038152906040528051906020012090506000601a60009054906101000a900473ffffffffffffffffffffffffffffffffffffffff1673ffffffffffffffffffffffffffffffffffffffff1663a5f23e1d856040518263ffffffff1660e01b8152600401808281526020019150506101006040518083038186803b15801561385d57600080fd5b505afa158015613871573d6000803e3d6000fd5b505050506040513d61010081101561388857600080fd5b810190808051906020019092919080519060200190929190805190602001909291908051906020019092919080519060200190929190805190602001909291908051906020019092919080519060200190929190505050909192939495965090919293949550909192939450909192935090919250909150905080915050613911828285615562565b50505050565b60056020528060005260406000206000915054906101000a900473ffffffffffffffffffffffffffffffffffffffff1681565b601954341461395857600080fd5b600060405160200180807f556e64657277656172000000000000000000000000000000000000000000000081525060090190506040516020818303038152906040528051906020012090506000601d60009054906101000a900473ffffffffffffffffffffffffffffffffffffffff1673ffffffffffffffffffffffffffffffffffffffff166325f76202856040518263ffffffff1660e01b8152600401808281526020019150506101006040518083038186803b158015613a1957600080fd5b505afa158015613a2d573d6000803e3d6000fd5b505050506040513d610100811015613a4457600080fd5b810190808051906020019092919080519060200190929190805190602001909291908051906020019092919080519060200190929190805190602001909291908051906020019092919080519060200190929190505050909192939495965090919293949550909192939450909192935090919250909150905080915050613acd828285615562565b50505050565b6019543414613ae157600080fd5b600060405160200180807f536f636b7300000000000000000000000000000000000000000000000000000081525060050190506040516020818303038152906040528051906020012090506000601b60009054906101000a900473ffffffffffffffffffffffffffffffffffffffff1673ffffffffffffffffffffffffffffffffffffffff1663ee5394de856040518263ffffffff1660e01b8152600401808281526020019150506101006040518083038186803b158015613ba257600080fd5b505afa158015613bb6573d6000803e3d6000fd5b505050506040513d610100811015613bcd57600080fd5b810190808051906020019092919080519060200190929190805190602001909291908051906020019092919080519060200190929190805190602001909291908051906020019092919080519060200190929190505050909192939495965090919293949550909192939450909192935090919250909150905080915050613c56828285615562565b50505050565b6007543414613c6a57600080fd5b6000600660003373ffffffffffffffffffffffffffffffffffffffff1673ffffffffffffffffffffffffffffffffffffffff1681526020019081526020016000205414613cb657600080fd5b600060405160200180807f74726176656c657200000000000000000000000000000000000000000000000081525060080190506040516020818303038152906040528051906020012090506000613d416040518060400160405280600881526020017f74726176656c65720000000000000000000000000000000000000000000000008152506158f4565b905060648181613d4d57fe5b0681039050613d5d8284836150aa565b505050565b816005600082815260200190815260200160002060009054906101000a900473ffffffffffffffffffffffffffffffffffffffff1673ffffffffffffffffffffffffffffffffffffffff163373ffffffffffffffffffffffffffffffffffffffff1614613dce57600080fd5b816005600082815260200190815260200160002060009054906101000a900473ffffffffffffffffffffffffffffffffffffffff1673ffffffffffffffffffffffffffffffffffffffff163373ffffffffffffffffffffffffffffffffffffffff1614613e3a57600080fd5b600060048581548110613e4957fe5b90600052602060002090600902019050600060048581548110613e6857fe5b90600052602060002090600902019050613e8182615982565b613e8a57600080fd5b613e9381615982565b613e9c57600080fd5b600e543414613eaa57600080fd5b60006002826000015484600001540181613ec057fe5b049050600060405160200180807f63797068657250756e6b00000000000000000000000000000000000000000000815250600a019050604051602081830303815290604052805190602001208460030154148015613f67575060405160200180807f74726176656c65720000000000000000000000000000000000000000000000008152506008019050604051602081830303815290604052805190602001208360030154145b80614010575060405160200180807f74726176656c6572000000000000000000000000000000000000000000000000815250600801905060405160208183030381529060405280519060200120846003015414801561400f575060405160200180807f63797068657250756e6b00000000000000000000000000000000000000000000815250600a019050604051602081830303815290604052805190602001208360030154145b5b1561405f5760405160200180807f63797068657254726176656c6572000000000000000000000000000000000000815250600e0190506040516020818303038152906040528051906020012090505b60405160200180807f6b697474790000000000000000000000000000000000000000000000000000008152506005019050604051602081830303815290604052805190602001208460030154148015614101575060405160200180807f74726176656c65720000000000000000000000000000000000000000000000008152506008019050604051602081830303815290604052805190602001208360030154145b806141aa575060405160200180807f74726176656c657200000000000000000000000000000000000000000000000081525060080190506040516020818303038152906040528051906020012084600301541480156141a9575060405160200180807f6b697474790000000000000000000000000000000000000000000000000000008152506005019050604051602081830303815290604052805190602001208360030154145b5b156141f95760405160200180807f6b6974747954726176656c657200000000000000000000000000000000000000815250600d0190506040516020818303038152906040528051906020012090505b60405160200180807f626f726564417065000000000000000000000000000000000000000000000000815250600801905060405160208183030381529060405280519060200120846003015414801561429b575060405160200180807f74726176656c65720000000000000000000000000000000000000000000000008152506008019050604051602081830303815290604052805190602001208360030154145b80614344575060405160200180807f74726176656c65720000000000000000000000000000000000000000000000008152506008019050604051602081830303815290604052805190602001208460030154148015614343575060405160200180807f626f7265644170650000000000000000000000000000000000000000000000008152506008019050604051602081830303815290604052805190602001208360030154145b5b156143935760405160200180807f626f72656454726176656c657200000000000000000000000000000000000000815250600d0190506040516020818303038152906040528051906020012090505b60405160200180807f63797068657250756e6b00000000000000000000000000000000000000000000815250600a019050604051602081830303815290604052805190602001208460030154148015614435575060405160200180807f6b697474790000000000000000000000000000000000000000000000000000008152506005019050604051602081830303815290604052805190602001208360030154145b806144de575060405160200180807f6b6974747900000000000000000000000000000000000000000000000000000081525060050190506040516020818303038152906040528051906020012084600301541480156144dd575060405160200180807f63797068657250756e6b00000000000000000000000000000000000000000000815250600a019050604051602081830303815290604052805190602001208360030154145b5b1561452d5760405160200180807f6379706865724b69747479000000000000000000000000000000000000000000815250600b0190506040516020818303038152906040528051906020012090505b60405160200180807f63797068657250756e6b00000000000000000000000000000000000000000000815250600a0190506040516020818303038152906040528051906020012084600301541480156145cf575060405160200180807f626f7265644170650000000000000000000000000000000000000000000000008152506008019050604051602081830303815290604052805190602001208360030154145b80614678575060405160200180807f626f7265644170650000000000000000000000000000000000000000000000008152506008019050604051602081830303815290604052805190602001208460030154148015614677575060405160200180807f63797068657250756e6b00000000000000000000000000000000000000000000815250600a019050604051602081830303815290604052805190602001208360030154145b5b156146c75760405160200180807f637970686572417065000000000000000000000000000000000000000000000081525060090190506040516020818303038152906040528051906020012090505b60405160200180807f6b697474790000000000000000000000000000000000000000000000000000008152506005019050604051602081830303815290604052805190602001208460030154148015614769575060405160200180807f626f7265644170650000000000000000000000000000000000000000000000008152506008019050604051602081830303815290604052805190602001208360030154145b80614812575060405160200180807f626f7265644170650000000000000000000000000000000000000000000000008152506008019050604051602081830303815290604052805190602001208460030154148015614811575060405160200180807f6b697474790000000000000000000000000000000000000000000000000000008152506005019050604051602081830303815290604052805190602001208360030154145b5b156148615760405160200180807f6b6974747900000000000000000000000000000000000000000000000000000081525060050190506040516020818303038152906040528051906020012090505b60405160200180807f74726176656c65720000000000000000000000000000000000000000000000008152506008019050604051602081830303815290604052805190602001208460030154148015614903575060405160200180807f74726176656c65720000000000000000000000000000000000000000000000008152506008019050604051602081830303815290604052805190602001208360030154145b156149525760405160200180807f74726176656c657200000000000000000000000000000000000000000000000081525060080190506040516020818303038152906040528051906020012090505b60405160200180807f6b6974747900000000000000000000000000000000000000000000000000000081525060050190506040516020818303038152906040528051906020012084600301541480156149f4575060405160200180807f6b697474790000000000000000000000000000000000000000000000000000008152506005019050604051602081830303815290604052805190602001208360030154145b15614a435760405160200180807f6b6974747900000000000000000000000000000000000000000000000000000081525060050190506040516020818303038152906040528051906020012090505b60405160200180807f626f7265644170650000000000000000000000000000000000000000000000008152506008019050604051602081830303815290604052805190602001208460030154148015614ae5575060405160200180807f626f7265644170650000000000000000000000000000000000000000000000008152506008019050604051602081830303815290604052805190602001208360030154145b15614b345760405160200180807f626f72656441706500000000000000000000000000000000000000000000000081525060080190506040516020818303038152906040528051906020012090505b60405160200180807f63797068657250756e6b00000000000000000000000000000000000000000000815250600a019050604051602081830303815290604052805190602001208460030154148015614bd6575060405160200180807f63797068657250756e6b00000000000000000000000000000000000000000000815250600a019050604051602081830303815290604052805190602001208360030154145b15614c295760405160200180807f63797068657250756e6b00000000000000000000000000000000000000000000815250600a019050604051602081830303815290604052805190602001209050614c73565b60405160200180807f6e6577526163657300000000000000000000000000000000000000000000000081525060080190506040516020818303038152906040528051906020012090505b6000614c7f60646159a9565b9050600c548111158015614cab5750600d548560080160009054906101000a900461ffff1661ffff1611155b15614d1d57614cc282614cbc615012565b856150aa565b614ccb85615a38565b614cd484615a38565b614cfe60018660080160009054906101000a900461ffff1661ffff166157db90919063ffffffff16565b8560080160006101000a81548161ffff021916908361ffff1602179055505b600c5481118015614d465750600d548560080160009054906101000a900461ffff1661ffff1611155b15614da657614d5485615a38565b614d5d84615a38565b614d8760018660080160009054906101000a900461ffff1661ffff166157db90919063ffffffff16565b8560080160006101000a81548161ffff021916908361ffff1602179055505b505050505050505050565b614db9613092565b614dc257600080fd5b80601f60006101000a81548173ffffffffffffffffffffffffffffffffffffffff021916908373ffffffffffffffffffffffffffffffffffffffff16021790555050565b614e0e613092565b614e1757600080fd5b614e2081615a62565b50565b60166020528060005260406000206000915054906101000a900473ffffffffffffffffffffffffffffffffffffffff1681565b6007543414614e6457600080fd5b600060405160200180807f63797068657250756e6b00000000000000000000000000000000000000000000815250600a0190506040516020818303038152906040528051906020012090506060614eb9615012565b90506000600a60009054906101000a900473ffffffffffffffffffffffffffffffffffffffff1673ffffffffffffffffffffffffffffffffffffffff16632a417612856040518263ffffffff1660e01b8152600401808281526020019150506101406040518083038186803b158015614f3157600080fd5b505afa158015614f45573d6000803e3d6000fd5b505050506040513d610140811015614f5c57600080fd5b81019080805190602001909291908051906020019092919080519060200190929190805190602001909291908051906020019092919080519060200190929190805190602001909291908051906020019092919080519060200190929190805190602001909291905050509091929394959697985090919293949596975090919293949596509091929394955090919293945090919293509091925090915090508091505061500c8383836150aa565b50505050565b606060006032905060608161502760646159a9565b11615069576040518060400160405280600481526020017f6d616c650000000000000000000000000000000000000000000000000000000081525090506150a2565b6040518060400160405280600681526020017f66656d616c65000000000000000000000000000000000000000000000000000081525090505b809250505090565b60006003544201905060046040518061012001604052808481526020016040518060400160405280600681526020017f4e6f4e616d65000000000000000000000000000000000000000000000000000081525081526020018581526020018681526020018363ffffffff168152602001600081526020016000815260200160008152602001600061ffff16815250908060018154018082558091505090600182039060005260206000209060090201600090919290919091506000820151816000015560208201518160010190805190602001906151899291906161a1565b5060408201518160020190805190602001906151a69291906161a1565b506060820151816003015560808201518160040160006101000a81548163ffffffff021916908363ffffffff16021790555060a0820151816005015560c0820151816006015560e082015181600701556101008201518160080160006101000a81548161ffff021916908361ffff16021790555050505060006001600480549050039050336005600083815260200190815260200160002060006101000a81548173ffffffffffffffffffffffffffffffffffffffff021916908373ffffffffffffffffffffffffffffffffffffffff1602179055506152cf6001600660003373ffffffffffffffffffffffffffffffffffffffff1673ffffffffffffffffffffffffffffffffffffffff168152602001908152602001600020546157a190919063ffffffff16565b600660003373ffffffffffffffffffffffffffffffffffffffff1673ffffffffffffffffffffffffffffffffffffffff168152602001908152602001600020819055507f678dbb6331d0cd0cd21ff45fcbb1bc795295619c327d618856814cc8530d54f78184868886600080600080604051808a815260200189815260200180602001806020018981526020018863ffffffff1663ffffffff1681526020018761ffff1681526020018661ffff1681526020018561ffff1681526020018461ffff168152602001838103835260068152602001807f4e6f4e616d65000000000000000000000000000000000000000000000000000081525060200183810382528a818151815260200191508051906020019080838360005b838110156154025780820151818401526020810190506153e7565b50505050905090810190601f16801561542f5780820380516001836020036101000a031916815260200191505b509b50505050505050505050505060405180910390a15050505050565b60006154586064615826565b905060328110156154725761546d8383615b5a565b615496565b604b81101561548a576154858383615bf9565b615495565b6154948383615c98565b5b5b505050565b826005600082815260200190815260200160002060009054906101000a900473ffffffffffffffffffffffffffffffffffffffff1673ffffffffffffffffffffffffffffffffffffffff163373ffffffffffffffffffffffffffffffffffffffff161461550757600080fd5b61553a8383036004868154811061551a57fe5b9060005260206000209060090201600501546157a190919063ffffffff16565b6004858154811061554757fe5b90600052602060002090600902016005018190555050505050565b60006014544201905060156040518060a001604052808581526020018681526020018363ffffffff168152602001848152602001600061ffff1681525090806001815401808255809150509060018203906000526020600020906005020160009091929091909150600082015181600001556020820151816001015560408201518160020160006101000a81548163ffffffff021916908363ffffffff1602179055506060820151816003015560808201518160040160006101000a81548161ffff021916908361ffff16021790555050505060006001601580549050039050336016600083815260200190815260200160002060006101000a81548173ffffffffffffffffffffffffffffffffffffffff021916908373ffffffffffffffffffffffffffffffffffffffff1602179055506156e76001601760003373ffffffffffffffffffffffffffffffffffffffff1673ffffffffffffffffffffffffffffffffffffffff168152602001908152602001600020546157a190919063ffffffff16565b601760003373ffffffffffffffffffffffffffffffffffffffff1673ffffffffffffffffffffffffffffffffffffffff168152602001908152602001600020819055507f5ad354523f49f6a431c943b15028530250f3c9c42deb03b1bc586d7698af018881858785876000604051808781526020018681526020018581526020018463ffffffff1663ffffffff1681526020018381526020018261ffff168152602001965050505050505060405180910390a15050505050565b6000808284019050838110156157b357fe5b8091505092915050565b6157c681615d37565b6157cf81615de3565b6157d881615e8f565b50565b60008082840190508361ffff168161ffff1610156157f557fe5b8091505092915050565b6000428260020160009054906101000a900463ffffffff1663ffffffff1611159050919050565b6000601860008154809291906001019190505550814233601854604051602001808481526020018373ffffffffffffffffffffffffffffffffffffffff1673ffffffffffffffffffffffffffffffffffffffff1660601b815260140182815260200193505050506040516020818303038152906040528051906020012060001c816158ad57fe5b069050919050565b60145442018160020160006101000a81548163ffffffff021916908363ffffffff16021790555050565b6158e881615f3b565b6158f181615fe7565b50565b600080826040516020018082805190602001908083835b6020831061592e578051825260208201915060208101905060208303925061590b565b6001836020036101000a0380198251168184511680821785525050505050509050019150506040516020818303038152906040528051906020012060001c9050600254818161597957fe5b06915050919050565b6000428260040160009054906101000a900463ffffffff1663ffffffff1611159050919050565b6000600860008154809291906001019190505550814233600854604051602001808481526020018373ffffffffffffffffffffffffffffffffffffffff1673ffffffffffffffffffffffffffffffffffffffff1660601b815260140182815260200193505050506040516020818303038152906040528051906020012060001c81615a3057fe5b069050919050565b60035442018160040160006101000a81548163ffffffff021916908363ffffffff16021790555050565b600073ffffffffffffffffffffffffffffffffffffffff168173ffffffffffffffffffffffffffffffffffffffff161415615a9c57600080fd5b8073ffffffffffffffffffffffffffffffffffffffff166000809054906101000a900473ffffffffffffffffffffffffffffffffffffffff1673ffffffffffffffffffffffffffffffffffffffff167f8be0079c531659141344cd1fd0a4f28419497f9722a3daafe3b4186f6b6457e060405160405180910390a3806000806101000a81548173ffffffffffffffffffffffffffffffffffffffff021916908373ffffffffffffffffffffffffffffffffffffffff16021790555050565b600060405160200180807f54726176656c205061696e740000000000000000000000000000000000000000815250600c0190506040516020818303038152906040528051906020012090506000615bd784846040516020018083815260200182815260200192505050604051602081830303815290604052616093565b905060648181615be357fe5b0681039050615bf3828285615562565b50505050565b600060405160200180807f54726176656c204974656d000000000000000000000000000000000000000000815250600b0190506040516020818303038152906040528051906020012090506000615c7684846040516020018083815260200182815260200192505050604051602081830303815290604052616093565b905060648181615c8257fe5b0681039050615c92828285615562565b50505050565b600060405160200180807f54726176656c20436f75706f6e00000000000000000000000000000000000000815250600d0190506040516020818303038152906040528051906020012090506000615d1584846040516020018083815260200182815260200192505050604051602081830303815290604052616093565b905060648181615d2157fe5b0681039050615d31828285615562565b50505050565b600060405160200180807f536869727400000000000000000000000000000000000000000000000000000081525060050190506040516020818303038152906040528051906020012090506000615dc26040518060400160405280600b81526020017f426c616e6b205368697274000000000000000000000000000000000000000000815250616093565b905060648181615dce57fe5b0681039050615dde828285615562565b505050565b600060405160200180807f50616e747300000000000000000000000000000000000000000000000000000081525060050190506040516020818303038152906040528051906020012090506000615e6e6040518060400160405280600b81526020017f426c616e6b2050616e7473000000000000000000000000000000000000000000815250616093565b905060648181615e7a57fe5b0681039050615e8a828285615562565b505050565b600060405160200180807f53686f657300000000000000000000000000000000000000000000000000000081525060050190506040516020818303038152906040528051906020012090506000615f1a6040518060400160405280600b81526020017f426c616e6b2053686f6573000000000000000000000000000000000000000000815250616093565b905060648181615f2657fe5b0681039050615f36828285615562565b505050565b600060405160200180807f556e64657277656172000000000000000000000000000000000000000000000081525060090190506040516020818303038152906040528051906020012090506000615fc66040518060400160405280600f81526020017f426c616e6b20556e646572776561720000000000000000000000000000000000815250616093565b905060648181615fd257fe5b0681039050615fe2828285615562565b505050565b600060405160200180807f536f636b73000000000000000000000000000000000000000000000000000000815250600501905060405160208183030381529060405280519060200120905060006160726040518060400160405280600b81526020017f426c616e6b20536f636b73000000000000000000000000000000000000000000815250616093565b90506064818161607e57fe5b068103905061608e828285615562565b505050565b600080826040516020018082805190602001908083835b602083106160cd57805182526020820191506020810190506020830392506160aa565b6001836020036101000a0380198251168184511680821785525050505050509050019150506040516020818303038152906040528051906020012060001c9050601354818161611857fe5b06915050919050565b828054600181600116156101000203166002900490600052602060002090601f016020900481019282601f1061616257803560ff1916838001178555616190565b82800160010185558215616190579182015b8281111561618f578235825591602001919060010190616174565b5b50905061619d9190616221565b5090565b828054600181600116156101000203166002900490600052602060002090601f016020900481019282601f106161e257805160ff1916838001178555616210565b82800160010185558215616210579182015b8281111561620f5782518255916020019190600101906161f4565b5b50905061621d9190616221565b5090565b61624391905b8082111561623f576000816000905550600101616227565b5090565b9056fea265627a7a72315820e835c24a6970b4717440de2fbac66f8fc22d1471a99dd7c9c0cc00d024a227a164736f6c63430005100032",
  "source": "// SPDX-License-Identifier: MIT\r\npragma solidity >=0.4.22 <0.9.0;\r\n\r\nimport \"./avatarhelper.sol\";\r\nimport \"./piecehelper.sol\";\r\nimport \"./safemath.sol\";\r\n\r\ncontract TravelQuestNPC is AvatarHelper, PieceHelper {\r\n\r\n  using SafeMath for uint256;\r\n  using SafeMath16 for uint16;\r\n\r\n  uint changeLocFee = 0.01 ether;\r\n  uint travelFee = 0.01 ether;\r\n  uint16 setHomeCount = 0;\r\n  uint16 setWorkCount = 0;\r\n\r\n  function setHomeQuest(uint256 _curr_loc, uint _avatarId) public payable onlyOwnerOfAvatar(_avatarId) {\r\n      require(msg.value == changeLocFee);\r\n      avatars[_avatarId].avatarHome = avatars[_avatarId].avatarHome.add(_curr_loc);\r\n      if(setHomeCount == 0) {\r\n          require(msg.value == createPieceFee * 2);\r\n          _firstHomeSetRewards(_curr_loc);\r\n          setHomeCount = setHomeCount.add(1);\r\n          }\r\n  }\r\n\r\n  function setWorkPlaceQuest(uint256 _curr_loc, uint _avatarId) public payable onlyOwnerOfAvatar(_avatarId) {\r\n      require(msg.value == changeLocFee);\r\n      avatars[_avatarId].avatarWorkPlace = avatars[_avatarId].avatarWorkPlace.add(_curr_loc);\r\n      require(msg.value == travelFee);\r\n      _traveledMiles(_avatarId, avatars[_avatarId].avatarHome, avatars[_avatarId].avatarWorkPlace);\r\n      if (setWorkCount == 0) {\r\n          require(msg.value == createPieceFee * 4);\r\n          _firstWorkPlaceSetRewards(_curr_loc);\r\n          _createTravelGift(avatars[_avatarId].avatarWorkPlace, avatars[_avatarId].avatarHome);\r\n          setWorkCount = setWorkCount.add(1);\r\n           //travel tokens rewards\r\n      }\r\n  }\r\n\r\n  function workTravelQuest(uint256 _curr_loc, uint _avatarId) public payable onlyOwnerOfAvatar(_avatarId) {\r\n      if (_curr_loc - avatars[_avatarId].avatarWorkPlace < 1 || _curr_loc - avatars[_avatarId].avatarHome < 1) {\r\n          require(msg.value == createPieceFee);\r\n          _createTravelGift(avatars[_avatarId].avatarWorkPlace, avatars[_avatarId].avatarHome);\r\n          require(msg.value == travelFee);\r\n          _traveledMiles(_avatarId, avatars[_avatarId].avatarHome, avatars[_avatarId].avatarWorkPlace);\r\n          //travel token rewards\r\n      }\r\n  }\r\n\r\n  function travelQuest(uint256 _curr_loc, uint256 _last_loc, uint _avatarId) public payable onlyOwnerOfAvatar(_avatarId) {\r\n      require(msg.value == createPieceFee);\r\n      _createTravelGift(_curr_loc, _last_loc);\r\n      require(msg.value == travelFee);\r\n      _traveledMiles(_avatarId, _curr_loc, _last_loc);\r\n      // travel tokens rewards\r\n  }\r\n\r\n  function workQuest(uint256 _curr_loc, uint _avatarId) public onlyOwnerOfAvatar(_avatarId) {\r\n      if(_curr_loc - avatars[_avatarId].avatarWorkPlace < 1) {\r\n          //start minning work tokens with devices\r\n      }\r\n  }\r\n}\r\n\r\n//c_no_mad_",
  "sourcePath": "C:\\Users\\pablo\\PycharmProjects\\LiveAndTravel\\contracts\\travelQuestNPC.sol",
  "compiler": {
    "name": "solc",
    "version": "0.5.16+commit.9c3226ce.Emscripten.clang"
  },
  "schemaVersion": "3.4.4",
  "updatedAt": "2022-01-17T17:37:50.365Z",
  "devdoc": {
    "methods": {}
  },
  "userdoc": {
    "methods": {}
  }
}